{
	"data": {
		"bytecode": {
			"linkReferences": {},
			"object": "608060405234801561000f575f80fd5b50610d5f8061001d5f395ff3fe608060405234801561000f575f80fd5b506004361061004a575f3560e01c80633e2abb141461004e5780635a28a7a21461006c5780636e2acd0114610088578063bb032a66146100b8575b5f80fd5b6100566100ed565b604051610063919061056d565b60405180910390f35b610086600480360381019061008191906106f4565b610202565b005b6100a2600480360381019061009d9190610872565b61030d565b6040516100af91906108c8565b60405180910390f35b6100d260048036038101906100cd919061093b565b61033c565b6040516100e4969594939291906109bd565b60405180910390f35b6100f56103f9565b5f803373ffffffffffffffffffffffffffffffffffffffff1673ffffffffffffffffffffffffffffffffffffffff1681526020019081526020015f206040518060c00160405290815f820154815260200160018201805461015590610a50565b80601f016020809104026020016040519081016040528092919081815260200182805461018190610a50565b80156101cc5780601f106101a3576101008083540402835291602001916101cc565b820191905f5260205f20905b8154815290600101906020018083116101af57829003601f168201915b50505050508152602001600282015481526020016003820154815260200160048201548152602001600582015481525050905090565b5f6040518060c001604052805f801916815260200187815260200186815260200185815260200184815260200183815250905061023e8161030d565b815f018181525050805f803373ffffffffffffffffffffffffffffffffffffffff1673ffffffffffffffffffffffffffffffffffffffff1681526020019081526020015f205f820151815f015560208201518160010190816102a09190610c1d565b5060408201518160020155606082015181600301556080820151816004015560a082015181600501559050507fb15e6bddf3f6700a98b1d43b1db5bfbda6912361a5c8e0b36e326d9e2ed444a933826040516102fd929190610cfb565b60405180910390a1505050505050565b5f8160405160200161031f919061056d565b604051602081830303815290604052805190602001209050919050565b5f602052805f5260405f205f91509050805f01549080600101805461036090610a50565b80601f016020809104026020016040519081016040528092919081815260200182805461038c90610a50565b80156103d75780601f106103ae576101008083540402835291602001916103d7565b820191905f5260205f20905b8154815290600101906020018083116103ba57829003601f168201915b5050505050908060020154908060030154908060040154908060050154905086565b6040518060c001604052805f8019168152602001606081526020015f81526020015f81526020015f81526020015f81525090565b5f819050919050565b61043f8161042d565b82525050565b5f81519050919050565b5f82825260208201905092915050565b5f5b8381101561047c578082015181840152602081019050610461565b5f8484015250505050565b5f601f19601f8301169050919050565b5f6104a182610445565b6104ab818561044f565b93506104bb81856020860161045f565b6104c481610487565b840191505092915050565b5f819050919050565b6104e1816104cf565b82525050565b5f60c083015f8301516104fc5f860182610436565b50602083015184820360208601526105148282610497565b915050604083015161052960408601826104d8565b50606083015161053c60608601826104d8565b50608083015161054f60808601826104d8565b5060a083015161056260a08601826104d8565b508091505092915050565b5f6020820190508181035f83015261058581846104e7565b905092915050565b5f604051905090565b5f80fd5b5f80fd5b5f80fd5b5f80fd5b7f4e487b71000000000000000000000000000000000000000000000000000000005f52604160045260245ffd5b6105dc82610487565b810181811067ffffffffffffffff821117156105fb576105fa6105a6565b5b80604052505050565b5f61060d61058d565b905061061982826105d3565b919050565b5f67ffffffffffffffff821115610638576106376105a6565b5b61064182610487565b9050602081019050919050565b828183375f83830152505050565b5f61066e6106698461061e565b610604565b90508281526020810184848401111561068a576106896105a2565b5b61069584828561064e565b509392505050565b5f82601f8301126106b1576106b061059e565b5b81356106c184826020860161065c565b91505092915050565b6106d3816104cf565b81146106dd575f80fd5b50565b5f813590506106ee816106ca565b92915050565b5f805f805f60a0868803121561070d5761070c610596565b5b5f86013567ffffffffffffffff81111561072a5761072961059a565b5b6107368882890161069d565b9550506020610747888289016106e0565b9450506040610758888289016106e0565b9350506060610769888289016106e0565b925050608061077a888289016106e0565b9150509295509295909350565b5f80fd5b5f80fd5b6107988161042d565b81146107a2575f80fd5b50565b5f813590506107b38161078f565b92915050565b5f60c082840312156107ce576107cd610787565b5b6107d860c0610604565b90505f6107e7848285016107a5565b5f83015250602082013567ffffffffffffffff81111561080a5761080961078b565b5b6108168482850161069d565b602083015250604061082a848285016106e0565b604083015250606061083e848285016106e0565b6060830152506080610852848285016106e0565b60808301525060a0610866848285016106e0565b60a08301525092915050565b5f6020828403121561088757610886610596565b5b5f82013567ffffffffffffffff8111156108a4576108a361059a565b5b6108b0848285016107b9565b91505092915050565b6108c28161042d565b82525050565b5f6020820190506108db5f8301846108b9565b92915050565b5f73ffffffffffffffffffffffffffffffffffffffff82169050919050565b5f61090a826108e1565b9050919050565b61091a81610900565b8114610924575f80fd5b50565b5f8135905061093581610911565b92915050565b5f602082840312156109505761094f610596565b5b5f61095d84828501610927565b91505092915050565b5f82825260208201905092915050565b5f61098082610445565b61098a8185610966565b935061099a81856020860161045f565b6109a381610487565b840191505092915050565b6109b7816104cf565b82525050565b5f60c0820190506109d05f8301896108b9565b81810360208301526109e28188610976565b90506109f160408301876109ae565b6109fe60608301866109ae565b610a0b60808301856109ae565b610a1860a08301846109ae565b979650505050505050565b7f4e487b71000000000000000000000000000000000000000000000000000000005f52602260045260245ffd5b5f6002820490506001821680610a6757607f821691505b602082108103610a7a57610a79610a23565b5b50919050565b5f819050815f5260205f209050919050565b5f6020601f8301049050919050565b5f82821b905092915050565b5f60088302610adc7fffffffffffffffffffffffffffffffffffffffffffffffffffffffffffffffff82610aa1565b610ae68683610aa1565b95508019841693508086168417925050509392505050565b5f819050919050565b5f610b21610b1c610b17846104cf565b610afe565b6104cf565b9050919050565b5f819050919050565b610b3a83610b07565b610b4e610b4682610b28565b848454610aad565b825550505050565b5f90565b610b62610b56565b610b6d818484610b31565b505050565b5b81811015610b9057610b855f82610b5a565b600181019050610b73565b5050565b601f821115610bd557610ba681610a80565b610baf84610a92565b81016020851015610bbe578190505b610bd2610bca85610a92565b830182610b72565b50505b505050565b5f82821c905092915050565b5f610bf55f1984600802610bda565b1980831691505092915050565b5f610c0d8383610be6565b9150826002028217905092915050565b610c2682610445565b67ffffffffffffffff811115610c3f57610c3e6105a6565b5b610c498254610a50565b610c54828285610b94565b5f60209050601f831160018114610c85575f8415610c73578287015190505b610c7d8582610c02565b865550610ce4565b601f198416610c9386610a80565b5f5b82811015610cba57848901518255600182019150602085019450602081019050610c95565b86831015610cd75784890151610cd3601f891682610be6565b8355505b6001600288020188555050505b505050505050565b610cf581610900565b82525050565b5f604082019050610d0e5f830185610cec565b8181036020830152610d2081846104e7565b9050939250505056fea2646970667358221220ef9967751a38b87546ae7d2c23d17f9849f2f5c6b3560374137b0aea516748ef64736f6c63430008160033",
			"opcodes": "PUSH1 0x80 PUSH1 0x40 MSTORE CALLVALUE DUP1 ISZERO PUSH2 0xF JUMPI PUSH0 DUP1 REVERT JUMPDEST POP PUSH2 0xD5F DUP1 PUSH2 0x1D PUSH0 CODECOPY PUSH0 RETURN INVALID PUSH1 0x80 PUSH1 0x40 MSTORE CALLVALUE DUP1 ISZERO PUSH2 0xF JUMPI PUSH0 DUP1 REVERT JUMPDEST POP PUSH1 0x4 CALLDATASIZE LT PUSH2 0x4A JUMPI PUSH0 CALLDATALOAD PUSH1 0xE0 SHR DUP1 PUSH4 0x3E2ABB14 EQ PUSH2 0x4E JUMPI DUP1 PUSH4 0x5A28A7A2 EQ PUSH2 0x6C JUMPI DUP1 PUSH4 0x6E2ACD01 EQ PUSH2 0x88 JUMPI DUP1 PUSH4 0xBB032A66 EQ PUSH2 0xB8 JUMPI JUMPDEST PUSH0 DUP1 REVERT JUMPDEST PUSH2 0x56 PUSH2 0xED JUMP JUMPDEST PUSH1 0x40 MLOAD PUSH2 0x63 SWAP2 SWAP1 PUSH2 0x56D JUMP JUMPDEST PUSH1 0x40 MLOAD DUP1 SWAP2 SUB SWAP1 RETURN JUMPDEST PUSH2 0x86 PUSH1 0x4 DUP1 CALLDATASIZE SUB DUP2 ADD SWAP1 PUSH2 0x81 SWAP2 SWAP1 PUSH2 0x6F4 JUMP JUMPDEST PUSH2 0x202 JUMP JUMPDEST STOP JUMPDEST PUSH2 0xA2 PUSH1 0x4 DUP1 CALLDATASIZE SUB DUP2 ADD SWAP1 PUSH2 0x9D SWAP2 SWAP1 PUSH2 0x872 JUMP JUMPDEST PUSH2 0x30D JUMP JUMPDEST PUSH1 0x40 MLOAD PUSH2 0xAF SWAP2 SWAP1 PUSH2 0x8C8 JUMP JUMPDEST PUSH1 0x40 MLOAD DUP1 SWAP2 SUB SWAP1 RETURN JUMPDEST PUSH2 0xD2 PUSH1 0x4 DUP1 CALLDATASIZE SUB DUP2 ADD SWAP1 PUSH2 0xCD SWAP2 SWAP1 PUSH2 0x93B JUMP JUMPDEST PUSH2 0x33C JUMP JUMPDEST PUSH1 0x40 MLOAD PUSH2 0xE4 SWAP7 SWAP6 SWAP5 SWAP4 SWAP3 SWAP2 SWAP1 PUSH2 0x9BD JUMP JUMPDEST PUSH1 0x40 MLOAD DUP1 SWAP2 SUB SWAP1 RETURN JUMPDEST PUSH2 0xF5 PUSH2 0x3F9 JUMP JUMPDEST PUSH0 DUP1 CALLER PUSH20 0xFFFFFFFFFFFFFFFFFFFFFFFFFFFFFFFFFFFFFFFF AND PUSH20 0xFFFFFFFFFFFFFFFFFFFFFFFFFFFFFFFFFFFFFFFF AND DUP2 MSTORE PUSH1 0x20 ADD SWAP1 DUP2 MSTORE PUSH1 0x20 ADD PUSH0 KECCAK256 PUSH1 0x40 MLOAD DUP1 PUSH1 0xC0 ADD PUSH1 0x40 MSTORE SWAP1 DUP2 PUSH0 DUP3 ADD SLOAD DUP2 MSTORE PUSH1 0x20 ADD PUSH1 0x1 DUP3 ADD DUP1 SLOAD PUSH2 0x155 SWAP1 PUSH2 0xA50 JUMP JUMPDEST DUP1 PUSH1 0x1F ADD PUSH1 0x20 DUP1 SWAP2 DIV MUL PUSH1 0x20 ADD PUSH1 0x40 MLOAD SWAP1 DUP2 ADD PUSH1 0x40 MSTORE DUP1 SWAP3 SWAP2 SWAP1 DUP2 DUP2 MSTORE PUSH1 0x20 ADD DUP3 DUP1 SLOAD PUSH2 0x181 SWAP1 PUSH2 0xA50 JUMP JUMPDEST DUP1 ISZERO PUSH2 0x1CC JUMPI DUP1 PUSH1 0x1F LT PUSH2 0x1A3 JUMPI PUSH2 0x100 DUP1 DUP4 SLOAD DIV MUL DUP4 MSTORE SWAP2 PUSH1 0x20 ADD SWAP2 PUSH2 0x1CC JUMP JUMPDEST DUP3 ADD SWAP2 SWAP1 PUSH0 MSTORE PUSH1 0x20 PUSH0 KECCAK256 SWAP1 JUMPDEST DUP2 SLOAD DUP2 MSTORE SWAP1 PUSH1 0x1 ADD SWAP1 PUSH1 0x20 ADD DUP1 DUP4 GT PUSH2 0x1AF JUMPI DUP3 SWAP1 SUB PUSH1 0x1F AND DUP3 ADD SWAP2 JUMPDEST POP POP POP POP POP DUP2 MSTORE PUSH1 0x20 ADD PUSH1 0x2 DUP3 ADD SLOAD DUP2 MSTORE PUSH1 0x20 ADD PUSH1 0x3 DUP3 ADD SLOAD DUP2 MSTORE PUSH1 0x20 ADD PUSH1 0x4 DUP3 ADD SLOAD DUP2 MSTORE PUSH1 0x20 ADD PUSH1 0x5 DUP3 ADD SLOAD DUP2 MSTORE POP POP SWAP1 POP SWAP1 JUMP JUMPDEST PUSH0 PUSH1 0x40 MLOAD DUP1 PUSH1 0xC0 ADD PUSH1 0x40 MSTORE DUP1 PUSH0 DUP1 NOT AND DUP2 MSTORE PUSH1 0x20 ADD DUP8 DUP2 MSTORE PUSH1 0x20 ADD DUP7 DUP2 MSTORE PUSH1 0x20 ADD DUP6 DUP2 MSTORE PUSH1 0x20 ADD DUP5 DUP2 MSTORE PUSH1 0x20 ADD DUP4 DUP2 MSTORE POP SWAP1 POP PUSH2 0x23E DUP2 PUSH2 0x30D JUMP JUMPDEST DUP2 PUSH0 ADD DUP2 DUP2 MSTORE POP POP DUP1 PUSH0 DUP1 CALLER PUSH20 0xFFFFFFFFFFFFFFFFFFFFFFFFFFFFFFFFFFFFFFFF AND PUSH20 0xFFFFFFFFFFFFFFFFFFFFFFFFFFFFFFFFFFFFFFFF AND DUP2 MSTORE PUSH1 0x20 ADD SWAP1 DUP2 MSTORE PUSH1 0x20 ADD PUSH0 KECCAK256 PUSH0 DUP3 ADD MLOAD DUP2 PUSH0 ADD SSTORE PUSH1 0x20 DUP3 ADD MLOAD DUP2 PUSH1 0x1 ADD SWAP1 DUP2 PUSH2 0x2A0 SWAP2 SWAP1 PUSH2 0xC1D JUMP JUMPDEST POP PUSH1 0x40 DUP3 ADD MLOAD DUP2 PUSH1 0x2 ADD SSTORE PUSH1 0x60 DUP3 ADD MLOAD DUP2 PUSH1 0x3 ADD SSTORE PUSH1 0x80 DUP3 ADD MLOAD DUP2 PUSH1 0x4 ADD SSTORE PUSH1 0xA0 DUP3 ADD MLOAD DUP2 PUSH1 0x5 ADD SSTORE SWAP1 POP POP PUSH32 0xB15E6BDDF3F6700A98B1D43B1DB5BFBDA6912361A5C8E0B36E326D9E2ED444A9 CALLER DUP3 PUSH1 0x40 MLOAD PUSH2 0x2FD SWAP3 SWAP2 SWAP1 PUSH2 0xCFB JUMP JUMPDEST PUSH1 0x40 MLOAD DUP1 SWAP2 SUB SWAP1 LOG1 POP POP POP POP POP POP JUMP JUMPDEST PUSH0 DUP2 PUSH1 0x40 MLOAD PUSH1 0x20 ADD PUSH2 0x31F SWAP2 SWAP1 PUSH2 0x56D JUMP JUMPDEST PUSH1 0x40 MLOAD PUSH1 0x20 DUP2 DUP4 SUB SUB DUP2 MSTORE SWAP1 PUSH1 0x40 MSTORE DUP1 MLOAD SWAP1 PUSH1 0x20 ADD KECCAK256 SWAP1 POP SWAP2 SWAP1 POP JUMP JUMPDEST PUSH0 PUSH1 0x20 MSTORE DUP1 PUSH0 MSTORE PUSH1 0x40 PUSH0 KECCAK256 PUSH0 SWAP2 POP SWAP1 POP DUP1 PUSH0 ADD SLOAD SWAP1 DUP1 PUSH1 0x1 ADD DUP1 SLOAD PUSH2 0x360 SWAP1 PUSH2 0xA50 JUMP JUMPDEST DUP1 PUSH1 0x1F ADD PUSH1 0x20 DUP1 SWAP2 DIV MUL PUSH1 0x20 ADD PUSH1 0x40 MLOAD SWAP1 DUP2 ADD PUSH1 0x40 MSTORE DUP1 SWAP3 SWAP2 SWAP1 DUP2 DUP2 MSTORE PUSH1 0x20 ADD DUP3 DUP1 SLOAD PUSH2 0x38C SWAP1 PUSH2 0xA50 JUMP JUMPDEST DUP1 ISZERO PUSH2 0x3D7 JUMPI DUP1 PUSH1 0x1F LT PUSH2 0x3AE JUMPI PUSH2 0x100 DUP1 DUP4 SLOAD DIV MUL DUP4 MSTORE SWAP2 PUSH1 0x20 ADD SWAP2 PUSH2 0x3D7 JUMP JUMPDEST DUP3 ADD SWAP2 SWAP1 PUSH0 MSTORE PUSH1 0x20 PUSH0 KECCAK256 SWAP1 JUMPDEST DUP2 SLOAD DUP2 MSTORE SWAP1 PUSH1 0x1 ADD SWAP1 PUSH1 0x20 ADD DUP1 DUP4 GT PUSH2 0x3BA JUMPI DUP3 SWAP1 SUB PUSH1 0x1F AND DUP3 ADD SWAP2 JUMPDEST POP POP POP POP POP SWAP1 DUP1 PUSH1 0x2 ADD SLOAD SWAP1 DUP1 PUSH1 0x3 ADD SLOAD SWAP1 DUP1 PUSH1 0x4 ADD SLOAD SWAP1 DUP1 PUSH1 0x5 ADD SLOAD SWAP1 POP DUP7 JUMP JUMPDEST PUSH1 0x40 MLOAD DUP1 PUSH1 0xC0 ADD PUSH1 0x40 MSTORE DUP1 PUSH0 DUP1 NOT AND DUP2 MSTORE PUSH1 0x20 ADD PUSH1 0x60 DUP2 MSTORE PUSH1 0x20 ADD PUSH0 DUP2 MSTORE PUSH1 0x20 ADD PUSH0 DUP2 MSTORE PUSH1 0x20 ADD PUSH0 DUP2 MSTORE PUSH1 0x20 ADD PUSH0 DUP2 MSTORE POP SWAP1 JUMP JUMPDEST PUSH0 DUP2 SWAP1 POP SWAP2 SWAP1 POP JUMP JUMPDEST PUSH2 0x43F DUP2 PUSH2 0x42D JUMP JUMPDEST DUP3 MSTORE POP POP JUMP JUMPDEST PUSH0 DUP2 MLOAD SWAP1 POP SWAP2 SWAP1 POP JUMP JUMPDEST PUSH0 DUP3 DUP3 MSTORE PUSH1 0x20 DUP3 ADD SWAP1 POP SWAP3 SWAP2 POP POP JUMP JUMPDEST PUSH0 JUMPDEST DUP4 DUP2 LT ISZERO PUSH2 0x47C JUMPI DUP1 DUP3 ADD MLOAD DUP2 DUP5 ADD MSTORE PUSH1 0x20 DUP2 ADD SWAP1 POP PUSH2 0x461 JUMP JUMPDEST PUSH0 DUP5 DUP5 ADD MSTORE POP POP POP POP JUMP JUMPDEST PUSH0 PUSH1 0x1F NOT PUSH1 0x1F DUP4 ADD AND SWAP1 POP SWAP2 SWAP1 POP JUMP JUMPDEST PUSH0 PUSH2 0x4A1 DUP3 PUSH2 0x445 JUMP JUMPDEST PUSH2 0x4AB DUP2 DUP6 PUSH2 0x44F JUMP JUMPDEST SWAP4 POP PUSH2 0x4BB DUP2 DUP6 PUSH1 0x20 DUP7 ADD PUSH2 0x45F JUMP JUMPDEST PUSH2 0x4C4 DUP2 PUSH2 0x487 JUMP JUMPDEST DUP5 ADD SWAP2 POP POP SWAP3 SWAP2 POP POP JUMP JUMPDEST PUSH0 DUP2 SWAP1 POP SWAP2 SWAP1 POP JUMP JUMPDEST PUSH2 0x4E1 DUP2 PUSH2 0x4CF JUMP JUMPDEST DUP3 MSTORE POP POP JUMP JUMPDEST PUSH0 PUSH1 0xC0 DUP4 ADD PUSH0 DUP4 ADD MLOAD PUSH2 0x4FC PUSH0 DUP7 ADD DUP3 PUSH2 0x436 JUMP JUMPDEST POP PUSH1 0x20 DUP4 ADD MLOAD DUP5 DUP3 SUB PUSH1 0x20 DUP7 ADD MSTORE PUSH2 0x514 DUP3 DUP3 PUSH2 0x497 JUMP JUMPDEST SWAP2 POP POP PUSH1 0x40 DUP4 ADD MLOAD PUSH2 0x529 PUSH1 0x40 DUP7 ADD DUP3 PUSH2 0x4D8 JUMP JUMPDEST POP PUSH1 0x60 DUP4 ADD MLOAD PUSH2 0x53C PUSH1 0x60 DUP7 ADD DUP3 PUSH2 0x4D8 JUMP JUMPDEST POP PUSH1 0x80 DUP4 ADD MLOAD PUSH2 0x54F PUSH1 0x80 DUP7 ADD DUP3 PUSH2 0x4D8 JUMP JUMPDEST POP PUSH1 0xA0 DUP4 ADD MLOAD PUSH2 0x562 PUSH1 0xA0 DUP7 ADD DUP3 PUSH2 0x4D8 JUMP JUMPDEST POP DUP1 SWAP2 POP POP SWAP3 SWAP2 POP POP JUMP JUMPDEST PUSH0 PUSH1 0x20 DUP3 ADD SWAP1 POP DUP2 DUP2 SUB PUSH0 DUP4 ADD MSTORE PUSH2 0x585 DUP2 DUP5 PUSH2 0x4E7 JUMP JUMPDEST SWAP1 POP SWAP3 SWAP2 POP POP JUMP JUMPDEST PUSH0 PUSH1 0x40 MLOAD SWAP1 POP SWAP1 JUMP JUMPDEST PUSH0 DUP1 REVERT JUMPDEST PUSH0 DUP1 REVERT JUMPDEST PUSH0 DUP1 REVERT JUMPDEST PUSH0 DUP1 REVERT JUMPDEST PUSH32 0x4E487B7100000000000000000000000000000000000000000000000000000000 PUSH0 MSTORE PUSH1 0x41 PUSH1 0x4 MSTORE PUSH1 0x24 PUSH0 REVERT JUMPDEST PUSH2 0x5DC DUP3 PUSH2 0x487 JUMP JUMPDEST DUP2 ADD DUP2 DUP2 LT PUSH8 0xFFFFFFFFFFFFFFFF DUP3 GT OR ISZERO PUSH2 0x5FB JUMPI PUSH2 0x5FA PUSH2 0x5A6 JUMP JUMPDEST JUMPDEST DUP1 PUSH1 0x40 MSTORE POP POP POP JUMP JUMPDEST PUSH0 PUSH2 0x60D PUSH2 0x58D JUMP JUMPDEST SWAP1 POP PUSH2 0x619 DUP3 DUP3 PUSH2 0x5D3 JUMP JUMPDEST SWAP2 SWAP1 POP JUMP JUMPDEST PUSH0 PUSH8 0xFFFFFFFFFFFFFFFF DUP3 GT ISZERO PUSH2 0x638 JUMPI PUSH2 0x637 PUSH2 0x5A6 JUMP JUMPDEST JUMPDEST PUSH2 0x641 DUP3 PUSH2 0x487 JUMP JUMPDEST SWAP1 POP PUSH1 0x20 DUP2 ADD SWAP1 POP SWAP2 SWAP1 POP JUMP JUMPDEST DUP3 DUP2 DUP4 CALLDATACOPY PUSH0 DUP4 DUP4 ADD MSTORE POP POP POP JUMP JUMPDEST PUSH0 PUSH2 0x66E PUSH2 0x669 DUP5 PUSH2 0x61E JUMP JUMPDEST PUSH2 0x604 JUMP JUMPDEST SWAP1 POP DUP3 DUP2 MSTORE PUSH1 0x20 DUP2 ADD DUP5 DUP5 DUP5 ADD GT ISZERO PUSH2 0x68A JUMPI PUSH2 0x689 PUSH2 0x5A2 JUMP JUMPDEST JUMPDEST PUSH2 0x695 DUP5 DUP3 DUP6 PUSH2 0x64E JUMP JUMPDEST POP SWAP4 SWAP3 POP POP POP JUMP JUMPDEST PUSH0 DUP3 PUSH1 0x1F DUP4 ADD SLT PUSH2 0x6B1 JUMPI PUSH2 0x6B0 PUSH2 0x59E JUMP JUMPDEST JUMPDEST DUP2 CALLDATALOAD PUSH2 0x6C1 DUP5 DUP3 PUSH1 0x20 DUP7 ADD PUSH2 0x65C JUMP JUMPDEST SWAP2 POP POP SWAP3 SWAP2 POP POP JUMP JUMPDEST PUSH2 0x6D3 DUP2 PUSH2 0x4CF JUMP JUMPDEST DUP2 EQ PUSH2 0x6DD JUMPI PUSH0 DUP1 REVERT JUMPDEST POP JUMP JUMPDEST PUSH0 DUP2 CALLDATALOAD SWAP1 POP PUSH2 0x6EE DUP2 PUSH2 0x6CA JUMP JUMPDEST SWAP3 SWAP2 POP POP JUMP JUMPDEST PUSH0 DUP1 PUSH0 DUP1 PUSH0 PUSH1 0xA0 DUP7 DUP9 SUB SLT ISZERO PUSH2 0x70D JUMPI PUSH2 0x70C PUSH2 0x596 JUMP JUMPDEST JUMPDEST PUSH0 DUP7 ADD CALLDATALOAD PUSH8 0xFFFFFFFFFFFFFFFF DUP2 GT ISZERO PUSH2 0x72A JUMPI PUSH2 0x729 PUSH2 0x59A JUMP JUMPDEST JUMPDEST PUSH2 0x736 DUP9 DUP3 DUP10 ADD PUSH2 0x69D JUMP JUMPDEST SWAP6 POP POP PUSH1 0x20 PUSH2 0x747 DUP9 DUP3 DUP10 ADD PUSH2 0x6E0 JUMP JUMPDEST SWAP5 POP POP PUSH1 0x40 PUSH2 0x758 DUP9 DUP3 DUP10 ADD PUSH2 0x6E0 JUMP JUMPDEST SWAP4 POP POP PUSH1 0x60 PUSH2 0x769 DUP9 DUP3 DUP10 ADD PUSH2 0x6E0 JUMP JUMPDEST SWAP3 POP POP PUSH1 0x80 PUSH2 0x77A DUP9 DUP3 DUP10 ADD PUSH2 0x6E0 JUMP JUMPDEST SWAP2 POP POP SWAP3 SWAP6 POP SWAP3 SWAP6 SWAP1 SWAP4 POP JUMP JUMPDEST PUSH0 DUP1 REVERT JUMPDEST PUSH0 DUP1 REVERT JUMPDEST PUSH2 0x798 DUP2 PUSH2 0x42D JUMP JUMPDEST DUP2 EQ PUSH2 0x7A2 JUMPI PUSH0 DUP1 REVERT JUMPDEST POP JUMP JUMPDEST PUSH0 DUP2 CALLDATALOAD SWAP1 POP PUSH2 0x7B3 DUP2 PUSH2 0x78F JUMP JUMPDEST SWAP3 SWAP2 POP POP JUMP JUMPDEST PUSH0 PUSH1 0xC0 DUP3 DUP5 SUB SLT ISZERO PUSH2 0x7CE JUMPI PUSH2 0x7CD PUSH2 0x787 JUMP JUMPDEST JUMPDEST PUSH2 0x7D8 PUSH1 0xC0 PUSH2 0x604 JUMP JUMPDEST SWAP1 POP PUSH0 PUSH2 0x7E7 DUP5 DUP3 DUP6 ADD PUSH2 0x7A5 JUMP JUMPDEST PUSH0 DUP4 ADD MSTORE POP PUSH1 0x20 DUP3 ADD CALLDATALOAD PUSH8 0xFFFFFFFFFFFFFFFF DUP2 GT ISZERO PUSH2 0x80A JUMPI PUSH2 0x809 PUSH2 0x78B JUMP JUMPDEST JUMPDEST PUSH2 0x816 DUP5 DUP3 DUP6 ADD PUSH2 0x69D JUMP JUMPDEST PUSH1 0x20 DUP4 ADD MSTORE POP PUSH1 0x40 PUSH2 0x82A DUP5 DUP3 DUP6 ADD PUSH2 0x6E0 JUMP JUMPDEST PUSH1 0x40 DUP4 ADD MSTORE POP PUSH1 0x60 PUSH2 0x83E DUP5 DUP3 DUP6 ADD PUSH2 0x6E0 JUMP JUMPDEST PUSH1 0x60 DUP4 ADD MSTORE POP PUSH1 0x80 PUSH2 0x852 DUP5 DUP3 DUP6 ADD PUSH2 0x6E0 JUMP JUMPDEST PUSH1 0x80 DUP4 ADD MSTORE POP PUSH1 0xA0 PUSH2 0x866 DUP5 DUP3 DUP6 ADD PUSH2 0x6E0 JUMP JUMPDEST PUSH1 0xA0 DUP4 ADD MSTORE POP SWAP3 SWAP2 POP POP JUMP JUMPDEST PUSH0 PUSH1 0x20 DUP3 DUP5 SUB SLT ISZERO PUSH2 0x887 JUMPI PUSH2 0x886 PUSH2 0x596 JUMP JUMPDEST JUMPDEST PUSH0 DUP3 ADD CALLDATALOAD PUSH8 0xFFFFFFFFFFFFFFFF DUP2 GT ISZERO PUSH2 0x8A4 JUMPI PUSH2 0x8A3 PUSH2 0x59A JUMP JUMPDEST JUMPDEST PUSH2 0x8B0 DUP5 DUP3 DUP6 ADD PUSH2 0x7B9 JUMP JUMPDEST SWAP2 POP POP SWAP3 SWAP2 POP POP JUMP JUMPDEST PUSH2 0x8C2 DUP2 PUSH2 0x42D JUMP JUMPDEST DUP3 MSTORE POP POP JUMP JUMPDEST PUSH0 PUSH1 0x20 DUP3 ADD SWAP1 POP PUSH2 0x8DB PUSH0 DUP4 ADD DUP5 PUSH2 0x8B9 JUMP JUMPDEST SWAP3 SWAP2 POP POP JUMP JUMPDEST PUSH0 PUSH20 0xFFFFFFFFFFFFFFFFFFFFFFFFFFFFFFFFFFFFFFFF DUP3 AND SWAP1 POP SWAP2 SWAP1 POP JUMP JUMPDEST PUSH0 PUSH2 0x90A DUP3 PUSH2 0x8E1 JUMP JUMPDEST SWAP1 POP SWAP2 SWAP1 POP JUMP JUMPDEST PUSH2 0x91A DUP2 PUSH2 0x900 JUMP JUMPDEST DUP2 EQ PUSH2 0x924 JUMPI PUSH0 DUP1 REVERT JUMPDEST POP JUMP JUMPDEST PUSH0 DUP2 CALLDATALOAD SWAP1 POP PUSH2 0x935 DUP2 PUSH2 0x911 JUMP JUMPDEST SWAP3 SWAP2 POP POP JUMP JUMPDEST PUSH0 PUSH1 0x20 DUP3 DUP5 SUB SLT ISZERO PUSH2 0x950 JUMPI PUSH2 0x94F PUSH2 0x596 JUMP JUMPDEST JUMPDEST PUSH0 PUSH2 0x95D DUP5 DUP3 DUP6 ADD PUSH2 0x927 JUMP JUMPDEST SWAP2 POP POP SWAP3 SWAP2 POP POP JUMP JUMPDEST PUSH0 DUP3 DUP3 MSTORE PUSH1 0x20 DUP3 ADD SWAP1 POP SWAP3 SWAP2 POP POP JUMP JUMPDEST PUSH0 PUSH2 0x980 DUP3 PUSH2 0x445 JUMP JUMPDEST PUSH2 0x98A DUP2 DUP6 PUSH2 0x966 JUMP JUMPDEST SWAP4 POP PUSH2 0x99A DUP2 DUP6 PUSH1 0x20 DUP7 ADD PUSH2 0x45F JUMP JUMPDEST PUSH2 0x9A3 DUP2 PUSH2 0x487 JUMP JUMPDEST DUP5 ADD SWAP2 POP POP SWAP3 SWAP2 POP POP JUMP JUMPDEST PUSH2 0x9B7 DUP2 PUSH2 0x4CF JUMP JUMPDEST DUP3 MSTORE POP POP JUMP JUMPDEST PUSH0 PUSH1 0xC0 DUP3 ADD SWAP1 POP PUSH2 0x9D0 PUSH0 DUP4 ADD DUP10 PUSH2 0x8B9 JUMP JUMPDEST DUP2 DUP2 SUB PUSH1 0x20 DUP4 ADD MSTORE PUSH2 0x9E2 DUP2 DUP9 PUSH2 0x976 JUMP JUMPDEST SWAP1 POP PUSH2 0x9F1 PUSH1 0x40 DUP4 ADD DUP8 PUSH2 0x9AE JUMP JUMPDEST PUSH2 0x9FE PUSH1 0x60 DUP4 ADD DUP7 PUSH2 0x9AE JUMP JUMPDEST PUSH2 0xA0B PUSH1 0x80 DUP4 ADD DUP6 PUSH2 0x9AE JUMP JUMPDEST PUSH2 0xA18 PUSH1 0xA0 DUP4 ADD DUP5 PUSH2 0x9AE JUMP JUMPDEST SWAP8 SWAP7 POP POP POP POP POP POP POP JUMP JUMPDEST PUSH32 0x4E487B7100000000000000000000000000000000000000000000000000000000 PUSH0 MSTORE PUSH1 0x22 PUSH1 0x4 MSTORE PUSH1 0x24 PUSH0 REVERT JUMPDEST PUSH0 PUSH1 0x2 DUP3 DIV SWAP1 POP PUSH1 0x1 DUP3 AND DUP1 PUSH2 0xA67 JUMPI PUSH1 0x7F DUP3 AND SWAP2 POP JUMPDEST PUSH1 0x20 DUP3 LT DUP2 SUB PUSH2 0xA7A JUMPI PUSH2 0xA79 PUSH2 0xA23 JUMP JUMPDEST JUMPDEST POP SWAP2 SWAP1 POP JUMP JUMPDEST PUSH0 DUP2 SWAP1 POP DUP2 PUSH0 MSTORE PUSH1 0x20 PUSH0 KECCAK256 SWAP1 POP SWAP2 SWAP1 POP JUMP JUMPDEST PUSH0 PUSH1 0x20 PUSH1 0x1F DUP4 ADD DIV SWAP1 POP SWAP2 SWAP1 POP JUMP JUMPDEST PUSH0 DUP3 DUP3 SHL SWAP1 POP SWAP3 SWAP2 POP POP JUMP JUMPDEST PUSH0 PUSH1 0x8 DUP4 MUL PUSH2 0xADC PUSH32 0xFFFFFFFFFFFFFFFFFFFFFFFFFFFFFFFFFFFFFFFFFFFFFFFFFFFFFFFFFFFFFFFF DUP3 PUSH2 0xAA1 JUMP JUMPDEST PUSH2 0xAE6 DUP7 DUP4 PUSH2 0xAA1 JUMP JUMPDEST SWAP6 POP DUP1 NOT DUP5 AND SWAP4 POP DUP1 DUP7 AND DUP5 OR SWAP3 POP POP POP SWAP4 SWAP3 POP POP POP JUMP JUMPDEST PUSH0 DUP2 SWAP1 POP SWAP2 SWAP1 POP JUMP JUMPDEST PUSH0 PUSH2 0xB21 PUSH2 0xB1C PUSH2 0xB17 DUP5 PUSH2 0x4CF JUMP JUMPDEST PUSH2 0xAFE JUMP JUMPDEST PUSH2 0x4CF JUMP JUMPDEST SWAP1 POP SWAP2 SWAP1 POP JUMP JUMPDEST PUSH0 DUP2 SWAP1 POP SWAP2 SWAP1 POP JUMP JUMPDEST PUSH2 0xB3A DUP4 PUSH2 0xB07 JUMP JUMPDEST PUSH2 0xB4E PUSH2 0xB46 DUP3 PUSH2 0xB28 JUMP JUMPDEST DUP5 DUP5 SLOAD PUSH2 0xAAD JUMP JUMPDEST DUP3 SSTORE POP POP POP POP JUMP JUMPDEST PUSH0 SWAP1 JUMP JUMPDEST PUSH2 0xB62 PUSH2 0xB56 JUMP JUMPDEST PUSH2 0xB6D DUP2 DUP5 DUP5 PUSH2 0xB31 JUMP JUMPDEST POP POP POP JUMP JUMPDEST JUMPDEST DUP2 DUP2 LT ISZERO PUSH2 0xB90 JUMPI PUSH2 0xB85 PUSH0 DUP3 PUSH2 0xB5A JUMP JUMPDEST PUSH1 0x1 DUP2 ADD SWAP1 POP PUSH2 0xB73 JUMP JUMPDEST POP POP JUMP JUMPDEST PUSH1 0x1F DUP3 GT ISZERO PUSH2 0xBD5 JUMPI PUSH2 0xBA6 DUP2 PUSH2 0xA80 JUMP JUMPDEST PUSH2 0xBAF DUP5 PUSH2 0xA92 JUMP JUMPDEST DUP2 ADD PUSH1 0x20 DUP6 LT ISZERO PUSH2 0xBBE JUMPI DUP2 SWAP1 POP JUMPDEST PUSH2 0xBD2 PUSH2 0xBCA DUP6 PUSH2 0xA92 JUMP JUMPDEST DUP4 ADD DUP3 PUSH2 0xB72 JUMP JUMPDEST POP POP JUMPDEST POP POP POP JUMP JUMPDEST PUSH0 DUP3 DUP3 SHR SWAP1 POP SWAP3 SWAP2 POP POP JUMP JUMPDEST PUSH0 PUSH2 0xBF5 PUSH0 NOT DUP5 PUSH1 0x8 MUL PUSH2 0xBDA JUMP JUMPDEST NOT DUP1 DUP4 AND SWAP2 POP POP SWAP3 SWAP2 POP POP JUMP JUMPDEST PUSH0 PUSH2 0xC0D DUP4 DUP4 PUSH2 0xBE6 JUMP JUMPDEST SWAP2 POP DUP3 PUSH1 0x2 MUL DUP3 OR SWAP1 POP SWAP3 SWAP2 POP POP JUMP JUMPDEST PUSH2 0xC26 DUP3 PUSH2 0x445 JUMP JUMPDEST PUSH8 0xFFFFFFFFFFFFFFFF DUP2 GT ISZERO PUSH2 0xC3F JUMPI PUSH2 0xC3E PUSH2 0x5A6 JUMP JUMPDEST JUMPDEST PUSH2 0xC49 DUP3 SLOAD PUSH2 0xA50 JUMP JUMPDEST PUSH2 0xC54 DUP3 DUP3 DUP6 PUSH2 0xB94 JUMP JUMPDEST PUSH0 PUSH1 0x20 SWAP1 POP PUSH1 0x1F DUP4 GT PUSH1 0x1 DUP2 EQ PUSH2 0xC85 JUMPI PUSH0 DUP5 ISZERO PUSH2 0xC73 JUMPI DUP3 DUP8 ADD MLOAD SWAP1 POP JUMPDEST PUSH2 0xC7D DUP6 DUP3 PUSH2 0xC02 JUMP JUMPDEST DUP7 SSTORE POP PUSH2 0xCE4 JUMP JUMPDEST PUSH1 0x1F NOT DUP5 AND PUSH2 0xC93 DUP7 PUSH2 0xA80 JUMP JUMPDEST PUSH0 JUMPDEST DUP3 DUP2 LT ISZERO PUSH2 0xCBA JUMPI DUP5 DUP10 ADD MLOAD DUP3 SSTORE PUSH1 0x1 DUP3 ADD SWAP2 POP PUSH1 0x20 DUP6 ADD SWAP5 POP PUSH1 0x20 DUP2 ADD SWAP1 POP PUSH2 0xC95 JUMP JUMPDEST DUP7 DUP4 LT ISZERO PUSH2 0xCD7 JUMPI DUP5 DUP10 ADD MLOAD PUSH2 0xCD3 PUSH1 0x1F DUP10 AND DUP3 PUSH2 0xBE6 JUMP JUMPDEST DUP4 SSTORE POP JUMPDEST PUSH1 0x1 PUSH1 0x2 DUP9 MUL ADD DUP9 SSTORE POP POP POP JUMPDEST POP POP POP POP POP POP JUMP JUMPDEST PUSH2 0xCF5 DUP2 PUSH2 0x900 JUMP JUMPDEST DUP3 MSTORE POP POP JUMP JUMPDEST PUSH0 PUSH1 0x40 DUP3 ADD SWAP1 POP PUSH2 0xD0E PUSH0 DUP4 ADD DUP6 PUSH2 0xCEC JUMP JUMPDEST DUP2 DUP2 SUB PUSH1 0x20 DUP4 ADD MSTORE PUSH2 0xD20 DUP2 DUP5 PUSH2 0x4E7 JUMP JUMPDEST SWAP1 POP SWAP4 SWAP3 POP POP POP JUMP INVALID LOG2 PUSH5 0x6970667358 0x22 SLT KECCAK256 0xEF SWAP10 PUSH8 0x751A38B87546AE7D 0x2C 0x23 0xD1 PUSH32 0x9849F2F5C6B3560374137B0AEA516748EF64736F6C6343000816003300000000 "
		},
		"gasEstimates": {
			"creation": {
				"codeDepositCost": "684600",
				"executionCost": "713",
				"totalCost": "685313"
			},
			"external": {
				"_listing(string,uint256,uint256,uint256,uint256)": "infinite",
				"_structHash((bytes32,string,uint256,uint256,uint256,uint256))": "infinite",
				"_viewListing()": "infinite",
				"list(address)": "infinite"
			}
		},
		"methodIdentifiers": {
			"_listing(string,uint256,uint256,uint256,uint256)": "5a28a7a2",
			"_structHash((bytes32,string,uint256,uint256,uint256,uint256))": "6e2acd01",
			"_viewListing()": "3e2abb14",
			"list(address)": "bb032a66"
		}
	},
	"abi": [
		{
			"anonymous": false,
			"inputs": [
				{
					"indexed": false,
					"internalType": "address",
					"name": "owner",
					"type": "address"
				},
				{
					"components": [
						{
							"internalType": "bytes32",
							"name": "hash",
							"type": "bytes32"
						},
						{
							"internalType": "string",
							"name": "collectionHash",
							"type": "string"
						},
						{
							"internalType": "uint256",
							"name": "collectionNum",
							"type": "uint256"
						},
						{
							"internalType": "uint256",
							"name": "amount",
							"type": "uint256"
						},
						{
							"internalType": "uint256",
							"name": "duration",
							"type": "uint256"
						},
						{
							"internalType": "uint256",
							"name": "APR",
							"type": "uint256"
						}
					],
					"indexed": false,
					"internalType": "struct Lending.NFT",
					"name": "info",
					"type": "tuple"
				}
			],
			"name": "NewListing",
			"type": "event"
		},
		{
			"inputs": [
				{
					"internalType": "string",
					"name": "collectionHash",
					"type": "string"
				},
				{
					"internalType": "uint256",
					"name": "collectionNum",
					"type": "uint256"
				},
				{
					"internalType": "uint256",
					"name": "amount",
					"type": "uint256"
				},
				{
					"internalType": "uint256",
					"name": "duration",
					"type": "uint256"
				},
				{
					"internalType": "uint256",
					"name": "APR",
					"type": "uint256"
				}
			],
			"name": "_listing",
			"outputs": [],
			"stateMutability": "nonpayable",
			"type": "function"
		},
		{
			"inputs": [
				{
					"components": [
						{
							"internalType": "bytes32",
							"name": "hash",
							"type": "bytes32"
						},
						{
							"internalType": "string",
							"name": "collectionHash",
							"type": "string"
						},
						{
							"internalType": "uint256",
							"name": "collectionNum",
							"type": "uint256"
						},
						{
							"internalType": "uint256",
							"name": "amount",
							"type": "uint256"
						},
						{
							"internalType": "uint256",
							"name": "duration",
							"type": "uint256"
						},
						{
							"internalType": "uint256",
							"name": "APR",
							"type": "uint256"
						}
					],
					"internalType": "struct Lending.NFT",
					"name": "src",
					"type": "tuple"
				}
			],
			"name": "_structHash",
			"outputs": [
				{
					"internalType": "bytes32",
					"name": "",
					"type": "bytes32"
				}
			],
			"stateMutability": "pure",
			"type": "function"
		},
		{
			"inputs": [],
			"name": "_viewListing",
			"outputs": [
				{
					"components": [
						{
							"internalType": "bytes32",
							"name": "hash",
							"type": "bytes32"
						},
						{
							"internalType": "string",
							"name": "collectionHash",
							"type": "string"
						},
						{
							"internalType": "uint256",
							"name": "collectionNum",
							"type": "uint256"
						},
						{
							"internalType": "uint256",
							"name": "amount",
							"type": "uint256"
						},
						{
							"internalType": "uint256",
							"name": "duration",
							"type": "uint256"
						},
						{
							"internalType": "uint256",
							"name": "APR",
							"type": "uint256"
						}
					],
					"internalType": "struct Lending.NFT",
					"name": "",
					"type": "tuple"
				}
			],
			"stateMutability": "view",
			"type": "function"
		},
		{
			"inputs": [
				{
					"internalType": "address",
					"name": "",
					"type": "address"
				}
			],
			"name": "list",
			"outputs": [
				{
					"internalType": "bytes32",
					"name": "hash",
					"type": "bytes32"
				},
				{
					"internalType": "string",
					"name": "collectionHash",
					"type": "string"
				},
				{
					"internalType": "uint256",
					"name": "collectionNum",
					"type": "uint256"
				},
				{
					"internalType": "uint256",
					"name": "amount",
					"type": "uint256"
				},
				{
					"internalType": "uint256",
					"name": "duration",
					"type": "uint256"
				},
				{
					"internalType": "uint256",
					"name": "APR",
					"type": "uint256"
				}
			],
			"stateMutability": "view",
			"type": "function"
		}
	]
}