{
	"data": {
		"bytecode": {
			"linkReferences": {},
			"object": "608060405262278d00600555603c60065534801561001b575f80fd5b50611d91806100295f395ff3fe608060405234801561000f575f80fd5b50600436106100e8575f3560e01c80638ada066e1161008a578063d9548e5311610064578063d9548e5314610256578063e19c183114610287578063e5a255cb146102b7578063eeabfc4a146102d3576100e8565b80638ada066e146101ec578063ab7b1c891461020a578063b931413514610226576100e8565b80634f694690116100c65780634f694690146101685780635e8441e4146101985780636c59bd0c146101b4578063880fe941146101d0576100e8565b8063084af0b2146100ec578063172656d11461011c5780631f29d2dc14610138575b5f80fd5b61010660048036038101906101019190611132565b610309565b604051610113919061121d565b60405180910390f35b61013660048036038101906101319190611267565b61039c565b005b610152600480360381019061014d9190611292565b61050f565b60405161015f91906112df565b60405180910390f35b610182600480360381019061017d9190611132565b610590565b60405161018f9190611312565b60405180910390f35b6101b260048036038101906101ad91906114d6565b610612565b005b6101ce60048036038101906101c99190611267565b610716565b005b6101ea60048036038101906101e59190611501565b61072f565b005b6101f4610af0565b6040516102019190611587565b60405180910390f35b610224600480360381019061021f9190611267565b610af9565b005b610240600480360381019061023b9190611267565b610d2f565b60405161024d9190611659565b60405180910390f35b610270600480360381019061026b9190611267565b610e34565b60405161027e929190611672565b60405180910390f35b6102a1600480360381019061029c91906114d6565b610e92565b6040516102ae9190611587565b60405180910390f35b6102d160048036038101906102cc9190611267565b610e98565b005b6102ed60048036038101906102e89190611267565b610feb565b60405161030097969594939291906116b7565b60405180910390f35b606060015f8373ffffffffffffffffffffffffffffffffffffffff1673ffffffffffffffffffffffffffffffffffffffff1681526020019081526020015f2080548060200260200160405190810160405280929190818152602001828054801561039057602002820191905f5260205f20905b81548152602001906001019080831161037c575b50505050509050919050565b5f6103a682610d2f565b905080606001513373ffffffffffffffffffffffffffffffffffffffff163111610405576040517f08c379a00000000000000000000000000000000000000000000000000000000081526004016103fc906117a4565b60405180910390fd5b805f015173ffffffffffffffffffffffffffffffffffffffff166108fc826060015190811502906040515f60405180830381858888f1935050505015801561044f573d5f803e3d5ffd5b507f6578637574696e670000000000000000000000000000000000000000000000008160c00181815250503360035f8481526020019081526020015f205f6101000a81548173ffffffffffffffffffffffffffffffffffffffff021916908373ffffffffffffffffffffffffffffffffffffffff1602179055506104d282610716565b7fcbe547358b7d8ceb07ae8baae08d35680e6c6c69046525b09dc9bb8f53f708fd33826040516105039291906117c2565b60405180910390a15050565b5f8273ffffffffffffffffffffffffffffffffffffffff16636352211e836040518263ffffffff1660e01b81526004016105499190611587565b602060405180830381865afa158015610564573d5f803e3d5ffd5b505050506040513d601f19601f8201168201806040525081019061058891906117fe565b905092915050565b5f8173ffffffffffffffffffffffffffffffffffffffff1663e985e9c533306040518363ffffffff1660e01b81526004016105cc929190611829565b602060405180830381865afa1580156105e7573d5f803e3d5ffd5b505050506040513d601f19601f8201168201806040525081019061060b919061187a565b9050919050565b3373ffffffffffffffffffffffffffffffffffffffff16815f015173ffffffffffffffffffffffffffffffffffffffff1614610683576040517f08c379a000000000000000000000000000000000000000000000000000000000815260040161067a906118ef565b60405180910390fd5b7f72657061796564000000000000000000000000000000000000000000000000008160c00151146106e9576040517f08c379a00000000000000000000000000000000000000000000000000000000081526004016106e090611957565b60405180910390fd5b7f636c6f73656400000000000000000000000000000000000000000000000000008160c001818152505050565b4260025f8381526020019081526020015f208190555050565b5f8311801561073d57505f82115b801561074857505f81115b610787576040517f08c379a000000000000000000000000000000000000000000000000000000000815260040161077e906119bf565b60405180910390fd5b3373ffffffffffffffffffffffffffffffffffffffff168573ffffffffffffffffffffffffffffffffffffffff16636352211e866040518263ffffffff1660e01b81526004016107d79190611587565b602060405180830381865afa1580156107f2573d5f803e3d5ffd5b505050506040513d601f19601f8201168201806040525081019061081691906117fe565b73ffffffffffffffffffffffffffffffffffffffff161461086c576040517f08c379a000000000000000000000000000000000000000000000000000000000815260040161086390611a27565b60405180910390fd5b5f6040518060e001604052803373ffffffffffffffffffffffffffffffffffffffff1681526020018773ffffffffffffffffffffffffffffffffffffffff1681526020018681526020018581526020018481526020018381526020017f6f70656e000000000000000000000000000000000000000000000000000000008152509050805f8060045481526020019081526020015f205f820151815f015f6101000a81548173ffffffffffffffffffffffffffffffffffffffff021916908373ffffffffffffffffffffffffffffffffffffffff1602179055506020820151816001015f6101000a81548173ffffffffffffffffffffffffffffffffffffffff021916908373ffffffffffffffffffffffffffffffffffffffff16021790555060408201518160020155606082015181600301556080820151816004015560a0820151816005015560c0820151816006015590505060015f3373ffffffffffffffffffffffffffffffffffffffff1673ffffffffffffffffffffffffffffffffffffffff1681526020019081526020015f20600454908060018154018082558091505060019003905f5260205f20015f90919091909150558573ffffffffffffffffffffffffffffffffffffffff166323b872dd3330886040518463ffffffff1660e01b8152600401610a6093929190611a45565b5f604051808303815f87803b158015610a77575f80fd5b505af1158015610a89573d5f803e3d5ffd5b50505050610a98600454610716565b60045f815480929190610aaa90611aa7565b91905055507ff767ad1ae2d5476327f80bef89fbc70354c993e3059ed3d504d127921f60c40b3382604051610ae09291906117c2565b60405180910390a1505050505050565b5f600454905090565b5f610b0382610d2f565b90503373ffffffffffffffffffffffffffffffffffffffff16815f015173ffffffffffffffffffffffffffffffffffffffff1614610b76576040517f08c379a0000000000000000000000000000000000000000000000000000000008152600401610b6d906118ef565b60405180910390fd5b7f6578637574696e670000000000000000000000000000000000000000000000008160c0015114610bdc576040517f08c379a0000000000000000000000000000000000000000000000000000000008152600401610bd390611b5e565b60405180910390fd5b5f610be682610e92565b90503373ffffffffffffffffffffffffffffffffffffffff16318110610c41576040517f08c379a0000000000000000000000000000000000000000000000000000000008152600401610c3890611bc6565b60405180910390fd5b60035f8481526020019081526020015f205f9054906101000a900473ffffffffffffffffffffffffffffffffffffffff1673ffffffffffffffffffffffffffffffffffffffff166108fc8290811502906040515f60405180830381858888f19350505050158015610cb4573d5f803e3d5ffd5b507f72657061796564000000000000000000000000000000000000000000000000008260c0018181525050610ce882610612565b610cf183610716565b7f94e7116aa05f19f109f7fa598f65ade35ab1de8cd3d002b5b2205416e8943e653383604051610d229291906117c2565b60405180910390a1505050565b610d37611066565b5f808381526020019081526020015f206040518060e00160405290815f82015f9054906101000a900473ffffffffffffffffffffffffffffffffffffffff1673ffffffffffffffffffffffffffffffffffffffff1673ffffffffffffffffffffffffffffffffffffffff168152602001600182015f9054906101000a900473ffffffffffffffffffffffffffffffffffffffff1673ffffffffffffffffffffffffffffffffffffffff1673ffffffffffffffffffffffffffffffffffffffff168152602001600282015481526020016003820154815260200160048201548152602001600582015481526020016006820154815250509050919050565b5f805f610e4084610d2f565b90505f6006548260800151610e559190611be4565b60025f8781526020019081526020015f2054610e719190611c25565b90505f4282610e809190611c58565b9050805f821094509450505050915091565b5f919050565b5f610ea282610d2f565b90503373ffffffffffffffffffffffffffffffffffffffff16815f015173ffffffffffffffffffffffffffffffffffffffff1614610f15576040517f08c379a0000000000000000000000000000000000000000000000000000000008152600401610f0c90611cd5565b60405180910390fd5b7f6f70656e000000000000000000000000000000000000000000000000000000008160c0015114610f7b576040517f08c379a0000000000000000000000000000000000000000000000000000000008152600401610f7290611d3d565b60405180910390fd5b7f63616e63656c00000000000000000000000000000000000000000000000000008160c0018181525050610fae82610716565b7f7e885013ca94016b1452b4678f1c43c33cd914617b389322af7f7d97a2c4f5853382604051610fdf9291906117c2565b60405180910390a15050565b5f602052805f5260405f205f91509050805f015f9054906101000a900473ffffffffffffffffffffffffffffffffffffffff1690806001015f9054906101000a900473ffffffffffffffffffffffffffffffffffffffff16908060020154908060030154908060040154908060050154908060060154905087565b6040518060e001604052805f73ffffffffffffffffffffffffffffffffffffffff1681526020015f73ffffffffffffffffffffffffffffffffffffffff1681526020015f81526020015f81526020015f81526020015f81526020015f80191681525090565b5f604051905090565b5f80fd5b5f73ffffffffffffffffffffffffffffffffffffffff82169050919050565b5f611101826110d8565b9050919050565b611111816110f7565b811461111b575f80fd5b50565b5f8135905061112c81611108565b92915050565b5f60208284031215611147576111466110d4565b5b5f6111548482850161111e565b91505092915050565b5f81519050919050565b5f82825260208201905092915050565b5f819050602082019050919050565b5f819050919050565b61119881611186565b82525050565b5f6111a9838361118f565b60208301905092915050565b5f602082019050919050565b5f6111cb8261115d565b6111d58185611167565b93506111e083611177565b805f5b838110156112105781516111f7888261119e565b9750611202836111b5565b9250506001810190506111e3565b5085935050505092915050565b5f6020820190508181035f83015261123581846111c1565b905092915050565b61124681611186565b8114611250575f80fd5b50565b5f813590506112618161123d565b92915050565b5f6020828403121561127c5761127b6110d4565b5b5f61128984828501611253565b91505092915050565b5f80604083850312156112a8576112a76110d4565b5b5f6112b58582860161111e565b92505060206112c685828601611253565b9150509250929050565b6112d9816110f7565b82525050565b5f6020820190506112f25f8301846112d0565b92915050565b5f8115159050919050565b61130c816112f8565b82525050565b5f6020820190506113255f830184611303565b92915050565b5f80fd5b5f601f19601f8301169050919050565b7f4e487b71000000000000000000000000000000000000000000000000000000005f52604160045260245ffd5b6113758261132f565b810181811067ffffffffffffffff821117156113945761139361133f565b5b80604052505050565b5f6113a66110cb565b90506113b2828261136c565b919050565b5f6113c1826110d8565b9050919050565b6113d1816113b7565b81146113db575f80fd5b50565b5f813590506113ec816113c8565b92915050565b5f819050919050565b611404816113f2565b811461140e575f80fd5b50565b5f8135905061141f816113fb565b92915050565b5f60e0828403121561143a5761143961132b565b5b61144460e061139d565b90505f611453848285016113de565b5f8301525060206114668482850161111e565b602083015250604061147a84828501611253565b604083015250606061148e84828501611253565b60608301525060806114a284828501611253565b60808301525060a06114b684828501611253565b60a08301525060c06114ca84828501611411565b60c08301525092915050565b5f60e082840312156114eb576114ea6110d4565b5b5f6114f884828501611425565b91505092915050565b5f805f805f60a0868803121561151a576115196110d4565b5b5f6115278882890161111e565b955050602061153888828901611253565b945050604061154988828901611253565b935050606061155a88828901611253565b925050608061156b88828901611253565b9150509295509295909350565b61158181611186565b82525050565b5f60208201905061159a5f830184611578565b92915050565b6115a9816113b7565b82525050565b6115b8816110f7565b82525050565b6115c7816113f2565b82525050565b60e082015f8201516115e15f8501826115a0565b5060208201516115f460208501826115af565b506040820151611607604085018261118f565b50606082015161161a606085018261118f565b50608082015161162d608085018261118f565b5060a082015161164060a085018261118f565b5060c082015161165360c08501826115be565b50505050565b5f60e08201905061166c5f8301846115cd565b92915050565b5f6040820190506116855f830185611578565b6116926020830184611303565b9392505050565b6116a2816113b7565b82525050565b6116b1816113f2565b82525050565b5f60e0820190506116ca5f83018a611699565b6116d760208301896112d0565b6116e46040830188611578565b6116f16060830187611578565b6116fe6080830186611578565b61170b60a0830185611578565b61171860c08301846116a8565b98975050505050505050565b5f82825260208201905092915050565b7f596f7520686176656e277420656e6f7567682062616c616e636520666f72206c5f8201527f656e64696e670000000000000000000000000000000000000000000000000000602082015250565b5f61178e602683611724565b915061179982611734565b604082019050919050565b5f6020820190508181035f8301526117bb81611782565b9050919050565b5f610100820190506117d65f8301856112d0565b6117e360208301846115cd565b9392505050565b5f815190506117f881611108565b92915050565b5f60208284031215611813576118126110d4565b5b5f611820848285016117ea565b91505092915050565b5f60408201905061183c5f8301856112d0565b61184960208301846112d0565b9392505050565b611859816112f8565b8114611863575f80fd5b50565b5f8151905061187481611850565b92915050565b5f6020828403121561188f5761188e6110d4565b5b5f61189c84828501611866565b91505092915050565b7f596f7520617265206e6f7420706f7374657200000000000000000000000000005f82015250565b5f6118d9601283611724565b91506118e4826118a5565b602082019050919050565b5f6020820190508181035f830152611906816118cd565b9050919050565b7f546869732069736e2774207265706179207965740000000000000000000000005f82015250565b5f611941601483611724565b915061194c8261190d565b602082019050919050565b5f6020820190508181035f83015261196e81611935565b9050919050565b7f56616c756573206d7573742062652067726561746572207468616e207a65726f5f82015250565b5f6119a9602083611724565b91506119b482611975565b602082019050919050565b5f6020820190508181035f8301526119d68161199d565b9050919050565b7f596f7520617265206e6f7420686f6c646572206f66207468697320746f6b656e5f82015250565b5f611a11602083611724565b9150611a1c826119dd565b602082019050919050565b5f6020820190508181035f830152611a3e81611a05565b9050919050565b5f606082019050611a585f8301866112d0565b611a6560208301856112d0565b611a726040830184611578565b949350505050565b7f4e487b71000000000000000000000000000000000000000000000000000000005f52601160045260245ffd5b5f611ab182611186565b91507fffffffffffffffffffffffffffffffffffffffffffffffffffffffffffffffff8203611ae357611ae2611a7a565b5b600182019050919050565b7f546869732069732065787069726564206f72206e6f74206578637574656420795f8201527f6574000000000000000000000000000000000000000000000000000000000000602082015250565b5f611b48602283611724565b9150611b5382611aee565b604082019050919050565b5f6020820190508181035f830152611b7581611b3c565b9050919050565b7f4e6f7420656e6f7567682062616c616e636520666f72207265706179696e67005f82015250565b5f611bb0601f83611724565b9150611bbb82611b7c565b602082019050919050565b5f6020820190508181035f830152611bdd81611ba4565b9050919050565b5f611bee82611186565b9150611bf983611186565b9250828202611c0781611186565b91508282048414831517611c1e57611c1d611a7a565b5b5092915050565b5f611c2f82611186565b9150611c3a83611186565b9250828201905080821115611c5257611c51611a7a565b5b92915050565b5f611c6282611186565b9150611c6d83611186565b9250828203905081811115611c8557611c84611a7a565b5b92915050565b7f596f7520617265206e6f7420706f73746572206f6620746865206c69737400005f82015250565b5f611cbf601e83611724565b9150611cca82611c8b565b602082019050919050565b5f6020820190508181035f830152611cec81611cb3565b9050919050565b7f4e6f74206f70656e696e67206c697374000000000000000000000000000000005f82015250565b5f611d27601083611724565b9150611d3282611cf3565b602082019050919050565b5f6020820190508181035f830152611d5481611d1b565b905091905056fea2646970667358221220d1e609a680316dd196b9233c83474e0ce616e26669bec001d70c6c3559b9753064736f6c63430008170033",
			"opcodes": "PUSH1 0x80 PUSH1 0x40 MSTORE PUSH3 0x278D00 PUSH1 0x5 SSTORE PUSH1 0x3C PUSH1 0x6 SSTORE CALLVALUE DUP1 ISZERO PUSH2 0x1B JUMPI PUSH0 DUP1 REVERT JUMPDEST POP PUSH2 0x1D91 DUP1 PUSH2 0x29 PUSH0 CODECOPY PUSH0 RETURN INVALID PUSH1 0x80 PUSH1 0x40 MSTORE CALLVALUE DUP1 ISZERO PUSH2 0xF JUMPI PUSH0 DUP1 REVERT JUMPDEST POP PUSH1 0x4 CALLDATASIZE LT PUSH2 0xE8 JUMPI PUSH0 CALLDATALOAD PUSH1 0xE0 SHR DUP1 PUSH4 0x8ADA066E GT PUSH2 0x8A JUMPI DUP1 PUSH4 0xD9548E53 GT PUSH2 0x64 JUMPI DUP1 PUSH4 0xD9548E53 EQ PUSH2 0x256 JUMPI DUP1 PUSH4 0xE19C1831 EQ PUSH2 0x287 JUMPI DUP1 PUSH4 0xE5A255CB EQ PUSH2 0x2B7 JUMPI DUP1 PUSH4 0xEEABFC4A EQ PUSH2 0x2D3 JUMPI PUSH2 0xE8 JUMP JUMPDEST DUP1 PUSH4 0x8ADA066E EQ PUSH2 0x1EC JUMPI DUP1 PUSH4 0xAB7B1C89 EQ PUSH2 0x20A JUMPI DUP1 PUSH4 0xB9314135 EQ PUSH2 0x226 JUMPI PUSH2 0xE8 JUMP JUMPDEST DUP1 PUSH4 0x4F694690 GT PUSH2 0xC6 JUMPI DUP1 PUSH4 0x4F694690 EQ PUSH2 0x168 JUMPI DUP1 PUSH4 0x5E8441E4 EQ PUSH2 0x198 JUMPI DUP1 PUSH4 0x6C59BD0C EQ PUSH2 0x1B4 JUMPI DUP1 PUSH4 0x880FE941 EQ PUSH2 0x1D0 JUMPI PUSH2 0xE8 JUMP JUMPDEST DUP1 PUSH4 0x84AF0B2 EQ PUSH2 0xEC JUMPI DUP1 PUSH4 0x172656D1 EQ PUSH2 0x11C JUMPI DUP1 PUSH4 0x1F29D2DC EQ PUSH2 0x138 JUMPI JUMPDEST PUSH0 DUP1 REVERT JUMPDEST PUSH2 0x106 PUSH1 0x4 DUP1 CALLDATASIZE SUB DUP2 ADD SWAP1 PUSH2 0x101 SWAP2 SWAP1 PUSH2 0x1132 JUMP JUMPDEST PUSH2 0x309 JUMP JUMPDEST PUSH1 0x40 MLOAD PUSH2 0x113 SWAP2 SWAP1 PUSH2 0x121D JUMP JUMPDEST PUSH1 0x40 MLOAD DUP1 SWAP2 SUB SWAP1 RETURN JUMPDEST PUSH2 0x136 PUSH1 0x4 DUP1 CALLDATASIZE SUB DUP2 ADD SWAP1 PUSH2 0x131 SWAP2 SWAP1 PUSH2 0x1267 JUMP JUMPDEST PUSH2 0x39C JUMP JUMPDEST STOP JUMPDEST PUSH2 0x152 PUSH1 0x4 DUP1 CALLDATASIZE SUB DUP2 ADD SWAP1 PUSH2 0x14D SWAP2 SWAP1 PUSH2 0x1292 JUMP JUMPDEST PUSH2 0x50F JUMP JUMPDEST PUSH1 0x40 MLOAD PUSH2 0x15F SWAP2 SWAP1 PUSH2 0x12DF JUMP JUMPDEST PUSH1 0x40 MLOAD DUP1 SWAP2 SUB SWAP1 RETURN JUMPDEST PUSH2 0x182 PUSH1 0x4 DUP1 CALLDATASIZE SUB DUP2 ADD SWAP1 PUSH2 0x17D SWAP2 SWAP1 PUSH2 0x1132 JUMP JUMPDEST PUSH2 0x590 JUMP JUMPDEST PUSH1 0x40 MLOAD PUSH2 0x18F SWAP2 SWAP1 PUSH2 0x1312 JUMP JUMPDEST PUSH1 0x40 MLOAD DUP1 SWAP2 SUB SWAP1 RETURN JUMPDEST PUSH2 0x1B2 PUSH1 0x4 DUP1 CALLDATASIZE SUB DUP2 ADD SWAP1 PUSH2 0x1AD SWAP2 SWAP1 PUSH2 0x14D6 JUMP JUMPDEST PUSH2 0x612 JUMP JUMPDEST STOP JUMPDEST PUSH2 0x1CE PUSH1 0x4 DUP1 CALLDATASIZE SUB DUP2 ADD SWAP1 PUSH2 0x1C9 SWAP2 SWAP1 PUSH2 0x1267 JUMP JUMPDEST PUSH2 0x716 JUMP JUMPDEST STOP JUMPDEST PUSH2 0x1EA PUSH1 0x4 DUP1 CALLDATASIZE SUB DUP2 ADD SWAP1 PUSH2 0x1E5 SWAP2 SWAP1 PUSH2 0x1501 JUMP JUMPDEST PUSH2 0x72F JUMP JUMPDEST STOP JUMPDEST PUSH2 0x1F4 PUSH2 0xAF0 JUMP JUMPDEST PUSH1 0x40 MLOAD PUSH2 0x201 SWAP2 SWAP1 PUSH2 0x1587 JUMP JUMPDEST PUSH1 0x40 MLOAD DUP1 SWAP2 SUB SWAP1 RETURN JUMPDEST PUSH2 0x224 PUSH1 0x4 DUP1 CALLDATASIZE SUB DUP2 ADD SWAP1 PUSH2 0x21F SWAP2 SWAP1 PUSH2 0x1267 JUMP JUMPDEST PUSH2 0xAF9 JUMP JUMPDEST STOP JUMPDEST PUSH2 0x240 PUSH1 0x4 DUP1 CALLDATASIZE SUB DUP2 ADD SWAP1 PUSH2 0x23B SWAP2 SWAP1 PUSH2 0x1267 JUMP JUMPDEST PUSH2 0xD2F JUMP JUMPDEST PUSH1 0x40 MLOAD PUSH2 0x24D SWAP2 SWAP1 PUSH2 0x1659 JUMP JUMPDEST PUSH1 0x40 MLOAD DUP1 SWAP2 SUB SWAP1 RETURN JUMPDEST PUSH2 0x270 PUSH1 0x4 DUP1 CALLDATASIZE SUB DUP2 ADD SWAP1 PUSH2 0x26B SWAP2 SWAP1 PUSH2 0x1267 JUMP JUMPDEST PUSH2 0xE34 JUMP JUMPDEST PUSH1 0x40 MLOAD PUSH2 0x27E SWAP3 SWAP2 SWAP1 PUSH2 0x1672 JUMP JUMPDEST PUSH1 0x40 MLOAD DUP1 SWAP2 SUB SWAP1 RETURN JUMPDEST PUSH2 0x2A1 PUSH1 0x4 DUP1 CALLDATASIZE SUB DUP2 ADD SWAP1 PUSH2 0x29C SWAP2 SWAP1 PUSH2 0x14D6 JUMP JUMPDEST PUSH2 0xE92 JUMP JUMPDEST PUSH1 0x40 MLOAD PUSH2 0x2AE SWAP2 SWAP1 PUSH2 0x1587 JUMP JUMPDEST PUSH1 0x40 MLOAD DUP1 SWAP2 SUB SWAP1 RETURN JUMPDEST PUSH2 0x2D1 PUSH1 0x4 DUP1 CALLDATASIZE SUB DUP2 ADD SWAP1 PUSH2 0x2CC SWAP2 SWAP1 PUSH2 0x1267 JUMP JUMPDEST PUSH2 0xE98 JUMP JUMPDEST STOP JUMPDEST PUSH2 0x2ED PUSH1 0x4 DUP1 CALLDATASIZE SUB DUP2 ADD SWAP1 PUSH2 0x2E8 SWAP2 SWAP1 PUSH2 0x1267 JUMP JUMPDEST PUSH2 0xFEB JUMP JUMPDEST PUSH1 0x40 MLOAD PUSH2 0x300 SWAP8 SWAP7 SWAP6 SWAP5 SWAP4 SWAP3 SWAP2 SWAP1 PUSH2 0x16B7 JUMP JUMPDEST PUSH1 0x40 MLOAD DUP1 SWAP2 SUB SWAP1 RETURN JUMPDEST PUSH1 0x60 PUSH1 0x1 PUSH0 DUP4 PUSH20 0xFFFFFFFFFFFFFFFFFFFFFFFFFFFFFFFFFFFFFFFF AND PUSH20 0xFFFFFFFFFFFFFFFFFFFFFFFFFFFFFFFFFFFFFFFF AND DUP2 MSTORE PUSH1 0x20 ADD SWAP1 DUP2 MSTORE PUSH1 0x20 ADD PUSH0 KECCAK256 DUP1 SLOAD DUP1 PUSH1 0x20 MUL PUSH1 0x20 ADD PUSH1 0x40 MLOAD SWAP1 DUP2 ADD PUSH1 0x40 MSTORE DUP1 SWAP3 SWAP2 SWAP1 DUP2 DUP2 MSTORE PUSH1 0x20 ADD DUP3 DUP1 SLOAD DUP1 ISZERO PUSH2 0x390 JUMPI PUSH1 0x20 MUL DUP3 ADD SWAP2 SWAP1 PUSH0 MSTORE PUSH1 0x20 PUSH0 KECCAK256 SWAP1 JUMPDEST DUP2 SLOAD DUP2 MSTORE PUSH1 0x20 ADD SWAP1 PUSH1 0x1 ADD SWAP1 DUP1 DUP4 GT PUSH2 0x37C JUMPI JUMPDEST POP POP POP POP POP SWAP1 POP SWAP2 SWAP1 POP JUMP JUMPDEST PUSH0 PUSH2 0x3A6 DUP3 PUSH2 0xD2F JUMP JUMPDEST SWAP1 POP DUP1 PUSH1 0x60 ADD MLOAD CALLER PUSH20 0xFFFFFFFFFFFFFFFFFFFFFFFFFFFFFFFFFFFFFFFF AND BALANCE GT PUSH2 0x405 JUMPI PUSH1 0x40 MLOAD PUSH32 0x8C379A000000000000000000000000000000000000000000000000000000000 DUP2 MSTORE PUSH1 0x4 ADD PUSH2 0x3FC SWAP1 PUSH2 0x17A4 JUMP JUMPDEST PUSH1 0x40 MLOAD DUP1 SWAP2 SUB SWAP1 REVERT JUMPDEST DUP1 PUSH0 ADD MLOAD PUSH20 0xFFFFFFFFFFFFFFFFFFFFFFFFFFFFFFFFFFFFFFFF AND PUSH2 0x8FC DUP3 PUSH1 0x60 ADD MLOAD SWAP1 DUP2 ISZERO MUL SWAP1 PUSH1 0x40 MLOAD PUSH0 PUSH1 0x40 MLOAD DUP1 DUP4 SUB DUP2 DUP6 DUP9 DUP9 CALL SWAP4 POP POP POP POP ISZERO DUP1 ISZERO PUSH2 0x44F JUMPI RETURNDATASIZE PUSH0 DUP1 RETURNDATACOPY RETURNDATASIZE PUSH0 REVERT JUMPDEST POP PUSH32 0x6578637574696E67000000000000000000000000000000000000000000000000 DUP2 PUSH1 0xC0 ADD DUP2 DUP2 MSTORE POP POP CALLER PUSH1 0x3 PUSH0 DUP5 DUP2 MSTORE PUSH1 0x20 ADD SWAP1 DUP2 MSTORE PUSH1 0x20 ADD PUSH0 KECCAK256 PUSH0 PUSH2 0x100 EXP DUP2 SLOAD DUP2 PUSH20 0xFFFFFFFFFFFFFFFFFFFFFFFFFFFFFFFFFFFFFFFF MUL NOT AND SWAP1 DUP4 PUSH20 0xFFFFFFFFFFFFFFFFFFFFFFFFFFFFFFFFFFFFFFFF AND MUL OR SWAP1 SSTORE POP PUSH2 0x4D2 DUP3 PUSH2 0x716 JUMP JUMPDEST PUSH32 0xCBE547358B7D8CEB07AE8BAAE08D35680E6C6C69046525B09DC9BB8F53F708FD CALLER DUP3 PUSH1 0x40 MLOAD PUSH2 0x503 SWAP3 SWAP2 SWAP1 PUSH2 0x17C2 JUMP JUMPDEST PUSH1 0x40 MLOAD DUP1 SWAP2 SUB SWAP1 LOG1 POP POP JUMP JUMPDEST PUSH0 DUP3 PUSH20 0xFFFFFFFFFFFFFFFFFFFFFFFFFFFFFFFFFFFFFFFF AND PUSH4 0x6352211E DUP4 PUSH1 0x40 MLOAD DUP3 PUSH4 0xFFFFFFFF AND PUSH1 0xE0 SHL DUP2 MSTORE PUSH1 0x4 ADD PUSH2 0x549 SWAP2 SWAP1 PUSH2 0x1587 JUMP JUMPDEST PUSH1 0x20 PUSH1 0x40 MLOAD DUP1 DUP4 SUB DUP2 DUP7 GAS STATICCALL ISZERO DUP1 ISZERO PUSH2 0x564 JUMPI RETURNDATASIZE PUSH0 DUP1 RETURNDATACOPY RETURNDATASIZE PUSH0 REVERT JUMPDEST POP POP POP POP PUSH1 0x40 MLOAD RETURNDATASIZE PUSH1 0x1F NOT PUSH1 0x1F DUP3 ADD AND DUP3 ADD DUP1 PUSH1 0x40 MSTORE POP DUP2 ADD SWAP1 PUSH2 0x588 SWAP2 SWAP1 PUSH2 0x17FE JUMP JUMPDEST SWAP1 POP SWAP3 SWAP2 POP POP JUMP JUMPDEST PUSH0 DUP2 PUSH20 0xFFFFFFFFFFFFFFFFFFFFFFFFFFFFFFFFFFFFFFFF AND PUSH4 0xE985E9C5 CALLER ADDRESS PUSH1 0x40 MLOAD DUP4 PUSH4 0xFFFFFFFF AND PUSH1 0xE0 SHL DUP2 MSTORE PUSH1 0x4 ADD PUSH2 0x5CC SWAP3 SWAP2 SWAP1 PUSH2 0x1829 JUMP JUMPDEST PUSH1 0x20 PUSH1 0x40 MLOAD DUP1 DUP4 SUB DUP2 DUP7 GAS STATICCALL ISZERO DUP1 ISZERO PUSH2 0x5E7 JUMPI RETURNDATASIZE PUSH0 DUP1 RETURNDATACOPY RETURNDATASIZE PUSH0 REVERT JUMPDEST POP POP POP POP PUSH1 0x40 MLOAD RETURNDATASIZE PUSH1 0x1F NOT PUSH1 0x1F DUP3 ADD AND DUP3 ADD DUP1 PUSH1 0x40 MSTORE POP DUP2 ADD SWAP1 PUSH2 0x60B SWAP2 SWAP1 PUSH2 0x187A JUMP JUMPDEST SWAP1 POP SWAP2 SWAP1 POP JUMP JUMPDEST CALLER PUSH20 0xFFFFFFFFFFFFFFFFFFFFFFFFFFFFFFFFFFFFFFFF AND DUP2 PUSH0 ADD MLOAD PUSH20 0xFFFFFFFFFFFFFFFFFFFFFFFFFFFFFFFFFFFFFFFF AND EQ PUSH2 0x683 JUMPI PUSH1 0x40 MLOAD PUSH32 0x8C379A000000000000000000000000000000000000000000000000000000000 DUP2 MSTORE PUSH1 0x4 ADD PUSH2 0x67A SWAP1 PUSH2 0x18EF JUMP JUMPDEST PUSH1 0x40 MLOAD DUP1 SWAP2 SUB SWAP1 REVERT JUMPDEST PUSH32 0x7265706179656400000000000000000000000000000000000000000000000000 DUP2 PUSH1 0xC0 ADD MLOAD EQ PUSH2 0x6E9 JUMPI PUSH1 0x40 MLOAD PUSH32 0x8C379A000000000000000000000000000000000000000000000000000000000 DUP2 MSTORE PUSH1 0x4 ADD PUSH2 0x6E0 SWAP1 PUSH2 0x1957 JUMP JUMPDEST PUSH1 0x40 MLOAD DUP1 SWAP2 SUB SWAP1 REVERT JUMPDEST PUSH32 0x636C6F7365640000000000000000000000000000000000000000000000000000 DUP2 PUSH1 0xC0 ADD DUP2 DUP2 MSTORE POP POP POP JUMP JUMPDEST TIMESTAMP PUSH1 0x2 PUSH0 DUP4 DUP2 MSTORE PUSH1 0x20 ADD SWAP1 DUP2 MSTORE PUSH1 0x20 ADD PUSH0 KECCAK256 DUP2 SWAP1 SSTORE POP POP JUMP JUMPDEST PUSH0 DUP4 GT DUP1 ISZERO PUSH2 0x73D JUMPI POP PUSH0 DUP3 GT JUMPDEST DUP1 ISZERO PUSH2 0x748 JUMPI POP PUSH0 DUP2 GT JUMPDEST PUSH2 0x787 JUMPI PUSH1 0x40 MLOAD PUSH32 0x8C379A000000000000000000000000000000000000000000000000000000000 DUP2 MSTORE PUSH1 0x4 ADD PUSH2 0x77E SWAP1 PUSH2 0x19BF JUMP JUMPDEST PUSH1 0x40 MLOAD DUP1 SWAP2 SUB SWAP1 REVERT JUMPDEST CALLER PUSH20 0xFFFFFFFFFFFFFFFFFFFFFFFFFFFFFFFFFFFFFFFF AND DUP6 PUSH20 0xFFFFFFFFFFFFFFFFFFFFFFFFFFFFFFFFFFFFFFFF AND PUSH4 0x6352211E DUP7 PUSH1 0x40 MLOAD DUP3 PUSH4 0xFFFFFFFF AND PUSH1 0xE0 SHL DUP2 MSTORE PUSH1 0x4 ADD PUSH2 0x7D7 SWAP2 SWAP1 PUSH2 0x1587 JUMP JUMPDEST PUSH1 0x20 PUSH1 0x40 MLOAD DUP1 DUP4 SUB DUP2 DUP7 GAS STATICCALL ISZERO DUP1 ISZERO PUSH2 0x7F2 JUMPI RETURNDATASIZE PUSH0 DUP1 RETURNDATACOPY RETURNDATASIZE PUSH0 REVERT JUMPDEST POP POP POP POP PUSH1 0x40 MLOAD RETURNDATASIZE PUSH1 0x1F NOT PUSH1 0x1F DUP3 ADD AND DUP3 ADD DUP1 PUSH1 0x40 MSTORE POP DUP2 ADD SWAP1 PUSH2 0x816 SWAP2 SWAP1 PUSH2 0x17FE JUMP JUMPDEST PUSH20 0xFFFFFFFFFFFFFFFFFFFFFFFFFFFFFFFFFFFFFFFF AND EQ PUSH2 0x86C JUMPI PUSH1 0x40 MLOAD PUSH32 0x8C379A000000000000000000000000000000000000000000000000000000000 DUP2 MSTORE PUSH1 0x4 ADD PUSH2 0x863 SWAP1 PUSH2 0x1A27 JUMP JUMPDEST PUSH1 0x40 MLOAD DUP1 SWAP2 SUB SWAP1 REVERT JUMPDEST PUSH0 PUSH1 0x40 MLOAD DUP1 PUSH1 0xE0 ADD PUSH1 0x40 MSTORE DUP1 CALLER PUSH20 0xFFFFFFFFFFFFFFFFFFFFFFFFFFFFFFFFFFFFFFFF AND DUP2 MSTORE PUSH1 0x20 ADD DUP8 PUSH20 0xFFFFFFFFFFFFFFFFFFFFFFFFFFFFFFFFFFFFFFFF AND DUP2 MSTORE PUSH1 0x20 ADD DUP7 DUP2 MSTORE PUSH1 0x20 ADD DUP6 DUP2 MSTORE PUSH1 0x20 ADD DUP5 DUP2 MSTORE PUSH1 0x20 ADD DUP4 DUP2 MSTORE PUSH1 0x20 ADD PUSH32 0x6F70656E00000000000000000000000000000000000000000000000000000000 DUP2 MSTORE POP SWAP1 POP DUP1 PUSH0 DUP1 PUSH1 0x4 SLOAD DUP2 MSTORE PUSH1 0x20 ADD SWAP1 DUP2 MSTORE PUSH1 0x20 ADD PUSH0 KECCAK256 PUSH0 DUP3 ADD MLOAD DUP2 PUSH0 ADD PUSH0 PUSH2 0x100 EXP DUP2 SLOAD DUP2 PUSH20 0xFFFFFFFFFFFFFFFFFFFFFFFFFFFFFFFFFFFFFFFF MUL NOT AND SWAP1 DUP4 PUSH20 0xFFFFFFFFFFFFFFFFFFFFFFFFFFFFFFFFFFFFFFFF AND MUL OR SWAP1 SSTORE POP PUSH1 0x20 DUP3 ADD MLOAD DUP2 PUSH1 0x1 ADD PUSH0 PUSH2 0x100 EXP DUP2 SLOAD DUP2 PUSH20 0xFFFFFFFFFFFFFFFFFFFFFFFFFFFFFFFFFFFFFFFF MUL NOT AND SWAP1 DUP4 PUSH20 0xFFFFFFFFFFFFFFFFFFFFFFFFFFFFFFFFFFFFFFFF AND MUL OR SWAP1 SSTORE POP PUSH1 0x40 DUP3 ADD MLOAD DUP2 PUSH1 0x2 ADD SSTORE PUSH1 0x60 DUP3 ADD MLOAD DUP2 PUSH1 0x3 ADD SSTORE PUSH1 0x80 DUP3 ADD MLOAD DUP2 PUSH1 0x4 ADD SSTORE PUSH1 0xA0 DUP3 ADD MLOAD DUP2 PUSH1 0x5 ADD SSTORE PUSH1 0xC0 DUP3 ADD MLOAD DUP2 PUSH1 0x6 ADD SSTORE SWAP1 POP POP PUSH1 0x1 PUSH0 CALLER PUSH20 0xFFFFFFFFFFFFFFFFFFFFFFFFFFFFFFFFFFFFFFFF AND PUSH20 0xFFFFFFFFFFFFFFFFFFFFFFFFFFFFFFFFFFFFFFFF AND DUP2 MSTORE PUSH1 0x20 ADD SWAP1 DUP2 MSTORE PUSH1 0x20 ADD PUSH0 KECCAK256 PUSH1 0x4 SLOAD SWAP1 DUP1 PUSH1 0x1 DUP2 SLOAD ADD DUP1 DUP3 SSTORE DUP1 SWAP2 POP POP PUSH1 0x1 SWAP1 SUB SWAP1 PUSH0 MSTORE PUSH1 0x20 PUSH0 KECCAK256 ADD PUSH0 SWAP1 SWAP2 SWAP1 SWAP2 SWAP1 SWAP2 POP SSTORE DUP6 PUSH20 0xFFFFFFFFFFFFFFFFFFFFFFFFFFFFFFFFFFFFFFFF AND PUSH4 0x23B872DD CALLER ADDRESS DUP9 PUSH1 0x40 MLOAD DUP5 PUSH4 0xFFFFFFFF AND PUSH1 0xE0 SHL DUP2 MSTORE PUSH1 0x4 ADD PUSH2 0xA60 SWAP4 SWAP3 SWAP2 SWAP1 PUSH2 0x1A45 JUMP JUMPDEST PUSH0 PUSH1 0x40 MLOAD DUP1 DUP4 SUB DUP2 PUSH0 DUP8 DUP1 EXTCODESIZE ISZERO DUP1 ISZERO PUSH2 0xA77 JUMPI PUSH0 DUP1 REVERT JUMPDEST POP GAS CALL ISZERO DUP1 ISZERO PUSH2 0xA89 JUMPI RETURNDATASIZE PUSH0 DUP1 RETURNDATACOPY RETURNDATASIZE PUSH0 REVERT JUMPDEST POP POP POP POP PUSH2 0xA98 PUSH1 0x4 SLOAD PUSH2 0x716 JUMP JUMPDEST PUSH1 0x4 PUSH0 DUP2 SLOAD DUP1 SWAP3 SWAP2 SWAP1 PUSH2 0xAAA SWAP1 PUSH2 0x1AA7 JUMP JUMPDEST SWAP2 SWAP1 POP SSTORE POP PUSH32 0xF767AD1AE2D5476327F80BEF89FBC70354C993E3059ED3D504D127921F60C40B CALLER DUP3 PUSH1 0x40 MLOAD PUSH2 0xAE0 SWAP3 SWAP2 SWAP1 PUSH2 0x17C2 JUMP JUMPDEST PUSH1 0x40 MLOAD DUP1 SWAP2 SUB SWAP1 LOG1 POP POP POP POP POP POP JUMP JUMPDEST PUSH0 PUSH1 0x4 SLOAD SWAP1 POP SWAP1 JUMP JUMPDEST PUSH0 PUSH2 0xB03 DUP3 PUSH2 0xD2F JUMP JUMPDEST SWAP1 POP CALLER PUSH20 0xFFFFFFFFFFFFFFFFFFFFFFFFFFFFFFFFFFFFFFFF AND DUP2 PUSH0 ADD MLOAD PUSH20 0xFFFFFFFFFFFFFFFFFFFFFFFFFFFFFFFFFFFFFFFF AND EQ PUSH2 0xB76 JUMPI PUSH1 0x40 MLOAD PUSH32 0x8C379A000000000000000000000000000000000000000000000000000000000 DUP2 MSTORE PUSH1 0x4 ADD PUSH2 0xB6D SWAP1 PUSH2 0x18EF JUMP JUMPDEST PUSH1 0x40 MLOAD DUP1 SWAP2 SUB SWAP1 REVERT JUMPDEST PUSH32 0x6578637574696E67000000000000000000000000000000000000000000000000 DUP2 PUSH1 0xC0 ADD MLOAD EQ PUSH2 0xBDC JUMPI PUSH1 0x40 MLOAD PUSH32 0x8C379A000000000000000000000000000000000000000000000000000000000 DUP2 MSTORE PUSH1 0x4 ADD PUSH2 0xBD3 SWAP1 PUSH2 0x1B5E JUMP JUMPDEST PUSH1 0x40 MLOAD DUP1 SWAP2 SUB SWAP1 REVERT JUMPDEST PUSH0 PUSH2 0xBE6 DUP3 PUSH2 0xE92 JUMP JUMPDEST SWAP1 POP CALLER PUSH20 0xFFFFFFFFFFFFFFFFFFFFFFFFFFFFFFFFFFFFFFFF AND BALANCE DUP2 LT PUSH2 0xC41 JUMPI PUSH1 0x40 MLOAD PUSH32 0x8C379A000000000000000000000000000000000000000000000000000000000 DUP2 MSTORE PUSH1 0x4 ADD PUSH2 0xC38 SWAP1 PUSH2 0x1BC6 JUMP JUMPDEST PUSH1 0x40 MLOAD DUP1 SWAP2 SUB SWAP1 REVERT JUMPDEST PUSH1 0x3 PUSH0 DUP5 DUP2 MSTORE PUSH1 0x20 ADD SWAP1 DUP2 MSTORE PUSH1 0x20 ADD PUSH0 KECCAK256 PUSH0 SWAP1 SLOAD SWAP1 PUSH2 0x100 EXP SWAP1 DIV PUSH20 0xFFFFFFFFFFFFFFFFFFFFFFFFFFFFFFFFFFFFFFFF AND PUSH20 0xFFFFFFFFFFFFFFFFFFFFFFFFFFFFFFFFFFFFFFFF AND PUSH2 0x8FC DUP3 SWAP1 DUP2 ISZERO MUL SWAP1 PUSH1 0x40 MLOAD PUSH0 PUSH1 0x40 MLOAD DUP1 DUP4 SUB DUP2 DUP6 DUP9 DUP9 CALL SWAP4 POP POP POP POP ISZERO DUP1 ISZERO PUSH2 0xCB4 JUMPI RETURNDATASIZE PUSH0 DUP1 RETURNDATACOPY RETURNDATASIZE PUSH0 REVERT JUMPDEST POP PUSH32 0x7265706179656400000000000000000000000000000000000000000000000000 DUP3 PUSH1 0xC0 ADD DUP2 DUP2 MSTORE POP POP PUSH2 0xCE8 DUP3 PUSH2 0x612 JUMP JUMPDEST PUSH2 0xCF1 DUP4 PUSH2 0x716 JUMP JUMPDEST PUSH32 0x94E7116AA05F19F109F7FA598F65ADE35AB1DE8CD3D002B5B2205416E8943E65 CALLER DUP4 PUSH1 0x40 MLOAD PUSH2 0xD22 SWAP3 SWAP2 SWAP1 PUSH2 0x17C2 JUMP JUMPDEST PUSH1 0x40 MLOAD DUP1 SWAP2 SUB SWAP1 LOG1 POP POP POP JUMP JUMPDEST PUSH2 0xD37 PUSH2 0x1066 JUMP JUMPDEST PUSH0 DUP1 DUP4 DUP2 MSTORE PUSH1 0x20 ADD SWAP1 DUP2 MSTORE PUSH1 0x20 ADD PUSH0 KECCAK256 PUSH1 0x40 MLOAD DUP1 PUSH1 0xE0 ADD PUSH1 0x40 MSTORE SWAP1 DUP2 PUSH0 DUP3 ADD PUSH0 SWAP1 SLOAD SWAP1 PUSH2 0x100 EXP SWAP1 DIV PUSH20 0xFFFFFFFFFFFFFFFFFFFFFFFFFFFFFFFFFFFFFFFF AND PUSH20 0xFFFFFFFFFFFFFFFFFFFFFFFFFFFFFFFFFFFFFFFF AND PUSH20 0xFFFFFFFFFFFFFFFFFFFFFFFFFFFFFFFFFFFFFFFF AND DUP2 MSTORE PUSH1 0x20 ADD PUSH1 0x1 DUP3 ADD PUSH0 SWAP1 SLOAD SWAP1 PUSH2 0x100 EXP SWAP1 DIV PUSH20 0xFFFFFFFFFFFFFFFFFFFFFFFFFFFFFFFFFFFFFFFF AND PUSH20 0xFFFFFFFFFFFFFFFFFFFFFFFFFFFFFFFFFFFFFFFF AND PUSH20 0xFFFFFFFFFFFFFFFFFFFFFFFFFFFFFFFFFFFFFFFF AND DUP2 MSTORE PUSH1 0x20 ADD PUSH1 0x2 DUP3 ADD SLOAD DUP2 MSTORE PUSH1 0x20 ADD PUSH1 0x3 DUP3 ADD SLOAD DUP2 MSTORE PUSH1 0x20 ADD PUSH1 0x4 DUP3 ADD SLOAD DUP2 MSTORE PUSH1 0x20 ADD PUSH1 0x5 DUP3 ADD SLOAD DUP2 MSTORE PUSH1 0x20 ADD PUSH1 0x6 DUP3 ADD SLOAD DUP2 MSTORE POP POP SWAP1 POP SWAP2 SWAP1 POP JUMP JUMPDEST PUSH0 DUP1 PUSH0 PUSH2 0xE40 DUP5 PUSH2 0xD2F JUMP JUMPDEST SWAP1 POP PUSH0 PUSH1 0x6 SLOAD DUP3 PUSH1 0x80 ADD MLOAD PUSH2 0xE55 SWAP2 SWAP1 PUSH2 0x1BE4 JUMP JUMPDEST PUSH1 0x2 PUSH0 DUP8 DUP2 MSTORE PUSH1 0x20 ADD SWAP1 DUP2 MSTORE PUSH1 0x20 ADD PUSH0 KECCAK256 SLOAD PUSH2 0xE71 SWAP2 SWAP1 PUSH2 0x1C25 JUMP JUMPDEST SWAP1 POP PUSH0 TIMESTAMP DUP3 PUSH2 0xE80 SWAP2 SWAP1 PUSH2 0x1C58 JUMP JUMPDEST SWAP1 POP DUP1 PUSH0 DUP3 LT SWAP5 POP SWAP5 POP POP POP POP SWAP2 POP SWAP2 JUMP JUMPDEST PUSH0 SWAP2 SWAP1 POP JUMP JUMPDEST PUSH0 PUSH2 0xEA2 DUP3 PUSH2 0xD2F JUMP JUMPDEST SWAP1 POP CALLER PUSH20 0xFFFFFFFFFFFFFFFFFFFFFFFFFFFFFFFFFFFFFFFF AND DUP2 PUSH0 ADD MLOAD PUSH20 0xFFFFFFFFFFFFFFFFFFFFFFFFFFFFFFFFFFFFFFFF AND EQ PUSH2 0xF15 JUMPI PUSH1 0x40 MLOAD PUSH32 0x8C379A000000000000000000000000000000000000000000000000000000000 DUP2 MSTORE PUSH1 0x4 ADD PUSH2 0xF0C SWAP1 PUSH2 0x1CD5 JUMP JUMPDEST PUSH1 0x40 MLOAD DUP1 SWAP2 SUB SWAP1 REVERT JUMPDEST PUSH32 0x6F70656E00000000000000000000000000000000000000000000000000000000 DUP2 PUSH1 0xC0 ADD MLOAD EQ PUSH2 0xF7B JUMPI PUSH1 0x40 MLOAD PUSH32 0x8C379A000000000000000000000000000000000000000000000000000000000 DUP2 MSTORE PUSH1 0x4 ADD PUSH2 0xF72 SWAP1 PUSH2 0x1D3D JUMP JUMPDEST PUSH1 0x40 MLOAD DUP1 SWAP2 SUB SWAP1 REVERT JUMPDEST PUSH32 0x63616E63656C0000000000000000000000000000000000000000000000000000 DUP2 PUSH1 0xC0 ADD DUP2 DUP2 MSTORE POP POP PUSH2 0xFAE DUP3 PUSH2 0x716 JUMP JUMPDEST PUSH32 0x7E885013CA94016B1452B4678F1C43C33CD914617B389322AF7F7D97A2C4F585 CALLER DUP3 PUSH1 0x40 MLOAD PUSH2 0xFDF SWAP3 SWAP2 SWAP1 PUSH2 0x17C2 JUMP JUMPDEST PUSH1 0x40 MLOAD DUP1 SWAP2 SUB SWAP1 LOG1 POP POP JUMP JUMPDEST PUSH0 PUSH1 0x20 MSTORE DUP1 PUSH0 MSTORE PUSH1 0x40 PUSH0 KECCAK256 PUSH0 SWAP2 POP SWAP1 POP DUP1 PUSH0 ADD PUSH0 SWAP1 SLOAD SWAP1 PUSH2 0x100 EXP SWAP1 DIV PUSH20 0xFFFFFFFFFFFFFFFFFFFFFFFFFFFFFFFFFFFFFFFF AND SWAP1 DUP1 PUSH1 0x1 ADD PUSH0 SWAP1 SLOAD SWAP1 PUSH2 0x100 EXP SWAP1 DIV PUSH20 0xFFFFFFFFFFFFFFFFFFFFFFFFFFFFFFFFFFFFFFFF AND SWAP1 DUP1 PUSH1 0x2 ADD SLOAD SWAP1 DUP1 PUSH1 0x3 ADD SLOAD SWAP1 DUP1 PUSH1 0x4 ADD SLOAD SWAP1 DUP1 PUSH1 0x5 ADD SLOAD SWAP1 DUP1 PUSH1 0x6 ADD SLOAD SWAP1 POP DUP8 JUMP JUMPDEST PUSH1 0x40 MLOAD DUP1 PUSH1 0xE0 ADD PUSH1 0x40 MSTORE DUP1 PUSH0 PUSH20 0xFFFFFFFFFFFFFFFFFFFFFFFFFFFFFFFFFFFFFFFF AND DUP2 MSTORE PUSH1 0x20 ADD PUSH0 PUSH20 0xFFFFFFFFFFFFFFFFFFFFFFFFFFFFFFFFFFFFFFFF AND DUP2 MSTORE PUSH1 0x20 ADD PUSH0 DUP2 MSTORE PUSH1 0x20 ADD PUSH0 DUP2 MSTORE PUSH1 0x20 ADD PUSH0 DUP2 MSTORE PUSH1 0x20 ADD PUSH0 DUP2 MSTORE PUSH1 0x20 ADD PUSH0 DUP1 NOT AND DUP2 MSTORE POP SWAP1 JUMP JUMPDEST PUSH0 PUSH1 0x40 MLOAD SWAP1 POP SWAP1 JUMP JUMPDEST PUSH0 DUP1 REVERT JUMPDEST PUSH0 PUSH20 0xFFFFFFFFFFFFFFFFFFFFFFFFFFFFFFFFFFFFFFFF DUP3 AND SWAP1 POP SWAP2 SWAP1 POP JUMP JUMPDEST PUSH0 PUSH2 0x1101 DUP3 PUSH2 0x10D8 JUMP JUMPDEST SWAP1 POP SWAP2 SWAP1 POP JUMP JUMPDEST PUSH2 0x1111 DUP2 PUSH2 0x10F7 JUMP JUMPDEST DUP2 EQ PUSH2 0x111B JUMPI PUSH0 DUP1 REVERT JUMPDEST POP JUMP JUMPDEST PUSH0 DUP2 CALLDATALOAD SWAP1 POP PUSH2 0x112C DUP2 PUSH2 0x1108 JUMP JUMPDEST SWAP3 SWAP2 POP POP JUMP JUMPDEST PUSH0 PUSH1 0x20 DUP3 DUP5 SUB SLT ISZERO PUSH2 0x1147 JUMPI PUSH2 0x1146 PUSH2 0x10D4 JUMP JUMPDEST JUMPDEST PUSH0 PUSH2 0x1154 DUP5 DUP3 DUP6 ADD PUSH2 0x111E JUMP JUMPDEST SWAP2 POP POP SWAP3 SWAP2 POP POP JUMP JUMPDEST PUSH0 DUP2 MLOAD SWAP1 POP SWAP2 SWAP1 POP JUMP JUMPDEST PUSH0 DUP3 DUP3 MSTORE PUSH1 0x20 DUP3 ADD SWAP1 POP SWAP3 SWAP2 POP POP JUMP JUMPDEST PUSH0 DUP2 SWAP1 POP PUSH1 0x20 DUP3 ADD SWAP1 POP SWAP2 SWAP1 POP JUMP JUMPDEST PUSH0 DUP2 SWAP1 POP SWAP2 SWAP1 POP JUMP JUMPDEST PUSH2 0x1198 DUP2 PUSH2 0x1186 JUMP JUMPDEST DUP3 MSTORE POP POP JUMP JUMPDEST PUSH0 PUSH2 0x11A9 DUP4 DUP4 PUSH2 0x118F JUMP JUMPDEST PUSH1 0x20 DUP4 ADD SWAP1 POP SWAP3 SWAP2 POP POP JUMP JUMPDEST PUSH0 PUSH1 0x20 DUP3 ADD SWAP1 POP SWAP2 SWAP1 POP JUMP JUMPDEST PUSH0 PUSH2 0x11CB DUP3 PUSH2 0x115D JUMP JUMPDEST PUSH2 0x11D5 DUP2 DUP6 PUSH2 0x1167 JUMP JUMPDEST SWAP4 POP PUSH2 0x11E0 DUP4 PUSH2 0x1177 JUMP JUMPDEST DUP1 PUSH0 JUMPDEST DUP4 DUP2 LT ISZERO PUSH2 0x1210 JUMPI DUP2 MLOAD PUSH2 0x11F7 DUP9 DUP3 PUSH2 0x119E JUMP JUMPDEST SWAP8 POP PUSH2 0x1202 DUP4 PUSH2 0x11B5 JUMP JUMPDEST SWAP3 POP POP PUSH1 0x1 DUP2 ADD SWAP1 POP PUSH2 0x11E3 JUMP JUMPDEST POP DUP6 SWAP4 POP POP POP POP SWAP3 SWAP2 POP POP JUMP JUMPDEST PUSH0 PUSH1 0x20 DUP3 ADD SWAP1 POP DUP2 DUP2 SUB PUSH0 DUP4 ADD MSTORE PUSH2 0x1235 DUP2 DUP5 PUSH2 0x11C1 JUMP JUMPDEST SWAP1 POP SWAP3 SWAP2 POP POP JUMP JUMPDEST PUSH2 0x1246 DUP2 PUSH2 0x1186 JUMP JUMPDEST DUP2 EQ PUSH2 0x1250 JUMPI PUSH0 DUP1 REVERT JUMPDEST POP JUMP JUMPDEST PUSH0 DUP2 CALLDATALOAD SWAP1 POP PUSH2 0x1261 DUP2 PUSH2 0x123D JUMP JUMPDEST SWAP3 SWAP2 POP POP JUMP JUMPDEST PUSH0 PUSH1 0x20 DUP3 DUP5 SUB SLT ISZERO PUSH2 0x127C JUMPI PUSH2 0x127B PUSH2 0x10D4 JUMP JUMPDEST JUMPDEST PUSH0 PUSH2 0x1289 DUP5 DUP3 DUP6 ADD PUSH2 0x1253 JUMP JUMPDEST SWAP2 POP POP SWAP3 SWAP2 POP POP JUMP JUMPDEST PUSH0 DUP1 PUSH1 0x40 DUP4 DUP6 SUB SLT ISZERO PUSH2 0x12A8 JUMPI PUSH2 0x12A7 PUSH2 0x10D4 JUMP JUMPDEST JUMPDEST PUSH0 PUSH2 0x12B5 DUP6 DUP3 DUP7 ADD PUSH2 0x111E JUMP JUMPDEST SWAP3 POP POP PUSH1 0x20 PUSH2 0x12C6 DUP6 DUP3 DUP7 ADD PUSH2 0x1253 JUMP JUMPDEST SWAP2 POP POP SWAP3 POP SWAP3 SWAP1 POP JUMP JUMPDEST PUSH2 0x12D9 DUP2 PUSH2 0x10F7 JUMP JUMPDEST DUP3 MSTORE POP POP JUMP JUMPDEST PUSH0 PUSH1 0x20 DUP3 ADD SWAP1 POP PUSH2 0x12F2 PUSH0 DUP4 ADD DUP5 PUSH2 0x12D0 JUMP JUMPDEST SWAP3 SWAP2 POP POP JUMP JUMPDEST PUSH0 DUP2 ISZERO ISZERO SWAP1 POP SWAP2 SWAP1 POP JUMP JUMPDEST PUSH2 0x130C DUP2 PUSH2 0x12F8 JUMP JUMPDEST DUP3 MSTORE POP POP JUMP JUMPDEST PUSH0 PUSH1 0x20 DUP3 ADD SWAP1 POP PUSH2 0x1325 PUSH0 DUP4 ADD DUP5 PUSH2 0x1303 JUMP JUMPDEST SWAP3 SWAP2 POP POP JUMP JUMPDEST PUSH0 DUP1 REVERT JUMPDEST PUSH0 PUSH1 0x1F NOT PUSH1 0x1F DUP4 ADD AND SWAP1 POP SWAP2 SWAP1 POP JUMP JUMPDEST PUSH32 0x4E487B7100000000000000000000000000000000000000000000000000000000 PUSH0 MSTORE PUSH1 0x41 PUSH1 0x4 MSTORE PUSH1 0x24 PUSH0 REVERT JUMPDEST PUSH2 0x1375 DUP3 PUSH2 0x132F JUMP JUMPDEST DUP2 ADD DUP2 DUP2 LT PUSH8 0xFFFFFFFFFFFFFFFF DUP3 GT OR ISZERO PUSH2 0x1394 JUMPI PUSH2 0x1393 PUSH2 0x133F JUMP JUMPDEST JUMPDEST DUP1 PUSH1 0x40 MSTORE POP POP POP JUMP JUMPDEST PUSH0 PUSH2 0x13A6 PUSH2 0x10CB JUMP JUMPDEST SWAP1 POP PUSH2 0x13B2 DUP3 DUP3 PUSH2 0x136C JUMP JUMPDEST SWAP2 SWAP1 POP JUMP JUMPDEST PUSH0 PUSH2 0x13C1 DUP3 PUSH2 0x10D8 JUMP JUMPDEST SWAP1 POP SWAP2 SWAP1 POP JUMP JUMPDEST PUSH2 0x13D1 DUP2 PUSH2 0x13B7 JUMP JUMPDEST DUP2 EQ PUSH2 0x13DB JUMPI PUSH0 DUP1 REVERT JUMPDEST POP JUMP JUMPDEST PUSH0 DUP2 CALLDATALOAD SWAP1 POP PUSH2 0x13EC DUP2 PUSH2 0x13C8 JUMP JUMPDEST SWAP3 SWAP2 POP POP JUMP JUMPDEST PUSH0 DUP2 SWAP1 POP SWAP2 SWAP1 POP JUMP JUMPDEST PUSH2 0x1404 DUP2 PUSH2 0x13F2 JUMP JUMPDEST DUP2 EQ PUSH2 0x140E JUMPI PUSH0 DUP1 REVERT JUMPDEST POP JUMP JUMPDEST PUSH0 DUP2 CALLDATALOAD SWAP1 POP PUSH2 0x141F DUP2 PUSH2 0x13FB JUMP JUMPDEST SWAP3 SWAP2 POP POP JUMP JUMPDEST PUSH0 PUSH1 0xE0 DUP3 DUP5 SUB SLT ISZERO PUSH2 0x143A JUMPI PUSH2 0x1439 PUSH2 0x132B JUMP JUMPDEST JUMPDEST PUSH2 0x1444 PUSH1 0xE0 PUSH2 0x139D JUMP JUMPDEST SWAP1 POP PUSH0 PUSH2 0x1453 DUP5 DUP3 DUP6 ADD PUSH2 0x13DE JUMP JUMPDEST PUSH0 DUP4 ADD MSTORE POP PUSH1 0x20 PUSH2 0x1466 DUP5 DUP3 DUP6 ADD PUSH2 0x111E JUMP JUMPDEST PUSH1 0x20 DUP4 ADD MSTORE POP PUSH1 0x40 PUSH2 0x147A DUP5 DUP3 DUP6 ADD PUSH2 0x1253 JUMP JUMPDEST PUSH1 0x40 DUP4 ADD MSTORE POP PUSH1 0x60 PUSH2 0x148E DUP5 DUP3 DUP6 ADD PUSH2 0x1253 JUMP JUMPDEST PUSH1 0x60 DUP4 ADD MSTORE POP PUSH1 0x80 PUSH2 0x14A2 DUP5 DUP3 DUP6 ADD PUSH2 0x1253 JUMP JUMPDEST PUSH1 0x80 DUP4 ADD MSTORE POP PUSH1 0xA0 PUSH2 0x14B6 DUP5 DUP3 DUP6 ADD PUSH2 0x1253 JUMP JUMPDEST PUSH1 0xA0 DUP4 ADD MSTORE POP PUSH1 0xC0 PUSH2 0x14CA DUP5 DUP3 DUP6 ADD PUSH2 0x1411 JUMP JUMPDEST PUSH1 0xC0 DUP4 ADD MSTORE POP SWAP3 SWAP2 POP POP JUMP JUMPDEST PUSH0 PUSH1 0xE0 DUP3 DUP5 SUB SLT ISZERO PUSH2 0x14EB JUMPI PUSH2 0x14EA PUSH2 0x10D4 JUMP JUMPDEST JUMPDEST PUSH0 PUSH2 0x14F8 DUP5 DUP3 DUP6 ADD PUSH2 0x1425 JUMP JUMPDEST SWAP2 POP POP SWAP3 SWAP2 POP POP JUMP JUMPDEST PUSH0 DUP1 PUSH0 DUP1 PUSH0 PUSH1 0xA0 DUP7 DUP9 SUB SLT ISZERO PUSH2 0x151A JUMPI PUSH2 0x1519 PUSH2 0x10D4 JUMP JUMPDEST JUMPDEST PUSH0 PUSH2 0x1527 DUP9 DUP3 DUP10 ADD PUSH2 0x111E JUMP JUMPDEST SWAP6 POP POP PUSH1 0x20 PUSH2 0x1538 DUP9 DUP3 DUP10 ADD PUSH2 0x1253 JUMP JUMPDEST SWAP5 POP POP PUSH1 0x40 PUSH2 0x1549 DUP9 DUP3 DUP10 ADD PUSH2 0x1253 JUMP JUMPDEST SWAP4 POP POP PUSH1 0x60 PUSH2 0x155A DUP9 DUP3 DUP10 ADD PUSH2 0x1253 JUMP JUMPDEST SWAP3 POP POP PUSH1 0x80 PUSH2 0x156B DUP9 DUP3 DUP10 ADD PUSH2 0x1253 JUMP JUMPDEST SWAP2 POP POP SWAP3 SWAP6 POP SWAP3 SWAP6 SWAP1 SWAP4 POP JUMP JUMPDEST PUSH2 0x1581 DUP2 PUSH2 0x1186 JUMP JUMPDEST DUP3 MSTORE POP POP JUMP JUMPDEST PUSH0 PUSH1 0x20 DUP3 ADD SWAP1 POP PUSH2 0x159A PUSH0 DUP4 ADD DUP5 PUSH2 0x1578 JUMP JUMPDEST SWAP3 SWAP2 POP POP JUMP JUMPDEST PUSH2 0x15A9 DUP2 PUSH2 0x13B7 JUMP JUMPDEST DUP3 MSTORE POP POP JUMP JUMPDEST PUSH2 0x15B8 DUP2 PUSH2 0x10F7 JUMP JUMPDEST DUP3 MSTORE POP POP JUMP JUMPDEST PUSH2 0x15C7 DUP2 PUSH2 0x13F2 JUMP JUMPDEST DUP3 MSTORE POP POP JUMP JUMPDEST PUSH1 0xE0 DUP3 ADD PUSH0 DUP3 ADD MLOAD PUSH2 0x15E1 PUSH0 DUP6 ADD DUP3 PUSH2 0x15A0 JUMP JUMPDEST POP PUSH1 0x20 DUP3 ADD MLOAD PUSH2 0x15F4 PUSH1 0x20 DUP6 ADD DUP3 PUSH2 0x15AF JUMP JUMPDEST POP PUSH1 0x40 DUP3 ADD MLOAD PUSH2 0x1607 PUSH1 0x40 DUP6 ADD DUP3 PUSH2 0x118F JUMP JUMPDEST POP PUSH1 0x60 DUP3 ADD MLOAD PUSH2 0x161A PUSH1 0x60 DUP6 ADD DUP3 PUSH2 0x118F JUMP JUMPDEST POP PUSH1 0x80 DUP3 ADD MLOAD PUSH2 0x162D PUSH1 0x80 DUP6 ADD DUP3 PUSH2 0x118F JUMP JUMPDEST POP PUSH1 0xA0 DUP3 ADD MLOAD PUSH2 0x1640 PUSH1 0xA0 DUP6 ADD DUP3 PUSH2 0x118F JUMP JUMPDEST POP PUSH1 0xC0 DUP3 ADD MLOAD PUSH2 0x1653 PUSH1 0xC0 DUP6 ADD DUP3 PUSH2 0x15BE JUMP JUMPDEST POP POP POP POP JUMP JUMPDEST PUSH0 PUSH1 0xE0 DUP3 ADD SWAP1 POP PUSH2 0x166C PUSH0 DUP4 ADD DUP5 PUSH2 0x15CD JUMP JUMPDEST SWAP3 SWAP2 POP POP JUMP JUMPDEST PUSH0 PUSH1 0x40 DUP3 ADD SWAP1 POP PUSH2 0x1685 PUSH0 DUP4 ADD DUP6 PUSH2 0x1578 JUMP JUMPDEST PUSH2 0x1692 PUSH1 0x20 DUP4 ADD DUP5 PUSH2 0x1303 JUMP JUMPDEST SWAP4 SWAP3 POP POP POP JUMP JUMPDEST PUSH2 0x16A2 DUP2 PUSH2 0x13B7 JUMP JUMPDEST DUP3 MSTORE POP POP JUMP JUMPDEST PUSH2 0x16B1 DUP2 PUSH2 0x13F2 JUMP JUMPDEST DUP3 MSTORE POP POP JUMP JUMPDEST PUSH0 PUSH1 0xE0 DUP3 ADD SWAP1 POP PUSH2 0x16CA PUSH0 DUP4 ADD DUP11 PUSH2 0x1699 JUMP JUMPDEST PUSH2 0x16D7 PUSH1 0x20 DUP4 ADD DUP10 PUSH2 0x12D0 JUMP JUMPDEST PUSH2 0x16E4 PUSH1 0x40 DUP4 ADD DUP9 PUSH2 0x1578 JUMP JUMPDEST PUSH2 0x16F1 PUSH1 0x60 DUP4 ADD DUP8 PUSH2 0x1578 JUMP JUMPDEST PUSH2 0x16FE PUSH1 0x80 DUP4 ADD DUP7 PUSH2 0x1578 JUMP JUMPDEST PUSH2 0x170B PUSH1 0xA0 DUP4 ADD DUP6 PUSH2 0x1578 JUMP JUMPDEST PUSH2 0x1718 PUSH1 0xC0 DUP4 ADD DUP5 PUSH2 0x16A8 JUMP JUMPDEST SWAP9 SWAP8 POP POP POP POP POP POP POP POP JUMP JUMPDEST PUSH0 DUP3 DUP3 MSTORE PUSH1 0x20 DUP3 ADD SWAP1 POP SWAP3 SWAP2 POP POP JUMP JUMPDEST PUSH32 0x596F7520686176656E277420656E6F7567682062616C616E636520666F72206C PUSH0 DUP3 ADD MSTORE PUSH32 0x656E64696E670000000000000000000000000000000000000000000000000000 PUSH1 0x20 DUP3 ADD MSTORE POP JUMP JUMPDEST PUSH0 PUSH2 0x178E PUSH1 0x26 DUP4 PUSH2 0x1724 JUMP JUMPDEST SWAP2 POP PUSH2 0x1799 DUP3 PUSH2 0x1734 JUMP JUMPDEST PUSH1 0x40 DUP3 ADD SWAP1 POP SWAP2 SWAP1 POP JUMP JUMPDEST PUSH0 PUSH1 0x20 DUP3 ADD SWAP1 POP DUP2 DUP2 SUB PUSH0 DUP4 ADD MSTORE PUSH2 0x17BB DUP2 PUSH2 0x1782 JUMP JUMPDEST SWAP1 POP SWAP2 SWAP1 POP JUMP JUMPDEST PUSH0 PUSH2 0x100 DUP3 ADD SWAP1 POP PUSH2 0x17D6 PUSH0 DUP4 ADD DUP6 PUSH2 0x12D0 JUMP JUMPDEST PUSH2 0x17E3 PUSH1 0x20 DUP4 ADD DUP5 PUSH2 0x15CD JUMP JUMPDEST SWAP4 SWAP3 POP POP POP JUMP JUMPDEST PUSH0 DUP2 MLOAD SWAP1 POP PUSH2 0x17F8 DUP2 PUSH2 0x1108 JUMP JUMPDEST SWAP3 SWAP2 POP POP JUMP JUMPDEST PUSH0 PUSH1 0x20 DUP3 DUP5 SUB SLT ISZERO PUSH2 0x1813 JUMPI PUSH2 0x1812 PUSH2 0x10D4 JUMP JUMPDEST JUMPDEST PUSH0 PUSH2 0x1820 DUP5 DUP3 DUP6 ADD PUSH2 0x17EA JUMP JUMPDEST SWAP2 POP POP SWAP3 SWAP2 POP POP JUMP JUMPDEST PUSH0 PUSH1 0x40 DUP3 ADD SWAP1 POP PUSH2 0x183C PUSH0 DUP4 ADD DUP6 PUSH2 0x12D0 JUMP JUMPDEST PUSH2 0x1849 PUSH1 0x20 DUP4 ADD DUP5 PUSH2 0x12D0 JUMP JUMPDEST SWAP4 SWAP3 POP POP POP JUMP JUMPDEST PUSH2 0x1859 DUP2 PUSH2 0x12F8 JUMP JUMPDEST DUP2 EQ PUSH2 0x1863 JUMPI PUSH0 DUP1 REVERT JUMPDEST POP JUMP JUMPDEST PUSH0 DUP2 MLOAD SWAP1 POP PUSH2 0x1874 DUP2 PUSH2 0x1850 JUMP JUMPDEST SWAP3 SWAP2 POP POP JUMP JUMPDEST PUSH0 PUSH1 0x20 DUP3 DUP5 SUB SLT ISZERO PUSH2 0x188F JUMPI PUSH2 0x188E PUSH2 0x10D4 JUMP JUMPDEST JUMPDEST PUSH0 PUSH2 0x189C DUP5 DUP3 DUP6 ADD PUSH2 0x1866 JUMP JUMPDEST SWAP2 POP POP SWAP3 SWAP2 POP POP JUMP JUMPDEST PUSH32 0x596F7520617265206E6F7420706F737465720000000000000000000000000000 PUSH0 DUP3 ADD MSTORE POP JUMP JUMPDEST PUSH0 PUSH2 0x18D9 PUSH1 0x12 DUP4 PUSH2 0x1724 JUMP JUMPDEST SWAP2 POP PUSH2 0x18E4 DUP3 PUSH2 0x18A5 JUMP JUMPDEST PUSH1 0x20 DUP3 ADD SWAP1 POP SWAP2 SWAP1 POP JUMP JUMPDEST PUSH0 PUSH1 0x20 DUP3 ADD SWAP1 POP DUP2 DUP2 SUB PUSH0 DUP4 ADD MSTORE PUSH2 0x1906 DUP2 PUSH2 0x18CD JUMP JUMPDEST SWAP1 POP SWAP2 SWAP1 POP JUMP JUMPDEST PUSH32 0x546869732069736E277420726570617920796574000000000000000000000000 PUSH0 DUP3 ADD MSTORE POP JUMP JUMPDEST PUSH0 PUSH2 0x1941 PUSH1 0x14 DUP4 PUSH2 0x1724 JUMP JUMPDEST SWAP2 POP PUSH2 0x194C DUP3 PUSH2 0x190D JUMP JUMPDEST PUSH1 0x20 DUP3 ADD SWAP1 POP SWAP2 SWAP1 POP JUMP JUMPDEST PUSH0 PUSH1 0x20 DUP3 ADD SWAP1 POP DUP2 DUP2 SUB PUSH0 DUP4 ADD MSTORE PUSH2 0x196E DUP2 PUSH2 0x1935 JUMP JUMPDEST SWAP1 POP SWAP2 SWAP1 POP JUMP JUMPDEST PUSH32 0x56616C756573206D7573742062652067726561746572207468616E207A65726F PUSH0 DUP3 ADD MSTORE POP JUMP JUMPDEST PUSH0 PUSH2 0x19A9 PUSH1 0x20 DUP4 PUSH2 0x1724 JUMP JUMPDEST SWAP2 POP PUSH2 0x19B4 DUP3 PUSH2 0x1975 JUMP JUMPDEST PUSH1 0x20 DUP3 ADD SWAP1 POP SWAP2 SWAP1 POP JUMP JUMPDEST PUSH0 PUSH1 0x20 DUP3 ADD SWAP1 POP DUP2 DUP2 SUB PUSH0 DUP4 ADD MSTORE PUSH2 0x19D6 DUP2 PUSH2 0x199D JUMP JUMPDEST SWAP1 POP SWAP2 SWAP1 POP JUMP JUMPDEST PUSH32 0x596F7520617265206E6F7420686F6C646572206F66207468697320746F6B656E PUSH0 DUP3 ADD MSTORE POP JUMP JUMPDEST PUSH0 PUSH2 0x1A11 PUSH1 0x20 DUP4 PUSH2 0x1724 JUMP JUMPDEST SWAP2 POP PUSH2 0x1A1C DUP3 PUSH2 0x19DD JUMP JUMPDEST PUSH1 0x20 DUP3 ADD SWAP1 POP SWAP2 SWAP1 POP JUMP JUMPDEST PUSH0 PUSH1 0x20 DUP3 ADD SWAP1 POP DUP2 DUP2 SUB PUSH0 DUP4 ADD MSTORE PUSH2 0x1A3E DUP2 PUSH2 0x1A05 JUMP JUMPDEST SWAP1 POP SWAP2 SWAP1 POP JUMP JUMPDEST PUSH0 PUSH1 0x60 DUP3 ADD SWAP1 POP PUSH2 0x1A58 PUSH0 DUP4 ADD DUP7 PUSH2 0x12D0 JUMP JUMPDEST PUSH2 0x1A65 PUSH1 0x20 DUP4 ADD DUP6 PUSH2 0x12D0 JUMP JUMPDEST PUSH2 0x1A72 PUSH1 0x40 DUP4 ADD DUP5 PUSH2 0x1578 JUMP JUMPDEST SWAP5 SWAP4 POP POP POP POP JUMP JUMPDEST PUSH32 0x4E487B7100000000000000000000000000000000000000000000000000000000 PUSH0 MSTORE PUSH1 0x11 PUSH1 0x4 MSTORE PUSH1 0x24 PUSH0 REVERT JUMPDEST PUSH0 PUSH2 0x1AB1 DUP3 PUSH2 0x1186 JUMP JUMPDEST SWAP2 POP PUSH32 0xFFFFFFFFFFFFFFFFFFFFFFFFFFFFFFFFFFFFFFFFFFFFFFFFFFFFFFFFFFFFFFFF DUP3 SUB PUSH2 0x1AE3 JUMPI PUSH2 0x1AE2 PUSH2 0x1A7A JUMP JUMPDEST JUMPDEST PUSH1 0x1 DUP3 ADD SWAP1 POP SWAP2 SWAP1 POP JUMP JUMPDEST PUSH32 0x546869732069732065787069726564206F72206E6F7420657863757465642079 PUSH0 DUP3 ADD MSTORE PUSH32 0x6574000000000000000000000000000000000000000000000000000000000000 PUSH1 0x20 DUP3 ADD MSTORE POP JUMP JUMPDEST PUSH0 PUSH2 0x1B48 PUSH1 0x22 DUP4 PUSH2 0x1724 JUMP JUMPDEST SWAP2 POP PUSH2 0x1B53 DUP3 PUSH2 0x1AEE JUMP JUMPDEST PUSH1 0x40 DUP3 ADD SWAP1 POP SWAP2 SWAP1 POP JUMP JUMPDEST PUSH0 PUSH1 0x20 DUP3 ADD SWAP1 POP DUP2 DUP2 SUB PUSH0 DUP4 ADD MSTORE PUSH2 0x1B75 DUP2 PUSH2 0x1B3C JUMP JUMPDEST SWAP1 POP SWAP2 SWAP1 POP JUMP JUMPDEST PUSH32 0x4E6F7420656E6F7567682062616C616E636520666F72207265706179696E6700 PUSH0 DUP3 ADD MSTORE POP JUMP JUMPDEST PUSH0 PUSH2 0x1BB0 PUSH1 0x1F DUP4 PUSH2 0x1724 JUMP JUMPDEST SWAP2 POP PUSH2 0x1BBB DUP3 PUSH2 0x1B7C JUMP JUMPDEST PUSH1 0x20 DUP3 ADD SWAP1 POP SWAP2 SWAP1 POP JUMP JUMPDEST PUSH0 PUSH1 0x20 DUP3 ADD SWAP1 POP DUP2 DUP2 SUB PUSH0 DUP4 ADD MSTORE PUSH2 0x1BDD DUP2 PUSH2 0x1BA4 JUMP JUMPDEST SWAP1 POP SWAP2 SWAP1 POP JUMP JUMPDEST PUSH0 PUSH2 0x1BEE DUP3 PUSH2 0x1186 JUMP JUMPDEST SWAP2 POP PUSH2 0x1BF9 DUP4 PUSH2 0x1186 JUMP JUMPDEST SWAP3 POP DUP3 DUP3 MUL PUSH2 0x1C07 DUP2 PUSH2 0x1186 JUMP JUMPDEST SWAP2 POP DUP3 DUP3 DIV DUP5 EQ DUP4 ISZERO OR PUSH2 0x1C1E JUMPI PUSH2 0x1C1D PUSH2 0x1A7A JUMP JUMPDEST JUMPDEST POP SWAP3 SWAP2 POP POP JUMP JUMPDEST PUSH0 PUSH2 0x1C2F DUP3 PUSH2 0x1186 JUMP JUMPDEST SWAP2 POP PUSH2 0x1C3A DUP4 PUSH2 0x1186 JUMP JUMPDEST SWAP3 POP DUP3 DUP3 ADD SWAP1 POP DUP1 DUP3 GT ISZERO PUSH2 0x1C52 JUMPI PUSH2 0x1C51 PUSH2 0x1A7A JUMP JUMPDEST JUMPDEST SWAP3 SWAP2 POP POP JUMP JUMPDEST PUSH0 PUSH2 0x1C62 DUP3 PUSH2 0x1186 JUMP JUMPDEST SWAP2 POP PUSH2 0x1C6D DUP4 PUSH2 0x1186 JUMP JUMPDEST SWAP3 POP DUP3 DUP3 SUB SWAP1 POP DUP2 DUP2 GT ISZERO PUSH2 0x1C85 JUMPI PUSH2 0x1C84 PUSH2 0x1A7A JUMP JUMPDEST JUMPDEST SWAP3 SWAP2 POP POP JUMP JUMPDEST PUSH32 0x596F7520617265206E6F7420706F73746572206F6620746865206C6973740000 PUSH0 DUP3 ADD MSTORE POP JUMP JUMPDEST PUSH0 PUSH2 0x1CBF PUSH1 0x1E DUP4 PUSH2 0x1724 JUMP JUMPDEST SWAP2 POP PUSH2 0x1CCA DUP3 PUSH2 0x1C8B JUMP JUMPDEST PUSH1 0x20 DUP3 ADD SWAP1 POP SWAP2 SWAP1 POP JUMP JUMPDEST PUSH0 PUSH1 0x20 DUP3 ADD SWAP1 POP DUP2 DUP2 SUB PUSH0 DUP4 ADD MSTORE PUSH2 0x1CEC DUP2 PUSH2 0x1CB3 JUMP JUMPDEST SWAP1 POP SWAP2 SWAP1 POP JUMP JUMPDEST PUSH32 0x4E6F74206F70656E696E67206C69737400000000000000000000000000000000 PUSH0 DUP3 ADD MSTORE POP JUMP JUMPDEST PUSH0 PUSH2 0x1D27 PUSH1 0x10 DUP4 PUSH2 0x1724 JUMP JUMPDEST SWAP2 POP PUSH2 0x1D32 DUP3 PUSH2 0x1CF3 JUMP JUMPDEST PUSH1 0x20 DUP3 ADD SWAP1 POP SWAP2 SWAP1 POP JUMP JUMPDEST PUSH0 PUSH1 0x20 DUP3 ADD SWAP1 POP DUP2 DUP2 SUB PUSH0 DUP4 ADD MSTORE PUSH2 0x1D54 DUP2 PUSH2 0x1D1B JUMP JUMPDEST SWAP1 POP SWAP2 SWAP1 POP JUMP INVALID LOG2 PUSH5 0x6970667358 0x22 SLT KECCAK256 0xD1 0xE6 MULMOD 0xA6 DUP1 BALANCE PUSH14 0xD196B9233C83474E0CE616E26669 0xBE 0xC0 ADD 0xD7 0xC PUSH13 0x3559B9753064736F6C63430008 OR STOP CALLER "
		},
		"gasEstimates": {
			"creation": {
				"codeDepositCost": "1513800",
				"executionCost": "45792",
				"totalCost": "1559592"
			},
			"external": {
				"calculateRepayAmount((address,address,uint256,uint256,uint256,uint256,bytes32))": "infinite",
				"closeListing(uint256)": "infinite",
				"getCounter()": "2455",
				"getListing(address)": "infinite",
				"getListingInfo(uint256)": "infinite",
				"giveBackNFT((address,address,uint256,uint256,uint256,uint256,bytes32))": "infinite",
				"isApprove(address)": "infinite",
				"isExpired(uint256)": "infinite",
				"lendApproval(uint256)": "infinite",
				"listNum(uint256)": "infinite",
				"openListing(address,uint256,uint256,uint256,uint256)": "infinite",
				"ownerOf(address,uint256)": "infinite",
				"repayLoan(uint256)": "infinite",
				"updateTime(uint256)": "22657"
			}
		},
		"methodIdentifiers": {
			"calculateRepayAmount((address,address,uint256,uint256,uint256,uint256,bytes32))": "e19c1831",
			"closeListing(uint256)": "e5a255cb",
			"getCounter()": "8ada066e",
			"getListing(address)": "084af0b2",
			"getListingInfo(uint256)": "b9314135",
			"giveBackNFT((address,address,uint256,uint256,uint256,uint256,bytes32))": "5e8441e4",
			"isApprove(address)": "4f694690",
			"isExpired(uint256)": "d9548e53",
			"lendApproval(uint256)": "172656d1",
			"listNum(uint256)": "eeabfc4a",
			"openListing(address,uint256,uint256,uint256,uint256)": "880fe941",
			"ownerOf(address,uint256)": "1f29d2dc",
			"repayLoan(uint256)": "ab7b1c89",
			"updateTime(uint256)": "6c59bd0c"
		}
	},
	"abi": [
		{
			"anonymous": false,
			"inputs": [
				{
					"indexed": false,
					"internalType": "address",
					"name": "loaner",
					"type": "address"
				},
				{
					"components": [
						{
							"internalType": "address payable",
							"name": "poster",
							"type": "address"
						},
						{
							"internalType": "address",
							"name": "collectionAddr",
							"type": "address"
						},
						{
							"internalType": "uint256",
							"name": "tokenId",
							"type": "uint256"
						},
						{
							"internalType": "uint256",
							"name": "amount",
							"type": "uint256"
						},
						{
							"internalType": "uint256",
							"name": "duration",
							"type": "uint256"
						},
						{
							"internalType": "uint256",
							"name": "APR",
							"type": "uint256"
						},
						{
							"internalType": "bytes32",
							"name": "status",
							"type": "bytes32"
						}
					],
					"indexed": false,
					"internalType": "struct Platform.ListingInfo",
					"name": "info",
					"type": "tuple"
				}
			],
			"name": "ApprovalListing",
			"type": "event"
		},
		{
			"anonymous": false,
			"inputs": [
				{
					"indexed": false,
					"internalType": "address",
					"name": "owner",
					"type": "address"
				},
				{
					"components": [
						{
							"internalType": "address payable",
							"name": "poster",
							"type": "address"
						},
						{
							"internalType": "address",
							"name": "collectionAddr",
							"type": "address"
						},
						{
							"internalType": "uint256",
							"name": "tokenId",
							"type": "uint256"
						},
						{
							"internalType": "uint256",
							"name": "amount",
							"type": "uint256"
						},
						{
							"internalType": "uint256",
							"name": "duration",
							"type": "uint256"
						},
						{
							"internalType": "uint256",
							"name": "APR",
							"type": "uint256"
						},
						{
							"internalType": "bytes32",
							"name": "status",
							"type": "bytes32"
						}
					],
					"indexed": false,
					"internalType": "struct Platform.ListingInfo",
					"name": "info",
					"type": "tuple"
				}
			],
			"name": "CancelListing",
			"type": "event"
		},
		{
			"anonymous": false,
			"inputs": [
				{
					"indexed": false,
					"internalType": "address",
					"name": "owner",
					"type": "address"
				},
				{
					"components": [
						{
							"internalType": "address payable",
							"name": "poster",
							"type": "address"
						},
						{
							"internalType": "address",
							"name": "collectionAddr",
							"type": "address"
						},
						{
							"internalType": "uint256",
							"name": "tokenId",
							"type": "uint256"
						},
						{
							"internalType": "uint256",
							"name": "amount",
							"type": "uint256"
						},
						{
							"internalType": "uint256",
							"name": "duration",
							"type": "uint256"
						},
						{
							"internalType": "uint256",
							"name": "APR",
							"type": "uint256"
						},
						{
							"internalType": "bytes32",
							"name": "status",
							"type": "bytes32"
						}
					],
					"indexed": false,
					"internalType": "struct Platform.ListingInfo",
					"name": "info",
					"type": "tuple"
				}
			],
			"name": "NewListing",
			"type": "event"
		},
		{
			"anonymous": false,
			"inputs": [
				{
					"indexed": false,
					"internalType": "address",
					"name": "owner",
					"type": "address"
				},
				{
					"components": [
						{
							"internalType": "address payable",
							"name": "poster",
							"type": "address"
						},
						{
							"internalType": "address",
							"name": "collectionAddr",
							"type": "address"
						},
						{
							"internalType": "uint256",
							"name": "tokenId",
							"type": "uint256"
						},
						{
							"internalType": "uint256",
							"name": "amount",
							"type": "uint256"
						},
						{
							"internalType": "uint256",
							"name": "duration",
							"type": "uint256"
						},
						{
							"internalType": "uint256",
							"name": "APR",
							"type": "uint256"
						},
						{
							"internalType": "bytes32",
							"name": "status",
							"type": "bytes32"
						}
					],
					"indexed": false,
					"internalType": "struct Platform.ListingInfo",
					"name": "info",
					"type": "tuple"
				}
			],
			"name": "repaying",
			"type": "event"
		},
		{
			"inputs": [
				{
					"components": [
						{
							"internalType": "address payable",
							"name": "poster",
							"type": "address"
						},
						{
							"internalType": "address",
							"name": "collectionAddr",
							"type": "address"
						},
						{
							"internalType": "uint256",
							"name": "tokenId",
							"type": "uint256"
						},
						{
							"internalType": "uint256",
							"name": "amount",
							"type": "uint256"
						},
						{
							"internalType": "uint256",
							"name": "duration",
							"type": "uint256"
						},
						{
							"internalType": "uint256",
							"name": "APR",
							"type": "uint256"
						},
						{
							"internalType": "bytes32",
							"name": "status",
							"type": "bytes32"
						}
					],
					"internalType": "struct Platform.ListingInfo",
					"name": "info",
					"type": "tuple"
				}
			],
			"name": "calculateRepayAmount",
			"outputs": [
				{
					"internalType": "uint256",
					"name": "",
					"type": "uint256"
				}
			],
			"stateMutability": "nonpayable",
			"type": "function"
		},
		{
			"inputs": [
				{
					"internalType": "uint256",
					"name": "listingIndex",
					"type": "uint256"
				}
			],
			"name": "closeListing",
			"outputs": [],
			"stateMutability": "nonpayable",
			"type": "function"
		},
		{
			"inputs": [],
			"name": "getCounter",
			"outputs": [
				{
					"internalType": "uint256",
					"name": "",
					"type": "uint256"
				}
			],
			"stateMutability": "view",
			"type": "function"
		},
		{
			"inputs": [
				{
					"internalType": "address",
					"name": "addr",
					"type": "address"
				}
			],
			"name": "getListing",
			"outputs": [
				{
					"internalType": "uint256[]",
					"name": "",
					"type": "uint256[]"
				}
			],
			"stateMutability": "view",
			"type": "function"
		},
		{
			"inputs": [
				{
					"internalType": "uint256",
					"name": "num",
					"type": "uint256"
				}
			],
			"name": "getListingInfo",
			"outputs": [
				{
					"components": [
						{
							"internalType": "address payable",
							"name": "poster",
							"type": "address"
						},
						{
							"internalType": "address",
							"name": "collectionAddr",
							"type": "address"
						},
						{
							"internalType": "uint256",
							"name": "tokenId",
							"type": "uint256"
						},
						{
							"internalType": "uint256",
							"name": "amount",
							"type": "uint256"
						},
						{
							"internalType": "uint256",
							"name": "duration",
							"type": "uint256"
						},
						{
							"internalType": "uint256",
							"name": "APR",
							"type": "uint256"
						},
						{
							"internalType": "bytes32",
							"name": "status",
							"type": "bytes32"
						}
					],
					"internalType": "struct Platform.ListingInfo",
					"name": "",
					"type": "tuple"
				}
			],
			"stateMutability": "view",
			"type": "function"
		},
		{
			"inputs": [
				{
					"components": [
						{
							"internalType": "address payable",
							"name": "poster",
							"type": "address"
						},
						{
							"internalType": "address",
							"name": "collectionAddr",
							"type": "address"
						},
						{
							"internalType": "uint256",
							"name": "tokenId",
							"type": "uint256"
						},
						{
							"internalType": "uint256",
							"name": "amount",
							"type": "uint256"
						},
						{
							"internalType": "uint256",
							"name": "duration",
							"type": "uint256"
						},
						{
							"internalType": "uint256",
							"name": "APR",
							"type": "uint256"
						},
						{
							"internalType": "bytes32",
							"name": "status",
							"type": "bytes32"
						}
					],
					"internalType": "struct Platform.ListingInfo",
					"name": "info",
					"type": "tuple"
				}
			],
			"name": "giveBackNFT",
			"outputs": [],
			"stateMutability": "nonpayable",
			"type": "function"
		},
		{
			"inputs": [
				{
					"internalType": "address",
					"name": "collectionAddr",
					"type": "address"
				}
			],
			"name": "isApprove",
			"outputs": [
				{
					"internalType": "bool",
					"name": "",
					"type": "bool"
				}
			],
			"stateMutability": "view",
			"type": "function"
		},
		{
			"inputs": [
				{
					"internalType": "uint256",
					"name": "listingIndex",
					"type": "uint256"
				}
			],
			"name": "isExpired",
			"outputs": [
				{
					"internalType": "uint256",
					"name": "",
					"type": "uint256"
				},
				{
					"internalType": "bool",
					"name": "",
					"type": "bool"
				}
			],
			"stateMutability": "view",
			"type": "function"
		},
		{
			"inputs": [
				{
					"internalType": "uint256",
					"name": "listingIndex",
					"type": "uint256"
				}
			],
			"name": "lendApproval",
			"outputs": [],
			"stateMutability": "nonpayable",
			"type": "function"
		},
		{
			"inputs": [
				{
					"internalType": "uint256",
					"name": "",
					"type": "uint256"
				}
			],
			"name": "listNum",
			"outputs": [
				{
					"internalType": "address payable",
					"name": "poster",
					"type": "address"
				},
				{
					"internalType": "address",
					"name": "collectionAddr",
					"type": "address"
				},
				{
					"internalType": "uint256",
					"name": "tokenId",
					"type": "uint256"
				},
				{
					"internalType": "uint256",
					"name": "amount",
					"type": "uint256"
				},
				{
					"internalType": "uint256",
					"name": "duration",
					"type": "uint256"
				},
				{
					"internalType": "uint256",
					"name": "APR",
					"type": "uint256"
				},
				{
					"internalType": "bytes32",
					"name": "status",
					"type": "bytes32"
				}
			],
			"stateMutability": "view",
			"type": "function"
		},
		{
			"inputs": [
				{
					"internalType": "address",
					"name": "collectionAddr",
					"type": "address"
				},
				{
					"internalType": "uint256",
					"name": "tokenId",
					"type": "uint256"
				},
				{
					"internalType": "uint256",
					"name": "amount",
					"type": "uint256"
				},
				{
					"internalType": "uint256",
					"name": "duration",
					"type": "uint256"
				},
				{
					"internalType": "uint256",
					"name": "APR",
					"type": "uint256"
				}
			],
			"name": "openListing",
			"outputs": [],
			"stateMutability": "nonpayable",
			"type": "function"
		},
		{
			"inputs": [
				{
					"internalType": "address",
					"name": "collectionAddr",
					"type": "address"
				},
				{
					"internalType": "uint256",
					"name": "tokenId",
					"type": "uint256"
				}
			],
			"name": "ownerOf",
			"outputs": [
				{
					"internalType": "address",
					"name": "",
					"type": "address"
				}
			],
			"stateMutability": "view",
			"type": "function"
		},
		{
			"inputs": [
				{
					"internalType": "uint256",
					"name": "listingIndex",
					"type": "uint256"
				}
			],
			"name": "repayLoan",
			"outputs": [],
			"stateMutability": "nonpayable",
			"type": "function"
		},
		{
			"inputs": [
				{
					"internalType": "uint256",
					"name": "listingIndex",
					"type": "uint256"
				}
			],
			"name": "updateTime",
			"outputs": [],
			"stateMutability": "nonpayable",
			"type": "function"
		}
	]
}