{
	"data": {
		"bytecode": {
			"linkReferences": {},
			"object": "608060405262278d00600455603c60055534801561001b575f80fd5b506115ce806100295f395ff3fe608060405234801561000f575f80fd5b50600436106100a7575f3560e01c8063880fe9411161006f578063880fe941146101735780638ada066e1461018f578063b9314135146101ad578063d9548e53146101dd578063e5a255cb1461020e578063eeabfc4a1461022a576100a7565b8063084af0b2146100ab578063172656d1146100db5780631f29d2dc146100f75780634f694690146101275780636c59bd0c14610157575b5f80fd5b6100c560048036038101906100c09190610cf1565b610260565b6040516100d29190610ddc565b60405180910390f35b6100f560048036038101906100f09190610e26565b6102f3565b005b610111600480360381019061010c9190610e51565b610417565b60405161011e9190610e9e565b60405180910390f35b610141600480360381019061013c9190610cf1565b610498565b60405161014e9190610ed1565b60405180910390f35b610171600480360381019061016c9190610e26565b61051a565b005b61018d60048036038101906101889190610eea565b610533565b005b6101976108f4565b6040516101a49190610f70565b60405180910390f35b6101c760048036038101906101c29190610e26565b6108fd565b6040516101d4919061105c565b60405180910390f35b6101f760048036038101906101f29190610e26565b610a02565b604051610205929190611075565b60405180910390f35b61022860048036038101906102239190610e26565b610a60565b005b610244600480360381019061023f9190610e26565b610bb3565b60405161025797969594939291906110ba565b60405180910390f35b606060015f8373ffffffffffffffffffffffffffffffffffffffff1673ffffffffffffffffffffffffffffffffffffffff1681526020019081526020015f208054806020026020016040519081016040528092919081815260200182805480156102e757602002820191905f5260205f20905b8154815260200190600101908083116102d3575b50505050509050919050565b5f6102fd826108fd565b905080606001513373ffffffffffffffffffffffffffffffffffffffff16311161035c576040517f08c379a0000000000000000000000000000000000000000000000000000000008152600401610353906111a7565b60405180910390fd5b805f015173ffffffffffffffffffffffffffffffffffffffff166108fc826060015190811502906040515f60405180830381858888f193505050501580156103a6573d5f803e3d5ffd5b507f6578637574696e670000000000000000000000000000000000000000000000008160c00181815250506103da8261051a565b7fcbe547358b7d8ceb07ae8baae08d35680e6c6c69046525b09dc9bb8f53f708fd338260405161040b9291906111c5565b60405180910390a15050565b5f8273ffffffffffffffffffffffffffffffffffffffff16636352211e836040518263ffffffff1660e01b81526004016104519190610f70565b602060405180830381865afa15801561046c573d5f803e3d5ffd5b505050506040513d601f19601f820116820180604052508101906104909190611201565b905092915050565b5f8173ffffffffffffffffffffffffffffffffffffffff1663e985e9c533306040518363ffffffff1660e01b81526004016104d492919061122c565b602060405180830381865afa1580156104ef573d5f803e3d5ffd5b505050506040513d601f19601f82011682018060405250810190610513919061127d565b9050919050565b4260025f8381526020019081526020015f208190555050565b5f8311801561054157505f82115b801561054c57505f81115b61058b576040517f08c379a0000000000000000000000000000000000000000000000000000000008152600401610582906112f2565b60405180910390fd5b3373ffffffffffffffffffffffffffffffffffffffff168573ffffffffffffffffffffffffffffffffffffffff16636352211e866040518263ffffffff1660e01b81526004016105db9190610f70565b602060405180830381865afa1580156105f6573d5f803e3d5ffd5b505050506040513d601f19601f8201168201806040525081019061061a9190611201565b73ffffffffffffffffffffffffffffffffffffffff1614610670576040517f08c379a00000000000000000000000000000000000000000000000000000000081526004016106679061135a565b60405180910390fd5b5f6040518060e001604052803373ffffffffffffffffffffffffffffffffffffffff1681526020018773ffffffffffffffffffffffffffffffffffffffff1681526020018681526020018581526020018481526020018381526020017f6f70656e000000000000000000000000000000000000000000000000000000008152509050805f8060035481526020019081526020015f205f820151815f015f6101000a81548173ffffffffffffffffffffffffffffffffffffffff021916908373ffffffffffffffffffffffffffffffffffffffff1602179055506020820151816001015f6101000a81548173ffffffffffffffffffffffffffffffffffffffff021916908373ffffffffffffffffffffffffffffffffffffffff16021790555060408201518160020155606082015181600301556080820151816004015560a0820151816005015560c0820151816006015590505060015f3373ffffffffffffffffffffffffffffffffffffffff1673ffffffffffffffffffffffffffffffffffffffff1681526020019081526020015f20600354908060018154018082558091505060019003905f5260205f20015f90919091909150558573ffffffffffffffffffffffffffffffffffffffff166323b872dd3330886040518463ffffffff1660e01b815260040161086493929190611378565b5f604051808303815f87803b15801561087b575f80fd5b505af115801561088d573d5f803e3d5ffd5b5050505061089c60035461051a565b60035f8154809291906108ae906113da565b91905055507ff767ad1ae2d5476327f80bef89fbc70354c993e3059ed3d504d127921f60c40b33826040516108e49291906111c5565b60405180910390a1505050505050565b5f600354905090565b610905610c2e565b5f808381526020019081526020015f206040518060e00160405290815f82015f9054906101000a900473ffffffffffffffffffffffffffffffffffffffff1673ffffffffffffffffffffffffffffffffffffffff1673ffffffffffffffffffffffffffffffffffffffff168152602001600182015f9054906101000a900473ffffffffffffffffffffffffffffffffffffffff1673ffffffffffffffffffffffffffffffffffffffff1673ffffffffffffffffffffffffffffffffffffffff168152602001600282015481526020016003820154815260200160048201548152602001600582015481526020016006820154815250509050919050565b5f805f610a0e846108fd565b90505f6005548260800151610a239190611421565b60025f8781526020019081526020015f2054610a3f9190611462565b90505f4282610a4e9190611495565b9050805f821094509450505050915091565b5f610a6a826108fd565b90503373ffffffffffffffffffffffffffffffffffffffff16815f015173ffffffffffffffffffffffffffffffffffffffff1614610add576040517f08c379a0000000000000000000000000000000000000000000000000000000008152600401610ad490611512565b60405180910390fd5b7f6f70656e000000000000000000000000000000000000000000000000000000008160c0015114610b43576040517f08c379a0000000000000000000000000000000000000000000000000000000008152600401610b3a9061157a565b60405180910390fd5b7f63616e63656c00000000000000000000000000000000000000000000000000008160c0018181525050610b768261051a565b7f7e885013ca94016b1452b4678f1c43c33cd914617b389322af7f7d97a2c4f5853382604051610ba79291906111c5565b60405180910390a15050565b5f602052805f5260405f205f91509050805f015f9054906101000a900473ffffffffffffffffffffffffffffffffffffffff1690806001015f9054906101000a900473ffffffffffffffffffffffffffffffffffffffff16908060020154908060030154908060040154908060050154908060060154905087565b6040518060e001604052805f73ffffffffffffffffffffffffffffffffffffffff1681526020015f73ffffffffffffffffffffffffffffffffffffffff1681526020015f81526020015f81526020015f81526020015f81526020015f80191681525090565b5f80fd5b5f73ffffffffffffffffffffffffffffffffffffffff82169050919050565b5f610cc082610c97565b9050919050565b610cd081610cb6565b8114610cda575f80fd5b50565b5f81359050610ceb81610cc7565b92915050565b5f60208284031215610d0657610d05610c93565b5b5f610d1384828501610cdd565b91505092915050565b5f81519050919050565b5f82825260208201905092915050565b5f819050602082019050919050565b5f819050919050565b610d5781610d45565b82525050565b5f610d688383610d4e565b60208301905092915050565b5f602082019050919050565b5f610d8a82610d1c565b610d948185610d26565b9350610d9f83610d36565b805f5b83811015610dcf578151610db68882610d5d565b9750610dc183610d74565b925050600181019050610da2565b5085935050505092915050565b5f6020820190508181035f830152610df48184610d80565b905092915050565b610e0581610d45565b8114610e0f575f80fd5b50565b5f81359050610e2081610dfc565b92915050565b5f60208284031215610e3b57610e3a610c93565b5b5f610e4884828501610e12565b91505092915050565b5f8060408385031215610e6757610e66610c93565b5b5f610e7485828601610cdd565b9250506020610e8585828601610e12565b9150509250929050565b610e9881610cb6565b82525050565b5f602082019050610eb15f830184610e8f565b92915050565b5f8115159050919050565b610ecb81610eb7565b82525050565b5f602082019050610ee45f830184610ec2565b92915050565b5f805f805f60a08688031215610f0357610f02610c93565b5b5f610f1088828901610cdd565b9550506020610f2188828901610e12565b9450506040610f3288828901610e12565b9350506060610f4388828901610e12565b9250506080610f5488828901610e12565b9150509295509295909350565b610f6a81610d45565b82525050565b5f602082019050610f835f830184610f61565b92915050565b5f610f9382610c97565b9050919050565b610fa381610f89565b82525050565b610fb281610cb6565b82525050565b5f819050919050565b610fca81610fb8565b82525050565b60e082015f820151610fe45f850182610f9a565b506020820151610ff76020850182610fa9565b50604082015161100a6040850182610d4e565b50606082015161101d6060850182610d4e565b5060808201516110306080850182610d4e565b5060a082015161104360a0850182610d4e565b5060c082015161105660c0850182610fc1565b50505050565b5f60e08201905061106f5f830184610fd0565b92915050565b5f6040820190506110885f830185610f61565b6110956020830184610ec2565b9392505050565b6110a581610f89565b82525050565b6110b481610fb8565b82525050565b5f60e0820190506110cd5f83018a61109c565b6110da6020830189610e8f565b6110e76040830188610f61565b6110f46060830187610f61565b6111016080830186610f61565b61110e60a0830185610f61565b61111b60c08301846110ab565b98975050505050505050565b5f82825260208201905092915050565b7f596f7520686176656e277420656e6f7567682062616c616e636520666f72206c5f8201527f656e64696e670000000000000000000000000000000000000000000000000000602082015250565b5f611191602683611127565b915061119c82611137565b604082019050919050565b5f6020820190508181035f8301526111be81611185565b9050919050565b5f610100820190506111d95f830185610e8f565b6111e66020830184610fd0565b9392505050565b5f815190506111fb81610cc7565b92915050565b5f6020828403121561121657611215610c93565b5b5f611223848285016111ed565b91505092915050565b5f60408201905061123f5f830185610e8f565b61124c6020830184610e8f565b9392505050565b61125c81610eb7565b8114611266575f80fd5b50565b5f8151905061127781611253565b92915050565b5f6020828403121561129257611291610c93565b5b5f61129f84828501611269565b91505092915050565b7f56616c756573206d7573742062652067726561746572207468616e207a65726f5f82015250565b5f6112dc602083611127565b91506112e7826112a8565b602082019050919050565b5f6020820190508181035f830152611309816112d0565b9050919050565b7f596f7520617265206e6f7420686f6c646572206f66207468697320746f6b656e5f82015250565b5f611344602083611127565b915061134f82611310565b602082019050919050565b5f6020820190508181035f83015261137181611338565b9050919050565b5f60608201905061138b5f830186610e8f565b6113986020830185610e8f565b6113a56040830184610f61565b949350505050565b7f4e487b71000000000000000000000000000000000000000000000000000000005f52601160045260245ffd5b5f6113e482610d45565b91507fffffffffffffffffffffffffffffffffffffffffffffffffffffffffffffffff8203611416576114156113ad565b5b600182019050919050565b5f61142b82610d45565b915061143683610d45565b925082820261144481610d45565b9150828204841483151761145b5761145a6113ad565b5b5092915050565b5f61146c82610d45565b915061147783610d45565b925082820190508082111561148f5761148e6113ad565b5b92915050565b5f61149f82610d45565b91506114aa83610d45565b92508282039050818111156114c2576114c16113ad565b5b92915050565b7f596f7520617265206e6f7420706f73746572206f6620746865206c69737400005f82015250565b5f6114fc601e83611127565b9150611507826114c8565b602082019050919050565b5f6020820190508181035f830152611529816114f0565b9050919050565b7f4e6f74206f70656e696e67206c697374000000000000000000000000000000005f82015250565b5f611564601083611127565b915061156f82611530565b602082019050919050565b5f6020820190508181035f83015261159181611558565b905091905056fea26469706673582212209f0474eb8e8204e619de329cce0b0462f5df3bafe4531ddc4a6c135409ed904a64736f6c63430008170033",
			"opcodes": "PUSH1 0x80 PUSH1 0x40 MSTORE PUSH3 0x278D00 PUSH1 0x4 SSTORE PUSH1 0x3C PUSH1 0x5 SSTORE CALLVALUE DUP1 ISZERO PUSH2 0x1B JUMPI PUSH0 DUP1 REVERT JUMPDEST POP PUSH2 0x15CE DUP1 PUSH2 0x29 PUSH0 CODECOPY PUSH0 RETURN INVALID PUSH1 0x80 PUSH1 0x40 MSTORE CALLVALUE DUP1 ISZERO PUSH2 0xF JUMPI PUSH0 DUP1 REVERT JUMPDEST POP PUSH1 0x4 CALLDATASIZE LT PUSH2 0xA7 JUMPI PUSH0 CALLDATALOAD PUSH1 0xE0 SHR DUP1 PUSH4 0x880FE941 GT PUSH2 0x6F JUMPI DUP1 PUSH4 0x880FE941 EQ PUSH2 0x173 JUMPI DUP1 PUSH4 0x8ADA066E EQ PUSH2 0x18F JUMPI DUP1 PUSH4 0xB9314135 EQ PUSH2 0x1AD JUMPI DUP1 PUSH4 0xD9548E53 EQ PUSH2 0x1DD JUMPI DUP1 PUSH4 0xE5A255CB EQ PUSH2 0x20E JUMPI DUP1 PUSH4 0xEEABFC4A EQ PUSH2 0x22A JUMPI PUSH2 0xA7 JUMP JUMPDEST DUP1 PUSH4 0x84AF0B2 EQ PUSH2 0xAB JUMPI DUP1 PUSH4 0x172656D1 EQ PUSH2 0xDB JUMPI DUP1 PUSH4 0x1F29D2DC EQ PUSH2 0xF7 JUMPI DUP1 PUSH4 0x4F694690 EQ PUSH2 0x127 JUMPI DUP1 PUSH4 0x6C59BD0C EQ PUSH2 0x157 JUMPI JUMPDEST PUSH0 DUP1 REVERT JUMPDEST PUSH2 0xC5 PUSH1 0x4 DUP1 CALLDATASIZE SUB DUP2 ADD SWAP1 PUSH2 0xC0 SWAP2 SWAP1 PUSH2 0xCF1 JUMP JUMPDEST PUSH2 0x260 JUMP JUMPDEST PUSH1 0x40 MLOAD PUSH2 0xD2 SWAP2 SWAP1 PUSH2 0xDDC JUMP JUMPDEST PUSH1 0x40 MLOAD DUP1 SWAP2 SUB SWAP1 RETURN JUMPDEST PUSH2 0xF5 PUSH1 0x4 DUP1 CALLDATASIZE SUB DUP2 ADD SWAP1 PUSH2 0xF0 SWAP2 SWAP1 PUSH2 0xE26 JUMP JUMPDEST PUSH2 0x2F3 JUMP JUMPDEST STOP JUMPDEST PUSH2 0x111 PUSH1 0x4 DUP1 CALLDATASIZE SUB DUP2 ADD SWAP1 PUSH2 0x10C SWAP2 SWAP1 PUSH2 0xE51 JUMP JUMPDEST PUSH2 0x417 JUMP JUMPDEST PUSH1 0x40 MLOAD PUSH2 0x11E SWAP2 SWAP1 PUSH2 0xE9E JUMP JUMPDEST PUSH1 0x40 MLOAD DUP1 SWAP2 SUB SWAP1 RETURN JUMPDEST PUSH2 0x141 PUSH1 0x4 DUP1 CALLDATASIZE SUB DUP2 ADD SWAP1 PUSH2 0x13C SWAP2 SWAP1 PUSH2 0xCF1 JUMP JUMPDEST PUSH2 0x498 JUMP JUMPDEST PUSH1 0x40 MLOAD PUSH2 0x14E SWAP2 SWAP1 PUSH2 0xED1 JUMP JUMPDEST PUSH1 0x40 MLOAD DUP1 SWAP2 SUB SWAP1 RETURN JUMPDEST PUSH2 0x171 PUSH1 0x4 DUP1 CALLDATASIZE SUB DUP2 ADD SWAP1 PUSH2 0x16C SWAP2 SWAP1 PUSH2 0xE26 JUMP JUMPDEST PUSH2 0x51A JUMP JUMPDEST STOP JUMPDEST PUSH2 0x18D PUSH1 0x4 DUP1 CALLDATASIZE SUB DUP2 ADD SWAP1 PUSH2 0x188 SWAP2 SWAP1 PUSH2 0xEEA JUMP JUMPDEST PUSH2 0x533 JUMP JUMPDEST STOP JUMPDEST PUSH2 0x197 PUSH2 0x8F4 JUMP JUMPDEST PUSH1 0x40 MLOAD PUSH2 0x1A4 SWAP2 SWAP1 PUSH2 0xF70 JUMP JUMPDEST PUSH1 0x40 MLOAD DUP1 SWAP2 SUB SWAP1 RETURN JUMPDEST PUSH2 0x1C7 PUSH1 0x4 DUP1 CALLDATASIZE SUB DUP2 ADD SWAP1 PUSH2 0x1C2 SWAP2 SWAP1 PUSH2 0xE26 JUMP JUMPDEST PUSH2 0x8FD JUMP JUMPDEST PUSH1 0x40 MLOAD PUSH2 0x1D4 SWAP2 SWAP1 PUSH2 0x105C JUMP JUMPDEST PUSH1 0x40 MLOAD DUP1 SWAP2 SUB SWAP1 RETURN JUMPDEST PUSH2 0x1F7 PUSH1 0x4 DUP1 CALLDATASIZE SUB DUP2 ADD SWAP1 PUSH2 0x1F2 SWAP2 SWAP1 PUSH2 0xE26 JUMP JUMPDEST PUSH2 0xA02 JUMP JUMPDEST PUSH1 0x40 MLOAD PUSH2 0x205 SWAP3 SWAP2 SWAP1 PUSH2 0x1075 JUMP JUMPDEST PUSH1 0x40 MLOAD DUP1 SWAP2 SUB SWAP1 RETURN JUMPDEST PUSH2 0x228 PUSH1 0x4 DUP1 CALLDATASIZE SUB DUP2 ADD SWAP1 PUSH2 0x223 SWAP2 SWAP1 PUSH2 0xE26 JUMP JUMPDEST PUSH2 0xA60 JUMP JUMPDEST STOP JUMPDEST PUSH2 0x244 PUSH1 0x4 DUP1 CALLDATASIZE SUB DUP2 ADD SWAP1 PUSH2 0x23F SWAP2 SWAP1 PUSH2 0xE26 JUMP JUMPDEST PUSH2 0xBB3 JUMP JUMPDEST PUSH1 0x40 MLOAD PUSH2 0x257 SWAP8 SWAP7 SWAP6 SWAP5 SWAP4 SWAP3 SWAP2 SWAP1 PUSH2 0x10BA JUMP JUMPDEST PUSH1 0x40 MLOAD DUP1 SWAP2 SUB SWAP1 RETURN JUMPDEST PUSH1 0x60 PUSH1 0x1 PUSH0 DUP4 PUSH20 0xFFFFFFFFFFFFFFFFFFFFFFFFFFFFFFFFFFFFFFFF AND PUSH20 0xFFFFFFFFFFFFFFFFFFFFFFFFFFFFFFFFFFFFFFFF AND DUP2 MSTORE PUSH1 0x20 ADD SWAP1 DUP2 MSTORE PUSH1 0x20 ADD PUSH0 KECCAK256 DUP1 SLOAD DUP1 PUSH1 0x20 MUL PUSH1 0x20 ADD PUSH1 0x40 MLOAD SWAP1 DUP2 ADD PUSH1 0x40 MSTORE DUP1 SWAP3 SWAP2 SWAP1 DUP2 DUP2 MSTORE PUSH1 0x20 ADD DUP3 DUP1 SLOAD DUP1 ISZERO PUSH2 0x2E7 JUMPI PUSH1 0x20 MUL DUP3 ADD SWAP2 SWAP1 PUSH0 MSTORE PUSH1 0x20 PUSH0 KECCAK256 SWAP1 JUMPDEST DUP2 SLOAD DUP2 MSTORE PUSH1 0x20 ADD SWAP1 PUSH1 0x1 ADD SWAP1 DUP1 DUP4 GT PUSH2 0x2D3 JUMPI JUMPDEST POP POP POP POP POP SWAP1 POP SWAP2 SWAP1 POP JUMP JUMPDEST PUSH0 PUSH2 0x2FD DUP3 PUSH2 0x8FD JUMP JUMPDEST SWAP1 POP DUP1 PUSH1 0x60 ADD MLOAD CALLER PUSH20 0xFFFFFFFFFFFFFFFFFFFFFFFFFFFFFFFFFFFFFFFF AND BALANCE GT PUSH2 0x35C JUMPI PUSH1 0x40 MLOAD PUSH32 0x8C379A000000000000000000000000000000000000000000000000000000000 DUP2 MSTORE PUSH1 0x4 ADD PUSH2 0x353 SWAP1 PUSH2 0x11A7 JUMP JUMPDEST PUSH1 0x40 MLOAD DUP1 SWAP2 SUB SWAP1 REVERT JUMPDEST DUP1 PUSH0 ADD MLOAD PUSH20 0xFFFFFFFFFFFFFFFFFFFFFFFFFFFFFFFFFFFFFFFF AND PUSH2 0x8FC DUP3 PUSH1 0x60 ADD MLOAD SWAP1 DUP2 ISZERO MUL SWAP1 PUSH1 0x40 MLOAD PUSH0 PUSH1 0x40 MLOAD DUP1 DUP4 SUB DUP2 DUP6 DUP9 DUP9 CALL SWAP4 POP POP POP POP ISZERO DUP1 ISZERO PUSH2 0x3A6 JUMPI RETURNDATASIZE PUSH0 DUP1 RETURNDATACOPY RETURNDATASIZE PUSH0 REVERT JUMPDEST POP PUSH32 0x6578637574696E67000000000000000000000000000000000000000000000000 DUP2 PUSH1 0xC0 ADD DUP2 DUP2 MSTORE POP POP PUSH2 0x3DA DUP3 PUSH2 0x51A JUMP JUMPDEST PUSH32 0xCBE547358B7D8CEB07AE8BAAE08D35680E6C6C69046525B09DC9BB8F53F708FD CALLER DUP3 PUSH1 0x40 MLOAD PUSH2 0x40B SWAP3 SWAP2 SWAP1 PUSH2 0x11C5 JUMP JUMPDEST PUSH1 0x40 MLOAD DUP1 SWAP2 SUB SWAP1 LOG1 POP POP JUMP JUMPDEST PUSH0 DUP3 PUSH20 0xFFFFFFFFFFFFFFFFFFFFFFFFFFFFFFFFFFFFFFFF AND PUSH4 0x6352211E DUP4 PUSH1 0x40 MLOAD DUP3 PUSH4 0xFFFFFFFF AND PUSH1 0xE0 SHL DUP2 MSTORE PUSH1 0x4 ADD PUSH2 0x451 SWAP2 SWAP1 PUSH2 0xF70 JUMP JUMPDEST PUSH1 0x20 PUSH1 0x40 MLOAD DUP1 DUP4 SUB DUP2 DUP7 GAS STATICCALL ISZERO DUP1 ISZERO PUSH2 0x46C JUMPI RETURNDATASIZE PUSH0 DUP1 RETURNDATACOPY RETURNDATASIZE PUSH0 REVERT JUMPDEST POP POP POP POP PUSH1 0x40 MLOAD RETURNDATASIZE PUSH1 0x1F NOT PUSH1 0x1F DUP3 ADD AND DUP3 ADD DUP1 PUSH1 0x40 MSTORE POP DUP2 ADD SWAP1 PUSH2 0x490 SWAP2 SWAP1 PUSH2 0x1201 JUMP JUMPDEST SWAP1 POP SWAP3 SWAP2 POP POP JUMP JUMPDEST PUSH0 DUP2 PUSH20 0xFFFFFFFFFFFFFFFFFFFFFFFFFFFFFFFFFFFFFFFF AND PUSH4 0xE985E9C5 CALLER ADDRESS PUSH1 0x40 MLOAD DUP4 PUSH4 0xFFFFFFFF AND PUSH1 0xE0 SHL DUP2 MSTORE PUSH1 0x4 ADD PUSH2 0x4D4 SWAP3 SWAP2 SWAP1 PUSH2 0x122C JUMP JUMPDEST PUSH1 0x20 PUSH1 0x40 MLOAD DUP1 DUP4 SUB DUP2 DUP7 GAS STATICCALL ISZERO DUP1 ISZERO PUSH2 0x4EF JUMPI RETURNDATASIZE PUSH0 DUP1 RETURNDATACOPY RETURNDATASIZE PUSH0 REVERT JUMPDEST POP POP POP POP PUSH1 0x40 MLOAD RETURNDATASIZE PUSH1 0x1F NOT PUSH1 0x1F DUP3 ADD AND DUP3 ADD DUP1 PUSH1 0x40 MSTORE POP DUP2 ADD SWAP1 PUSH2 0x513 SWAP2 SWAP1 PUSH2 0x127D JUMP JUMPDEST SWAP1 POP SWAP2 SWAP1 POP JUMP JUMPDEST TIMESTAMP PUSH1 0x2 PUSH0 DUP4 DUP2 MSTORE PUSH1 0x20 ADD SWAP1 DUP2 MSTORE PUSH1 0x20 ADD PUSH0 KECCAK256 DUP2 SWAP1 SSTORE POP POP JUMP JUMPDEST PUSH0 DUP4 GT DUP1 ISZERO PUSH2 0x541 JUMPI POP PUSH0 DUP3 GT JUMPDEST DUP1 ISZERO PUSH2 0x54C JUMPI POP PUSH0 DUP2 GT JUMPDEST PUSH2 0x58B JUMPI PUSH1 0x40 MLOAD PUSH32 0x8C379A000000000000000000000000000000000000000000000000000000000 DUP2 MSTORE PUSH1 0x4 ADD PUSH2 0x582 SWAP1 PUSH2 0x12F2 JUMP JUMPDEST PUSH1 0x40 MLOAD DUP1 SWAP2 SUB SWAP1 REVERT JUMPDEST CALLER PUSH20 0xFFFFFFFFFFFFFFFFFFFFFFFFFFFFFFFFFFFFFFFF AND DUP6 PUSH20 0xFFFFFFFFFFFFFFFFFFFFFFFFFFFFFFFFFFFFFFFF AND PUSH4 0x6352211E DUP7 PUSH1 0x40 MLOAD DUP3 PUSH4 0xFFFFFFFF AND PUSH1 0xE0 SHL DUP2 MSTORE PUSH1 0x4 ADD PUSH2 0x5DB SWAP2 SWAP1 PUSH2 0xF70 JUMP JUMPDEST PUSH1 0x20 PUSH1 0x40 MLOAD DUP1 DUP4 SUB DUP2 DUP7 GAS STATICCALL ISZERO DUP1 ISZERO PUSH2 0x5F6 JUMPI RETURNDATASIZE PUSH0 DUP1 RETURNDATACOPY RETURNDATASIZE PUSH0 REVERT JUMPDEST POP POP POP POP PUSH1 0x40 MLOAD RETURNDATASIZE PUSH1 0x1F NOT PUSH1 0x1F DUP3 ADD AND DUP3 ADD DUP1 PUSH1 0x40 MSTORE POP DUP2 ADD SWAP1 PUSH2 0x61A SWAP2 SWAP1 PUSH2 0x1201 JUMP JUMPDEST PUSH20 0xFFFFFFFFFFFFFFFFFFFFFFFFFFFFFFFFFFFFFFFF AND EQ PUSH2 0x670 JUMPI PUSH1 0x40 MLOAD PUSH32 0x8C379A000000000000000000000000000000000000000000000000000000000 DUP2 MSTORE PUSH1 0x4 ADD PUSH2 0x667 SWAP1 PUSH2 0x135A JUMP JUMPDEST PUSH1 0x40 MLOAD DUP1 SWAP2 SUB SWAP1 REVERT JUMPDEST PUSH0 PUSH1 0x40 MLOAD DUP1 PUSH1 0xE0 ADD PUSH1 0x40 MSTORE DUP1 CALLER PUSH20 0xFFFFFFFFFFFFFFFFFFFFFFFFFFFFFFFFFFFFFFFF AND DUP2 MSTORE PUSH1 0x20 ADD DUP8 PUSH20 0xFFFFFFFFFFFFFFFFFFFFFFFFFFFFFFFFFFFFFFFF AND DUP2 MSTORE PUSH1 0x20 ADD DUP7 DUP2 MSTORE PUSH1 0x20 ADD DUP6 DUP2 MSTORE PUSH1 0x20 ADD DUP5 DUP2 MSTORE PUSH1 0x20 ADD DUP4 DUP2 MSTORE PUSH1 0x20 ADD PUSH32 0x6F70656E00000000000000000000000000000000000000000000000000000000 DUP2 MSTORE POP SWAP1 POP DUP1 PUSH0 DUP1 PUSH1 0x3 SLOAD DUP2 MSTORE PUSH1 0x20 ADD SWAP1 DUP2 MSTORE PUSH1 0x20 ADD PUSH0 KECCAK256 PUSH0 DUP3 ADD MLOAD DUP2 PUSH0 ADD PUSH0 PUSH2 0x100 EXP DUP2 SLOAD DUP2 PUSH20 0xFFFFFFFFFFFFFFFFFFFFFFFFFFFFFFFFFFFFFFFF MUL NOT AND SWAP1 DUP4 PUSH20 0xFFFFFFFFFFFFFFFFFFFFFFFFFFFFFFFFFFFFFFFF AND MUL OR SWAP1 SSTORE POP PUSH1 0x20 DUP3 ADD MLOAD DUP2 PUSH1 0x1 ADD PUSH0 PUSH2 0x100 EXP DUP2 SLOAD DUP2 PUSH20 0xFFFFFFFFFFFFFFFFFFFFFFFFFFFFFFFFFFFFFFFF MUL NOT AND SWAP1 DUP4 PUSH20 0xFFFFFFFFFFFFFFFFFFFFFFFFFFFFFFFFFFFFFFFF AND MUL OR SWAP1 SSTORE POP PUSH1 0x40 DUP3 ADD MLOAD DUP2 PUSH1 0x2 ADD SSTORE PUSH1 0x60 DUP3 ADD MLOAD DUP2 PUSH1 0x3 ADD SSTORE PUSH1 0x80 DUP3 ADD MLOAD DUP2 PUSH1 0x4 ADD SSTORE PUSH1 0xA0 DUP3 ADD MLOAD DUP2 PUSH1 0x5 ADD SSTORE PUSH1 0xC0 DUP3 ADD MLOAD DUP2 PUSH1 0x6 ADD SSTORE SWAP1 POP POP PUSH1 0x1 PUSH0 CALLER PUSH20 0xFFFFFFFFFFFFFFFFFFFFFFFFFFFFFFFFFFFFFFFF AND PUSH20 0xFFFFFFFFFFFFFFFFFFFFFFFFFFFFFFFFFFFFFFFF AND DUP2 MSTORE PUSH1 0x20 ADD SWAP1 DUP2 MSTORE PUSH1 0x20 ADD PUSH0 KECCAK256 PUSH1 0x3 SLOAD SWAP1 DUP1 PUSH1 0x1 DUP2 SLOAD ADD DUP1 DUP3 SSTORE DUP1 SWAP2 POP POP PUSH1 0x1 SWAP1 SUB SWAP1 PUSH0 MSTORE PUSH1 0x20 PUSH0 KECCAK256 ADD PUSH0 SWAP1 SWAP2 SWAP1 SWAP2 SWAP1 SWAP2 POP SSTORE DUP6 PUSH20 0xFFFFFFFFFFFFFFFFFFFFFFFFFFFFFFFFFFFFFFFF AND PUSH4 0x23B872DD CALLER ADDRESS DUP9 PUSH1 0x40 MLOAD DUP5 PUSH4 0xFFFFFFFF AND PUSH1 0xE0 SHL DUP2 MSTORE PUSH1 0x4 ADD PUSH2 0x864 SWAP4 SWAP3 SWAP2 SWAP1 PUSH2 0x1378 JUMP JUMPDEST PUSH0 PUSH1 0x40 MLOAD DUP1 DUP4 SUB DUP2 PUSH0 DUP8 DUP1 EXTCODESIZE ISZERO DUP1 ISZERO PUSH2 0x87B JUMPI PUSH0 DUP1 REVERT JUMPDEST POP GAS CALL ISZERO DUP1 ISZERO PUSH2 0x88D JUMPI RETURNDATASIZE PUSH0 DUP1 RETURNDATACOPY RETURNDATASIZE PUSH0 REVERT JUMPDEST POP POP POP POP PUSH2 0x89C PUSH1 0x3 SLOAD PUSH2 0x51A JUMP JUMPDEST PUSH1 0x3 PUSH0 DUP2 SLOAD DUP1 SWAP3 SWAP2 SWAP1 PUSH2 0x8AE SWAP1 PUSH2 0x13DA JUMP JUMPDEST SWAP2 SWAP1 POP SSTORE POP PUSH32 0xF767AD1AE2D5476327F80BEF89FBC70354C993E3059ED3D504D127921F60C40B CALLER DUP3 PUSH1 0x40 MLOAD PUSH2 0x8E4 SWAP3 SWAP2 SWAP1 PUSH2 0x11C5 JUMP JUMPDEST PUSH1 0x40 MLOAD DUP1 SWAP2 SUB SWAP1 LOG1 POP POP POP POP POP POP JUMP JUMPDEST PUSH0 PUSH1 0x3 SLOAD SWAP1 POP SWAP1 JUMP JUMPDEST PUSH2 0x905 PUSH2 0xC2E JUMP JUMPDEST PUSH0 DUP1 DUP4 DUP2 MSTORE PUSH1 0x20 ADD SWAP1 DUP2 MSTORE PUSH1 0x20 ADD PUSH0 KECCAK256 PUSH1 0x40 MLOAD DUP1 PUSH1 0xE0 ADD PUSH1 0x40 MSTORE SWAP1 DUP2 PUSH0 DUP3 ADD PUSH0 SWAP1 SLOAD SWAP1 PUSH2 0x100 EXP SWAP1 DIV PUSH20 0xFFFFFFFFFFFFFFFFFFFFFFFFFFFFFFFFFFFFFFFF AND PUSH20 0xFFFFFFFFFFFFFFFFFFFFFFFFFFFFFFFFFFFFFFFF AND PUSH20 0xFFFFFFFFFFFFFFFFFFFFFFFFFFFFFFFFFFFFFFFF AND DUP2 MSTORE PUSH1 0x20 ADD PUSH1 0x1 DUP3 ADD PUSH0 SWAP1 SLOAD SWAP1 PUSH2 0x100 EXP SWAP1 DIV PUSH20 0xFFFFFFFFFFFFFFFFFFFFFFFFFFFFFFFFFFFFFFFF AND PUSH20 0xFFFFFFFFFFFFFFFFFFFFFFFFFFFFFFFFFFFFFFFF AND PUSH20 0xFFFFFFFFFFFFFFFFFFFFFFFFFFFFFFFFFFFFFFFF AND DUP2 MSTORE PUSH1 0x20 ADD PUSH1 0x2 DUP3 ADD SLOAD DUP2 MSTORE PUSH1 0x20 ADD PUSH1 0x3 DUP3 ADD SLOAD DUP2 MSTORE PUSH1 0x20 ADD PUSH1 0x4 DUP3 ADD SLOAD DUP2 MSTORE PUSH1 0x20 ADD PUSH1 0x5 DUP3 ADD SLOAD DUP2 MSTORE PUSH1 0x20 ADD PUSH1 0x6 DUP3 ADD SLOAD DUP2 MSTORE POP POP SWAP1 POP SWAP2 SWAP1 POP JUMP JUMPDEST PUSH0 DUP1 PUSH0 PUSH2 0xA0E DUP5 PUSH2 0x8FD JUMP JUMPDEST SWAP1 POP PUSH0 PUSH1 0x5 SLOAD DUP3 PUSH1 0x80 ADD MLOAD PUSH2 0xA23 SWAP2 SWAP1 PUSH2 0x1421 JUMP JUMPDEST PUSH1 0x2 PUSH0 DUP8 DUP2 MSTORE PUSH1 0x20 ADD SWAP1 DUP2 MSTORE PUSH1 0x20 ADD PUSH0 KECCAK256 SLOAD PUSH2 0xA3F SWAP2 SWAP1 PUSH2 0x1462 JUMP JUMPDEST SWAP1 POP PUSH0 TIMESTAMP DUP3 PUSH2 0xA4E SWAP2 SWAP1 PUSH2 0x1495 JUMP JUMPDEST SWAP1 POP DUP1 PUSH0 DUP3 LT SWAP5 POP SWAP5 POP POP POP POP SWAP2 POP SWAP2 JUMP JUMPDEST PUSH0 PUSH2 0xA6A DUP3 PUSH2 0x8FD JUMP JUMPDEST SWAP1 POP CALLER PUSH20 0xFFFFFFFFFFFFFFFFFFFFFFFFFFFFFFFFFFFFFFFF AND DUP2 PUSH0 ADD MLOAD PUSH20 0xFFFFFFFFFFFFFFFFFFFFFFFFFFFFFFFFFFFFFFFF AND EQ PUSH2 0xADD JUMPI PUSH1 0x40 MLOAD PUSH32 0x8C379A000000000000000000000000000000000000000000000000000000000 DUP2 MSTORE PUSH1 0x4 ADD PUSH2 0xAD4 SWAP1 PUSH2 0x1512 JUMP JUMPDEST PUSH1 0x40 MLOAD DUP1 SWAP2 SUB SWAP1 REVERT JUMPDEST PUSH32 0x6F70656E00000000000000000000000000000000000000000000000000000000 DUP2 PUSH1 0xC0 ADD MLOAD EQ PUSH2 0xB43 JUMPI PUSH1 0x40 MLOAD PUSH32 0x8C379A000000000000000000000000000000000000000000000000000000000 DUP2 MSTORE PUSH1 0x4 ADD PUSH2 0xB3A SWAP1 PUSH2 0x157A JUMP JUMPDEST PUSH1 0x40 MLOAD DUP1 SWAP2 SUB SWAP1 REVERT JUMPDEST PUSH32 0x63616E63656C0000000000000000000000000000000000000000000000000000 DUP2 PUSH1 0xC0 ADD DUP2 DUP2 MSTORE POP POP PUSH2 0xB76 DUP3 PUSH2 0x51A JUMP JUMPDEST PUSH32 0x7E885013CA94016B1452B4678F1C43C33CD914617B389322AF7F7D97A2C4F585 CALLER DUP3 PUSH1 0x40 MLOAD PUSH2 0xBA7 SWAP3 SWAP2 SWAP1 PUSH2 0x11C5 JUMP JUMPDEST PUSH1 0x40 MLOAD DUP1 SWAP2 SUB SWAP1 LOG1 POP POP JUMP JUMPDEST PUSH0 PUSH1 0x20 MSTORE DUP1 PUSH0 MSTORE PUSH1 0x40 PUSH0 KECCAK256 PUSH0 SWAP2 POP SWAP1 POP DUP1 PUSH0 ADD PUSH0 SWAP1 SLOAD SWAP1 PUSH2 0x100 EXP SWAP1 DIV PUSH20 0xFFFFFFFFFFFFFFFFFFFFFFFFFFFFFFFFFFFFFFFF AND SWAP1 DUP1 PUSH1 0x1 ADD PUSH0 SWAP1 SLOAD SWAP1 PUSH2 0x100 EXP SWAP1 DIV PUSH20 0xFFFFFFFFFFFFFFFFFFFFFFFFFFFFFFFFFFFFFFFF AND SWAP1 DUP1 PUSH1 0x2 ADD SLOAD SWAP1 DUP1 PUSH1 0x3 ADD SLOAD SWAP1 DUP1 PUSH1 0x4 ADD SLOAD SWAP1 DUP1 PUSH1 0x5 ADD SLOAD SWAP1 DUP1 PUSH1 0x6 ADD SLOAD SWAP1 POP DUP8 JUMP JUMPDEST PUSH1 0x40 MLOAD DUP1 PUSH1 0xE0 ADD PUSH1 0x40 MSTORE DUP1 PUSH0 PUSH20 0xFFFFFFFFFFFFFFFFFFFFFFFFFFFFFFFFFFFFFFFF AND DUP2 MSTORE PUSH1 0x20 ADD PUSH0 PUSH20 0xFFFFFFFFFFFFFFFFFFFFFFFFFFFFFFFFFFFFFFFF AND DUP2 MSTORE PUSH1 0x20 ADD PUSH0 DUP2 MSTORE PUSH1 0x20 ADD PUSH0 DUP2 MSTORE PUSH1 0x20 ADD PUSH0 DUP2 MSTORE PUSH1 0x20 ADD PUSH0 DUP2 MSTORE PUSH1 0x20 ADD PUSH0 DUP1 NOT AND DUP2 MSTORE POP SWAP1 JUMP JUMPDEST PUSH0 DUP1 REVERT JUMPDEST PUSH0 PUSH20 0xFFFFFFFFFFFFFFFFFFFFFFFFFFFFFFFFFFFFFFFF DUP3 AND SWAP1 POP SWAP2 SWAP1 POP JUMP JUMPDEST PUSH0 PUSH2 0xCC0 DUP3 PUSH2 0xC97 JUMP JUMPDEST SWAP1 POP SWAP2 SWAP1 POP JUMP JUMPDEST PUSH2 0xCD0 DUP2 PUSH2 0xCB6 JUMP JUMPDEST DUP2 EQ PUSH2 0xCDA JUMPI PUSH0 DUP1 REVERT JUMPDEST POP JUMP JUMPDEST PUSH0 DUP2 CALLDATALOAD SWAP1 POP PUSH2 0xCEB DUP2 PUSH2 0xCC7 JUMP JUMPDEST SWAP3 SWAP2 POP POP JUMP JUMPDEST PUSH0 PUSH1 0x20 DUP3 DUP5 SUB SLT ISZERO PUSH2 0xD06 JUMPI PUSH2 0xD05 PUSH2 0xC93 JUMP JUMPDEST JUMPDEST PUSH0 PUSH2 0xD13 DUP5 DUP3 DUP6 ADD PUSH2 0xCDD JUMP JUMPDEST SWAP2 POP POP SWAP3 SWAP2 POP POP JUMP JUMPDEST PUSH0 DUP2 MLOAD SWAP1 POP SWAP2 SWAP1 POP JUMP JUMPDEST PUSH0 DUP3 DUP3 MSTORE PUSH1 0x20 DUP3 ADD SWAP1 POP SWAP3 SWAP2 POP POP JUMP JUMPDEST PUSH0 DUP2 SWAP1 POP PUSH1 0x20 DUP3 ADD SWAP1 POP SWAP2 SWAP1 POP JUMP JUMPDEST PUSH0 DUP2 SWAP1 POP SWAP2 SWAP1 POP JUMP JUMPDEST PUSH2 0xD57 DUP2 PUSH2 0xD45 JUMP JUMPDEST DUP3 MSTORE POP POP JUMP JUMPDEST PUSH0 PUSH2 0xD68 DUP4 DUP4 PUSH2 0xD4E JUMP JUMPDEST PUSH1 0x20 DUP4 ADD SWAP1 POP SWAP3 SWAP2 POP POP JUMP JUMPDEST PUSH0 PUSH1 0x20 DUP3 ADD SWAP1 POP SWAP2 SWAP1 POP JUMP JUMPDEST PUSH0 PUSH2 0xD8A DUP3 PUSH2 0xD1C JUMP JUMPDEST PUSH2 0xD94 DUP2 DUP6 PUSH2 0xD26 JUMP JUMPDEST SWAP4 POP PUSH2 0xD9F DUP4 PUSH2 0xD36 JUMP JUMPDEST DUP1 PUSH0 JUMPDEST DUP4 DUP2 LT ISZERO PUSH2 0xDCF JUMPI DUP2 MLOAD PUSH2 0xDB6 DUP9 DUP3 PUSH2 0xD5D JUMP JUMPDEST SWAP8 POP PUSH2 0xDC1 DUP4 PUSH2 0xD74 JUMP JUMPDEST SWAP3 POP POP PUSH1 0x1 DUP2 ADD SWAP1 POP PUSH2 0xDA2 JUMP JUMPDEST POP DUP6 SWAP4 POP POP POP POP SWAP3 SWAP2 POP POP JUMP JUMPDEST PUSH0 PUSH1 0x20 DUP3 ADD SWAP1 POP DUP2 DUP2 SUB PUSH0 DUP4 ADD MSTORE PUSH2 0xDF4 DUP2 DUP5 PUSH2 0xD80 JUMP JUMPDEST SWAP1 POP SWAP3 SWAP2 POP POP JUMP JUMPDEST PUSH2 0xE05 DUP2 PUSH2 0xD45 JUMP JUMPDEST DUP2 EQ PUSH2 0xE0F JUMPI PUSH0 DUP1 REVERT JUMPDEST POP JUMP JUMPDEST PUSH0 DUP2 CALLDATALOAD SWAP1 POP PUSH2 0xE20 DUP2 PUSH2 0xDFC JUMP JUMPDEST SWAP3 SWAP2 POP POP JUMP JUMPDEST PUSH0 PUSH1 0x20 DUP3 DUP5 SUB SLT ISZERO PUSH2 0xE3B JUMPI PUSH2 0xE3A PUSH2 0xC93 JUMP JUMPDEST JUMPDEST PUSH0 PUSH2 0xE48 DUP5 DUP3 DUP6 ADD PUSH2 0xE12 JUMP JUMPDEST SWAP2 POP POP SWAP3 SWAP2 POP POP JUMP JUMPDEST PUSH0 DUP1 PUSH1 0x40 DUP4 DUP6 SUB SLT ISZERO PUSH2 0xE67 JUMPI PUSH2 0xE66 PUSH2 0xC93 JUMP JUMPDEST JUMPDEST PUSH0 PUSH2 0xE74 DUP6 DUP3 DUP7 ADD PUSH2 0xCDD JUMP JUMPDEST SWAP3 POP POP PUSH1 0x20 PUSH2 0xE85 DUP6 DUP3 DUP7 ADD PUSH2 0xE12 JUMP JUMPDEST SWAP2 POP POP SWAP3 POP SWAP3 SWAP1 POP JUMP JUMPDEST PUSH2 0xE98 DUP2 PUSH2 0xCB6 JUMP JUMPDEST DUP3 MSTORE POP POP JUMP JUMPDEST PUSH0 PUSH1 0x20 DUP3 ADD SWAP1 POP PUSH2 0xEB1 PUSH0 DUP4 ADD DUP5 PUSH2 0xE8F JUMP JUMPDEST SWAP3 SWAP2 POP POP JUMP JUMPDEST PUSH0 DUP2 ISZERO ISZERO SWAP1 POP SWAP2 SWAP1 POP JUMP JUMPDEST PUSH2 0xECB DUP2 PUSH2 0xEB7 JUMP JUMPDEST DUP3 MSTORE POP POP JUMP JUMPDEST PUSH0 PUSH1 0x20 DUP3 ADD SWAP1 POP PUSH2 0xEE4 PUSH0 DUP4 ADD DUP5 PUSH2 0xEC2 JUMP JUMPDEST SWAP3 SWAP2 POP POP JUMP JUMPDEST PUSH0 DUP1 PUSH0 DUP1 PUSH0 PUSH1 0xA0 DUP7 DUP9 SUB SLT ISZERO PUSH2 0xF03 JUMPI PUSH2 0xF02 PUSH2 0xC93 JUMP JUMPDEST JUMPDEST PUSH0 PUSH2 0xF10 DUP9 DUP3 DUP10 ADD PUSH2 0xCDD JUMP JUMPDEST SWAP6 POP POP PUSH1 0x20 PUSH2 0xF21 DUP9 DUP3 DUP10 ADD PUSH2 0xE12 JUMP JUMPDEST SWAP5 POP POP PUSH1 0x40 PUSH2 0xF32 DUP9 DUP3 DUP10 ADD PUSH2 0xE12 JUMP JUMPDEST SWAP4 POP POP PUSH1 0x60 PUSH2 0xF43 DUP9 DUP3 DUP10 ADD PUSH2 0xE12 JUMP JUMPDEST SWAP3 POP POP PUSH1 0x80 PUSH2 0xF54 DUP9 DUP3 DUP10 ADD PUSH2 0xE12 JUMP JUMPDEST SWAP2 POP POP SWAP3 SWAP6 POP SWAP3 SWAP6 SWAP1 SWAP4 POP JUMP JUMPDEST PUSH2 0xF6A DUP2 PUSH2 0xD45 JUMP JUMPDEST DUP3 MSTORE POP POP JUMP JUMPDEST PUSH0 PUSH1 0x20 DUP3 ADD SWAP1 POP PUSH2 0xF83 PUSH0 DUP4 ADD DUP5 PUSH2 0xF61 JUMP JUMPDEST SWAP3 SWAP2 POP POP JUMP JUMPDEST PUSH0 PUSH2 0xF93 DUP3 PUSH2 0xC97 JUMP JUMPDEST SWAP1 POP SWAP2 SWAP1 POP JUMP JUMPDEST PUSH2 0xFA3 DUP2 PUSH2 0xF89 JUMP JUMPDEST DUP3 MSTORE POP POP JUMP JUMPDEST PUSH2 0xFB2 DUP2 PUSH2 0xCB6 JUMP JUMPDEST DUP3 MSTORE POP POP JUMP JUMPDEST PUSH0 DUP2 SWAP1 POP SWAP2 SWAP1 POP JUMP JUMPDEST PUSH2 0xFCA DUP2 PUSH2 0xFB8 JUMP JUMPDEST DUP3 MSTORE POP POP JUMP JUMPDEST PUSH1 0xE0 DUP3 ADD PUSH0 DUP3 ADD MLOAD PUSH2 0xFE4 PUSH0 DUP6 ADD DUP3 PUSH2 0xF9A JUMP JUMPDEST POP PUSH1 0x20 DUP3 ADD MLOAD PUSH2 0xFF7 PUSH1 0x20 DUP6 ADD DUP3 PUSH2 0xFA9 JUMP JUMPDEST POP PUSH1 0x40 DUP3 ADD MLOAD PUSH2 0x100A PUSH1 0x40 DUP6 ADD DUP3 PUSH2 0xD4E JUMP JUMPDEST POP PUSH1 0x60 DUP3 ADD MLOAD PUSH2 0x101D PUSH1 0x60 DUP6 ADD DUP3 PUSH2 0xD4E JUMP JUMPDEST POP PUSH1 0x80 DUP3 ADD MLOAD PUSH2 0x1030 PUSH1 0x80 DUP6 ADD DUP3 PUSH2 0xD4E JUMP JUMPDEST POP PUSH1 0xA0 DUP3 ADD MLOAD PUSH2 0x1043 PUSH1 0xA0 DUP6 ADD DUP3 PUSH2 0xD4E JUMP JUMPDEST POP PUSH1 0xC0 DUP3 ADD MLOAD PUSH2 0x1056 PUSH1 0xC0 DUP6 ADD DUP3 PUSH2 0xFC1 JUMP JUMPDEST POP POP POP POP JUMP JUMPDEST PUSH0 PUSH1 0xE0 DUP3 ADD SWAP1 POP PUSH2 0x106F PUSH0 DUP4 ADD DUP5 PUSH2 0xFD0 JUMP JUMPDEST SWAP3 SWAP2 POP POP JUMP JUMPDEST PUSH0 PUSH1 0x40 DUP3 ADD SWAP1 POP PUSH2 0x1088 PUSH0 DUP4 ADD DUP6 PUSH2 0xF61 JUMP JUMPDEST PUSH2 0x1095 PUSH1 0x20 DUP4 ADD DUP5 PUSH2 0xEC2 JUMP JUMPDEST SWAP4 SWAP3 POP POP POP JUMP JUMPDEST PUSH2 0x10A5 DUP2 PUSH2 0xF89 JUMP JUMPDEST DUP3 MSTORE POP POP JUMP JUMPDEST PUSH2 0x10B4 DUP2 PUSH2 0xFB8 JUMP JUMPDEST DUP3 MSTORE POP POP JUMP JUMPDEST PUSH0 PUSH1 0xE0 DUP3 ADD SWAP1 POP PUSH2 0x10CD PUSH0 DUP4 ADD DUP11 PUSH2 0x109C JUMP JUMPDEST PUSH2 0x10DA PUSH1 0x20 DUP4 ADD DUP10 PUSH2 0xE8F JUMP JUMPDEST PUSH2 0x10E7 PUSH1 0x40 DUP4 ADD DUP9 PUSH2 0xF61 JUMP JUMPDEST PUSH2 0x10F4 PUSH1 0x60 DUP4 ADD DUP8 PUSH2 0xF61 JUMP JUMPDEST PUSH2 0x1101 PUSH1 0x80 DUP4 ADD DUP7 PUSH2 0xF61 JUMP JUMPDEST PUSH2 0x110E PUSH1 0xA0 DUP4 ADD DUP6 PUSH2 0xF61 JUMP JUMPDEST PUSH2 0x111B PUSH1 0xC0 DUP4 ADD DUP5 PUSH2 0x10AB JUMP JUMPDEST SWAP9 SWAP8 POP POP POP POP POP POP POP POP JUMP JUMPDEST PUSH0 DUP3 DUP3 MSTORE PUSH1 0x20 DUP3 ADD SWAP1 POP SWAP3 SWAP2 POP POP JUMP JUMPDEST PUSH32 0x596F7520686176656E277420656E6F7567682062616C616E636520666F72206C PUSH0 DUP3 ADD MSTORE PUSH32 0x656E64696E670000000000000000000000000000000000000000000000000000 PUSH1 0x20 DUP3 ADD MSTORE POP JUMP JUMPDEST PUSH0 PUSH2 0x1191 PUSH1 0x26 DUP4 PUSH2 0x1127 JUMP JUMPDEST SWAP2 POP PUSH2 0x119C DUP3 PUSH2 0x1137 JUMP JUMPDEST PUSH1 0x40 DUP3 ADD SWAP1 POP SWAP2 SWAP1 POP JUMP JUMPDEST PUSH0 PUSH1 0x20 DUP3 ADD SWAP1 POP DUP2 DUP2 SUB PUSH0 DUP4 ADD MSTORE PUSH2 0x11BE DUP2 PUSH2 0x1185 JUMP JUMPDEST SWAP1 POP SWAP2 SWAP1 POP JUMP JUMPDEST PUSH0 PUSH2 0x100 DUP3 ADD SWAP1 POP PUSH2 0x11D9 PUSH0 DUP4 ADD DUP6 PUSH2 0xE8F JUMP JUMPDEST PUSH2 0x11E6 PUSH1 0x20 DUP4 ADD DUP5 PUSH2 0xFD0 JUMP JUMPDEST SWAP4 SWAP3 POP POP POP JUMP JUMPDEST PUSH0 DUP2 MLOAD SWAP1 POP PUSH2 0x11FB DUP2 PUSH2 0xCC7 JUMP JUMPDEST SWAP3 SWAP2 POP POP JUMP JUMPDEST PUSH0 PUSH1 0x20 DUP3 DUP5 SUB SLT ISZERO PUSH2 0x1216 JUMPI PUSH2 0x1215 PUSH2 0xC93 JUMP JUMPDEST JUMPDEST PUSH0 PUSH2 0x1223 DUP5 DUP3 DUP6 ADD PUSH2 0x11ED JUMP JUMPDEST SWAP2 POP POP SWAP3 SWAP2 POP POP JUMP JUMPDEST PUSH0 PUSH1 0x40 DUP3 ADD SWAP1 POP PUSH2 0x123F PUSH0 DUP4 ADD DUP6 PUSH2 0xE8F JUMP JUMPDEST PUSH2 0x124C PUSH1 0x20 DUP4 ADD DUP5 PUSH2 0xE8F JUMP JUMPDEST SWAP4 SWAP3 POP POP POP JUMP JUMPDEST PUSH2 0x125C DUP2 PUSH2 0xEB7 JUMP JUMPDEST DUP2 EQ PUSH2 0x1266 JUMPI PUSH0 DUP1 REVERT JUMPDEST POP JUMP JUMPDEST PUSH0 DUP2 MLOAD SWAP1 POP PUSH2 0x1277 DUP2 PUSH2 0x1253 JUMP JUMPDEST SWAP3 SWAP2 POP POP JUMP JUMPDEST PUSH0 PUSH1 0x20 DUP3 DUP5 SUB SLT ISZERO PUSH2 0x1292 JUMPI PUSH2 0x1291 PUSH2 0xC93 JUMP JUMPDEST JUMPDEST PUSH0 PUSH2 0x129F DUP5 DUP3 DUP6 ADD PUSH2 0x1269 JUMP JUMPDEST SWAP2 POP POP SWAP3 SWAP2 POP POP JUMP JUMPDEST PUSH32 0x56616C756573206D7573742062652067726561746572207468616E207A65726F PUSH0 DUP3 ADD MSTORE POP JUMP JUMPDEST PUSH0 PUSH2 0x12DC PUSH1 0x20 DUP4 PUSH2 0x1127 JUMP JUMPDEST SWAP2 POP PUSH2 0x12E7 DUP3 PUSH2 0x12A8 JUMP JUMPDEST PUSH1 0x20 DUP3 ADD SWAP1 POP SWAP2 SWAP1 POP JUMP JUMPDEST PUSH0 PUSH1 0x20 DUP3 ADD SWAP1 POP DUP2 DUP2 SUB PUSH0 DUP4 ADD MSTORE PUSH2 0x1309 DUP2 PUSH2 0x12D0 JUMP JUMPDEST SWAP1 POP SWAP2 SWAP1 POP JUMP JUMPDEST PUSH32 0x596F7520617265206E6F7420686F6C646572206F66207468697320746F6B656E PUSH0 DUP3 ADD MSTORE POP JUMP JUMPDEST PUSH0 PUSH2 0x1344 PUSH1 0x20 DUP4 PUSH2 0x1127 JUMP JUMPDEST SWAP2 POP PUSH2 0x134F DUP3 PUSH2 0x1310 JUMP JUMPDEST PUSH1 0x20 DUP3 ADD SWAP1 POP SWAP2 SWAP1 POP JUMP JUMPDEST PUSH0 PUSH1 0x20 DUP3 ADD SWAP1 POP DUP2 DUP2 SUB PUSH0 DUP4 ADD MSTORE PUSH2 0x1371 DUP2 PUSH2 0x1338 JUMP JUMPDEST SWAP1 POP SWAP2 SWAP1 POP JUMP JUMPDEST PUSH0 PUSH1 0x60 DUP3 ADD SWAP1 POP PUSH2 0x138B PUSH0 DUP4 ADD DUP7 PUSH2 0xE8F JUMP JUMPDEST PUSH2 0x1398 PUSH1 0x20 DUP4 ADD DUP6 PUSH2 0xE8F JUMP JUMPDEST PUSH2 0x13A5 PUSH1 0x40 DUP4 ADD DUP5 PUSH2 0xF61 JUMP JUMPDEST SWAP5 SWAP4 POP POP POP POP JUMP JUMPDEST PUSH32 0x4E487B7100000000000000000000000000000000000000000000000000000000 PUSH0 MSTORE PUSH1 0x11 PUSH1 0x4 MSTORE PUSH1 0x24 PUSH0 REVERT JUMPDEST PUSH0 PUSH2 0x13E4 DUP3 PUSH2 0xD45 JUMP JUMPDEST SWAP2 POP PUSH32 0xFFFFFFFFFFFFFFFFFFFFFFFFFFFFFFFFFFFFFFFFFFFFFFFFFFFFFFFFFFFFFFFF DUP3 SUB PUSH2 0x1416 JUMPI PUSH2 0x1415 PUSH2 0x13AD JUMP JUMPDEST JUMPDEST PUSH1 0x1 DUP3 ADD SWAP1 POP SWAP2 SWAP1 POP JUMP JUMPDEST PUSH0 PUSH2 0x142B DUP3 PUSH2 0xD45 JUMP JUMPDEST SWAP2 POP PUSH2 0x1436 DUP4 PUSH2 0xD45 JUMP JUMPDEST SWAP3 POP DUP3 DUP3 MUL PUSH2 0x1444 DUP2 PUSH2 0xD45 JUMP JUMPDEST SWAP2 POP DUP3 DUP3 DIV DUP5 EQ DUP4 ISZERO OR PUSH2 0x145B JUMPI PUSH2 0x145A PUSH2 0x13AD JUMP JUMPDEST JUMPDEST POP SWAP3 SWAP2 POP POP JUMP JUMPDEST PUSH0 PUSH2 0x146C DUP3 PUSH2 0xD45 JUMP JUMPDEST SWAP2 POP PUSH2 0x1477 DUP4 PUSH2 0xD45 JUMP JUMPDEST SWAP3 POP DUP3 DUP3 ADD SWAP1 POP DUP1 DUP3 GT ISZERO PUSH2 0x148F JUMPI PUSH2 0x148E PUSH2 0x13AD JUMP JUMPDEST JUMPDEST SWAP3 SWAP2 POP POP JUMP JUMPDEST PUSH0 PUSH2 0x149F DUP3 PUSH2 0xD45 JUMP JUMPDEST SWAP2 POP PUSH2 0x14AA DUP4 PUSH2 0xD45 JUMP JUMPDEST SWAP3 POP DUP3 DUP3 SUB SWAP1 POP DUP2 DUP2 GT ISZERO PUSH2 0x14C2 JUMPI PUSH2 0x14C1 PUSH2 0x13AD JUMP JUMPDEST JUMPDEST SWAP3 SWAP2 POP POP JUMP JUMPDEST PUSH32 0x596F7520617265206E6F7420706F73746572206F6620746865206C6973740000 PUSH0 DUP3 ADD MSTORE POP JUMP JUMPDEST PUSH0 PUSH2 0x14FC PUSH1 0x1E DUP4 PUSH2 0x1127 JUMP JUMPDEST SWAP2 POP PUSH2 0x1507 DUP3 PUSH2 0x14C8 JUMP JUMPDEST PUSH1 0x20 DUP3 ADD SWAP1 POP SWAP2 SWAP1 POP JUMP JUMPDEST PUSH0 PUSH1 0x20 DUP3 ADD SWAP1 POP DUP2 DUP2 SUB PUSH0 DUP4 ADD MSTORE PUSH2 0x1529 DUP2 PUSH2 0x14F0 JUMP JUMPDEST SWAP1 POP SWAP2 SWAP1 POP JUMP JUMPDEST PUSH32 0x4E6F74206F70656E696E67206C69737400000000000000000000000000000000 PUSH0 DUP3 ADD MSTORE POP JUMP JUMPDEST PUSH0 PUSH2 0x1564 PUSH1 0x10 DUP4 PUSH2 0x1127 JUMP JUMPDEST SWAP2 POP PUSH2 0x156F DUP3 PUSH2 0x1530 JUMP JUMPDEST PUSH1 0x20 DUP3 ADD SWAP1 POP SWAP2 SWAP1 POP JUMP JUMPDEST PUSH0 PUSH1 0x20 DUP3 ADD SWAP1 POP DUP2 DUP2 SUB PUSH0 DUP4 ADD MSTORE PUSH2 0x1591 DUP2 PUSH2 0x1558 JUMP JUMPDEST SWAP1 POP SWAP2 SWAP1 POP JUMP INVALID LOG2 PUSH5 0x6970667358 0x22 SLT KECCAK256 SWAP16 DIV PUSH21 0xEB8E8204E619DE329CCE0B0462F5DF3BAFE4531DDC 0x4A PUSH13 0x135409ED904A64736F6C634300 ADDMOD OR STOP CALLER "
		},
		"gasEstimates": {
			"creation": {
				"codeDepositCost": "1116400",
				"executionCost": "45370",
				"totalCost": "1161770"
			},
			"external": {
				"closeListing(uint256)": "infinite",
				"getCounter()": "2454",
				"getListing(address)": "infinite",
				"getListingInfo(uint256)": "infinite",
				"isApprove(address)": "infinite",
				"isExpired(uint256)": "infinite",
				"lendApproval(uint256)": "infinite",
				"listNum(uint256)": "infinite",
				"openListing(address,uint256,uint256,uint256,uint256)": "infinite",
				"ownerOf(address,uint256)": "infinite",
				"updateTime(uint256)": "22679"
			}
		},
		"methodIdentifiers": {
			"closeListing(uint256)": "e5a255cb",
			"getCounter()": "8ada066e",
			"getListing(address)": "084af0b2",
			"getListingInfo(uint256)": "b9314135",
			"isApprove(address)": "4f694690",
			"isExpired(uint256)": "d9548e53",
			"lendApproval(uint256)": "172656d1",
			"listNum(uint256)": "eeabfc4a",
			"openListing(address,uint256,uint256,uint256,uint256)": "880fe941",
			"ownerOf(address,uint256)": "1f29d2dc",
			"updateTime(uint256)": "6c59bd0c"
		}
	},
	"abi": [
		{
			"anonymous": false,
			"inputs": [
				{
					"indexed": false,
					"internalType": "address",
					"name": "loaner",
					"type": "address"
				},
				{
					"components": [
						{
							"internalType": "address payable",
							"name": "poster",
							"type": "address"
						},
						{
							"internalType": "address",
							"name": "collectionAddr",
							"type": "address"
						},
						{
							"internalType": "uint256",
							"name": "tokenId",
							"type": "uint256"
						},
						{
							"internalType": "uint256",
							"name": "amount",
							"type": "uint256"
						},
						{
							"internalType": "uint256",
							"name": "duration",
							"type": "uint256"
						},
						{
							"internalType": "uint256",
							"name": "APR",
							"type": "uint256"
						},
						{
							"internalType": "bytes32",
							"name": "status",
							"type": "bytes32"
						}
					],
					"indexed": false,
					"internalType": "struct Platform.ListingInfo",
					"name": "info",
					"type": "tuple"
				}
			],
			"name": "ApprovalListing",
			"type": "event"
		},
		{
			"anonymous": false,
			"inputs": [
				{
					"indexed": false,
					"internalType": "address",
					"name": "owner",
					"type": "address"
				},
				{
					"components": [
						{
							"internalType": "address payable",
							"name": "poster",
							"type": "address"
						},
						{
							"internalType": "address",
							"name": "collectionAddr",
							"type": "address"
						},
						{
							"internalType": "uint256",
							"name": "tokenId",
							"type": "uint256"
						},
						{
							"internalType": "uint256",
							"name": "amount",
							"type": "uint256"
						},
						{
							"internalType": "uint256",
							"name": "duration",
							"type": "uint256"
						},
						{
							"internalType": "uint256",
							"name": "APR",
							"type": "uint256"
						},
						{
							"internalType": "bytes32",
							"name": "status",
							"type": "bytes32"
						}
					],
					"indexed": false,
					"internalType": "struct Platform.ListingInfo",
					"name": "info",
					"type": "tuple"
				}
			],
			"name": "CancelListing",
			"type": "event"
		},
		{
			"anonymous": false,
			"inputs": [
				{
					"indexed": false,
					"internalType": "address",
					"name": "owner",
					"type": "address"
				},
				{
					"components": [
						{
							"internalType": "address payable",
							"name": "poster",
							"type": "address"
						},
						{
							"internalType": "address",
							"name": "collectionAddr",
							"type": "address"
						},
						{
							"internalType": "uint256",
							"name": "tokenId",
							"type": "uint256"
						},
						{
							"internalType": "uint256",
							"name": "amount",
							"type": "uint256"
						},
						{
							"internalType": "uint256",
							"name": "duration",
							"type": "uint256"
						},
						{
							"internalType": "uint256",
							"name": "APR",
							"type": "uint256"
						},
						{
							"internalType": "bytes32",
							"name": "status",
							"type": "bytes32"
						}
					],
					"indexed": false,
					"internalType": "struct Platform.ListingInfo",
					"name": "info",
					"type": "tuple"
				}
			],
			"name": "NewListing",
			"type": "event"
		},
		{
			"inputs": [
				{
					"internalType": "uint256",
					"name": "listingIndex",
					"type": "uint256"
				}
			],
			"name": "closeListing",
			"outputs": [],
			"stateMutability": "nonpayable",
			"type": "function"
		},
		{
			"inputs": [],
			"name": "getCounter",
			"outputs": [
				{
					"internalType": "uint256",
					"name": "",
					"type": "uint256"
				}
			],
			"stateMutability": "view",
			"type": "function"
		},
		{
			"inputs": [
				{
					"internalType": "address",
					"name": "addr",
					"type": "address"
				}
			],
			"name": "getListing",
			"outputs": [
				{
					"internalType": "uint256[]",
					"name": "",
					"type": "uint256[]"
				}
			],
			"stateMutability": "view",
			"type": "function"
		},
		{
			"inputs": [
				{
					"internalType": "uint256",
					"name": "num",
					"type": "uint256"
				}
			],
			"name": "getListingInfo",
			"outputs": [
				{
					"components": [
						{
							"internalType": "address payable",
							"name": "poster",
							"type": "address"
						},
						{
							"internalType": "address",
							"name": "collectionAddr",
							"type": "address"
						},
						{
							"internalType": "uint256",
							"name": "tokenId",
							"type": "uint256"
						},
						{
							"internalType": "uint256",
							"name": "amount",
							"type": "uint256"
						},
						{
							"internalType": "uint256",
							"name": "duration",
							"type": "uint256"
						},
						{
							"internalType": "uint256",
							"name": "APR",
							"type": "uint256"
						},
						{
							"internalType": "bytes32",
							"name": "status",
							"type": "bytes32"
						}
					],
					"internalType": "struct Platform.ListingInfo",
					"name": "",
					"type": "tuple"
				}
			],
			"stateMutability": "view",
			"type": "function"
		},
		{
			"inputs": [
				{
					"internalType": "address",
					"name": "collectionAddr",
					"type": "address"
				}
			],
			"name": "isApprove",
			"outputs": [
				{
					"internalType": "bool",
					"name": "",
					"type": "bool"
				}
			],
			"stateMutability": "view",
			"type": "function"
		},
		{
			"inputs": [
				{
					"internalType": "uint256",
					"name": "listingIndex",
					"type": "uint256"
				}
			],
			"name": "isExpired",
			"outputs": [
				{
					"internalType": "uint256",
					"name": "",
					"type": "uint256"
				},
				{
					"internalType": "bool",
					"name": "",
					"type": "bool"
				}
			],
			"stateMutability": "view",
			"type": "function"
		},
		{
			"inputs": [
				{
					"internalType": "uint256",
					"name": "listingIndex",
					"type": "uint256"
				}
			],
			"name": "lendApproval",
			"outputs": [],
			"stateMutability": "nonpayable",
			"type": "function"
		},
		{
			"inputs": [
				{
					"internalType": "uint256",
					"name": "",
					"type": "uint256"
				}
			],
			"name": "listNum",
			"outputs": [
				{
					"internalType": "address payable",
					"name": "poster",
					"type": "address"
				},
				{
					"internalType": "address",
					"name": "collectionAddr",
					"type": "address"
				},
				{
					"internalType": "uint256",
					"name": "tokenId",
					"type": "uint256"
				},
				{
					"internalType": "uint256",
					"name": "amount",
					"type": "uint256"
				},
				{
					"internalType": "uint256",
					"name": "duration",
					"type": "uint256"
				},
				{
					"internalType": "uint256",
					"name": "APR",
					"type": "uint256"
				},
				{
					"internalType": "bytes32",
					"name": "status",
					"type": "bytes32"
				}
			],
			"stateMutability": "view",
			"type": "function"
		},
		{
			"inputs": [
				{
					"internalType": "address",
					"name": "collectionAddr",
					"type": "address"
				},
				{
					"internalType": "uint256",
					"name": "tokenId",
					"type": "uint256"
				},
				{
					"internalType": "uint256",
					"name": "amount",
					"type": "uint256"
				},
				{
					"internalType": "uint256",
					"name": "duration",
					"type": "uint256"
				},
				{
					"internalType": "uint256",
					"name": "APR",
					"type": "uint256"
				}
			],
			"name": "openListing",
			"outputs": [],
			"stateMutability": "nonpayable",
			"type": "function"
		},
		{
			"inputs": [
				{
					"internalType": "address",
					"name": "collectionAddr",
					"type": "address"
				},
				{
					"internalType": "uint256",
					"name": "tokenId",
					"type": "uint256"
				}
			],
			"name": "ownerOf",
			"outputs": [
				{
					"internalType": "address",
					"name": "",
					"type": "address"
				}
			],
			"stateMutability": "view",
			"type": "function"
		},
		{
			"inputs": [
				{
					"internalType": "uint256",
					"name": "listingIndex",
					"type": "uint256"
				}
			],
			"name": "updateTime",
			"outputs": [],
			"stateMutability": "nonpayable",
			"type": "function"
		}
	]
}