{
	"data": {
		"bytecode": {
			"linkReferences": {},
			"object": "6080604052600160045561016d60055562278d0060065562015180600755603c60085534801561002d575f80fd5b506122cd8061003b5f395ff3fe6080604052600436106100f2575f3560e01c8063aadc1ac111610089578063ce5b8d3511610058578063ce5b8d351461034c578063d9548e5314610374578063e5a255cb146103b1578063eeabfc4a146103d9576100f2565b8063aadc1ac11461029c578063ab7b1c89146102b8578063b1209d4a146102d4578063b931413514610310576100f2565b80636c59bd0c116100c55780636c59bd0c146101e6578063880fe9411461020e5780638ada066e14610236578063907c64f514610260576100f2565b8063084af0b2146100f65780631ac31f0d146101325780631f29d2dc1461016e5780634f694690146101aa575b5f80fd5b348015610101575f80fd5b5061011c6004803603810190610117919061153b565b61041b565b6040516101299190611626565b60405180910390f35b34801561013d575f80fd5b5061015860048036038101906101539190611670565b6104ae565b60405161016591906116aa565b60405180910390f35b348015610179575f80fd5b50610194600480360381019061018f91906116c3565b610566565b6040516101a19190611710565b60405180910390f35b3480156101b5575f80fd5b506101d060048036038101906101cb919061153b565b6105e7565b6040516101dd9190611743565b60405180910390f35b3480156101f1575f80fd5b5061020c60048036038101906102079190611670565b610669565b005b348015610219575f80fd5b50610234600480360381019061022f919061175c565b610682565b005b348015610241575f80fd5b5061024a610a43565b60405161025791906116aa565b60405180910390f35b34801561026b575f80fd5b5061028660048036038101906102819190611670565b610a4c565b6040516102939190611710565b60405180910390f35b6102b660048036038101906102b19190611670565b610a85565b005b6102d260048036038101906102cd9190611670565b610cf6565b005b3480156102df575f80fd5b506102fa60048036038101906102f59190611670565b610f7c565b60405161030791906116aa565b60405180910390f35b34801561031b575f80fd5b5061033660048036038101906103319190611670565b610f96565b60405161034391906118a6565b60405180910390f35b348015610357575f80fd5b50610372600480360381019061036d9190611670565b61109b565b005b34801561037f575f80fd5b5061039a60048036038101906103959190611670565b611227565b6040516103a89291906118bf565b60405180910390f35b3480156103bc575f80fd5b506103d760048036038101906103d29190611670565b611285565b005b3480156103e4575f80fd5b506103ff60048036038101906103fa9190611670565b6113fd565b6040516104129796959493929190611904565b60405180910390f35b606060015f8373ffffffffffffffffffffffffffffffffffffffff1673ffffffffffffffffffffffffffffffffffffffff1681526020019081526020015f208054806020026020016040519081016040528092919081815260200182805480156104a257602002820191905f5260205f20905b81548152602001906001019080831161048e575b50505050509050919050565b5f806104b983610f96565b90505f6103e88260a001516104ce919061199e565b90505f6005546103e860648486606001516104e9919061199e565b6104f39190611a0c565b6104fd9190611a0c565b6105079190611a0c565b90505f60075460025f8881526020019081526020015f20544261052a9190611a3c565b6105349190611a0c565b90505f8183610543919061199e565b90505f8186606001516105569190611a6f565b9050809650505050505050919050565b5f8273ffffffffffffffffffffffffffffffffffffffff16636352211e836040518263ffffffff1660e01b81526004016105a091906116aa565b602060405180830381865afa1580156105bb573d5f803e3d5ffd5b505050506040513d601f19601f820116820180604052508101906105df9190611ab6565b905092915050565b5f8173ffffffffffffffffffffffffffffffffffffffff1663e985e9c533306040518363ffffffff1660e01b8152600401610623929190611ae1565b602060405180830381865afa15801561063e573d5f803e3d5ffd5b505050506040513d601f19601f820116820180604052508101906106629190611b32565b9050919050565b4260025f8381526020019081526020015f208190555050565b5f8311801561069057505f82115b801561069b57505f81115b6106da576040517f08c379a00000000000000000000000000000000000000000000000000000000081526004016106d190611bb7565b60405180910390fd5b3373ffffffffffffffffffffffffffffffffffffffff168573ffffffffffffffffffffffffffffffffffffffff16636352211e866040518263ffffffff1660e01b815260040161072a91906116aa565b602060405180830381865afa158015610745573d5f803e3d5ffd5b505050506040513d601f19601f820116820180604052508101906107699190611ab6565b73ffffffffffffffffffffffffffffffffffffffff16146107bf576040517f08c379a00000000000000000000000000000000000000000000000000000000081526004016107b690611c1f565b60405180910390fd5b5f6040518060e001604052803373ffffffffffffffffffffffffffffffffffffffff1681526020018773ffffffffffffffffffffffffffffffffffffffff1681526020018681526020018581526020018481526020018381526020017f6f70656e000000000000000000000000000000000000000000000000000000008152509050805f8060045481526020019081526020015f205f820151815f015f6101000a81548173ffffffffffffffffffffffffffffffffffffffff021916908373ffffffffffffffffffffffffffffffffffffffff1602179055506020820151816001015f6101000a81548173ffffffffffffffffffffffffffffffffffffffff021916908373ffffffffffffffffffffffffffffffffffffffff16021790555060408201518160020155606082015181600301556080820151816004015560a0820151816005015560c0820151816006015590505060015f3373ffffffffffffffffffffffffffffffffffffffff1673ffffffffffffffffffffffffffffffffffffffff1681526020019081526020015f20600454908060018154018082558091505060019003905f5260205f20015f90919091909150558573ffffffffffffffffffffffffffffffffffffffff166323b872dd3330886040518463ffffffff1660e01b81526004016109b393929190611c3d565b5f604051808303815f87803b1580156109ca575f80fd5b505af11580156109dc573d5f803e3d5ffd5b505050506109eb600454610669565b60045f8154809291906109fd90611c72565b91905055507ff767ad1ae2d5476327f80bef89fbc70354c993e3059ed3d504d127921f60c40b3382604051610a33929190611cb9565b60405180910390a1505050505050565b5f600454905090565b5f60035f8381526020019081526020015f205f9054906101000a900473ffffffffffffffffffffffffffffffffffffffff169050919050565b5f805f8381526020019081526020015f209050805f015f9054906101000a900473ffffffffffffffffffffffffffffffffffffffff1673ffffffffffffffffffffffffffffffffffffffff163373ffffffffffffffffffffffffffffffffffffffff1603610b28576040517f08c379a0000000000000000000000000000000000000000000000000000000008152600401610b1f90611d2b565b60405180910390fd5b5f670de0b6b3a76400008260030154610b41919061199e565b9050803373ffffffffffffffffffffffffffffffffffffffff16311015610b9d576040517f08c379a0000000000000000000000000000000000000000000000000000000008152600401610b9490611db9565b60405180910390fd5b7f657865637574696e67000000000000000000000000000000000000000000000082600601819055503360035f8581526020019081526020015f205f6101000a81548173ffffffffffffffffffffffffffffffffffffffff021916908373ffffffffffffffffffffffffffffffffffffffff160217905550610c1e83610669565b5f825f015f9054906101000a900473ffffffffffffffffffffffffffffffffffffffff1673ffffffffffffffffffffffffffffffffffffffff166108fc3490811502906040515f60405180830381858888f19350505050905080610cb7576040517f08c379a0000000000000000000000000000000000000000000000000000000008152600401610cae90611e21565b60405180910390fd5b7fcbe547358b7d8ceb07ae8baae08d35680e6c6c69046525b09dc9bb8f53f708fd3384604051610ce8929190611fd9565b60405180910390a150505050565b5f805f8381526020019081526020015f2090503373ffffffffffffffffffffffffffffffffffffffff16815f015f9054906101000a900473ffffffffffffffffffffffffffffffffffffffff1673ffffffffffffffffffffffffffffffffffffffff1614610d99576040517f08c379a0000000000000000000000000000000000000000000000000000000008152600401610d909061204b565b60405180910390fd5b7f657865637574696e670000000000000000000000000000000000000000000000816006015414610dff576040517f08c379a0000000000000000000000000000000000000000000000000000000008152600401610df6906120d9565b60405180910390fd5b5f610e09836104ae565b90503373ffffffffffffffffffffffffffffffffffffffff16318110610e64576040517f08c379a0000000000000000000000000000000000000000000000000000000008152600401610e5b90612141565b60405180910390fd5b5f60035f8581526020019081526020015f205f9054906101000a900473ffffffffffffffffffffffffffffffffffffffff1673ffffffffffffffffffffffffffffffffffffffff166108fc3490811502906040515f60405180830381858888f19350505050905080610f0b576040517f08c379a0000000000000000000000000000000000000000000000000000000008152600401610f0290611e21565b60405180910390fd5b7f72657061796564000000000000000000000000000000000000000000000000008360060181905550610f3d8461109b565b7f94e7116aa05f19f109f7fa598f65ade35ab1de8cd3d002b5b2205416e8943e653384604051610f6e929190611fd9565b60405180910390a150505050565b5f60025f8381526020019081526020015f20549050919050565b610f9e611478565b5f808381526020019081526020015f206040518060e00160405290815f82015f9054906101000a900473ffffffffffffffffffffffffffffffffffffffff1673ffffffffffffffffffffffffffffffffffffffff1673ffffffffffffffffffffffffffffffffffffffff168152602001600182015f9054906101000a900473ffffffffffffffffffffffffffffffffffffffff1673ffffffffffffffffffffffffffffffffffffffff1673ffffffffffffffffffffffffffffffffffffffff168152602001600282015481526020016003820154815260200160048201548152602001600582015481526020016006820154815250509050919050565b5f6110a582610f96565b90503373ffffffffffffffffffffffffffffffffffffffff16815f015173ffffffffffffffffffffffffffffffffffffffff1614611118576040517f08c379a000000000000000000000000000000000000000000000000000000000815260040161110f9061204b565b60405180910390fd5b7f72657061796564000000000000000000000000000000000000000000000000008160c001511461117e576040517f08c379a0000000000000000000000000000000000000000000000000000000008152600401611175906121a9565b60405180910390fd5b806020015173ffffffffffffffffffffffffffffffffffffffff166323b872dd303384604001516040518463ffffffff1660e01b81526004016111c393929190611c3d565b5f604051808303815f87803b1580156111da575f80fd5b505af11580156111ec573d5f803e3d5ffd5b505050507f636c6f73656400000000000000000000000000000000000000000000000000008160c001818152505061122382610669565b5050565b5f805f61123384610f96565b90505f6008548260800151611248919061199e565b60025f8781526020019081526020015f20546112649190611a6f565b90505f42826112739190611a3c565b9050805f821094509450505050915091565b5f805f8381526020019081526020015f2090503373ffffffffffffffffffffffffffffffffffffffff16815f015f9054906101000a900473ffffffffffffffffffffffffffffffffffffffff1673ffffffffffffffffffffffffffffffffffffffff1614611328576040517f08c379a000000000000000000000000000000000000000000000000000000000815260040161131f90612211565b60405180910390fd5b7f6f70656e0000000000000000000000000000000000000000000000000000000081600601541461138e576040517f08c379a000000000000000000000000000000000000000000000000000000000815260040161138590612279565b60405180910390fd5b7f63616e63656c000000000000000000000000000000000000000000000000000081600601819055506113c082610669565b7f7e885013ca94016b1452b4678f1c43c33cd914617b389322af7f7d97a2c4f58533826040516113f1929190611fd9565b60405180910390a15050565b5f602052805f5260405f205f91509050805f015f9054906101000a900473ffffffffffffffffffffffffffffffffffffffff1690806001015f9054906101000a900473ffffffffffffffffffffffffffffffffffffffff16908060020154908060030154908060040154908060050154908060060154905087565b6040518060e001604052805f73ffffffffffffffffffffffffffffffffffffffff1681526020015f73ffffffffffffffffffffffffffffffffffffffff1681526020015f81526020015f81526020015f81526020015f81526020015f80191681525090565b5f80fd5b5f73ffffffffffffffffffffffffffffffffffffffff82169050919050565b5f61150a826114e1565b9050919050565b61151a81611500565b8114611524575f80fd5b50565b5f8135905061153581611511565b92915050565b5f602082840312156115505761154f6114dd565b5b5f61155d84828501611527565b91505092915050565b5f81519050919050565b5f82825260208201905092915050565b5f819050602082019050919050565b5f819050919050565b6115a18161158f565b82525050565b5f6115b28383611598565b60208301905092915050565b5f602082019050919050565b5f6115d482611566565b6115de8185611570565b93506115e983611580565b805f5b8381101561161957815161160088826115a7565b975061160b836115be565b9250506001810190506115ec565b5085935050505092915050565b5f6020820190508181035f83015261163e81846115ca565b905092915050565b61164f8161158f565b8114611659575f80fd5b50565b5f8135905061166a81611646565b92915050565b5f60208284031215611685576116846114dd565b5b5f6116928482850161165c565b91505092915050565b6116a48161158f565b82525050565b5f6020820190506116bd5f83018461169b565b92915050565b5f80604083850312156116d9576116d86114dd565b5b5f6116e685828601611527565b92505060206116f78582860161165c565b9150509250929050565b61170a81611500565b82525050565b5f6020820190506117235f830184611701565b92915050565b5f8115159050919050565b61173d81611729565b82525050565b5f6020820190506117565f830184611734565b92915050565b5f805f805f60a08688031215611775576117746114dd565b5b5f61178288828901611527565b95505060206117938882890161165c565b94505060406117a48882890161165c565b93505060606117b58882890161165c565b92505060806117c68882890161165c565b9150509295509295909350565b5f6117dd826114e1565b9050919050565b6117ed816117d3565b82525050565b6117fc81611500565b82525050565b5f819050919050565b61181481611802565b82525050565b60e082015f82015161182e5f8501826117e4565b50602082015161184160208501826117f3565b5060408201516118546040850182611598565b5060608201516118676060850182611598565b50608082015161187a6080850182611598565b5060a082015161188d60a0850182611598565b5060c08201516118a060c085018261180b565b50505050565b5f60e0820190506118b95f83018461181a565b92915050565b5f6040820190506118d25f83018561169b565b6118df6020830184611734565b9392505050565b6118ef816117d3565b82525050565b6118fe81611802565b82525050565b5f60e0820190506119175f83018a6118e6565b6119246020830189611701565b611931604083018861169b565b61193e606083018761169b565b61194b608083018661169b565b61195860a083018561169b565b61196560c08301846118f5565b98975050505050505050565b7f4e487b71000000000000000000000000000000000000000000000000000000005f52601160045260245ffd5b5f6119a88261158f565b91506119b38361158f565b92508282026119c18161158f565b915082820484148315176119d8576119d7611971565b5b5092915050565b7f4e487b71000000000000000000000000000000000000000000000000000000005f52601260045260245ffd5b5f611a168261158f565b9150611a218361158f565b925082611a3157611a306119df565b5b828204905092915050565b5f611a468261158f565b9150611a518361158f565b9250828203905081811115611a6957611a68611971565b5b92915050565b5f611a798261158f565b9150611a848361158f565b9250828201905080821115611a9c57611a9b611971565b5b92915050565b5f81519050611ab081611511565b92915050565b5f60208284031215611acb57611aca6114dd565b5b5f611ad884828501611aa2565b91505092915050565b5f604082019050611af45f830185611701565b611b016020830184611701565b9392505050565b611b1181611729565b8114611b1b575f80fd5b50565b5f81519050611b2c81611b08565b92915050565b5f60208284031215611b4757611b466114dd565b5b5f611b5484828501611b1e565b91505092915050565b5f82825260208201905092915050565b7f56616c756573206d7573742062652067726561746572207468616e207a65726f5f82015250565b5f611ba1602083611b5d565b9150611bac82611b6d565b602082019050919050565b5f6020820190508181035f830152611bce81611b95565b9050919050565b7f596f7520617265206e6f7420686f6c646572206f66207468697320746f6b656e5f82015250565b5f611c09602083611b5d565b9150611c1482611bd5565b602082019050919050565b5f6020820190508181035f830152611c3681611bfd565b9050919050565b5f606082019050611c505f830186611701565b611c5d6020830185611701565b611c6a604083018461169b565b949350505050565b5f611c7c8261158f565b91507fffffffffffffffffffffffffffffffffffffffffffffffffffffffffffffffff8203611cae57611cad611971565b5b600182019050919050565b5f61010082019050611ccd5f830185611701565b611cda602083018461181a565b9392505050565b7f4974277320796f7572206f776e206c6f616e206170706c69636174696f6e2e005f82015250565b5f611d15601f83611b5d565b9150611d2082611ce1565b602082019050919050565b5f6020820190508181035f830152611d4281611d09565b9050919050565b7f596f7520686176656e277420656e6f7567682062616c616e636520666f72206c5f8201527f656e64696e670000000000000000000000000000000000000000000000000000602082015250565b5f611da3602683611b5d565b9150611dae82611d49565b604082019050919050565b5f6020820190508181035f830152611dd081611d97565b9050919050565b7f4661696c656420746f2073656e642045746865720000000000000000000000005f82015250565b5f611e0b601483611b5d565b9150611e1682611dd7565b602082019050919050565b5f6020820190508181035f830152611e3881611dff565b9050919050565b5f815f1c9050919050565b5f73ffffffffffffffffffffffffffffffffffffffff82169050919050565b5f611e7b611e7683611e3f565b611e4a565b9050919050565b5f73ffffffffffffffffffffffffffffffffffffffff82169050919050565b5f611eb3611eae83611e3f565b611e82565b9050919050565b5f819050919050565b5f611ed5611ed083611e3f565b611eba565b9050919050565b5f819050919050565b5f611ef7611ef283611e3f565b611edc565b9050919050565b60e082015f808301549050611f1281611e69565b611f1e5f8601826117e4565b5060018301549050611f2f81611ea1565b611f3c60208601826117f3565b5060028301549050611f4d81611ec3565b611f5a6040860182611598565b5060038301549050611f6b81611ec3565b611f786060860182611598565b5060048301549050611f8981611ec3565b611f966080860182611598565b5060058301549050611fa781611ec3565b611fb460a0860182611598565b5060068301549050611fc581611ee5565b611fd260c086018261180b565b5050505050565b5f61010082019050611fed5f830185611701565b611ffa6020830184611efe565b9392505050565b7f596f7520617265206e6f7420706f7374657200000000000000000000000000005f82015250565b5f612035601283611b5d565b915061204082612001565b602082019050919050565b5f6020820190508181035f83015261206281612029565b9050919050565b7f546869732069732065787069726564206f72206e6f74206578637574656420795f8201527f6574000000000000000000000000000000000000000000000000000000000000602082015250565b5f6120c3602283611b5d565b91506120ce82612069565b604082019050919050565b5f6020820190508181035f8301526120f0816120b7565b9050919050565b7f4e6f7420656e6f7567682062616c616e636520666f72207265706179696e67005f82015250565b5f61212b601f83611b5d565b9150612136826120f7565b602082019050919050565b5f6020820190508181035f8301526121588161211f565b9050919050565b7f546869732069736e2774207265706179207965740000000000000000000000005f82015250565b5f612193601483611b5d565b915061219e8261215f565b602082019050919050565b5f6020820190508181035f8301526121c081612187565b9050919050565b7f596f7520617265206e6f7420706f73746572206f6620746865206c69737400005f82015250565b5f6121fb601e83611b5d565b9150612206826121c7565b602082019050919050565b5f6020820190508181035f830152612228816121ef565b9050919050565b7f4e6f74206f70656e696e67206c697374000000000000000000000000000000005f82015250565b5f612263601083611b5d565b915061226e8261222f565b602082019050919050565b5f6020820190508181035f83015261229081612257565b905091905056fea2646970667358221220dd50f600a86d0d73d143a6e617d1803c3d95dfc71ec61a5bb0d69ff91b6717c364736f6c63430008170033",
			"opcodes": "PUSH1 0x80 PUSH1 0x40 MSTORE PUSH1 0x1 PUSH1 0x4 SSTORE PUSH2 0x16D PUSH1 0x5 SSTORE PUSH3 0x278D00 PUSH1 0x6 SSTORE PUSH3 0x15180 PUSH1 0x7 SSTORE PUSH1 0x3C PUSH1 0x8 SSTORE CALLVALUE DUP1 ISZERO PUSH2 0x2D JUMPI PUSH0 DUP1 REVERT JUMPDEST POP PUSH2 0x22CD DUP1 PUSH2 0x3B PUSH0 CODECOPY PUSH0 RETURN INVALID PUSH1 0x80 PUSH1 0x40 MSTORE PUSH1 0x4 CALLDATASIZE LT PUSH2 0xF2 JUMPI PUSH0 CALLDATALOAD PUSH1 0xE0 SHR DUP1 PUSH4 0xAADC1AC1 GT PUSH2 0x89 JUMPI DUP1 PUSH4 0xCE5B8D35 GT PUSH2 0x58 JUMPI DUP1 PUSH4 0xCE5B8D35 EQ PUSH2 0x34C JUMPI DUP1 PUSH4 0xD9548E53 EQ PUSH2 0x374 JUMPI DUP1 PUSH4 0xE5A255CB EQ PUSH2 0x3B1 JUMPI DUP1 PUSH4 0xEEABFC4A EQ PUSH2 0x3D9 JUMPI PUSH2 0xF2 JUMP JUMPDEST DUP1 PUSH4 0xAADC1AC1 EQ PUSH2 0x29C JUMPI DUP1 PUSH4 0xAB7B1C89 EQ PUSH2 0x2B8 JUMPI DUP1 PUSH4 0xB1209D4A EQ PUSH2 0x2D4 JUMPI DUP1 PUSH4 0xB9314135 EQ PUSH2 0x310 JUMPI PUSH2 0xF2 JUMP JUMPDEST DUP1 PUSH4 0x6C59BD0C GT PUSH2 0xC5 JUMPI DUP1 PUSH4 0x6C59BD0C EQ PUSH2 0x1E6 JUMPI DUP1 PUSH4 0x880FE941 EQ PUSH2 0x20E JUMPI DUP1 PUSH4 0x8ADA066E EQ PUSH2 0x236 JUMPI DUP1 PUSH4 0x907C64F5 EQ PUSH2 0x260 JUMPI PUSH2 0xF2 JUMP JUMPDEST DUP1 PUSH4 0x84AF0B2 EQ PUSH2 0xF6 JUMPI DUP1 PUSH4 0x1AC31F0D EQ PUSH2 0x132 JUMPI DUP1 PUSH4 0x1F29D2DC EQ PUSH2 0x16E JUMPI DUP1 PUSH4 0x4F694690 EQ PUSH2 0x1AA JUMPI JUMPDEST PUSH0 DUP1 REVERT JUMPDEST CALLVALUE DUP1 ISZERO PUSH2 0x101 JUMPI PUSH0 DUP1 REVERT JUMPDEST POP PUSH2 0x11C PUSH1 0x4 DUP1 CALLDATASIZE SUB DUP2 ADD SWAP1 PUSH2 0x117 SWAP2 SWAP1 PUSH2 0x153B JUMP JUMPDEST PUSH2 0x41B JUMP JUMPDEST PUSH1 0x40 MLOAD PUSH2 0x129 SWAP2 SWAP1 PUSH2 0x1626 JUMP JUMPDEST PUSH1 0x40 MLOAD DUP1 SWAP2 SUB SWAP1 RETURN JUMPDEST CALLVALUE DUP1 ISZERO PUSH2 0x13D JUMPI PUSH0 DUP1 REVERT JUMPDEST POP PUSH2 0x158 PUSH1 0x4 DUP1 CALLDATASIZE SUB DUP2 ADD SWAP1 PUSH2 0x153 SWAP2 SWAP1 PUSH2 0x1670 JUMP JUMPDEST PUSH2 0x4AE JUMP JUMPDEST PUSH1 0x40 MLOAD PUSH2 0x165 SWAP2 SWAP1 PUSH2 0x16AA JUMP JUMPDEST PUSH1 0x40 MLOAD DUP1 SWAP2 SUB SWAP1 RETURN JUMPDEST CALLVALUE DUP1 ISZERO PUSH2 0x179 JUMPI PUSH0 DUP1 REVERT JUMPDEST POP PUSH2 0x194 PUSH1 0x4 DUP1 CALLDATASIZE SUB DUP2 ADD SWAP1 PUSH2 0x18F SWAP2 SWAP1 PUSH2 0x16C3 JUMP JUMPDEST PUSH2 0x566 JUMP JUMPDEST PUSH1 0x40 MLOAD PUSH2 0x1A1 SWAP2 SWAP1 PUSH2 0x1710 JUMP JUMPDEST PUSH1 0x40 MLOAD DUP1 SWAP2 SUB SWAP1 RETURN JUMPDEST CALLVALUE DUP1 ISZERO PUSH2 0x1B5 JUMPI PUSH0 DUP1 REVERT JUMPDEST POP PUSH2 0x1D0 PUSH1 0x4 DUP1 CALLDATASIZE SUB DUP2 ADD SWAP1 PUSH2 0x1CB SWAP2 SWAP1 PUSH2 0x153B JUMP JUMPDEST PUSH2 0x5E7 JUMP JUMPDEST PUSH1 0x40 MLOAD PUSH2 0x1DD SWAP2 SWAP1 PUSH2 0x1743 JUMP JUMPDEST PUSH1 0x40 MLOAD DUP1 SWAP2 SUB SWAP1 RETURN JUMPDEST CALLVALUE DUP1 ISZERO PUSH2 0x1F1 JUMPI PUSH0 DUP1 REVERT JUMPDEST POP PUSH2 0x20C PUSH1 0x4 DUP1 CALLDATASIZE SUB DUP2 ADD SWAP1 PUSH2 0x207 SWAP2 SWAP1 PUSH2 0x1670 JUMP JUMPDEST PUSH2 0x669 JUMP JUMPDEST STOP JUMPDEST CALLVALUE DUP1 ISZERO PUSH2 0x219 JUMPI PUSH0 DUP1 REVERT JUMPDEST POP PUSH2 0x234 PUSH1 0x4 DUP1 CALLDATASIZE SUB DUP2 ADD SWAP1 PUSH2 0x22F SWAP2 SWAP1 PUSH2 0x175C JUMP JUMPDEST PUSH2 0x682 JUMP JUMPDEST STOP JUMPDEST CALLVALUE DUP1 ISZERO PUSH2 0x241 JUMPI PUSH0 DUP1 REVERT JUMPDEST POP PUSH2 0x24A PUSH2 0xA43 JUMP JUMPDEST PUSH1 0x40 MLOAD PUSH2 0x257 SWAP2 SWAP1 PUSH2 0x16AA JUMP JUMPDEST PUSH1 0x40 MLOAD DUP1 SWAP2 SUB SWAP1 RETURN JUMPDEST CALLVALUE DUP1 ISZERO PUSH2 0x26B JUMPI PUSH0 DUP1 REVERT JUMPDEST POP PUSH2 0x286 PUSH1 0x4 DUP1 CALLDATASIZE SUB DUP2 ADD SWAP1 PUSH2 0x281 SWAP2 SWAP1 PUSH2 0x1670 JUMP JUMPDEST PUSH2 0xA4C JUMP JUMPDEST PUSH1 0x40 MLOAD PUSH2 0x293 SWAP2 SWAP1 PUSH2 0x1710 JUMP JUMPDEST PUSH1 0x40 MLOAD DUP1 SWAP2 SUB SWAP1 RETURN JUMPDEST PUSH2 0x2B6 PUSH1 0x4 DUP1 CALLDATASIZE SUB DUP2 ADD SWAP1 PUSH2 0x2B1 SWAP2 SWAP1 PUSH2 0x1670 JUMP JUMPDEST PUSH2 0xA85 JUMP JUMPDEST STOP JUMPDEST PUSH2 0x2D2 PUSH1 0x4 DUP1 CALLDATASIZE SUB DUP2 ADD SWAP1 PUSH2 0x2CD SWAP2 SWAP1 PUSH2 0x1670 JUMP JUMPDEST PUSH2 0xCF6 JUMP JUMPDEST STOP JUMPDEST CALLVALUE DUP1 ISZERO PUSH2 0x2DF JUMPI PUSH0 DUP1 REVERT JUMPDEST POP PUSH2 0x2FA PUSH1 0x4 DUP1 CALLDATASIZE SUB DUP2 ADD SWAP1 PUSH2 0x2F5 SWAP2 SWAP1 PUSH2 0x1670 JUMP JUMPDEST PUSH2 0xF7C JUMP JUMPDEST PUSH1 0x40 MLOAD PUSH2 0x307 SWAP2 SWAP1 PUSH2 0x16AA JUMP JUMPDEST PUSH1 0x40 MLOAD DUP1 SWAP2 SUB SWAP1 RETURN JUMPDEST CALLVALUE DUP1 ISZERO PUSH2 0x31B JUMPI PUSH0 DUP1 REVERT JUMPDEST POP PUSH2 0x336 PUSH1 0x4 DUP1 CALLDATASIZE SUB DUP2 ADD SWAP1 PUSH2 0x331 SWAP2 SWAP1 PUSH2 0x1670 JUMP JUMPDEST PUSH2 0xF96 JUMP JUMPDEST PUSH1 0x40 MLOAD PUSH2 0x343 SWAP2 SWAP1 PUSH2 0x18A6 JUMP JUMPDEST PUSH1 0x40 MLOAD DUP1 SWAP2 SUB SWAP1 RETURN JUMPDEST CALLVALUE DUP1 ISZERO PUSH2 0x357 JUMPI PUSH0 DUP1 REVERT JUMPDEST POP PUSH2 0x372 PUSH1 0x4 DUP1 CALLDATASIZE SUB DUP2 ADD SWAP1 PUSH2 0x36D SWAP2 SWAP1 PUSH2 0x1670 JUMP JUMPDEST PUSH2 0x109B JUMP JUMPDEST STOP JUMPDEST CALLVALUE DUP1 ISZERO PUSH2 0x37F JUMPI PUSH0 DUP1 REVERT JUMPDEST POP PUSH2 0x39A PUSH1 0x4 DUP1 CALLDATASIZE SUB DUP2 ADD SWAP1 PUSH2 0x395 SWAP2 SWAP1 PUSH2 0x1670 JUMP JUMPDEST PUSH2 0x1227 JUMP JUMPDEST PUSH1 0x40 MLOAD PUSH2 0x3A8 SWAP3 SWAP2 SWAP1 PUSH2 0x18BF JUMP JUMPDEST PUSH1 0x40 MLOAD DUP1 SWAP2 SUB SWAP1 RETURN JUMPDEST CALLVALUE DUP1 ISZERO PUSH2 0x3BC JUMPI PUSH0 DUP1 REVERT JUMPDEST POP PUSH2 0x3D7 PUSH1 0x4 DUP1 CALLDATASIZE SUB DUP2 ADD SWAP1 PUSH2 0x3D2 SWAP2 SWAP1 PUSH2 0x1670 JUMP JUMPDEST PUSH2 0x1285 JUMP JUMPDEST STOP JUMPDEST CALLVALUE DUP1 ISZERO PUSH2 0x3E4 JUMPI PUSH0 DUP1 REVERT JUMPDEST POP PUSH2 0x3FF PUSH1 0x4 DUP1 CALLDATASIZE SUB DUP2 ADD SWAP1 PUSH2 0x3FA SWAP2 SWAP1 PUSH2 0x1670 JUMP JUMPDEST PUSH2 0x13FD JUMP JUMPDEST PUSH1 0x40 MLOAD PUSH2 0x412 SWAP8 SWAP7 SWAP6 SWAP5 SWAP4 SWAP3 SWAP2 SWAP1 PUSH2 0x1904 JUMP JUMPDEST PUSH1 0x40 MLOAD DUP1 SWAP2 SUB SWAP1 RETURN JUMPDEST PUSH1 0x60 PUSH1 0x1 PUSH0 DUP4 PUSH20 0xFFFFFFFFFFFFFFFFFFFFFFFFFFFFFFFFFFFFFFFF AND PUSH20 0xFFFFFFFFFFFFFFFFFFFFFFFFFFFFFFFFFFFFFFFF AND DUP2 MSTORE PUSH1 0x20 ADD SWAP1 DUP2 MSTORE PUSH1 0x20 ADD PUSH0 KECCAK256 DUP1 SLOAD DUP1 PUSH1 0x20 MUL PUSH1 0x20 ADD PUSH1 0x40 MLOAD SWAP1 DUP2 ADD PUSH1 0x40 MSTORE DUP1 SWAP3 SWAP2 SWAP1 DUP2 DUP2 MSTORE PUSH1 0x20 ADD DUP3 DUP1 SLOAD DUP1 ISZERO PUSH2 0x4A2 JUMPI PUSH1 0x20 MUL DUP3 ADD SWAP2 SWAP1 PUSH0 MSTORE PUSH1 0x20 PUSH0 KECCAK256 SWAP1 JUMPDEST DUP2 SLOAD DUP2 MSTORE PUSH1 0x20 ADD SWAP1 PUSH1 0x1 ADD SWAP1 DUP1 DUP4 GT PUSH2 0x48E JUMPI JUMPDEST POP POP POP POP POP SWAP1 POP SWAP2 SWAP1 POP JUMP JUMPDEST PUSH0 DUP1 PUSH2 0x4B9 DUP4 PUSH2 0xF96 JUMP JUMPDEST SWAP1 POP PUSH0 PUSH2 0x3E8 DUP3 PUSH1 0xA0 ADD MLOAD PUSH2 0x4CE SWAP2 SWAP1 PUSH2 0x199E JUMP JUMPDEST SWAP1 POP PUSH0 PUSH1 0x5 SLOAD PUSH2 0x3E8 PUSH1 0x64 DUP5 DUP7 PUSH1 0x60 ADD MLOAD PUSH2 0x4E9 SWAP2 SWAP1 PUSH2 0x199E JUMP JUMPDEST PUSH2 0x4F3 SWAP2 SWAP1 PUSH2 0x1A0C JUMP JUMPDEST PUSH2 0x4FD SWAP2 SWAP1 PUSH2 0x1A0C JUMP JUMPDEST PUSH2 0x507 SWAP2 SWAP1 PUSH2 0x1A0C JUMP JUMPDEST SWAP1 POP PUSH0 PUSH1 0x7 SLOAD PUSH1 0x2 PUSH0 DUP9 DUP2 MSTORE PUSH1 0x20 ADD SWAP1 DUP2 MSTORE PUSH1 0x20 ADD PUSH0 KECCAK256 SLOAD TIMESTAMP PUSH2 0x52A SWAP2 SWAP1 PUSH2 0x1A3C JUMP JUMPDEST PUSH2 0x534 SWAP2 SWAP1 PUSH2 0x1A0C JUMP JUMPDEST SWAP1 POP PUSH0 DUP2 DUP4 PUSH2 0x543 SWAP2 SWAP1 PUSH2 0x199E JUMP JUMPDEST SWAP1 POP PUSH0 DUP2 DUP7 PUSH1 0x60 ADD MLOAD PUSH2 0x556 SWAP2 SWAP1 PUSH2 0x1A6F JUMP JUMPDEST SWAP1 POP DUP1 SWAP7 POP POP POP POP POP POP POP SWAP2 SWAP1 POP JUMP JUMPDEST PUSH0 DUP3 PUSH20 0xFFFFFFFFFFFFFFFFFFFFFFFFFFFFFFFFFFFFFFFF AND PUSH4 0x6352211E DUP4 PUSH1 0x40 MLOAD DUP3 PUSH4 0xFFFFFFFF AND PUSH1 0xE0 SHL DUP2 MSTORE PUSH1 0x4 ADD PUSH2 0x5A0 SWAP2 SWAP1 PUSH2 0x16AA JUMP JUMPDEST PUSH1 0x20 PUSH1 0x40 MLOAD DUP1 DUP4 SUB DUP2 DUP7 GAS STATICCALL ISZERO DUP1 ISZERO PUSH2 0x5BB JUMPI RETURNDATASIZE PUSH0 DUP1 RETURNDATACOPY RETURNDATASIZE PUSH0 REVERT JUMPDEST POP POP POP POP PUSH1 0x40 MLOAD RETURNDATASIZE PUSH1 0x1F NOT PUSH1 0x1F DUP3 ADD AND DUP3 ADD DUP1 PUSH1 0x40 MSTORE POP DUP2 ADD SWAP1 PUSH2 0x5DF SWAP2 SWAP1 PUSH2 0x1AB6 JUMP JUMPDEST SWAP1 POP SWAP3 SWAP2 POP POP JUMP JUMPDEST PUSH0 DUP2 PUSH20 0xFFFFFFFFFFFFFFFFFFFFFFFFFFFFFFFFFFFFFFFF AND PUSH4 0xE985E9C5 CALLER ADDRESS PUSH1 0x40 MLOAD DUP4 PUSH4 0xFFFFFFFF AND PUSH1 0xE0 SHL DUP2 MSTORE PUSH1 0x4 ADD PUSH2 0x623 SWAP3 SWAP2 SWAP1 PUSH2 0x1AE1 JUMP JUMPDEST PUSH1 0x20 PUSH1 0x40 MLOAD DUP1 DUP4 SUB DUP2 DUP7 GAS STATICCALL ISZERO DUP1 ISZERO PUSH2 0x63E JUMPI RETURNDATASIZE PUSH0 DUP1 RETURNDATACOPY RETURNDATASIZE PUSH0 REVERT JUMPDEST POP POP POP POP PUSH1 0x40 MLOAD RETURNDATASIZE PUSH1 0x1F NOT PUSH1 0x1F DUP3 ADD AND DUP3 ADD DUP1 PUSH1 0x40 MSTORE POP DUP2 ADD SWAP1 PUSH2 0x662 SWAP2 SWAP1 PUSH2 0x1B32 JUMP JUMPDEST SWAP1 POP SWAP2 SWAP1 POP JUMP JUMPDEST TIMESTAMP PUSH1 0x2 PUSH0 DUP4 DUP2 MSTORE PUSH1 0x20 ADD SWAP1 DUP2 MSTORE PUSH1 0x20 ADD PUSH0 KECCAK256 DUP2 SWAP1 SSTORE POP POP JUMP JUMPDEST PUSH0 DUP4 GT DUP1 ISZERO PUSH2 0x690 JUMPI POP PUSH0 DUP3 GT JUMPDEST DUP1 ISZERO PUSH2 0x69B JUMPI POP PUSH0 DUP2 GT JUMPDEST PUSH2 0x6DA JUMPI PUSH1 0x40 MLOAD PUSH32 0x8C379A000000000000000000000000000000000000000000000000000000000 DUP2 MSTORE PUSH1 0x4 ADD PUSH2 0x6D1 SWAP1 PUSH2 0x1BB7 JUMP JUMPDEST PUSH1 0x40 MLOAD DUP1 SWAP2 SUB SWAP1 REVERT JUMPDEST CALLER PUSH20 0xFFFFFFFFFFFFFFFFFFFFFFFFFFFFFFFFFFFFFFFF AND DUP6 PUSH20 0xFFFFFFFFFFFFFFFFFFFFFFFFFFFFFFFFFFFFFFFF AND PUSH4 0x6352211E DUP7 PUSH1 0x40 MLOAD DUP3 PUSH4 0xFFFFFFFF AND PUSH1 0xE0 SHL DUP2 MSTORE PUSH1 0x4 ADD PUSH2 0x72A SWAP2 SWAP1 PUSH2 0x16AA JUMP JUMPDEST PUSH1 0x20 PUSH1 0x40 MLOAD DUP1 DUP4 SUB DUP2 DUP7 GAS STATICCALL ISZERO DUP1 ISZERO PUSH2 0x745 JUMPI RETURNDATASIZE PUSH0 DUP1 RETURNDATACOPY RETURNDATASIZE PUSH0 REVERT JUMPDEST POP POP POP POP PUSH1 0x40 MLOAD RETURNDATASIZE PUSH1 0x1F NOT PUSH1 0x1F DUP3 ADD AND DUP3 ADD DUP1 PUSH1 0x40 MSTORE POP DUP2 ADD SWAP1 PUSH2 0x769 SWAP2 SWAP1 PUSH2 0x1AB6 JUMP JUMPDEST PUSH20 0xFFFFFFFFFFFFFFFFFFFFFFFFFFFFFFFFFFFFFFFF AND EQ PUSH2 0x7BF JUMPI PUSH1 0x40 MLOAD PUSH32 0x8C379A000000000000000000000000000000000000000000000000000000000 DUP2 MSTORE PUSH1 0x4 ADD PUSH2 0x7B6 SWAP1 PUSH2 0x1C1F JUMP JUMPDEST PUSH1 0x40 MLOAD DUP1 SWAP2 SUB SWAP1 REVERT JUMPDEST PUSH0 PUSH1 0x40 MLOAD DUP1 PUSH1 0xE0 ADD PUSH1 0x40 MSTORE DUP1 CALLER PUSH20 0xFFFFFFFFFFFFFFFFFFFFFFFFFFFFFFFFFFFFFFFF AND DUP2 MSTORE PUSH1 0x20 ADD DUP8 PUSH20 0xFFFFFFFFFFFFFFFFFFFFFFFFFFFFFFFFFFFFFFFF AND DUP2 MSTORE PUSH1 0x20 ADD DUP7 DUP2 MSTORE PUSH1 0x20 ADD DUP6 DUP2 MSTORE PUSH1 0x20 ADD DUP5 DUP2 MSTORE PUSH1 0x20 ADD DUP4 DUP2 MSTORE PUSH1 0x20 ADD PUSH32 0x6F70656E00000000000000000000000000000000000000000000000000000000 DUP2 MSTORE POP SWAP1 POP DUP1 PUSH0 DUP1 PUSH1 0x4 SLOAD DUP2 MSTORE PUSH1 0x20 ADD SWAP1 DUP2 MSTORE PUSH1 0x20 ADD PUSH0 KECCAK256 PUSH0 DUP3 ADD MLOAD DUP2 PUSH0 ADD PUSH0 PUSH2 0x100 EXP DUP2 SLOAD DUP2 PUSH20 0xFFFFFFFFFFFFFFFFFFFFFFFFFFFFFFFFFFFFFFFF MUL NOT AND SWAP1 DUP4 PUSH20 0xFFFFFFFFFFFFFFFFFFFFFFFFFFFFFFFFFFFFFFFF AND MUL OR SWAP1 SSTORE POP PUSH1 0x20 DUP3 ADD MLOAD DUP2 PUSH1 0x1 ADD PUSH0 PUSH2 0x100 EXP DUP2 SLOAD DUP2 PUSH20 0xFFFFFFFFFFFFFFFFFFFFFFFFFFFFFFFFFFFFFFFF MUL NOT AND SWAP1 DUP4 PUSH20 0xFFFFFFFFFFFFFFFFFFFFFFFFFFFFFFFFFFFFFFFF AND MUL OR SWAP1 SSTORE POP PUSH1 0x40 DUP3 ADD MLOAD DUP2 PUSH1 0x2 ADD SSTORE PUSH1 0x60 DUP3 ADD MLOAD DUP2 PUSH1 0x3 ADD SSTORE PUSH1 0x80 DUP3 ADD MLOAD DUP2 PUSH1 0x4 ADD SSTORE PUSH1 0xA0 DUP3 ADD MLOAD DUP2 PUSH1 0x5 ADD SSTORE PUSH1 0xC0 DUP3 ADD MLOAD DUP2 PUSH1 0x6 ADD SSTORE SWAP1 POP POP PUSH1 0x1 PUSH0 CALLER PUSH20 0xFFFFFFFFFFFFFFFFFFFFFFFFFFFFFFFFFFFFFFFF AND PUSH20 0xFFFFFFFFFFFFFFFFFFFFFFFFFFFFFFFFFFFFFFFF AND DUP2 MSTORE PUSH1 0x20 ADD SWAP1 DUP2 MSTORE PUSH1 0x20 ADD PUSH0 KECCAK256 PUSH1 0x4 SLOAD SWAP1 DUP1 PUSH1 0x1 DUP2 SLOAD ADD DUP1 DUP3 SSTORE DUP1 SWAP2 POP POP PUSH1 0x1 SWAP1 SUB SWAP1 PUSH0 MSTORE PUSH1 0x20 PUSH0 KECCAK256 ADD PUSH0 SWAP1 SWAP2 SWAP1 SWAP2 SWAP1 SWAP2 POP SSTORE DUP6 PUSH20 0xFFFFFFFFFFFFFFFFFFFFFFFFFFFFFFFFFFFFFFFF AND PUSH4 0x23B872DD CALLER ADDRESS DUP9 PUSH1 0x40 MLOAD DUP5 PUSH4 0xFFFFFFFF AND PUSH1 0xE0 SHL DUP2 MSTORE PUSH1 0x4 ADD PUSH2 0x9B3 SWAP4 SWAP3 SWAP2 SWAP1 PUSH2 0x1C3D JUMP JUMPDEST PUSH0 PUSH1 0x40 MLOAD DUP1 DUP4 SUB DUP2 PUSH0 DUP8 DUP1 EXTCODESIZE ISZERO DUP1 ISZERO PUSH2 0x9CA JUMPI PUSH0 DUP1 REVERT JUMPDEST POP GAS CALL ISZERO DUP1 ISZERO PUSH2 0x9DC JUMPI RETURNDATASIZE PUSH0 DUP1 RETURNDATACOPY RETURNDATASIZE PUSH0 REVERT JUMPDEST POP POP POP POP PUSH2 0x9EB PUSH1 0x4 SLOAD PUSH2 0x669 JUMP JUMPDEST PUSH1 0x4 PUSH0 DUP2 SLOAD DUP1 SWAP3 SWAP2 SWAP1 PUSH2 0x9FD SWAP1 PUSH2 0x1C72 JUMP JUMPDEST SWAP2 SWAP1 POP SSTORE POP PUSH32 0xF767AD1AE2D5476327F80BEF89FBC70354C993E3059ED3D504D127921F60C40B CALLER DUP3 PUSH1 0x40 MLOAD PUSH2 0xA33 SWAP3 SWAP2 SWAP1 PUSH2 0x1CB9 JUMP JUMPDEST PUSH1 0x40 MLOAD DUP1 SWAP2 SUB SWAP1 LOG1 POP POP POP POP POP POP JUMP JUMPDEST PUSH0 PUSH1 0x4 SLOAD SWAP1 POP SWAP1 JUMP JUMPDEST PUSH0 PUSH1 0x3 PUSH0 DUP4 DUP2 MSTORE PUSH1 0x20 ADD SWAP1 DUP2 MSTORE PUSH1 0x20 ADD PUSH0 KECCAK256 PUSH0 SWAP1 SLOAD SWAP1 PUSH2 0x100 EXP SWAP1 DIV PUSH20 0xFFFFFFFFFFFFFFFFFFFFFFFFFFFFFFFFFFFFFFFF AND SWAP1 POP SWAP2 SWAP1 POP JUMP JUMPDEST PUSH0 DUP1 PUSH0 DUP4 DUP2 MSTORE PUSH1 0x20 ADD SWAP1 DUP2 MSTORE PUSH1 0x20 ADD PUSH0 KECCAK256 SWAP1 POP DUP1 PUSH0 ADD PUSH0 SWAP1 SLOAD SWAP1 PUSH2 0x100 EXP SWAP1 DIV PUSH20 0xFFFFFFFFFFFFFFFFFFFFFFFFFFFFFFFFFFFFFFFF AND PUSH20 0xFFFFFFFFFFFFFFFFFFFFFFFFFFFFFFFFFFFFFFFF AND CALLER PUSH20 0xFFFFFFFFFFFFFFFFFFFFFFFFFFFFFFFFFFFFFFFF AND SUB PUSH2 0xB28 JUMPI PUSH1 0x40 MLOAD PUSH32 0x8C379A000000000000000000000000000000000000000000000000000000000 DUP2 MSTORE PUSH1 0x4 ADD PUSH2 0xB1F SWAP1 PUSH2 0x1D2B JUMP JUMPDEST PUSH1 0x40 MLOAD DUP1 SWAP2 SUB SWAP1 REVERT JUMPDEST PUSH0 PUSH8 0xDE0B6B3A7640000 DUP3 PUSH1 0x3 ADD SLOAD PUSH2 0xB41 SWAP2 SWAP1 PUSH2 0x199E JUMP JUMPDEST SWAP1 POP DUP1 CALLER PUSH20 0xFFFFFFFFFFFFFFFFFFFFFFFFFFFFFFFFFFFFFFFF AND BALANCE LT ISZERO PUSH2 0xB9D JUMPI PUSH1 0x40 MLOAD PUSH32 0x8C379A000000000000000000000000000000000000000000000000000000000 DUP2 MSTORE PUSH1 0x4 ADD PUSH2 0xB94 SWAP1 PUSH2 0x1DB9 JUMP JUMPDEST PUSH1 0x40 MLOAD DUP1 SWAP2 SUB SWAP1 REVERT JUMPDEST PUSH32 0x657865637574696E670000000000000000000000000000000000000000000000 DUP3 PUSH1 0x6 ADD DUP2 SWAP1 SSTORE POP CALLER PUSH1 0x3 PUSH0 DUP6 DUP2 MSTORE PUSH1 0x20 ADD SWAP1 DUP2 MSTORE PUSH1 0x20 ADD PUSH0 KECCAK256 PUSH0 PUSH2 0x100 EXP DUP2 SLOAD DUP2 PUSH20 0xFFFFFFFFFFFFFFFFFFFFFFFFFFFFFFFFFFFFFFFF MUL NOT AND SWAP1 DUP4 PUSH20 0xFFFFFFFFFFFFFFFFFFFFFFFFFFFFFFFFFFFFFFFF AND MUL OR SWAP1 SSTORE POP PUSH2 0xC1E DUP4 PUSH2 0x669 JUMP JUMPDEST PUSH0 DUP3 PUSH0 ADD PUSH0 SWAP1 SLOAD SWAP1 PUSH2 0x100 EXP SWAP1 DIV PUSH20 0xFFFFFFFFFFFFFFFFFFFFFFFFFFFFFFFFFFFFFFFF AND PUSH20 0xFFFFFFFFFFFFFFFFFFFFFFFFFFFFFFFFFFFFFFFF AND PUSH2 0x8FC CALLVALUE SWAP1 DUP2 ISZERO MUL SWAP1 PUSH1 0x40 MLOAD PUSH0 PUSH1 0x40 MLOAD DUP1 DUP4 SUB DUP2 DUP6 DUP9 DUP9 CALL SWAP4 POP POP POP POP SWAP1 POP DUP1 PUSH2 0xCB7 JUMPI PUSH1 0x40 MLOAD PUSH32 0x8C379A000000000000000000000000000000000000000000000000000000000 DUP2 MSTORE PUSH1 0x4 ADD PUSH2 0xCAE SWAP1 PUSH2 0x1E21 JUMP JUMPDEST PUSH1 0x40 MLOAD DUP1 SWAP2 SUB SWAP1 REVERT JUMPDEST PUSH32 0xCBE547358B7D8CEB07AE8BAAE08D35680E6C6C69046525B09DC9BB8F53F708FD CALLER DUP5 PUSH1 0x40 MLOAD PUSH2 0xCE8 SWAP3 SWAP2 SWAP1 PUSH2 0x1FD9 JUMP JUMPDEST PUSH1 0x40 MLOAD DUP1 SWAP2 SUB SWAP1 LOG1 POP POP POP POP JUMP JUMPDEST PUSH0 DUP1 PUSH0 DUP4 DUP2 MSTORE PUSH1 0x20 ADD SWAP1 DUP2 MSTORE PUSH1 0x20 ADD PUSH0 KECCAK256 SWAP1 POP CALLER PUSH20 0xFFFFFFFFFFFFFFFFFFFFFFFFFFFFFFFFFFFFFFFF AND DUP2 PUSH0 ADD PUSH0 SWAP1 SLOAD SWAP1 PUSH2 0x100 EXP SWAP1 DIV PUSH20 0xFFFFFFFFFFFFFFFFFFFFFFFFFFFFFFFFFFFFFFFF AND PUSH20 0xFFFFFFFFFFFFFFFFFFFFFFFFFFFFFFFFFFFFFFFF AND EQ PUSH2 0xD99 JUMPI PUSH1 0x40 MLOAD PUSH32 0x8C379A000000000000000000000000000000000000000000000000000000000 DUP2 MSTORE PUSH1 0x4 ADD PUSH2 0xD90 SWAP1 PUSH2 0x204B JUMP JUMPDEST PUSH1 0x40 MLOAD DUP1 SWAP2 SUB SWAP1 REVERT JUMPDEST PUSH32 0x657865637574696E670000000000000000000000000000000000000000000000 DUP2 PUSH1 0x6 ADD SLOAD EQ PUSH2 0xDFF JUMPI PUSH1 0x40 MLOAD PUSH32 0x8C379A000000000000000000000000000000000000000000000000000000000 DUP2 MSTORE PUSH1 0x4 ADD PUSH2 0xDF6 SWAP1 PUSH2 0x20D9 JUMP JUMPDEST PUSH1 0x40 MLOAD DUP1 SWAP2 SUB SWAP1 REVERT JUMPDEST PUSH0 PUSH2 0xE09 DUP4 PUSH2 0x4AE JUMP JUMPDEST SWAP1 POP CALLER PUSH20 0xFFFFFFFFFFFFFFFFFFFFFFFFFFFFFFFFFFFFFFFF AND BALANCE DUP2 LT PUSH2 0xE64 JUMPI PUSH1 0x40 MLOAD PUSH32 0x8C379A000000000000000000000000000000000000000000000000000000000 DUP2 MSTORE PUSH1 0x4 ADD PUSH2 0xE5B SWAP1 PUSH2 0x2141 JUMP JUMPDEST PUSH1 0x40 MLOAD DUP1 SWAP2 SUB SWAP1 REVERT JUMPDEST PUSH0 PUSH1 0x3 PUSH0 DUP6 DUP2 MSTORE PUSH1 0x20 ADD SWAP1 DUP2 MSTORE PUSH1 0x20 ADD PUSH0 KECCAK256 PUSH0 SWAP1 SLOAD SWAP1 PUSH2 0x100 EXP SWAP1 DIV PUSH20 0xFFFFFFFFFFFFFFFFFFFFFFFFFFFFFFFFFFFFFFFF AND PUSH20 0xFFFFFFFFFFFFFFFFFFFFFFFFFFFFFFFFFFFFFFFF AND PUSH2 0x8FC CALLVALUE SWAP1 DUP2 ISZERO MUL SWAP1 PUSH1 0x40 MLOAD PUSH0 PUSH1 0x40 MLOAD DUP1 DUP4 SUB DUP2 DUP6 DUP9 DUP9 CALL SWAP4 POP POP POP POP SWAP1 POP DUP1 PUSH2 0xF0B JUMPI PUSH1 0x40 MLOAD PUSH32 0x8C379A000000000000000000000000000000000000000000000000000000000 DUP2 MSTORE PUSH1 0x4 ADD PUSH2 0xF02 SWAP1 PUSH2 0x1E21 JUMP JUMPDEST PUSH1 0x40 MLOAD DUP1 SWAP2 SUB SWAP1 REVERT JUMPDEST PUSH32 0x7265706179656400000000000000000000000000000000000000000000000000 DUP4 PUSH1 0x6 ADD DUP2 SWAP1 SSTORE POP PUSH2 0xF3D DUP5 PUSH2 0x109B JUMP JUMPDEST PUSH32 0x94E7116AA05F19F109F7FA598F65ADE35AB1DE8CD3D002B5B2205416E8943E65 CALLER DUP5 PUSH1 0x40 MLOAD PUSH2 0xF6E SWAP3 SWAP2 SWAP1 PUSH2 0x1FD9 JUMP JUMPDEST PUSH1 0x40 MLOAD DUP1 SWAP2 SUB SWAP1 LOG1 POP POP POP POP JUMP JUMPDEST PUSH0 PUSH1 0x2 PUSH0 DUP4 DUP2 MSTORE PUSH1 0x20 ADD SWAP1 DUP2 MSTORE PUSH1 0x20 ADD PUSH0 KECCAK256 SLOAD SWAP1 POP SWAP2 SWAP1 POP JUMP JUMPDEST PUSH2 0xF9E PUSH2 0x1478 JUMP JUMPDEST PUSH0 DUP1 DUP4 DUP2 MSTORE PUSH1 0x20 ADD SWAP1 DUP2 MSTORE PUSH1 0x20 ADD PUSH0 KECCAK256 PUSH1 0x40 MLOAD DUP1 PUSH1 0xE0 ADD PUSH1 0x40 MSTORE SWAP1 DUP2 PUSH0 DUP3 ADD PUSH0 SWAP1 SLOAD SWAP1 PUSH2 0x100 EXP SWAP1 DIV PUSH20 0xFFFFFFFFFFFFFFFFFFFFFFFFFFFFFFFFFFFFFFFF AND PUSH20 0xFFFFFFFFFFFFFFFFFFFFFFFFFFFFFFFFFFFFFFFF AND PUSH20 0xFFFFFFFFFFFFFFFFFFFFFFFFFFFFFFFFFFFFFFFF AND DUP2 MSTORE PUSH1 0x20 ADD PUSH1 0x1 DUP3 ADD PUSH0 SWAP1 SLOAD SWAP1 PUSH2 0x100 EXP SWAP1 DIV PUSH20 0xFFFFFFFFFFFFFFFFFFFFFFFFFFFFFFFFFFFFFFFF AND PUSH20 0xFFFFFFFFFFFFFFFFFFFFFFFFFFFFFFFFFFFFFFFF AND PUSH20 0xFFFFFFFFFFFFFFFFFFFFFFFFFFFFFFFFFFFFFFFF AND DUP2 MSTORE PUSH1 0x20 ADD PUSH1 0x2 DUP3 ADD SLOAD DUP2 MSTORE PUSH1 0x20 ADD PUSH1 0x3 DUP3 ADD SLOAD DUP2 MSTORE PUSH1 0x20 ADD PUSH1 0x4 DUP3 ADD SLOAD DUP2 MSTORE PUSH1 0x20 ADD PUSH1 0x5 DUP3 ADD SLOAD DUP2 MSTORE PUSH1 0x20 ADD PUSH1 0x6 DUP3 ADD SLOAD DUP2 MSTORE POP POP SWAP1 POP SWAP2 SWAP1 POP JUMP JUMPDEST PUSH0 PUSH2 0x10A5 DUP3 PUSH2 0xF96 JUMP JUMPDEST SWAP1 POP CALLER PUSH20 0xFFFFFFFFFFFFFFFFFFFFFFFFFFFFFFFFFFFFFFFF AND DUP2 PUSH0 ADD MLOAD PUSH20 0xFFFFFFFFFFFFFFFFFFFFFFFFFFFFFFFFFFFFFFFF AND EQ PUSH2 0x1118 JUMPI PUSH1 0x40 MLOAD PUSH32 0x8C379A000000000000000000000000000000000000000000000000000000000 DUP2 MSTORE PUSH1 0x4 ADD PUSH2 0x110F SWAP1 PUSH2 0x204B JUMP JUMPDEST PUSH1 0x40 MLOAD DUP1 SWAP2 SUB SWAP1 REVERT JUMPDEST PUSH32 0x7265706179656400000000000000000000000000000000000000000000000000 DUP2 PUSH1 0xC0 ADD MLOAD EQ PUSH2 0x117E JUMPI PUSH1 0x40 MLOAD PUSH32 0x8C379A000000000000000000000000000000000000000000000000000000000 DUP2 MSTORE PUSH1 0x4 ADD PUSH2 0x1175 SWAP1 PUSH2 0x21A9 JUMP JUMPDEST PUSH1 0x40 MLOAD DUP1 SWAP2 SUB SWAP1 REVERT JUMPDEST DUP1 PUSH1 0x20 ADD MLOAD PUSH20 0xFFFFFFFFFFFFFFFFFFFFFFFFFFFFFFFFFFFFFFFF AND PUSH4 0x23B872DD ADDRESS CALLER DUP5 PUSH1 0x40 ADD MLOAD PUSH1 0x40 MLOAD DUP5 PUSH4 0xFFFFFFFF AND PUSH1 0xE0 SHL DUP2 MSTORE PUSH1 0x4 ADD PUSH2 0x11C3 SWAP4 SWAP3 SWAP2 SWAP1 PUSH2 0x1C3D JUMP JUMPDEST PUSH0 PUSH1 0x40 MLOAD DUP1 DUP4 SUB DUP2 PUSH0 DUP8 DUP1 EXTCODESIZE ISZERO DUP1 ISZERO PUSH2 0x11DA JUMPI PUSH0 DUP1 REVERT JUMPDEST POP GAS CALL ISZERO DUP1 ISZERO PUSH2 0x11EC JUMPI RETURNDATASIZE PUSH0 DUP1 RETURNDATACOPY RETURNDATASIZE PUSH0 REVERT JUMPDEST POP POP POP POP PUSH32 0x636C6F7365640000000000000000000000000000000000000000000000000000 DUP2 PUSH1 0xC0 ADD DUP2 DUP2 MSTORE POP POP PUSH2 0x1223 DUP3 PUSH2 0x669 JUMP JUMPDEST POP POP JUMP JUMPDEST PUSH0 DUP1 PUSH0 PUSH2 0x1233 DUP5 PUSH2 0xF96 JUMP JUMPDEST SWAP1 POP PUSH0 PUSH1 0x8 SLOAD DUP3 PUSH1 0x80 ADD MLOAD PUSH2 0x1248 SWAP2 SWAP1 PUSH2 0x199E JUMP JUMPDEST PUSH1 0x2 PUSH0 DUP8 DUP2 MSTORE PUSH1 0x20 ADD SWAP1 DUP2 MSTORE PUSH1 0x20 ADD PUSH0 KECCAK256 SLOAD PUSH2 0x1264 SWAP2 SWAP1 PUSH2 0x1A6F JUMP JUMPDEST SWAP1 POP PUSH0 TIMESTAMP DUP3 PUSH2 0x1273 SWAP2 SWAP1 PUSH2 0x1A3C JUMP JUMPDEST SWAP1 POP DUP1 PUSH0 DUP3 LT SWAP5 POP SWAP5 POP POP POP POP SWAP2 POP SWAP2 JUMP JUMPDEST PUSH0 DUP1 PUSH0 DUP4 DUP2 MSTORE PUSH1 0x20 ADD SWAP1 DUP2 MSTORE PUSH1 0x20 ADD PUSH0 KECCAK256 SWAP1 POP CALLER PUSH20 0xFFFFFFFFFFFFFFFFFFFFFFFFFFFFFFFFFFFFFFFF AND DUP2 PUSH0 ADD PUSH0 SWAP1 SLOAD SWAP1 PUSH2 0x100 EXP SWAP1 DIV PUSH20 0xFFFFFFFFFFFFFFFFFFFFFFFFFFFFFFFFFFFFFFFF AND PUSH20 0xFFFFFFFFFFFFFFFFFFFFFFFFFFFFFFFFFFFFFFFF AND EQ PUSH2 0x1328 JUMPI PUSH1 0x40 MLOAD PUSH32 0x8C379A000000000000000000000000000000000000000000000000000000000 DUP2 MSTORE PUSH1 0x4 ADD PUSH2 0x131F SWAP1 PUSH2 0x2211 JUMP JUMPDEST PUSH1 0x40 MLOAD DUP1 SWAP2 SUB SWAP1 REVERT JUMPDEST PUSH32 0x6F70656E00000000000000000000000000000000000000000000000000000000 DUP2 PUSH1 0x6 ADD SLOAD EQ PUSH2 0x138E JUMPI PUSH1 0x40 MLOAD PUSH32 0x8C379A000000000000000000000000000000000000000000000000000000000 DUP2 MSTORE PUSH1 0x4 ADD PUSH2 0x1385 SWAP1 PUSH2 0x2279 JUMP JUMPDEST PUSH1 0x40 MLOAD DUP1 SWAP2 SUB SWAP1 REVERT JUMPDEST PUSH32 0x63616E63656C0000000000000000000000000000000000000000000000000000 DUP2 PUSH1 0x6 ADD DUP2 SWAP1 SSTORE POP PUSH2 0x13C0 DUP3 PUSH2 0x669 JUMP JUMPDEST PUSH32 0x7E885013CA94016B1452B4678F1C43C33CD914617B389322AF7F7D97A2C4F585 CALLER DUP3 PUSH1 0x40 MLOAD PUSH2 0x13F1 SWAP3 SWAP2 SWAP1 PUSH2 0x1FD9 JUMP JUMPDEST PUSH1 0x40 MLOAD DUP1 SWAP2 SUB SWAP1 LOG1 POP POP JUMP JUMPDEST PUSH0 PUSH1 0x20 MSTORE DUP1 PUSH0 MSTORE PUSH1 0x40 PUSH0 KECCAK256 PUSH0 SWAP2 POP SWAP1 POP DUP1 PUSH0 ADD PUSH0 SWAP1 SLOAD SWAP1 PUSH2 0x100 EXP SWAP1 DIV PUSH20 0xFFFFFFFFFFFFFFFFFFFFFFFFFFFFFFFFFFFFFFFF AND SWAP1 DUP1 PUSH1 0x1 ADD PUSH0 SWAP1 SLOAD SWAP1 PUSH2 0x100 EXP SWAP1 DIV PUSH20 0xFFFFFFFFFFFFFFFFFFFFFFFFFFFFFFFFFFFFFFFF AND SWAP1 DUP1 PUSH1 0x2 ADD SLOAD SWAP1 DUP1 PUSH1 0x3 ADD SLOAD SWAP1 DUP1 PUSH1 0x4 ADD SLOAD SWAP1 DUP1 PUSH1 0x5 ADD SLOAD SWAP1 DUP1 PUSH1 0x6 ADD SLOAD SWAP1 POP DUP8 JUMP JUMPDEST PUSH1 0x40 MLOAD DUP1 PUSH1 0xE0 ADD PUSH1 0x40 MSTORE DUP1 PUSH0 PUSH20 0xFFFFFFFFFFFFFFFFFFFFFFFFFFFFFFFFFFFFFFFF AND DUP2 MSTORE PUSH1 0x20 ADD PUSH0 PUSH20 0xFFFFFFFFFFFFFFFFFFFFFFFFFFFFFFFFFFFFFFFF AND DUP2 MSTORE PUSH1 0x20 ADD PUSH0 DUP2 MSTORE PUSH1 0x20 ADD PUSH0 DUP2 MSTORE PUSH1 0x20 ADD PUSH0 DUP2 MSTORE PUSH1 0x20 ADD PUSH0 DUP2 MSTORE PUSH1 0x20 ADD PUSH0 DUP1 NOT AND DUP2 MSTORE POP SWAP1 JUMP JUMPDEST PUSH0 DUP1 REVERT JUMPDEST PUSH0 PUSH20 0xFFFFFFFFFFFFFFFFFFFFFFFFFFFFFFFFFFFFFFFF DUP3 AND SWAP1 POP SWAP2 SWAP1 POP JUMP JUMPDEST PUSH0 PUSH2 0x150A DUP3 PUSH2 0x14E1 JUMP JUMPDEST SWAP1 POP SWAP2 SWAP1 POP JUMP JUMPDEST PUSH2 0x151A DUP2 PUSH2 0x1500 JUMP JUMPDEST DUP2 EQ PUSH2 0x1524 JUMPI PUSH0 DUP1 REVERT JUMPDEST POP JUMP JUMPDEST PUSH0 DUP2 CALLDATALOAD SWAP1 POP PUSH2 0x1535 DUP2 PUSH2 0x1511 JUMP JUMPDEST SWAP3 SWAP2 POP POP JUMP JUMPDEST PUSH0 PUSH1 0x20 DUP3 DUP5 SUB SLT ISZERO PUSH2 0x1550 JUMPI PUSH2 0x154F PUSH2 0x14DD JUMP JUMPDEST JUMPDEST PUSH0 PUSH2 0x155D DUP5 DUP3 DUP6 ADD PUSH2 0x1527 JUMP JUMPDEST SWAP2 POP POP SWAP3 SWAP2 POP POP JUMP JUMPDEST PUSH0 DUP2 MLOAD SWAP1 POP SWAP2 SWAP1 POP JUMP JUMPDEST PUSH0 DUP3 DUP3 MSTORE PUSH1 0x20 DUP3 ADD SWAP1 POP SWAP3 SWAP2 POP POP JUMP JUMPDEST PUSH0 DUP2 SWAP1 POP PUSH1 0x20 DUP3 ADD SWAP1 POP SWAP2 SWAP1 POP JUMP JUMPDEST PUSH0 DUP2 SWAP1 POP SWAP2 SWAP1 POP JUMP JUMPDEST PUSH2 0x15A1 DUP2 PUSH2 0x158F JUMP JUMPDEST DUP3 MSTORE POP POP JUMP JUMPDEST PUSH0 PUSH2 0x15B2 DUP4 DUP4 PUSH2 0x1598 JUMP JUMPDEST PUSH1 0x20 DUP4 ADD SWAP1 POP SWAP3 SWAP2 POP POP JUMP JUMPDEST PUSH0 PUSH1 0x20 DUP3 ADD SWAP1 POP SWAP2 SWAP1 POP JUMP JUMPDEST PUSH0 PUSH2 0x15D4 DUP3 PUSH2 0x1566 JUMP JUMPDEST PUSH2 0x15DE DUP2 DUP6 PUSH2 0x1570 JUMP JUMPDEST SWAP4 POP PUSH2 0x15E9 DUP4 PUSH2 0x1580 JUMP JUMPDEST DUP1 PUSH0 JUMPDEST DUP4 DUP2 LT ISZERO PUSH2 0x1619 JUMPI DUP2 MLOAD PUSH2 0x1600 DUP9 DUP3 PUSH2 0x15A7 JUMP JUMPDEST SWAP8 POP PUSH2 0x160B DUP4 PUSH2 0x15BE JUMP JUMPDEST SWAP3 POP POP PUSH1 0x1 DUP2 ADD SWAP1 POP PUSH2 0x15EC JUMP JUMPDEST POP DUP6 SWAP4 POP POP POP POP SWAP3 SWAP2 POP POP JUMP JUMPDEST PUSH0 PUSH1 0x20 DUP3 ADD SWAP1 POP DUP2 DUP2 SUB PUSH0 DUP4 ADD MSTORE PUSH2 0x163E DUP2 DUP5 PUSH2 0x15CA JUMP JUMPDEST SWAP1 POP SWAP3 SWAP2 POP POP JUMP JUMPDEST PUSH2 0x164F DUP2 PUSH2 0x158F JUMP JUMPDEST DUP2 EQ PUSH2 0x1659 JUMPI PUSH0 DUP1 REVERT JUMPDEST POP JUMP JUMPDEST PUSH0 DUP2 CALLDATALOAD SWAP1 POP PUSH2 0x166A DUP2 PUSH2 0x1646 JUMP JUMPDEST SWAP3 SWAP2 POP POP JUMP JUMPDEST PUSH0 PUSH1 0x20 DUP3 DUP5 SUB SLT ISZERO PUSH2 0x1685 JUMPI PUSH2 0x1684 PUSH2 0x14DD JUMP JUMPDEST JUMPDEST PUSH0 PUSH2 0x1692 DUP5 DUP3 DUP6 ADD PUSH2 0x165C JUMP JUMPDEST SWAP2 POP POP SWAP3 SWAP2 POP POP JUMP JUMPDEST PUSH2 0x16A4 DUP2 PUSH2 0x158F JUMP JUMPDEST DUP3 MSTORE POP POP JUMP JUMPDEST PUSH0 PUSH1 0x20 DUP3 ADD SWAP1 POP PUSH2 0x16BD PUSH0 DUP4 ADD DUP5 PUSH2 0x169B JUMP JUMPDEST SWAP3 SWAP2 POP POP JUMP JUMPDEST PUSH0 DUP1 PUSH1 0x40 DUP4 DUP6 SUB SLT ISZERO PUSH2 0x16D9 JUMPI PUSH2 0x16D8 PUSH2 0x14DD JUMP JUMPDEST JUMPDEST PUSH0 PUSH2 0x16E6 DUP6 DUP3 DUP7 ADD PUSH2 0x1527 JUMP JUMPDEST SWAP3 POP POP PUSH1 0x20 PUSH2 0x16F7 DUP6 DUP3 DUP7 ADD PUSH2 0x165C JUMP JUMPDEST SWAP2 POP POP SWAP3 POP SWAP3 SWAP1 POP JUMP JUMPDEST PUSH2 0x170A DUP2 PUSH2 0x1500 JUMP JUMPDEST DUP3 MSTORE POP POP JUMP JUMPDEST PUSH0 PUSH1 0x20 DUP3 ADD SWAP1 POP PUSH2 0x1723 PUSH0 DUP4 ADD DUP5 PUSH2 0x1701 JUMP JUMPDEST SWAP3 SWAP2 POP POP JUMP JUMPDEST PUSH0 DUP2 ISZERO ISZERO SWAP1 POP SWAP2 SWAP1 POP JUMP JUMPDEST PUSH2 0x173D DUP2 PUSH2 0x1729 JUMP JUMPDEST DUP3 MSTORE POP POP JUMP JUMPDEST PUSH0 PUSH1 0x20 DUP3 ADD SWAP1 POP PUSH2 0x1756 PUSH0 DUP4 ADD DUP5 PUSH2 0x1734 JUMP JUMPDEST SWAP3 SWAP2 POP POP JUMP JUMPDEST PUSH0 DUP1 PUSH0 DUP1 PUSH0 PUSH1 0xA0 DUP7 DUP9 SUB SLT ISZERO PUSH2 0x1775 JUMPI PUSH2 0x1774 PUSH2 0x14DD JUMP JUMPDEST JUMPDEST PUSH0 PUSH2 0x1782 DUP9 DUP3 DUP10 ADD PUSH2 0x1527 JUMP JUMPDEST SWAP6 POP POP PUSH1 0x20 PUSH2 0x1793 DUP9 DUP3 DUP10 ADD PUSH2 0x165C JUMP JUMPDEST SWAP5 POP POP PUSH1 0x40 PUSH2 0x17A4 DUP9 DUP3 DUP10 ADD PUSH2 0x165C JUMP JUMPDEST SWAP4 POP POP PUSH1 0x60 PUSH2 0x17B5 DUP9 DUP3 DUP10 ADD PUSH2 0x165C JUMP JUMPDEST SWAP3 POP POP PUSH1 0x80 PUSH2 0x17C6 DUP9 DUP3 DUP10 ADD PUSH2 0x165C JUMP JUMPDEST SWAP2 POP POP SWAP3 SWAP6 POP SWAP3 SWAP6 SWAP1 SWAP4 POP JUMP JUMPDEST PUSH0 PUSH2 0x17DD DUP3 PUSH2 0x14E1 JUMP JUMPDEST SWAP1 POP SWAP2 SWAP1 POP JUMP JUMPDEST PUSH2 0x17ED DUP2 PUSH2 0x17D3 JUMP JUMPDEST DUP3 MSTORE POP POP JUMP JUMPDEST PUSH2 0x17FC DUP2 PUSH2 0x1500 JUMP JUMPDEST DUP3 MSTORE POP POP JUMP JUMPDEST PUSH0 DUP2 SWAP1 POP SWAP2 SWAP1 POP JUMP JUMPDEST PUSH2 0x1814 DUP2 PUSH2 0x1802 JUMP JUMPDEST DUP3 MSTORE POP POP JUMP JUMPDEST PUSH1 0xE0 DUP3 ADD PUSH0 DUP3 ADD MLOAD PUSH2 0x182E PUSH0 DUP6 ADD DUP3 PUSH2 0x17E4 JUMP JUMPDEST POP PUSH1 0x20 DUP3 ADD MLOAD PUSH2 0x1841 PUSH1 0x20 DUP6 ADD DUP3 PUSH2 0x17F3 JUMP JUMPDEST POP PUSH1 0x40 DUP3 ADD MLOAD PUSH2 0x1854 PUSH1 0x40 DUP6 ADD DUP3 PUSH2 0x1598 JUMP JUMPDEST POP PUSH1 0x60 DUP3 ADD MLOAD PUSH2 0x1867 PUSH1 0x60 DUP6 ADD DUP3 PUSH2 0x1598 JUMP JUMPDEST POP PUSH1 0x80 DUP3 ADD MLOAD PUSH2 0x187A PUSH1 0x80 DUP6 ADD DUP3 PUSH2 0x1598 JUMP JUMPDEST POP PUSH1 0xA0 DUP3 ADD MLOAD PUSH2 0x188D PUSH1 0xA0 DUP6 ADD DUP3 PUSH2 0x1598 JUMP JUMPDEST POP PUSH1 0xC0 DUP3 ADD MLOAD PUSH2 0x18A0 PUSH1 0xC0 DUP6 ADD DUP3 PUSH2 0x180B JUMP JUMPDEST POP POP POP POP JUMP JUMPDEST PUSH0 PUSH1 0xE0 DUP3 ADD SWAP1 POP PUSH2 0x18B9 PUSH0 DUP4 ADD DUP5 PUSH2 0x181A JUMP JUMPDEST SWAP3 SWAP2 POP POP JUMP JUMPDEST PUSH0 PUSH1 0x40 DUP3 ADD SWAP1 POP PUSH2 0x18D2 PUSH0 DUP4 ADD DUP6 PUSH2 0x169B JUMP JUMPDEST PUSH2 0x18DF PUSH1 0x20 DUP4 ADD DUP5 PUSH2 0x1734 JUMP JUMPDEST SWAP4 SWAP3 POP POP POP JUMP JUMPDEST PUSH2 0x18EF DUP2 PUSH2 0x17D3 JUMP JUMPDEST DUP3 MSTORE POP POP JUMP JUMPDEST PUSH2 0x18FE DUP2 PUSH2 0x1802 JUMP JUMPDEST DUP3 MSTORE POP POP JUMP JUMPDEST PUSH0 PUSH1 0xE0 DUP3 ADD SWAP1 POP PUSH2 0x1917 PUSH0 DUP4 ADD DUP11 PUSH2 0x18E6 JUMP JUMPDEST PUSH2 0x1924 PUSH1 0x20 DUP4 ADD DUP10 PUSH2 0x1701 JUMP JUMPDEST PUSH2 0x1931 PUSH1 0x40 DUP4 ADD DUP9 PUSH2 0x169B JUMP JUMPDEST PUSH2 0x193E PUSH1 0x60 DUP4 ADD DUP8 PUSH2 0x169B JUMP JUMPDEST PUSH2 0x194B PUSH1 0x80 DUP4 ADD DUP7 PUSH2 0x169B JUMP JUMPDEST PUSH2 0x1958 PUSH1 0xA0 DUP4 ADD DUP6 PUSH2 0x169B JUMP JUMPDEST PUSH2 0x1965 PUSH1 0xC0 DUP4 ADD DUP5 PUSH2 0x18F5 JUMP JUMPDEST SWAP9 SWAP8 POP POP POP POP POP POP POP POP JUMP JUMPDEST PUSH32 0x4E487B7100000000000000000000000000000000000000000000000000000000 PUSH0 MSTORE PUSH1 0x11 PUSH1 0x4 MSTORE PUSH1 0x24 PUSH0 REVERT JUMPDEST PUSH0 PUSH2 0x19A8 DUP3 PUSH2 0x158F JUMP JUMPDEST SWAP2 POP PUSH2 0x19B3 DUP4 PUSH2 0x158F JUMP JUMPDEST SWAP3 POP DUP3 DUP3 MUL PUSH2 0x19C1 DUP2 PUSH2 0x158F JUMP JUMPDEST SWAP2 POP DUP3 DUP3 DIV DUP5 EQ DUP4 ISZERO OR PUSH2 0x19D8 JUMPI PUSH2 0x19D7 PUSH2 0x1971 JUMP JUMPDEST JUMPDEST POP SWAP3 SWAP2 POP POP JUMP JUMPDEST PUSH32 0x4E487B7100000000000000000000000000000000000000000000000000000000 PUSH0 MSTORE PUSH1 0x12 PUSH1 0x4 MSTORE PUSH1 0x24 PUSH0 REVERT JUMPDEST PUSH0 PUSH2 0x1A16 DUP3 PUSH2 0x158F JUMP JUMPDEST SWAP2 POP PUSH2 0x1A21 DUP4 PUSH2 0x158F JUMP JUMPDEST SWAP3 POP DUP3 PUSH2 0x1A31 JUMPI PUSH2 0x1A30 PUSH2 0x19DF JUMP JUMPDEST JUMPDEST DUP3 DUP3 DIV SWAP1 POP SWAP3 SWAP2 POP POP JUMP JUMPDEST PUSH0 PUSH2 0x1A46 DUP3 PUSH2 0x158F JUMP JUMPDEST SWAP2 POP PUSH2 0x1A51 DUP4 PUSH2 0x158F JUMP JUMPDEST SWAP3 POP DUP3 DUP3 SUB SWAP1 POP DUP2 DUP2 GT ISZERO PUSH2 0x1A69 JUMPI PUSH2 0x1A68 PUSH2 0x1971 JUMP JUMPDEST JUMPDEST SWAP3 SWAP2 POP POP JUMP JUMPDEST PUSH0 PUSH2 0x1A79 DUP3 PUSH2 0x158F JUMP JUMPDEST SWAP2 POP PUSH2 0x1A84 DUP4 PUSH2 0x158F JUMP JUMPDEST SWAP3 POP DUP3 DUP3 ADD SWAP1 POP DUP1 DUP3 GT ISZERO PUSH2 0x1A9C JUMPI PUSH2 0x1A9B PUSH2 0x1971 JUMP JUMPDEST JUMPDEST SWAP3 SWAP2 POP POP JUMP JUMPDEST PUSH0 DUP2 MLOAD SWAP1 POP PUSH2 0x1AB0 DUP2 PUSH2 0x1511 JUMP JUMPDEST SWAP3 SWAP2 POP POP JUMP JUMPDEST PUSH0 PUSH1 0x20 DUP3 DUP5 SUB SLT ISZERO PUSH2 0x1ACB JUMPI PUSH2 0x1ACA PUSH2 0x14DD JUMP JUMPDEST JUMPDEST PUSH0 PUSH2 0x1AD8 DUP5 DUP3 DUP6 ADD PUSH2 0x1AA2 JUMP JUMPDEST SWAP2 POP POP SWAP3 SWAP2 POP POP JUMP JUMPDEST PUSH0 PUSH1 0x40 DUP3 ADD SWAP1 POP PUSH2 0x1AF4 PUSH0 DUP4 ADD DUP6 PUSH2 0x1701 JUMP JUMPDEST PUSH2 0x1B01 PUSH1 0x20 DUP4 ADD DUP5 PUSH2 0x1701 JUMP JUMPDEST SWAP4 SWAP3 POP POP POP JUMP JUMPDEST PUSH2 0x1B11 DUP2 PUSH2 0x1729 JUMP JUMPDEST DUP2 EQ PUSH2 0x1B1B JUMPI PUSH0 DUP1 REVERT JUMPDEST POP JUMP JUMPDEST PUSH0 DUP2 MLOAD SWAP1 POP PUSH2 0x1B2C DUP2 PUSH2 0x1B08 JUMP JUMPDEST SWAP3 SWAP2 POP POP JUMP JUMPDEST PUSH0 PUSH1 0x20 DUP3 DUP5 SUB SLT ISZERO PUSH2 0x1B47 JUMPI PUSH2 0x1B46 PUSH2 0x14DD JUMP JUMPDEST JUMPDEST PUSH0 PUSH2 0x1B54 DUP5 DUP3 DUP6 ADD PUSH2 0x1B1E JUMP JUMPDEST SWAP2 POP POP SWAP3 SWAP2 POP POP JUMP JUMPDEST PUSH0 DUP3 DUP3 MSTORE PUSH1 0x20 DUP3 ADD SWAP1 POP SWAP3 SWAP2 POP POP JUMP JUMPDEST PUSH32 0x56616C756573206D7573742062652067726561746572207468616E207A65726F PUSH0 DUP3 ADD MSTORE POP JUMP JUMPDEST PUSH0 PUSH2 0x1BA1 PUSH1 0x20 DUP4 PUSH2 0x1B5D JUMP JUMPDEST SWAP2 POP PUSH2 0x1BAC DUP3 PUSH2 0x1B6D JUMP JUMPDEST PUSH1 0x20 DUP3 ADD SWAP1 POP SWAP2 SWAP1 POP JUMP JUMPDEST PUSH0 PUSH1 0x20 DUP3 ADD SWAP1 POP DUP2 DUP2 SUB PUSH0 DUP4 ADD MSTORE PUSH2 0x1BCE DUP2 PUSH2 0x1B95 JUMP JUMPDEST SWAP1 POP SWAP2 SWAP1 POP JUMP JUMPDEST PUSH32 0x596F7520617265206E6F7420686F6C646572206F66207468697320746F6B656E PUSH0 DUP3 ADD MSTORE POP JUMP JUMPDEST PUSH0 PUSH2 0x1C09 PUSH1 0x20 DUP4 PUSH2 0x1B5D JUMP JUMPDEST SWAP2 POP PUSH2 0x1C14 DUP3 PUSH2 0x1BD5 JUMP JUMPDEST PUSH1 0x20 DUP3 ADD SWAP1 POP SWAP2 SWAP1 POP JUMP JUMPDEST PUSH0 PUSH1 0x20 DUP3 ADD SWAP1 POP DUP2 DUP2 SUB PUSH0 DUP4 ADD MSTORE PUSH2 0x1C36 DUP2 PUSH2 0x1BFD JUMP JUMPDEST SWAP1 POP SWAP2 SWAP1 POP JUMP JUMPDEST PUSH0 PUSH1 0x60 DUP3 ADD SWAP1 POP PUSH2 0x1C50 PUSH0 DUP4 ADD DUP7 PUSH2 0x1701 JUMP JUMPDEST PUSH2 0x1C5D PUSH1 0x20 DUP4 ADD DUP6 PUSH2 0x1701 JUMP JUMPDEST PUSH2 0x1C6A PUSH1 0x40 DUP4 ADD DUP5 PUSH2 0x169B JUMP JUMPDEST SWAP5 SWAP4 POP POP POP POP JUMP JUMPDEST PUSH0 PUSH2 0x1C7C DUP3 PUSH2 0x158F JUMP JUMPDEST SWAP2 POP PUSH32 0xFFFFFFFFFFFFFFFFFFFFFFFFFFFFFFFFFFFFFFFFFFFFFFFFFFFFFFFFFFFFFFFF DUP3 SUB PUSH2 0x1CAE JUMPI PUSH2 0x1CAD PUSH2 0x1971 JUMP JUMPDEST JUMPDEST PUSH1 0x1 DUP3 ADD SWAP1 POP SWAP2 SWAP1 POP JUMP JUMPDEST PUSH0 PUSH2 0x100 DUP3 ADD SWAP1 POP PUSH2 0x1CCD PUSH0 DUP4 ADD DUP6 PUSH2 0x1701 JUMP JUMPDEST PUSH2 0x1CDA PUSH1 0x20 DUP4 ADD DUP5 PUSH2 0x181A JUMP JUMPDEST SWAP4 SWAP3 POP POP POP JUMP JUMPDEST PUSH32 0x4974277320796F7572206F776E206C6F616E206170706C69636174696F6E2E00 PUSH0 DUP3 ADD MSTORE POP JUMP JUMPDEST PUSH0 PUSH2 0x1D15 PUSH1 0x1F DUP4 PUSH2 0x1B5D JUMP JUMPDEST SWAP2 POP PUSH2 0x1D20 DUP3 PUSH2 0x1CE1 JUMP JUMPDEST PUSH1 0x20 DUP3 ADD SWAP1 POP SWAP2 SWAP1 POP JUMP JUMPDEST PUSH0 PUSH1 0x20 DUP3 ADD SWAP1 POP DUP2 DUP2 SUB PUSH0 DUP4 ADD MSTORE PUSH2 0x1D42 DUP2 PUSH2 0x1D09 JUMP JUMPDEST SWAP1 POP SWAP2 SWAP1 POP JUMP JUMPDEST PUSH32 0x596F7520686176656E277420656E6F7567682062616C616E636520666F72206C PUSH0 DUP3 ADD MSTORE PUSH32 0x656E64696E670000000000000000000000000000000000000000000000000000 PUSH1 0x20 DUP3 ADD MSTORE POP JUMP JUMPDEST PUSH0 PUSH2 0x1DA3 PUSH1 0x26 DUP4 PUSH2 0x1B5D JUMP JUMPDEST SWAP2 POP PUSH2 0x1DAE DUP3 PUSH2 0x1D49 JUMP JUMPDEST PUSH1 0x40 DUP3 ADD SWAP1 POP SWAP2 SWAP1 POP JUMP JUMPDEST PUSH0 PUSH1 0x20 DUP3 ADD SWAP1 POP DUP2 DUP2 SUB PUSH0 DUP4 ADD MSTORE PUSH2 0x1DD0 DUP2 PUSH2 0x1D97 JUMP JUMPDEST SWAP1 POP SWAP2 SWAP1 POP JUMP JUMPDEST PUSH32 0x4661696C656420746F2073656E64204574686572000000000000000000000000 PUSH0 DUP3 ADD MSTORE POP JUMP JUMPDEST PUSH0 PUSH2 0x1E0B PUSH1 0x14 DUP4 PUSH2 0x1B5D JUMP JUMPDEST SWAP2 POP PUSH2 0x1E16 DUP3 PUSH2 0x1DD7 JUMP JUMPDEST PUSH1 0x20 DUP3 ADD SWAP1 POP SWAP2 SWAP1 POP JUMP JUMPDEST PUSH0 PUSH1 0x20 DUP3 ADD SWAP1 POP DUP2 DUP2 SUB PUSH0 DUP4 ADD MSTORE PUSH2 0x1E38 DUP2 PUSH2 0x1DFF JUMP JUMPDEST SWAP1 POP SWAP2 SWAP1 POP JUMP JUMPDEST PUSH0 DUP2 PUSH0 SHR SWAP1 POP SWAP2 SWAP1 POP JUMP JUMPDEST PUSH0 PUSH20 0xFFFFFFFFFFFFFFFFFFFFFFFFFFFFFFFFFFFFFFFF DUP3 AND SWAP1 POP SWAP2 SWAP1 POP JUMP JUMPDEST PUSH0 PUSH2 0x1E7B PUSH2 0x1E76 DUP4 PUSH2 0x1E3F JUMP JUMPDEST PUSH2 0x1E4A JUMP JUMPDEST SWAP1 POP SWAP2 SWAP1 POP JUMP JUMPDEST PUSH0 PUSH20 0xFFFFFFFFFFFFFFFFFFFFFFFFFFFFFFFFFFFFFFFF DUP3 AND SWAP1 POP SWAP2 SWAP1 POP JUMP JUMPDEST PUSH0 PUSH2 0x1EB3 PUSH2 0x1EAE DUP4 PUSH2 0x1E3F JUMP JUMPDEST PUSH2 0x1E82 JUMP JUMPDEST SWAP1 POP SWAP2 SWAP1 POP JUMP JUMPDEST PUSH0 DUP2 SWAP1 POP SWAP2 SWAP1 POP JUMP JUMPDEST PUSH0 PUSH2 0x1ED5 PUSH2 0x1ED0 DUP4 PUSH2 0x1E3F JUMP JUMPDEST PUSH2 0x1EBA JUMP JUMPDEST SWAP1 POP SWAP2 SWAP1 POP JUMP JUMPDEST PUSH0 DUP2 SWAP1 POP SWAP2 SWAP1 POP JUMP JUMPDEST PUSH0 PUSH2 0x1EF7 PUSH2 0x1EF2 DUP4 PUSH2 0x1E3F JUMP JUMPDEST PUSH2 0x1EDC JUMP JUMPDEST SWAP1 POP SWAP2 SWAP1 POP JUMP JUMPDEST PUSH1 0xE0 DUP3 ADD PUSH0 DUP1 DUP4 ADD SLOAD SWAP1 POP PUSH2 0x1F12 DUP2 PUSH2 0x1E69 JUMP JUMPDEST PUSH2 0x1F1E PUSH0 DUP7 ADD DUP3 PUSH2 0x17E4 JUMP JUMPDEST POP PUSH1 0x1 DUP4 ADD SLOAD SWAP1 POP PUSH2 0x1F2F DUP2 PUSH2 0x1EA1 JUMP JUMPDEST PUSH2 0x1F3C PUSH1 0x20 DUP7 ADD DUP3 PUSH2 0x17F3 JUMP JUMPDEST POP PUSH1 0x2 DUP4 ADD SLOAD SWAP1 POP PUSH2 0x1F4D DUP2 PUSH2 0x1EC3 JUMP JUMPDEST PUSH2 0x1F5A PUSH1 0x40 DUP7 ADD DUP3 PUSH2 0x1598 JUMP JUMPDEST POP PUSH1 0x3 DUP4 ADD SLOAD SWAP1 POP PUSH2 0x1F6B DUP2 PUSH2 0x1EC3 JUMP JUMPDEST PUSH2 0x1F78 PUSH1 0x60 DUP7 ADD DUP3 PUSH2 0x1598 JUMP JUMPDEST POP PUSH1 0x4 DUP4 ADD SLOAD SWAP1 POP PUSH2 0x1F89 DUP2 PUSH2 0x1EC3 JUMP JUMPDEST PUSH2 0x1F96 PUSH1 0x80 DUP7 ADD DUP3 PUSH2 0x1598 JUMP JUMPDEST POP PUSH1 0x5 DUP4 ADD SLOAD SWAP1 POP PUSH2 0x1FA7 DUP2 PUSH2 0x1EC3 JUMP JUMPDEST PUSH2 0x1FB4 PUSH1 0xA0 DUP7 ADD DUP3 PUSH2 0x1598 JUMP JUMPDEST POP PUSH1 0x6 DUP4 ADD SLOAD SWAP1 POP PUSH2 0x1FC5 DUP2 PUSH2 0x1EE5 JUMP JUMPDEST PUSH2 0x1FD2 PUSH1 0xC0 DUP7 ADD DUP3 PUSH2 0x180B JUMP JUMPDEST POP POP POP POP POP JUMP JUMPDEST PUSH0 PUSH2 0x100 DUP3 ADD SWAP1 POP PUSH2 0x1FED PUSH0 DUP4 ADD DUP6 PUSH2 0x1701 JUMP JUMPDEST PUSH2 0x1FFA PUSH1 0x20 DUP4 ADD DUP5 PUSH2 0x1EFE JUMP JUMPDEST SWAP4 SWAP3 POP POP POP JUMP JUMPDEST PUSH32 0x596F7520617265206E6F7420706F737465720000000000000000000000000000 PUSH0 DUP3 ADD MSTORE POP JUMP JUMPDEST PUSH0 PUSH2 0x2035 PUSH1 0x12 DUP4 PUSH2 0x1B5D JUMP JUMPDEST SWAP2 POP PUSH2 0x2040 DUP3 PUSH2 0x2001 JUMP JUMPDEST PUSH1 0x20 DUP3 ADD SWAP1 POP SWAP2 SWAP1 POP JUMP JUMPDEST PUSH0 PUSH1 0x20 DUP3 ADD SWAP1 POP DUP2 DUP2 SUB PUSH0 DUP4 ADD MSTORE PUSH2 0x2062 DUP2 PUSH2 0x2029 JUMP JUMPDEST SWAP1 POP SWAP2 SWAP1 POP JUMP JUMPDEST PUSH32 0x546869732069732065787069726564206F72206E6F7420657863757465642079 PUSH0 DUP3 ADD MSTORE PUSH32 0x6574000000000000000000000000000000000000000000000000000000000000 PUSH1 0x20 DUP3 ADD MSTORE POP JUMP JUMPDEST PUSH0 PUSH2 0x20C3 PUSH1 0x22 DUP4 PUSH2 0x1B5D JUMP JUMPDEST SWAP2 POP PUSH2 0x20CE DUP3 PUSH2 0x2069 JUMP JUMPDEST PUSH1 0x40 DUP3 ADD SWAP1 POP SWAP2 SWAP1 POP JUMP JUMPDEST PUSH0 PUSH1 0x20 DUP3 ADD SWAP1 POP DUP2 DUP2 SUB PUSH0 DUP4 ADD MSTORE PUSH2 0x20F0 DUP2 PUSH2 0x20B7 JUMP JUMPDEST SWAP1 POP SWAP2 SWAP1 POP JUMP JUMPDEST PUSH32 0x4E6F7420656E6F7567682062616C616E636520666F72207265706179696E6700 PUSH0 DUP3 ADD MSTORE POP JUMP JUMPDEST PUSH0 PUSH2 0x212B PUSH1 0x1F DUP4 PUSH2 0x1B5D JUMP JUMPDEST SWAP2 POP PUSH2 0x2136 DUP3 PUSH2 0x20F7 JUMP JUMPDEST PUSH1 0x20 DUP3 ADD SWAP1 POP SWAP2 SWAP1 POP JUMP JUMPDEST PUSH0 PUSH1 0x20 DUP3 ADD SWAP1 POP DUP2 DUP2 SUB PUSH0 DUP4 ADD MSTORE PUSH2 0x2158 DUP2 PUSH2 0x211F JUMP JUMPDEST SWAP1 POP SWAP2 SWAP1 POP JUMP JUMPDEST PUSH32 0x546869732069736E277420726570617920796574000000000000000000000000 PUSH0 DUP3 ADD MSTORE POP JUMP JUMPDEST PUSH0 PUSH2 0x2193 PUSH1 0x14 DUP4 PUSH2 0x1B5D JUMP JUMPDEST SWAP2 POP PUSH2 0x219E DUP3 PUSH2 0x215F JUMP JUMPDEST PUSH1 0x20 DUP3 ADD SWAP1 POP SWAP2 SWAP1 POP JUMP JUMPDEST PUSH0 PUSH1 0x20 DUP3 ADD SWAP1 POP DUP2 DUP2 SUB PUSH0 DUP4 ADD MSTORE PUSH2 0x21C0 DUP2 PUSH2 0x2187 JUMP JUMPDEST SWAP1 POP SWAP2 SWAP1 POP JUMP JUMPDEST PUSH32 0x596F7520617265206E6F7420706F73746572206F6620746865206C6973740000 PUSH0 DUP3 ADD MSTORE POP JUMP JUMPDEST PUSH0 PUSH2 0x21FB PUSH1 0x1E DUP4 PUSH2 0x1B5D JUMP JUMPDEST SWAP2 POP PUSH2 0x2206 DUP3 PUSH2 0x21C7 JUMP JUMPDEST PUSH1 0x20 DUP3 ADD SWAP1 POP SWAP2 SWAP1 POP JUMP JUMPDEST PUSH0 PUSH1 0x20 DUP3 ADD SWAP1 POP DUP2 DUP2 SUB PUSH0 DUP4 ADD MSTORE PUSH2 0x2228 DUP2 PUSH2 0x21EF JUMP JUMPDEST SWAP1 POP SWAP2 SWAP1 POP JUMP JUMPDEST PUSH32 0x4E6F74206F70656E696E67206C69737400000000000000000000000000000000 PUSH0 DUP3 ADD MSTORE POP JUMP JUMPDEST PUSH0 PUSH2 0x2263 PUSH1 0x10 DUP4 PUSH2 0x1B5D JUMP JUMPDEST SWAP2 POP PUSH2 0x226E DUP3 PUSH2 0x222F JUMP JUMPDEST PUSH1 0x20 DUP3 ADD SWAP1 POP SWAP2 SWAP1 POP JUMP JUMPDEST PUSH0 PUSH1 0x20 DUP3 ADD SWAP1 POP DUP2 DUP2 SUB PUSH0 DUP4 ADD MSTORE PUSH2 0x2290 DUP2 PUSH2 0x2257 JUMP JUMPDEST SWAP1 POP SWAP2 SWAP1 POP JUMP INVALID LOG2 PUSH5 0x6970667358 0x22 SLT KECCAK256 0xDD POP 0xF6 STOP 0xA8 PUSH14 0xD73D143A6E617D1803C3D95DFC7 0x1E 0xC6 BYTE JUMPDEST 0xB0 0xD6 SWAP16 0xF9 SHL PUSH8 0x17C364736F6C6343 STOP ADDMOD OR STOP CALLER "
		},
		"gasEstimates": {
			"creation": {
				"codeDepositCost": "1781800",
				"executionCost": "112405",
				"totalCost": "1894205"
			},
			"external": {
				"approveLoan(uint256)": "infinite",
				"calculateRepayAmount(uint256)": "infinite",
				"closeListing(uint256)": "infinite",
				"getCounter()": "2499",
				"getListing(address)": "infinite",
				"getListingInfo(uint256)": "infinite",
				"getUpdateTime(uint256)": "infinite",
				"giveBackNFT(uint256)": "infinite",
				"isApprove(address)": "infinite",
				"isExpired(uint256)": "infinite",
				"listNum(uint256)": "infinite",
				"loanerOf(uint256)": "2941",
				"openListing(address,uint256,uint256,uint256,uint256)": "infinite",
				"ownerOf(address,uint256)": "infinite",
				"repayLoan(uint256)": "infinite",
				"updateTime(uint256)": "22613"
			}
		},
		"methodIdentifiers": {
			"approveLoan(uint256)": "aadc1ac1",
			"calculateRepayAmount(uint256)": "1ac31f0d",
			"closeListing(uint256)": "e5a255cb",
			"getCounter()": "8ada066e",
			"getListing(address)": "084af0b2",
			"getListingInfo(uint256)": "b9314135",
			"getUpdateTime(uint256)": "b1209d4a",
			"giveBackNFT(uint256)": "ce5b8d35",
			"isApprove(address)": "4f694690",
			"isExpired(uint256)": "d9548e53",
			"listNum(uint256)": "eeabfc4a",
			"loanerOf(uint256)": "907c64f5",
			"openListing(address,uint256,uint256,uint256,uint256)": "880fe941",
			"ownerOf(address,uint256)": "1f29d2dc",
			"repayLoan(uint256)": "ab7b1c89",
			"updateTime(uint256)": "6c59bd0c"
		}
	},
	"abi": [
		{
			"anonymous": false,
			"inputs": [
				{
					"indexed": false,
					"internalType": "address",
					"name": "loaner",
					"type": "address"
				},
				{
					"components": [
						{
							"internalType": "address payable",
							"name": "poster",
							"type": "address"
						},
						{
							"internalType": "address",
							"name": "collectionAddr",
							"type": "address"
						},
						{
							"internalType": "uint256",
							"name": "tokenId",
							"type": "uint256"
						},
						{
							"internalType": "uint256",
							"name": "amount",
							"type": "uint256"
						},
						{
							"internalType": "uint256",
							"name": "duration",
							"type": "uint256"
						},
						{
							"internalType": "uint256",
							"name": "APR",
							"type": "uint256"
						},
						{
							"internalType": "bytes32",
							"name": "status",
							"type": "bytes32"
						}
					],
					"indexed": false,
					"internalType": "struct Platform.ListingInfo",
					"name": "info",
					"type": "tuple"
				}
			],
			"name": "ApprovalListing",
			"type": "event"
		},
		{
			"anonymous": false,
			"inputs": [
				{
					"indexed": false,
					"internalType": "address",
					"name": "owner",
					"type": "address"
				},
				{
					"components": [
						{
							"internalType": "address payable",
							"name": "poster",
							"type": "address"
						},
						{
							"internalType": "address",
							"name": "collectionAddr",
							"type": "address"
						},
						{
							"internalType": "uint256",
							"name": "tokenId",
							"type": "uint256"
						},
						{
							"internalType": "uint256",
							"name": "amount",
							"type": "uint256"
						},
						{
							"internalType": "uint256",
							"name": "duration",
							"type": "uint256"
						},
						{
							"internalType": "uint256",
							"name": "APR",
							"type": "uint256"
						},
						{
							"internalType": "bytes32",
							"name": "status",
							"type": "bytes32"
						}
					],
					"indexed": false,
					"internalType": "struct Platform.ListingInfo",
					"name": "info",
					"type": "tuple"
				}
			],
			"name": "CancelListing",
			"type": "event"
		},
		{
			"anonymous": false,
			"inputs": [
				{
					"indexed": false,
					"internalType": "address",
					"name": "owner",
					"type": "address"
				},
				{
					"components": [
						{
							"internalType": "address payable",
							"name": "poster",
							"type": "address"
						},
						{
							"internalType": "address",
							"name": "collectionAddr",
							"type": "address"
						},
						{
							"internalType": "uint256",
							"name": "tokenId",
							"type": "uint256"
						},
						{
							"internalType": "uint256",
							"name": "amount",
							"type": "uint256"
						},
						{
							"internalType": "uint256",
							"name": "duration",
							"type": "uint256"
						},
						{
							"internalType": "uint256",
							"name": "APR",
							"type": "uint256"
						},
						{
							"internalType": "bytes32",
							"name": "status",
							"type": "bytes32"
						}
					],
					"indexed": false,
					"internalType": "struct Platform.ListingInfo",
					"name": "info",
					"type": "tuple"
				}
			],
			"name": "NewListing",
			"type": "event"
		},
		{
			"anonymous": false,
			"inputs": [
				{
					"indexed": false,
					"internalType": "uint256",
					"name": "num",
					"type": "uint256"
				}
			],
			"name": "check",
			"type": "event"
		},
		{
			"anonymous": false,
			"inputs": [
				{
					"indexed": false,
					"internalType": "address",
					"name": "owner",
					"type": "address"
				},
				{
					"components": [
						{
							"internalType": "address payable",
							"name": "poster",
							"type": "address"
						},
						{
							"internalType": "address",
							"name": "collectionAddr",
							"type": "address"
						},
						{
							"internalType": "uint256",
							"name": "tokenId",
							"type": "uint256"
						},
						{
							"internalType": "uint256",
							"name": "amount",
							"type": "uint256"
						},
						{
							"internalType": "uint256",
							"name": "duration",
							"type": "uint256"
						},
						{
							"internalType": "uint256",
							"name": "APR",
							"type": "uint256"
						},
						{
							"internalType": "bytes32",
							"name": "status",
							"type": "bytes32"
						}
					],
					"indexed": false,
					"internalType": "struct Platform.ListingInfo",
					"name": "info",
					"type": "tuple"
				}
			],
			"name": "repaying",
			"type": "event"
		},
		{
			"inputs": [
				{
					"internalType": "uint256",
					"name": "listingIndex",
					"type": "uint256"
				}
			],
			"name": "approveLoan",
			"outputs": [],
			"stateMutability": "payable",
			"type": "function"
		},
		{
			"inputs": [
				{
					"internalType": "uint256",
					"name": "listingIndex",
					"type": "uint256"
				}
			],
			"name": "calculateRepayAmount",
			"outputs": [
				{
					"internalType": "uint256",
					"name": "",
					"type": "uint256"
				}
			],
			"stateMutability": "view",
			"type": "function"
		},
		{
			"inputs": [
				{
					"internalType": "uint256",
					"name": "listingIndex",
					"type": "uint256"
				}
			],
			"name": "closeListing",
			"outputs": [],
			"stateMutability": "nonpayable",
			"type": "function"
		},
		{
			"inputs": [],
			"name": "getCounter",
			"outputs": [
				{
					"internalType": "uint256",
					"name": "",
					"type": "uint256"
				}
			],
			"stateMutability": "view",
			"type": "function"
		},
		{
			"inputs": [
				{
					"internalType": "address",
					"name": "addr",
					"type": "address"
				}
			],
			"name": "getListing",
			"outputs": [
				{
					"internalType": "uint256[]",
					"name": "",
					"type": "uint256[]"
				}
			],
			"stateMutability": "view",
			"type": "function"
		},
		{
			"inputs": [
				{
					"internalType": "uint256",
					"name": "num",
					"type": "uint256"
				}
			],
			"name": "getListingInfo",
			"outputs": [
				{
					"components": [
						{
							"internalType": "address payable",
							"name": "poster",
							"type": "address"
						},
						{
							"internalType": "address",
							"name": "collectionAddr",
							"type": "address"
						},
						{
							"internalType": "uint256",
							"name": "tokenId",
							"type": "uint256"
						},
						{
							"internalType": "uint256",
							"name": "amount",
							"type": "uint256"
						},
						{
							"internalType": "uint256",
							"name": "duration",
							"type": "uint256"
						},
						{
							"internalType": "uint256",
							"name": "APR",
							"type": "uint256"
						},
						{
							"internalType": "bytes32",
							"name": "status",
							"type": "bytes32"
						}
					],
					"internalType": "struct Platform.ListingInfo",
					"name": "",
					"type": "tuple"
				}
			],
			"stateMutability": "view",
			"type": "function"
		},
		{
			"inputs": [
				{
					"internalType": "uint256",
					"name": "num",
					"type": "uint256"
				}
			],
			"name": "getUpdateTime",
			"outputs": [
				{
					"internalType": "uint256",
					"name": "",
					"type": "uint256"
				}
			],
			"stateMutability": "view",
			"type": "function"
		},
		{
			"inputs": [
				{
					"internalType": "uint256",
					"name": "listingIndex",
					"type": "uint256"
				}
			],
			"name": "giveBackNFT",
			"outputs": [],
			"stateMutability": "nonpayable",
			"type": "function"
		},
		{
			"inputs": [
				{
					"internalType": "address",
					"name": "collectionAddr",
					"type": "address"
				}
			],
			"name": "isApprove",
			"outputs": [
				{
					"internalType": "bool",
					"name": "",
					"type": "bool"
				}
			],
			"stateMutability": "view",
			"type": "function"
		},
		{
			"inputs": [
				{
					"internalType": "uint256",
					"name": "listingIndex",
					"type": "uint256"
				}
			],
			"name": "isExpired",
			"outputs": [
				{
					"internalType": "uint256",
					"name": "",
					"type": "uint256"
				},
				{
					"internalType": "bool",
					"name": "",
					"type": "bool"
				}
			],
			"stateMutability": "view",
			"type": "function"
		},
		{
			"inputs": [
				{
					"internalType": "uint256",
					"name": "",
					"type": "uint256"
				}
			],
			"name": "listNum",
			"outputs": [
				{
					"internalType": "address payable",
					"name": "poster",
					"type": "address"
				},
				{
					"internalType": "address",
					"name": "collectionAddr",
					"type": "address"
				},
				{
					"internalType": "uint256",
					"name": "tokenId",
					"type": "uint256"
				},
				{
					"internalType": "uint256",
					"name": "amount",
					"type": "uint256"
				},
				{
					"internalType": "uint256",
					"name": "duration",
					"type": "uint256"
				},
				{
					"internalType": "uint256",
					"name": "APR",
					"type": "uint256"
				},
				{
					"internalType": "bytes32",
					"name": "status",
					"type": "bytes32"
				}
			],
			"stateMutability": "view",
			"type": "function"
		},
		{
			"inputs": [
				{
					"internalType": "uint256",
					"name": "num",
					"type": "uint256"
				}
			],
			"name": "loanerOf",
			"outputs": [
				{
					"internalType": "address",
					"name": "",
					"type": "address"
				}
			],
			"stateMutability": "view",
			"type": "function"
		},
		{
			"inputs": [
				{
					"internalType": "address",
					"name": "collectionAddr",
					"type": "address"
				},
				{
					"internalType": "uint256",
					"name": "tokenId",
					"type": "uint256"
				},
				{
					"internalType": "uint256",
					"name": "amount",
					"type": "uint256"
				},
				{
					"internalType": "uint256",
					"name": "duration",
					"type": "uint256"
				},
				{
					"internalType": "uint256",
					"name": "APR",
					"type": "uint256"
				}
			],
			"name": "openListing",
			"outputs": [],
			"stateMutability": "nonpayable",
			"type": "function"
		},
		{
			"inputs": [
				{
					"internalType": "address",
					"name": "collectionAddr",
					"type": "address"
				},
				{
					"internalType": "uint256",
					"name": "tokenId",
					"type": "uint256"
				}
			],
			"name": "ownerOf",
			"outputs": [
				{
					"internalType": "address",
					"name": "",
					"type": "address"
				}
			],
			"stateMutability": "view",
			"type": "function"
		},
		{
			"inputs": [
				{
					"internalType": "uint256",
					"name": "listingIndex",
					"type": "uint256"
				}
			],
			"name": "repayLoan",
			"outputs": [],
			"stateMutability": "payable",
			"type": "function"
		},
		{
			"inputs": [
				{
					"internalType": "uint256",
					"name": "listingIndex",
					"type": "uint256"
				}
			],
			"name": "updateTime",
			"outputs": [],
			"stateMutability": "nonpayable",
			"type": "function"
		}
	]
}