{
	"platform.sol": {
		"Platform": {
			"abi": [
				{
					"anonymous": false,
					"inputs": [
						{
							"indexed": false,
							"internalType": "address",
							"name": "loaner",
							"type": "address"
						},
						{
							"components": [
								{
									"internalType": "address payable",
									"name": "poster",
									"type": "address"
								},
								{
									"internalType": "address",
									"name": "collectionAddr",
									"type": "address"
								},
								{
									"internalType": "uint256",
									"name": "tokenId",
									"type": "uint256"
								},
								{
									"internalType": "uint256",
									"name": "amount",
									"type": "uint256"
								},
								{
									"internalType": "uint256",
									"name": "duration",
									"type": "uint256"
								},
								{
									"internalType": "uint256",
									"name": "APR",
									"type": "uint256"
								},
								{
									"internalType": "bytes32",
									"name": "status",
									"type": "bytes32"
								}
							],
							"indexed": false,
							"internalType": "struct Platform.ListingInfo",
							"name": "info",
							"type": "tuple"
						}
					],
					"name": "ApprovalListing",
					"type": "event"
				},
				{
					"anonymous": false,
					"inputs": [
						{
							"indexed": false,
							"internalType": "address",
							"name": "owner",
							"type": "address"
						},
						{
							"components": [
								{
									"internalType": "address payable",
									"name": "poster",
									"type": "address"
								},
								{
									"internalType": "address",
									"name": "collectionAddr",
									"type": "address"
								},
								{
									"internalType": "uint256",
									"name": "tokenId",
									"type": "uint256"
								},
								{
									"internalType": "uint256",
									"name": "amount",
									"type": "uint256"
								},
								{
									"internalType": "uint256",
									"name": "duration",
									"type": "uint256"
								},
								{
									"internalType": "uint256",
									"name": "APR",
									"type": "uint256"
								},
								{
									"internalType": "bytes32",
									"name": "status",
									"type": "bytes32"
								}
							],
							"indexed": false,
							"internalType": "struct Platform.ListingInfo",
							"name": "info",
							"type": "tuple"
						}
					],
					"name": "CancelListing",
					"type": "event"
				},
				{
					"anonymous": false,
					"inputs": [
						{
							"indexed": false,
							"internalType": "address",
							"name": "owner",
							"type": "address"
						},
						{
							"components": [
								{
									"internalType": "address payable",
									"name": "poster",
									"type": "address"
								},
								{
									"internalType": "address",
									"name": "collectionAddr",
									"type": "address"
								},
								{
									"internalType": "uint256",
									"name": "tokenId",
									"type": "uint256"
								},
								{
									"internalType": "uint256",
									"name": "amount",
									"type": "uint256"
								},
								{
									"internalType": "uint256",
									"name": "duration",
									"type": "uint256"
								},
								{
									"internalType": "uint256",
									"name": "APR",
									"type": "uint256"
								},
								{
									"internalType": "bytes32",
									"name": "status",
									"type": "bytes32"
								}
							],
							"indexed": false,
							"internalType": "struct Platform.ListingInfo",
							"name": "info",
							"type": "tuple"
						}
					],
					"name": "NewListing",
					"type": "event"
				},
				{
					"anonymous": false,
					"inputs": [
						{
							"indexed": false,
							"internalType": "uint256",
							"name": "num",
							"type": "uint256"
						}
					],
					"name": "check",
					"type": "event"
				},
				{
					"anonymous": false,
					"inputs": [
						{
							"indexed": false,
							"internalType": "address",
							"name": "owner",
							"type": "address"
						},
						{
							"components": [
								{
									"internalType": "address payable",
									"name": "poster",
									"type": "address"
								},
								{
									"internalType": "address",
									"name": "collectionAddr",
									"type": "address"
								},
								{
									"internalType": "uint256",
									"name": "tokenId",
									"type": "uint256"
								},
								{
									"internalType": "uint256",
									"name": "amount",
									"type": "uint256"
								},
								{
									"internalType": "uint256",
									"name": "duration",
									"type": "uint256"
								},
								{
									"internalType": "uint256",
									"name": "APR",
									"type": "uint256"
								},
								{
									"internalType": "bytes32",
									"name": "status",
									"type": "bytes32"
								}
							],
							"indexed": false,
							"internalType": "struct Platform.ListingInfo",
							"name": "info",
							"type": "tuple"
						}
					],
					"name": "repaying",
					"type": "event"
				},
				{
					"inputs": [
						{
							"internalType": "uint256",
							"name": "listingIndex",
							"type": "uint256"
						}
					],
					"name": "approveLoan",
					"outputs": [],
					"stateMutability": "payable",
					"type": "function"
				},
				{
					"inputs": [
						{
							"internalType": "uint256",
							"name": "listingIndex",
							"type": "uint256"
						}
					],
					"name": "calculateRepayAmount",
					"outputs": [
						{
							"internalType": "uint256",
							"name": "",
							"type": "uint256"
						}
					],
					"stateMutability": "view",
					"type": "function"
				},
				{
					"inputs": [
						{
							"internalType": "uint256",
							"name": "listingIndex",
							"type": "uint256"
						}
					],
					"name": "closeListing",
					"outputs": [],
					"stateMutability": "nonpayable",
					"type": "function"
				},
				{
					"inputs": [],
					"name": "getCounter",
					"outputs": [
						{
							"internalType": "uint256",
							"name": "",
							"type": "uint256"
						}
					],
					"stateMutability": "view",
					"type": "function"
				},
				{
					"inputs": [
						{
							"internalType": "address",
							"name": "addr",
							"type": "address"
						}
					],
					"name": "getListing",
					"outputs": [
						{
							"internalType": "uint256[]",
							"name": "",
							"type": "uint256[]"
						}
					],
					"stateMutability": "view",
					"type": "function"
				},
				{
					"inputs": [
						{
							"internalType": "uint256",
							"name": "num",
							"type": "uint256"
						}
					],
					"name": "getListingInfo",
					"outputs": [
						{
							"components": [
								{
									"internalType": "address payable",
									"name": "poster",
									"type": "address"
								},
								{
									"internalType": "address",
									"name": "collectionAddr",
									"type": "address"
								},
								{
									"internalType": "uint256",
									"name": "tokenId",
									"type": "uint256"
								},
								{
									"internalType": "uint256",
									"name": "amount",
									"type": "uint256"
								},
								{
									"internalType": "uint256",
									"name": "duration",
									"type": "uint256"
								},
								{
									"internalType": "uint256",
									"name": "APR",
									"type": "uint256"
								},
								{
									"internalType": "bytes32",
									"name": "status",
									"type": "bytes32"
								}
							],
							"internalType": "struct Platform.ListingInfo",
							"name": "",
							"type": "tuple"
						}
					],
					"stateMutability": "view",
					"type": "function"
				},
				{
					"inputs": [
						{
							"internalType": "uint256",
							"name": "num",
							"type": "uint256"
						}
					],
					"name": "getUpdateTime",
					"outputs": [
						{
							"internalType": "uint256",
							"name": "",
							"type": "uint256"
						}
					],
					"stateMutability": "view",
					"type": "function"
				},
				{
					"inputs": [
						{
							"internalType": "uint256",
							"name": "listingIndex",
							"type": "uint256"
						}
					],
					"name": "giveBackNFT",
					"outputs": [],
					"stateMutability": "nonpayable",
					"type": "function"
				},
				{
					"inputs": [
						{
							"internalType": "address",
							"name": "collectionAddr",
							"type": "address"
						}
					],
					"name": "isApprove",
					"outputs": [
						{
							"internalType": "bool",
							"name": "",
							"type": "bool"
						}
					],
					"stateMutability": "view",
					"type": "function"
				},
				{
					"inputs": [
						{
							"internalType": "uint256",
							"name": "listingIndex",
							"type": "uint256"
						}
					],
					"name": "isExpired",
					"outputs": [
						{
							"internalType": "uint256",
							"name": "",
							"type": "uint256"
						},
						{
							"internalType": "bool",
							"name": "",
							"type": "bool"
						}
					],
					"stateMutability": "view",
					"type": "function"
				},
				{
					"inputs": [
						{
							"internalType": "uint256",
							"name": "",
							"type": "uint256"
						}
					],
					"name": "listNum",
					"outputs": [
						{
							"internalType": "address payable",
							"name": "poster",
							"type": "address"
						},
						{
							"internalType": "address",
							"name": "collectionAddr",
							"type": "address"
						},
						{
							"internalType": "uint256",
							"name": "tokenId",
							"type": "uint256"
						},
						{
							"internalType": "uint256",
							"name": "amount",
							"type": "uint256"
						},
						{
							"internalType": "uint256",
							"name": "duration",
							"type": "uint256"
						},
						{
							"internalType": "uint256",
							"name": "APR",
							"type": "uint256"
						},
						{
							"internalType": "bytes32",
							"name": "status",
							"type": "bytes32"
						}
					],
					"stateMutability": "view",
					"type": "function"
				},
				{
					"inputs": [
						{
							"internalType": "uint256",
							"name": "num",
							"type": "uint256"
						}
					],
					"name": "loanerOf",
					"outputs": [
						{
							"internalType": "address",
							"name": "",
							"type": "address"
						}
					],
					"stateMutability": "view",
					"type": "function"
				},
				{
					"inputs": [
						{
							"internalType": "address",
							"name": "collectionAddr",
							"type": "address"
						},
						{
							"internalType": "uint256",
							"name": "tokenId",
							"type": "uint256"
						},
						{
							"internalType": "uint256",
							"name": "amount",
							"type": "uint256"
						},
						{
							"internalType": "uint256",
							"name": "duration",
							"type": "uint256"
						},
						{
							"internalType": "uint256",
							"name": "APR",
							"type": "uint256"
						}
					],
					"name": "openListing",
					"outputs": [],
					"stateMutability": "nonpayable",
					"type": "function"
				},
				{
					"inputs": [
						{
							"internalType": "address",
							"name": "collectionAddr",
							"type": "address"
						},
						{
							"internalType": "uint256",
							"name": "tokenId",
							"type": "uint256"
						}
					],
					"name": "ownerOf",
					"outputs": [
						{
							"internalType": "address",
							"name": "",
							"type": "address"
						}
					],
					"stateMutability": "view",
					"type": "function"
				},
				{
					"inputs": [
						{
							"internalType": "uint256",
							"name": "listingIndex",
							"type": "uint256"
						}
					],
					"name": "repayLoan",
					"outputs": [],
					"stateMutability": "payable",
					"type": "function"
				},
				{
					"inputs": [
						{
							"internalType": "uint256",
							"name": "listingIndex",
							"type": "uint256"
						}
					],
					"name": "updateTime",
					"outputs": [],
					"stateMutability": "nonpayable",
					"type": "function"
				}
			],
			"devdoc": {
				"kind": "dev",
				"methods": {},
				"version": 1
			},
			"evm": {
				"assembly": "    /* \"platform.sol\":118:6106  contract Platform {... */\n  mstore(0x40, 0x80)\n    /* \"platform.sol\":896:897  1 */\n  0x01\n    /* \"platform.sol\":878:897  uint256 counter = 1 */\n  0x04\n  sstore\n    /* \"platform.sol\":923:926  365 */\n  0x016d\n    /* \"platform.sol\":903:926  uint256 yearToDay = 365 */\n  0x05\n  sstore\n    /* \"platform.sol\":953:960  2592000 */\n  0x278d00\n    /* \"platform.sol\":932:960  uint256 monthToSec = 2592000 */\n  0x06\n  sstore\n    /* \"platform.sol\":985:990  86400 */\n  0x015180\n    /* \"platform.sol\":966:990  uint256 dayToSec = 86400 */\n  0x07\n  sstore\n    /* \"platform.sol\":1015:1017  60 */\n  0x3c\n    /* \"platform.sol\":996:1017  uint256 minTosec = 60 */\n  0x08\n  sstore\n    /* \"platform.sol\":118:6106  contract Platform {... */\n  callvalue\n  dup1\n  iszero\n  tag_1\n  jumpi\n  0x00\n  dup1\n  revert\ntag_1:\n  pop\n  dataSize(sub_0)\n  dup1\n  dataOffset(sub_0)\n  0x00\n  codecopy\n  0x00\n  return\nstop\n\nsub_0: assembly {\n        /* \"platform.sol\":118:6106  contract Platform {... */\n      mstore(0x40, 0x80)\n      jumpi(tag_1, lt(calldatasize, 0x04))\n      shr(0xe0, calldataload(0x00))\n      dup1\n      0xaadc1ac1\n      gt\n      tag_18\n      jumpi\n      dup1\n      0xce5b8d35\n      gt\n      tag_19\n      jumpi\n      dup1\n      0xce5b8d35\n      eq\n      tag_14\n      jumpi\n      dup1\n      0xd9548e53\n      eq\n      tag_15\n      jumpi\n      dup1\n      0xe5a255cb\n      eq\n      tag_16\n      jumpi\n      dup1\n      0xeeabfc4a\n      eq\n      tag_17\n      jumpi\n      jump(tag_1)\n    tag_19:\n      dup1\n      0xaadc1ac1\n      eq\n      tag_10\n      jumpi\n      dup1\n      0xab7b1c89\n      eq\n      tag_11\n      jumpi\n      dup1\n      0xb1209d4a\n      eq\n      tag_12\n      jumpi\n      dup1\n      0xb9314135\n      eq\n      tag_13\n      jumpi\n      jump(tag_1)\n    tag_18:\n      dup1\n      0x6c59bd0c\n      gt\n      tag_20\n      jumpi\n      dup1\n      0x6c59bd0c\n      eq\n      tag_6\n      jumpi\n      dup1\n      0x880fe941\n      eq\n      tag_7\n      jumpi\n      dup1\n      0x8ada066e\n      eq\n      tag_8\n      jumpi\n      dup1\n      0x907c64f5\n      eq\n      tag_9\n      jumpi\n      jump(tag_1)\n    tag_20:\n      dup1\n      0x084af0b2\n      eq\n      tag_2\n      jumpi\n      dup1\n      0x1ac31f0d\n      eq\n      tag_3\n      jumpi\n      dup1\n      0x1f29d2dc\n      eq\n      tag_4\n      jumpi\n      dup1\n      0x4f694690\n      eq\n      tag_5\n      jumpi\n    tag_1:\n      0x00\n      dup1\n      revert\n        /* \"platform.sol\":1028:1139  function getListing(address addr) public view returns (uint256[] memory) {... */\n    tag_2:\n      callvalue\n      dup1\n      iszero\n      tag_21\n      jumpi\n      0x00\n      dup1\n      revert\n    tag_21:\n      pop\n      tag_22\n      0x04\n      dup1\n      calldatasize\n      sub\n      dup2\n      add\n      swap1\n      tag_23\n      swap2\n      swap1\n      tag_24\n      jump\t// in\n    tag_23:\n      tag_25\n      jump\t// in\n    tag_22:\n      mload(0x40)\n      tag_26\n      swap2\n      swap1\n      tag_27\n      jump\t// in\n    tag_26:\n      mload(0x40)\n      dup1\n      swap2\n      sub\n      swap1\n      return\n        /* \"platform.sol\":5102:5672  function calculateRepayAmount(uint256 listingIndex) public view returns (uint256) {... */\n    tag_3:\n      callvalue\n      dup1\n      iszero\n      tag_28\n      jumpi\n      0x00\n      dup1\n      revert\n    tag_28:\n      pop\n      tag_29\n      0x04\n      dup1\n      calldatasize\n      sub\n      dup2\n      add\n      swap1\n      tag_30\n      swap2\n      swap1\n      tag_31\n      jump\t// in\n    tag_30:\n      tag_32\n      jump\t// in\n    tag_29:\n      mload(0x40)\n      tag_33\n      swap2\n      swap1\n      tag_34\n      jump\t// in\n    tag_33:\n      mload(0x40)\n      dup1\n      swap2\n      sub\n      swap1\n      return\n        /* \"platform.sol\":1354:1506  function ownerOf(address collectionAddr, uint256 tokenId) public view returns (address) {... */\n    tag_4:\n      callvalue\n      dup1\n      iszero\n      tag_35\n      jumpi\n      0x00\n      dup1\n      revert\n    tag_35:\n      pop\n      tag_36\n      0x04\n      dup1\n      calldatasize\n      sub\n      dup2\n      add\n      swap1\n      tag_37\n      swap2\n      swap1\n      tag_38\n      jump\t// in\n    tag_37:\n      tag_39\n      jump\t// in\n    tag_36:\n      mload(0x40)\n      tag_40\n      swap2\n      swap1\n      tag_41\n      jump\t// in\n    tag_40:\n      mload(0x40)\n      dup1\n      swap2\n      sub\n      swap1\n      return\n        /* \"platform.sol\":1512:1673  function isApprove(address collectionAddr) public view returns (bool) {... */\n    tag_5:\n      callvalue\n      dup1\n      iszero\n      tag_42\n      jumpi\n      0x00\n      dup1\n      revert\n    tag_42:\n      pop\n      tag_43\n      0x04\n      dup1\n      calldatasize\n      sub\n      dup2\n      add\n      swap1\n      tag_44\n      swap2\n      swap1\n      tag_24\n      jump\t// in\n    tag_44:\n      tag_45\n      jump\t// in\n    tag_43:\n      mload(0x40)\n      tag_46\n      swap2\n      swap1\n      tag_47\n      jump\t// in\n    tag_46:\n      mload(0x40)\n      dup1\n      swap2\n      sub\n      swap1\n      return\n        /* \"platform.sol\":3082:3191  function updateTime(uint256 listingIndex) public {... */\n    tag_6:\n      callvalue\n      dup1\n      iszero\n      tag_48\n      jumpi\n      0x00\n      dup1\n      revert\n    tag_48:\n      pop\n      tag_49\n      0x04\n      dup1\n      calldatasize\n      sub\n      dup2\n      add\n      swap1\n      tag_50\n      swap2\n      swap1\n      tag_31\n      jump\t// in\n    tag_50:\n      tag_51\n      jump\t// in\n    tag_49:\n      stop\n        /* \"platform.sol\":1893:2637  function openListing(... */\n    tag_7:\n      callvalue\n      dup1\n      iszero\n      tag_52\n      jumpi\n      0x00\n      dup1\n      revert\n    tag_52:\n      pop\n      tag_53\n      0x04\n      dup1\n      calldatasize\n      sub\n      dup2\n      add\n      swap1\n      tag_54\n      swap2\n      swap1\n      tag_55\n      jump\t// in\n    tag_54:\n      tag_56\n      jump\t// in\n    tag_53:\n      stop\n        /* \"platform.sol\":1265:1348  function getCounter() public view returns (uint256) {... */\n    tag_8:\n      callvalue\n      dup1\n      iszero\n      tag_57\n      jumpi\n      0x00\n      dup1\n      revert\n    tag_57:\n      pop\n      tag_58\n      tag_59\n      jump\t// in\n    tag_58:\n      mload(0x40)\n      tag_60\n      swap2\n      swap1\n      tag_34\n      jump\t// in\n    tag_60:\n      mload(0x40)\n      dup1\n      swap2\n      sub\n      swap1\n      return\n        /* \"platform.sol\":1679:1775  function loanerOf(uint256 num) public view returns (address) {... */\n    tag_9:\n      callvalue\n      dup1\n      iszero\n      tag_61\n      jumpi\n      0x00\n      dup1\n      revert\n    tag_61:\n      pop\n      tag_62\n      0x04\n      dup1\n      calldatasize\n      sub\n      dup2\n      add\n      swap1\n      tag_63\n      swap2\n      swap1\n      tag_31\n      jump\t// in\n    tag_63:\n      tag_64\n      jump\t// in\n    tag_62:\n      mload(0x40)\n      tag_65\n      swap2\n      swap1\n      tag_41\n      jump\t// in\n    tag_65:\n      mload(0x40)\n      dup1\n      swap2\n      sub\n      swap1\n      return\n        /* \"platform.sol\":3786:4445  function approveLoan(uint256 listingIndex) public payable {... */\n    tag_10:\n      tag_66\n      0x04\n      dup1\n      calldatasize\n      sub\n      dup2\n      add\n      swap1\n      tag_67\n      swap2\n      swap1\n      tag_31\n      jump\t// in\n    tag_67:\n      tag_68\n      jump\t// in\n    tag_66:\n      stop\n        /* \"platform.sol\":4451:5096  function repayLoan(uint256 listingIndex) public payable {... */\n    tag_11:\n      tag_69\n      0x04\n      dup1\n      calldatasize\n      sub\n      dup2\n      add\n      swap1\n      tag_70\n      swap2\n      swap1\n      tag_31\n      jump\t// in\n    tag_70:\n      tag_71\n      jump\t// in\n    tag_69:\n      stop\n        /* \"platform.sol\":1781:1887  function getUpdateTime(uint256 num) public view returns (uint256) {... */\n    tag_12:\n      callvalue\n      dup1\n      iszero\n      tag_72\n      jumpi\n      0x00\n      dup1\n      revert\n    tag_72:\n      pop\n      tag_73\n      0x04\n      dup1\n      calldatasize\n      sub\n      dup2\n      add\n      swap1\n      tag_74\n      swap2\n      swap1\n      tag_31\n      jump\t// in\n    tag_74:\n      tag_75\n      jump\t// in\n    tag_73:\n      mload(0x40)\n      tag_76\n      swap2\n      swap1\n      tag_34\n      jump\t// in\n    tag_76:\n      mload(0x40)\n      dup1\n      swap2\n      sub\n      swap1\n      return\n        /* \"platform.sol\":1145:1259  function getListingInfo(uint256 num) public view returns (ListingInfo memory) {... */\n    tag_13:\n      callvalue\n      dup1\n      iszero\n      tag_77\n      jumpi\n      0x00\n      dup1\n      revert\n    tag_77:\n      pop\n      tag_78\n      0x04\n      dup1\n      calldatasize\n      sub\n      dup2\n      add\n      swap1\n      tag_79\n      swap2\n      swap1\n      tag_31\n      jump\t// in\n    tag_79:\n      tag_80\n      jump\t// in\n    tag_78:\n      mload(0x40)\n      tag_81\n      swap2\n      swap1\n      tag_82\n      jump\t// in\n    tag_81:\n      mload(0x40)\n      dup1\n      swap2\n      sub\n      swap1\n      return\n        /* \"platform.sol\":5683:6104  function giveBackNFT(uint256 listingIndex) public {... */\n    tag_14:\n      callvalue\n      dup1\n      iszero\n      tag_83\n      jumpi\n      0x00\n      dup1\n      revert\n    tag_83:\n      pop\n      tag_84\n      0x04\n      dup1\n      calldatasize\n      sub\n      dup2\n      add\n      swap1\n      tag_85\n      swap2\n      swap1\n      tag_31\n      jump\t// in\n    tag_85:\n      tag_86\n      jump\t// in\n    tag_84:\n      stop\n        /* \"platform.sol\":3197:3780  function isExpired(uint256 listingIndex) public view returns (uint256, bool) {... */\n    tag_15:\n      callvalue\n      dup1\n      iszero\n      tag_87\n      jumpi\n      0x00\n      dup1\n      revert\n    tag_87:\n      pop\n      tag_88\n      0x04\n      dup1\n      calldatasize\n      sub\n      dup2\n      add\n      swap1\n      tag_89\n      swap2\n      swap1\n      tag_31\n      jump\t// in\n    tag_89:\n      tag_90\n      jump\t// in\n    tag_88:\n      mload(0x40)\n      tag_91\n      swap3\n      swap2\n      swap1\n      tag_92\n      jump\t// in\n    tag_91:\n      mload(0x40)\n      dup1\n      swap2\n      sub\n      swap1\n      return\n        /* \"platform.sol\":2647:3076  function closeListing(uint256 listingIndex) public {... */\n    tag_16:\n      callvalue\n      dup1\n      iszero\n      tag_93\n      jumpi\n      0x00\n      dup1\n      revert\n    tag_93:\n      pop\n      tag_94\n      0x04\n      dup1\n      calldatasize\n      sub\n      dup2\n      add\n      swap1\n      tag_95\n      swap2\n      swap1\n      tag_31\n      jump\t// in\n    tag_95:\n      tag_96\n      jump\t// in\n    tag_94:\n      stop\n        /* \"platform.sol\":688:734  mapping(uint256 => ListingInfo) public listNum */\n    tag_17:\n      callvalue\n      dup1\n      iszero\n      tag_97\n      jumpi\n      0x00\n      dup1\n      revert\n    tag_97:\n      pop\n      tag_98\n      0x04\n      dup1\n      calldatasize\n      sub\n      dup2\n      add\n      swap1\n      tag_99\n      swap2\n      swap1\n      tag_31\n      jump\t// in\n    tag_99:\n      tag_100\n      jump\t// in\n    tag_98:\n      mload(0x40)\n      tag_101\n      swap8\n      swap7\n      swap6\n      swap5\n      swap4\n      swap3\n      swap2\n      swap1\n      tag_102\n      jump\t// in\n    tag_101:\n      mload(0x40)\n      dup1\n      swap2\n      sub\n      swap1\n      return\n        /* \"platform.sol\":1028:1139  function getListing(address addr) public view returns (uint256[] memory) {... */\n    tag_25:\n        /* \"platform.sol\":1083:1099  uint256[] memory */\n      0x60\n        /* \"platform.sol\":1118:1126  addrList */\n      0x01\n        /* \"platform.sol\":1118:1132  addrList[addr] */\n      0x00\n        /* \"platform.sol\":1127:1131  addr */\n      dup4\n        /* \"platform.sol\":1118:1132  addrList[addr] */\n      0xffffffffffffffffffffffffffffffffffffffff\n      and\n      0xffffffffffffffffffffffffffffffffffffffff\n      and\n      dup2\n      mstore\n      0x20\n      add\n      swap1\n      dup2\n      mstore\n      0x20\n      add\n      0x00\n      keccak256\n        /* \"platform.sol\":1111:1132  return addrList[addr] */\n      dup1\n      sload\n      dup1\n      0x20\n      mul\n      0x20\n      add\n      mload(0x40)\n      swap1\n      dup2\n      add\n      0x40\n      mstore\n      dup1\n      swap3\n      swap2\n      swap1\n      dup2\n      dup2\n      mstore\n      0x20\n      add\n      dup3\n      dup1\n      sload\n      dup1\n      iszero\n      tag_104\n      jumpi\n      0x20\n      mul\n      dup3\n      add\n      swap2\n      swap1\n      0x00\n      mstore\n      keccak256(0x00, 0x20)\n      swap1\n    tag_105:\n      dup2\n      sload\n      dup2\n      mstore\n      0x20\n      add\n      swap1\n      0x01\n      add\n      swap1\n      dup1\n      dup4\n      gt\n      tag_105\n      jumpi\n    tag_104:\n      pop\n      pop\n      pop\n      pop\n      pop\n      swap1\n      pop\n        /* \"platform.sol\":1028:1139  function getListing(address addr) public view returns (uint256[] memory) {... */\n      swap2\n      swap1\n      pop\n      jump\t// out\n        /* \"platform.sol\":5102:5672  function calculateRepayAmount(uint256 listingIndex) public view returns (uint256) {... */\n    tag_32:\n        /* \"platform.sol\":5175:5182  uint256 */\n      0x00\n        /* \"platform.sol\":5194:5217  ListingInfo memory info */\n      dup1\n        /* \"platform.sol\":5220:5248  getListingInfo(listingIndex) */\n      tag_107\n        /* \"platform.sol\":5235:5247  listingIndex */\n      dup4\n        /* \"platform.sol\":5220:5234  getListingInfo */\n      tag_80\n        /* \"platform.sol\":5220:5248  getListingInfo(listingIndex) */\n      jump\t// in\n    tag_107:\n        /* \"platform.sol\":5194:5248  ListingInfo memory info = getListingInfo(listingIndex) */\n      swap1\n      pop\n        /* \"platform.sol\":5258:5275  uint256 scaledAPR */\n      0x00\n        /* \"platform.sol\":5289:5293  1000 */\n      0x03e8\n        /* \"platform.sol\":5278:5282  info */\n      dup3\n        /* \"platform.sol\":5278:5286  info.APR */\n      0xa0\n      add\n      mload\n        /* \"platform.sol\":5278:5293  info.APR * 1000 */\n      tag_108\n      swap2\n      swap1\n      tag_109\n      jump\t// in\n    tag_108:\n        /* \"platform.sol\":5258:5293  uint256 scaledAPR = info.APR * 1000 */\n      swap1\n      pop\n        /* \"platform.sol\":5358:5380  uint256 interestPerDay */\n      0x00\n        /* \"platform.sol\":5422:5431  yearToDay */\n      sload(0x05)\n        /* \"platform.sol\":5415:5419  1000 */\n      0x03e8\n        /* \"platform.sol\":5409:5412  100 */\n      0x64\n        /* \"platform.sol\":5397:5406  scaledAPR */\n      dup5\n        /* \"platform.sol\":5383:5387  info */\n      dup7\n        /* \"platform.sol\":5383:5394  info.amount */\n      0x60\n      add\n      mload\n        /* \"platform.sol\":5383:5406  info.amount * scaledAPR */\n      tag_110\n      swap2\n      swap1\n      tag_109\n      jump\t// in\n    tag_110:\n        /* \"platform.sol\":5383:5412  info.amount * scaledAPR / 100 */\n      tag_111\n      swap2\n      swap1\n      tag_112\n      jump\t// in\n    tag_111:\n        /* \"platform.sol\":5383:5419  info.amount * scaledAPR / 100 / 1000 */\n      tag_113\n      swap2\n      swap1\n      tag_112\n      jump\t// in\n    tag_113:\n        /* \"platform.sol\":5383:5431  info.amount * scaledAPR / 100 / 1000 / yearToDay */\n      tag_114\n      swap2\n      swap1\n      tag_112\n      jump\t// in\n    tag_114:\n        /* \"platform.sol\":5358:5431  uint256 interestPerDay = info.amount * scaledAPR / 100 / 1000 / yearToDay */\n      swap1\n      pop\n        /* \"platform.sol\":5442:5461  uint256 elapsedDays */\n      0x00\n        /* \"platform.sol\":5512:5520  dayToSec */\n      sload(0x07)\n        /* \"platform.sol\":5483:5494  updatedTime */\n      0x02\n        /* \"platform.sol\":5483:5508  updatedTime[listingIndex] */\n      0x00\n        /* \"platform.sol\":5495:5507  listingIndex */\n      dup9\n        /* \"platform.sol\":5483:5508  updatedTime[listingIndex] */\n      dup2\n      mstore\n      0x20\n      add\n      swap1\n      dup2\n      mstore\n      0x20\n      add\n      0x00\n      keccak256\n      sload\n        /* \"platform.sol\":5465:5480  block.timestamp */\n      timestamp\n        /* \"platform.sol\":5465:5508  block.timestamp - updatedTime[listingIndex] */\n      tag_115\n      swap2\n      swap1\n      tag_116\n      jump\t// in\n    tag_115:\n        /* \"platform.sol\":5464:5520  (block.timestamp - updatedTime[listingIndex]) / dayToSec */\n      tag_117\n      swap2\n      swap1\n      tag_112\n      jump\t// in\n    tag_117:\n        /* \"platform.sol\":5442:5520  uint256 elapsedDays = (block.timestamp - updatedTime[listingIndex]) / dayToSec */\n      swap1\n      pop\n        /* \"platform.sol\":5530:5551  uint256 totalInterest */\n      0x00\n        /* \"platform.sol\":5571:5582  elapsedDays */\n      dup2\n        /* \"platform.sol\":5554:5568  interestPerDay */\n      dup4\n        /* \"platform.sol\":5554:5582  interestPerDay * elapsedDays */\n      tag_118\n      swap2\n      swap1\n      tag_109\n      jump\t// in\n    tag_118:\n        /* \"platform.sol\":5530:5582  uint256 totalInterest = interestPerDay * elapsedDays */\n      swap1\n      pop\n        /* \"platform.sol\":5592:5609  uint256 sumResult */\n      0x00\n        /* \"platform.sol\":5626:5639  totalInterest */\n      dup2\n        /* \"platform.sol\":5612:5616  info */\n      dup7\n        /* \"platform.sol\":5612:5623  info.amount */\n      0x60\n      add\n      mload\n        /* \"platform.sol\":5612:5639  info.amount + totalInterest */\n      tag_119\n      swap2\n      swap1\n      tag_120\n      jump\t// in\n    tag_119:\n        /* \"platform.sol\":5592:5639  uint256 sumResult = info.amount + totalInterest */\n      swap1\n      pop\n        /* \"platform.sol\":5656:5665  sumResult */\n      dup1\n        /* \"platform.sol\":5649:5665  return sumResult */\n      swap7\n      pop\n      pop\n      pop\n      pop\n      pop\n      pop\n      pop\n        /* \"platform.sol\":5102:5672  function calculateRepayAmount(uint256 listingIndex) public view returns (uint256) {... */\n      swap2\n      swap1\n      pop\n      jump\t// out\n        /* \"platform.sol\":1354:1506  function ownerOf(address collectionAddr, uint256 tokenId) public view returns (address) {... */\n    tag_39:\n        /* \"platform.sol\":1433:1440  address */\n      0x00\n        /* \"platform.sol\":1467:1481  collectionAddr */\n      dup3\n        /* \"platform.sol\":1459:1490  IERC721(collectionAddr).ownerOf */\n      0xffffffffffffffffffffffffffffffffffffffff\n      and\n      0x6352211e\n        /* \"platform.sol\":1491:1498  tokenId */\n      dup4\n        /* \"platform.sol\":1459:1499  IERC721(collectionAddr).ownerOf(tokenId) */\n      mload(0x40)\n      dup3\n      0xffffffff\n      and\n      0xe0\n      shl\n      dup2\n      mstore\n      0x04\n      add\n      tag_122\n      swap2\n      swap1\n      tag_34\n      jump\t// in\n    tag_122:\n      0x20\n      mload(0x40)\n      dup1\n      dup4\n      sub\n      dup2\n      dup7\n      gas\n      staticcall\n      iszero\n      dup1\n      iszero\n      tag_124\n      jumpi\n      returndatasize\n      0x00\n      dup1\n      returndatacopy\n      revert(0x00, returndatasize)\n    tag_124:\n      pop\n      pop\n      pop\n      pop\n      mload(0x40)\n      returndatasize\n      not(0x1f)\n      0x1f\n      dup3\n      add\n      and\n      dup3\n      add\n      dup1\n      0x40\n      mstore\n      pop\n      dup2\n      add\n      swap1\n      tag_125\n      swap2\n      swap1\n      tag_126\n      jump\t// in\n    tag_125:\n        /* \"platform.sol\":1452:1499  return IERC721(collectionAddr).ownerOf(tokenId) */\n      swap1\n      pop\n        /* \"platform.sol\":1354:1506  function ownerOf(address collectionAddr, uint256 tokenId) public view returns (address) {... */\n      swap3\n      swap2\n      pop\n      pop\n      jump\t// out\n        /* \"platform.sol\":1512:1673  function isApprove(address collectionAddr) public view returns (bool) {... */\n    tag_45:\n        /* \"platform.sol\":1576:1580  bool */\n      0x00\n        /* \"platform.sol\":1607:1621  collectionAddr */\n      dup2\n        /* \"platform.sol\":1599:1639  IERC721(collectionAddr).isApprovedForAll */\n      0xffffffffffffffffffffffffffffffffffffffff\n      and\n      0xe985e9c5\n        /* \"platform.sol\":1640:1650  msg.sender */\n      caller\n        /* \"platform.sol\":1660:1664  this */\n      address\n        /* \"platform.sol\":1599:1666  IERC721(collectionAddr).isApprovedForAll(msg.sender, address(this)) */\n      mload(0x40)\n      dup4\n      0xffffffff\n      and\n      0xe0\n      shl\n      dup2\n      mstore\n      0x04\n      add\n      tag_128\n      swap3\n      swap2\n      swap1\n      tag_129\n      jump\t// in\n    tag_128:\n      0x20\n      mload(0x40)\n      dup1\n      dup4\n      sub\n      dup2\n      dup7\n      gas\n      staticcall\n      iszero\n      dup1\n      iszero\n      tag_131\n      jumpi\n      returndatasize\n      0x00\n      dup1\n      returndatacopy\n      revert(0x00, returndatasize)\n    tag_131:\n      pop\n      pop\n      pop\n      pop\n      mload(0x40)\n      returndatasize\n      not(0x1f)\n      0x1f\n      dup3\n      add\n      and\n      dup3\n      add\n      dup1\n      0x40\n      mstore\n      pop\n      dup2\n      add\n      swap1\n      tag_132\n      swap2\n      swap1\n      tag_133\n      jump\t// in\n    tag_132:\n        /* \"platform.sol\":1592:1666  return IERC721(collectionAddr).isApprovedForAll(msg.sender, address(this)) */\n      swap1\n      pop\n        /* \"platform.sol\":1512:1673  function isApprove(address collectionAddr) public view returns (bool) {... */\n      swap2\n      swap1\n      pop\n      jump\t// out\n        /* \"platform.sol\":3082:3191  function updateTime(uint256 listingIndex) public {... */\n    tag_51:\n        /* \"platform.sol\":3169:3184  block.timestamp */\n      timestamp\n        /* \"platform.sol\":3141:3152  updatedTime */\n      0x02\n        /* \"platform.sol\":3141:3166  updatedTime[listingIndex] */\n      0x00\n        /* \"platform.sol\":3153:3165  listingIndex */\n      dup4\n        /* \"platform.sol\":3141:3166  updatedTime[listingIndex] */\n      dup2\n      mstore\n      0x20\n      add\n      swap1\n      dup2\n      mstore\n      0x20\n      add\n      0x00\n      keccak256\n        /* \"platform.sol\":3141:3184  updatedTime[listingIndex] = block.timestamp */\n      dup2\n      swap1\n      sstore\n      pop\n        /* \"platform.sol\":3082:3191  function updateTime(uint256 listingIndex) public {... */\n      pop\n      jump\t// out\n        /* \"platform.sol\":1893:2637  function openListing(... */\n    tag_56:\n        /* \"platform.sol\":2082:2083  0 */\n      0x00\n        /* \"platform.sol\":2073:2079  amount */\n      dup4\n        /* \"platform.sol\":2073:2083  amount > 0 */\n      gt\n        /* \"platform.sol\":2073:2099  amount > 0 && duration > 0 */\n      dup1\n      iszero\n      tag_136\n      jumpi\n      pop\n        /* \"platform.sol\":2098:2099  0 */\n      0x00\n        /* \"platform.sol\":2087:2095  duration */\n      dup3\n        /* \"platform.sol\":2087:2099  duration > 0 */\n      gt\n        /* \"platform.sol\":2073:2099  amount > 0 && duration > 0 */\n    tag_136:\n        /* \"platform.sol\":2073:2110  amount > 0 && duration > 0 && APR > 0 */\n      dup1\n      iszero\n      tag_137\n      jumpi\n      pop\n        /* \"platform.sol\":2109:2110  0 */\n      0x00\n        /* \"platform.sol\":2103:2106  APR */\n      dup2\n        /* \"platform.sol\":2103:2110  APR > 0 */\n      gt\n        /* \"platform.sol\":2073:2110  amount > 0 && duration > 0 && APR > 0 */\n    tag_137:\n        /* \"platform.sol\":2065:2147  require(amount > 0 && duration > 0 && APR > 0, \"Values must be greater than zero\") */\n      tag_138\n      jumpi\n      mload(0x40)\n      0x08c379a000000000000000000000000000000000000000000000000000000000\n      dup2\n      mstore\n      0x04\n      add\n      tag_139\n      swap1\n      tag_140\n      jump\t// in\n    tag_139:\n      mload(0x40)\n      dup1\n      swap2\n      sub\n      swap1\n      revert\n    tag_138:\n        /* \"platform.sol\":2209:2219  msg.sender */\n      caller\n        /* \"platform.sol\":2165:2219  IERC721(collectionAddr).ownerOf(tokenId) == msg.sender */\n      0xffffffffffffffffffffffffffffffffffffffff\n      and\n        /* \"platform.sol\":2173:2187  collectionAddr */\n      dup6\n        /* \"platform.sol\":2165:2196  IERC721(collectionAddr).ownerOf */\n      0xffffffffffffffffffffffffffffffffffffffff\n      and\n      0x6352211e\n        /* \"platform.sol\":2197:2204  tokenId */\n      dup7\n        /* \"platform.sol\":2165:2205  IERC721(collectionAddr).ownerOf(tokenId) */\n      mload(0x40)\n      dup3\n      0xffffffff\n      and\n      0xe0\n      shl\n      dup2\n      mstore\n      0x04\n      add\n      tag_141\n      swap2\n      swap1\n      tag_34\n      jump\t// in\n    tag_141:\n      0x20\n      mload(0x40)\n      dup1\n      dup4\n      sub\n      dup2\n      dup7\n      gas\n      staticcall\n      iszero\n      dup1\n      iszero\n      tag_143\n      jumpi\n      returndatasize\n      0x00\n      dup1\n      returndatacopy\n      revert(0x00, returndatasize)\n    tag_143:\n      pop\n      pop\n      pop\n      pop\n      mload(0x40)\n      returndatasize\n      not(0x1f)\n      0x1f\n      dup3\n      add\n      and\n      dup3\n      add\n      dup1\n      0x40\n      mstore\n      pop\n      dup2\n      add\n      swap1\n      tag_144\n      swap2\n      swap1\n      tag_126\n      jump\t// in\n    tag_144:\n        /* \"platform.sol\":2165:2219  IERC721(collectionAddr).ownerOf(tokenId) == msg.sender */\n      0xffffffffffffffffffffffffffffffffffffffff\n      and\n      eq\n        /* \"platform.sol\":2157:2256  require(IERC721(collectionAddr).ownerOf(tokenId) == msg.sender, \"You are not holder of this token\") */\n      tag_145\n      jumpi\n      mload(0x40)\n      0x08c379a000000000000000000000000000000000000000000000000000000000\n      dup2\n      mstore\n      0x04\n      add\n      tag_146\n      swap1\n      tag_147\n      jump\t// in\n    tag_146:\n      mload(0x40)\n      dup1\n      swap2\n      sub\n      swap1\n      revert\n    tag_145:\n        /* \"platform.sol\":2266:2289  ListingInfo memory info */\n      0x00\n        /* \"platform.sol\":2292:2380  ListingInfo(payable(msg.sender), collectionAddr, tokenId, amount, duration, APR, \"open\") */\n      mload(0x40)\n      dup1\n      0xe0\n      add\n      0x40\n      mstore\n      dup1\n        /* \"platform.sol\":2312:2322  msg.sender */\n      caller\n        /* \"platform.sol\":2292:2380  ListingInfo(payable(msg.sender), collectionAddr, tokenId, amount, duration, APR, \"open\") */\n      0xffffffffffffffffffffffffffffffffffffffff\n      and\n      dup2\n      mstore\n      0x20\n      add\n        /* \"platform.sol\":2325:2339  collectionAddr */\n      dup8\n        /* \"platform.sol\":2292:2380  ListingInfo(payable(msg.sender), collectionAddr, tokenId, amount, duration, APR, \"open\") */\n      0xffffffffffffffffffffffffffffffffffffffff\n      and\n      dup2\n      mstore\n      0x20\n      add\n        /* \"platform.sol\":2341:2348  tokenId */\n      dup7\n        /* \"platform.sol\":2292:2380  ListingInfo(payable(msg.sender), collectionAddr, tokenId, amount, duration, APR, \"open\") */\n      dup2\n      mstore\n      0x20\n      add\n        /* \"platform.sol\":2350:2356  amount */\n      dup6\n        /* \"platform.sol\":2292:2380  ListingInfo(payable(msg.sender), collectionAddr, tokenId, amount, duration, APR, \"open\") */\n      dup2\n      mstore\n      0x20\n      add\n        /* \"platform.sol\":2358:2366  duration */\n      dup5\n        /* \"platform.sol\":2292:2380  ListingInfo(payable(msg.sender), collectionAddr, tokenId, amount, duration, APR, \"open\") */\n      dup2\n      mstore\n      0x20\n      add\n        /* \"platform.sol\":2368:2371  APR */\n      dup4\n        /* \"platform.sol\":2292:2380  ListingInfo(payable(msg.sender), collectionAddr, tokenId, amount, duration, APR, \"open\") */\n      dup2\n      mstore\n      0x20\n      add\n      0x6f70656e00000000000000000000000000000000000000000000000000000000\n      dup2\n      mstore\n      pop\n        /* \"platform.sol\":2266:2380  ListingInfo memory info = ListingInfo(payable(msg.sender), collectionAddr, tokenId, amount, duration, APR, \"open\") */\n      swap1\n      pop\n        /* \"platform.sol\":2409:2413  info */\n      dup1\n        /* \"platform.sol\":2390:2397  listNum */\n      0x00\n        /* \"platform.sol\":2390:2406  listNum[counter] */\n      dup1\n        /* \"platform.sol\":2398:2405  counter */\n      sload(0x04)\n        /* \"platform.sol\":2390:2406  listNum[counter] */\n      dup2\n      mstore\n      0x20\n      add\n      swap1\n      dup2\n      mstore\n      0x20\n      add\n      0x00\n      keccak256\n        /* \"platform.sol\":2390:2413  listNum[counter] = info */\n      0x00\n      dup3\n      add\n      mload\n      dup2\n      0x00\n      add\n      exp(0x0100, 0x00)\n      dup2\n      sload\n      dup2\n      0xffffffffffffffffffffffffffffffffffffffff\n      mul\n      not\n      and\n      swap1\n      dup4\n      0xffffffffffffffffffffffffffffffffffffffff\n      and\n      mul\n      or\n      swap1\n      sstore\n      pop\n      0x20\n      dup3\n      add\n      mload\n      dup2\n      0x01\n      add\n      exp(0x0100, 0x00)\n      dup2\n      sload\n      dup2\n      0xffffffffffffffffffffffffffffffffffffffff\n      mul\n      not\n      and\n      swap1\n      dup4\n      0xffffffffffffffffffffffffffffffffffffffff\n      and\n      mul\n      or\n      swap1\n      sstore\n      pop\n      0x40\n      dup3\n      add\n      mload\n      dup2\n      0x02\n      add\n      sstore\n      0x60\n      dup3\n      add\n      mload\n      dup2\n      0x03\n      add\n      sstore\n      0x80\n      dup3\n      add\n      mload\n      dup2\n      0x04\n      add\n      sstore\n      0xa0\n      dup3\n      add\n      mload\n      dup2\n      0x05\n      add\n      sstore\n      0xc0\n      dup3\n      add\n      mload\n      dup2\n      0x06\n      add\n      sstore\n      swap1\n      pop\n      pop\n        /* \"platform.sol\":2423:2431  addrList */\n      0x01\n        /* \"platform.sol\":2423:2443  addrList[msg.sender] */\n      0x00\n        /* \"platform.sol\":2432:2442  msg.sender */\n      caller\n        /* \"platform.sol\":2423:2443  addrList[msg.sender] */\n      0xffffffffffffffffffffffffffffffffffffffff\n      and\n      0xffffffffffffffffffffffffffffffffffffffff\n      and\n      dup2\n      mstore\n      0x20\n      add\n      swap1\n      dup2\n      mstore\n      0x20\n      add\n      0x00\n      keccak256\n        /* \"platform.sol\":2449:2456  counter */\n      sload(0x04)\n        /* \"platform.sol\":2423:2457  addrList[msg.sender].push(counter) */\n      swap1\n      dup1\n      0x01\n      dup2\n      sload\n      add\n      dup1\n      dup3\n      sstore\n      dup1\n      swap2\n      pop\n      pop\n      0x01\n      swap1\n      sub\n      swap1\n      0x00\n      mstore\n      keccak256(0x00, 0x20)\n      add\n      0x00\n      swap1\n      swap2\n      swap1\n      swap2\n      swap1\n      swap2\n      pop\n      sstore\n        /* \"platform.sol\":2475:2489  collectionAddr */\n      dup6\n        /* \"platform.sol\":2467:2503  IERC721(collectionAddr).transferFrom */\n      0xffffffffffffffffffffffffffffffffffffffff\n      and\n      0x23b872dd\n        /* \"platform.sol\":2504:2514  msg.sender */\n      caller\n        /* \"platform.sol\":2524:2528  this */\n      address\n        /* \"platform.sol\":2531:2538  tokenId */\n      dup9\n        /* \"platform.sol\":2467:2539  IERC721(collectionAddr).transferFrom(msg.sender, address(this), tokenId) */\n      mload(0x40)\n      dup5\n      0xffffffff\n      and\n      0xe0\n      shl\n      dup2\n      mstore\n      0x04\n      add\n      tag_149\n      swap4\n      swap3\n      swap2\n      swap1\n      tag_150\n      jump\t// in\n    tag_149:\n      0x00\n      mload(0x40)\n      dup1\n      dup4\n      sub\n      dup2\n      0x00\n      dup8\n      dup1\n      extcodesize\n      iszero\n      dup1\n      iszero\n      tag_151\n      jumpi\n      0x00\n      dup1\n      revert\n    tag_151:\n      pop\n      gas\n      call\n      iszero\n      dup1\n      iszero\n      tag_153\n      jumpi\n      returndatasize\n      0x00\n      dup1\n      returndatacopy\n      revert(0x00, returndatasize)\n    tag_153:\n      pop\n      pop\n      pop\n      pop\n        /* \"platform.sol\":2549:2568  updateTime(counter) */\n      tag_154\n        /* \"platform.sol\":2560:2567  counter */\n      sload(0x04)\n        /* \"platform.sol\":2549:2559  updateTime */\n      tag_51\n        /* \"platform.sol\":2549:2568  updateTime(counter) */\n      jump\t// in\n    tag_154:\n        /* \"platform.sol\":2578:2585  counter */\n      0x04\n      0x00\n        /* \"platform.sol\":2578:2587  counter++ */\n      dup2\n      sload\n      dup1\n      swap3\n      swap2\n      swap1\n      tag_155\n      swap1\n      tag_156\n      jump\t// in\n    tag_155:\n      swap2\n      swap1\n      pop\n      sstore\n      pop\n        /* \"platform.sol\":2602:2630  NewListing(msg.sender, info) */\n      0xf767ad1ae2d5476327f80bef89fbc70354c993e3059ed3d504d127921f60c40b\n        /* \"platform.sol\":2613:2623  msg.sender */\n      caller\n        /* \"platform.sol\":2625:2629  info */\n      dup3\n        /* \"platform.sol\":2602:2630  NewListing(msg.sender, info) */\n      mload(0x40)\n      tag_157\n      swap3\n      swap2\n      swap1\n      tag_158\n      jump\t// in\n    tag_157:\n      mload(0x40)\n      dup1\n      swap2\n      sub\n      swap1\n      log1\n        /* \"platform.sol\":2055:2637  {... */\n      pop\n        /* \"platform.sol\":1893:2637  function openListing(... */\n      pop\n      pop\n      pop\n      pop\n      pop\n      jump\t// out\n        /* \"platform.sol\":1265:1348  function getCounter() public view returns (uint256) {... */\n    tag_59:\n        /* \"platform.sol\":1308:1315  uint256 */\n      0x00\n        /* \"platform.sol\":1334:1341  counter */\n      sload(0x04)\n        /* \"platform.sol\":1327:1341  return counter */\n      swap1\n      pop\n        /* \"platform.sol\":1265:1348  function getCounter() public view returns (uint256) {... */\n      swap1\n      jump\t// out\n        /* \"platform.sol\":1679:1775  function loanerOf(uint256 num) public view returns (address) {... */\n    tag_64:\n        /* \"platform.sol\":1731:1738  address */\n      0x00\n        /* \"platform.sol\":1757:1763  loaner */\n      0x03\n        /* \"platform.sol\":1757:1768  loaner[num] */\n      0x00\n        /* \"platform.sol\":1764:1767  num */\n      dup4\n        /* \"platform.sol\":1757:1768  loaner[num] */\n      dup2\n      mstore\n      0x20\n      add\n      swap1\n      dup2\n      mstore\n      0x20\n      add\n      0x00\n      keccak256\n      0x00\n      swap1\n      sload\n      swap1\n      0x0100\n      exp\n      swap1\n      div\n      0xffffffffffffffffffffffffffffffffffffffff\n      and\n        /* \"platform.sol\":1750:1768  return loaner[num] */\n      swap1\n      pop\n        /* \"platform.sol\":1679:1775  function loanerOf(uint256 num) public view returns (address) {... */\n      swap2\n      swap1\n      pop\n      jump\t// out\n        /* \"platform.sol\":3786:4445  function approveLoan(uint256 listingIndex) public payable {... */\n    tag_68:\n        /* \"platform.sol\":3854:3878  ListingInfo storage info */\n      0x00\n        /* \"platform.sol\":3881:3888  listNum */\n      dup1\n        /* \"platform.sol\":3881:3902  listNum[listingIndex] */\n      0x00\n        /* \"platform.sol\":3889:3901  listingIndex */\n      dup4\n        /* \"platform.sol\":3881:3902  listNum[listingIndex] */\n      dup2\n      mstore\n      0x20\n      add\n      swap1\n      dup2\n      mstore\n      0x20\n      add\n      0x00\n      keccak256\n        /* \"platform.sol\":3854:3902  ListingInfo storage info = listNum[listingIndex] */\n      swap1\n      pop\n        /* \"platform.sol\":3935:3939  info */\n      dup1\n        /* \"platform.sol\":3935:3946  info.poster */\n      0x00\n      add\n      0x00\n      swap1\n      sload\n      swap1\n      0x0100\n      exp\n      swap1\n      div\n      0xffffffffffffffffffffffffffffffffffffffff\n      and\n        /* \"platform.sol\":3921:3946  msg.sender != info.poster */\n      0xffffffffffffffffffffffffffffffffffffffff\n      and\n        /* \"platform.sol\":3921:3931  msg.sender */\n      caller\n        /* \"platform.sol\":3921:3946  msg.sender != info.poster */\n      0xffffffffffffffffffffffffffffffffffffffff\n      and\n      sub\n        /* \"platform.sol\":3913:3982  require(msg.sender != info.poster, \"It's your own loan application.\") */\n      tag_162\n      jumpi\n      mload(0x40)\n      0x08c379a000000000000000000000000000000000000000000000000000000000\n      dup2\n      mstore\n      0x04\n      add\n      tag_163\n      swap1\n      tag_164\n      jump\t// in\n    tag_163:\n      mload(0x40)\n      dup1\n      swap2\n      sub\n      swap1\n      revert\n    tag_162:\n        /* \"platform.sol\":3992:4011  uint256 amountInWei */\n      0x00\n        /* \"platform.sol\":4028:4035  1 ether */\n      0x0de0b6b3a7640000\n        /* \"platform.sol\":4014:4018  info */\n      dup3\n        /* \"platform.sol\":4014:4025  info.amount */\n      0x03\n      add\n      sload\n        /* \"platform.sol\":4014:4035  info.amount * 1 ether */\n      tag_165\n      swap2\n      swap1\n      tag_109\n      jump\t// in\n    tag_165:\n        /* \"platform.sol\":3992:4035  uint256 amountInWei = info.amount * 1 ether */\n      swap1\n      pop\n        /* \"platform.sol\":4119:4130  amountInWei */\n      dup1\n        /* \"platform.sol\":4097:4107  msg.sender */\n      caller\n        /* \"platform.sol\":4097:4115  msg.sender.balance */\n      0xffffffffffffffffffffffffffffffffffffffff\n      and\n      balance\n        /* \"platform.sol\":4097:4130  msg.sender.balance >= amountInWei */\n      lt\n      iszero\n        /* \"platform.sol\":4089:4173  require(msg.sender.balance >= amountInWei, \"You haven't enough balance for lending\") */\n      tag_166\n      jumpi\n      mload(0x40)\n      0x08c379a000000000000000000000000000000000000000000000000000000000\n      dup2\n      mstore\n      0x04\n      add\n      tag_167\n      swap1\n      tag_168\n      jump\t// in\n    tag_167:\n      mload(0x40)\n      dup1\n      swap2\n      sub\n      swap1\n      revert\n    tag_166:\n        /* \"platform.sol\":4183:4208  info.status = \"executing\" */\n      0x657865637574696e670000000000000000000000000000000000000000000000\n        /* \"platform.sol\":4183:4187  info */\n      dup3\n        /* \"platform.sol\":4183:4194  info.status */\n      0x06\n      add\n        /* \"platform.sol\":4183:4208  info.status = \"executing\" */\n      dup2\n      swap1\n      sstore\n      pop\n        /* \"platform.sol\":4249:4259  msg.sender */\n      caller\n        /* \"platform.sol\":4218:4224  loaner */\n      0x03\n        /* \"platform.sol\":4218:4238  loaner[listingIndex] */\n      0x00\n        /* \"platform.sol\":4225:4237  listingIndex */\n      dup6\n        /* \"platform.sol\":4218:4238  loaner[listingIndex] */\n      dup2\n      mstore\n      0x20\n      add\n      swap1\n      dup2\n      mstore\n      0x20\n      add\n      0x00\n      keccak256\n      0x00\n        /* \"platform.sol\":4218:4260  loaner[listingIndex] = payable(msg.sender) */\n      0x0100\n      exp\n      dup2\n      sload\n      dup2\n      0xffffffffffffffffffffffffffffffffffffffff\n      mul\n      not\n      and\n      swap1\n      dup4\n      0xffffffffffffffffffffffffffffffffffffffff\n      and\n      mul\n      or\n      swap1\n      sstore\n      pop\n        /* \"platform.sol\":4270:4294  updateTime(listingIndex) */\n      tag_169\n        /* \"platform.sol\":4281:4293  listingIndex */\n      dup4\n        /* \"platform.sol\":4270:4280  updateTime */\n      tag_51\n        /* \"platform.sol\":4270:4294  updateTime(listingIndex) */\n      jump\t// in\n    tag_169:\n        /* \"platform.sol\":4304:4313  bool sent */\n      0x00\n        /* \"platform.sol\":4316:4320  info */\n      dup3\n        /* \"platform.sol\":4316:4327  info.poster */\n      0x00\n      add\n      0x00\n      swap1\n      sload\n      swap1\n      0x0100\n      exp\n      swap1\n      div\n      0xffffffffffffffffffffffffffffffffffffffff\n      and\n        /* \"platform.sol\":4316:4332  info.poster.send */\n      0xffffffffffffffffffffffffffffffffffffffff\n      and\n        /* \"platform.sol\":4316:4343  info.poster.send(msg.value) */\n      0x08fc\n        /* \"platform.sol\":4333:4342  msg.value */\n      callvalue\n        /* \"platform.sol\":4316:4343  info.poster.send(msg.value) */\n      swap1\n      dup2\n      iszero\n      mul\n      swap1\n      mload(0x40)\n      0x00\n      mload(0x40)\n      dup1\n      dup4\n      sub\n      dup2\n      dup6\n      dup9\n      dup9\n      call\n      swap4\n      pop\n      pop\n      pop\n      pop\n        /* \"platform.sol\":4304:4343  bool sent = info.poster.send(msg.value) */\n      swap1\n      pop\n        /* \"platform.sol\":4361:4365  sent */\n      dup1\n        /* \"platform.sol\":4353:4390  require(sent, \"Failed to send Ether\") */\n      tag_171\n      jumpi\n      mload(0x40)\n      0x08c379a000000000000000000000000000000000000000000000000000000000\n      dup2\n      mstore\n      0x04\n      add\n      tag_172\n      swap1\n      tag_173\n      jump\t// in\n    tag_172:\n      mload(0x40)\n      dup1\n      swap2\n      sub\n      swap1\n      revert\n    tag_171:\n        /* \"platform.sol\":4405:4438  ApprovalListing(msg.sender, info) */\n      0xcbe547358b7d8ceb07ae8baae08d35680e6c6c69046525b09dc9bb8f53f708fd\n        /* \"platform.sol\":4421:4431  msg.sender */\n      caller\n        /* \"platform.sol\":4433:4437  info */\n      dup5\n        /* \"platform.sol\":4405:4438  ApprovalListing(msg.sender, info) */\n      mload(0x40)\n      tag_174\n      swap3\n      swap2\n      swap1\n      tag_175\n      jump\t// in\n    tag_174:\n      mload(0x40)\n      dup1\n      swap2\n      sub\n      swap1\n      log1\n        /* \"platform.sol\":3844:4445  {... */\n      pop\n      pop\n      pop\n        /* \"platform.sol\":3786:4445  function approveLoan(uint256 listingIndex) public payable {... */\n      pop\n      jump\t// out\n        /* \"platform.sol\":4451:5096  function repayLoan(uint256 listingIndex) public payable {... */\n    tag_71:\n        /* \"platform.sol\":4517:4541  ListingInfo storage info */\n      0x00\n        /* \"platform.sol\":4544:4551  listNum */\n      dup1\n        /* \"platform.sol\":4544:4565  listNum[listingIndex] */\n      0x00\n        /* \"platform.sol\":4552:4564  listingIndex */\n      dup4\n        /* \"platform.sol\":4544:4565  listNum[listingIndex] */\n      dup2\n      mstore\n      0x20\n      add\n      swap1\n      dup2\n      mstore\n      0x20\n      add\n      0x00\n      keccak256\n        /* \"platform.sol\":4517:4565  ListingInfo storage info = listNum[listingIndex] */\n      swap1\n      pop\n        /* \"platform.sol\":4598:4608  msg.sender */\n      caller\n        /* \"platform.sol\":4583:4608  info.poster == msg.sender */\n      0xffffffffffffffffffffffffffffffffffffffff\n      and\n        /* \"platform.sol\":4583:4587  info */\n      dup2\n        /* \"platform.sol\":4583:4594  info.poster */\n      0x00\n      add\n      0x00\n      swap1\n      sload\n      swap1\n      0x0100\n      exp\n      swap1\n      div\n      0xffffffffffffffffffffffffffffffffffffffff\n      and\n        /* \"platform.sol\":4583:4608  info.poster == msg.sender */\n      0xffffffffffffffffffffffffffffffffffffffff\n      and\n      eq\n        /* \"platform.sol\":4575:4631  require(info.poster == msg.sender, \"You are not poster\") */\n      tag_177\n      jumpi\n      mload(0x40)\n      0x08c379a000000000000000000000000000000000000000000000000000000000\n      dup2\n      mstore\n      0x04\n      add\n      tag_178\n      swap1\n      tag_179\n      jump\t// in\n    tag_178:\n      mload(0x40)\n      dup1\n      swap2\n      sub\n      swap1\n      revert\n    tag_177:\n        /* \"platform.sol\":4664:4684  bytes32(\"executing\") */\n      0x657865637574696e670000000000000000000000000000000000000000000000\n        /* \"platform.sol\":4649:4653  info */\n      dup2\n        /* \"platform.sol\":4649:4660  info.status */\n      0x06\n      add\n      sload\n        /* \"platform.sol\":4649:4684  info.status == bytes32(\"executing\") */\n      eq\n        /* \"platform.sol\":4641:4723  require(info.status == bytes32(\"executing\"), \"This is expired or not excuted yet\") */\n      tag_180\n      jumpi\n      mload(0x40)\n      0x08c379a000000000000000000000000000000000000000000000000000000000\n      dup2\n      mstore\n      0x04\n      add\n      tag_181\n      swap1\n      tag_182\n      jump\t// in\n    tag_181:\n      mload(0x40)\n      dup1\n      swap2\n      sub\n      swap1\n      revert\n    tag_180:\n        /* \"platform.sol\":4733:4752  uint256 repayAmount */\n      0x00\n        /* \"platform.sol\":4755:4789  calculateRepayAmount(listingIndex) */\n      tag_183\n        /* \"platform.sol\":4776:4788  listingIndex */\n      dup4\n        /* \"platform.sol\":4755:4775  calculateRepayAmount */\n      tag_32\n        /* \"platform.sol\":4755:4789  calculateRepayAmount(listingIndex) */\n      jump\t// in\n    tag_183:\n        /* \"platform.sol\":4733:4789  uint256 repayAmount = calculateRepayAmount(listingIndex) */\n      swap1\n      pop\n        /* \"platform.sol\":4821:4831  msg.sender */\n      caller\n        /* \"platform.sol\":4821:4839  msg.sender.balance */\n      0xffffffffffffffffffffffffffffffffffffffff\n      and\n      balance\n        /* \"platform.sol\":4807:4818  repayAmount */\n      dup2\n        /* \"platform.sol\":4807:4839  repayAmount < msg.sender.balance */\n      lt\n        /* \"platform.sol\":4799:4875  require(repayAmount < msg.sender.balance, \"Not enough balance for repaying\") */\n      tag_184\n      jumpi\n      mload(0x40)\n      0x08c379a000000000000000000000000000000000000000000000000000000000\n      dup2\n      mstore\n      0x04\n      add\n      tag_185\n      swap1\n      tag_186\n      jump\t// in\n    tag_185:\n      mload(0x40)\n      dup1\n      swap2\n      sub\n      swap1\n      revert\n    tag_184:\n        /* \"platform.sol\":4885:4894  bool sent */\n      0x00\n        /* \"platform.sol\":4897:4903  loaner */\n      0x03\n        /* \"platform.sol\":4897:4917  loaner[listingIndex] */\n      0x00\n        /* \"platform.sol\":4904:4916  listingIndex */\n      dup6\n        /* \"platform.sol\":4897:4917  loaner[listingIndex] */\n      dup2\n      mstore\n      0x20\n      add\n      swap1\n      dup2\n      mstore\n      0x20\n      add\n      0x00\n      keccak256\n      0x00\n      swap1\n      sload\n      swap1\n      0x0100\n      exp\n      swap1\n      div\n      0xffffffffffffffffffffffffffffffffffffffff\n      and\n        /* \"platform.sol\":4897:4922  loaner[listingIndex].send */\n      0xffffffffffffffffffffffffffffffffffffffff\n      and\n        /* \"platform.sol\":4897:4933  loaner[listingIndex].send(msg.value) */\n      0x08fc\n        /* \"platform.sol\":4923:4932  msg.value */\n      callvalue\n        /* \"platform.sol\":4897:4933  loaner[listingIndex].send(msg.value) */\n      swap1\n      dup2\n      iszero\n      mul\n      swap1\n      mload(0x40)\n      0x00\n      mload(0x40)\n      dup1\n      dup4\n      sub\n      dup2\n      dup6\n      dup9\n      dup9\n      call\n      swap4\n      pop\n      pop\n      pop\n      pop\n        /* \"platform.sol\":4885:4933  bool sent = loaner[listingIndex].send(msg.value) */\n      swap1\n      pop\n        /* \"platform.sol\":4951:4955  sent */\n      dup1\n        /* \"platform.sol\":4943:4980  require(sent, \"Failed to send Ether\") */\n      tag_188\n      jumpi\n      mload(0x40)\n      0x08c379a000000000000000000000000000000000000000000000000000000000\n      dup2\n      mstore\n      0x04\n      add\n      tag_189\n      swap1\n      tag_173\n      jump\t// in\n    tag_189:\n      mload(0x40)\n      dup1\n      swap2\n      sub\n      swap1\n      revert\n    tag_188:\n        /* \"platform.sol\":4990:5013  info.status = \"repayed\" */\n      0x7265706179656400000000000000000000000000000000000000000000000000\n        /* \"platform.sol\":4990:4994  info */\n      dup4\n        /* \"platform.sol\":4990:5001  info.status */\n      0x06\n      add\n        /* \"platform.sol\":4990:5013  info.status = \"repayed\" */\n      dup2\n      swap1\n      sstore\n      pop\n        /* \"platform.sol\":5023:5048  giveBackNFT(listingIndex) */\n      tag_190\n        /* \"platform.sol\":5035:5047  listingIndex */\n      dup5\n        /* \"platform.sol\":5023:5034  giveBackNFT */\n      tag_86\n        /* \"platform.sol\":5023:5048  giveBackNFT(listingIndex) */\n      jump\t// in\n    tag_190:\n        /* \"platform.sol\":5063:5089  repaying(msg.sender, info) */\n      0x94e7116aa05f19f109f7fa598f65ade35ab1de8cd3d002b5b2205416e8943e65\n        /* \"platform.sol\":5072:5082  msg.sender */\n      caller\n        /* \"platform.sol\":5084:5088  info */\n      dup5\n        /* \"platform.sol\":5063:5089  repaying(msg.sender, info) */\n      mload(0x40)\n      tag_191\n      swap3\n      swap2\n      swap1\n      tag_175\n      jump\t// in\n    tag_191:\n      mload(0x40)\n      dup1\n      swap2\n      sub\n      swap1\n      log1\n        /* \"platform.sol\":4507:5096  {... */\n      pop\n      pop\n      pop\n        /* \"platform.sol\":4451:5096  function repayLoan(uint256 listingIndex) public payable {... */\n      pop\n      jump\t// out\n        /* \"platform.sol\":1781:1887  function getUpdateTime(uint256 num) public view returns (uint256) {... */\n    tag_75:\n        /* \"platform.sol\":1838:1845  uint256 */\n      0x00\n        /* \"platform.sol\":1864:1875  updatedTime */\n      0x02\n        /* \"platform.sol\":1864:1880  updatedTime[num] */\n      0x00\n        /* \"platform.sol\":1876:1879  num */\n      dup4\n        /* \"platform.sol\":1864:1880  updatedTime[num] */\n      dup2\n      mstore\n      0x20\n      add\n      swap1\n      dup2\n      mstore\n      0x20\n      add\n      0x00\n      keccak256\n      sload\n        /* \"platform.sol\":1857:1880  return updatedTime[num] */\n      swap1\n      pop\n        /* \"platform.sol\":1781:1887  function getUpdateTime(uint256 num) public view returns (uint256) {... */\n      swap2\n      swap1\n      pop\n      jump\t// out\n        /* \"platform.sol\":1145:1259  function getListingInfo(uint256 num) public view returns (ListingInfo memory) {... */\n    tag_80:\n        /* \"platform.sol\":1203:1221  ListingInfo memory */\n      tag_193\n      tag_194\n      jump\t// in\n    tag_193:\n        /* \"platform.sol\":1240:1247  listNum */\n      0x00\n        /* \"platform.sol\":1240:1252  listNum[num] */\n      dup1\n        /* \"platform.sol\":1248:1251  num */\n      dup4\n        /* \"platform.sol\":1240:1252  listNum[num] */\n      dup2\n      mstore\n      0x20\n      add\n      swap1\n      dup2\n      mstore\n      0x20\n      add\n      0x00\n      keccak256\n        /* \"platform.sol\":1233:1252  return listNum[num] */\n      mload(0x40)\n      dup1\n      0xe0\n      add\n      0x40\n      mstore\n      swap1\n      dup2\n      0x00\n      dup3\n      add\n      0x00\n      swap1\n      sload\n      swap1\n      0x0100\n      exp\n      swap1\n      div\n      0xffffffffffffffffffffffffffffffffffffffff\n      and\n      0xffffffffffffffffffffffffffffffffffffffff\n      and\n      0xffffffffffffffffffffffffffffffffffffffff\n      and\n      dup2\n      mstore\n      0x20\n      add\n      0x01\n      dup3\n      add\n      0x00\n      swap1\n      sload\n      swap1\n      0x0100\n      exp\n      swap1\n      div\n      0xffffffffffffffffffffffffffffffffffffffff\n      and\n      0xffffffffffffffffffffffffffffffffffffffff\n      and\n      0xffffffffffffffffffffffffffffffffffffffff\n      and\n      dup2\n      mstore\n      0x20\n      add\n      0x02\n      dup3\n      add\n      sload\n      dup2\n      mstore\n      0x20\n      add\n      0x03\n      dup3\n      add\n      sload\n      dup2\n      mstore\n      0x20\n      add\n      0x04\n      dup3\n      add\n      sload\n      dup2\n      mstore\n      0x20\n      add\n      0x05\n      dup3\n      add\n      sload\n      dup2\n      mstore\n      0x20\n      add\n      0x06\n      dup3\n      add\n      sload\n      dup2\n      mstore\n      pop\n      pop\n      swap1\n      pop\n        /* \"platform.sol\":1145:1259  function getListingInfo(uint256 num) public view returns (ListingInfo memory) {... */\n      swap2\n      swap1\n      pop\n      jump\t// out\n        /* \"platform.sol\":5683:6104  function giveBackNFT(uint256 listingIndex) public {... */\n    tag_86:\n        /* \"platform.sol\":5743:5766  ListingInfo memory info */\n      0x00\n        /* \"platform.sol\":5769:5797  getListingInfo(listingIndex) */\n      tag_197\n        /* \"platform.sol\":5784:5796  listingIndex */\n      dup3\n        /* \"platform.sol\":5769:5783  getListingInfo */\n      tag_80\n        /* \"platform.sol\":5769:5797  getListingInfo(listingIndex) */\n      jump\t// in\n    tag_197:\n        /* \"platform.sol\":5743:5797  ListingInfo memory info = getListingInfo(listingIndex) */\n      swap1\n      pop\n        /* \"platform.sol\":5830:5840  msg.sender */\n      caller\n        /* \"platform.sol\":5815:5840  info.poster == msg.sender */\n      0xffffffffffffffffffffffffffffffffffffffff\n      and\n        /* \"platform.sol\":5815:5819  info */\n      dup2\n        /* \"platform.sol\":5815:5826  info.poster */\n      0x00\n      add\n      mload\n        /* \"platform.sol\":5815:5840  info.poster == msg.sender */\n      0xffffffffffffffffffffffffffffffffffffffff\n      and\n      eq\n        /* \"platform.sol\":5807:5863  require(info.poster == msg.sender, \"You are not poster\") */\n      tag_198\n      jumpi\n      mload(0x40)\n      0x08c379a000000000000000000000000000000000000000000000000000000000\n      dup2\n      mstore\n      0x04\n      add\n      tag_199\n      swap1\n      tag_179\n      jump\t// in\n    tag_199:\n      mload(0x40)\n      dup1\n      swap2\n      sub\n      swap1\n      revert\n    tag_198:\n        /* \"platform.sol\":5896:5914  bytes32(\"repayed\") */\n      0x7265706179656400000000000000000000000000000000000000000000000000\n        /* \"platform.sol\":5881:5885  info */\n      dup2\n        /* \"platform.sol\":5881:5892  info.status */\n      0xc0\n      add\n      mload\n        /* \"platform.sol\":5881:5914  info.status == bytes32(\"repayed\") */\n      eq\n        /* \"platform.sol\":5873:5939  require(info.status == bytes32(\"repayed\"), \"This isn't repay yet\") */\n      tag_200\n      jumpi\n      mload(0x40)\n      0x08c379a000000000000000000000000000000000000000000000000000000000\n      dup2\n      mstore\n      0x04\n      add\n      tag_201\n      swap1\n      tag_202\n      jump\t// in\n    tag_201:\n      mload(0x40)\n      dup1\n      swap2\n      sub\n      swap1\n      revert\n    tag_200:\n        /* \"platform.sol\":5957:5961  info */\n      dup1\n        /* \"platform.sol\":5957:5976  info.collectionAddr */\n      0x20\n      add\n      mload\n        /* \"platform.sol\":5949:5990  IERC721(info.collectionAddr).transferFrom */\n      0xffffffffffffffffffffffffffffffffffffffff\n      and\n      0x23b872dd\n        /* \"platform.sol\":5999:6003  this */\n      address\n        /* \"platform.sol\":6006:6016  msg.sender */\n      caller\n        /* \"platform.sol\":6018:6022  info */\n      dup5\n        /* \"platform.sol\":6018:6030  info.tokenId */\n      0x40\n      add\n      mload\n        /* \"platform.sol\":5949:6031  IERC721(info.collectionAddr).transferFrom(address(this), msg.sender, info.tokenId) */\n      mload(0x40)\n      dup5\n      0xffffffff\n      and\n      0xe0\n      shl\n      dup2\n      mstore\n      0x04\n      add\n      tag_203\n      swap4\n      swap3\n      swap2\n      swap1\n      tag_150\n      jump\t// in\n    tag_203:\n      0x00\n      mload(0x40)\n      dup1\n      dup4\n      sub\n      dup2\n      0x00\n      dup8\n      dup1\n      extcodesize\n      iszero\n      dup1\n      iszero\n      tag_204\n      jumpi\n      0x00\n      dup1\n      revert\n    tag_204:\n      pop\n      gas\n      call\n      iszero\n      dup1\n      iszero\n      tag_206\n      jumpi\n      returndatasize\n      0x00\n      dup1\n      returndatacopy\n      revert(0x00, returndatasize)\n    tag_206:\n      pop\n      pop\n      pop\n      pop\n        /* \"platform.sol\":6041:6063  info.status = \"closed\" */\n      0x636c6f7365640000000000000000000000000000000000000000000000000000\n        /* \"platform.sol\":6041:6045  info */\n      dup2\n        /* \"platform.sol\":6041:6052  info.status */\n      0xc0\n      add\n        /* \"platform.sol\":6041:6063  info.status = \"closed\" */\n      dup2\n      dup2\n      mstore\n      pop\n      pop\n        /* \"platform.sol\":6073:6097  updateTime(listingIndex) */\n      tag_207\n        /* \"platform.sol\":6084:6096  listingIndex */\n      dup3\n        /* \"platform.sol\":6073:6083  updateTime */\n      tag_51\n        /* \"platform.sol\":6073:6097  updateTime(listingIndex) */\n      jump\t// in\n    tag_207:\n        /* \"platform.sol\":5733:6104  {... */\n      pop\n        /* \"platform.sol\":5683:6104  function giveBackNFT(uint256 listingIndex) public {... */\n      pop\n      jump\t// out\n        /* \"platform.sol\":3197:3780  function isExpired(uint256 listingIndex) public view returns (uint256, bool) {... */\n    tag_90:\n        /* \"platform.sol\":3259:3266  uint256 */\n      0x00\n        /* \"platform.sol\":3268:3272  bool */\n      dup1\n        /* \"platform.sol\":3284:3307  ListingInfo memory info */\n      0x00\n        /* \"platform.sol\":3310:3338  getListingInfo(listingIndex) */\n      tag_209\n        /* \"platform.sol\":3325:3337  listingIndex */\n      dup5\n        /* \"platform.sol\":3310:3324  getListingInfo */\n      tag_80\n        /* \"platform.sol\":3310:3338  getListingInfo(listingIndex) */\n      jump\t// in\n    tag_209:\n        /* \"platform.sol\":3284:3338  ListingInfo memory info = getListingInfo(listingIndex) */\n      swap1\n      pop\n        /* \"platform.sol\":3546:3568  uint256 expirationTime */\n      0x00\n        /* \"platform.sol\":3615:3623  minTosec */\n      sload(0x08)\n        /* \"platform.sol\":3599:3603  info */\n      dup3\n        /* \"platform.sol\":3599:3612  info.duration */\n      0x80\n      add\n      mload\n        /* \"platform.sol\":3599:3623  info.duration * minTosec */\n      tag_210\n      swap2\n      swap1\n      tag_109\n      jump\t// in\n    tag_210:\n        /* \"platform.sol\":3571:3582  updatedTime */\n      0x02\n        /* \"platform.sol\":3571:3596  updatedTime[listingIndex] */\n      0x00\n        /* \"platform.sol\":3583:3595  listingIndex */\n      dup8\n        /* \"platform.sol\":3571:3596  updatedTime[listingIndex] */\n      dup2\n      mstore\n      0x20\n      add\n      swap1\n      dup2\n      mstore\n      0x20\n      add\n      0x00\n      keccak256\n      sload\n        /* \"platform.sol\":3571:3623  updatedTime[listingIndex] + info.duration * minTosec */\n      tag_211\n      swap2\n      swap1\n      tag_120\n      jump\t// in\n    tag_211:\n        /* \"platform.sol\":3546:3623  uint256 expirationTime = updatedTime[listingIndex] + info.duration * minTosec */\n      swap1\n      pop\n        /* \"platform.sol\":3666:3687  uint256 remainingTime */\n      0x00\n        /* \"platform.sol\":3707:3722  block.timestamp */\n      timestamp\n        /* \"platform.sol\":3690:3704  expirationTime */\n      dup3\n        /* \"platform.sol\":3690:3722  expirationTime - block.timestamp */\n      tag_212\n      swap2\n      swap1\n      tag_116\n      jump\t// in\n    tag_212:\n        /* \"platform.sol\":3666:3722  uint256 remainingTime = expirationTime - block.timestamp */\n      swap1\n      pop\n        /* \"platform.sol\":3740:3753  remainingTime */\n      dup1\n        /* \"platform.sol\":3771:3772  0 */\n      0x00\n        /* \"platform.sol\":3755:3768  remainingTime */\n      dup3\n        /* \"platform.sol\":3755:3772  remainingTime < 0 */\n      lt\n        /* \"platform.sol\":3732:3773  return (remainingTime, remainingTime < 0) */\n      swap5\n      pop\n      swap5\n      pop\n      pop\n      pop\n      pop\n        /* \"platform.sol\":3197:3780  function isExpired(uint256 listingIndex) public view returns (uint256, bool) {... */\n      swap2\n      pop\n      swap2\n      jump\t// out\n        /* \"platform.sol\":2647:3076  function closeListing(uint256 listingIndex) public {... */\n    tag_96:\n        /* \"platform.sol\":2708:2732  ListingInfo storage info */\n      0x00\n        /* \"platform.sol\":2735:2742  listNum */\n      dup1\n        /* \"platform.sol\":2735:2756  listNum[listingIndex] */\n      0x00\n        /* \"platform.sol\":2743:2755  listingIndex */\n      dup4\n        /* \"platform.sol\":2735:2756  listNum[listingIndex] */\n      dup2\n      mstore\n      0x20\n      add\n      swap1\n      dup2\n      mstore\n      0x20\n      add\n      0x00\n      keccak256\n        /* \"platform.sol\":2708:2756  ListingInfo storage info = listNum[listingIndex] */\n      swap1\n      pop\n        /* \"platform.sol\":2789:2799  msg.sender */\n      caller\n        /* \"platform.sol\":2774:2799  info.poster == msg.sender */\n      0xffffffffffffffffffffffffffffffffffffffff\n      and\n        /* \"platform.sol\":2774:2778  info */\n      dup2\n        /* \"platform.sol\":2774:2785  info.poster */\n      0x00\n      add\n      0x00\n      swap1\n      sload\n      swap1\n      0x0100\n      exp\n      swap1\n      div\n      0xffffffffffffffffffffffffffffffffffffffff\n      and\n        /* \"platform.sol\":2774:2799  info.poster == msg.sender */\n      0xffffffffffffffffffffffffffffffffffffffff\n      and\n      eq\n        /* \"platform.sol\":2766:2834  require(info.poster == msg.sender, \"You are not poster of the list\") */\n      tag_214\n      jumpi\n      mload(0x40)\n      0x08c379a000000000000000000000000000000000000000000000000000000000\n      dup2\n      mstore\n      0x04\n      add\n      tag_215\n      swap1\n      tag_216\n      jump\t// in\n    tag_215:\n      mload(0x40)\n      dup1\n      swap2\n      sub\n      swap1\n      revert\n    tag_214:\n        /* \"platform.sol\":2867:2882  bytes32(\"open\") */\n      0x6f70656e00000000000000000000000000000000000000000000000000000000\n        /* \"platform.sol\":2852:2856  info */\n      dup2\n        /* \"platform.sol\":2852:2863  info.status */\n      0x06\n      add\n      sload\n        /* \"platform.sol\":2852:2882  info.status == bytes32(\"open\") */\n      eq\n        /* \"platform.sol\":2844:2903  require(info.status == bytes32(\"open\"), \"Not opening list\") */\n      tag_217\n      jumpi\n      mload(0x40)\n      0x08c379a000000000000000000000000000000000000000000000000000000000\n      dup2\n      mstore\n      0x04\n      add\n      tag_218\n      swap1\n      tag_219\n      jump\t// in\n    tag_218:\n      mload(0x40)\n      dup1\n      swap2\n      sub\n      swap1\n      revert\n    tag_217:\n        /* \"platform.sol\":2967:2989  info.status = \"cancel\" */\n      0x63616e63656c0000000000000000000000000000000000000000000000000000\n        /* \"platform.sol\":2967:2971  info */\n      dup2\n        /* \"platform.sol\":2967:2978  info.status */\n      0x06\n      add\n        /* \"platform.sol\":2967:2989  info.status = \"cancel\" */\n      dup2\n      swap1\n      sstore\n      pop\n        /* \"platform.sol\":2999:3023  updateTime(listingIndex) */\n      tag_220\n        /* \"platform.sol\":3010:3022  listingIndex */\n      dup3\n        /* \"platform.sol\":2999:3009  updateTime */\n      tag_51\n        /* \"platform.sol\":2999:3023  updateTime(listingIndex) */\n      jump\t// in\n    tag_220:\n        /* \"platform.sol\":3038:3069  CancelListing(msg.sender, info) */\n      0x7e885013ca94016b1452b4678f1c43c33cd914617b389322af7f7d97a2c4f585\n        /* \"platform.sol\":3052:3062  msg.sender */\n      caller\n        /* \"platform.sol\":3064:3068  info */\n      dup3\n        /* \"platform.sol\":3038:3069  CancelListing(msg.sender, info) */\n      mload(0x40)\n      tag_221\n      swap3\n      swap2\n      swap1\n      tag_175\n      jump\t// in\n    tag_221:\n      mload(0x40)\n      dup1\n      swap2\n      sub\n      swap1\n      log1\n        /* \"platform.sol\":2698:3076  {... */\n      pop\n        /* \"platform.sol\":2647:3076  function closeListing(uint256 listingIndex) public {... */\n      pop\n      jump\t// out\n        /* \"platform.sol\":688:734  mapping(uint256 => ListingInfo) public listNum */\n    tag_100:\n      mstore(0x20, 0x00)\n      dup1\n      0x00\n      mstore\n      keccak256(0x00, 0x40)\n      0x00\n      swap2\n      pop\n      swap1\n      pop\n      dup1\n      0x00\n      add\n      0x00\n      swap1\n      sload\n      swap1\n      0x0100\n      exp\n      swap1\n      div\n      0xffffffffffffffffffffffffffffffffffffffff\n      and\n      swap1\n      dup1\n      0x01\n      add\n      0x00\n      swap1\n      sload\n      swap1\n      0x0100\n      exp\n      swap1\n      div\n      0xffffffffffffffffffffffffffffffffffffffff\n      and\n      swap1\n      dup1\n      0x02\n      add\n      sload\n      swap1\n      dup1\n      0x03\n      add\n      sload\n      swap1\n      dup1\n      0x04\n      add\n      sload\n      swap1\n      dup1\n      0x05\n      add\n      sload\n      swap1\n      dup1\n      0x06\n      add\n      sload\n      swap1\n      pop\n      dup8\n      jump\t// out\n    tag_194:\n      mload(0x40)\n      dup1\n      0xe0\n      add\n      0x40\n      mstore\n      dup1\n      and(0xffffffffffffffffffffffffffffffffffffffff, 0x00)\n      dup2\n      mstore\n      0x20\n      add\n      and(0xffffffffffffffffffffffffffffffffffffffff, 0x00)\n      dup2\n      mstore\n      0x20\n      add\n      0x00\n      dup2\n      mstore\n      0x20\n      add\n      0x00\n      dup2\n      mstore\n      0x20\n      add\n      0x00\n      dup2\n      mstore\n      0x20\n      add\n      0x00\n      dup2\n      mstore\n      0x20\n      add\n      0x00\n      dup1\n      not\n      and\n      dup2\n      mstore\n      pop\n      swap1\n      jump\t// out\n        /* \"#utility.yul\":88:205   */\n    tag_223:\n        /* \"#utility.yul\":197:198   */\n      0x00\n        /* \"#utility.yul\":194:195   */\n      dup1\n        /* \"#utility.yul\":187:199   */\n      revert\n        /* \"#utility.yul\":334:460   */\n    tag_225:\n        /* \"#utility.yul\":371:378   */\n      0x00\n        /* \"#utility.yul\":411:453   */\n      0xffffffffffffffffffffffffffffffffffffffff\n        /* \"#utility.yul\":404:409   */\n      dup3\n        /* \"#utility.yul\":400:454   */\n      and\n        /* \"#utility.yul\":389:454   */\n      swap1\n      pop\n        /* \"#utility.yul\":334:460   */\n      swap2\n      swap1\n      pop\n      jump\t// out\n        /* \"#utility.yul\":466:562   */\n    tag_226:\n        /* \"#utility.yul\":503:510   */\n      0x00\n        /* \"#utility.yul\":532:556   */\n      tag_295\n        /* \"#utility.yul\":550:555   */\n      dup3\n        /* \"#utility.yul\":532:556   */\n      tag_225\n      jump\t// in\n    tag_295:\n        /* \"#utility.yul\":521:556   */\n      swap1\n      pop\n        /* \"#utility.yul\":466:562   */\n      swap2\n      swap1\n      pop\n      jump\t// out\n        /* \"#utility.yul\":568:690   */\n    tag_227:\n        /* \"#utility.yul\":641:665   */\n      tag_297\n        /* \"#utility.yul\":659:664   */\n      dup2\n        /* \"#utility.yul\":641:665   */\n      tag_226\n      jump\t// in\n    tag_297:\n        /* \"#utility.yul\":634:639   */\n      dup2\n        /* \"#utility.yul\":631:666   */\n      eq\n        /* \"#utility.yul\":621:684   */\n      tag_298\n      jumpi\n        /* \"#utility.yul\":680:681   */\n      0x00\n        /* \"#utility.yul\":677:678   */\n      dup1\n        /* \"#utility.yul\":670:682   */\n      revert\n        /* \"#utility.yul\":621:684   */\n    tag_298:\n        /* \"#utility.yul\":568:690   */\n      pop\n      jump\t// out\n        /* \"#utility.yul\":696:835   */\n    tag_228:\n        /* \"#utility.yul\":742:747   */\n      0x00\n        /* \"#utility.yul\":780:786   */\n      dup2\n        /* \"#utility.yul\":767:787   */\n      calldataload\n        /* \"#utility.yul\":758:787   */\n      swap1\n      pop\n        /* \"#utility.yul\":796:829   */\n      tag_300\n        /* \"#utility.yul\":823:828   */\n      dup2\n        /* \"#utility.yul\":796:829   */\n      tag_227\n      jump\t// in\n    tag_300:\n        /* \"#utility.yul\":696:835   */\n      swap3\n      swap2\n      pop\n      pop\n      jump\t// out\n        /* \"#utility.yul\":841:1170   */\n    tag_24:\n        /* \"#utility.yul\":900:906   */\n      0x00\n        /* \"#utility.yul\":949:951   */\n      0x20\n        /* \"#utility.yul\":937:946   */\n      dup3\n        /* \"#utility.yul\":928:935   */\n      dup5\n        /* \"#utility.yul\":924:947   */\n      sub\n        /* \"#utility.yul\":920:952   */\n      slt\n        /* \"#utility.yul\":917:1036   */\n      iszero\n      tag_302\n      jumpi\n        /* \"#utility.yul\":955:1034   */\n      tag_303\n      tag_223\n      jump\t// in\n    tag_303:\n        /* \"#utility.yul\":917:1036   */\n    tag_302:\n        /* \"#utility.yul\":1075:1076   */\n      0x00\n        /* \"#utility.yul\":1100:1153   */\n      tag_304\n        /* \"#utility.yul\":1145:1152   */\n      dup5\n        /* \"#utility.yul\":1136:1142   */\n      dup3\n        /* \"#utility.yul\":1125:1134   */\n      dup6\n        /* \"#utility.yul\":1121:1143   */\n      add\n        /* \"#utility.yul\":1100:1153   */\n      tag_228\n      jump\t// in\n    tag_304:\n        /* \"#utility.yul\":1090:1153   */\n      swap2\n      pop\n        /* \"#utility.yul\":1046:1163   */\n      pop\n        /* \"#utility.yul\":841:1170   */\n      swap3\n      swap2\n      pop\n      pop\n      jump\t// out\n        /* \"#utility.yul\":1176:1290   */\n    tag_229:\n        /* \"#utility.yul\":1243:1249   */\n      0x00\n        /* \"#utility.yul\":1277:1282   */\n      dup2\n        /* \"#utility.yul\":1271:1283   */\n      mload\n        /* \"#utility.yul\":1261:1283   */\n      swap1\n      pop\n        /* \"#utility.yul\":1176:1290   */\n      swap2\n      swap1\n      pop\n      jump\t// out\n        /* \"#utility.yul\":1296:1480   */\n    tag_230:\n        /* \"#utility.yul\":1395:1406   */\n      0x00\n        /* \"#utility.yul\":1429:1435   */\n      dup3\n        /* \"#utility.yul\":1424:1427   */\n      dup3\n        /* \"#utility.yul\":1417:1436   */\n      mstore\n        /* \"#utility.yul\":1469:1473   */\n      0x20\n        /* \"#utility.yul\":1464:1467   */\n      dup3\n        /* \"#utility.yul\":1460:1474   */\n      add\n        /* \"#utility.yul\":1445:1474   */\n      swap1\n      pop\n        /* \"#utility.yul\":1296:1480   */\n      swap3\n      swap2\n      pop\n      pop\n      jump\t// out\n        /* \"#utility.yul\":1486:1618   */\n    tag_231:\n        /* \"#utility.yul\":1553:1557   */\n      0x00\n        /* \"#utility.yul\":1576:1579   */\n      dup2\n        /* \"#utility.yul\":1568:1579   */\n      swap1\n      pop\n        /* \"#utility.yul\":1606:1610   */\n      0x20\n        /* \"#utility.yul\":1601:1604   */\n      dup3\n        /* \"#utility.yul\":1597:1611   */\n      add\n        /* \"#utility.yul\":1589:1611   */\n      swap1\n      pop\n        /* \"#utility.yul\":1486:1618   */\n      swap2\n      swap1\n      pop\n      jump\t// out\n        /* \"#utility.yul\":1624:1701   */\n    tag_232:\n        /* \"#utility.yul\":1661:1668   */\n      0x00\n        /* \"#utility.yul\":1690:1695   */\n      dup2\n        /* \"#utility.yul\":1679:1695   */\n      swap1\n      pop\n        /* \"#utility.yul\":1624:1701   */\n      swap2\n      swap1\n      pop\n      jump\t// out\n        /* \"#utility.yul\":1707:1815   */\n    tag_233:\n        /* \"#utility.yul\":1784:1808   */\n      tag_310\n        /* \"#utility.yul\":1802:1807   */\n      dup2\n        /* \"#utility.yul\":1784:1808   */\n      tag_232\n      jump\t// in\n    tag_310:\n        /* \"#utility.yul\":1779:1782   */\n      dup3\n        /* \"#utility.yul\":1772:1809   */\n      mstore\n        /* \"#utility.yul\":1707:1815   */\n      pop\n      pop\n      jump\t// out\n        /* \"#utility.yul\":1821:2000   */\n    tag_234:\n        /* \"#utility.yul\":1890:1900   */\n      0x00\n        /* \"#utility.yul\":1911:1957   */\n      tag_312\n        /* \"#utility.yul\":1953:1956   */\n      dup4\n        /* \"#utility.yul\":1945:1951   */\n      dup4\n        /* \"#utility.yul\":1911:1957   */\n      tag_233\n      jump\t// in\n    tag_312:\n        /* \"#utility.yul\":1989:1993   */\n      0x20\n        /* \"#utility.yul\":1984:1987   */\n      dup4\n        /* \"#utility.yul\":1980:1994   */\n      add\n        /* \"#utility.yul\":1966:1994   */\n      swap1\n      pop\n        /* \"#utility.yul\":1821:2000   */\n      swap3\n      swap2\n      pop\n      pop\n      jump\t// out\n        /* \"#utility.yul\":2006:2119   */\n    tag_235:\n        /* \"#utility.yul\":2076:2080   */\n      0x00\n        /* \"#utility.yul\":2108:2112   */\n      0x20\n        /* \"#utility.yul\":2103:2106   */\n      dup3\n        /* \"#utility.yul\":2099:2113   */\n      add\n        /* \"#utility.yul\":2091:2113   */\n      swap1\n      pop\n        /* \"#utility.yul\":2006:2119   */\n      swap2\n      swap1\n      pop\n      jump\t// out\n        /* \"#utility.yul\":2155:2887   */\n    tag_236:\n        /* \"#utility.yul\":2274:2277   */\n      0x00\n        /* \"#utility.yul\":2303:2357   */\n      tag_315\n        /* \"#utility.yul\":2351:2356   */\n      dup3\n        /* \"#utility.yul\":2303:2357   */\n      tag_229\n      jump\t// in\n    tag_315:\n        /* \"#utility.yul\":2373:2459   */\n      tag_316\n        /* \"#utility.yul\":2452:2458   */\n      dup2\n        /* \"#utility.yul\":2447:2450   */\n      dup6\n        /* \"#utility.yul\":2373:2459   */\n      tag_230\n      jump\t// in\n    tag_316:\n        /* \"#utility.yul\":2366:2459   */\n      swap4\n      pop\n        /* \"#utility.yul\":2483:2539   */\n      tag_317\n        /* \"#utility.yul\":2533:2538   */\n      dup4\n        /* \"#utility.yul\":2483:2539   */\n      tag_231\n      jump\t// in\n    tag_317:\n        /* \"#utility.yul\":2562:2569   */\n      dup1\n        /* \"#utility.yul\":2593:2594   */\n      0x00\n        /* \"#utility.yul\":2578:2862   */\n    tag_318:\n        /* \"#utility.yul\":2603:2609   */\n      dup4\n        /* \"#utility.yul\":2600:2601   */\n      dup2\n        /* \"#utility.yul\":2597:2610   */\n      lt\n        /* \"#utility.yul\":2578:2862   */\n      iszero\n      tag_320\n      jumpi\n        /* \"#utility.yul\":2679:2685   */\n      dup2\n        /* \"#utility.yul\":2673:2686   */\n      mload\n        /* \"#utility.yul\":2706:2769   */\n      tag_321\n        /* \"#utility.yul\":2765:2768   */\n      dup9\n        /* \"#utility.yul\":2750:2763   */\n      dup3\n        /* \"#utility.yul\":2706:2769   */\n      tag_234\n      jump\t// in\n    tag_321:\n        /* \"#utility.yul\":2699:2769   */\n      swap8\n      pop\n        /* \"#utility.yul\":2792:2852   */\n      tag_322\n        /* \"#utility.yul\":2845:2851   */\n      dup4\n        /* \"#utility.yul\":2792:2852   */\n      tag_235\n      jump\t// in\n    tag_322:\n        /* \"#utility.yul\":2782:2852   */\n      swap3\n      pop\n        /* \"#utility.yul\":2638:2862   */\n      pop\n        /* \"#utility.yul\":2625:2626   */\n      0x01\n        /* \"#utility.yul\":2622:2623   */\n      dup2\n        /* \"#utility.yul\":2618:2627   */\n      add\n        /* \"#utility.yul\":2613:2627   */\n      swap1\n      pop\n        /* \"#utility.yul\":2578:2862   */\n      jump(tag_318)\n    tag_320:\n        /* \"#utility.yul\":2582:2596   */\n      pop\n        /* \"#utility.yul\":2878:2881   */\n      dup6\n        /* \"#utility.yul\":2871:2881   */\n      swap4\n      pop\n        /* \"#utility.yul\":2279:2887   */\n      pop\n      pop\n      pop\n        /* \"#utility.yul\":2155:2887   */\n      swap3\n      swap2\n      pop\n      pop\n      jump\t// out\n        /* \"#utility.yul\":2893:3266   */\n    tag_27:\n        /* \"#utility.yul\":3036:3040   */\n      0x00\n        /* \"#utility.yul\":3074:3076   */\n      0x20\n        /* \"#utility.yul\":3063:3072   */\n      dup3\n        /* \"#utility.yul\":3059:3077   */\n      add\n        /* \"#utility.yul\":3051:3077   */\n      swap1\n      pop\n        /* \"#utility.yul\":3123:3132   */\n      dup2\n        /* \"#utility.yul\":3117:3121   */\n      dup2\n        /* \"#utility.yul\":3113:3133   */\n      sub\n        /* \"#utility.yul\":3109:3110   */\n      0x00\n        /* \"#utility.yul\":3098:3107   */\n      dup4\n        /* \"#utility.yul\":3094:3111   */\n      add\n        /* \"#utility.yul\":3087:3134   */\n      mstore\n        /* \"#utility.yul\":3151:3259   */\n      tag_324\n        /* \"#utility.yul\":3254:3258   */\n      dup2\n        /* \"#utility.yul\":3245:3251   */\n      dup5\n        /* \"#utility.yul\":3151:3259   */\n      tag_236\n      jump\t// in\n    tag_324:\n        /* \"#utility.yul\":3143:3259   */\n      swap1\n      pop\n        /* \"#utility.yul\":2893:3266   */\n      swap3\n      swap2\n      pop\n      pop\n      jump\t// out\n        /* \"#utility.yul\":3272:3394   */\n    tag_237:\n        /* \"#utility.yul\":3345:3369   */\n      tag_326\n        /* \"#utility.yul\":3363:3368   */\n      dup2\n        /* \"#utility.yul\":3345:3369   */\n      tag_232\n      jump\t// in\n    tag_326:\n        /* \"#utility.yul\":3338:3343   */\n      dup2\n        /* \"#utility.yul\":3335:3370   */\n      eq\n        /* \"#utility.yul\":3325:3388   */\n      tag_327\n      jumpi\n        /* \"#utility.yul\":3384:3385   */\n      0x00\n        /* \"#utility.yul\":3381:3382   */\n      dup1\n        /* \"#utility.yul\":3374:3386   */\n      revert\n        /* \"#utility.yul\":3325:3388   */\n    tag_327:\n        /* \"#utility.yul\":3272:3394   */\n      pop\n      jump\t// out\n        /* \"#utility.yul\":3400:3539   */\n    tag_238:\n        /* \"#utility.yul\":3446:3451   */\n      0x00\n        /* \"#utility.yul\":3484:3490   */\n      dup2\n        /* \"#utility.yul\":3471:3491   */\n      calldataload\n        /* \"#utility.yul\":3462:3491   */\n      swap1\n      pop\n        /* \"#utility.yul\":3500:3533   */\n      tag_329\n        /* \"#utility.yul\":3527:3532   */\n      dup2\n        /* \"#utility.yul\":3500:3533   */\n      tag_237\n      jump\t// in\n    tag_329:\n        /* \"#utility.yul\":3400:3539   */\n      swap3\n      swap2\n      pop\n      pop\n      jump\t// out\n        /* \"#utility.yul\":3545:3874   */\n    tag_31:\n        /* \"#utility.yul\":3604:3610   */\n      0x00\n        /* \"#utility.yul\":3653:3655   */\n      0x20\n        /* \"#utility.yul\":3641:3650   */\n      dup3\n        /* \"#utility.yul\":3632:3639   */\n      dup5\n        /* \"#utility.yul\":3628:3651   */\n      sub\n        /* \"#utility.yul\":3624:3656   */\n      slt\n        /* \"#utility.yul\":3621:3740   */\n      iszero\n      tag_331\n      jumpi\n        /* \"#utility.yul\":3659:3738   */\n      tag_332\n      tag_223\n      jump\t// in\n    tag_332:\n        /* \"#utility.yul\":3621:3740   */\n    tag_331:\n        /* \"#utility.yul\":3779:3780   */\n      0x00\n        /* \"#utility.yul\":3804:3857   */\n      tag_333\n        /* \"#utility.yul\":3849:3856   */\n      dup5\n        /* \"#utility.yul\":3840:3846   */\n      dup3\n        /* \"#utility.yul\":3829:3838   */\n      dup6\n        /* \"#utility.yul\":3825:3847   */\n      add\n        /* \"#utility.yul\":3804:3857   */\n      tag_238\n      jump\t// in\n    tag_333:\n        /* \"#utility.yul\":3794:3857   */\n      swap2\n      pop\n        /* \"#utility.yul\":3750:3867   */\n      pop\n        /* \"#utility.yul\":3545:3874   */\n      swap3\n      swap2\n      pop\n      pop\n      jump\t// out\n        /* \"#utility.yul\":3880:3998   */\n    tag_239:\n        /* \"#utility.yul\":3967:3991   */\n      tag_335\n        /* \"#utility.yul\":3985:3990   */\n      dup2\n        /* \"#utility.yul\":3967:3991   */\n      tag_232\n      jump\t// in\n    tag_335:\n        /* \"#utility.yul\":3962:3965   */\n      dup3\n        /* \"#utility.yul\":3955:3992   */\n      mstore\n        /* \"#utility.yul\":3880:3998   */\n      pop\n      pop\n      jump\t// out\n        /* \"#utility.yul\":4004:4226   */\n    tag_34:\n        /* \"#utility.yul\":4097:4101   */\n      0x00\n        /* \"#utility.yul\":4135:4137   */\n      0x20\n        /* \"#utility.yul\":4124:4133   */\n      dup3\n        /* \"#utility.yul\":4120:4138   */\n      add\n        /* \"#utility.yul\":4112:4138   */\n      swap1\n      pop\n        /* \"#utility.yul\":4148:4219   */\n      tag_337\n        /* \"#utility.yul\":4216:4217   */\n      0x00\n        /* \"#utility.yul\":4205:4214   */\n      dup4\n        /* \"#utility.yul\":4201:4218   */\n      add\n        /* \"#utility.yul\":4192:4198   */\n      dup5\n        /* \"#utility.yul\":4148:4219   */\n      tag_239\n      jump\t// in\n    tag_337:\n        /* \"#utility.yul\":4004:4226   */\n      swap3\n      swap2\n      pop\n      pop\n      jump\t// out\n        /* \"#utility.yul\":4232:4706   */\n    tag_38:\n        /* \"#utility.yul\":4300:4306   */\n      0x00\n        /* \"#utility.yul\":4308:4314   */\n      dup1\n        /* \"#utility.yul\":4357:4359   */\n      0x40\n        /* \"#utility.yul\":4345:4354   */\n      dup4\n        /* \"#utility.yul\":4336:4343   */\n      dup6\n        /* \"#utility.yul\":4332:4355   */\n      sub\n        /* \"#utility.yul\":4328:4360   */\n      slt\n        /* \"#utility.yul\":4325:4444   */\n      iszero\n      tag_339\n      jumpi\n        /* \"#utility.yul\":4363:4442   */\n      tag_340\n      tag_223\n      jump\t// in\n    tag_340:\n        /* \"#utility.yul\":4325:4444   */\n    tag_339:\n        /* \"#utility.yul\":4483:4484   */\n      0x00\n        /* \"#utility.yul\":4508:4561   */\n      tag_341\n        /* \"#utility.yul\":4553:4560   */\n      dup6\n        /* \"#utility.yul\":4544:4550   */\n      dup3\n        /* \"#utility.yul\":4533:4542   */\n      dup7\n        /* \"#utility.yul\":4529:4551   */\n      add\n        /* \"#utility.yul\":4508:4561   */\n      tag_228\n      jump\t// in\n    tag_341:\n        /* \"#utility.yul\":4498:4561   */\n      swap3\n      pop\n        /* \"#utility.yul\":4454:4571   */\n      pop\n        /* \"#utility.yul\":4610:4612   */\n      0x20\n        /* \"#utility.yul\":4636:4689   */\n      tag_342\n        /* \"#utility.yul\":4681:4688   */\n      dup6\n        /* \"#utility.yul\":4672:4678   */\n      dup3\n        /* \"#utility.yul\":4661:4670   */\n      dup7\n        /* \"#utility.yul\":4657:4679   */\n      add\n        /* \"#utility.yul\":4636:4689   */\n      tag_238\n      jump\t// in\n    tag_342:\n        /* \"#utility.yul\":4626:4689   */\n      swap2\n      pop\n        /* \"#utility.yul\":4581:4699   */\n      pop\n        /* \"#utility.yul\":4232:4706   */\n      swap3\n      pop\n      swap3\n      swap1\n      pop\n      jump\t// out\n        /* \"#utility.yul\":4712:4830   */\n    tag_240:\n        /* \"#utility.yul\":4799:4823   */\n      tag_344\n        /* \"#utility.yul\":4817:4822   */\n      dup2\n        /* \"#utility.yul\":4799:4823   */\n      tag_226\n      jump\t// in\n    tag_344:\n        /* \"#utility.yul\":4794:4797   */\n      dup3\n        /* \"#utility.yul\":4787:4824   */\n      mstore\n        /* \"#utility.yul\":4712:4830   */\n      pop\n      pop\n      jump\t// out\n        /* \"#utility.yul\":4836:5058   */\n    tag_41:\n        /* \"#utility.yul\":4929:4933   */\n      0x00\n        /* \"#utility.yul\":4967:4969   */\n      0x20\n        /* \"#utility.yul\":4956:4965   */\n      dup3\n        /* \"#utility.yul\":4952:4970   */\n      add\n        /* \"#utility.yul\":4944:4970   */\n      swap1\n      pop\n        /* \"#utility.yul\":4980:5051   */\n      tag_346\n        /* \"#utility.yul\":5048:5049   */\n      0x00\n        /* \"#utility.yul\":5037:5046   */\n      dup4\n        /* \"#utility.yul\":5033:5050   */\n      add\n        /* \"#utility.yul\":5024:5030   */\n      dup5\n        /* \"#utility.yul\":4980:5051   */\n      tag_240\n      jump\t// in\n    tag_346:\n        /* \"#utility.yul\":4836:5058   */\n      swap3\n      swap2\n      pop\n      pop\n      jump\t// out\n        /* \"#utility.yul\":5064:5154   */\n    tag_241:\n        /* \"#utility.yul\":5098:5105   */\n      0x00\n        /* \"#utility.yul\":5141:5146   */\n      dup2\n        /* \"#utility.yul\":5134:5147   */\n      iszero\n        /* \"#utility.yul\":5127:5148   */\n      iszero\n        /* \"#utility.yul\":5116:5148   */\n      swap1\n      pop\n        /* \"#utility.yul\":5064:5154   */\n      swap2\n      swap1\n      pop\n      jump\t// out\n        /* \"#utility.yul\":5160:5269   */\n    tag_242:\n        /* \"#utility.yul\":5241:5262   */\n      tag_349\n        /* \"#utility.yul\":5256:5261   */\n      dup2\n        /* \"#utility.yul\":5241:5262   */\n      tag_241\n      jump\t// in\n    tag_349:\n        /* \"#utility.yul\":5236:5239   */\n      dup3\n        /* \"#utility.yul\":5229:5263   */\n      mstore\n        /* \"#utility.yul\":5160:5269   */\n      pop\n      pop\n      jump\t// out\n        /* \"#utility.yul\":5275:5485   */\n    tag_47:\n        /* \"#utility.yul\":5362:5366   */\n      0x00\n        /* \"#utility.yul\":5400:5402   */\n      0x20\n        /* \"#utility.yul\":5389:5398   */\n      dup3\n        /* \"#utility.yul\":5385:5403   */\n      add\n        /* \"#utility.yul\":5377:5403   */\n      swap1\n      pop\n        /* \"#utility.yul\":5413:5478   */\n      tag_351\n        /* \"#utility.yul\":5475:5476   */\n      0x00\n        /* \"#utility.yul\":5464:5473   */\n      dup4\n        /* \"#utility.yul\":5460:5477   */\n      add\n        /* \"#utility.yul\":5451:5457   */\n      dup5\n        /* \"#utility.yul\":5413:5478   */\n      tag_242\n      jump\t// in\n    tag_351:\n        /* \"#utility.yul\":5275:5485   */\n      swap3\n      swap2\n      pop\n      pop\n      jump\t// out\n        /* \"#utility.yul\":5491:6402   */\n    tag_55:\n        /* \"#utility.yul\":5586:5592   */\n      0x00\n        /* \"#utility.yul\":5594:5600   */\n      dup1\n        /* \"#utility.yul\":5602:5608   */\n      0x00\n        /* \"#utility.yul\":5610:5616   */\n      dup1\n        /* \"#utility.yul\":5618:5624   */\n      0x00\n        /* \"#utility.yul\":5667:5670   */\n      0xa0\n        /* \"#utility.yul\":5655:5664   */\n      dup7\n        /* \"#utility.yul\":5646:5653   */\n      dup9\n        /* \"#utility.yul\":5642:5665   */\n      sub\n        /* \"#utility.yul\":5638:5671   */\n      slt\n        /* \"#utility.yul\":5635:5755   */\n      iszero\n      tag_353\n      jumpi\n        /* \"#utility.yul\":5674:5753   */\n      tag_354\n      tag_223\n      jump\t// in\n    tag_354:\n        /* \"#utility.yul\":5635:5755   */\n    tag_353:\n        /* \"#utility.yul\":5794:5795   */\n      0x00\n        /* \"#utility.yul\":5819:5872   */\n      tag_355\n        /* \"#utility.yul\":5864:5871   */\n      dup9\n        /* \"#utility.yul\":5855:5861   */\n      dup3\n        /* \"#utility.yul\":5844:5853   */\n      dup10\n        /* \"#utility.yul\":5840:5862   */\n      add\n        /* \"#utility.yul\":5819:5872   */\n      tag_228\n      jump\t// in\n    tag_355:\n        /* \"#utility.yul\":5809:5872   */\n      swap6\n      pop\n        /* \"#utility.yul\":5765:5882   */\n      pop\n        /* \"#utility.yul\":5921:5923   */\n      0x20\n        /* \"#utility.yul\":5947:6000   */\n      tag_356\n        /* \"#utility.yul\":5992:5999   */\n      dup9\n        /* \"#utility.yul\":5983:5989   */\n      dup3\n        /* \"#utility.yul\":5972:5981   */\n      dup10\n        /* \"#utility.yul\":5968:5990   */\n      add\n        /* \"#utility.yul\":5947:6000   */\n      tag_238\n      jump\t// in\n    tag_356:\n        /* \"#utility.yul\":5937:6000   */\n      swap5\n      pop\n        /* \"#utility.yul\":5892:6010   */\n      pop\n        /* \"#utility.yul\":6049:6051   */\n      0x40\n        /* \"#utility.yul\":6075:6128   */\n      tag_357\n        /* \"#utility.yul\":6120:6127   */\n      dup9\n        /* \"#utility.yul\":6111:6117   */\n      dup3\n        /* \"#utility.yul\":6100:6109   */\n      dup10\n        /* \"#utility.yul\":6096:6118   */\n      add\n        /* \"#utility.yul\":6075:6128   */\n      tag_238\n      jump\t// in\n    tag_357:\n        /* \"#utility.yul\":6065:6128   */\n      swap4\n      pop\n        /* \"#utility.yul\":6020:6138   */\n      pop\n        /* \"#utility.yul\":6177:6179   */\n      0x60\n        /* \"#utility.yul\":6203:6256   */\n      tag_358\n        /* \"#utility.yul\":6248:6255   */\n      dup9\n        /* \"#utility.yul\":6239:6245   */\n      dup3\n        /* \"#utility.yul\":6228:6237   */\n      dup10\n        /* \"#utility.yul\":6224:6246   */\n      add\n        /* \"#utility.yul\":6203:6256   */\n      tag_238\n      jump\t// in\n    tag_358:\n        /* \"#utility.yul\":6193:6256   */\n      swap3\n      pop\n        /* \"#utility.yul\":6148:6266   */\n      pop\n        /* \"#utility.yul\":6305:6308   */\n      0x80\n        /* \"#utility.yul\":6332:6385   */\n      tag_359\n        /* \"#utility.yul\":6377:6384   */\n      dup9\n        /* \"#utility.yul\":6368:6374   */\n      dup3\n        /* \"#utility.yul\":6357:6366   */\n      dup10\n        /* \"#utility.yul\":6353:6375   */\n      add\n        /* \"#utility.yul\":6332:6385   */\n      tag_238\n      jump\t// in\n    tag_359:\n        /* \"#utility.yul\":6322:6385   */\n      swap2\n      pop\n        /* \"#utility.yul\":6276:6395   */\n      pop\n        /* \"#utility.yul\":5491:6402   */\n      swap3\n      swap6\n      pop\n      swap3\n      swap6\n      swap1\n      swap4\n      pop\n      jump\t// out\n        /* \"#utility.yul\":6408:6512   */\n    tag_243:\n        /* \"#utility.yul\":6453:6460   */\n      0x00\n        /* \"#utility.yul\":6482:6506   */\n      tag_361\n        /* \"#utility.yul\":6500:6505   */\n      dup3\n        /* \"#utility.yul\":6482:6506   */\n      tag_225\n      jump\t// in\n    tag_361:\n        /* \"#utility.yul\":6471:6506   */\n      swap1\n      pop\n        /* \"#utility.yul\":6408:6512   */\n      swap2\n      swap1\n      pop\n      jump\t// out\n        /* \"#utility.yul\":6518:6650   */\n    tag_244:\n        /* \"#utility.yul\":6611:6643   */\n      tag_363\n        /* \"#utility.yul\":6637:6642   */\n      dup2\n        /* \"#utility.yul\":6611:6643   */\n      tag_243\n      jump\t// in\n    tag_363:\n        /* \"#utility.yul\":6606:6609   */\n      dup3\n        /* \"#utility.yul\":6599:6644   */\n      mstore\n        /* \"#utility.yul\":6518:6650   */\n      pop\n      pop\n      jump\t// out\n        /* \"#utility.yul\":6656:6764   */\n    tag_245:\n        /* \"#utility.yul\":6733:6757   */\n      tag_365\n        /* \"#utility.yul\":6751:6756   */\n      dup2\n        /* \"#utility.yul\":6733:6757   */\n      tag_226\n      jump\t// in\n    tag_365:\n        /* \"#utility.yul\":6728:6731   */\n      dup3\n        /* \"#utility.yul\":6721:6758   */\n      mstore\n        /* \"#utility.yul\":6656:6764   */\n      pop\n      pop\n      jump\t// out\n        /* \"#utility.yul\":6770:6847   */\n    tag_246:\n        /* \"#utility.yul\":6807:6814   */\n      0x00\n        /* \"#utility.yul\":6836:6841   */\n      dup2\n        /* \"#utility.yul\":6825:6841   */\n      swap1\n      pop\n        /* \"#utility.yul\":6770:6847   */\n      swap2\n      swap1\n      pop\n      jump\t// out\n        /* \"#utility.yul\":6853:6961   */\n    tag_247:\n        /* \"#utility.yul\":6930:6954   */\n      tag_368\n        /* \"#utility.yul\":6948:6953   */\n      dup2\n        /* \"#utility.yul\":6930:6954   */\n      tag_246\n      jump\t// in\n    tag_368:\n        /* \"#utility.yul\":6925:6928   */\n      dup3\n        /* \"#utility.yul\":6918:6955   */\n      mstore\n        /* \"#utility.yul\":6853:6961   */\n      pop\n      pop\n      jump\t// out\n        /* \"#utility.yul\":7033:8454   */\n    tag_248:\n        /* \"#utility.yul\":7186:7190   */\n      0xe0\n        /* \"#utility.yul\":7181:7184   */\n      dup3\n        /* \"#utility.yul\":7177:7191   */\n      add\n        /* \"#utility.yul\":7275:7279   */\n      0x00\n        /* \"#utility.yul\":7268:7273   */\n      dup3\n        /* \"#utility.yul\":7264:7280   */\n      add\n        /* \"#utility.yul\":7258:7281   */\n      mload\n        /* \"#utility.yul\":7294:7373   */\n      tag_370\n        /* \"#utility.yul\":7367:7371   */\n      0x00\n        /* \"#utility.yul\":7362:7365   */\n      dup6\n        /* \"#utility.yul\":7358:7372   */\n      add\n        /* \"#utility.yul\":7344:7356   */\n      dup3\n        /* \"#utility.yul\":7294:7373   */\n      tag_244\n      jump\t// in\n    tag_370:\n        /* \"#utility.yul\":7201:7383   */\n      pop\n        /* \"#utility.yul\":7475:7479   */\n      0x20\n        /* \"#utility.yul\":7468:7473   */\n      dup3\n        /* \"#utility.yul\":7464:7480   */\n      add\n        /* \"#utility.yul\":7458:7481   */\n      mload\n        /* \"#utility.yul\":7494:7557   */\n      tag_371\n        /* \"#utility.yul\":7551:7555   */\n      0x20\n        /* \"#utility.yul\":7546:7549   */\n      dup6\n        /* \"#utility.yul\":7542:7556   */\n      add\n        /* \"#utility.yul\":7528:7540   */\n      dup3\n        /* \"#utility.yul\":7494:7557   */\n      tag_245\n      jump\t// in\n    tag_371:\n        /* \"#utility.yul\":7393:7567   */\n      pop\n        /* \"#utility.yul\":7652:7656   */\n      0x40\n        /* \"#utility.yul\":7645:7650   */\n      dup3\n        /* \"#utility.yul\":7641:7657   */\n      add\n        /* \"#utility.yul\":7635:7658   */\n      mload\n        /* \"#utility.yul\":7671:7734   */\n      tag_372\n        /* \"#utility.yul\":7728:7732   */\n      0x40\n        /* \"#utility.yul\":7723:7726   */\n      dup6\n        /* \"#utility.yul\":7719:7733   */\n      add\n        /* \"#utility.yul\":7705:7717   */\n      dup3\n        /* \"#utility.yul\":7671:7734   */\n      tag_233\n      jump\t// in\n    tag_372:\n        /* \"#utility.yul\":7577:7744   */\n      pop\n        /* \"#utility.yul\":7828:7832   */\n      0x60\n        /* \"#utility.yul\":7821:7826   */\n      dup3\n        /* \"#utility.yul\":7817:7833   */\n      add\n        /* \"#utility.yul\":7811:7834   */\n      mload\n        /* \"#utility.yul\":7847:7910   */\n      tag_373\n        /* \"#utility.yul\":7904:7908   */\n      0x60\n        /* \"#utility.yul\":7899:7902   */\n      dup6\n        /* \"#utility.yul\":7895:7909   */\n      add\n        /* \"#utility.yul\":7881:7893   */\n      dup3\n        /* \"#utility.yul\":7847:7910   */\n      tag_233\n      jump\t// in\n    tag_373:\n        /* \"#utility.yul\":7754:7920   */\n      pop\n        /* \"#utility.yul\":8006:8010   */\n      0x80\n        /* \"#utility.yul\":7999:8004   */\n      dup3\n        /* \"#utility.yul\":7995:8011   */\n      add\n        /* \"#utility.yul\":7989:8012   */\n      mload\n        /* \"#utility.yul\":8025:8088   */\n      tag_374\n        /* \"#utility.yul\":8082:8086   */\n      0x80\n        /* \"#utility.yul\":8077:8080   */\n      dup6\n        /* \"#utility.yul\":8073:8087   */\n      add\n        /* \"#utility.yul\":8059:8071   */\n      dup3\n        /* \"#utility.yul\":8025:8088   */\n      tag_233\n      jump\t// in\n    tag_374:\n        /* \"#utility.yul\":7930:8098   */\n      pop\n        /* \"#utility.yul\":8179:8183   */\n      0xa0\n        /* \"#utility.yul\":8172:8177   */\n      dup3\n        /* \"#utility.yul\":8168:8184   */\n      add\n        /* \"#utility.yul\":8162:8185   */\n      mload\n        /* \"#utility.yul\":8198:8261   */\n      tag_375\n        /* \"#utility.yul\":8255:8259   */\n      0xa0\n        /* \"#utility.yul\":8250:8253   */\n      dup6\n        /* \"#utility.yul\":8246:8260   */\n      add\n        /* \"#utility.yul\":8232:8244   */\n      dup3\n        /* \"#utility.yul\":8198:8261   */\n      tag_233\n      jump\t// in\n    tag_375:\n        /* \"#utility.yul\":8108:8271   */\n      pop\n        /* \"#utility.yul\":8355:8359   */\n      0xc0\n        /* \"#utility.yul\":8348:8353   */\n      dup3\n        /* \"#utility.yul\":8344:8360   */\n      add\n        /* \"#utility.yul\":8338:8361   */\n      mload\n        /* \"#utility.yul\":8374:8437   */\n      tag_376\n        /* \"#utility.yul\":8431:8435   */\n      0xc0\n        /* \"#utility.yul\":8426:8429   */\n      dup6\n        /* \"#utility.yul\":8422:8436   */\n      add\n        /* \"#utility.yul\":8408:8420   */\n      dup3\n        /* \"#utility.yul\":8374:8437   */\n      tag_247\n      jump\t// in\n    tag_376:\n        /* \"#utility.yul\":8281:8447   */\n      pop\n        /* \"#utility.yul\":7155:8454   */\n      pop\n        /* \"#utility.yul\":7033:8454   */\n      pop\n      pop\n      jump\t// out\n        /* \"#utility.yul\":8460:8795   */\n    tag_82:\n        /* \"#utility.yul\":8609:8613   */\n      0x00\n        /* \"#utility.yul\":8647:8650   */\n      0xe0\n        /* \"#utility.yul\":8636:8645   */\n      dup3\n        /* \"#utility.yul\":8632:8651   */\n      add\n        /* \"#utility.yul\":8624:8651   */\n      swap1\n      pop\n        /* \"#utility.yul\":8661:8788   */\n      tag_378\n        /* \"#utility.yul\":8785:8786   */\n      0x00\n        /* \"#utility.yul\":8774:8783   */\n      dup4\n        /* \"#utility.yul\":8770:8787   */\n      add\n        /* \"#utility.yul\":8761:8767   */\n      dup5\n        /* \"#utility.yul\":8661:8788   */\n      tag_248\n      jump\t// in\n    tag_378:\n        /* \"#utility.yul\":8460:8795   */\n      swap3\n      swap2\n      pop\n      pop\n      jump\t// out\n        /* \"#utility.yul\":8801:9121   */\n    tag_92:\n        /* \"#utility.yul\":8916:8920   */\n      0x00\n        /* \"#utility.yul\":8954:8956   */\n      0x40\n        /* \"#utility.yul\":8943:8952   */\n      dup3\n        /* \"#utility.yul\":8939:8957   */\n      add\n        /* \"#utility.yul\":8931:8957   */\n      swap1\n      pop\n        /* \"#utility.yul\":8967:9038   */\n      tag_380\n        /* \"#utility.yul\":9035:9036   */\n      0x00\n        /* \"#utility.yul\":9024:9033   */\n      dup4\n        /* \"#utility.yul\":9020:9037   */\n      add\n        /* \"#utility.yul\":9011:9017   */\n      dup6\n        /* \"#utility.yul\":8967:9038   */\n      tag_239\n      jump\t// in\n    tag_380:\n        /* \"#utility.yul\":9048:9114   */\n      tag_381\n        /* \"#utility.yul\":9110:9112   */\n      0x20\n        /* \"#utility.yul\":9099:9108   */\n      dup4\n        /* \"#utility.yul\":9095:9113   */\n      add\n        /* \"#utility.yul\":9086:9092   */\n      dup5\n        /* \"#utility.yul\":9048:9114   */\n      tag_242\n      jump\t// in\n    tag_381:\n        /* \"#utility.yul\":8801:9121   */\n      swap4\n      swap3\n      pop\n      pop\n      pop\n      jump\t// out\n        /* \"#utility.yul\":9127:9269   */\n    tag_249:\n        /* \"#utility.yul\":9230:9262   */\n      tag_383\n        /* \"#utility.yul\":9256:9261   */\n      dup2\n        /* \"#utility.yul\":9230:9262   */\n      tag_243\n      jump\t// in\n    tag_383:\n        /* \"#utility.yul\":9225:9228   */\n      dup3\n        /* \"#utility.yul\":9218:9263   */\n      mstore\n        /* \"#utility.yul\":9127:9269   */\n      pop\n      pop\n      jump\t// out\n        /* \"#utility.yul\":9275:9393   */\n    tag_250:\n        /* \"#utility.yul\":9362:9386   */\n      tag_385\n        /* \"#utility.yul\":9380:9385   */\n      dup2\n        /* \"#utility.yul\":9362:9386   */\n      tag_246\n      jump\t// in\n    tag_385:\n        /* \"#utility.yul\":9357:9360   */\n      dup3\n        /* \"#utility.yul\":9350:9387   */\n      mstore\n        /* \"#utility.yul\":9275:9393   */\n      pop\n      pop\n      jump\t// out\n        /* \"#utility.yul\":9399:10317   */\n    tag_102:\n        /* \"#utility.yul\":9676:9680   */\n      0x00\n        /* \"#utility.yul\":9714:9717   */\n      0xe0\n        /* \"#utility.yul\":9703:9712   */\n      dup3\n        /* \"#utility.yul\":9699:9718   */\n      add\n        /* \"#utility.yul\":9691:9718   */\n      swap1\n      pop\n        /* \"#utility.yul\":9728:9815   */\n      tag_387\n        /* \"#utility.yul\":9812:9813   */\n      0x00\n        /* \"#utility.yul\":9801:9810   */\n      dup4\n        /* \"#utility.yul\":9797:9814   */\n      add\n        /* \"#utility.yul\":9788:9794   */\n      dup11\n        /* \"#utility.yul\":9728:9815   */\n      tag_249\n      jump\t// in\n    tag_387:\n        /* \"#utility.yul\":9825:9897   */\n      tag_388\n        /* \"#utility.yul\":9893:9895   */\n      0x20\n        /* \"#utility.yul\":9882:9891   */\n      dup4\n        /* \"#utility.yul\":9878:9896   */\n      add\n        /* \"#utility.yul\":9869:9875   */\n      dup10\n        /* \"#utility.yul\":9825:9897   */\n      tag_240\n      jump\t// in\n    tag_388:\n        /* \"#utility.yul\":9907:9979   */\n      tag_389\n        /* \"#utility.yul\":9975:9977   */\n      0x40\n        /* \"#utility.yul\":9964:9973   */\n      dup4\n        /* \"#utility.yul\":9960:9978   */\n      add\n        /* \"#utility.yul\":9951:9957   */\n      dup9\n        /* \"#utility.yul\":9907:9979   */\n      tag_239\n      jump\t// in\n    tag_389:\n        /* \"#utility.yul\":9989:10061   */\n      tag_390\n        /* \"#utility.yul\":10057:10059   */\n      0x60\n        /* \"#utility.yul\":10046:10055   */\n      dup4\n        /* \"#utility.yul\":10042:10060   */\n      add\n        /* \"#utility.yul\":10033:10039   */\n      dup8\n        /* \"#utility.yul\":9989:10061   */\n      tag_239\n      jump\t// in\n    tag_390:\n        /* \"#utility.yul\":10071:10144   */\n      tag_391\n        /* \"#utility.yul\":10139:10142   */\n      0x80\n        /* \"#utility.yul\":10128:10137   */\n      dup4\n        /* \"#utility.yul\":10124:10143   */\n      add\n        /* \"#utility.yul\":10115:10121   */\n      dup7\n        /* \"#utility.yul\":10071:10144   */\n      tag_239\n      jump\t// in\n    tag_391:\n        /* \"#utility.yul\":10154:10227   */\n      tag_392\n        /* \"#utility.yul\":10222:10225   */\n      0xa0\n        /* \"#utility.yul\":10211:10220   */\n      dup4\n        /* \"#utility.yul\":10207:10226   */\n      add\n        /* \"#utility.yul\":10198:10204   */\n      dup6\n        /* \"#utility.yul\":10154:10227   */\n      tag_239\n      jump\t// in\n    tag_392:\n        /* \"#utility.yul\":10237:10310   */\n      tag_393\n        /* \"#utility.yul\":10305:10308   */\n      0xc0\n        /* \"#utility.yul\":10294:10303   */\n      dup4\n        /* \"#utility.yul\":10290:10309   */\n      add\n        /* \"#utility.yul\":10281:10287   */\n      dup5\n        /* \"#utility.yul\":10237:10310   */\n      tag_250\n      jump\t// in\n    tag_393:\n        /* \"#utility.yul\":9399:10317   */\n      swap9\n      swap8\n      pop\n      pop\n      pop\n      pop\n      pop\n      pop\n      pop\n      pop\n      jump\t// out\n        /* \"#utility.yul\":10323:10503   */\n    tag_251:\n        /* \"#utility.yul\":10371:10448   */\n      0x4e487b7100000000000000000000000000000000000000000000000000000000\n        /* \"#utility.yul\":10368:10369   */\n      0x00\n        /* \"#utility.yul\":10361:10449   */\n      mstore\n        /* \"#utility.yul\":10468:10472   */\n      0x11\n        /* \"#utility.yul\":10465:10466   */\n      0x04\n        /* \"#utility.yul\":10458:10473   */\n      mstore\n        /* \"#utility.yul\":10492:10496   */\n      0x24\n        /* \"#utility.yul\":10489:10490   */\n      0x00\n        /* \"#utility.yul\":10482:10497   */\n      revert\n        /* \"#utility.yul\":10509:10919   */\n    tag_109:\n        /* \"#utility.yul\":10549:10556   */\n      0x00\n        /* \"#utility.yul\":10572:10592   */\n      tag_396\n        /* \"#utility.yul\":10590:10591   */\n      dup3\n        /* \"#utility.yul\":10572:10592   */\n      tag_232\n      jump\t// in\n    tag_396:\n        /* \"#utility.yul\":10567:10592   */\n      swap2\n      pop\n        /* \"#utility.yul\":10606:10626   */\n      tag_397\n        /* \"#utility.yul\":10624:10625   */\n      dup4\n        /* \"#utility.yul\":10606:10626   */\n      tag_232\n      jump\t// in\n    tag_397:\n        /* \"#utility.yul\":10601:10626   */\n      swap3\n      pop\n        /* \"#utility.yul\":10661:10662   */\n      dup3\n        /* \"#utility.yul\":10658:10659   */\n      dup3\n        /* \"#utility.yul\":10654:10663   */\n      mul\n        /* \"#utility.yul\":10683:10713   */\n      tag_398\n        /* \"#utility.yul\":10701:10712   */\n      dup2\n        /* \"#utility.yul\":10683:10713   */\n      tag_232\n      jump\t// in\n    tag_398:\n        /* \"#utility.yul\":10672:10713   */\n      swap2\n      pop\n        /* \"#utility.yul\":10862:10863   */\n      dup3\n        /* \"#utility.yul\":10853:10860   */\n      dup3\n        /* \"#utility.yul\":10849:10864   */\n      div\n        /* \"#utility.yul\":10846:10847   */\n      dup5\n        /* \"#utility.yul\":10843:10865   */\n      eq\n        /* \"#utility.yul\":10823:10824   */\n      dup4\n        /* \"#utility.yul\":10816:10825   */\n      iszero\n        /* \"#utility.yul\":10796:10879   */\n      or\n        /* \"#utility.yul\":10773:10912   */\n      tag_399\n      jumpi\n        /* \"#utility.yul\":10892:10910   */\n      tag_400\n      tag_251\n      jump\t// in\n    tag_400:\n        /* \"#utility.yul\":10773:10912   */\n    tag_399:\n        /* \"#utility.yul\":10557:10919   */\n      pop\n        /* \"#utility.yul\":10509:10919   */\n      swap3\n      swap2\n      pop\n      pop\n      jump\t// out\n        /* \"#utility.yul\":10925:11105   */\n    tag_252:\n        /* \"#utility.yul\":10973:11050   */\n      0x4e487b7100000000000000000000000000000000000000000000000000000000\n        /* \"#utility.yul\":10970:10971   */\n      0x00\n        /* \"#utility.yul\":10963:11051   */\n      mstore\n        /* \"#utility.yul\":11070:11074   */\n      0x12\n        /* \"#utility.yul\":11067:11068   */\n      0x04\n        /* \"#utility.yul\":11060:11075   */\n      mstore\n        /* \"#utility.yul\":11094:11098   */\n      0x24\n        /* \"#utility.yul\":11091:11092   */\n      0x00\n        /* \"#utility.yul\":11084:11099   */\n      revert\n        /* \"#utility.yul\":11111:11296   */\n    tag_112:\n        /* \"#utility.yul\":11151:11152   */\n      0x00\n        /* \"#utility.yul\":11168:11188   */\n      tag_403\n        /* \"#utility.yul\":11186:11187   */\n      dup3\n        /* \"#utility.yul\":11168:11188   */\n      tag_232\n      jump\t// in\n    tag_403:\n        /* \"#utility.yul\":11163:11188   */\n      swap2\n      pop\n        /* \"#utility.yul\":11202:11222   */\n      tag_404\n        /* \"#utility.yul\":11220:11221   */\n      dup4\n        /* \"#utility.yul\":11202:11222   */\n      tag_232\n      jump\t// in\n    tag_404:\n        /* \"#utility.yul\":11197:11222   */\n      swap3\n      pop\n        /* \"#utility.yul\":11241:11242   */\n      dup3\n        /* \"#utility.yul\":11231:11266   */\n      tag_405\n      jumpi\n        /* \"#utility.yul\":11246:11264   */\n      tag_406\n      tag_252\n      jump\t// in\n    tag_406:\n        /* \"#utility.yul\":11231:11266   */\n    tag_405:\n        /* \"#utility.yul\":11288:11289   */\n      dup3\n        /* \"#utility.yul\":11285:11286   */\n      dup3\n        /* \"#utility.yul\":11281:11290   */\n      div\n        /* \"#utility.yul\":11276:11290   */\n      swap1\n      pop\n        /* \"#utility.yul\":11111:11296   */\n      swap3\n      swap2\n      pop\n      pop\n      jump\t// out\n        /* \"#utility.yul\":11302:11496   */\n    tag_116:\n        /* \"#utility.yul\":11342:11346   */\n      0x00\n        /* \"#utility.yul\":11362:11382   */\n      tag_408\n        /* \"#utility.yul\":11380:11381   */\n      dup3\n        /* \"#utility.yul\":11362:11382   */\n      tag_232\n      jump\t// in\n    tag_408:\n        /* \"#utility.yul\":11357:11382   */\n      swap2\n      pop\n        /* \"#utility.yul\":11396:11416   */\n      tag_409\n        /* \"#utility.yul\":11414:11415   */\n      dup4\n        /* \"#utility.yul\":11396:11416   */\n      tag_232\n      jump\t// in\n    tag_409:\n        /* \"#utility.yul\":11391:11416   */\n      swap3\n      pop\n        /* \"#utility.yul\":11440:11441   */\n      dup3\n        /* \"#utility.yul\":11437:11438   */\n      dup3\n        /* \"#utility.yul\":11433:11442   */\n      sub\n        /* \"#utility.yul\":11425:11442   */\n      swap1\n      pop\n        /* \"#utility.yul\":11464:11465   */\n      dup2\n        /* \"#utility.yul\":11458:11462   */\n      dup2\n        /* \"#utility.yul\":11455:11466   */\n      gt\n        /* \"#utility.yul\":11452:11489   */\n      iszero\n      tag_410\n      jumpi\n        /* \"#utility.yul\":11469:11487   */\n      tag_411\n      tag_251\n      jump\t// in\n    tag_411:\n        /* \"#utility.yul\":11452:11489   */\n    tag_410:\n        /* \"#utility.yul\":11302:11496   */\n      swap3\n      swap2\n      pop\n      pop\n      jump\t// out\n        /* \"#utility.yul\":11502:11693   */\n    tag_120:\n        /* \"#utility.yul\":11542:11545   */\n      0x00\n        /* \"#utility.yul\":11561:11581   */\n      tag_413\n        /* \"#utility.yul\":11579:11580   */\n      dup3\n        /* \"#utility.yul\":11561:11581   */\n      tag_232\n      jump\t// in\n    tag_413:\n        /* \"#utility.yul\":11556:11581   */\n      swap2\n      pop\n        /* \"#utility.yul\":11595:11615   */\n      tag_414\n        /* \"#utility.yul\":11613:11614   */\n      dup4\n        /* \"#utility.yul\":11595:11615   */\n      tag_232\n      jump\t// in\n    tag_414:\n        /* \"#utility.yul\":11590:11615   */\n      swap3\n      pop\n        /* \"#utility.yul\":11638:11639   */\n      dup3\n        /* \"#utility.yul\":11635:11636   */\n      dup3\n        /* \"#utility.yul\":11631:11640   */\n      add\n        /* \"#utility.yul\":11624:11640   */\n      swap1\n      pop\n        /* \"#utility.yul\":11659:11662   */\n      dup1\n        /* \"#utility.yul\":11656:11657   */\n      dup3\n        /* \"#utility.yul\":11653:11663   */\n      gt\n        /* \"#utility.yul\":11650:11686   */\n      iszero\n      tag_415\n      jumpi\n        /* \"#utility.yul\":11666:11684   */\n      tag_416\n      tag_251\n      jump\t// in\n    tag_416:\n        /* \"#utility.yul\":11650:11686   */\n    tag_415:\n        /* \"#utility.yul\":11502:11693   */\n      swap3\n      swap2\n      pop\n      pop\n      jump\t// out\n        /* \"#utility.yul\":11699:11842   */\n    tag_253:\n        /* \"#utility.yul\":11756:11761   */\n      0x00\n        /* \"#utility.yul\":11787:11793   */\n      dup2\n        /* \"#utility.yul\":11781:11794   */\n      mload\n        /* \"#utility.yul\":11772:11794   */\n      swap1\n      pop\n        /* \"#utility.yul\":11803:11836   */\n      tag_418\n        /* \"#utility.yul\":11830:11835   */\n      dup2\n        /* \"#utility.yul\":11803:11836   */\n      tag_227\n      jump\t// in\n    tag_418:\n        /* \"#utility.yul\":11699:11842   */\n      swap3\n      swap2\n      pop\n      pop\n      jump\t// out\n        /* \"#utility.yul\":11848:12199   */\n    tag_126:\n        /* \"#utility.yul\":11918:11924   */\n      0x00\n        /* \"#utility.yul\":11967:11969   */\n      0x20\n        /* \"#utility.yul\":11955:11964   */\n      dup3\n        /* \"#utility.yul\":11946:11953   */\n      dup5\n        /* \"#utility.yul\":11942:11965   */\n      sub\n        /* \"#utility.yul\":11938:11970   */\n      slt\n        /* \"#utility.yul\":11935:12054   */\n      iszero\n      tag_420\n      jumpi\n        /* \"#utility.yul\":11973:12052   */\n      tag_421\n      tag_223\n      jump\t// in\n    tag_421:\n        /* \"#utility.yul\":11935:12054   */\n    tag_420:\n        /* \"#utility.yul\":12093:12094   */\n      0x00\n        /* \"#utility.yul\":12118:12182   */\n      tag_422\n        /* \"#utility.yul\":12174:12181   */\n      dup5\n        /* \"#utility.yul\":12165:12171   */\n      dup3\n        /* \"#utility.yul\":12154:12163   */\n      dup6\n        /* \"#utility.yul\":12150:12172   */\n      add\n        /* \"#utility.yul\":12118:12182   */\n      tag_253\n      jump\t// in\n    tag_422:\n        /* \"#utility.yul\":12108:12182   */\n      swap2\n      pop\n        /* \"#utility.yul\":12064:12192   */\n      pop\n        /* \"#utility.yul\":11848:12199   */\n      swap3\n      swap2\n      pop\n      pop\n      jump\t// out\n        /* \"#utility.yul\":12205:12537   */\n    tag_129:\n        /* \"#utility.yul\":12326:12330   */\n      0x00\n        /* \"#utility.yul\":12364:12366   */\n      0x40\n        /* \"#utility.yul\":12353:12362   */\n      dup3\n        /* \"#utility.yul\":12349:12367   */\n      add\n        /* \"#utility.yul\":12341:12367   */\n      swap1\n      pop\n        /* \"#utility.yul\":12377:12448   */\n      tag_424\n        /* \"#utility.yul\":12445:12446   */\n      0x00\n        /* \"#utility.yul\":12434:12443   */\n      dup4\n        /* \"#utility.yul\":12430:12447   */\n      add\n        /* \"#utility.yul\":12421:12427   */\n      dup6\n        /* \"#utility.yul\":12377:12448   */\n      tag_240\n      jump\t// in\n    tag_424:\n        /* \"#utility.yul\":12458:12530   */\n      tag_425\n        /* \"#utility.yul\":12526:12528   */\n      0x20\n        /* \"#utility.yul\":12515:12524   */\n      dup4\n        /* \"#utility.yul\":12511:12529   */\n      add\n        /* \"#utility.yul\":12502:12508   */\n      dup5\n        /* \"#utility.yul\":12458:12530   */\n      tag_240\n      jump\t// in\n    tag_425:\n        /* \"#utility.yul\":12205:12537   */\n      swap4\n      swap3\n      pop\n      pop\n      pop\n      jump\t// out\n        /* \"#utility.yul\":12543:12659   */\n    tag_254:\n        /* \"#utility.yul\":12613:12634   */\n      tag_427\n        /* \"#utility.yul\":12628:12633   */\n      dup2\n        /* \"#utility.yul\":12613:12634   */\n      tag_241\n      jump\t// in\n    tag_427:\n        /* \"#utility.yul\":12606:12611   */\n      dup2\n        /* \"#utility.yul\":12603:12635   */\n      eq\n        /* \"#utility.yul\":12593:12653   */\n      tag_428\n      jumpi\n        /* \"#utility.yul\":12649:12650   */\n      0x00\n        /* \"#utility.yul\":12646:12647   */\n      dup1\n        /* \"#utility.yul\":12639:12651   */\n      revert\n        /* \"#utility.yul\":12593:12653   */\n    tag_428:\n        /* \"#utility.yul\":12543:12659   */\n      pop\n      jump\t// out\n        /* \"#utility.yul\":12665:12802   */\n    tag_255:\n        /* \"#utility.yul\":12719:12724   */\n      0x00\n        /* \"#utility.yul\":12750:12756   */\n      dup2\n        /* \"#utility.yul\":12744:12757   */\n      mload\n        /* \"#utility.yul\":12735:12757   */\n      swap1\n      pop\n        /* \"#utility.yul\":12766:12796   */\n      tag_430\n        /* \"#utility.yul\":12790:12795   */\n      dup2\n        /* \"#utility.yul\":12766:12796   */\n      tag_254\n      jump\t// in\n    tag_430:\n        /* \"#utility.yul\":12665:12802   */\n      swap3\n      swap2\n      pop\n      pop\n      jump\t// out\n        /* \"#utility.yul\":12808:13153   */\n    tag_133:\n        /* \"#utility.yul\":12875:12881   */\n      0x00\n        /* \"#utility.yul\":12924:12926   */\n      0x20\n        /* \"#utility.yul\":12912:12921   */\n      dup3\n        /* \"#utility.yul\":12903:12910   */\n      dup5\n        /* \"#utility.yul\":12899:12922   */\n      sub\n        /* \"#utility.yul\":12895:12927   */\n      slt\n        /* \"#utility.yul\":12892:13011   */\n      iszero\n      tag_432\n      jumpi\n        /* \"#utility.yul\":12930:13009   */\n      tag_433\n      tag_223\n      jump\t// in\n    tag_433:\n        /* \"#utility.yul\":12892:13011   */\n    tag_432:\n        /* \"#utility.yul\":13050:13051   */\n      0x00\n        /* \"#utility.yul\":13075:13136   */\n      tag_434\n        /* \"#utility.yul\":13128:13135   */\n      dup5\n        /* \"#utility.yul\":13119:13125   */\n      dup3\n        /* \"#utility.yul\":13108:13117   */\n      dup6\n        /* \"#utility.yul\":13104:13126   */\n      add\n        /* \"#utility.yul\":13075:13136   */\n      tag_255\n      jump\t// in\n    tag_434:\n        /* \"#utility.yul\":13065:13136   */\n      swap2\n      pop\n        /* \"#utility.yul\":13021:13146   */\n      pop\n        /* \"#utility.yul\":12808:13153   */\n      swap3\n      swap2\n      pop\n      pop\n      jump\t// out\n        /* \"#utility.yul\":13159:13328   */\n    tag_256:\n        /* \"#utility.yul\":13243:13254   */\n      0x00\n        /* \"#utility.yul\":13277:13283   */\n      dup3\n        /* \"#utility.yul\":13272:13275   */\n      dup3\n        /* \"#utility.yul\":13265:13284   */\n      mstore\n        /* \"#utility.yul\":13317:13321   */\n      0x20\n        /* \"#utility.yul\":13312:13315   */\n      dup3\n        /* \"#utility.yul\":13308:13322   */\n      add\n        /* \"#utility.yul\":13293:13322   */\n      swap1\n      pop\n        /* \"#utility.yul\":13159:13328   */\n      swap3\n      swap2\n      pop\n      pop\n      jump\t// out\n        /* \"#utility.yul\":13334:13516   */\n    tag_257:\n        /* \"#utility.yul\":13474:13508   */\n      0x56616c756573206d7573742062652067726561746572207468616e207a65726f\n        /* \"#utility.yul\":13470:13471   */\n      0x00\n        /* \"#utility.yul\":13462:13468   */\n      dup3\n        /* \"#utility.yul\":13458:13472   */\n      add\n        /* \"#utility.yul\":13451:13509   */\n      mstore\n        /* \"#utility.yul\":13334:13516   */\n      pop\n      jump\t// out\n        /* \"#utility.yul\":13522:13888   */\n    tag_258:\n        /* \"#utility.yul\":13664:13667   */\n      0x00\n        /* \"#utility.yul\":13685:13752   */\n      tag_438\n        /* \"#utility.yul\":13749:13751   */\n      0x20\n        /* \"#utility.yul\":13744:13747   */\n      dup4\n        /* \"#utility.yul\":13685:13752   */\n      tag_256\n      jump\t// in\n    tag_438:\n        /* \"#utility.yul\":13678:13752   */\n      swap2\n      pop\n        /* \"#utility.yul\":13761:13854   */\n      tag_439\n        /* \"#utility.yul\":13850:13853   */\n      dup3\n        /* \"#utility.yul\":13761:13854   */\n      tag_257\n      jump\t// in\n    tag_439:\n        /* \"#utility.yul\":13879:13881   */\n      0x20\n        /* \"#utility.yul\":13874:13877   */\n      dup3\n        /* \"#utility.yul\":13870:13882   */\n      add\n        /* \"#utility.yul\":13863:13882   */\n      swap1\n      pop\n        /* \"#utility.yul\":13522:13888   */\n      swap2\n      swap1\n      pop\n      jump\t// out\n        /* \"#utility.yul\":13894:14313   */\n    tag_140:\n        /* \"#utility.yul\":14060:14064   */\n      0x00\n        /* \"#utility.yul\":14098:14100   */\n      0x20\n        /* \"#utility.yul\":14087:14096   */\n      dup3\n        /* \"#utility.yul\":14083:14101   */\n      add\n        /* \"#utility.yul\":14075:14101   */\n      swap1\n      pop\n        /* \"#utility.yul\":14147:14156   */\n      dup2\n        /* \"#utility.yul\":14141:14145   */\n      dup2\n        /* \"#utility.yul\":14137:14157   */\n      sub\n        /* \"#utility.yul\":14133:14134   */\n      0x00\n        /* \"#utility.yul\":14122:14131   */\n      dup4\n        /* \"#utility.yul\":14118:14135   */\n      add\n        /* \"#utility.yul\":14111:14158   */\n      mstore\n        /* \"#utility.yul\":14175:14306   */\n      tag_441\n        /* \"#utility.yul\":14301:14305   */\n      dup2\n        /* \"#utility.yul\":14175:14306   */\n      tag_258\n      jump\t// in\n    tag_441:\n        /* \"#utility.yul\":14167:14306   */\n      swap1\n      pop\n        /* \"#utility.yul\":13894:14313   */\n      swap2\n      swap1\n      pop\n      jump\t// out\n        /* \"#utility.yul\":14319:14501   */\n    tag_259:\n        /* \"#utility.yul\":14459:14493   */\n      0x596f7520617265206e6f7420686f6c646572206f66207468697320746f6b656e\n        /* \"#utility.yul\":14455:14456   */\n      0x00\n        /* \"#utility.yul\":14447:14453   */\n      dup3\n        /* \"#utility.yul\":14443:14457   */\n      add\n        /* \"#utility.yul\":14436:14494   */\n      mstore\n        /* \"#utility.yul\":14319:14501   */\n      pop\n      jump\t// out\n        /* \"#utility.yul\":14507:14873   */\n    tag_260:\n        /* \"#utility.yul\":14649:14652   */\n      0x00\n        /* \"#utility.yul\":14670:14737   */\n      tag_444\n        /* \"#utility.yul\":14734:14736   */\n      0x20\n        /* \"#utility.yul\":14729:14732   */\n      dup4\n        /* \"#utility.yul\":14670:14737   */\n      tag_256\n      jump\t// in\n    tag_444:\n        /* \"#utility.yul\":14663:14737   */\n      swap2\n      pop\n        /* \"#utility.yul\":14746:14839   */\n      tag_445\n        /* \"#utility.yul\":14835:14838   */\n      dup3\n        /* \"#utility.yul\":14746:14839   */\n      tag_259\n      jump\t// in\n    tag_445:\n        /* \"#utility.yul\":14864:14866   */\n      0x20\n        /* \"#utility.yul\":14859:14862   */\n      dup3\n        /* \"#utility.yul\":14855:14867   */\n      add\n        /* \"#utility.yul\":14848:14867   */\n      swap1\n      pop\n        /* \"#utility.yul\":14507:14873   */\n      swap2\n      swap1\n      pop\n      jump\t// out\n        /* \"#utility.yul\":14879:15298   */\n    tag_147:\n        /* \"#utility.yul\":15045:15049   */\n      0x00\n        /* \"#utility.yul\":15083:15085   */\n      0x20\n        /* \"#utility.yul\":15072:15081   */\n      dup3\n        /* \"#utility.yul\":15068:15086   */\n      add\n        /* \"#utility.yul\":15060:15086   */\n      swap1\n      pop\n        /* \"#utility.yul\":15132:15141   */\n      dup2\n        /* \"#utility.yul\":15126:15130   */\n      dup2\n        /* \"#utility.yul\":15122:15142   */\n      sub\n        /* \"#utility.yul\":15118:15119   */\n      0x00\n        /* \"#utility.yul\":15107:15116   */\n      dup4\n        /* \"#utility.yul\":15103:15120   */\n      add\n        /* \"#utility.yul\":15096:15143   */\n      mstore\n        /* \"#utility.yul\":15160:15291   */\n      tag_447\n        /* \"#utility.yul\":15286:15290   */\n      dup2\n        /* \"#utility.yul\":15160:15291   */\n      tag_260\n      jump\t// in\n    tag_447:\n        /* \"#utility.yul\":15152:15291   */\n      swap1\n      pop\n        /* \"#utility.yul\":14879:15298   */\n      swap2\n      swap1\n      pop\n      jump\t// out\n        /* \"#utility.yul\":15304:15746   */\n    tag_150:\n        /* \"#utility.yul\":15453:15457   */\n      0x00\n        /* \"#utility.yul\":15491:15493   */\n      0x60\n        /* \"#utility.yul\":15480:15489   */\n      dup3\n        /* \"#utility.yul\":15476:15494   */\n      add\n        /* \"#utility.yul\":15468:15494   */\n      swap1\n      pop\n        /* \"#utility.yul\":15504:15575   */\n      tag_449\n        /* \"#utility.yul\":15572:15573   */\n      0x00\n        /* \"#utility.yul\":15561:15570   */\n      dup4\n        /* \"#utility.yul\":15557:15574   */\n      add\n        /* \"#utility.yul\":15548:15554   */\n      dup7\n        /* \"#utility.yul\":15504:15575   */\n      tag_240\n      jump\t// in\n    tag_449:\n        /* \"#utility.yul\":15585:15657   */\n      tag_450\n        /* \"#utility.yul\":15653:15655   */\n      0x20\n        /* \"#utility.yul\":15642:15651   */\n      dup4\n        /* \"#utility.yul\":15638:15656   */\n      add\n        /* \"#utility.yul\":15629:15635   */\n      dup6\n        /* \"#utility.yul\":15585:15657   */\n      tag_240\n      jump\t// in\n    tag_450:\n        /* \"#utility.yul\":15667:15739   */\n      tag_451\n        /* \"#utility.yul\":15735:15737   */\n      0x40\n        /* \"#utility.yul\":15724:15733   */\n      dup4\n        /* \"#utility.yul\":15720:15738   */\n      add\n        /* \"#utility.yul\":15711:15717   */\n      dup5\n        /* \"#utility.yul\":15667:15739   */\n      tag_239\n      jump\t// in\n    tag_451:\n        /* \"#utility.yul\":15304:15746   */\n      swap5\n      swap4\n      pop\n      pop\n      pop\n      pop\n      jump\t// out\n        /* \"#utility.yul\":15752:15985   */\n    tag_156:\n        /* \"#utility.yul\":15791:15794   */\n      0x00\n        /* \"#utility.yul\":15814:15838   */\n      tag_453\n        /* \"#utility.yul\":15832:15837   */\n      dup3\n        /* \"#utility.yul\":15814:15838   */\n      tag_232\n      jump\t// in\n    tag_453:\n        /* \"#utility.yul\":15805:15838   */\n      swap2\n      pop\n        /* \"#utility.yul\":15860:15926   */\n      0xffffffffffffffffffffffffffffffffffffffffffffffffffffffffffffffff\n        /* \"#utility.yul\":15853:15858   */\n      dup3\n        /* \"#utility.yul\":15850:15927   */\n      sub\n        /* \"#utility.yul\":15847:15950   */\n      tag_454\n      jumpi\n        /* \"#utility.yul\":15930:15948   */\n      tag_455\n      tag_251\n      jump\t// in\n    tag_455:\n        /* \"#utility.yul\":15847:15950   */\n    tag_454:\n        /* \"#utility.yul\":15977:15978   */\n      0x01\n        /* \"#utility.yul\":15970:15975   */\n      dup3\n        /* \"#utility.yul\":15966:15979   */\n      add\n        /* \"#utility.yul\":15959:15979   */\n      swap1\n      pop\n        /* \"#utility.yul\":15752:15985   */\n      swap2\n      swap1\n      pop\n      jump\t// out\n        /* \"#utility.yul\":15991:16436   */\n    tag_158:\n        /* \"#utility.yul\":16168:16172   */\n      0x00\n        /* \"#utility.yul\":16206:16209   */\n      0x0100\n        /* \"#utility.yul\":16195:16204   */\n      dup3\n        /* \"#utility.yul\":16191:16210   */\n      add\n        /* \"#utility.yul\":16183:16210   */\n      swap1\n      pop\n        /* \"#utility.yul\":16220:16291   */\n      tag_457\n        /* \"#utility.yul\":16288:16289   */\n      0x00\n        /* \"#utility.yul\":16277:16286   */\n      dup4\n        /* \"#utility.yul\":16273:16290   */\n      add\n        /* \"#utility.yul\":16264:16270   */\n      dup6\n        /* \"#utility.yul\":16220:16291   */\n      tag_240\n      jump\t// in\n    tag_457:\n        /* \"#utility.yul\":16301:16429   */\n      tag_458\n        /* \"#utility.yul\":16425:16427   */\n      0x20\n        /* \"#utility.yul\":16414:16423   */\n      dup4\n        /* \"#utility.yul\":16410:16428   */\n      add\n        /* \"#utility.yul\":16401:16407   */\n      dup5\n        /* \"#utility.yul\":16301:16429   */\n      tag_248\n      jump\t// in\n    tag_458:\n        /* \"#utility.yul\":15991:16436   */\n      swap4\n      swap3\n      pop\n      pop\n      pop\n      jump\t// out\n        /* \"#utility.yul\":16442:16623   */\n    tag_261:\n        /* \"#utility.yul\":16582:16615   */\n      0x4974277320796f7572206f776e206c6f616e206170706c69636174696f6e2e00\n        /* \"#utility.yul\":16578:16579   */\n      0x00\n        /* \"#utility.yul\":16570:16576   */\n      dup3\n        /* \"#utility.yul\":16566:16580   */\n      add\n        /* \"#utility.yul\":16559:16616   */\n      mstore\n        /* \"#utility.yul\":16442:16623   */\n      pop\n      jump\t// out\n        /* \"#utility.yul\":16629:16995   */\n    tag_262:\n        /* \"#utility.yul\":16771:16774   */\n      0x00\n        /* \"#utility.yul\":16792:16859   */\n      tag_461\n        /* \"#utility.yul\":16856:16858   */\n      0x1f\n        /* \"#utility.yul\":16851:16854   */\n      dup4\n        /* \"#utility.yul\":16792:16859   */\n      tag_256\n      jump\t// in\n    tag_461:\n        /* \"#utility.yul\":16785:16859   */\n      swap2\n      pop\n        /* \"#utility.yul\":16868:16961   */\n      tag_462\n        /* \"#utility.yul\":16957:16960   */\n      dup3\n        /* \"#utility.yul\":16868:16961   */\n      tag_261\n      jump\t// in\n    tag_462:\n        /* \"#utility.yul\":16986:16988   */\n      0x20\n        /* \"#utility.yul\":16981:16984   */\n      dup3\n        /* \"#utility.yul\":16977:16989   */\n      add\n        /* \"#utility.yul\":16970:16989   */\n      swap1\n      pop\n        /* \"#utility.yul\":16629:16995   */\n      swap2\n      swap1\n      pop\n      jump\t// out\n        /* \"#utility.yul\":17001:17420   */\n    tag_164:\n        /* \"#utility.yul\":17167:17171   */\n      0x00\n        /* \"#utility.yul\":17205:17207   */\n      0x20\n        /* \"#utility.yul\":17194:17203   */\n      dup3\n        /* \"#utility.yul\":17190:17208   */\n      add\n        /* \"#utility.yul\":17182:17208   */\n      swap1\n      pop\n        /* \"#utility.yul\":17254:17263   */\n      dup2\n        /* \"#utility.yul\":17248:17252   */\n      dup2\n        /* \"#utility.yul\":17244:17264   */\n      sub\n        /* \"#utility.yul\":17240:17241   */\n      0x00\n        /* \"#utility.yul\":17229:17238   */\n      dup4\n        /* \"#utility.yul\":17225:17242   */\n      add\n        /* \"#utility.yul\":17218:17265   */\n      mstore\n        /* \"#utility.yul\":17282:17413   */\n      tag_464\n        /* \"#utility.yul\":17408:17412   */\n      dup2\n        /* \"#utility.yul\":17282:17413   */\n      tag_262\n      jump\t// in\n    tag_464:\n        /* \"#utility.yul\":17274:17413   */\n      swap1\n      pop\n        /* \"#utility.yul\":17001:17420   */\n      swap2\n      swap1\n      pop\n      jump\t// out\n        /* \"#utility.yul\":17426:17651   */\n    tag_263:\n        /* \"#utility.yul\":17566:17600   */\n      0x596f7520686176656e277420656e6f7567682062616c616e636520666f72206c\n        /* \"#utility.yul\":17562:17563   */\n      0x00\n        /* \"#utility.yul\":17554:17560   */\n      dup3\n        /* \"#utility.yul\":17550:17564   */\n      add\n        /* \"#utility.yul\":17543:17601   */\n      mstore\n        /* \"#utility.yul\":17635:17643   */\n      0x656e64696e670000000000000000000000000000000000000000000000000000\n        /* \"#utility.yul\":17630:17632   */\n      0x20\n        /* \"#utility.yul\":17622:17628   */\n      dup3\n        /* \"#utility.yul\":17618:17633   */\n      add\n        /* \"#utility.yul\":17611:17644   */\n      mstore\n        /* \"#utility.yul\":17426:17651   */\n      pop\n      jump\t// out\n        /* \"#utility.yul\":17657:18023   */\n    tag_264:\n        /* \"#utility.yul\":17799:17802   */\n      0x00\n        /* \"#utility.yul\":17820:17887   */\n      tag_467\n        /* \"#utility.yul\":17884:17886   */\n      0x26\n        /* \"#utility.yul\":17879:17882   */\n      dup4\n        /* \"#utility.yul\":17820:17887   */\n      tag_256\n      jump\t// in\n    tag_467:\n        /* \"#utility.yul\":17813:17887   */\n      swap2\n      pop\n        /* \"#utility.yul\":17896:17989   */\n      tag_468\n        /* \"#utility.yul\":17985:17988   */\n      dup3\n        /* \"#utility.yul\":17896:17989   */\n      tag_263\n      jump\t// in\n    tag_468:\n        /* \"#utility.yul\":18014:18016   */\n      0x40\n        /* \"#utility.yul\":18009:18012   */\n      dup3\n        /* \"#utility.yul\":18005:18017   */\n      add\n        /* \"#utility.yul\":17998:18017   */\n      swap1\n      pop\n        /* \"#utility.yul\":17657:18023   */\n      swap2\n      swap1\n      pop\n      jump\t// out\n        /* \"#utility.yul\":18029:18448   */\n    tag_168:\n        /* \"#utility.yul\":18195:18199   */\n      0x00\n        /* \"#utility.yul\":18233:18235   */\n      0x20\n        /* \"#utility.yul\":18222:18231   */\n      dup3\n        /* \"#utility.yul\":18218:18236   */\n      add\n        /* \"#utility.yul\":18210:18236   */\n      swap1\n      pop\n        /* \"#utility.yul\":18282:18291   */\n      dup2\n        /* \"#utility.yul\":18276:18280   */\n      dup2\n        /* \"#utility.yul\":18272:18292   */\n      sub\n        /* \"#utility.yul\":18268:18269   */\n      0x00\n        /* \"#utility.yul\":18257:18266   */\n      dup4\n        /* \"#utility.yul\":18253:18270   */\n      add\n        /* \"#utility.yul\":18246:18293   */\n      mstore\n        /* \"#utility.yul\":18310:18441   */\n      tag_470\n        /* \"#utility.yul\":18436:18440   */\n      dup2\n        /* \"#utility.yul\":18310:18441   */\n      tag_264\n      jump\t// in\n    tag_470:\n        /* \"#utility.yul\":18302:18441   */\n      swap1\n      pop\n        /* \"#utility.yul\":18029:18448   */\n      swap2\n      swap1\n      pop\n      jump\t// out\n        /* \"#utility.yul\":18454:18624   */\n    tag_265:\n        /* \"#utility.yul\":18594:18616   */\n      0x4661696c656420746f2073656e64204574686572000000000000000000000000\n        /* \"#utility.yul\":18590:18591   */\n      0x00\n        /* \"#utility.yul\":18582:18588   */\n      dup3\n        /* \"#utility.yul\":18578:18592   */\n      add\n        /* \"#utility.yul\":18571:18617   */\n      mstore\n        /* \"#utility.yul\":18454:18624   */\n      pop\n      jump\t// out\n        /* \"#utility.yul\":18630:18996   */\n    tag_266:\n        /* \"#utility.yul\":18772:18775   */\n      0x00\n        /* \"#utility.yul\":18793:18860   */\n      tag_473\n        /* \"#utility.yul\":18857:18859   */\n      0x14\n        /* \"#utility.yul\":18852:18855   */\n      dup4\n        /* \"#utility.yul\":18793:18860   */\n      tag_256\n      jump\t// in\n    tag_473:\n        /* \"#utility.yul\":18786:18860   */\n      swap2\n      pop\n        /* \"#utility.yul\":18869:18962   */\n      tag_474\n        /* \"#utility.yul\":18958:18961   */\n      dup3\n        /* \"#utility.yul\":18869:18962   */\n      tag_265\n      jump\t// in\n    tag_474:\n        /* \"#utility.yul\":18987:18989   */\n      0x20\n        /* \"#utility.yul\":18982:18985   */\n      dup3\n        /* \"#utility.yul\":18978:18990   */\n      add\n        /* \"#utility.yul\":18971:18990   */\n      swap1\n      pop\n        /* \"#utility.yul\":18630:18996   */\n      swap2\n      swap1\n      pop\n      jump\t// out\n        /* \"#utility.yul\":19002:19421   */\n    tag_173:\n        /* \"#utility.yul\":19168:19172   */\n      0x00\n        /* \"#utility.yul\":19206:19208   */\n      0x20\n        /* \"#utility.yul\":19195:19204   */\n      dup3\n        /* \"#utility.yul\":19191:19209   */\n      add\n        /* \"#utility.yul\":19183:19209   */\n      swap1\n      pop\n        /* \"#utility.yul\":19255:19264   */\n      dup2\n        /* \"#utility.yul\":19249:19253   */\n      dup2\n        /* \"#utility.yul\":19245:19265   */\n      sub\n        /* \"#utility.yul\":19241:19242   */\n      0x00\n        /* \"#utility.yul\":19230:19239   */\n      dup4\n        /* \"#utility.yul\":19226:19243   */\n      add\n        /* \"#utility.yul\":19219:19266   */\n      mstore\n        /* \"#utility.yul\":19283:19414   */\n      tag_476\n        /* \"#utility.yul\":19409:19413   */\n      dup2\n        /* \"#utility.yul\":19283:19414   */\n      tag_266\n      jump\t// in\n    tag_476:\n        /* \"#utility.yul\":19275:19414   */\n      swap1\n      pop\n        /* \"#utility.yul\":19002:19421   */\n      swap2\n      swap1\n      pop\n      jump\t// out\n        /* \"#utility.yul\":19427:19529   */\n    tag_267:\n        /* \"#utility.yul\":19469:19477   */\n      0x00\n        /* \"#utility.yul\":19516:19521   */\n      dup2\n        /* \"#utility.yul\":19513:19514   */\n      0x00\n        /* \"#utility.yul\":19509:19522   */\n      shr\n        /* \"#utility.yul\":19488:19522   */\n      swap1\n      pop\n        /* \"#utility.yul\":19427:19529   */\n      swap2\n      swap1\n      pop\n      jump\t// out\n        /* \"#utility.yul\":19535:19682   */\n    tag_268:\n        /* \"#utility.yul\":19593:19600   */\n      0x00\n        /* \"#utility.yul\":19633:19675   */\n      0xffffffffffffffffffffffffffffffffffffffff\n        /* \"#utility.yul\":19626:19631   */\n      dup3\n        /* \"#utility.yul\":19622:19676   */\n      and\n        /* \"#utility.yul\":19611:19676   */\n      swap1\n      pop\n        /* \"#utility.yul\":19535:19682   */\n      swap2\n      swap1\n      pop\n      jump\t// out\n        /* \"#utility.yul\":19688:19870   */\n    tag_269:\n        /* \"#utility.yul\":19765:19770   */\n      0x00\n        /* \"#utility.yul\":19790:19864   */\n      tag_480\n        /* \"#utility.yul\":19829:19863   */\n      tag_481\n        /* \"#utility.yul\":19852:19862   */\n      dup4\n        /* \"#utility.yul\":19829:19863   */\n      tag_267\n      jump\t// in\n    tag_481:\n        /* \"#utility.yul\":19790:19864   */\n      tag_268\n      jump\t// in\n    tag_480:\n        /* \"#utility.yul\":19781:19864   */\n      swap1\n      pop\n        /* \"#utility.yul\":19688:19870   */\n      swap2\n      swap1\n      pop\n      jump\t// out\n        /* \"#utility.yul\":19876:20015   */\n    tag_270:\n        /* \"#utility.yul\":19926:19933   */\n      0x00\n        /* \"#utility.yul\":19966:20008   */\n      0xffffffffffffffffffffffffffffffffffffffff\n        /* \"#utility.yul\":19959:19964   */\n      dup3\n        /* \"#utility.yul\":19955:20009   */\n      and\n        /* \"#utility.yul\":19944:20009   */\n      swap1\n      pop\n        /* \"#utility.yul\":19876:20015   */\n      swap2\n      swap1\n      pop\n      jump\t// out\n        /* \"#utility.yul\":20021:20187   */\n    tag_271:\n        /* \"#utility.yul\":20090:20095   */\n      0x00\n        /* \"#utility.yul\":20115:20181   */\n      tag_484\n        /* \"#utility.yul\":20146:20180   */\n      tag_485\n        /* \"#utility.yul\":20169:20179   */\n      dup4\n        /* \"#utility.yul\":20146:20180   */\n      tag_267\n      jump\t// in\n    tag_485:\n        /* \"#utility.yul\":20115:20181   */\n      tag_270\n      jump\t// in\n    tag_484:\n        /* \"#utility.yul\":20106:20181   */\n      swap1\n      pop\n        /* \"#utility.yul\":20021:20187   */\n      swap2\n      swap1\n      pop\n      jump\t// out\n        /* \"#utility.yul\":20193:20283   */\n    tag_272:\n        /* \"#utility.yul\":20243:20250   */\n      0x00\n        /* \"#utility.yul\":20272:20277   */\n      dup2\n        /* \"#utility.yul\":20261:20277   */\n      swap1\n      pop\n        /* \"#utility.yul\":20193:20283   */\n      swap2\n      swap1\n      pop\n      jump\t// out\n        /* \"#utility.yul\":20289:20455   */\n    tag_273:\n        /* \"#utility.yul\":20358:20363   */\n      0x00\n        /* \"#utility.yul\":20383:20449   */\n      tag_488\n        /* \"#utility.yul\":20414:20448   */\n      tag_489\n        /* \"#utility.yul\":20437:20447   */\n      dup4\n        /* \"#utility.yul\":20414:20448   */\n      tag_267\n      jump\t// in\n    tag_489:\n        /* \"#utility.yul\":20383:20449   */\n      tag_272\n      jump\t// in\n    tag_488:\n        /* \"#utility.yul\":20374:20449   */\n      swap1\n      pop\n        /* \"#utility.yul\":20289:20455   */\n      swap2\n      swap1\n      pop\n      jump\t// out\n        /* \"#utility.yul\":20461:20551   */\n    tag_274:\n        /* \"#utility.yul\":20511:20518   */\n      0x00\n        /* \"#utility.yul\":20540:20545   */\n      dup2\n        /* \"#utility.yul\":20529:20545   */\n      swap1\n      pop\n        /* \"#utility.yul\":20461:20551   */\n      swap2\n      swap1\n      pop\n      jump\t// out\n        /* \"#utility.yul\":20557:20723   */\n    tag_275:\n        /* \"#utility.yul\":20626:20631   */\n      0x00\n        /* \"#utility.yul\":20651:20717   */\n      tag_492\n        /* \"#utility.yul\":20682:20716   */\n      tag_493\n        /* \"#utility.yul\":20705:20715   */\n      dup4\n        /* \"#utility.yul\":20682:20716   */\n      tag_267\n      jump\t// in\n    tag_493:\n        /* \"#utility.yul\":20651:20717   */\n      tag_274\n      jump\t// in\n    tag_492:\n        /* \"#utility.yul\":20642:20717   */\n      swap1\n      pop\n        /* \"#utility.yul\":20557:20723   */\n      swap2\n      swap1\n      pop\n      jump\t// out\n        /* \"#utility.yul\":20795:22812   */\n    tag_276:\n        /* \"#utility.yul\":20949:20953   */\n      0xe0\n        /* \"#utility.yul\":20944:20947   */\n      dup3\n        /* \"#utility.yul\":20940:20954   */\n      add\n        /* \"#utility.yul\":20980:20981   */\n      0x00\n        /* \"#utility.yul\":21057:21061   */\n      dup1\n        /* \"#utility.yul\":21050:21055   */\n      dup4\n        /* \"#utility.yul\":21046:21062   */\n      add\n        /* \"#utility.yul\":21040:21063   */\n      sload\n        /* \"#utility.yul\":21027:21063   */\n      swap1\n      pop\n        /* \"#utility.yul\":21096:21159   */\n      tag_495\n        /* \"#utility.yul\":21149:21158   */\n      dup2\n        /* \"#utility.yul\":21096:21159   */\n      tag_269\n      jump\t// in\n    tag_495:\n        /* \"#utility.yul\":21172:21251   */\n      tag_496\n        /* \"#utility.yul\":21245:21249   */\n      0x00\n        /* \"#utility.yul\":21240:21243   */\n      dup7\n        /* \"#utility.yul\":21236:21250   */\n      add\n        /* \"#utility.yul\":21222:21234   */\n      dup3\n        /* \"#utility.yul\":21172:21251   */\n      tag_244\n      jump\t// in\n    tag_496:\n        /* \"#utility.yul\":20991:21261   */\n      pop\n        /* \"#utility.yul\":21345:21349   */\n      0x01\n        /* \"#utility.yul\":21338:21343   */\n      dup4\n        /* \"#utility.yul\":21334:21350   */\n      add\n        /* \"#utility.yul\":21328:21351   */\n      sload\n        /* \"#utility.yul\":21315:21351   */\n      swap1\n      pop\n        /* \"#utility.yul\":21384:21439   */\n      tag_497\n        /* \"#utility.yul\":21429:21438   */\n      dup2\n        /* \"#utility.yul\":21384:21439   */\n      tag_271\n      jump\t// in\n    tag_497:\n        /* \"#utility.yul\":21452:21515   */\n      tag_498\n        /* \"#utility.yul\":21509:21513   */\n      0x20\n        /* \"#utility.yul\":21504:21507   */\n      dup7\n        /* \"#utility.yul\":21500:21514   */\n      add\n        /* \"#utility.yul\":21486:21498   */\n      dup3\n        /* \"#utility.yul\":21452:21515   */\n      tag_245\n      jump\t// in\n    tag_498:\n        /* \"#utility.yul\":21271:21525   */\n      pop\n        /* \"#utility.yul\":21602:21606   */\n      0x02\n        /* \"#utility.yul\":21595:21600   */\n      dup4\n        /* \"#utility.yul\":21591:21607   */\n      add\n        /* \"#utility.yul\":21585:21608   */\n      sload\n        /* \"#utility.yul\":21572:21608   */\n      swap1\n      pop\n        /* \"#utility.yul\":21641:21696   */\n      tag_499\n        /* \"#utility.yul\":21686:21695   */\n      dup2\n        /* \"#utility.yul\":21641:21696   */\n      tag_273\n      jump\t// in\n    tag_499:\n        /* \"#utility.yul\":21709:21772   */\n      tag_500\n        /* \"#utility.yul\":21766:21770   */\n      0x40\n        /* \"#utility.yul\":21761:21764   */\n      dup7\n        /* \"#utility.yul\":21757:21771   */\n      add\n        /* \"#utility.yul\":21743:21755   */\n      dup3\n        /* \"#utility.yul\":21709:21772   */\n      tag_233\n      jump\t// in\n    tag_500:\n        /* \"#utility.yul\":21535:21782   */\n      pop\n        /* \"#utility.yul\":21858:21862   */\n      0x03\n        /* \"#utility.yul\":21851:21856   */\n      dup4\n        /* \"#utility.yul\":21847:21863   */\n      add\n        /* \"#utility.yul\":21841:21864   */\n      sload\n        /* \"#utility.yul\":21828:21864   */\n      swap1\n      pop\n        /* \"#utility.yul\":21897:21952   */\n      tag_501\n        /* \"#utility.yul\":21942:21951   */\n      dup2\n        /* \"#utility.yul\":21897:21952   */\n      tag_273\n      jump\t// in\n    tag_501:\n        /* \"#utility.yul\":21965:22028   */\n      tag_502\n        /* \"#utility.yul\":22022:22026   */\n      0x60\n        /* \"#utility.yul\":22017:22020   */\n      dup7\n        /* \"#utility.yul\":22013:22027   */\n      add\n        /* \"#utility.yul\":21999:22011   */\n      dup3\n        /* \"#utility.yul\":21965:22028   */\n      tag_233\n      jump\t// in\n    tag_502:\n        /* \"#utility.yul\":21792:22038   */\n      pop\n        /* \"#utility.yul\":22116:22120   */\n      0x04\n        /* \"#utility.yul\":22109:22114   */\n      dup4\n        /* \"#utility.yul\":22105:22121   */\n      add\n        /* \"#utility.yul\":22099:22122   */\n      sload\n        /* \"#utility.yul\":22086:22122   */\n      swap1\n      pop\n        /* \"#utility.yul\":22155:22210   */\n      tag_503\n        /* \"#utility.yul\":22200:22209   */\n      dup2\n        /* \"#utility.yul\":22155:22210   */\n      tag_273\n      jump\t// in\n    tag_503:\n        /* \"#utility.yul\":22223:22286   */\n      tag_504\n        /* \"#utility.yul\":22280:22284   */\n      0x80\n        /* \"#utility.yul\":22275:22278   */\n      dup7\n        /* \"#utility.yul\":22271:22285   */\n      add\n        /* \"#utility.yul\":22257:22269   */\n      dup3\n        /* \"#utility.yul\":22223:22286   */\n      tag_233\n      jump\t// in\n    tag_504:\n        /* \"#utility.yul\":22048:22296   */\n      pop\n        /* \"#utility.yul\":22369:22373   */\n      0x05\n        /* \"#utility.yul\":22362:22367   */\n      dup4\n        /* \"#utility.yul\":22358:22374   */\n      add\n        /* \"#utility.yul\":22352:22375   */\n      sload\n        /* \"#utility.yul\":22339:22375   */\n      swap1\n      pop\n        /* \"#utility.yul\":22408:22463   */\n      tag_505\n        /* \"#utility.yul\":22453:22462   */\n      dup2\n        /* \"#utility.yul\":22408:22463   */\n      tag_273\n      jump\t// in\n    tag_505:\n        /* \"#utility.yul\":22476:22539   */\n      tag_506\n        /* \"#utility.yul\":22533:22537   */\n      0xa0\n        /* \"#utility.yul\":22528:22531   */\n      dup7\n        /* \"#utility.yul\":22524:22538   */\n      add\n        /* \"#utility.yul\":22510:22522   */\n      dup3\n        /* \"#utility.yul\":22476:22539   */\n      tag_233\n      jump\t// in\n    tag_506:\n        /* \"#utility.yul\":22306:22549   */\n      pop\n        /* \"#utility.yul\":22625:22629   */\n      0x06\n        /* \"#utility.yul\":22618:22623   */\n      dup4\n        /* \"#utility.yul\":22614:22630   */\n      add\n        /* \"#utility.yul\":22608:22631   */\n      sload\n        /* \"#utility.yul\":22595:22631   */\n      swap1\n      pop\n        /* \"#utility.yul\":22664:22719   */\n      tag_507\n        /* \"#utility.yul\":22709:22718   */\n      dup2\n        /* \"#utility.yul\":22664:22719   */\n      tag_275\n      jump\t// in\n    tag_507:\n        /* \"#utility.yul\":22732:22795   */\n      tag_508\n        /* \"#utility.yul\":22789:22793   */\n      0xc0\n        /* \"#utility.yul\":22784:22787   */\n      dup7\n        /* \"#utility.yul\":22780:22794   */\n      add\n        /* \"#utility.yul\":22766:22778   */\n      dup3\n        /* \"#utility.yul\":22732:22795   */\n      tag_247\n      jump\t// in\n    tag_508:\n        /* \"#utility.yul\":22559:22805   */\n      pop\n        /* \"#utility.yul\":20918:22812   */\n      pop\n      pop\n        /* \"#utility.yul\":20795:22812   */\n      pop\n      pop\n      jump\t// out\n        /* \"#utility.yul\":22818:23265   */\n    tag_175:\n        /* \"#utility.yul\":22996:23000   */\n      0x00\n        /* \"#utility.yul\":23034:23037   */\n      0x0100\n        /* \"#utility.yul\":23023:23032   */\n      dup3\n        /* \"#utility.yul\":23019:23038   */\n      add\n        /* \"#utility.yul\":23011:23038   */\n      swap1\n      pop\n        /* \"#utility.yul\":23048:23119   */\n      tag_510\n        /* \"#utility.yul\":23116:23117   */\n      0x00\n        /* \"#utility.yul\":23105:23114   */\n      dup4\n        /* \"#utility.yul\":23101:23118   */\n      add\n        /* \"#utility.yul\":23092:23098   */\n      dup6\n        /* \"#utility.yul\":23048:23119   */\n      tag_240\n      jump\t// in\n    tag_510:\n        /* \"#utility.yul\":23129:23258   */\n      tag_511\n        /* \"#utility.yul\":23254:23256   */\n      0x20\n        /* \"#utility.yul\":23243:23252   */\n      dup4\n        /* \"#utility.yul\":23239:23257   */\n      add\n        /* \"#utility.yul\":23230:23236   */\n      dup5\n        /* \"#utility.yul\":23129:23258   */\n      tag_276\n      jump\t// in\n    tag_511:\n        /* \"#utility.yul\":22818:23265   */\n      swap4\n      swap3\n      pop\n      pop\n      pop\n      jump\t// out\n        /* \"#utility.yul\":23271:23439   */\n    tag_277:\n        /* \"#utility.yul\":23411:23431   */\n      0x596f7520617265206e6f7420706f737465720000000000000000000000000000\n        /* \"#utility.yul\":23407:23408   */\n      0x00\n        /* \"#utility.yul\":23399:23405   */\n      dup3\n        /* \"#utility.yul\":23395:23409   */\n      add\n        /* \"#utility.yul\":23388:23432   */\n      mstore\n        /* \"#utility.yul\":23271:23439   */\n      pop\n      jump\t// out\n        /* \"#utility.yul\":23445:23811   */\n    tag_278:\n        /* \"#utility.yul\":23587:23590   */\n      0x00\n        /* \"#utility.yul\":23608:23675   */\n      tag_514\n        /* \"#utility.yul\":23672:23674   */\n      0x12\n        /* \"#utility.yul\":23667:23670   */\n      dup4\n        /* \"#utility.yul\":23608:23675   */\n      tag_256\n      jump\t// in\n    tag_514:\n        /* \"#utility.yul\":23601:23675   */\n      swap2\n      pop\n        /* \"#utility.yul\":23684:23777   */\n      tag_515\n        /* \"#utility.yul\":23773:23776   */\n      dup3\n        /* \"#utility.yul\":23684:23777   */\n      tag_277\n      jump\t// in\n    tag_515:\n        /* \"#utility.yul\":23802:23804   */\n      0x20\n        /* \"#utility.yul\":23797:23800   */\n      dup3\n        /* \"#utility.yul\":23793:23805   */\n      add\n        /* \"#utility.yul\":23786:23805   */\n      swap1\n      pop\n        /* \"#utility.yul\":23445:23811   */\n      swap2\n      swap1\n      pop\n      jump\t// out\n        /* \"#utility.yul\":23817:24236   */\n    tag_179:\n        /* \"#utility.yul\":23983:23987   */\n      0x00\n        /* \"#utility.yul\":24021:24023   */\n      0x20\n        /* \"#utility.yul\":24010:24019   */\n      dup3\n        /* \"#utility.yul\":24006:24024   */\n      add\n        /* \"#utility.yul\":23998:24024   */\n      swap1\n      pop\n        /* \"#utility.yul\":24070:24079   */\n      dup2\n        /* \"#utility.yul\":24064:24068   */\n      dup2\n        /* \"#utility.yul\":24060:24080   */\n      sub\n        /* \"#utility.yul\":24056:24057   */\n      0x00\n        /* \"#utility.yul\":24045:24054   */\n      dup4\n        /* \"#utility.yul\":24041:24058   */\n      add\n        /* \"#utility.yul\":24034:24081   */\n      mstore\n        /* \"#utility.yul\":24098:24229   */\n      tag_517\n        /* \"#utility.yul\":24224:24228   */\n      dup2\n        /* \"#utility.yul\":24098:24229   */\n      tag_278\n      jump\t// in\n    tag_517:\n        /* \"#utility.yul\":24090:24229   */\n      swap1\n      pop\n        /* \"#utility.yul\":23817:24236   */\n      swap2\n      swap1\n      pop\n      jump\t// out\n        /* \"#utility.yul\":24242:24463   */\n    tag_279:\n        /* \"#utility.yul\":24382:24416   */\n      0x546869732069732065787069726564206f72206e6f7420657863757465642079\n        /* \"#utility.yul\":24378:24379   */\n      0x00\n        /* \"#utility.yul\":24370:24376   */\n      dup3\n        /* \"#utility.yul\":24366:24380   */\n      add\n        /* \"#utility.yul\":24359:24417   */\n      mstore\n        /* \"#utility.yul\":24451:24455   */\n      0x6574000000000000000000000000000000000000000000000000000000000000\n        /* \"#utility.yul\":24446:24448   */\n      0x20\n        /* \"#utility.yul\":24438:24444   */\n      dup3\n        /* \"#utility.yul\":24434:24449   */\n      add\n        /* \"#utility.yul\":24427:24456   */\n      mstore\n        /* \"#utility.yul\":24242:24463   */\n      pop\n      jump\t// out\n        /* \"#utility.yul\":24469:24835   */\n    tag_280:\n        /* \"#utility.yul\":24611:24614   */\n      0x00\n        /* \"#utility.yul\":24632:24699   */\n      tag_520\n        /* \"#utility.yul\":24696:24698   */\n      0x22\n        /* \"#utility.yul\":24691:24694   */\n      dup4\n        /* \"#utility.yul\":24632:24699   */\n      tag_256\n      jump\t// in\n    tag_520:\n        /* \"#utility.yul\":24625:24699   */\n      swap2\n      pop\n        /* \"#utility.yul\":24708:24801   */\n      tag_521\n        /* \"#utility.yul\":24797:24800   */\n      dup3\n        /* \"#utility.yul\":24708:24801   */\n      tag_279\n      jump\t// in\n    tag_521:\n        /* \"#utility.yul\":24826:24828   */\n      0x40\n        /* \"#utility.yul\":24821:24824   */\n      dup3\n        /* \"#utility.yul\":24817:24829   */\n      add\n        /* \"#utility.yul\":24810:24829   */\n      swap1\n      pop\n        /* \"#utility.yul\":24469:24835   */\n      swap2\n      swap1\n      pop\n      jump\t// out\n        /* \"#utility.yul\":24841:25260   */\n    tag_182:\n        /* \"#utility.yul\":25007:25011   */\n      0x00\n        /* \"#utility.yul\":25045:25047   */\n      0x20\n        /* \"#utility.yul\":25034:25043   */\n      dup3\n        /* \"#utility.yul\":25030:25048   */\n      add\n        /* \"#utility.yul\":25022:25048   */\n      swap1\n      pop\n        /* \"#utility.yul\":25094:25103   */\n      dup2\n        /* \"#utility.yul\":25088:25092   */\n      dup2\n        /* \"#utility.yul\":25084:25104   */\n      sub\n        /* \"#utility.yul\":25080:25081   */\n      0x00\n        /* \"#utility.yul\":25069:25078   */\n      dup4\n        /* \"#utility.yul\":25065:25082   */\n      add\n        /* \"#utility.yul\":25058:25105   */\n      mstore\n        /* \"#utility.yul\":25122:25253   */\n      tag_523\n        /* \"#utility.yul\":25248:25252   */\n      dup2\n        /* \"#utility.yul\":25122:25253   */\n      tag_280\n      jump\t// in\n    tag_523:\n        /* \"#utility.yul\":25114:25253   */\n      swap1\n      pop\n        /* \"#utility.yul\":24841:25260   */\n      swap2\n      swap1\n      pop\n      jump\t// out\n        /* \"#utility.yul\":25266:25447   */\n    tag_281:\n        /* \"#utility.yul\":25406:25439   */\n      0x4e6f7420656e6f7567682062616c616e636520666f72207265706179696e6700\n        /* \"#utility.yul\":25402:25403   */\n      0x00\n        /* \"#utility.yul\":25394:25400   */\n      dup3\n        /* \"#utility.yul\":25390:25404   */\n      add\n        /* \"#utility.yul\":25383:25440   */\n      mstore\n        /* \"#utility.yul\":25266:25447   */\n      pop\n      jump\t// out\n        /* \"#utility.yul\":25453:25819   */\n    tag_282:\n        /* \"#utility.yul\":25595:25598   */\n      0x00\n        /* \"#utility.yul\":25616:25683   */\n      tag_526\n        /* \"#utility.yul\":25680:25682   */\n      0x1f\n        /* \"#utility.yul\":25675:25678   */\n      dup4\n        /* \"#utility.yul\":25616:25683   */\n      tag_256\n      jump\t// in\n    tag_526:\n        /* \"#utility.yul\":25609:25683   */\n      swap2\n      pop\n        /* \"#utility.yul\":25692:25785   */\n      tag_527\n        /* \"#utility.yul\":25781:25784   */\n      dup3\n        /* \"#utility.yul\":25692:25785   */\n      tag_281\n      jump\t// in\n    tag_527:\n        /* \"#utility.yul\":25810:25812   */\n      0x20\n        /* \"#utility.yul\":25805:25808   */\n      dup3\n        /* \"#utility.yul\":25801:25813   */\n      add\n        /* \"#utility.yul\":25794:25813   */\n      swap1\n      pop\n        /* \"#utility.yul\":25453:25819   */\n      swap2\n      swap1\n      pop\n      jump\t// out\n        /* \"#utility.yul\":25825:26244   */\n    tag_186:\n        /* \"#utility.yul\":25991:25995   */\n      0x00\n        /* \"#utility.yul\":26029:26031   */\n      0x20\n        /* \"#utility.yul\":26018:26027   */\n      dup3\n        /* \"#utility.yul\":26014:26032   */\n      add\n        /* \"#utility.yul\":26006:26032   */\n      swap1\n      pop\n        /* \"#utility.yul\":26078:26087   */\n      dup2\n        /* \"#utility.yul\":26072:26076   */\n      dup2\n        /* \"#utility.yul\":26068:26088   */\n      sub\n        /* \"#utility.yul\":26064:26065   */\n      0x00\n        /* \"#utility.yul\":26053:26062   */\n      dup4\n        /* \"#utility.yul\":26049:26066   */\n      add\n        /* \"#utility.yul\":26042:26089   */\n      mstore\n        /* \"#utility.yul\":26106:26237   */\n      tag_529\n        /* \"#utility.yul\":26232:26236   */\n      dup2\n        /* \"#utility.yul\":26106:26237   */\n      tag_282\n      jump\t// in\n    tag_529:\n        /* \"#utility.yul\":26098:26237   */\n      swap1\n      pop\n        /* \"#utility.yul\":25825:26244   */\n      swap2\n      swap1\n      pop\n      jump\t// out\n        /* \"#utility.yul\":26250:26420   */\n    tag_283:\n        /* \"#utility.yul\":26390:26412   */\n      0x546869732069736e277420726570617920796574000000000000000000000000\n        /* \"#utility.yul\":26386:26387   */\n      0x00\n        /* \"#utility.yul\":26378:26384   */\n      dup3\n        /* \"#utility.yul\":26374:26388   */\n      add\n        /* \"#utility.yul\":26367:26413   */\n      mstore\n        /* \"#utility.yul\":26250:26420   */\n      pop\n      jump\t// out\n        /* \"#utility.yul\":26426:26792   */\n    tag_284:\n        /* \"#utility.yul\":26568:26571   */\n      0x00\n        /* \"#utility.yul\":26589:26656   */\n      tag_532\n        /* \"#utility.yul\":26653:26655   */\n      0x14\n        /* \"#utility.yul\":26648:26651   */\n      dup4\n        /* \"#utility.yul\":26589:26656   */\n      tag_256\n      jump\t// in\n    tag_532:\n        /* \"#utility.yul\":26582:26656   */\n      swap2\n      pop\n        /* \"#utility.yul\":26665:26758   */\n      tag_533\n        /* \"#utility.yul\":26754:26757   */\n      dup3\n        /* \"#utility.yul\":26665:26758   */\n      tag_283\n      jump\t// in\n    tag_533:\n        /* \"#utility.yul\":26783:26785   */\n      0x20\n        /* \"#utility.yul\":26778:26781   */\n      dup3\n        /* \"#utility.yul\":26774:26786   */\n      add\n        /* \"#utility.yul\":26767:26786   */\n      swap1\n      pop\n        /* \"#utility.yul\":26426:26792   */\n      swap2\n      swap1\n      pop\n      jump\t// out\n        /* \"#utility.yul\":26798:27217   */\n    tag_202:\n        /* \"#utility.yul\":26964:26968   */\n      0x00\n        /* \"#utility.yul\":27002:27004   */\n      0x20\n        /* \"#utility.yul\":26991:27000   */\n      dup3\n        /* \"#utility.yul\":26987:27005   */\n      add\n        /* \"#utility.yul\":26979:27005   */\n      swap1\n      pop\n        /* \"#utility.yul\":27051:27060   */\n      dup2\n        /* \"#utility.yul\":27045:27049   */\n      dup2\n        /* \"#utility.yul\":27041:27061   */\n      sub\n        /* \"#utility.yul\":27037:27038   */\n      0x00\n        /* \"#utility.yul\":27026:27035   */\n      dup4\n        /* \"#utility.yul\":27022:27039   */\n      add\n        /* \"#utility.yul\":27015:27062   */\n      mstore\n        /* \"#utility.yul\":27079:27210   */\n      tag_535\n        /* \"#utility.yul\":27205:27209   */\n      dup2\n        /* \"#utility.yul\":27079:27210   */\n      tag_284\n      jump\t// in\n    tag_535:\n        /* \"#utility.yul\":27071:27210   */\n      swap1\n      pop\n        /* \"#utility.yul\":26798:27217   */\n      swap2\n      swap1\n      pop\n      jump\t// out\n        /* \"#utility.yul\":27223:27403   */\n    tag_285:\n        /* \"#utility.yul\":27363:27395   */\n      0x596f7520617265206e6f7420706f73746572206f6620746865206c6973740000\n        /* \"#utility.yul\":27359:27360   */\n      0x00\n        /* \"#utility.yul\":27351:27357   */\n      dup3\n        /* \"#utility.yul\":27347:27361   */\n      add\n        /* \"#utility.yul\":27340:27396   */\n      mstore\n        /* \"#utility.yul\":27223:27403   */\n      pop\n      jump\t// out\n        /* \"#utility.yul\":27409:27775   */\n    tag_286:\n        /* \"#utility.yul\":27551:27554   */\n      0x00\n        /* \"#utility.yul\":27572:27639   */\n      tag_538\n        /* \"#utility.yul\":27636:27638   */\n      0x1e\n        /* \"#utility.yul\":27631:27634   */\n      dup4\n        /* \"#utility.yul\":27572:27639   */\n      tag_256\n      jump\t// in\n    tag_538:\n        /* \"#utility.yul\":27565:27639   */\n      swap2\n      pop\n        /* \"#utility.yul\":27648:27741   */\n      tag_539\n        /* \"#utility.yul\":27737:27740   */\n      dup3\n        /* \"#utility.yul\":27648:27741   */\n      tag_285\n      jump\t// in\n    tag_539:\n        /* \"#utility.yul\":27766:27768   */\n      0x20\n        /* \"#utility.yul\":27761:27764   */\n      dup3\n        /* \"#utility.yul\":27757:27769   */\n      add\n        /* \"#utility.yul\":27750:27769   */\n      swap1\n      pop\n        /* \"#utility.yul\":27409:27775   */\n      swap2\n      swap1\n      pop\n      jump\t// out\n        /* \"#utility.yul\":27781:28200   */\n    tag_216:\n        /* \"#utility.yul\":27947:27951   */\n      0x00\n        /* \"#utility.yul\":27985:27987   */\n      0x20\n        /* \"#utility.yul\":27974:27983   */\n      dup3\n        /* \"#utility.yul\":27970:27988   */\n      add\n        /* \"#utility.yul\":27962:27988   */\n      swap1\n      pop\n        /* \"#utility.yul\":28034:28043   */\n      dup2\n        /* \"#utility.yul\":28028:28032   */\n      dup2\n        /* \"#utility.yul\":28024:28044   */\n      sub\n        /* \"#utility.yul\":28020:28021   */\n      0x00\n        /* \"#utility.yul\":28009:28018   */\n      dup4\n        /* \"#utility.yul\":28005:28022   */\n      add\n        /* \"#utility.yul\":27998:28045   */\n      mstore\n        /* \"#utility.yul\":28062:28193   */\n      tag_541\n        /* \"#utility.yul\":28188:28192   */\n      dup2\n        /* \"#utility.yul\":28062:28193   */\n      tag_286\n      jump\t// in\n    tag_541:\n        /* \"#utility.yul\":28054:28193   */\n      swap1\n      pop\n        /* \"#utility.yul\":27781:28200   */\n      swap2\n      swap1\n      pop\n      jump\t// out\n        /* \"#utility.yul\":28206:28372   */\n    tag_287:\n        /* \"#utility.yul\":28346:28364   */\n      0x4e6f74206f70656e696e67206c69737400000000000000000000000000000000\n        /* \"#utility.yul\":28342:28343   */\n      0x00\n        /* \"#utility.yul\":28334:28340   */\n      dup3\n        /* \"#utility.yul\":28330:28344   */\n      add\n        /* \"#utility.yul\":28323:28365   */\n      mstore\n        /* \"#utility.yul\":28206:28372   */\n      pop\n      jump\t// out\n        /* \"#utility.yul\":28378:28744   */\n    tag_288:\n        /* \"#utility.yul\":28520:28523   */\n      0x00\n        /* \"#utility.yul\":28541:28608   */\n      tag_544\n        /* \"#utility.yul\":28605:28607   */\n      0x10\n        /* \"#utility.yul\":28600:28603   */\n      dup4\n        /* \"#utility.yul\":28541:28608   */\n      tag_256\n      jump\t// in\n    tag_544:\n        /* \"#utility.yul\":28534:28608   */\n      swap2\n      pop\n        /* \"#utility.yul\":28617:28710   */\n      tag_545\n        /* \"#utility.yul\":28706:28709   */\n      dup3\n        /* \"#utility.yul\":28617:28710   */\n      tag_287\n      jump\t// in\n    tag_545:\n        /* \"#utility.yul\":28735:28737   */\n      0x20\n        /* \"#utility.yul\":28730:28733   */\n      dup3\n        /* \"#utility.yul\":28726:28738   */\n      add\n        /* \"#utility.yul\":28719:28738   */\n      swap1\n      pop\n        /* \"#utility.yul\":28378:28744   */\n      swap2\n      swap1\n      pop\n      jump\t// out\n        /* \"#utility.yul\":28750:29169   */\n    tag_219:\n        /* \"#utility.yul\":28916:28920   */\n      0x00\n        /* \"#utility.yul\":28954:28956   */\n      0x20\n        /* \"#utility.yul\":28943:28952   */\n      dup3\n        /* \"#utility.yul\":28939:28957   */\n      add\n        /* \"#utility.yul\":28931:28957   */\n      swap1\n      pop\n        /* \"#utility.yul\":29003:29012   */\n      dup2\n        /* \"#utility.yul\":28997:29001   */\n      dup2\n        /* \"#utility.yul\":28993:29013   */\n      sub\n        /* \"#utility.yul\":28989:28990   */\n      0x00\n        /* \"#utility.yul\":28978:28987   */\n      dup4\n        /* \"#utility.yul\":28974:28991   */\n      add\n        /* \"#utility.yul\":28967:29014   */\n      mstore\n        /* \"#utility.yul\":29031:29162   */\n      tag_547\n        /* \"#utility.yul\":29157:29161   */\n      dup2\n        /* \"#utility.yul\":29031:29162   */\n      tag_288\n      jump\t// in\n    tag_547:\n        /* \"#utility.yul\":29023:29162   */\n      swap1\n      pop\n        /* \"#utility.yul\":28750:29169   */\n      swap2\n      swap1\n      pop\n      jump\t// out\n\n    auxdata: 0xa2646970667358221220dd50f600a86d0d73d143a6e617d1803c3d95dfc71ec61a5bb0d69ff91b6717c364736f6c63430008170033\n}\n",
				"bytecode": {
					"linkReferences": {},
					"object": "6080604052600160045561016d60055562278d0060065562015180600755603c60085534801561002d575f80fd5b506122cd8061003b5f395ff3fe6080604052600436106100f2575f3560e01c8063aadc1ac111610089578063ce5b8d3511610058578063ce5b8d351461034c578063d9548e5314610374578063e5a255cb146103b1578063eeabfc4a146103d9576100f2565b8063aadc1ac11461029c578063ab7b1c89146102b8578063b1209d4a146102d4578063b931413514610310576100f2565b80636c59bd0c116100c55780636c59bd0c146101e6578063880fe9411461020e5780638ada066e14610236578063907c64f514610260576100f2565b8063084af0b2146100f65780631ac31f0d146101325780631f29d2dc1461016e5780634f694690146101aa575b5f80fd5b348015610101575f80fd5b5061011c6004803603810190610117919061153b565b61041b565b6040516101299190611626565b60405180910390f35b34801561013d575f80fd5b5061015860048036038101906101539190611670565b6104ae565b60405161016591906116aa565b60405180910390f35b348015610179575f80fd5b50610194600480360381019061018f91906116c3565b610566565b6040516101a19190611710565b60405180910390f35b3480156101b5575f80fd5b506101d060048036038101906101cb919061153b565b6105e7565b6040516101dd9190611743565b60405180910390f35b3480156101f1575f80fd5b5061020c60048036038101906102079190611670565b610669565b005b348015610219575f80fd5b50610234600480360381019061022f919061175c565b610682565b005b348015610241575f80fd5b5061024a610a43565b60405161025791906116aa565b60405180910390f35b34801561026b575f80fd5b5061028660048036038101906102819190611670565b610a4c565b6040516102939190611710565b60405180910390f35b6102b660048036038101906102b19190611670565b610a85565b005b6102d260048036038101906102cd9190611670565b610cf6565b005b3480156102df575f80fd5b506102fa60048036038101906102f59190611670565b610f7c565b60405161030791906116aa565b60405180910390f35b34801561031b575f80fd5b5061033660048036038101906103319190611670565b610f96565b60405161034391906118a6565b60405180910390f35b348015610357575f80fd5b50610372600480360381019061036d9190611670565b61109b565b005b34801561037f575f80fd5b5061039a60048036038101906103959190611670565b611227565b6040516103a89291906118bf565b60405180910390f35b3480156103bc575f80fd5b506103d760048036038101906103d29190611670565b611285565b005b3480156103e4575f80fd5b506103ff60048036038101906103fa9190611670565b6113fd565b6040516104129796959493929190611904565b60405180910390f35b606060015f8373ffffffffffffffffffffffffffffffffffffffff1673ffffffffffffffffffffffffffffffffffffffff1681526020019081526020015f208054806020026020016040519081016040528092919081815260200182805480156104a257602002820191905f5260205f20905b81548152602001906001019080831161048e575b50505050509050919050565b5f806104b983610f96565b90505f6103e88260a001516104ce919061199e565b90505f6005546103e860648486606001516104e9919061199e565b6104f39190611a0c565b6104fd9190611a0c565b6105079190611a0c565b90505f60075460025f8881526020019081526020015f20544261052a9190611a3c565b6105349190611a0c565b90505f8183610543919061199e565b90505f8186606001516105569190611a6f565b9050809650505050505050919050565b5f8273ffffffffffffffffffffffffffffffffffffffff16636352211e836040518263ffffffff1660e01b81526004016105a091906116aa565b602060405180830381865afa1580156105bb573d5f803e3d5ffd5b505050506040513d601f19601f820116820180604052508101906105df9190611ab6565b905092915050565b5f8173ffffffffffffffffffffffffffffffffffffffff1663e985e9c533306040518363ffffffff1660e01b8152600401610623929190611ae1565b602060405180830381865afa15801561063e573d5f803e3d5ffd5b505050506040513d601f19601f820116820180604052508101906106629190611b32565b9050919050565b4260025f8381526020019081526020015f208190555050565b5f8311801561069057505f82115b801561069b57505f81115b6106da576040517f08c379a00000000000000000000000000000000000000000000000000000000081526004016106d190611bb7565b60405180910390fd5b3373ffffffffffffffffffffffffffffffffffffffff168573ffffffffffffffffffffffffffffffffffffffff16636352211e866040518263ffffffff1660e01b815260040161072a91906116aa565b602060405180830381865afa158015610745573d5f803e3d5ffd5b505050506040513d601f19601f820116820180604052508101906107699190611ab6565b73ffffffffffffffffffffffffffffffffffffffff16146107bf576040517f08c379a00000000000000000000000000000000000000000000000000000000081526004016107b690611c1f565b60405180910390fd5b5f6040518060e001604052803373ffffffffffffffffffffffffffffffffffffffff1681526020018773ffffffffffffffffffffffffffffffffffffffff1681526020018681526020018581526020018481526020018381526020017f6f70656e000000000000000000000000000000000000000000000000000000008152509050805f8060045481526020019081526020015f205f820151815f015f6101000a81548173ffffffffffffffffffffffffffffffffffffffff021916908373ffffffffffffffffffffffffffffffffffffffff1602179055506020820151816001015f6101000a81548173ffffffffffffffffffffffffffffffffffffffff021916908373ffffffffffffffffffffffffffffffffffffffff16021790555060408201518160020155606082015181600301556080820151816004015560a0820151816005015560c0820151816006015590505060015f3373ffffffffffffffffffffffffffffffffffffffff1673ffffffffffffffffffffffffffffffffffffffff1681526020019081526020015f20600454908060018154018082558091505060019003905f5260205f20015f90919091909150558573ffffffffffffffffffffffffffffffffffffffff166323b872dd3330886040518463ffffffff1660e01b81526004016109b393929190611c3d565b5f604051808303815f87803b1580156109ca575f80fd5b505af11580156109dc573d5f803e3d5ffd5b505050506109eb600454610669565b60045f8154809291906109fd90611c72565b91905055507ff767ad1ae2d5476327f80bef89fbc70354c993e3059ed3d504d127921f60c40b3382604051610a33929190611cb9565b60405180910390a1505050505050565b5f600454905090565b5f60035f8381526020019081526020015f205f9054906101000a900473ffffffffffffffffffffffffffffffffffffffff169050919050565b5f805f8381526020019081526020015f209050805f015f9054906101000a900473ffffffffffffffffffffffffffffffffffffffff1673ffffffffffffffffffffffffffffffffffffffff163373ffffffffffffffffffffffffffffffffffffffff1603610b28576040517f08c379a0000000000000000000000000000000000000000000000000000000008152600401610b1f90611d2b565b60405180910390fd5b5f670de0b6b3a76400008260030154610b41919061199e565b9050803373ffffffffffffffffffffffffffffffffffffffff16311015610b9d576040517f08c379a0000000000000000000000000000000000000000000000000000000008152600401610b9490611db9565b60405180910390fd5b7f657865637574696e67000000000000000000000000000000000000000000000082600601819055503360035f8581526020019081526020015f205f6101000a81548173ffffffffffffffffffffffffffffffffffffffff021916908373ffffffffffffffffffffffffffffffffffffffff160217905550610c1e83610669565b5f825f015f9054906101000a900473ffffffffffffffffffffffffffffffffffffffff1673ffffffffffffffffffffffffffffffffffffffff166108fc3490811502906040515f60405180830381858888f19350505050905080610cb7576040517f08c379a0000000000000000000000000000000000000000000000000000000008152600401610cae90611e21565b60405180910390fd5b7fcbe547358b7d8ceb07ae8baae08d35680e6c6c69046525b09dc9bb8f53f708fd3384604051610ce8929190611fd9565b60405180910390a150505050565b5f805f8381526020019081526020015f2090503373ffffffffffffffffffffffffffffffffffffffff16815f015f9054906101000a900473ffffffffffffffffffffffffffffffffffffffff1673ffffffffffffffffffffffffffffffffffffffff1614610d99576040517f08c379a0000000000000000000000000000000000000000000000000000000008152600401610d909061204b565b60405180910390fd5b7f657865637574696e670000000000000000000000000000000000000000000000816006015414610dff576040517f08c379a0000000000000000000000000000000000000000000000000000000008152600401610df6906120d9565b60405180910390fd5b5f610e09836104ae565b90503373ffffffffffffffffffffffffffffffffffffffff16318110610e64576040517f08c379a0000000000000000000000000000000000000000000000000000000008152600401610e5b90612141565b60405180910390fd5b5f60035f8581526020019081526020015f205f9054906101000a900473ffffffffffffffffffffffffffffffffffffffff1673ffffffffffffffffffffffffffffffffffffffff166108fc3490811502906040515f60405180830381858888f19350505050905080610f0b576040517f08c379a0000000000000000000000000000000000000000000000000000000008152600401610f0290611e21565b60405180910390fd5b7f72657061796564000000000000000000000000000000000000000000000000008360060181905550610f3d8461109b565b7f94e7116aa05f19f109f7fa598f65ade35ab1de8cd3d002b5b2205416e8943e653384604051610f6e929190611fd9565b60405180910390a150505050565b5f60025f8381526020019081526020015f20549050919050565b610f9e611478565b5f808381526020019081526020015f206040518060e00160405290815f82015f9054906101000a900473ffffffffffffffffffffffffffffffffffffffff1673ffffffffffffffffffffffffffffffffffffffff1673ffffffffffffffffffffffffffffffffffffffff168152602001600182015f9054906101000a900473ffffffffffffffffffffffffffffffffffffffff1673ffffffffffffffffffffffffffffffffffffffff1673ffffffffffffffffffffffffffffffffffffffff168152602001600282015481526020016003820154815260200160048201548152602001600582015481526020016006820154815250509050919050565b5f6110a582610f96565b90503373ffffffffffffffffffffffffffffffffffffffff16815f015173ffffffffffffffffffffffffffffffffffffffff1614611118576040517f08c379a000000000000000000000000000000000000000000000000000000000815260040161110f9061204b565b60405180910390fd5b7f72657061796564000000000000000000000000000000000000000000000000008160c001511461117e576040517f08c379a0000000000000000000000000000000000000000000000000000000008152600401611175906121a9565b60405180910390fd5b806020015173ffffffffffffffffffffffffffffffffffffffff166323b872dd303384604001516040518463ffffffff1660e01b81526004016111c393929190611c3d565b5f604051808303815f87803b1580156111da575f80fd5b505af11580156111ec573d5f803e3d5ffd5b505050507f636c6f73656400000000000000000000000000000000000000000000000000008160c001818152505061122382610669565b5050565b5f805f61123384610f96565b90505f6008548260800151611248919061199e565b60025f8781526020019081526020015f20546112649190611a6f565b90505f42826112739190611a3c565b9050805f821094509450505050915091565b5f805f8381526020019081526020015f2090503373ffffffffffffffffffffffffffffffffffffffff16815f015f9054906101000a900473ffffffffffffffffffffffffffffffffffffffff1673ffffffffffffffffffffffffffffffffffffffff1614611328576040517f08c379a000000000000000000000000000000000000000000000000000000000815260040161131f90612211565b60405180910390fd5b7f6f70656e0000000000000000000000000000000000000000000000000000000081600601541461138e576040517f08c379a000000000000000000000000000000000000000000000000000000000815260040161138590612279565b60405180910390fd5b7f63616e63656c000000000000000000000000000000000000000000000000000081600601819055506113c082610669565b7f7e885013ca94016b1452b4678f1c43c33cd914617b389322af7f7d97a2c4f58533826040516113f1929190611fd9565b60405180910390a15050565b5f602052805f5260405f205f91509050805f015f9054906101000a900473ffffffffffffffffffffffffffffffffffffffff1690806001015f9054906101000a900473ffffffffffffffffffffffffffffffffffffffff16908060020154908060030154908060040154908060050154908060060154905087565b6040518060e001604052805f73ffffffffffffffffffffffffffffffffffffffff1681526020015f73ffffffffffffffffffffffffffffffffffffffff1681526020015f81526020015f81526020015f81526020015f81526020015f80191681525090565b5f80fd5b5f73ffffffffffffffffffffffffffffffffffffffff82169050919050565b5f61150a826114e1565b9050919050565b61151a81611500565b8114611524575f80fd5b50565b5f8135905061153581611511565b92915050565b5f602082840312156115505761154f6114dd565b5b5f61155d84828501611527565b91505092915050565b5f81519050919050565b5f82825260208201905092915050565b5f819050602082019050919050565b5f819050919050565b6115a18161158f565b82525050565b5f6115b28383611598565b60208301905092915050565b5f602082019050919050565b5f6115d482611566565b6115de8185611570565b93506115e983611580565b805f5b8381101561161957815161160088826115a7565b975061160b836115be565b9250506001810190506115ec565b5085935050505092915050565b5f6020820190508181035f83015261163e81846115ca565b905092915050565b61164f8161158f565b8114611659575f80fd5b50565b5f8135905061166a81611646565b92915050565b5f60208284031215611685576116846114dd565b5b5f6116928482850161165c565b91505092915050565b6116a48161158f565b82525050565b5f6020820190506116bd5f83018461169b565b92915050565b5f80604083850312156116d9576116d86114dd565b5b5f6116e685828601611527565b92505060206116f78582860161165c565b9150509250929050565b61170a81611500565b82525050565b5f6020820190506117235f830184611701565b92915050565b5f8115159050919050565b61173d81611729565b82525050565b5f6020820190506117565f830184611734565b92915050565b5f805f805f60a08688031215611775576117746114dd565b5b5f61178288828901611527565b95505060206117938882890161165c565b94505060406117a48882890161165c565b93505060606117b58882890161165c565b92505060806117c68882890161165c565b9150509295509295909350565b5f6117dd826114e1565b9050919050565b6117ed816117d3565b82525050565b6117fc81611500565b82525050565b5f819050919050565b61181481611802565b82525050565b60e082015f82015161182e5f8501826117e4565b50602082015161184160208501826117f3565b5060408201516118546040850182611598565b5060608201516118676060850182611598565b50608082015161187a6080850182611598565b5060a082015161188d60a0850182611598565b5060c08201516118a060c085018261180b565b50505050565b5f60e0820190506118b95f83018461181a565b92915050565b5f6040820190506118d25f83018561169b565b6118df6020830184611734565b9392505050565b6118ef816117d3565b82525050565b6118fe81611802565b82525050565b5f60e0820190506119175f83018a6118e6565b6119246020830189611701565b611931604083018861169b565b61193e606083018761169b565b61194b608083018661169b565b61195860a083018561169b565b61196560c08301846118f5565b98975050505050505050565b7f4e487b71000000000000000000000000000000000000000000000000000000005f52601160045260245ffd5b5f6119a88261158f565b91506119b38361158f565b92508282026119c18161158f565b915082820484148315176119d8576119d7611971565b5b5092915050565b7f4e487b71000000000000000000000000000000000000000000000000000000005f52601260045260245ffd5b5f611a168261158f565b9150611a218361158f565b925082611a3157611a306119df565b5b828204905092915050565b5f611a468261158f565b9150611a518361158f565b9250828203905081811115611a6957611a68611971565b5b92915050565b5f611a798261158f565b9150611a848361158f565b9250828201905080821115611a9c57611a9b611971565b5b92915050565b5f81519050611ab081611511565b92915050565b5f60208284031215611acb57611aca6114dd565b5b5f611ad884828501611aa2565b91505092915050565b5f604082019050611af45f830185611701565b611b016020830184611701565b9392505050565b611b1181611729565b8114611b1b575f80fd5b50565b5f81519050611b2c81611b08565b92915050565b5f60208284031215611b4757611b466114dd565b5b5f611b5484828501611b1e565b91505092915050565b5f82825260208201905092915050565b7f56616c756573206d7573742062652067726561746572207468616e207a65726f5f82015250565b5f611ba1602083611b5d565b9150611bac82611b6d565b602082019050919050565b5f6020820190508181035f830152611bce81611b95565b9050919050565b7f596f7520617265206e6f7420686f6c646572206f66207468697320746f6b656e5f82015250565b5f611c09602083611b5d565b9150611c1482611bd5565b602082019050919050565b5f6020820190508181035f830152611c3681611bfd565b9050919050565b5f606082019050611c505f830186611701565b611c5d6020830185611701565b611c6a604083018461169b565b949350505050565b5f611c7c8261158f565b91507fffffffffffffffffffffffffffffffffffffffffffffffffffffffffffffffff8203611cae57611cad611971565b5b600182019050919050565b5f61010082019050611ccd5f830185611701565b611cda602083018461181a565b9392505050565b7f4974277320796f7572206f776e206c6f616e206170706c69636174696f6e2e005f82015250565b5f611d15601f83611b5d565b9150611d2082611ce1565b602082019050919050565b5f6020820190508181035f830152611d4281611d09565b9050919050565b7f596f7520686176656e277420656e6f7567682062616c616e636520666f72206c5f8201527f656e64696e670000000000000000000000000000000000000000000000000000602082015250565b5f611da3602683611b5d565b9150611dae82611d49565b604082019050919050565b5f6020820190508181035f830152611dd081611d97565b9050919050565b7f4661696c656420746f2073656e642045746865720000000000000000000000005f82015250565b5f611e0b601483611b5d565b9150611e1682611dd7565b602082019050919050565b5f6020820190508181035f830152611e3881611dff565b9050919050565b5f815f1c9050919050565b5f73ffffffffffffffffffffffffffffffffffffffff82169050919050565b5f611e7b611e7683611e3f565b611e4a565b9050919050565b5f73ffffffffffffffffffffffffffffffffffffffff82169050919050565b5f611eb3611eae83611e3f565b611e82565b9050919050565b5f819050919050565b5f611ed5611ed083611e3f565b611eba565b9050919050565b5f819050919050565b5f611ef7611ef283611e3f565b611edc565b9050919050565b60e082015f808301549050611f1281611e69565b611f1e5f8601826117e4565b5060018301549050611f2f81611ea1565b611f3c60208601826117f3565b5060028301549050611f4d81611ec3565b611f5a6040860182611598565b5060038301549050611f6b81611ec3565b611f786060860182611598565b5060048301549050611f8981611ec3565b611f966080860182611598565b5060058301549050611fa781611ec3565b611fb460a0860182611598565b5060068301549050611fc581611ee5565b611fd260c086018261180b565b5050505050565b5f61010082019050611fed5f830185611701565b611ffa6020830184611efe565b9392505050565b7f596f7520617265206e6f7420706f7374657200000000000000000000000000005f82015250565b5f612035601283611b5d565b915061204082612001565b602082019050919050565b5f6020820190508181035f83015261206281612029565b9050919050565b7f546869732069732065787069726564206f72206e6f74206578637574656420795f8201527f6574000000000000000000000000000000000000000000000000000000000000602082015250565b5f6120c3602283611b5d565b91506120ce82612069565b604082019050919050565b5f6020820190508181035f8301526120f0816120b7565b9050919050565b7f4e6f7420656e6f7567682062616c616e636520666f72207265706179696e67005f82015250565b5f61212b601f83611b5d565b9150612136826120f7565b602082019050919050565b5f6020820190508181035f8301526121588161211f565b9050919050565b7f546869732069736e2774207265706179207965740000000000000000000000005f82015250565b5f612193601483611b5d565b915061219e8261215f565b602082019050919050565b5f6020820190508181035f8301526121c081612187565b9050919050565b7f596f7520617265206e6f7420706f73746572206f6620746865206c69737400005f82015250565b5f6121fb601e83611b5d565b9150612206826121c7565b602082019050919050565b5f6020820190508181035f830152612228816121ef565b9050919050565b7f4e6f74206f70656e696e67206c697374000000000000000000000000000000005f82015250565b5f612263601083611b5d565b915061226e8261222f565b602082019050919050565b5f6020820190508181035f83015261229081612257565b905091905056fea2646970667358221220dd50f600a86d0d73d143a6e617d1803c3d95dfc71ec61a5bb0d69ff91b6717c364736f6c63430008170033",
					"opcodes": "PUSH1 0x80 PUSH1 0x40 MSTORE PUSH1 0x1 PUSH1 0x4 SSTORE PUSH2 0x16D PUSH1 0x5 SSTORE PUSH3 0x278D00 PUSH1 0x6 SSTORE PUSH3 0x15180 PUSH1 0x7 SSTORE PUSH1 0x3C PUSH1 0x8 SSTORE CALLVALUE DUP1 ISZERO PUSH2 0x2D JUMPI PUSH0 DUP1 REVERT JUMPDEST POP PUSH2 0x22CD DUP1 PUSH2 0x3B PUSH0 CODECOPY PUSH0 RETURN INVALID PUSH1 0x80 PUSH1 0x40 MSTORE PUSH1 0x4 CALLDATASIZE LT PUSH2 0xF2 JUMPI PUSH0 CALLDATALOAD PUSH1 0xE0 SHR DUP1 PUSH4 0xAADC1AC1 GT PUSH2 0x89 JUMPI DUP1 PUSH4 0xCE5B8D35 GT PUSH2 0x58 JUMPI DUP1 PUSH4 0xCE5B8D35 EQ PUSH2 0x34C JUMPI DUP1 PUSH4 0xD9548E53 EQ PUSH2 0x374 JUMPI DUP1 PUSH4 0xE5A255CB EQ PUSH2 0x3B1 JUMPI DUP1 PUSH4 0xEEABFC4A EQ PUSH2 0x3D9 JUMPI PUSH2 0xF2 JUMP JUMPDEST DUP1 PUSH4 0xAADC1AC1 EQ PUSH2 0x29C JUMPI DUP1 PUSH4 0xAB7B1C89 EQ PUSH2 0x2B8 JUMPI DUP1 PUSH4 0xB1209D4A EQ PUSH2 0x2D4 JUMPI DUP1 PUSH4 0xB9314135 EQ PUSH2 0x310 JUMPI PUSH2 0xF2 JUMP JUMPDEST DUP1 PUSH4 0x6C59BD0C GT PUSH2 0xC5 JUMPI DUP1 PUSH4 0x6C59BD0C EQ PUSH2 0x1E6 JUMPI DUP1 PUSH4 0x880FE941 EQ PUSH2 0x20E JUMPI DUP1 PUSH4 0x8ADA066E EQ PUSH2 0x236 JUMPI DUP1 PUSH4 0x907C64F5 EQ PUSH2 0x260 JUMPI PUSH2 0xF2 JUMP JUMPDEST DUP1 PUSH4 0x84AF0B2 EQ PUSH2 0xF6 JUMPI DUP1 PUSH4 0x1AC31F0D EQ PUSH2 0x132 JUMPI DUP1 PUSH4 0x1F29D2DC EQ PUSH2 0x16E JUMPI DUP1 PUSH4 0x4F694690 EQ PUSH2 0x1AA JUMPI JUMPDEST PUSH0 DUP1 REVERT JUMPDEST CALLVALUE DUP1 ISZERO PUSH2 0x101 JUMPI PUSH0 DUP1 REVERT JUMPDEST POP PUSH2 0x11C PUSH1 0x4 DUP1 CALLDATASIZE SUB DUP2 ADD SWAP1 PUSH2 0x117 SWAP2 SWAP1 PUSH2 0x153B JUMP JUMPDEST PUSH2 0x41B JUMP JUMPDEST PUSH1 0x40 MLOAD PUSH2 0x129 SWAP2 SWAP1 PUSH2 0x1626 JUMP JUMPDEST PUSH1 0x40 MLOAD DUP1 SWAP2 SUB SWAP1 RETURN JUMPDEST CALLVALUE DUP1 ISZERO PUSH2 0x13D JUMPI PUSH0 DUP1 REVERT JUMPDEST POP PUSH2 0x158 PUSH1 0x4 DUP1 CALLDATASIZE SUB DUP2 ADD SWAP1 PUSH2 0x153 SWAP2 SWAP1 PUSH2 0x1670 JUMP JUMPDEST PUSH2 0x4AE JUMP JUMPDEST PUSH1 0x40 MLOAD PUSH2 0x165 SWAP2 SWAP1 PUSH2 0x16AA JUMP JUMPDEST PUSH1 0x40 MLOAD DUP1 SWAP2 SUB SWAP1 RETURN JUMPDEST CALLVALUE DUP1 ISZERO PUSH2 0x179 JUMPI PUSH0 DUP1 REVERT JUMPDEST POP PUSH2 0x194 PUSH1 0x4 DUP1 CALLDATASIZE SUB DUP2 ADD SWAP1 PUSH2 0x18F SWAP2 SWAP1 PUSH2 0x16C3 JUMP JUMPDEST PUSH2 0x566 JUMP JUMPDEST PUSH1 0x40 MLOAD PUSH2 0x1A1 SWAP2 SWAP1 PUSH2 0x1710 JUMP JUMPDEST PUSH1 0x40 MLOAD DUP1 SWAP2 SUB SWAP1 RETURN JUMPDEST CALLVALUE DUP1 ISZERO PUSH2 0x1B5 JUMPI PUSH0 DUP1 REVERT JUMPDEST POP PUSH2 0x1D0 PUSH1 0x4 DUP1 CALLDATASIZE SUB DUP2 ADD SWAP1 PUSH2 0x1CB SWAP2 SWAP1 PUSH2 0x153B JUMP JUMPDEST PUSH2 0x5E7 JUMP JUMPDEST PUSH1 0x40 MLOAD PUSH2 0x1DD SWAP2 SWAP1 PUSH2 0x1743 JUMP JUMPDEST PUSH1 0x40 MLOAD DUP1 SWAP2 SUB SWAP1 RETURN JUMPDEST CALLVALUE DUP1 ISZERO PUSH2 0x1F1 JUMPI PUSH0 DUP1 REVERT JUMPDEST POP PUSH2 0x20C PUSH1 0x4 DUP1 CALLDATASIZE SUB DUP2 ADD SWAP1 PUSH2 0x207 SWAP2 SWAP1 PUSH2 0x1670 JUMP JUMPDEST PUSH2 0x669 JUMP JUMPDEST STOP JUMPDEST CALLVALUE DUP1 ISZERO PUSH2 0x219 JUMPI PUSH0 DUP1 REVERT JUMPDEST POP PUSH2 0x234 PUSH1 0x4 DUP1 CALLDATASIZE SUB DUP2 ADD SWAP1 PUSH2 0x22F SWAP2 SWAP1 PUSH2 0x175C JUMP JUMPDEST PUSH2 0x682 JUMP JUMPDEST STOP JUMPDEST CALLVALUE DUP1 ISZERO PUSH2 0x241 JUMPI PUSH0 DUP1 REVERT JUMPDEST POP PUSH2 0x24A PUSH2 0xA43 JUMP JUMPDEST PUSH1 0x40 MLOAD PUSH2 0x257 SWAP2 SWAP1 PUSH2 0x16AA JUMP JUMPDEST PUSH1 0x40 MLOAD DUP1 SWAP2 SUB SWAP1 RETURN JUMPDEST CALLVALUE DUP1 ISZERO PUSH2 0x26B JUMPI PUSH0 DUP1 REVERT JUMPDEST POP PUSH2 0x286 PUSH1 0x4 DUP1 CALLDATASIZE SUB DUP2 ADD SWAP1 PUSH2 0x281 SWAP2 SWAP1 PUSH2 0x1670 JUMP JUMPDEST PUSH2 0xA4C JUMP JUMPDEST PUSH1 0x40 MLOAD PUSH2 0x293 SWAP2 SWAP1 PUSH2 0x1710 JUMP JUMPDEST PUSH1 0x40 MLOAD DUP1 SWAP2 SUB SWAP1 RETURN JUMPDEST PUSH2 0x2B6 PUSH1 0x4 DUP1 CALLDATASIZE SUB DUP2 ADD SWAP1 PUSH2 0x2B1 SWAP2 SWAP1 PUSH2 0x1670 JUMP JUMPDEST PUSH2 0xA85 JUMP JUMPDEST STOP JUMPDEST PUSH2 0x2D2 PUSH1 0x4 DUP1 CALLDATASIZE SUB DUP2 ADD SWAP1 PUSH2 0x2CD SWAP2 SWAP1 PUSH2 0x1670 JUMP JUMPDEST PUSH2 0xCF6 JUMP JUMPDEST STOP JUMPDEST CALLVALUE DUP1 ISZERO PUSH2 0x2DF JUMPI PUSH0 DUP1 REVERT JUMPDEST POP PUSH2 0x2FA PUSH1 0x4 DUP1 CALLDATASIZE SUB DUP2 ADD SWAP1 PUSH2 0x2F5 SWAP2 SWAP1 PUSH2 0x1670 JUMP JUMPDEST PUSH2 0xF7C JUMP JUMPDEST PUSH1 0x40 MLOAD PUSH2 0x307 SWAP2 SWAP1 PUSH2 0x16AA JUMP JUMPDEST PUSH1 0x40 MLOAD DUP1 SWAP2 SUB SWAP1 RETURN JUMPDEST CALLVALUE DUP1 ISZERO PUSH2 0x31B JUMPI PUSH0 DUP1 REVERT JUMPDEST POP PUSH2 0x336 PUSH1 0x4 DUP1 CALLDATASIZE SUB DUP2 ADD SWAP1 PUSH2 0x331 SWAP2 SWAP1 PUSH2 0x1670 JUMP JUMPDEST PUSH2 0xF96 JUMP JUMPDEST PUSH1 0x40 MLOAD PUSH2 0x343 SWAP2 SWAP1 PUSH2 0x18A6 JUMP JUMPDEST PUSH1 0x40 MLOAD DUP1 SWAP2 SUB SWAP1 RETURN JUMPDEST CALLVALUE DUP1 ISZERO PUSH2 0x357 JUMPI PUSH0 DUP1 REVERT JUMPDEST POP PUSH2 0x372 PUSH1 0x4 DUP1 CALLDATASIZE SUB DUP2 ADD SWAP1 PUSH2 0x36D SWAP2 SWAP1 PUSH2 0x1670 JUMP JUMPDEST PUSH2 0x109B JUMP JUMPDEST STOP JUMPDEST CALLVALUE DUP1 ISZERO PUSH2 0x37F JUMPI PUSH0 DUP1 REVERT JUMPDEST POP PUSH2 0x39A PUSH1 0x4 DUP1 CALLDATASIZE SUB DUP2 ADD SWAP1 PUSH2 0x395 SWAP2 SWAP1 PUSH2 0x1670 JUMP JUMPDEST PUSH2 0x1227 JUMP JUMPDEST PUSH1 0x40 MLOAD PUSH2 0x3A8 SWAP3 SWAP2 SWAP1 PUSH2 0x18BF JUMP JUMPDEST PUSH1 0x40 MLOAD DUP1 SWAP2 SUB SWAP1 RETURN JUMPDEST CALLVALUE DUP1 ISZERO PUSH2 0x3BC JUMPI PUSH0 DUP1 REVERT JUMPDEST POP PUSH2 0x3D7 PUSH1 0x4 DUP1 CALLDATASIZE SUB DUP2 ADD SWAP1 PUSH2 0x3D2 SWAP2 SWAP1 PUSH2 0x1670 JUMP JUMPDEST PUSH2 0x1285 JUMP JUMPDEST STOP JUMPDEST CALLVALUE DUP1 ISZERO PUSH2 0x3E4 JUMPI PUSH0 DUP1 REVERT JUMPDEST POP PUSH2 0x3FF PUSH1 0x4 DUP1 CALLDATASIZE SUB DUP2 ADD SWAP1 PUSH2 0x3FA SWAP2 SWAP1 PUSH2 0x1670 JUMP JUMPDEST PUSH2 0x13FD JUMP JUMPDEST PUSH1 0x40 MLOAD PUSH2 0x412 SWAP8 SWAP7 SWAP6 SWAP5 SWAP4 SWAP3 SWAP2 SWAP1 PUSH2 0x1904 JUMP JUMPDEST PUSH1 0x40 MLOAD DUP1 SWAP2 SUB SWAP1 RETURN JUMPDEST PUSH1 0x60 PUSH1 0x1 PUSH0 DUP4 PUSH20 0xFFFFFFFFFFFFFFFFFFFFFFFFFFFFFFFFFFFFFFFF AND PUSH20 0xFFFFFFFFFFFFFFFFFFFFFFFFFFFFFFFFFFFFFFFF AND DUP2 MSTORE PUSH1 0x20 ADD SWAP1 DUP2 MSTORE PUSH1 0x20 ADD PUSH0 KECCAK256 DUP1 SLOAD DUP1 PUSH1 0x20 MUL PUSH1 0x20 ADD PUSH1 0x40 MLOAD SWAP1 DUP2 ADD PUSH1 0x40 MSTORE DUP1 SWAP3 SWAP2 SWAP1 DUP2 DUP2 MSTORE PUSH1 0x20 ADD DUP3 DUP1 SLOAD DUP1 ISZERO PUSH2 0x4A2 JUMPI PUSH1 0x20 MUL DUP3 ADD SWAP2 SWAP1 PUSH0 MSTORE PUSH1 0x20 PUSH0 KECCAK256 SWAP1 JUMPDEST DUP2 SLOAD DUP2 MSTORE PUSH1 0x20 ADD SWAP1 PUSH1 0x1 ADD SWAP1 DUP1 DUP4 GT PUSH2 0x48E JUMPI JUMPDEST POP POP POP POP POP SWAP1 POP SWAP2 SWAP1 POP JUMP JUMPDEST PUSH0 DUP1 PUSH2 0x4B9 DUP4 PUSH2 0xF96 JUMP JUMPDEST SWAP1 POP PUSH0 PUSH2 0x3E8 DUP3 PUSH1 0xA0 ADD MLOAD PUSH2 0x4CE SWAP2 SWAP1 PUSH2 0x199E JUMP JUMPDEST SWAP1 POP PUSH0 PUSH1 0x5 SLOAD PUSH2 0x3E8 PUSH1 0x64 DUP5 DUP7 PUSH1 0x60 ADD MLOAD PUSH2 0x4E9 SWAP2 SWAP1 PUSH2 0x199E JUMP JUMPDEST PUSH2 0x4F3 SWAP2 SWAP1 PUSH2 0x1A0C JUMP JUMPDEST PUSH2 0x4FD SWAP2 SWAP1 PUSH2 0x1A0C JUMP JUMPDEST PUSH2 0x507 SWAP2 SWAP1 PUSH2 0x1A0C JUMP JUMPDEST SWAP1 POP PUSH0 PUSH1 0x7 SLOAD PUSH1 0x2 PUSH0 DUP9 DUP2 MSTORE PUSH1 0x20 ADD SWAP1 DUP2 MSTORE PUSH1 0x20 ADD PUSH0 KECCAK256 SLOAD TIMESTAMP PUSH2 0x52A SWAP2 SWAP1 PUSH2 0x1A3C JUMP JUMPDEST PUSH2 0x534 SWAP2 SWAP1 PUSH2 0x1A0C JUMP JUMPDEST SWAP1 POP PUSH0 DUP2 DUP4 PUSH2 0x543 SWAP2 SWAP1 PUSH2 0x199E JUMP JUMPDEST SWAP1 POP PUSH0 DUP2 DUP7 PUSH1 0x60 ADD MLOAD PUSH2 0x556 SWAP2 SWAP1 PUSH2 0x1A6F JUMP JUMPDEST SWAP1 POP DUP1 SWAP7 POP POP POP POP POP POP POP SWAP2 SWAP1 POP JUMP JUMPDEST PUSH0 DUP3 PUSH20 0xFFFFFFFFFFFFFFFFFFFFFFFFFFFFFFFFFFFFFFFF AND PUSH4 0x6352211E DUP4 PUSH1 0x40 MLOAD DUP3 PUSH4 0xFFFFFFFF AND PUSH1 0xE0 SHL DUP2 MSTORE PUSH1 0x4 ADD PUSH2 0x5A0 SWAP2 SWAP1 PUSH2 0x16AA JUMP JUMPDEST PUSH1 0x20 PUSH1 0x40 MLOAD DUP1 DUP4 SUB DUP2 DUP7 GAS STATICCALL ISZERO DUP1 ISZERO PUSH2 0x5BB JUMPI RETURNDATASIZE PUSH0 DUP1 RETURNDATACOPY RETURNDATASIZE PUSH0 REVERT JUMPDEST POP POP POP POP PUSH1 0x40 MLOAD RETURNDATASIZE PUSH1 0x1F NOT PUSH1 0x1F DUP3 ADD AND DUP3 ADD DUP1 PUSH1 0x40 MSTORE POP DUP2 ADD SWAP1 PUSH2 0x5DF SWAP2 SWAP1 PUSH2 0x1AB6 JUMP JUMPDEST SWAP1 POP SWAP3 SWAP2 POP POP JUMP JUMPDEST PUSH0 DUP2 PUSH20 0xFFFFFFFFFFFFFFFFFFFFFFFFFFFFFFFFFFFFFFFF AND PUSH4 0xE985E9C5 CALLER ADDRESS PUSH1 0x40 MLOAD DUP4 PUSH4 0xFFFFFFFF AND PUSH1 0xE0 SHL DUP2 MSTORE PUSH1 0x4 ADD PUSH2 0x623 SWAP3 SWAP2 SWAP1 PUSH2 0x1AE1 JUMP JUMPDEST PUSH1 0x20 PUSH1 0x40 MLOAD DUP1 DUP4 SUB DUP2 DUP7 GAS STATICCALL ISZERO DUP1 ISZERO PUSH2 0x63E JUMPI RETURNDATASIZE PUSH0 DUP1 RETURNDATACOPY RETURNDATASIZE PUSH0 REVERT JUMPDEST POP POP POP POP PUSH1 0x40 MLOAD RETURNDATASIZE PUSH1 0x1F NOT PUSH1 0x1F DUP3 ADD AND DUP3 ADD DUP1 PUSH1 0x40 MSTORE POP DUP2 ADD SWAP1 PUSH2 0x662 SWAP2 SWAP1 PUSH2 0x1B32 JUMP JUMPDEST SWAP1 POP SWAP2 SWAP1 POP JUMP JUMPDEST TIMESTAMP PUSH1 0x2 PUSH0 DUP4 DUP2 MSTORE PUSH1 0x20 ADD SWAP1 DUP2 MSTORE PUSH1 0x20 ADD PUSH0 KECCAK256 DUP2 SWAP1 SSTORE POP POP JUMP JUMPDEST PUSH0 DUP4 GT DUP1 ISZERO PUSH2 0x690 JUMPI POP PUSH0 DUP3 GT JUMPDEST DUP1 ISZERO PUSH2 0x69B JUMPI POP PUSH0 DUP2 GT JUMPDEST PUSH2 0x6DA JUMPI PUSH1 0x40 MLOAD PUSH32 0x8C379A000000000000000000000000000000000000000000000000000000000 DUP2 MSTORE PUSH1 0x4 ADD PUSH2 0x6D1 SWAP1 PUSH2 0x1BB7 JUMP JUMPDEST PUSH1 0x40 MLOAD DUP1 SWAP2 SUB SWAP1 REVERT JUMPDEST CALLER PUSH20 0xFFFFFFFFFFFFFFFFFFFFFFFFFFFFFFFFFFFFFFFF AND DUP6 PUSH20 0xFFFFFFFFFFFFFFFFFFFFFFFFFFFFFFFFFFFFFFFF AND PUSH4 0x6352211E DUP7 PUSH1 0x40 MLOAD DUP3 PUSH4 0xFFFFFFFF AND PUSH1 0xE0 SHL DUP2 MSTORE PUSH1 0x4 ADD PUSH2 0x72A SWAP2 SWAP1 PUSH2 0x16AA JUMP JUMPDEST PUSH1 0x20 PUSH1 0x40 MLOAD DUP1 DUP4 SUB DUP2 DUP7 GAS STATICCALL ISZERO DUP1 ISZERO PUSH2 0x745 JUMPI RETURNDATASIZE PUSH0 DUP1 RETURNDATACOPY RETURNDATASIZE PUSH0 REVERT JUMPDEST POP POP POP POP PUSH1 0x40 MLOAD RETURNDATASIZE PUSH1 0x1F NOT PUSH1 0x1F DUP3 ADD AND DUP3 ADD DUP1 PUSH1 0x40 MSTORE POP DUP2 ADD SWAP1 PUSH2 0x769 SWAP2 SWAP1 PUSH2 0x1AB6 JUMP JUMPDEST PUSH20 0xFFFFFFFFFFFFFFFFFFFFFFFFFFFFFFFFFFFFFFFF AND EQ PUSH2 0x7BF JUMPI PUSH1 0x40 MLOAD PUSH32 0x8C379A000000000000000000000000000000000000000000000000000000000 DUP2 MSTORE PUSH1 0x4 ADD PUSH2 0x7B6 SWAP1 PUSH2 0x1C1F JUMP JUMPDEST PUSH1 0x40 MLOAD DUP1 SWAP2 SUB SWAP1 REVERT JUMPDEST PUSH0 PUSH1 0x40 MLOAD DUP1 PUSH1 0xE0 ADD PUSH1 0x40 MSTORE DUP1 CALLER PUSH20 0xFFFFFFFFFFFFFFFFFFFFFFFFFFFFFFFFFFFFFFFF AND DUP2 MSTORE PUSH1 0x20 ADD DUP8 PUSH20 0xFFFFFFFFFFFFFFFFFFFFFFFFFFFFFFFFFFFFFFFF AND DUP2 MSTORE PUSH1 0x20 ADD DUP7 DUP2 MSTORE PUSH1 0x20 ADD DUP6 DUP2 MSTORE PUSH1 0x20 ADD DUP5 DUP2 MSTORE PUSH1 0x20 ADD DUP4 DUP2 MSTORE PUSH1 0x20 ADD PUSH32 0x6F70656E00000000000000000000000000000000000000000000000000000000 DUP2 MSTORE POP SWAP1 POP DUP1 PUSH0 DUP1 PUSH1 0x4 SLOAD DUP2 MSTORE PUSH1 0x20 ADD SWAP1 DUP2 MSTORE PUSH1 0x20 ADD PUSH0 KECCAK256 PUSH0 DUP3 ADD MLOAD DUP2 PUSH0 ADD PUSH0 PUSH2 0x100 EXP DUP2 SLOAD DUP2 PUSH20 0xFFFFFFFFFFFFFFFFFFFFFFFFFFFFFFFFFFFFFFFF MUL NOT AND SWAP1 DUP4 PUSH20 0xFFFFFFFFFFFFFFFFFFFFFFFFFFFFFFFFFFFFFFFF AND MUL OR SWAP1 SSTORE POP PUSH1 0x20 DUP3 ADD MLOAD DUP2 PUSH1 0x1 ADD PUSH0 PUSH2 0x100 EXP DUP2 SLOAD DUP2 PUSH20 0xFFFFFFFFFFFFFFFFFFFFFFFFFFFFFFFFFFFFFFFF MUL NOT AND SWAP1 DUP4 PUSH20 0xFFFFFFFFFFFFFFFFFFFFFFFFFFFFFFFFFFFFFFFF AND MUL OR SWAP1 SSTORE POP PUSH1 0x40 DUP3 ADD MLOAD DUP2 PUSH1 0x2 ADD SSTORE PUSH1 0x60 DUP3 ADD MLOAD DUP2 PUSH1 0x3 ADD SSTORE PUSH1 0x80 DUP3 ADD MLOAD DUP2 PUSH1 0x4 ADD SSTORE PUSH1 0xA0 DUP3 ADD MLOAD DUP2 PUSH1 0x5 ADD SSTORE PUSH1 0xC0 DUP3 ADD MLOAD DUP2 PUSH1 0x6 ADD SSTORE SWAP1 POP POP PUSH1 0x1 PUSH0 CALLER PUSH20 0xFFFFFFFFFFFFFFFFFFFFFFFFFFFFFFFFFFFFFFFF AND PUSH20 0xFFFFFFFFFFFFFFFFFFFFFFFFFFFFFFFFFFFFFFFF AND DUP2 MSTORE PUSH1 0x20 ADD SWAP1 DUP2 MSTORE PUSH1 0x20 ADD PUSH0 KECCAK256 PUSH1 0x4 SLOAD SWAP1 DUP1 PUSH1 0x1 DUP2 SLOAD ADD DUP1 DUP3 SSTORE DUP1 SWAP2 POP POP PUSH1 0x1 SWAP1 SUB SWAP1 PUSH0 MSTORE PUSH1 0x20 PUSH0 KECCAK256 ADD PUSH0 SWAP1 SWAP2 SWAP1 SWAP2 SWAP1 SWAP2 POP SSTORE DUP6 PUSH20 0xFFFFFFFFFFFFFFFFFFFFFFFFFFFFFFFFFFFFFFFF AND PUSH4 0x23B872DD CALLER ADDRESS DUP9 PUSH1 0x40 MLOAD DUP5 PUSH4 0xFFFFFFFF AND PUSH1 0xE0 SHL DUP2 MSTORE PUSH1 0x4 ADD PUSH2 0x9B3 SWAP4 SWAP3 SWAP2 SWAP1 PUSH2 0x1C3D JUMP JUMPDEST PUSH0 PUSH1 0x40 MLOAD DUP1 DUP4 SUB DUP2 PUSH0 DUP8 DUP1 EXTCODESIZE ISZERO DUP1 ISZERO PUSH2 0x9CA JUMPI PUSH0 DUP1 REVERT JUMPDEST POP GAS CALL ISZERO DUP1 ISZERO PUSH2 0x9DC JUMPI RETURNDATASIZE PUSH0 DUP1 RETURNDATACOPY RETURNDATASIZE PUSH0 REVERT JUMPDEST POP POP POP POP PUSH2 0x9EB PUSH1 0x4 SLOAD PUSH2 0x669 JUMP JUMPDEST PUSH1 0x4 PUSH0 DUP2 SLOAD DUP1 SWAP3 SWAP2 SWAP1 PUSH2 0x9FD SWAP1 PUSH2 0x1C72 JUMP JUMPDEST SWAP2 SWAP1 POP SSTORE POP PUSH32 0xF767AD1AE2D5476327F80BEF89FBC70354C993E3059ED3D504D127921F60C40B CALLER DUP3 PUSH1 0x40 MLOAD PUSH2 0xA33 SWAP3 SWAP2 SWAP1 PUSH2 0x1CB9 JUMP JUMPDEST PUSH1 0x40 MLOAD DUP1 SWAP2 SUB SWAP1 LOG1 POP POP POP POP POP POP JUMP JUMPDEST PUSH0 PUSH1 0x4 SLOAD SWAP1 POP SWAP1 JUMP JUMPDEST PUSH0 PUSH1 0x3 PUSH0 DUP4 DUP2 MSTORE PUSH1 0x20 ADD SWAP1 DUP2 MSTORE PUSH1 0x20 ADD PUSH0 KECCAK256 PUSH0 SWAP1 SLOAD SWAP1 PUSH2 0x100 EXP SWAP1 DIV PUSH20 0xFFFFFFFFFFFFFFFFFFFFFFFFFFFFFFFFFFFFFFFF AND SWAP1 POP SWAP2 SWAP1 POP JUMP JUMPDEST PUSH0 DUP1 PUSH0 DUP4 DUP2 MSTORE PUSH1 0x20 ADD SWAP1 DUP2 MSTORE PUSH1 0x20 ADD PUSH0 KECCAK256 SWAP1 POP DUP1 PUSH0 ADD PUSH0 SWAP1 SLOAD SWAP1 PUSH2 0x100 EXP SWAP1 DIV PUSH20 0xFFFFFFFFFFFFFFFFFFFFFFFFFFFFFFFFFFFFFFFF AND PUSH20 0xFFFFFFFFFFFFFFFFFFFFFFFFFFFFFFFFFFFFFFFF AND CALLER PUSH20 0xFFFFFFFFFFFFFFFFFFFFFFFFFFFFFFFFFFFFFFFF AND SUB PUSH2 0xB28 JUMPI PUSH1 0x40 MLOAD PUSH32 0x8C379A000000000000000000000000000000000000000000000000000000000 DUP2 MSTORE PUSH1 0x4 ADD PUSH2 0xB1F SWAP1 PUSH2 0x1D2B JUMP JUMPDEST PUSH1 0x40 MLOAD DUP1 SWAP2 SUB SWAP1 REVERT JUMPDEST PUSH0 PUSH8 0xDE0B6B3A7640000 DUP3 PUSH1 0x3 ADD SLOAD PUSH2 0xB41 SWAP2 SWAP1 PUSH2 0x199E JUMP JUMPDEST SWAP1 POP DUP1 CALLER PUSH20 0xFFFFFFFFFFFFFFFFFFFFFFFFFFFFFFFFFFFFFFFF AND BALANCE LT ISZERO PUSH2 0xB9D JUMPI PUSH1 0x40 MLOAD PUSH32 0x8C379A000000000000000000000000000000000000000000000000000000000 DUP2 MSTORE PUSH1 0x4 ADD PUSH2 0xB94 SWAP1 PUSH2 0x1DB9 JUMP JUMPDEST PUSH1 0x40 MLOAD DUP1 SWAP2 SUB SWAP1 REVERT JUMPDEST PUSH32 0x657865637574696E670000000000000000000000000000000000000000000000 DUP3 PUSH1 0x6 ADD DUP2 SWAP1 SSTORE POP CALLER PUSH1 0x3 PUSH0 DUP6 DUP2 MSTORE PUSH1 0x20 ADD SWAP1 DUP2 MSTORE PUSH1 0x20 ADD PUSH0 KECCAK256 PUSH0 PUSH2 0x100 EXP DUP2 SLOAD DUP2 PUSH20 0xFFFFFFFFFFFFFFFFFFFFFFFFFFFFFFFFFFFFFFFF MUL NOT AND SWAP1 DUP4 PUSH20 0xFFFFFFFFFFFFFFFFFFFFFFFFFFFFFFFFFFFFFFFF AND MUL OR SWAP1 SSTORE POP PUSH2 0xC1E DUP4 PUSH2 0x669 JUMP JUMPDEST PUSH0 DUP3 PUSH0 ADD PUSH0 SWAP1 SLOAD SWAP1 PUSH2 0x100 EXP SWAP1 DIV PUSH20 0xFFFFFFFFFFFFFFFFFFFFFFFFFFFFFFFFFFFFFFFF AND PUSH20 0xFFFFFFFFFFFFFFFFFFFFFFFFFFFFFFFFFFFFFFFF AND PUSH2 0x8FC CALLVALUE SWAP1 DUP2 ISZERO MUL SWAP1 PUSH1 0x40 MLOAD PUSH0 PUSH1 0x40 MLOAD DUP1 DUP4 SUB DUP2 DUP6 DUP9 DUP9 CALL SWAP4 POP POP POP POP SWAP1 POP DUP1 PUSH2 0xCB7 JUMPI PUSH1 0x40 MLOAD PUSH32 0x8C379A000000000000000000000000000000000000000000000000000000000 DUP2 MSTORE PUSH1 0x4 ADD PUSH2 0xCAE SWAP1 PUSH2 0x1E21 JUMP JUMPDEST PUSH1 0x40 MLOAD DUP1 SWAP2 SUB SWAP1 REVERT JUMPDEST PUSH32 0xCBE547358B7D8CEB07AE8BAAE08D35680E6C6C69046525B09DC9BB8F53F708FD CALLER DUP5 PUSH1 0x40 MLOAD PUSH2 0xCE8 SWAP3 SWAP2 SWAP1 PUSH2 0x1FD9 JUMP JUMPDEST PUSH1 0x40 MLOAD DUP1 SWAP2 SUB SWAP1 LOG1 POP POP POP POP JUMP JUMPDEST PUSH0 DUP1 PUSH0 DUP4 DUP2 MSTORE PUSH1 0x20 ADD SWAP1 DUP2 MSTORE PUSH1 0x20 ADD PUSH0 KECCAK256 SWAP1 POP CALLER PUSH20 0xFFFFFFFFFFFFFFFFFFFFFFFFFFFFFFFFFFFFFFFF AND DUP2 PUSH0 ADD PUSH0 SWAP1 SLOAD SWAP1 PUSH2 0x100 EXP SWAP1 DIV PUSH20 0xFFFFFFFFFFFFFFFFFFFFFFFFFFFFFFFFFFFFFFFF AND PUSH20 0xFFFFFFFFFFFFFFFFFFFFFFFFFFFFFFFFFFFFFFFF AND EQ PUSH2 0xD99 JUMPI PUSH1 0x40 MLOAD PUSH32 0x8C379A000000000000000000000000000000000000000000000000000000000 DUP2 MSTORE PUSH1 0x4 ADD PUSH2 0xD90 SWAP1 PUSH2 0x204B JUMP JUMPDEST PUSH1 0x40 MLOAD DUP1 SWAP2 SUB SWAP1 REVERT JUMPDEST PUSH32 0x657865637574696E670000000000000000000000000000000000000000000000 DUP2 PUSH1 0x6 ADD SLOAD EQ PUSH2 0xDFF JUMPI PUSH1 0x40 MLOAD PUSH32 0x8C379A000000000000000000000000000000000000000000000000000000000 DUP2 MSTORE PUSH1 0x4 ADD PUSH2 0xDF6 SWAP1 PUSH2 0x20D9 JUMP JUMPDEST PUSH1 0x40 MLOAD DUP1 SWAP2 SUB SWAP1 REVERT JUMPDEST PUSH0 PUSH2 0xE09 DUP4 PUSH2 0x4AE JUMP JUMPDEST SWAP1 POP CALLER PUSH20 0xFFFFFFFFFFFFFFFFFFFFFFFFFFFFFFFFFFFFFFFF AND BALANCE DUP2 LT PUSH2 0xE64 JUMPI PUSH1 0x40 MLOAD PUSH32 0x8C379A000000000000000000000000000000000000000000000000000000000 DUP2 MSTORE PUSH1 0x4 ADD PUSH2 0xE5B SWAP1 PUSH2 0x2141 JUMP JUMPDEST PUSH1 0x40 MLOAD DUP1 SWAP2 SUB SWAP1 REVERT JUMPDEST PUSH0 PUSH1 0x3 PUSH0 DUP6 DUP2 MSTORE PUSH1 0x20 ADD SWAP1 DUP2 MSTORE PUSH1 0x20 ADD PUSH0 KECCAK256 PUSH0 SWAP1 SLOAD SWAP1 PUSH2 0x100 EXP SWAP1 DIV PUSH20 0xFFFFFFFFFFFFFFFFFFFFFFFFFFFFFFFFFFFFFFFF AND PUSH20 0xFFFFFFFFFFFFFFFFFFFFFFFFFFFFFFFFFFFFFFFF AND PUSH2 0x8FC CALLVALUE SWAP1 DUP2 ISZERO MUL SWAP1 PUSH1 0x40 MLOAD PUSH0 PUSH1 0x40 MLOAD DUP1 DUP4 SUB DUP2 DUP6 DUP9 DUP9 CALL SWAP4 POP POP POP POP SWAP1 POP DUP1 PUSH2 0xF0B JUMPI PUSH1 0x40 MLOAD PUSH32 0x8C379A000000000000000000000000000000000000000000000000000000000 DUP2 MSTORE PUSH1 0x4 ADD PUSH2 0xF02 SWAP1 PUSH2 0x1E21 JUMP JUMPDEST PUSH1 0x40 MLOAD DUP1 SWAP2 SUB SWAP1 REVERT JUMPDEST PUSH32 0x7265706179656400000000000000000000000000000000000000000000000000 DUP4 PUSH1 0x6 ADD DUP2 SWAP1 SSTORE POP PUSH2 0xF3D DUP5 PUSH2 0x109B JUMP JUMPDEST PUSH32 0x94E7116AA05F19F109F7FA598F65ADE35AB1DE8CD3D002B5B2205416E8943E65 CALLER DUP5 PUSH1 0x40 MLOAD PUSH2 0xF6E SWAP3 SWAP2 SWAP1 PUSH2 0x1FD9 JUMP JUMPDEST PUSH1 0x40 MLOAD DUP1 SWAP2 SUB SWAP1 LOG1 POP POP POP POP JUMP JUMPDEST PUSH0 PUSH1 0x2 PUSH0 DUP4 DUP2 MSTORE PUSH1 0x20 ADD SWAP1 DUP2 MSTORE PUSH1 0x20 ADD PUSH0 KECCAK256 SLOAD SWAP1 POP SWAP2 SWAP1 POP JUMP JUMPDEST PUSH2 0xF9E PUSH2 0x1478 JUMP JUMPDEST PUSH0 DUP1 DUP4 DUP2 MSTORE PUSH1 0x20 ADD SWAP1 DUP2 MSTORE PUSH1 0x20 ADD PUSH0 KECCAK256 PUSH1 0x40 MLOAD DUP1 PUSH1 0xE0 ADD PUSH1 0x40 MSTORE SWAP1 DUP2 PUSH0 DUP3 ADD PUSH0 SWAP1 SLOAD SWAP1 PUSH2 0x100 EXP SWAP1 DIV PUSH20 0xFFFFFFFFFFFFFFFFFFFFFFFFFFFFFFFFFFFFFFFF AND PUSH20 0xFFFFFFFFFFFFFFFFFFFFFFFFFFFFFFFFFFFFFFFF AND PUSH20 0xFFFFFFFFFFFFFFFFFFFFFFFFFFFFFFFFFFFFFFFF AND DUP2 MSTORE PUSH1 0x20 ADD PUSH1 0x1 DUP3 ADD PUSH0 SWAP1 SLOAD SWAP1 PUSH2 0x100 EXP SWAP1 DIV PUSH20 0xFFFFFFFFFFFFFFFFFFFFFFFFFFFFFFFFFFFFFFFF AND PUSH20 0xFFFFFFFFFFFFFFFFFFFFFFFFFFFFFFFFFFFFFFFF AND PUSH20 0xFFFFFFFFFFFFFFFFFFFFFFFFFFFFFFFFFFFFFFFF AND DUP2 MSTORE PUSH1 0x20 ADD PUSH1 0x2 DUP3 ADD SLOAD DUP2 MSTORE PUSH1 0x20 ADD PUSH1 0x3 DUP3 ADD SLOAD DUP2 MSTORE PUSH1 0x20 ADD PUSH1 0x4 DUP3 ADD SLOAD DUP2 MSTORE PUSH1 0x20 ADD PUSH1 0x5 DUP3 ADD SLOAD DUP2 MSTORE PUSH1 0x20 ADD PUSH1 0x6 DUP3 ADD SLOAD DUP2 MSTORE POP POP SWAP1 POP SWAP2 SWAP1 POP JUMP JUMPDEST PUSH0 PUSH2 0x10A5 DUP3 PUSH2 0xF96 JUMP JUMPDEST SWAP1 POP CALLER PUSH20 0xFFFFFFFFFFFFFFFFFFFFFFFFFFFFFFFFFFFFFFFF AND DUP2 PUSH0 ADD MLOAD PUSH20 0xFFFFFFFFFFFFFFFFFFFFFFFFFFFFFFFFFFFFFFFF AND EQ PUSH2 0x1118 JUMPI PUSH1 0x40 MLOAD PUSH32 0x8C379A000000000000000000000000000000000000000000000000000000000 DUP2 MSTORE PUSH1 0x4 ADD PUSH2 0x110F SWAP1 PUSH2 0x204B JUMP JUMPDEST PUSH1 0x40 MLOAD DUP1 SWAP2 SUB SWAP1 REVERT JUMPDEST PUSH32 0x7265706179656400000000000000000000000000000000000000000000000000 DUP2 PUSH1 0xC0 ADD MLOAD EQ PUSH2 0x117E JUMPI PUSH1 0x40 MLOAD PUSH32 0x8C379A000000000000000000000000000000000000000000000000000000000 DUP2 MSTORE PUSH1 0x4 ADD PUSH2 0x1175 SWAP1 PUSH2 0x21A9 JUMP JUMPDEST PUSH1 0x40 MLOAD DUP1 SWAP2 SUB SWAP1 REVERT JUMPDEST DUP1 PUSH1 0x20 ADD MLOAD PUSH20 0xFFFFFFFFFFFFFFFFFFFFFFFFFFFFFFFFFFFFFFFF AND PUSH4 0x23B872DD ADDRESS CALLER DUP5 PUSH1 0x40 ADD MLOAD PUSH1 0x40 MLOAD DUP5 PUSH4 0xFFFFFFFF AND PUSH1 0xE0 SHL DUP2 MSTORE PUSH1 0x4 ADD PUSH2 0x11C3 SWAP4 SWAP3 SWAP2 SWAP1 PUSH2 0x1C3D JUMP JUMPDEST PUSH0 PUSH1 0x40 MLOAD DUP1 DUP4 SUB DUP2 PUSH0 DUP8 DUP1 EXTCODESIZE ISZERO DUP1 ISZERO PUSH2 0x11DA JUMPI PUSH0 DUP1 REVERT JUMPDEST POP GAS CALL ISZERO DUP1 ISZERO PUSH2 0x11EC JUMPI RETURNDATASIZE PUSH0 DUP1 RETURNDATACOPY RETURNDATASIZE PUSH0 REVERT JUMPDEST POP POP POP POP PUSH32 0x636C6F7365640000000000000000000000000000000000000000000000000000 DUP2 PUSH1 0xC0 ADD DUP2 DUP2 MSTORE POP POP PUSH2 0x1223 DUP3 PUSH2 0x669 JUMP JUMPDEST POP POP JUMP JUMPDEST PUSH0 DUP1 PUSH0 PUSH2 0x1233 DUP5 PUSH2 0xF96 JUMP JUMPDEST SWAP1 POP PUSH0 PUSH1 0x8 SLOAD DUP3 PUSH1 0x80 ADD MLOAD PUSH2 0x1248 SWAP2 SWAP1 PUSH2 0x199E JUMP JUMPDEST PUSH1 0x2 PUSH0 DUP8 DUP2 MSTORE PUSH1 0x20 ADD SWAP1 DUP2 MSTORE PUSH1 0x20 ADD PUSH0 KECCAK256 SLOAD PUSH2 0x1264 SWAP2 SWAP1 PUSH2 0x1A6F JUMP JUMPDEST SWAP1 POP PUSH0 TIMESTAMP DUP3 PUSH2 0x1273 SWAP2 SWAP1 PUSH2 0x1A3C JUMP JUMPDEST SWAP1 POP DUP1 PUSH0 DUP3 LT SWAP5 POP SWAP5 POP POP POP POP SWAP2 POP SWAP2 JUMP JUMPDEST PUSH0 DUP1 PUSH0 DUP4 DUP2 MSTORE PUSH1 0x20 ADD SWAP1 DUP2 MSTORE PUSH1 0x20 ADD PUSH0 KECCAK256 SWAP1 POP CALLER PUSH20 0xFFFFFFFFFFFFFFFFFFFFFFFFFFFFFFFFFFFFFFFF AND DUP2 PUSH0 ADD PUSH0 SWAP1 SLOAD SWAP1 PUSH2 0x100 EXP SWAP1 DIV PUSH20 0xFFFFFFFFFFFFFFFFFFFFFFFFFFFFFFFFFFFFFFFF AND PUSH20 0xFFFFFFFFFFFFFFFFFFFFFFFFFFFFFFFFFFFFFFFF AND EQ PUSH2 0x1328 JUMPI PUSH1 0x40 MLOAD PUSH32 0x8C379A000000000000000000000000000000000000000000000000000000000 DUP2 MSTORE PUSH1 0x4 ADD PUSH2 0x131F SWAP1 PUSH2 0x2211 JUMP JUMPDEST PUSH1 0x40 MLOAD DUP1 SWAP2 SUB SWAP1 REVERT JUMPDEST PUSH32 0x6F70656E00000000000000000000000000000000000000000000000000000000 DUP2 PUSH1 0x6 ADD SLOAD EQ PUSH2 0x138E JUMPI PUSH1 0x40 MLOAD PUSH32 0x8C379A000000000000000000000000000000000000000000000000000000000 DUP2 MSTORE PUSH1 0x4 ADD PUSH2 0x1385 SWAP1 PUSH2 0x2279 JUMP JUMPDEST PUSH1 0x40 MLOAD DUP1 SWAP2 SUB SWAP1 REVERT JUMPDEST PUSH32 0x63616E63656C0000000000000000000000000000000000000000000000000000 DUP2 PUSH1 0x6 ADD DUP2 SWAP1 SSTORE POP PUSH2 0x13C0 DUP3 PUSH2 0x669 JUMP JUMPDEST PUSH32 0x7E885013CA94016B1452B4678F1C43C33CD914617B389322AF7F7D97A2C4F585 CALLER DUP3 PUSH1 0x40 MLOAD PUSH2 0x13F1 SWAP3 SWAP2 SWAP1 PUSH2 0x1FD9 JUMP JUMPDEST PUSH1 0x40 MLOAD DUP1 SWAP2 SUB SWAP1 LOG1 POP POP JUMP JUMPDEST PUSH0 PUSH1 0x20 MSTORE DUP1 PUSH0 MSTORE PUSH1 0x40 PUSH0 KECCAK256 PUSH0 SWAP2 POP SWAP1 POP DUP1 PUSH0 ADD PUSH0 SWAP1 SLOAD SWAP1 PUSH2 0x100 EXP SWAP1 DIV PUSH20 0xFFFFFFFFFFFFFFFFFFFFFFFFFFFFFFFFFFFFFFFF AND SWAP1 DUP1 PUSH1 0x1 ADD PUSH0 SWAP1 SLOAD SWAP1 PUSH2 0x100 EXP SWAP1 DIV PUSH20 0xFFFFFFFFFFFFFFFFFFFFFFFFFFFFFFFFFFFFFFFF AND SWAP1 DUP1 PUSH1 0x2 ADD SLOAD SWAP1 DUP1 PUSH1 0x3 ADD SLOAD SWAP1 DUP1 PUSH1 0x4 ADD SLOAD SWAP1 DUP1 PUSH1 0x5 ADD SLOAD SWAP1 DUP1 PUSH1 0x6 ADD SLOAD SWAP1 POP DUP8 JUMP JUMPDEST PUSH1 0x40 MLOAD DUP1 PUSH1 0xE0 ADD PUSH1 0x40 MSTORE DUP1 PUSH0 PUSH20 0xFFFFFFFFFFFFFFFFFFFFFFFFFFFFFFFFFFFFFFFF AND DUP2 MSTORE PUSH1 0x20 ADD PUSH0 PUSH20 0xFFFFFFFFFFFFFFFFFFFFFFFFFFFFFFFFFFFFFFFF AND DUP2 MSTORE PUSH1 0x20 ADD PUSH0 DUP2 MSTORE PUSH1 0x20 ADD PUSH0 DUP2 MSTORE PUSH1 0x20 ADD PUSH0 DUP2 MSTORE PUSH1 0x20 ADD PUSH0 DUP2 MSTORE PUSH1 0x20 ADD PUSH0 DUP1 NOT AND DUP2 MSTORE POP SWAP1 JUMP JUMPDEST PUSH0 DUP1 REVERT JUMPDEST PUSH0 PUSH20 0xFFFFFFFFFFFFFFFFFFFFFFFFFFFFFFFFFFFFFFFF DUP3 AND SWAP1 POP SWAP2 SWAP1 POP JUMP JUMPDEST PUSH0 PUSH2 0x150A DUP3 PUSH2 0x14E1 JUMP JUMPDEST SWAP1 POP SWAP2 SWAP1 POP JUMP JUMPDEST PUSH2 0x151A DUP2 PUSH2 0x1500 JUMP JUMPDEST DUP2 EQ PUSH2 0x1524 JUMPI PUSH0 DUP1 REVERT JUMPDEST POP JUMP JUMPDEST PUSH0 DUP2 CALLDATALOAD SWAP1 POP PUSH2 0x1535 DUP2 PUSH2 0x1511 JUMP JUMPDEST SWAP3 SWAP2 POP POP JUMP JUMPDEST PUSH0 PUSH1 0x20 DUP3 DUP5 SUB SLT ISZERO PUSH2 0x1550 JUMPI PUSH2 0x154F PUSH2 0x14DD JUMP JUMPDEST JUMPDEST PUSH0 PUSH2 0x155D DUP5 DUP3 DUP6 ADD PUSH2 0x1527 JUMP JUMPDEST SWAP2 POP POP SWAP3 SWAP2 POP POP JUMP JUMPDEST PUSH0 DUP2 MLOAD SWAP1 POP SWAP2 SWAP1 POP JUMP JUMPDEST PUSH0 DUP3 DUP3 MSTORE PUSH1 0x20 DUP3 ADD SWAP1 POP SWAP3 SWAP2 POP POP JUMP JUMPDEST PUSH0 DUP2 SWAP1 POP PUSH1 0x20 DUP3 ADD SWAP1 POP SWAP2 SWAP1 POP JUMP JUMPDEST PUSH0 DUP2 SWAP1 POP SWAP2 SWAP1 POP JUMP JUMPDEST PUSH2 0x15A1 DUP2 PUSH2 0x158F JUMP JUMPDEST DUP3 MSTORE POP POP JUMP JUMPDEST PUSH0 PUSH2 0x15B2 DUP4 DUP4 PUSH2 0x1598 JUMP JUMPDEST PUSH1 0x20 DUP4 ADD SWAP1 POP SWAP3 SWAP2 POP POP JUMP JUMPDEST PUSH0 PUSH1 0x20 DUP3 ADD SWAP1 POP SWAP2 SWAP1 POP JUMP JUMPDEST PUSH0 PUSH2 0x15D4 DUP3 PUSH2 0x1566 JUMP JUMPDEST PUSH2 0x15DE DUP2 DUP6 PUSH2 0x1570 JUMP JUMPDEST SWAP4 POP PUSH2 0x15E9 DUP4 PUSH2 0x1580 JUMP JUMPDEST DUP1 PUSH0 JUMPDEST DUP4 DUP2 LT ISZERO PUSH2 0x1619 JUMPI DUP2 MLOAD PUSH2 0x1600 DUP9 DUP3 PUSH2 0x15A7 JUMP JUMPDEST SWAP8 POP PUSH2 0x160B DUP4 PUSH2 0x15BE JUMP JUMPDEST SWAP3 POP POP PUSH1 0x1 DUP2 ADD SWAP1 POP PUSH2 0x15EC JUMP JUMPDEST POP DUP6 SWAP4 POP POP POP POP SWAP3 SWAP2 POP POP JUMP JUMPDEST PUSH0 PUSH1 0x20 DUP3 ADD SWAP1 POP DUP2 DUP2 SUB PUSH0 DUP4 ADD MSTORE PUSH2 0x163E DUP2 DUP5 PUSH2 0x15CA JUMP JUMPDEST SWAP1 POP SWAP3 SWAP2 POP POP JUMP JUMPDEST PUSH2 0x164F DUP2 PUSH2 0x158F JUMP JUMPDEST DUP2 EQ PUSH2 0x1659 JUMPI PUSH0 DUP1 REVERT JUMPDEST POP JUMP JUMPDEST PUSH0 DUP2 CALLDATALOAD SWAP1 POP PUSH2 0x166A DUP2 PUSH2 0x1646 JUMP JUMPDEST SWAP3 SWAP2 POP POP JUMP JUMPDEST PUSH0 PUSH1 0x20 DUP3 DUP5 SUB SLT ISZERO PUSH2 0x1685 JUMPI PUSH2 0x1684 PUSH2 0x14DD JUMP JUMPDEST JUMPDEST PUSH0 PUSH2 0x1692 DUP5 DUP3 DUP6 ADD PUSH2 0x165C JUMP JUMPDEST SWAP2 POP POP SWAP3 SWAP2 POP POP JUMP JUMPDEST PUSH2 0x16A4 DUP2 PUSH2 0x158F JUMP JUMPDEST DUP3 MSTORE POP POP JUMP JUMPDEST PUSH0 PUSH1 0x20 DUP3 ADD SWAP1 POP PUSH2 0x16BD PUSH0 DUP4 ADD DUP5 PUSH2 0x169B JUMP JUMPDEST SWAP3 SWAP2 POP POP JUMP JUMPDEST PUSH0 DUP1 PUSH1 0x40 DUP4 DUP6 SUB SLT ISZERO PUSH2 0x16D9 JUMPI PUSH2 0x16D8 PUSH2 0x14DD JUMP JUMPDEST JUMPDEST PUSH0 PUSH2 0x16E6 DUP6 DUP3 DUP7 ADD PUSH2 0x1527 JUMP JUMPDEST SWAP3 POP POP PUSH1 0x20 PUSH2 0x16F7 DUP6 DUP3 DUP7 ADD PUSH2 0x165C JUMP JUMPDEST SWAP2 POP POP SWAP3 POP SWAP3 SWAP1 POP JUMP JUMPDEST PUSH2 0x170A DUP2 PUSH2 0x1500 JUMP JUMPDEST DUP3 MSTORE POP POP JUMP JUMPDEST PUSH0 PUSH1 0x20 DUP3 ADD SWAP1 POP PUSH2 0x1723 PUSH0 DUP4 ADD DUP5 PUSH2 0x1701 JUMP JUMPDEST SWAP3 SWAP2 POP POP JUMP JUMPDEST PUSH0 DUP2 ISZERO ISZERO SWAP1 POP SWAP2 SWAP1 POP JUMP JUMPDEST PUSH2 0x173D DUP2 PUSH2 0x1729 JUMP JUMPDEST DUP3 MSTORE POP POP JUMP JUMPDEST PUSH0 PUSH1 0x20 DUP3 ADD SWAP1 POP PUSH2 0x1756 PUSH0 DUP4 ADD DUP5 PUSH2 0x1734 JUMP JUMPDEST SWAP3 SWAP2 POP POP JUMP JUMPDEST PUSH0 DUP1 PUSH0 DUP1 PUSH0 PUSH1 0xA0 DUP7 DUP9 SUB SLT ISZERO PUSH2 0x1775 JUMPI PUSH2 0x1774 PUSH2 0x14DD JUMP JUMPDEST JUMPDEST PUSH0 PUSH2 0x1782 DUP9 DUP3 DUP10 ADD PUSH2 0x1527 JUMP JUMPDEST SWAP6 POP POP PUSH1 0x20 PUSH2 0x1793 DUP9 DUP3 DUP10 ADD PUSH2 0x165C JUMP JUMPDEST SWAP5 POP POP PUSH1 0x40 PUSH2 0x17A4 DUP9 DUP3 DUP10 ADD PUSH2 0x165C JUMP JUMPDEST SWAP4 POP POP PUSH1 0x60 PUSH2 0x17B5 DUP9 DUP3 DUP10 ADD PUSH2 0x165C JUMP JUMPDEST SWAP3 POP POP PUSH1 0x80 PUSH2 0x17C6 DUP9 DUP3 DUP10 ADD PUSH2 0x165C JUMP JUMPDEST SWAP2 POP POP SWAP3 SWAP6 POP SWAP3 SWAP6 SWAP1 SWAP4 POP JUMP JUMPDEST PUSH0 PUSH2 0x17DD DUP3 PUSH2 0x14E1 JUMP JUMPDEST SWAP1 POP SWAP2 SWAP1 POP JUMP JUMPDEST PUSH2 0x17ED DUP2 PUSH2 0x17D3 JUMP JUMPDEST DUP3 MSTORE POP POP JUMP JUMPDEST PUSH2 0x17FC DUP2 PUSH2 0x1500 JUMP JUMPDEST DUP3 MSTORE POP POP JUMP JUMPDEST PUSH0 DUP2 SWAP1 POP SWAP2 SWAP1 POP JUMP JUMPDEST PUSH2 0x1814 DUP2 PUSH2 0x1802 JUMP JUMPDEST DUP3 MSTORE POP POP JUMP JUMPDEST PUSH1 0xE0 DUP3 ADD PUSH0 DUP3 ADD MLOAD PUSH2 0x182E PUSH0 DUP6 ADD DUP3 PUSH2 0x17E4 JUMP JUMPDEST POP PUSH1 0x20 DUP3 ADD MLOAD PUSH2 0x1841 PUSH1 0x20 DUP6 ADD DUP3 PUSH2 0x17F3 JUMP JUMPDEST POP PUSH1 0x40 DUP3 ADD MLOAD PUSH2 0x1854 PUSH1 0x40 DUP6 ADD DUP3 PUSH2 0x1598 JUMP JUMPDEST POP PUSH1 0x60 DUP3 ADD MLOAD PUSH2 0x1867 PUSH1 0x60 DUP6 ADD DUP3 PUSH2 0x1598 JUMP JUMPDEST POP PUSH1 0x80 DUP3 ADD MLOAD PUSH2 0x187A PUSH1 0x80 DUP6 ADD DUP3 PUSH2 0x1598 JUMP JUMPDEST POP PUSH1 0xA0 DUP3 ADD MLOAD PUSH2 0x188D PUSH1 0xA0 DUP6 ADD DUP3 PUSH2 0x1598 JUMP JUMPDEST POP PUSH1 0xC0 DUP3 ADD MLOAD PUSH2 0x18A0 PUSH1 0xC0 DUP6 ADD DUP3 PUSH2 0x180B JUMP JUMPDEST POP POP POP POP JUMP JUMPDEST PUSH0 PUSH1 0xE0 DUP3 ADD SWAP1 POP PUSH2 0x18B9 PUSH0 DUP4 ADD DUP5 PUSH2 0x181A JUMP JUMPDEST SWAP3 SWAP2 POP POP JUMP JUMPDEST PUSH0 PUSH1 0x40 DUP3 ADD SWAP1 POP PUSH2 0x18D2 PUSH0 DUP4 ADD DUP6 PUSH2 0x169B JUMP JUMPDEST PUSH2 0x18DF PUSH1 0x20 DUP4 ADD DUP5 PUSH2 0x1734 JUMP JUMPDEST SWAP4 SWAP3 POP POP POP JUMP JUMPDEST PUSH2 0x18EF DUP2 PUSH2 0x17D3 JUMP JUMPDEST DUP3 MSTORE POP POP JUMP JUMPDEST PUSH2 0x18FE DUP2 PUSH2 0x1802 JUMP JUMPDEST DUP3 MSTORE POP POP JUMP JUMPDEST PUSH0 PUSH1 0xE0 DUP3 ADD SWAP1 POP PUSH2 0x1917 PUSH0 DUP4 ADD DUP11 PUSH2 0x18E6 JUMP JUMPDEST PUSH2 0x1924 PUSH1 0x20 DUP4 ADD DUP10 PUSH2 0x1701 JUMP JUMPDEST PUSH2 0x1931 PUSH1 0x40 DUP4 ADD DUP9 PUSH2 0x169B JUMP JUMPDEST PUSH2 0x193E PUSH1 0x60 DUP4 ADD DUP8 PUSH2 0x169B JUMP JUMPDEST PUSH2 0x194B PUSH1 0x80 DUP4 ADD DUP7 PUSH2 0x169B JUMP JUMPDEST PUSH2 0x1958 PUSH1 0xA0 DUP4 ADD DUP6 PUSH2 0x169B JUMP JUMPDEST PUSH2 0x1965 PUSH1 0xC0 DUP4 ADD DUP5 PUSH2 0x18F5 JUMP JUMPDEST SWAP9 SWAP8 POP POP POP POP POP POP POP POP JUMP JUMPDEST PUSH32 0x4E487B7100000000000000000000000000000000000000000000000000000000 PUSH0 MSTORE PUSH1 0x11 PUSH1 0x4 MSTORE PUSH1 0x24 PUSH0 REVERT JUMPDEST PUSH0 PUSH2 0x19A8 DUP3 PUSH2 0x158F JUMP JUMPDEST SWAP2 POP PUSH2 0x19B3 DUP4 PUSH2 0x158F JUMP JUMPDEST SWAP3 POP DUP3 DUP3 MUL PUSH2 0x19C1 DUP2 PUSH2 0x158F JUMP JUMPDEST SWAP2 POP DUP3 DUP3 DIV DUP5 EQ DUP4 ISZERO OR PUSH2 0x19D8 JUMPI PUSH2 0x19D7 PUSH2 0x1971 JUMP JUMPDEST JUMPDEST POP SWAP3 SWAP2 POP POP JUMP JUMPDEST PUSH32 0x4E487B7100000000000000000000000000000000000000000000000000000000 PUSH0 MSTORE PUSH1 0x12 PUSH1 0x4 MSTORE PUSH1 0x24 PUSH0 REVERT JUMPDEST PUSH0 PUSH2 0x1A16 DUP3 PUSH2 0x158F JUMP JUMPDEST SWAP2 POP PUSH2 0x1A21 DUP4 PUSH2 0x158F JUMP JUMPDEST SWAP3 POP DUP3 PUSH2 0x1A31 JUMPI PUSH2 0x1A30 PUSH2 0x19DF JUMP JUMPDEST JUMPDEST DUP3 DUP3 DIV SWAP1 POP SWAP3 SWAP2 POP POP JUMP JUMPDEST PUSH0 PUSH2 0x1A46 DUP3 PUSH2 0x158F JUMP JUMPDEST SWAP2 POP PUSH2 0x1A51 DUP4 PUSH2 0x158F JUMP JUMPDEST SWAP3 POP DUP3 DUP3 SUB SWAP1 POP DUP2 DUP2 GT ISZERO PUSH2 0x1A69 JUMPI PUSH2 0x1A68 PUSH2 0x1971 JUMP JUMPDEST JUMPDEST SWAP3 SWAP2 POP POP JUMP JUMPDEST PUSH0 PUSH2 0x1A79 DUP3 PUSH2 0x158F JUMP JUMPDEST SWAP2 POP PUSH2 0x1A84 DUP4 PUSH2 0x158F JUMP JUMPDEST SWAP3 POP DUP3 DUP3 ADD SWAP1 POP DUP1 DUP3 GT ISZERO PUSH2 0x1A9C JUMPI PUSH2 0x1A9B PUSH2 0x1971 JUMP JUMPDEST JUMPDEST SWAP3 SWAP2 POP POP JUMP JUMPDEST PUSH0 DUP2 MLOAD SWAP1 POP PUSH2 0x1AB0 DUP2 PUSH2 0x1511 JUMP JUMPDEST SWAP3 SWAP2 POP POP JUMP JUMPDEST PUSH0 PUSH1 0x20 DUP3 DUP5 SUB SLT ISZERO PUSH2 0x1ACB JUMPI PUSH2 0x1ACA PUSH2 0x14DD JUMP JUMPDEST JUMPDEST PUSH0 PUSH2 0x1AD8 DUP5 DUP3 DUP6 ADD PUSH2 0x1AA2 JUMP JUMPDEST SWAP2 POP POP SWAP3 SWAP2 POP POP JUMP JUMPDEST PUSH0 PUSH1 0x40 DUP3 ADD SWAP1 POP PUSH2 0x1AF4 PUSH0 DUP4 ADD DUP6 PUSH2 0x1701 JUMP JUMPDEST PUSH2 0x1B01 PUSH1 0x20 DUP4 ADD DUP5 PUSH2 0x1701 JUMP JUMPDEST SWAP4 SWAP3 POP POP POP JUMP JUMPDEST PUSH2 0x1B11 DUP2 PUSH2 0x1729 JUMP JUMPDEST DUP2 EQ PUSH2 0x1B1B JUMPI PUSH0 DUP1 REVERT JUMPDEST POP JUMP JUMPDEST PUSH0 DUP2 MLOAD SWAP1 POP PUSH2 0x1B2C DUP2 PUSH2 0x1B08 JUMP JUMPDEST SWAP3 SWAP2 POP POP JUMP JUMPDEST PUSH0 PUSH1 0x20 DUP3 DUP5 SUB SLT ISZERO PUSH2 0x1B47 JUMPI PUSH2 0x1B46 PUSH2 0x14DD JUMP JUMPDEST JUMPDEST PUSH0 PUSH2 0x1B54 DUP5 DUP3 DUP6 ADD PUSH2 0x1B1E JUMP JUMPDEST SWAP2 POP POP SWAP3 SWAP2 POP POP JUMP JUMPDEST PUSH0 DUP3 DUP3 MSTORE PUSH1 0x20 DUP3 ADD SWAP1 POP SWAP3 SWAP2 POP POP JUMP JUMPDEST PUSH32 0x56616C756573206D7573742062652067726561746572207468616E207A65726F PUSH0 DUP3 ADD MSTORE POP JUMP JUMPDEST PUSH0 PUSH2 0x1BA1 PUSH1 0x20 DUP4 PUSH2 0x1B5D JUMP JUMPDEST SWAP2 POP PUSH2 0x1BAC DUP3 PUSH2 0x1B6D JUMP JUMPDEST PUSH1 0x20 DUP3 ADD SWAP1 POP SWAP2 SWAP1 POP JUMP JUMPDEST PUSH0 PUSH1 0x20 DUP3 ADD SWAP1 POP DUP2 DUP2 SUB PUSH0 DUP4 ADD MSTORE PUSH2 0x1BCE DUP2 PUSH2 0x1B95 JUMP JUMPDEST SWAP1 POP SWAP2 SWAP1 POP JUMP JUMPDEST PUSH32 0x596F7520617265206E6F7420686F6C646572206F66207468697320746F6B656E PUSH0 DUP3 ADD MSTORE POP JUMP JUMPDEST PUSH0 PUSH2 0x1C09 PUSH1 0x20 DUP4 PUSH2 0x1B5D JUMP JUMPDEST SWAP2 POP PUSH2 0x1C14 DUP3 PUSH2 0x1BD5 JUMP JUMPDEST PUSH1 0x20 DUP3 ADD SWAP1 POP SWAP2 SWAP1 POP JUMP JUMPDEST PUSH0 PUSH1 0x20 DUP3 ADD SWAP1 POP DUP2 DUP2 SUB PUSH0 DUP4 ADD MSTORE PUSH2 0x1C36 DUP2 PUSH2 0x1BFD JUMP JUMPDEST SWAP1 POP SWAP2 SWAP1 POP JUMP JUMPDEST PUSH0 PUSH1 0x60 DUP3 ADD SWAP1 POP PUSH2 0x1C50 PUSH0 DUP4 ADD DUP7 PUSH2 0x1701 JUMP JUMPDEST PUSH2 0x1C5D PUSH1 0x20 DUP4 ADD DUP6 PUSH2 0x1701 JUMP JUMPDEST PUSH2 0x1C6A PUSH1 0x40 DUP4 ADD DUP5 PUSH2 0x169B JUMP JUMPDEST SWAP5 SWAP4 POP POP POP POP JUMP JUMPDEST PUSH0 PUSH2 0x1C7C DUP3 PUSH2 0x158F JUMP JUMPDEST SWAP2 POP PUSH32 0xFFFFFFFFFFFFFFFFFFFFFFFFFFFFFFFFFFFFFFFFFFFFFFFFFFFFFFFFFFFFFFFF DUP3 SUB PUSH2 0x1CAE JUMPI PUSH2 0x1CAD PUSH2 0x1971 JUMP JUMPDEST JUMPDEST PUSH1 0x1 DUP3 ADD SWAP1 POP SWAP2 SWAP1 POP JUMP JUMPDEST PUSH0 PUSH2 0x100 DUP3 ADD SWAP1 POP PUSH2 0x1CCD PUSH0 DUP4 ADD DUP6 PUSH2 0x1701 JUMP JUMPDEST PUSH2 0x1CDA PUSH1 0x20 DUP4 ADD DUP5 PUSH2 0x181A JUMP JUMPDEST SWAP4 SWAP3 POP POP POP JUMP JUMPDEST PUSH32 0x4974277320796F7572206F776E206C6F616E206170706C69636174696F6E2E00 PUSH0 DUP3 ADD MSTORE POP JUMP JUMPDEST PUSH0 PUSH2 0x1D15 PUSH1 0x1F DUP4 PUSH2 0x1B5D JUMP JUMPDEST SWAP2 POP PUSH2 0x1D20 DUP3 PUSH2 0x1CE1 JUMP JUMPDEST PUSH1 0x20 DUP3 ADD SWAP1 POP SWAP2 SWAP1 POP JUMP JUMPDEST PUSH0 PUSH1 0x20 DUP3 ADD SWAP1 POP DUP2 DUP2 SUB PUSH0 DUP4 ADD MSTORE PUSH2 0x1D42 DUP2 PUSH2 0x1D09 JUMP JUMPDEST SWAP1 POP SWAP2 SWAP1 POP JUMP JUMPDEST PUSH32 0x596F7520686176656E277420656E6F7567682062616C616E636520666F72206C PUSH0 DUP3 ADD MSTORE PUSH32 0x656E64696E670000000000000000000000000000000000000000000000000000 PUSH1 0x20 DUP3 ADD MSTORE POP JUMP JUMPDEST PUSH0 PUSH2 0x1DA3 PUSH1 0x26 DUP4 PUSH2 0x1B5D JUMP JUMPDEST SWAP2 POP PUSH2 0x1DAE DUP3 PUSH2 0x1D49 JUMP JUMPDEST PUSH1 0x40 DUP3 ADD SWAP1 POP SWAP2 SWAP1 POP JUMP JUMPDEST PUSH0 PUSH1 0x20 DUP3 ADD SWAP1 POP DUP2 DUP2 SUB PUSH0 DUP4 ADD MSTORE PUSH2 0x1DD0 DUP2 PUSH2 0x1D97 JUMP JUMPDEST SWAP1 POP SWAP2 SWAP1 POP JUMP JUMPDEST PUSH32 0x4661696C656420746F2073656E64204574686572000000000000000000000000 PUSH0 DUP3 ADD MSTORE POP JUMP JUMPDEST PUSH0 PUSH2 0x1E0B PUSH1 0x14 DUP4 PUSH2 0x1B5D JUMP JUMPDEST SWAP2 POP PUSH2 0x1E16 DUP3 PUSH2 0x1DD7 JUMP JUMPDEST PUSH1 0x20 DUP3 ADD SWAP1 POP SWAP2 SWAP1 POP JUMP JUMPDEST PUSH0 PUSH1 0x20 DUP3 ADD SWAP1 POP DUP2 DUP2 SUB PUSH0 DUP4 ADD MSTORE PUSH2 0x1E38 DUP2 PUSH2 0x1DFF JUMP JUMPDEST SWAP1 POP SWAP2 SWAP1 POP JUMP JUMPDEST PUSH0 DUP2 PUSH0 SHR SWAP1 POP SWAP2 SWAP1 POP JUMP JUMPDEST PUSH0 PUSH20 0xFFFFFFFFFFFFFFFFFFFFFFFFFFFFFFFFFFFFFFFF DUP3 AND SWAP1 POP SWAP2 SWAP1 POP JUMP JUMPDEST PUSH0 PUSH2 0x1E7B PUSH2 0x1E76 DUP4 PUSH2 0x1E3F JUMP JUMPDEST PUSH2 0x1E4A JUMP JUMPDEST SWAP1 POP SWAP2 SWAP1 POP JUMP JUMPDEST PUSH0 PUSH20 0xFFFFFFFFFFFFFFFFFFFFFFFFFFFFFFFFFFFFFFFF DUP3 AND SWAP1 POP SWAP2 SWAP1 POP JUMP JUMPDEST PUSH0 PUSH2 0x1EB3 PUSH2 0x1EAE DUP4 PUSH2 0x1E3F JUMP JUMPDEST PUSH2 0x1E82 JUMP JUMPDEST SWAP1 POP SWAP2 SWAP1 POP JUMP JUMPDEST PUSH0 DUP2 SWAP1 POP SWAP2 SWAP1 POP JUMP JUMPDEST PUSH0 PUSH2 0x1ED5 PUSH2 0x1ED0 DUP4 PUSH2 0x1E3F JUMP JUMPDEST PUSH2 0x1EBA JUMP JUMPDEST SWAP1 POP SWAP2 SWAP1 POP JUMP JUMPDEST PUSH0 DUP2 SWAP1 POP SWAP2 SWAP1 POP JUMP JUMPDEST PUSH0 PUSH2 0x1EF7 PUSH2 0x1EF2 DUP4 PUSH2 0x1E3F JUMP JUMPDEST PUSH2 0x1EDC JUMP JUMPDEST SWAP1 POP SWAP2 SWAP1 POP JUMP JUMPDEST PUSH1 0xE0 DUP3 ADD PUSH0 DUP1 DUP4 ADD SLOAD SWAP1 POP PUSH2 0x1F12 DUP2 PUSH2 0x1E69 JUMP JUMPDEST PUSH2 0x1F1E PUSH0 DUP7 ADD DUP3 PUSH2 0x17E4 JUMP JUMPDEST POP PUSH1 0x1 DUP4 ADD SLOAD SWAP1 POP PUSH2 0x1F2F DUP2 PUSH2 0x1EA1 JUMP JUMPDEST PUSH2 0x1F3C PUSH1 0x20 DUP7 ADD DUP3 PUSH2 0x17F3 JUMP JUMPDEST POP PUSH1 0x2 DUP4 ADD SLOAD SWAP1 POP PUSH2 0x1F4D DUP2 PUSH2 0x1EC3 JUMP JUMPDEST PUSH2 0x1F5A PUSH1 0x40 DUP7 ADD DUP3 PUSH2 0x1598 JUMP JUMPDEST POP PUSH1 0x3 DUP4 ADD SLOAD SWAP1 POP PUSH2 0x1F6B DUP2 PUSH2 0x1EC3 JUMP JUMPDEST PUSH2 0x1F78 PUSH1 0x60 DUP7 ADD DUP3 PUSH2 0x1598 JUMP JUMPDEST POP PUSH1 0x4 DUP4 ADD SLOAD SWAP1 POP PUSH2 0x1F89 DUP2 PUSH2 0x1EC3 JUMP JUMPDEST PUSH2 0x1F96 PUSH1 0x80 DUP7 ADD DUP3 PUSH2 0x1598 JUMP JUMPDEST POP PUSH1 0x5 DUP4 ADD SLOAD SWAP1 POP PUSH2 0x1FA7 DUP2 PUSH2 0x1EC3 JUMP JUMPDEST PUSH2 0x1FB4 PUSH1 0xA0 DUP7 ADD DUP3 PUSH2 0x1598 JUMP JUMPDEST POP PUSH1 0x6 DUP4 ADD SLOAD SWAP1 POP PUSH2 0x1FC5 DUP2 PUSH2 0x1EE5 JUMP JUMPDEST PUSH2 0x1FD2 PUSH1 0xC0 DUP7 ADD DUP3 PUSH2 0x180B JUMP JUMPDEST POP POP POP POP POP JUMP JUMPDEST PUSH0 PUSH2 0x100 DUP3 ADD SWAP1 POP PUSH2 0x1FED PUSH0 DUP4 ADD DUP6 PUSH2 0x1701 JUMP JUMPDEST PUSH2 0x1FFA PUSH1 0x20 DUP4 ADD DUP5 PUSH2 0x1EFE JUMP JUMPDEST SWAP4 SWAP3 POP POP POP JUMP JUMPDEST PUSH32 0x596F7520617265206E6F7420706F737465720000000000000000000000000000 PUSH0 DUP3 ADD MSTORE POP JUMP JUMPDEST PUSH0 PUSH2 0x2035 PUSH1 0x12 DUP4 PUSH2 0x1B5D JUMP JUMPDEST SWAP2 POP PUSH2 0x2040 DUP3 PUSH2 0x2001 JUMP JUMPDEST PUSH1 0x20 DUP3 ADD SWAP1 POP SWAP2 SWAP1 POP JUMP JUMPDEST PUSH0 PUSH1 0x20 DUP3 ADD SWAP1 POP DUP2 DUP2 SUB PUSH0 DUP4 ADD MSTORE PUSH2 0x2062 DUP2 PUSH2 0x2029 JUMP JUMPDEST SWAP1 POP SWAP2 SWAP1 POP JUMP JUMPDEST PUSH32 0x546869732069732065787069726564206F72206E6F7420657863757465642079 PUSH0 DUP3 ADD MSTORE PUSH32 0x6574000000000000000000000000000000000000000000000000000000000000 PUSH1 0x20 DUP3 ADD MSTORE POP JUMP JUMPDEST PUSH0 PUSH2 0x20C3 PUSH1 0x22 DUP4 PUSH2 0x1B5D JUMP JUMPDEST SWAP2 POP PUSH2 0x20CE DUP3 PUSH2 0x2069 JUMP JUMPDEST PUSH1 0x40 DUP3 ADD SWAP1 POP SWAP2 SWAP1 POP JUMP JUMPDEST PUSH0 PUSH1 0x20 DUP3 ADD SWAP1 POP DUP2 DUP2 SUB PUSH0 DUP4 ADD MSTORE PUSH2 0x20F0 DUP2 PUSH2 0x20B7 JUMP JUMPDEST SWAP1 POP SWAP2 SWAP1 POP JUMP JUMPDEST PUSH32 0x4E6F7420656E6F7567682062616C616E636520666F72207265706179696E6700 PUSH0 DUP3 ADD MSTORE POP JUMP JUMPDEST PUSH0 PUSH2 0x212B PUSH1 0x1F DUP4 PUSH2 0x1B5D JUMP JUMPDEST SWAP2 POP PUSH2 0x2136 DUP3 PUSH2 0x20F7 JUMP JUMPDEST PUSH1 0x20 DUP3 ADD SWAP1 POP SWAP2 SWAP1 POP JUMP JUMPDEST PUSH0 PUSH1 0x20 DUP3 ADD SWAP1 POP DUP2 DUP2 SUB PUSH0 DUP4 ADD MSTORE PUSH2 0x2158 DUP2 PUSH2 0x211F JUMP JUMPDEST SWAP1 POP SWAP2 SWAP1 POP JUMP JUMPDEST PUSH32 0x546869732069736E277420726570617920796574000000000000000000000000 PUSH0 DUP3 ADD MSTORE POP JUMP JUMPDEST PUSH0 PUSH2 0x2193 PUSH1 0x14 DUP4 PUSH2 0x1B5D JUMP JUMPDEST SWAP2 POP PUSH2 0x219E DUP3 PUSH2 0x215F JUMP JUMPDEST PUSH1 0x20 DUP3 ADD SWAP1 POP SWAP2 SWAP1 POP JUMP JUMPDEST PUSH0 PUSH1 0x20 DUP3 ADD SWAP1 POP DUP2 DUP2 SUB PUSH0 DUP4 ADD MSTORE PUSH2 0x21C0 DUP2 PUSH2 0x2187 JUMP JUMPDEST SWAP1 POP SWAP2 SWAP1 POP JUMP JUMPDEST PUSH32 0x596F7520617265206E6F7420706F73746572206F6620746865206C6973740000 PUSH0 DUP3 ADD MSTORE POP JUMP JUMPDEST PUSH0 PUSH2 0x21FB PUSH1 0x1E DUP4 PUSH2 0x1B5D JUMP JUMPDEST SWAP2 POP PUSH2 0x2206 DUP3 PUSH2 0x21C7 JUMP JUMPDEST PUSH1 0x20 DUP3 ADD SWAP1 POP SWAP2 SWAP1 POP JUMP JUMPDEST PUSH0 PUSH1 0x20 DUP3 ADD SWAP1 POP DUP2 DUP2 SUB PUSH0 DUP4 ADD MSTORE PUSH2 0x2228 DUP2 PUSH2 0x21EF JUMP JUMPDEST SWAP1 POP SWAP2 SWAP1 POP JUMP JUMPDEST PUSH32 0x4E6F74206F70656E696E67206C69737400000000000000000000000000000000 PUSH0 DUP3 ADD MSTORE POP JUMP JUMPDEST PUSH0 PUSH2 0x2263 PUSH1 0x10 DUP4 PUSH2 0x1B5D JUMP JUMPDEST SWAP2 POP PUSH2 0x226E DUP3 PUSH2 0x222F JUMP JUMPDEST PUSH1 0x20 DUP3 ADD SWAP1 POP SWAP2 SWAP1 POP JUMP JUMPDEST PUSH0 PUSH1 0x20 DUP3 ADD SWAP1 POP DUP2 DUP2 SUB PUSH0 DUP4 ADD MSTORE PUSH2 0x2290 DUP2 PUSH2 0x2257 JUMP JUMPDEST SWAP1 POP SWAP2 SWAP1 POP JUMP INVALID LOG2 PUSH5 0x6970667358 0x22 SLT KECCAK256 0xDD POP 0xF6 STOP 0xA8 PUSH14 0xD73D143A6E617D1803C3D95DFC7 0x1E 0xC6 BYTE JUMPDEST 0xB0 0xD6 SWAP16 0xF9 SHL PUSH8 0x17C364736F6C6343 STOP ADDMOD OR STOP CALLER "
				},
				"gasEstimates": {
					"creation": {
						"codeDepositCost": "1781800",
						"executionCost": "112405",
						"totalCost": "1894205"
					},
					"external": {
						"approveLoan(uint256)": "infinite",
						"calculateRepayAmount(uint256)": "infinite",
						"closeListing(uint256)": "infinite",
						"getCounter()": "2499",
						"getListing(address)": "infinite",
						"getListingInfo(uint256)": "infinite",
						"getUpdateTime(uint256)": "infinite",
						"giveBackNFT(uint256)": "infinite",
						"isApprove(address)": "infinite",
						"isExpired(uint256)": "infinite",
						"listNum(uint256)": "infinite",
						"loanerOf(uint256)": "2941",
						"openListing(address,uint256,uint256,uint256,uint256)": "infinite",
						"ownerOf(address,uint256)": "infinite",
						"repayLoan(uint256)": "infinite",
						"updateTime(uint256)": "22613"
					}
				},
				"methodIdentifiers": {
					"approveLoan(uint256)": "aadc1ac1",
					"calculateRepayAmount(uint256)": "1ac31f0d",
					"closeListing(uint256)": "e5a255cb",
					"getCounter()": "8ada066e",
					"getListing(address)": "084af0b2",
					"getListingInfo(uint256)": "b9314135",
					"getUpdateTime(uint256)": "b1209d4a",
					"giveBackNFT(uint256)": "ce5b8d35",
					"isApprove(address)": "4f694690",
					"isExpired(uint256)": "d9548e53",
					"listNum(uint256)": "eeabfc4a",
					"loanerOf(uint256)": "907c64f5",
					"openListing(address,uint256,uint256,uint256,uint256)": "880fe941",
					"ownerOf(address,uint256)": "1f29d2dc",
					"repayLoan(uint256)": "ab7b1c89",
					"updateTime(uint256)": "6c59bd0c"
				}
			},
			"storageLayout": {
				"storage": [
					{
						"astId": 183,
						"contract": "platform.sol:Platform",
						"label": "listNum",
						"offset": 0,
						"slot": "0",
						"type": "t_mapping(t_uint256,t_struct(ListingInfo)178_storage)"
					},
					{
						"astId": 188,
						"contract": "platform.sol:Platform",
						"label": "addrList",
						"offset": 0,
						"slot": "1",
						"type": "t_mapping(t_address,t_array(t_uint256)dyn_storage)"
					},
					{
						"astId": 192,
						"contract": "platform.sol:Platform",
						"label": "updatedTime",
						"offset": 0,
						"slot": "2",
						"type": "t_mapping(t_uint256,t_uint256)"
					},
					{
						"astId": 196,
						"contract": "platform.sol:Platform",
						"label": "loaner",
						"offset": 0,
						"slot": "3",
						"type": "t_mapping(t_uint256,t_address_payable)"
					},
					{
						"astId": 199,
						"contract": "platform.sol:Platform",
						"label": "counter",
						"offset": 0,
						"slot": "4",
						"type": "t_uint256"
					},
					{
						"astId": 202,
						"contract": "platform.sol:Platform",
						"label": "yearToDay",
						"offset": 0,
						"slot": "5",
						"type": "t_uint256"
					},
					{
						"astId": 205,
						"contract": "platform.sol:Platform",
						"label": "monthToSec",
						"offset": 0,
						"slot": "6",
						"type": "t_uint256"
					},
					{
						"astId": 208,
						"contract": "platform.sol:Platform",
						"label": "dayToSec",
						"offset": 0,
						"slot": "7",
						"type": "t_uint256"
					},
					{
						"astId": 211,
						"contract": "platform.sol:Platform",
						"label": "minTosec",
						"offset": 0,
						"slot": "8",
						"type": "t_uint256"
					}
				],
				"types": {
					"t_address": {
						"encoding": "inplace",
						"label": "address",
						"numberOfBytes": "20"
					},
					"t_address_payable": {
						"encoding": "inplace",
						"label": "address payable",
						"numberOfBytes": "20"
					},
					"t_array(t_uint256)dyn_storage": {
						"base": "t_uint256",
						"encoding": "dynamic_array",
						"label": "uint256[]",
						"numberOfBytes": "32"
					},
					"t_bytes32": {
						"encoding": "inplace",
						"label": "bytes32",
						"numberOfBytes": "32"
					},
					"t_mapping(t_address,t_array(t_uint256)dyn_storage)": {
						"encoding": "mapping",
						"key": "t_address",
						"label": "mapping(address => uint256[])",
						"numberOfBytes": "32",
						"value": "t_array(t_uint256)dyn_storage"
					},
					"t_mapping(t_uint256,t_address_payable)": {
						"encoding": "mapping",
						"key": "t_uint256",
						"label": "mapping(uint256 => address payable)",
						"numberOfBytes": "32",
						"value": "t_address_payable"
					},
					"t_mapping(t_uint256,t_struct(ListingInfo)178_storage)": {
						"encoding": "mapping",
						"key": "t_uint256",
						"label": "mapping(uint256 => struct Platform.ListingInfo)",
						"numberOfBytes": "32",
						"value": "t_struct(ListingInfo)178_storage"
					},
					"t_mapping(t_uint256,t_uint256)": {
						"encoding": "mapping",
						"key": "t_uint256",
						"label": "mapping(uint256 => uint256)",
						"numberOfBytes": "32",
						"value": "t_uint256"
					},
					"t_struct(ListingInfo)178_storage": {
						"encoding": "inplace",
						"label": "struct Platform.ListingInfo",
						"members": [
							{
								"astId": 165,
								"contract": "platform.sol:Platform",
								"label": "poster",
								"offset": 0,
								"slot": "0",
								"type": "t_address_payable"
							},
							{
								"astId": 167,
								"contract": "platform.sol:Platform",
								"label": "collectionAddr",
								"offset": 0,
								"slot": "1",
								"type": "t_address"
							},
							{
								"astId": 169,
								"contract": "platform.sol:Platform",
								"label": "tokenId",
								"offset": 0,
								"slot": "2",
								"type": "t_uint256"
							},
							{
								"astId": 171,
								"contract": "platform.sol:Platform",
								"label": "amount",
								"offset": 0,
								"slot": "3",
								"type": "t_uint256"
							},
							{
								"astId": 173,
								"contract": "platform.sol:Platform",
								"label": "duration",
								"offset": 0,
								"slot": "4",
								"type": "t_uint256"
							},
							{
								"astId": 175,
								"contract": "platform.sol:Platform",
								"label": "APR",
								"offset": 0,
								"slot": "5",
								"type": "t_uint256"
							},
							{
								"astId": 177,
								"contract": "platform.sol:Platform",
								"label": "status",
								"offset": 0,
								"slot": "6",
								"type": "t_bytes32"
							}
						],
						"numberOfBytes": "224"
					},
					"t_uint256": {
						"encoding": "inplace",
						"label": "uint256",
						"numberOfBytes": "32"
					}
				}
			},
			"userdoc": {
				"kind": "user",
				"methods": {},
				"version": 1
			}
		}
	}
}