{
	"platform.sol": {
		"Platform": {
			"abi": [
				{
					"anonymous": false,
					"inputs": [
						{
							"indexed": false,
							"internalType": "address",
							"name": "loaner",
							"type": "address"
						},
						{
							"components": [
								{
									"internalType": "address payable",
									"name": "poster",
									"type": "address"
								},
								{
									"internalType": "address",
									"name": "collectionAddr",
									"type": "address"
								},
								{
									"internalType": "uint256",
									"name": "tokenId",
									"type": "uint256"
								},
								{
									"internalType": "uint256",
									"name": "amount",
									"type": "uint256"
								},
								{
									"internalType": "uint256",
									"name": "duration",
									"type": "uint256"
								},
								{
									"internalType": "uint256",
									"name": "APR",
									"type": "uint256"
								},
								{
									"internalType": "bytes32",
									"name": "status",
									"type": "bytes32"
								}
							],
							"indexed": false,
							"internalType": "struct Platform.ListingInfo",
							"name": "info",
							"type": "tuple"
						}
					],
					"name": "ApprovalListing",
					"type": "event"
				},
				{
					"anonymous": false,
					"inputs": [
						{
							"indexed": false,
							"internalType": "address",
							"name": "owner",
							"type": "address"
						},
						{
							"components": [
								{
									"internalType": "address payable",
									"name": "poster",
									"type": "address"
								},
								{
									"internalType": "address",
									"name": "collectionAddr",
									"type": "address"
								},
								{
									"internalType": "uint256",
									"name": "tokenId",
									"type": "uint256"
								},
								{
									"internalType": "uint256",
									"name": "amount",
									"type": "uint256"
								},
								{
									"internalType": "uint256",
									"name": "duration",
									"type": "uint256"
								},
								{
									"internalType": "uint256",
									"name": "APR",
									"type": "uint256"
								},
								{
									"internalType": "bytes32",
									"name": "status",
									"type": "bytes32"
								}
							],
							"indexed": false,
							"internalType": "struct Platform.ListingInfo",
							"name": "info",
							"type": "tuple"
						}
					],
					"name": "CancelListing",
					"type": "event"
				},
				{
					"anonymous": false,
					"inputs": [
						{
							"indexed": false,
							"internalType": "address",
							"name": "owner",
							"type": "address"
						},
						{
							"components": [
								{
									"internalType": "address payable",
									"name": "poster",
									"type": "address"
								},
								{
									"internalType": "address",
									"name": "collectionAddr",
									"type": "address"
								},
								{
									"internalType": "uint256",
									"name": "tokenId",
									"type": "uint256"
								},
								{
									"internalType": "uint256",
									"name": "amount",
									"type": "uint256"
								},
								{
									"internalType": "uint256",
									"name": "duration",
									"type": "uint256"
								},
								{
									"internalType": "uint256",
									"name": "APR",
									"type": "uint256"
								},
								{
									"internalType": "bytes32",
									"name": "status",
									"type": "bytes32"
								}
							],
							"indexed": false,
							"internalType": "struct Platform.ListingInfo",
							"name": "info",
							"type": "tuple"
						}
					],
					"name": "NewListing",
					"type": "event"
				},
				{
					"anonymous": false,
					"inputs": [
						{
							"indexed": false,
							"internalType": "address",
							"name": "owner",
							"type": "address"
						},
						{
							"components": [
								{
									"internalType": "address payable",
									"name": "poster",
									"type": "address"
								},
								{
									"internalType": "address",
									"name": "collectionAddr",
									"type": "address"
								},
								{
									"internalType": "uint256",
									"name": "tokenId",
									"type": "uint256"
								},
								{
									"internalType": "uint256",
									"name": "amount",
									"type": "uint256"
								},
								{
									"internalType": "uint256",
									"name": "duration",
									"type": "uint256"
								},
								{
									"internalType": "uint256",
									"name": "APR",
									"type": "uint256"
								},
								{
									"internalType": "bytes32",
									"name": "status",
									"type": "bytes32"
								}
							],
							"indexed": false,
							"internalType": "struct Platform.ListingInfo",
							"name": "info",
							"type": "tuple"
						}
					],
					"name": "repaying",
					"type": "event"
				},
				{
					"inputs": [
						{
							"internalType": "uint256",
							"name": "listingIndex",
							"type": "uint256"
						}
					],
					"name": "calculateRepayAmount",
					"outputs": [
						{
							"internalType": "uint256",
							"name": "",
							"type": "uint256"
						}
					],
					"stateMutability": "view",
					"type": "function"
				},
				{
					"inputs": [
						{
							"internalType": "uint256",
							"name": "listingIndex",
							"type": "uint256"
						}
					],
					"name": "closeListing",
					"outputs": [],
					"stateMutability": "nonpayable",
					"type": "function"
				},
				{
					"inputs": [],
					"name": "getCounter",
					"outputs": [
						{
							"internalType": "uint256",
							"name": "",
							"type": "uint256"
						}
					],
					"stateMutability": "view",
					"type": "function"
				},
				{
					"inputs": [
						{
							"internalType": "address",
							"name": "addr",
							"type": "address"
						}
					],
					"name": "getListing",
					"outputs": [
						{
							"internalType": "uint256[]",
							"name": "",
							"type": "uint256[]"
						}
					],
					"stateMutability": "view",
					"type": "function"
				},
				{
					"inputs": [
						{
							"internalType": "uint256",
							"name": "num",
							"type": "uint256"
						}
					],
					"name": "getListingInfo",
					"outputs": [
						{
							"components": [
								{
									"internalType": "address payable",
									"name": "poster",
									"type": "address"
								},
								{
									"internalType": "address",
									"name": "collectionAddr",
									"type": "address"
								},
								{
									"internalType": "uint256",
									"name": "tokenId",
									"type": "uint256"
								},
								{
									"internalType": "uint256",
									"name": "amount",
									"type": "uint256"
								},
								{
									"internalType": "uint256",
									"name": "duration",
									"type": "uint256"
								},
								{
									"internalType": "uint256",
									"name": "APR",
									"type": "uint256"
								},
								{
									"internalType": "bytes32",
									"name": "status",
									"type": "bytes32"
								}
							],
							"internalType": "struct Platform.ListingInfo",
							"name": "",
							"type": "tuple"
						}
					],
					"stateMutability": "view",
					"type": "function"
				},
				{
					"inputs": [
						{
							"components": [
								{
									"internalType": "address payable",
									"name": "poster",
									"type": "address"
								},
								{
									"internalType": "address",
									"name": "collectionAddr",
									"type": "address"
								},
								{
									"internalType": "uint256",
									"name": "tokenId",
									"type": "uint256"
								},
								{
									"internalType": "uint256",
									"name": "amount",
									"type": "uint256"
								},
								{
									"internalType": "uint256",
									"name": "duration",
									"type": "uint256"
								},
								{
									"internalType": "uint256",
									"name": "APR",
									"type": "uint256"
								},
								{
									"internalType": "bytes32",
									"name": "status",
									"type": "bytes32"
								}
							],
							"internalType": "struct Platform.ListingInfo",
							"name": "info",
							"type": "tuple"
						}
					],
					"name": "giveBackNFT",
					"outputs": [],
					"stateMutability": "nonpayable",
					"type": "function"
				},
				{
					"inputs": [
						{
							"internalType": "address",
							"name": "collectionAddr",
							"type": "address"
						}
					],
					"name": "isApprove",
					"outputs": [
						{
							"internalType": "bool",
							"name": "",
							"type": "bool"
						}
					],
					"stateMutability": "view",
					"type": "function"
				},
				{
					"inputs": [
						{
							"internalType": "uint256",
							"name": "listingIndex",
							"type": "uint256"
						}
					],
					"name": "isExpired",
					"outputs": [
						{
							"internalType": "uint256",
							"name": "",
							"type": "uint256"
						},
						{
							"internalType": "bool",
							"name": "",
							"type": "bool"
						}
					],
					"stateMutability": "view",
					"type": "function"
				},
				{
					"inputs": [
						{
							"internalType": "uint256",
							"name": "listingIndex",
							"type": "uint256"
						}
					],
					"name": "lendApproval",
					"outputs": [],
					"stateMutability": "nonpayable",
					"type": "function"
				},
				{
					"inputs": [
						{
							"internalType": "uint256",
							"name": "",
							"type": "uint256"
						}
					],
					"name": "listNum",
					"outputs": [
						{
							"internalType": "address payable",
							"name": "poster",
							"type": "address"
						},
						{
							"internalType": "address",
							"name": "collectionAddr",
							"type": "address"
						},
						{
							"internalType": "uint256",
							"name": "tokenId",
							"type": "uint256"
						},
						{
							"internalType": "uint256",
							"name": "amount",
							"type": "uint256"
						},
						{
							"internalType": "uint256",
							"name": "duration",
							"type": "uint256"
						},
						{
							"internalType": "uint256",
							"name": "APR",
							"type": "uint256"
						},
						{
							"internalType": "bytes32",
							"name": "status",
							"type": "bytes32"
						}
					],
					"stateMutability": "view",
					"type": "function"
				},
				{
					"inputs": [
						{
							"internalType": "address",
							"name": "collectionAddr",
							"type": "address"
						},
						{
							"internalType": "uint256",
							"name": "tokenId",
							"type": "uint256"
						},
						{
							"internalType": "uint256",
							"name": "amount",
							"type": "uint256"
						},
						{
							"internalType": "uint256",
							"name": "duration",
							"type": "uint256"
						},
						{
							"internalType": "uint256",
							"name": "APR",
							"type": "uint256"
						}
					],
					"name": "openListing",
					"outputs": [],
					"stateMutability": "nonpayable",
					"type": "function"
				},
				{
					"inputs": [
						{
							"internalType": "address",
							"name": "collectionAddr",
							"type": "address"
						},
						{
							"internalType": "uint256",
							"name": "tokenId",
							"type": "uint256"
						}
					],
					"name": "ownerOf",
					"outputs": [
						{
							"internalType": "address",
							"name": "",
							"type": "address"
						}
					],
					"stateMutability": "view",
					"type": "function"
				},
				{
					"inputs": [
						{
							"internalType": "uint256",
							"name": "listingIndex",
							"type": "uint256"
						}
					],
					"name": "repayLoan",
					"outputs": [],
					"stateMutability": "nonpayable",
					"type": "function"
				},
				{
					"inputs": [
						{
							"internalType": "uint256",
							"name": "listingIndex",
							"type": "uint256"
						}
					],
					"name": "updateTime",
					"outputs": [],
					"stateMutability": "nonpayable",
					"type": "function"
				}
			],
			"devdoc": {
				"kind": "dev",
				"methods": {},
				"version": 1
			},
			"evm": {
				"assembly": "    /* \"platform.sol\":118:5409  contract Platform {... */\n  mstore(0x40, 0x80)\n    /* \"platform.sol\":866:867  1 */\n  0x01\n    /* \"platform.sol\":848:867  uint256 counter = 1 */\n  0x04\n  sstore\n    /* \"platform.sol\":893:896  365 */\n  0x016d\n    /* \"platform.sol\":873:896  uint256 yearToDay = 365 */\n  0x05\n  sstore\n    /* \"platform.sol\":923:930  2592000 */\n  0x278d00\n    /* \"platform.sol\":902:930  uint256 monthToSec = 2592000 */\n  0x06\n  sstore\n    /* \"platform.sol\":955:960  86400 */\n  0x015180\n    /* \"platform.sol\":936:960  uint256 dayToSec = 86400 */\n  0x07\n  sstore\n    /* \"platform.sol\":985:987  60 */\n  0x3c\n    /* \"platform.sol\":966:987  uint256 minTosec = 60 */\n  0x08\n  sstore\n    /* \"platform.sol\":118:5409  contract Platform {... */\n  callvalue\n  dup1\n  iszero\n  tag_1\n  jumpi\n  0x00\n  dup1\n  revert\ntag_1:\n  pop\n  dataSize(sub_0)\n  dup1\n  dataOffset(sub_0)\n  0x00\n  codecopy\n  0x00\n  return\nstop\n\nsub_0: assembly {\n        /* \"platform.sol\":118:5409  contract Platform {... */\n      mstore(0x40, 0x80)\n      callvalue\n      dup1\n      iszero\n      tag_1\n      jumpi\n      0x00\n      dup1\n      revert\n    tag_1:\n      pop\n      jumpi(tag_2, lt(calldatasize, 0x04))\n      shr(0xe0, calldataload(0x00))\n      dup1\n      0x880fe941\n      gt\n      tag_17\n      jumpi\n      dup1\n      0xb9314135\n      gt\n      tag_18\n      jumpi\n      dup1\n      0xb9314135\n      eq\n      tag_13\n      jumpi\n      dup1\n      0xd9548e53\n      eq\n      tag_14\n      jumpi\n      dup1\n      0xe5a255cb\n      eq\n      tag_15\n      jumpi\n      dup1\n      0xeeabfc4a\n      eq\n      tag_16\n      jumpi\n      jump(tag_2)\n    tag_18:\n      dup1\n      0x880fe941\n      eq\n      tag_10\n      jumpi\n      dup1\n      0x8ada066e\n      eq\n      tag_11\n      jumpi\n      dup1\n      0xab7b1c89\n      eq\n      tag_12\n      jumpi\n      jump(tag_2)\n    tag_17:\n      dup1\n      0x1f29d2dc\n      gt\n      tag_19\n      jumpi\n      dup1\n      0x1f29d2dc\n      eq\n      tag_6\n      jumpi\n      dup1\n      0x4f694690\n      eq\n      tag_7\n      jumpi\n      dup1\n      0x5e8441e4\n      eq\n      tag_8\n      jumpi\n      dup1\n      0x6c59bd0c\n      eq\n      tag_9\n      jumpi\n      jump(tag_2)\n    tag_19:\n      dup1\n      0x084af0b2\n      eq\n      tag_3\n      jumpi\n      dup1\n      0x172656d1\n      eq\n      tag_4\n      jumpi\n      dup1\n      0x1ac31f0d\n      eq\n      tag_5\n      jumpi\n    tag_2:\n      0x00\n      dup1\n      revert\n        /* \"platform.sol\":1003:1114  function getListing(address addr) public view returns (uint256[] memory) {... */\n    tag_3:\n      tag_20\n      0x04\n      dup1\n      calldatasize\n      sub\n      dup2\n      add\n      swap1\n      tag_21\n      swap2\n      swap1\n      tag_22\n      jump\t// in\n    tag_21:\n      tag_23\n      jump\t// in\n    tag_20:\n      mload(0x40)\n      tag_24\n      swap2\n      swap1\n      tag_25\n      jump\t// in\n    tag_24:\n      mload(0x40)\n      dup1\n      swap2\n      sub\n      swap1\n      return\n        /* \"platform.sol\":3553:4021  function lendApproval(uint256 listingIndex) public {... */\n    tag_4:\n      tag_26\n      0x04\n      dup1\n      calldatasize\n      sub\n      dup2\n      add\n      swap1\n      tag_27\n      swap2\n      swap1\n      tag_28\n      jump\t// in\n    tag_27:\n      tag_29\n      jump\t// in\n    tag_26:\n      stop\n        /* \"platform.sol\":4654:5071  function calculateRepayAmount(uint256 listingIndex) public view returns (uint256) {... */\n    tag_5:\n      tag_30\n      0x04\n      dup1\n      calldatasize\n      sub\n      dup2\n      add\n      swap1\n      tag_31\n      swap2\n      swap1\n      tag_28\n      jump\t// in\n    tag_31:\n      tag_32\n      jump\t// in\n    tag_30:\n      mload(0x40)\n      tag_33\n      swap2\n      swap1\n      tag_34\n      jump\t// in\n    tag_33:\n      mload(0x40)\n      dup1\n      swap2\n      sub\n      swap1\n      return\n        /* \"platform.sol\":1329:1481  function ownerOf(address collectionAddr, uint256 tokenId) public view returns (address) {... */\n    tag_6:\n      tag_35\n      0x04\n      dup1\n      calldatasize\n      sub\n      dup2\n      add\n      swap1\n      tag_36\n      swap2\n      swap1\n      tag_37\n      jump\t// in\n    tag_36:\n      tag_38\n      jump\t// in\n    tag_35:\n      mload(0x40)\n      tag_39\n      swap2\n      swap1\n      tag_40\n      jump\t// in\n    tag_39:\n      mload(0x40)\n      dup1\n      swap2\n      sub\n      swap1\n      return\n        /* \"platform.sol\":1487:1648  function isApprove(address collectionAddr) public view returns (bool) {... */\n    tag_7:\n      tag_41\n      0x04\n      dup1\n      calldatasize\n      sub\n      dup2\n      add\n      swap1\n      tag_42\n      swap2\n      swap1\n      tag_22\n      jump\t// in\n    tag_42:\n      tag_43\n      jump\t// in\n    tag_41:\n      mload(0x40)\n      tag_44\n      swap2\n      swap1\n      tag_45\n      jump\t// in\n    tag_44:\n      mload(0x40)\n      dup1\n      swap2\n      sub\n      swap1\n      return\n        /* \"platform.sol\":5081:5407  function giveBackNFT(ListingInfo memory info) public {... */\n    tag_8:\n      tag_46\n      0x04\n      dup1\n      calldatasize\n      sub\n      dup2\n      add\n      swap1\n      tag_47\n      swap2\n      swap1\n      tag_48\n      jump\t// in\n    tag_47:\n      tag_49\n      jump\t// in\n    tag_46:\n      stop\n        /* \"platform.sol\":2849:2958  function updateTime(uint256 listingIndex) public {... */\n    tag_9:\n      tag_50\n      0x04\n      dup1\n      calldatasize\n      sub\n      dup2\n      add\n      swap1\n      tag_51\n      swap2\n      swap1\n      tag_28\n      jump\t// in\n    tag_51:\n      tag_52\n      jump\t// in\n    tag_50:\n      stop\n        /* \"platform.sol\":1654:2398  function openListing(... */\n    tag_10:\n      tag_53\n      0x04\n      dup1\n      calldatasize\n      sub\n      dup2\n      add\n      swap1\n      tag_54\n      swap2\n      swap1\n      tag_55\n      jump\t// in\n    tag_54:\n      tag_56\n      jump\t// in\n    tag_53:\n      stop\n        /* \"platform.sol\":1240:1323  function getCounter() public view returns (uint256) {... */\n    tag_11:\n      tag_57\n      tag_58\n      jump\t// in\n    tag_57:\n      mload(0x40)\n      tag_59\n      swap2\n      swap1\n      tag_34\n      jump\t// in\n    tag_59:\n      mload(0x40)\n      dup1\n      swap2\n      sub\n      swap1\n      return\n        /* \"platform.sol\":4027:4648  function repayLoan(uint256 listingIndex) public {... */\n    tag_12:\n      tag_60\n      0x04\n      dup1\n      calldatasize\n      sub\n      dup2\n      add\n      swap1\n      tag_61\n      swap2\n      swap1\n      tag_28\n      jump\t// in\n    tag_61:\n      tag_62\n      jump\t// in\n    tag_60:\n      stop\n        /* \"platform.sol\":1120:1234  function getListingInfo(uint256 num) public view returns (ListingInfo memory) {... */\n    tag_13:\n      tag_63\n      0x04\n      dup1\n      calldatasize\n      sub\n      dup2\n      add\n      swap1\n      tag_64\n      swap2\n      swap1\n      tag_28\n      jump\t// in\n    tag_64:\n      tag_65\n      jump\t// in\n    tag_63:\n      mload(0x40)\n      tag_66\n      swap2\n      swap1\n      tag_67\n      jump\t// in\n    tag_66:\n      mload(0x40)\n      dup1\n      swap2\n      sub\n      swap1\n      return\n        /* \"platform.sol\":2964:3547  function isExpired(uint256 listingIndex) public view returns (uint256, bool) {... */\n    tag_14:\n      tag_68\n      0x04\n      dup1\n      calldatasize\n      sub\n      dup2\n      add\n      swap1\n      tag_69\n      swap2\n      swap1\n      tag_28\n      jump\t// in\n    tag_69:\n      tag_70\n      jump\t// in\n    tag_68:\n      mload(0x40)\n      tag_71\n      swap3\n      swap2\n      swap1\n      tag_72\n      jump\t// in\n    tag_71:\n      mload(0x40)\n      dup1\n      swap2\n      sub\n      swap1\n      return\n        /* \"platform.sol\":2408:2843  function closeListing(uint256 listingIndex) public {... */\n    tag_15:\n      tag_73\n      0x04\n      dup1\n      calldatasize\n      sub\n      dup2\n      add\n      swap1\n      tag_74\n      swap2\n      swap1\n      tag_28\n      jump\t// in\n    tag_74:\n      tag_75\n      jump\t// in\n    tag_73:\n      stop\n        /* \"platform.sol\":658:704  mapping(uint256 => ListingInfo) public listNum */\n    tag_16:\n      tag_76\n      0x04\n      dup1\n      calldatasize\n      sub\n      dup2\n      add\n      swap1\n      tag_77\n      swap2\n      swap1\n      tag_28\n      jump\t// in\n    tag_77:\n      tag_78\n      jump\t// in\n    tag_76:\n      mload(0x40)\n      tag_79\n      swap8\n      swap7\n      swap6\n      swap5\n      swap4\n      swap3\n      swap2\n      swap1\n      tag_80\n      jump\t// in\n    tag_79:\n      mload(0x40)\n      dup1\n      swap2\n      sub\n      swap1\n      return\n        /* \"platform.sol\":1003:1114  function getListing(address addr) public view returns (uint256[] memory) {... */\n    tag_23:\n        /* \"platform.sol\":1058:1074  uint256[] memory */\n      0x60\n        /* \"platform.sol\":1093:1101  addrList */\n      0x01\n        /* \"platform.sol\":1093:1107  addrList[addr] */\n      0x00\n        /* \"platform.sol\":1102:1106  addr */\n      dup4\n        /* \"platform.sol\":1093:1107  addrList[addr] */\n      0xffffffffffffffffffffffffffffffffffffffff\n      and\n      0xffffffffffffffffffffffffffffffffffffffff\n      and\n      dup2\n      mstore\n      0x20\n      add\n      swap1\n      dup2\n      mstore\n      0x20\n      add\n      0x00\n      keccak256\n        /* \"platform.sol\":1086:1107  return addrList[addr] */\n      dup1\n      sload\n      dup1\n      0x20\n      mul\n      0x20\n      add\n      mload(0x40)\n      swap1\n      dup2\n      add\n      0x40\n      mstore\n      dup1\n      swap3\n      swap2\n      swap1\n      dup2\n      dup2\n      mstore\n      0x20\n      add\n      dup3\n      dup1\n      sload\n      dup1\n      iszero\n      tag_82\n      jumpi\n      0x20\n      mul\n      dup3\n      add\n      swap2\n      swap1\n      0x00\n      mstore\n      keccak256(0x00, 0x20)\n      swap1\n    tag_83:\n      dup2\n      sload\n      dup2\n      mstore\n      0x20\n      add\n      swap1\n      0x01\n      add\n      swap1\n      dup1\n      dup4\n      gt\n      tag_83\n      jumpi\n    tag_82:\n      pop\n      pop\n      pop\n      pop\n      pop\n      swap1\n      pop\n        /* \"platform.sol\":1003:1114  function getListing(address addr) public view returns (uint256[] memory) {... */\n      swap2\n      swap1\n      pop\n      jump\t// out\n        /* \"platform.sol\":3553:4021  function lendApproval(uint256 listingIndex) public {... */\n    tag_29:\n        /* \"platform.sol\":3614:3637  ListingInfo memory info */\n      0x00\n        /* \"platform.sol\":3640:3668  getListingInfo(listingIndex) */\n      tag_85\n        /* \"platform.sol\":3655:3667  listingIndex */\n      dup3\n        /* \"platform.sol\":3640:3654  getListingInfo */\n      tag_65\n        /* \"platform.sol\":3640:3668  getListingInfo(listingIndex) */\n      jump\t// in\n    tag_85:\n        /* \"platform.sol\":3614:3668  ListingInfo memory info = getListingInfo(listingIndex) */\n      swap1\n      pop\n        /* \"platform.sol\":3707:3711  info */\n      dup1\n        /* \"platform.sol\":3707:3718  info.amount */\n      0x60\n      add\n      mload\n        /* \"platform.sol\":3686:3696  msg.sender */\n      caller\n        /* \"platform.sol\":3686:3704  msg.sender.balance */\n      0xffffffffffffffffffffffffffffffffffffffff\n      and\n      balance\n        /* \"platform.sol\":3686:3718  msg.sender.balance > info.amount */\n      gt\n        /* \"platform.sol\":3678:3761  require(msg.sender.balance > info.amount, \"You haven't enough balance for lending\") */\n      tag_86\n      jumpi\n      mload(0x40)\n      0x08c379a000000000000000000000000000000000000000000000000000000000\n      dup2\n      mstore\n      0x04\n      add\n      tag_87\n      swap1\n      tag_88\n      jump\t// in\n    tag_87:\n      mload(0x40)\n      dup1\n      swap2\n      sub\n      swap1\n      revert\n    tag_86:\n        /* \"platform.sol\":3812:3816  info */\n      dup1\n        /* \"platform.sol\":3812:3823  info.poster */\n      0x00\n      add\n      mload\n        /* \"platform.sol\":3811:3833  (info.poster).transfer */\n      0xffffffffffffffffffffffffffffffffffffffff\n      and\n        /* \"platform.sol\":3811:3846  (info.poster).transfer(info.amount) */\n      0x08fc\n        /* \"platform.sol\":3834:3838  info */\n      dup3\n        /* \"platform.sol\":3834:3845  info.amount */\n      0x60\n      add\n      mload\n        /* \"platform.sol\":3811:3846  (info.poster).transfer(info.amount) */\n      swap1\n      dup2\n      iszero\n      mul\n      swap1\n      mload(0x40)\n      0x00\n      mload(0x40)\n      dup1\n      dup4\n      sub\n      dup2\n      dup6\n      dup9\n      dup9\n      call\n      swap4\n      pop\n      pop\n      pop\n      pop\n      iszero\n      dup1\n      iszero\n      tag_90\n      jumpi\n      returndatasize\n      0x00\n      dup1\n      returndatacopy\n      revert(0x00, returndatasize)\n    tag_90:\n      pop\n        /* \"platform.sol\":3856:3880  info.status = \"excuting\" */\n      0x6578637574696e67000000000000000000000000000000000000000000000000\n        /* \"platform.sol\":3856:3860  info */\n      dup2\n        /* \"platform.sol\":3856:3867  info.status */\n      0xc0\n      add\n        /* \"platform.sol\":3856:3880  info.status = \"excuting\" */\n      dup2\n      dup2\n      mstore\n      pop\n      pop\n        /* \"platform.sol\":3921:3931  msg.sender */\n      caller\n        /* \"platform.sol\":3890:3896  loaner */\n      0x03\n        /* \"platform.sol\":3890:3910  loaner[listingIndex] */\n      0x00\n        /* \"platform.sol\":3897:3909  listingIndex */\n      dup5\n        /* \"platform.sol\":3890:3910  loaner[listingIndex] */\n      dup2\n      mstore\n      0x20\n      add\n      swap1\n      dup2\n      mstore\n      0x20\n      add\n      0x00\n      keccak256\n      0x00\n        /* \"platform.sol\":3890:3932  loaner[listingIndex] = payable(msg.sender) */\n      0x0100\n      exp\n      dup2\n      sload\n      dup2\n      0xffffffffffffffffffffffffffffffffffffffff\n      mul\n      not\n      and\n      swap1\n      dup4\n      0xffffffffffffffffffffffffffffffffffffffff\n      and\n      mul\n      or\n      swap1\n      sstore\n      pop\n        /* \"platform.sol\":3942:3966  updateTime(listingIndex) */\n      tag_91\n        /* \"platform.sol\":3953:3965  listingIndex */\n      dup3\n        /* \"platform.sol\":3942:3952  updateTime */\n      tag_52\n        /* \"platform.sol\":3942:3966  updateTime(listingIndex) */\n      jump\t// in\n    tag_91:\n        /* \"platform.sol\":3981:4014  ApprovalListing(msg.sender, info) */\n      0xcbe547358b7d8ceb07ae8baae08d35680e6c6c69046525b09dc9bb8f53f708fd\n        /* \"platform.sol\":3997:4007  msg.sender */\n      caller\n        /* \"platform.sol\":4009:4013  info */\n      dup3\n        /* \"platform.sol\":3981:4014  ApprovalListing(msg.sender, info) */\n      mload(0x40)\n      tag_92\n      swap3\n      swap2\n      swap1\n      tag_93\n      jump\t// in\n    tag_92:\n      mload(0x40)\n      dup1\n      swap2\n      sub\n      swap1\n      log1\n        /* \"platform.sol\":3604:4021  {... */\n      pop\n        /* \"platform.sol\":3553:4021  function lendApproval(uint256 listingIndex) public {... */\n      pop\n      jump\t// out\n        /* \"platform.sol\":4654:5071  function calculateRepayAmount(uint256 listingIndex) public view returns (uint256) {... */\n    tag_32:\n        /* \"platform.sol\":4727:4734  uint256 */\n      0x00\n        /* \"platform.sol\":4746:4769  ListingInfo memory info */\n      dup1\n        /* \"platform.sol\":4772:4800  getListingInfo(listingIndex) */\n      tag_95\n        /* \"platform.sol\":4787:4799  listingIndex */\n      dup4\n        /* \"platform.sol\":4772:4786  getListingInfo */\n      tag_65\n        /* \"platform.sol\":4772:4800  getListingInfo(listingIndex) */\n      jump\t// in\n    tag_95:\n        /* \"platform.sol\":4746:4800  ListingInfo memory info = getListingInfo(listingIndex) */\n      swap1\n      pop\n        /* \"platform.sol\":4810:4832  uint256 interestPerDay */\n      0x00\n        /* \"platform.sol\":4867:4876  yearToDay */\n      sload(0x05)\n        /* \"platform.sol\":4861:4864  100 */\n      0x64\n        /* \"platform.sol\":4850:4854  info */\n      dup4\n        /* \"platform.sol\":4850:4858  info.APR */\n      0xa0\n      add\n      mload\n        /* \"platform.sol\":4850:4864  info.APR / 100 */\n      tag_96\n      swap2\n      swap1\n      tag_97\n      jump\t// in\n    tag_96:\n        /* \"platform.sol\":4850:4876  info.APR / 100 / yearToDay */\n      tag_98\n      swap2\n      swap1\n      tag_97\n      jump\t// in\n    tag_98:\n        /* \"platform.sol\":4835:4839  info */\n      dup3\n        /* \"platform.sol\":4835:4846  info.amount */\n      0x60\n      add\n      mload\n        /* \"platform.sol\":4835:4877  info.amount * (info.APR / 100 / yearToDay) */\n      tag_99\n      swap2\n      swap1\n      tag_100\n      jump\t// in\n    tag_99:\n        /* \"platform.sol\":4810:4877  uint256 interestPerDay = info.amount * (info.APR / 100 / yearToDay) */\n      swap1\n      pop\n        /* \"platform.sol\":4887:4906  uint256 elapsedDays */\n      0x00\n        /* \"platform.sol\":4958:4966  dayToSec */\n      sload(0x07)\n        /* \"platform.sol\":4928:4939  updatedTime */\n      0x02\n        /* \"platform.sol\":4928:4953  updatedTime[listingIndex] */\n      0x00\n        /* \"platform.sol\":4940:4952  listingIndex */\n      dup8\n        /* \"platform.sol\":4928:4953  updatedTime[listingIndex] */\n      dup2\n      mstore\n      0x20\n      add\n      swap1\n      dup2\n      mstore\n      0x20\n      add\n      0x00\n      keccak256\n      sload\n        /* \"platform.sol\":4910:4925  block.timestamp */\n      timestamp\n        /* \"platform.sol\":4910:4953  block.timestamp - updatedTime[listingIndex] */\n      tag_101\n      swap2\n      swap1\n      tag_102\n      jump\t// in\n    tag_101:\n        /* \"platform.sol\":4909:4966  (block.timestamp - updatedTime[listingIndex]) /  dayToSec */\n      tag_103\n      swap2\n      swap1\n      tag_97\n      jump\t// in\n    tag_103:\n        /* \"platform.sol\":4887:4966  uint256 elapsedDays = (block.timestamp - updatedTime[listingIndex]) /  dayToSec */\n      swap1\n      pop\n        /* \"platform.sol\":4976:4993  uint256 sumResult */\n      0x00\n        /* \"platform.sol\":5027:5038  elapsedDays */\n      dup2\n        /* \"platform.sol\":5010:5024  interestPerDay */\n      dup4\n        /* \"platform.sol\":5010:5038  interestPerDay * elapsedDays */\n      tag_104\n      swap2\n      swap1\n      tag_100\n      jump\t// in\n    tag_104:\n        /* \"platform.sol\":4996:5000  info */\n      dup5\n        /* \"platform.sol\":4996:5007  info.amount */\n      0x60\n      add\n      mload\n        /* \"platform.sol\":4996:5038  info.amount + interestPerDay * elapsedDays */\n      tag_105\n      swap2\n      swap1\n      tag_106\n      jump\t// in\n    tag_105:\n        /* \"platform.sol\":4976:5038  uint256 sumResult = info.amount + interestPerDay * elapsedDays */\n      swap1\n      pop\n        /* \"platform.sol\":5055:5064  sumResult */\n      dup1\n        /* \"platform.sol\":5048:5064  return sumResult */\n      swap5\n      pop\n      pop\n      pop\n      pop\n      pop\n        /* \"platform.sol\":4654:5071  function calculateRepayAmount(uint256 listingIndex) public view returns (uint256) {... */\n      swap2\n      swap1\n      pop\n      jump\t// out\n        /* \"platform.sol\":1329:1481  function ownerOf(address collectionAddr, uint256 tokenId) public view returns (address) {... */\n    tag_38:\n        /* \"platform.sol\":1408:1415  address */\n      0x00\n        /* \"platform.sol\":1442:1456  collectionAddr */\n      dup3\n        /* \"platform.sol\":1434:1465  IERC721(collectionAddr).ownerOf */\n      0xffffffffffffffffffffffffffffffffffffffff\n      and\n      0x6352211e\n        /* \"platform.sol\":1466:1473  tokenId */\n      dup4\n        /* \"platform.sol\":1434:1474  IERC721(collectionAddr).ownerOf(tokenId) */\n      mload(0x40)\n      dup3\n      0xffffffff\n      and\n      0xe0\n      shl\n      dup2\n      mstore\n      0x04\n      add\n      tag_108\n      swap2\n      swap1\n      tag_34\n      jump\t// in\n    tag_108:\n      0x20\n      mload(0x40)\n      dup1\n      dup4\n      sub\n      dup2\n      dup7\n      gas\n      staticcall\n      iszero\n      dup1\n      iszero\n      tag_110\n      jumpi\n      returndatasize\n      0x00\n      dup1\n      returndatacopy\n      revert(0x00, returndatasize)\n    tag_110:\n      pop\n      pop\n      pop\n      pop\n      mload(0x40)\n      returndatasize\n      not(0x1f)\n      0x1f\n      dup3\n      add\n      and\n      dup3\n      add\n      dup1\n      0x40\n      mstore\n      pop\n      dup2\n      add\n      swap1\n      tag_111\n      swap2\n      swap1\n      tag_112\n      jump\t// in\n    tag_111:\n        /* \"platform.sol\":1427:1474  return IERC721(collectionAddr).ownerOf(tokenId) */\n      swap1\n      pop\n        /* \"platform.sol\":1329:1481  function ownerOf(address collectionAddr, uint256 tokenId) public view returns (address) {... */\n      swap3\n      swap2\n      pop\n      pop\n      jump\t// out\n        /* \"platform.sol\":1487:1648  function isApprove(address collectionAddr) public view returns (bool) {... */\n    tag_43:\n        /* \"platform.sol\":1551:1555  bool */\n      0x00\n        /* \"platform.sol\":1582:1596  collectionAddr */\n      dup2\n        /* \"platform.sol\":1574:1614  IERC721(collectionAddr).isApprovedForAll */\n      0xffffffffffffffffffffffffffffffffffffffff\n      and\n      0xe985e9c5\n        /* \"platform.sol\":1615:1625  msg.sender */\n      caller\n        /* \"platform.sol\":1635:1639  this */\n      address\n        /* \"platform.sol\":1574:1641  IERC721(collectionAddr).isApprovedForAll(msg.sender, address(this)) */\n      mload(0x40)\n      dup4\n      0xffffffff\n      and\n      0xe0\n      shl\n      dup2\n      mstore\n      0x04\n      add\n      tag_114\n      swap3\n      swap2\n      swap1\n      tag_115\n      jump\t// in\n    tag_114:\n      0x20\n      mload(0x40)\n      dup1\n      dup4\n      sub\n      dup2\n      dup7\n      gas\n      staticcall\n      iszero\n      dup1\n      iszero\n      tag_117\n      jumpi\n      returndatasize\n      0x00\n      dup1\n      returndatacopy\n      revert(0x00, returndatasize)\n    tag_117:\n      pop\n      pop\n      pop\n      pop\n      mload(0x40)\n      returndatasize\n      not(0x1f)\n      0x1f\n      dup3\n      add\n      and\n      dup3\n      add\n      dup1\n      0x40\n      mstore\n      pop\n      dup2\n      add\n      swap1\n      tag_118\n      swap2\n      swap1\n      tag_119\n      jump\t// in\n    tag_118:\n        /* \"platform.sol\":1567:1641  return IERC721(collectionAddr).isApprovedForAll(msg.sender, address(this)) */\n      swap1\n      pop\n        /* \"platform.sol\":1487:1648  function isApprove(address collectionAddr) public view returns (bool) {... */\n      swap2\n      swap1\n      pop\n      jump\t// out\n        /* \"platform.sol\":5081:5407  function giveBackNFT(ListingInfo memory info) public {... */\n    tag_49:\n        /* \"platform.sol\":5167:5177  msg.sender */\n      caller\n        /* \"platform.sol\":5152:5177  info.poster == msg.sender */\n      0xffffffffffffffffffffffffffffffffffffffff\n      and\n        /* \"platform.sol\":5152:5156  info */\n      dup2\n        /* \"platform.sol\":5152:5163  info.poster */\n      0x00\n      add\n      mload\n        /* \"platform.sol\":5152:5177  info.poster == msg.sender */\n      0xffffffffffffffffffffffffffffffffffffffff\n      and\n      eq\n        /* \"platform.sol\":5144:5200  require(info.poster == msg.sender, \"You are not poster\") */\n      tag_121\n      jumpi\n      mload(0x40)\n      0x08c379a000000000000000000000000000000000000000000000000000000000\n      dup2\n      mstore\n      0x04\n      add\n      tag_122\n      swap1\n      tag_123\n      jump\t// in\n    tag_122:\n      mload(0x40)\n      dup1\n      swap2\n      sub\n      swap1\n      revert\n    tag_121:\n        /* \"platform.sol\":5233:5251  bytes32(\"repayed\") */\n      0x7265706179656400000000000000000000000000000000000000000000000000\n        /* \"platform.sol\":5218:5222  info */\n      dup2\n        /* \"platform.sol\":5218:5229  info.status */\n      0xc0\n      add\n      mload\n        /* \"platform.sol\":5218:5251  info.status == bytes32(\"repayed\") */\n      eq\n        /* \"platform.sol\":5210:5276  require(info.status == bytes32(\"repayed\"), \"This isn't repay yet\") */\n      tag_124\n      jumpi\n      mload(0x40)\n      0x08c379a000000000000000000000000000000000000000000000000000000000\n      dup2\n      mstore\n      0x04\n      add\n      tag_125\n      swap1\n      tag_126\n      jump\t// in\n    tag_125:\n      mload(0x40)\n      dup1\n      swap2\n      sub\n      swap1\n      revert\n    tag_124:\n        /* \"platform.sol\":5294:5298  info */\n      dup1\n        /* \"platform.sol\":5294:5313  info.collectionAddr */\n      0x20\n      add\n      mload\n        /* \"platform.sol\":5286:5327  IERC721(info.collectionAddr).transferFrom */\n      0xffffffffffffffffffffffffffffffffffffffff\n      and\n      0x23b872dd\n        /* \"platform.sol\":5336:5340  this */\n      address\n        /* \"platform.sol\":5343:5353  msg.sender */\n      caller\n        /* \"platform.sol\":5355:5359  info */\n      dup5\n        /* \"platform.sol\":5355:5367  info.tokenId */\n      0x40\n      add\n      mload\n        /* \"platform.sol\":5286:5368  IERC721(info.collectionAddr).transferFrom(address(this), msg.sender, info.tokenId) */\n      mload(0x40)\n      dup5\n      0xffffffff\n      and\n      0xe0\n      shl\n      dup2\n      mstore\n      0x04\n      add\n      tag_127\n      swap4\n      swap3\n      swap2\n      swap1\n      tag_128\n      jump\t// in\n    tag_127:\n      0x00\n      mload(0x40)\n      dup1\n      dup4\n      sub\n      dup2\n      0x00\n      dup8\n      dup1\n      extcodesize\n      iszero\n      dup1\n      iszero\n      tag_129\n      jumpi\n      0x00\n      dup1\n      revert\n    tag_129:\n      pop\n      gas\n      call\n      iszero\n      dup1\n      iszero\n      tag_131\n      jumpi\n      returndatasize\n      0x00\n      dup1\n      returndatacopy\n      revert(0x00, returndatasize)\n    tag_131:\n      pop\n      pop\n      pop\n      pop\n        /* \"platform.sol\":5378:5400  info.status = \"closed\" */\n      0x636c6f7365640000000000000000000000000000000000000000000000000000\n        /* \"platform.sol\":5378:5382  info */\n      dup2\n        /* \"platform.sol\":5378:5389  info.status */\n      0xc0\n      add\n        /* \"platform.sol\":5378:5400  info.status = \"closed\" */\n      dup2\n      dup2\n      mstore\n      pop\n      pop\n        /* \"platform.sol\":5081:5407  function giveBackNFT(ListingInfo memory info) public {... */\n      pop\n      jump\t// out\n        /* \"platform.sol\":2849:2958  function updateTime(uint256 listingIndex) public {... */\n    tag_52:\n        /* \"platform.sol\":2936:2951  block.timestamp */\n      timestamp\n        /* \"platform.sol\":2908:2919  updatedTime */\n      0x02\n        /* \"platform.sol\":2908:2933  updatedTime[listingIndex] */\n      0x00\n        /* \"platform.sol\":2920:2932  listingIndex */\n      dup4\n        /* \"platform.sol\":2908:2933  updatedTime[listingIndex] */\n      dup2\n      mstore\n      0x20\n      add\n      swap1\n      dup2\n      mstore\n      0x20\n      add\n      0x00\n      keccak256\n        /* \"platform.sol\":2908:2951  updatedTime[listingIndex] = block.timestamp */\n      dup2\n      swap1\n      sstore\n      pop\n        /* \"platform.sol\":2849:2958  function updateTime(uint256 listingIndex) public {... */\n      pop\n      jump\t// out\n        /* \"platform.sol\":1654:2398  function openListing(... */\n    tag_56:\n        /* \"platform.sol\":1843:1844  0 */\n      0x00\n        /* \"platform.sol\":1834:1840  amount */\n      dup4\n        /* \"platform.sol\":1834:1844  amount > 0 */\n      gt\n        /* \"platform.sol\":1834:1860  amount > 0 && duration > 0 */\n      dup1\n      iszero\n      tag_134\n      jumpi\n      pop\n        /* \"platform.sol\":1859:1860  0 */\n      0x00\n        /* \"platform.sol\":1848:1856  duration */\n      dup3\n        /* \"platform.sol\":1848:1860  duration > 0 */\n      gt\n        /* \"platform.sol\":1834:1860  amount > 0 && duration > 0 */\n    tag_134:\n        /* \"platform.sol\":1834:1871  amount > 0 && duration > 0 && APR > 0 */\n      dup1\n      iszero\n      tag_135\n      jumpi\n      pop\n        /* \"platform.sol\":1870:1871  0 */\n      0x00\n        /* \"platform.sol\":1864:1867  APR */\n      dup2\n        /* \"platform.sol\":1864:1871  APR > 0 */\n      gt\n        /* \"platform.sol\":1834:1871  amount > 0 && duration > 0 && APR > 0 */\n    tag_135:\n        /* \"platform.sol\":1826:1908  require(amount > 0 && duration > 0 && APR > 0, \"Values must be greater than zero\") */\n      tag_136\n      jumpi\n      mload(0x40)\n      0x08c379a000000000000000000000000000000000000000000000000000000000\n      dup2\n      mstore\n      0x04\n      add\n      tag_137\n      swap1\n      tag_138\n      jump\t// in\n    tag_137:\n      mload(0x40)\n      dup1\n      swap2\n      sub\n      swap1\n      revert\n    tag_136:\n        /* \"platform.sol\":1970:1980  msg.sender */\n      caller\n        /* \"platform.sol\":1926:1980  IERC721(collectionAddr).ownerOf(tokenId) == msg.sender */\n      0xffffffffffffffffffffffffffffffffffffffff\n      and\n        /* \"platform.sol\":1934:1948  collectionAddr */\n      dup6\n        /* \"platform.sol\":1926:1957  IERC721(collectionAddr).ownerOf */\n      0xffffffffffffffffffffffffffffffffffffffff\n      and\n      0x6352211e\n        /* \"platform.sol\":1958:1965  tokenId */\n      dup7\n        /* \"platform.sol\":1926:1966  IERC721(collectionAddr).ownerOf(tokenId) */\n      mload(0x40)\n      dup3\n      0xffffffff\n      and\n      0xe0\n      shl\n      dup2\n      mstore\n      0x04\n      add\n      tag_139\n      swap2\n      swap1\n      tag_34\n      jump\t// in\n    tag_139:\n      0x20\n      mload(0x40)\n      dup1\n      dup4\n      sub\n      dup2\n      dup7\n      gas\n      staticcall\n      iszero\n      dup1\n      iszero\n      tag_141\n      jumpi\n      returndatasize\n      0x00\n      dup1\n      returndatacopy\n      revert(0x00, returndatasize)\n    tag_141:\n      pop\n      pop\n      pop\n      pop\n      mload(0x40)\n      returndatasize\n      not(0x1f)\n      0x1f\n      dup3\n      add\n      and\n      dup3\n      add\n      dup1\n      0x40\n      mstore\n      pop\n      dup2\n      add\n      swap1\n      tag_142\n      swap2\n      swap1\n      tag_112\n      jump\t// in\n    tag_142:\n        /* \"platform.sol\":1926:1980  IERC721(collectionAddr).ownerOf(tokenId) == msg.sender */\n      0xffffffffffffffffffffffffffffffffffffffff\n      and\n      eq\n        /* \"platform.sol\":1918:2017  require(IERC721(collectionAddr).ownerOf(tokenId) == msg.sender, \"You are not holder of this token\") */\n      tag_143\n      jumpi\n      mload(0x40)\n      0x08c379a000000000000000000000000000000000000000000000000000000000\n      dup2\n      mstore\n      0x04\n      add\n      tag_144\n      swap1\n      tag_145\n      jump\t// in\n    tag_144:\n      mload(0x40)\n      dup1\n      swap2\n      sub\n      swap1\n      revert\n    tag_143:\n        /* \"platform.sol\":2027:2050  ListingInfo memory info */\n      0x00\n        /* \"platform.sol\":2053:2141  ListingInfo(payable(msg.sender), collectionAddr, tokenId, amount, duration, APR, \"open\") */\n      mload(0x40)\n      dup1\n      0xe0\n      add\n      0x40\n      mstore\n      dup1\n        /* \"platform.sol\":2073:2083  msg.sender */\n      caller\n        /* \"platform.sol\":2053:2141  ListingInfo(payable(msg.sender), collectionAddr, tokenId, amount, duration, APR, \"open\") */\n      0xffffffffffffffffffffffffffffffffffffffff\n      and\n      dup2\n      mstore\n      0x20\n      add\n        /* \"platform.sol\":2086:2100  collectionAddr */\n      dup8\n        /* \"platform.sol\":2053:2141  ListingInfo(payable(msg.sender), collectionAddr, tokenId, amount, duration, APR, \"open\") */\n      0xffffffffffffffffffffffffffffffffffffffff\n      and\n      dup2\n      mstore\n      0x20\n      add\n        /* \"platform.sol\":2102:2109  tokenId */\n      dup7\n        /* \"platform.sol\":2053:2141  ListingInfo(payable(msg.sender), collectionAddr, tokenId, amount, duration, APR, \"open\") */\n      dup2\n      mstore\n      0x20\n      add\n        /* \"platform.sol\":2111:2117  amount */\n      dup6\n        /* \"platform.sol\":2053:2141  ListingInfo(payable(msg.sender), collectionAddr, tokenId, amount, duration, APR, \"open\") */\n      dup2\n      mstore\n      0x20\n      add\n        /* \"platform.sol\":2119:2127  duration */\n      dup5\n        /* \"platform.sol\":2053:2141  ListingInfo(payable(msg.sender), collectionAddr, tokenId, amount, duration, APR, \"open\") */\n      dup2\n      mstore\n      0x20\n      add\n        /* \"platform.sol\":2129:2132  APR */\n      dup4\n        /* \"platform.sol\":2053:2141  ListingInfo(payable(msg.sender), collectionAddr, tokenId, amount, duration, APR, \"open\") */\n      dup2\n      mstore\n      0x20\n      add\n      0x6f70656e00000000000000000000000000000000000000000000000000000000\n      dup2\n      mstore\n      pop\n        /* \"platform.sol\":2027:2141  ListingInfo memory info = ListingInfo(payable(msg.sender), collectionAddr, tokenId, amount, duration, APR, \"open\") */\n      swap1\n      pop\n        /* \"platform.sol\":2170:2174  info */\n      dup1\n        /* \"platform.sol\":2151:2158  listNum */\n      0x00\n        /* \"platform.sol\":2151:2167  listNum[counter] */\n      dup1\n        /* \"platform.sol\":2159:2166  counter */\n      sload(0x04)\n        /* \"platform.sol\":2151:2167  listNum[counter] */\n      dup2\n      mstore\n      0x20\n      add\n      swap1\n      dup2\n      mstore\n      0x20\n      add\n      0x00\n      keccak256\n        /* \"platform.sol\":2151:2174  listNum[counter] = info */\n      0x00\n      dup3\n      add\n      mload\n      dup2\n      0x00\n      add\n      exp(0x0100, 0x00)\n      dup2\n      sload\n      dup2\n      0xffffffffffffffffffffffffffffffffffffffff\n      mul\n      not\n      and\n      swap1\n      dup4\n      0xffffffffffffffffffffffffffffffffffffffff\n      and\n      mul\n      or\n      swap1\n      sstore\n      pop\n      0x20\n      dup3\n      add\n      mload\n      dup2\n      0x01\n      add\n      exp(0x0100, 0x00)\n      dup2\n      sload\n      dup2\n      0xffffffffffffffffffffffffffffffffffffffff\n      mul\n      not\n      and\n      swap1\n      dup4\n      0xffffffffffffffffffffffffffffffffffffffff\n      and\n      mul\n      or\n      swap1\n      sstore\n      pop\n      0x40\n      dup3\n      add\n      mload\n      dup2\n      0x02\n      add\n      sstore\n      0x60\n      dup3\n      add\n      mload\n      dup2\n      0x03\n      add\n      sstore\n      0x80\n      dup3\n      add\n      mload\n      dup2\n      0x04\n      add\n      sstore\n      0xa0\n      dup3\n      add\n      mload\n      dup2\n      0x05\n      add\n      sstore\n      0xc0\n      dup3\n      add\n      mload\n      dup2\n      0x06\n      add\n      sstore\n      swap1\n      pop\n      pop\n        /* \"platform.sol\":2184:2192  addrList */\n      0x01\n        /* \"platform.sol\":2184:2204  addrList[msg.sender] */\n      0x00\n        /* \"platform.sol\":2193:2203  msg.sender */\n      caller\n        /* \"platform.sol\":2184:2204  addrList[msg.sender] */\n      0xffffffffffffffffffffffffffffffffffffffff\n      and\n      0xffffffffffffffffffffffffffffffffffffffff\n      and\n      dup2\n      mstore\n      0x20\n      add\n      swap1\n      dup2\n      mstore\n      0x20\n      add\n      0x00\n      keccak256\n        /* \"platform.sol\":2210:2217  counter */\n      sload(0x04)\n        /* \"platform.sol\":2184:2218  addrList[msg.sender].push(counter) */\n      swap1\n      dup1\n      0x01\n      dup2\n      sload\n      add\n      dup1\n      dup3\n      sstore\n      dup1\n      swap2\n      pop\n      pop\n      0x01\n      swap1\n      sub\n      swap1\n      0x00\n      mstore\n      keccak256(0x00, 0x20)\n      add\n      0x00\n      swap1\n      swap2\n      swap1\n      swap2\n      swap1\n      swap2\n      pop\n      sstore\n        /* \"platform.sol\":2236:2250  collectionAddr */\n      dup6\n        /* \"platform.sol\":2228:2264  IERC721(collectionAddr).transferFrom */\n      0xffffffffffffffffffffffffffffffffffffffff\n      and\n      0x23b872dd\n        /* \"platform.sol\":2265:2275  msg.sender */\n      caller\n        /* \"platform.sol\":2285:2289  this */\n      address\n        /* \"platform.sol\":2292:2299  tokenId */\n      dup9\n        /* \"platform.sol\":2228:2300  IERC721(collectionAddr).transferFrom(msg.sender, address(this), tokenId) */\n      mload(0x40)\n      dup5\n      0xffffffff\n      and\n      0xe0\n      shl\n      dup2\n      mstore\n      0x04\n      add\n      tag_147\n      swap4\n      swap3\n      swap2\n      swap1\n      tag_128\n      jump\t// in\n    tag_147:\n      0x00\n      mload(0x40)\n      dup1\n      dup4\n      sub\n      dup2\n      0x00\n      dup8\n      dup1\n      extcodesize\n      iszero\n      dup1\n      iszero\n      tag_148\n      jumpi\n      0x00\n      dup1\n      revert\n    tag_148:\n      pop\n      gas\n      call\n      iszero\n      dup1\n      iszero\n      tag_150\n      jumpi\n      returndatasize\n      0x00\n      dup1\n      returndatacopy\n      revert(0x00, returndatasize)\n    tag_150:\n      pop\n      pop\n      pop\n      pop\n        /* \"platform.sol\":2310:2329  updateTime(counter) */\n      tag_151\n        /* \"platform.sol\":2321:2328  counter */\n      sload(0x04)\n        /* \"platform.sol\":2310:2320  updateTime */\n      tag_52\n        /* \"platform.sol\":2310:2329  updateTime(counter) */\n      jump\t// in\n    tag_151:\n        /* \"platform.sol\":2339:2346  counter */\n      0x04\n      0x00\n        /* \"platform.sol\":2339:2348  counter++ */\n      dup2\n      sload\n      dup1\n      swap3\n      swap2\n      swap1\n      tag_152\n      swap1\n      tag_153\n      jump\t// in\n    tag_152:\n      swap2\n      swap1\n      pop\n      sstore\n      pop\n        /* \"platform.sol\":2363:2391  NewListing(msg.sender, info) */\n      0xf767ad1ae2d5476327f80bef89fbc70354c993e3059ed3d504d127921f60c40b\n        /* \"platform.sol\":2374:2384  msg.sender */\n      caller\n        /* \"platform.sol\":2386:2390  info */\n      dup3\n        /* \"platform.sol\":2363:2391  NewListing(msg.sender, info) */\n      mload(0x40)\n      tag_154\n      swap3\n      swap2\n      swap1\n      tag_93\n      jump\t// in\n    tag_154:\n      mload(0x40)\n      dup1\n      swap2\n      sub\n      swap1\n      log1\n        /* \"platform.sol\":1816:2398  {... */\n      pop\n        /* \"platform.sol\":1654:2398  function openListing(... */\n      pop\n      pop\n      pop\n      pop\n      pop\n      jump\t// out\n        /* \"platform.sol\":1240:1323  function getCounter() public view returns (uint256) {... */\n    tag_58:\n        /* \"platform.sol\":1283:1290  uint256 */\n      0x00\n        /* \"platform.sol\":1309:1316  counter */\n      sload(0x04)\n        /* \"platform.sol\":1302:1316  return counter */\n      swap1\n      pop\n        /* \"platform.sol\":1240:1323  function getCounter() public view returns (uint256) {... */\n      swap1\n      jump\t// out\n        /* \"platform.sol\":4027:4648  function repayLoan(uint256 listingIndex) public {... */\n    tag_62:\n        /* \"platform.sol\":4085:4108  ListingInfo memory info */\n      0x00\n        /* \"platform.sol\":4111:4139  getListingInfo(listingIndex) */\n      tag_157\n        /* \"platform.sol\":4126:4138  listingIndex */\n      dup3\n        /* \"platform.sol\":4111:4125  getListingInfo */\n      tag_65\n        /* \"platform.sol\":4111:4139  getListingInfo(listingIndex) */\n      jump\t// in\n    tag_157:\n        /* \"platform.sol\":4085:4139  ListingInfo memory info = getListingInfo(listingIndex) */\n      swap1\n      pop\n        /* \"platform.sol\":4172:4182  msg.sender */\n      caller\n        /* \"platform.sol\":4157:4182  info.poster == msg.sender */\n      0xffffffffffffffffffffffffffffffffffffffff\n      and\n        /* \"platform.sol\":4157:4161  info */\n      dup2\n        /* \"platform.sol\":4157:4168  info.poster */\n      0x00\n      add\n      mload\n        /* \"platform.sol\":4157:4182  info.poster == msg.sender */\n      0xffffffffffffffffffffffffffffffffffffffff\n      and\n      eq\n        /* \"platform.sol\":4149:4205  require(info.poster == msg.sender, \"You are not poster\") */\n      tag_158\n      jumpi\n      mload(0x40)\n      0x08c379a000000000000000000000000000000000000000000000000000000000\n      dup2\n      mstore\n      0x04\n      add\n      tag_159\n      swap1\n      tag_123\n      jump\t// in\n    tag_159:\n      mload(0x40)\n      dup1\n      swap2\n      sub\n      swap1\n      revert\n    tag_158:\n        /* \"platform.sol\":4309:4328  uint256 repayAmount */\n      0x00\n        /* \"platform.sol\":4331:4365  calculateRepayAmount(listingIndex) */\n      tag_160\n        /* \"platform.sol\":4352:4364  listingIndex */\n      dup4\n        /* \"platform.sol\":4331:4351  calculateRepayAmount */\n      tag_32\n        /* \"platform.sol\":4331:4365  calculateRepayAmount(listingIndex) */\n      jump\t// in\n    tag_160:\n        /* \"platform.sol\":4309:4365  uint256 repayAmount = calculateRepayAmount(listingIndex) */\n      swap1\n      pop\n        /* \"platform.sol\":4397:4407  msg.sender */\n      caller\n        /* \"platform.sol\":4397:4415  msg.sender.balance */\n      0xffffffffffffffffffffffffffffffffffffffff\n      and\n      balance\n        /* \"platform.sol\":4383:4394  repayAmount */\n      dup2\n        /* \"platform.sol\":4383:4415  repayAmount < msg.sender.balance */\n      lt\n        /* \"platform.sol\":4375:4451  require(repayAmount < msg.sender.balance, \"Not enough balance for repaying\") */\n      tag_161\n      jumpi\n      mload(0x40)\n      0x08c379a000000000000000000000000000000000000000000000000000000000\n      dup2\n      mstore\n      0x04\n      add\n      tag_162\n      swap1\n      tag_163\n      jump\t// in\n    tag_162:\n      mload(0x40)\n      dup1\n      swap2\n      sub\n      swap1\n      revert\n    tag_161:\n        /* \"platform.sol\":4516:4539  info.status = \"repayed\" */\n      0x7265706179656400000000000000000000000000000000000000000000000000\n        /* \"platform.sol\":4516:4520  info */\n      dup3\n        /* \"platform.sol\":4516:4527  info.status */\n      0xc0\n      add\n        /* \"platform.sol\":4516:4539  info.status = \"repayed\" */\n      dup2\n      dup2\n      mstore\n      pop\n      pop\n        /* \"platform.sol\":4549:4566  giveBackNFT(info) */\n      tag_164\n        /* \"platform.sol\":4561:4565  info */\n      dup3\n        /* \"platform.sol\":4549:4560  giveBackNFT */\n      tag_49\n        /* \"platform.sol\":4549:4566  giveBackNFT(info) */\n      jump\t// in\n    tag_164:\n        /* \"platform.sol\":4576:4600  updateTime(listingIndex) */\n      tag_165\n        /* \"platform.sol\":4587:4599  listingIndex */\n      dup4\n        /* \"platform.sol\":4576:4586  updateTime */\n      tag_52\n        /* \"platform.sol\":4576:4600  updateTime(listingIndex) */\n      jump\t// in\n    tag_165:\n        /* \"platform.sol\":4615:4641  repaying(msg.sender, info) */\n      0x94e7116aa05f19f109f7fa598f65ade35ab1de8cd3d002b5b2205416e8943e65\n        /* \"platform.sol\":4624:4634  msg.sender */\n      caller\n        /* \"platform.sol\":4636:4640  info */\n      dup4\n        /* \"platform.sol\":4615:4641  repaying(msg.sender, info) */\n      mload(0x40)\n      tag_166\n      swap3\n      swap2\n      swap1\n      tag_93\n      jump\t// in\n    tag_166:\n      mload(0x40)\n      dup1\n      swap2\n      sub\n      swap1\n      log1\n        /* \"platform.sol\":4075:4648  {... */\n      pop\n      pop\n        /* \"platform.sol\":4027:4648  function repayLoan(uint256 listingIndex) public {... */\n      pop\n      jump\t// out\n        /* \"platform.sol\":1120:1234  function getListingInfo(uint256 num) public view returns (ListingInfo memory) {... */\n    tag_65:\n        /* \"platform.sol\":1178:1196  ListingInfo memory */\n      tag_167\n      tag_168\n      jump\t// in\n    tag_167:\n        /* \"platform.sol\":1215:1222  listNum */\n      0x00\n        /* \"platform.sol\":1215:1227  listNum[num] */\n      dup1\n        /* \"platform.sol\":1223:1226  num */\n      dup4\n        /* \"platform.sol\":1215:1227  listNum[num] */\n      dup2\n      mstore\n      0x20\n      add\n      swap1\n      dup2\n      mstore\n      0x20\n      add\n      0x00\n      keccak256\n        /* \"platform.sol\":1208:1227  return listNum[num] */\n      mload(0x40)\n      dup1\n      0xe0\n      add\n      0x40\n      mstore\n      swap1\n      dup2\n      0x00\n      dup3\n      add\n      0x00\n      swap1\n      sload\n      swap1\n      0x0100\n      exp\n      swap1\n      div\n      0xffffffffffffffffffffffffffffffffffffffff\n      and\n      0xffffffffffffffffffffffffffffffffffffffff\n      and\n      0xffffffffffffffffffffffffffffffffffffffff\n      and\n      dup2\n      mstore\n      0x20\n      add\n      0x01\n      dup3\n      add\n      0x00\n      swap1\n      sload\n      swap1\n      0x0100\n      exp\n      swap1\n      div\n      0xffffffffffffffffffffffffffffffffffffffff\n      and\n      0xffffffffffffffffffffffffffffffffffffffff\n      and\n      0xffffffffffffffffffffffffffffffffffffffff\n      and\n      dup2\n      mstore\n      0x20\n      add\n      0x02\n      dup3\n      add\n      sload\n      dup2\n      mstore\n      0x20\n      add\n      0x03\n      dup3\n      add\n      sload\n      dup2\n      mstore\n      0x20\n      add\n      0x04\n      dup3\n      add\n      sload\n      dup2\n      mstore\n      0x20\n      add\n      0x05\n      dup3\n      add\n      sload\n      dup2\n      mstore\n      0x20\n      add\n      0x06\n      dup3\n      add\n      sload\n      dup2\n      mstore\n      pop\n      pop\n      swap1\n      pop\n        /* \"platform.sol\":1120:1234  function getListingInfo(uint256 num) public view returns (ListingInfo memory) {... */\n      swap2\n      swap1\n      pop\n      jump\t// out\n        /* \"platform.sol\":2964:3547  function isExpired(uint256 listingIndex) public view returns (uint256, bool) {... */\n    tag_70:\n        /* \"platform.sol\":3026:3033  uint256 */\n      0x00\n        /* \"platform.sol\":3035:3039  bool */\n      dup1\n        /* \"platform.sol\":3051:3074  ListingInfo memory info */\n      0x00\n        /* \"platform.sol\":3077:3105  getListingInfo(listingIndex) */\n      tag_171\n        /* \"platform.sol\":3092:3104  listingIndex */\n      dup5\n        /* \"platform.sol\":3077:3091  getListingInfo */\n      tag_65\n        /* \"platform.sol\":3077:3105  getListingInfo(listingIndex) */\n      jump\t// in\n    tag_171:\n        /* \"platform.sol\":3051:3105  ListingInfo memory info = getListingInfo(listingIndex) */\n      swap1\n      pop\n        /* \"platform.sol\":3313:3335  uint256 expirationTime */\n      0x00\n        /* \"platform.sol\":3382:3390  minTosec */\n      sload(0x08)\n        /* \"platform.sol\":3366:3370  info */\n      dup3\n        /* \"platform.sol\":3366:3379  info.duration */\n      0x80\n      add\n      mload\n        /* \"platform.sol\":3366:3390  info.duration * minTosec */\n      tag_172\n      swap2\n      swap1\n      tag_100\n      jump\t// in\n    tag_172:\n        /* \"platform.sol\":3338:3349  updatedTime */\n      0x02\n        /* \"platform.sol\":3338:3363  updatedTime[listingIndex] */\n      0x00\n        /* \"platform.sol\":3350:3362  listingIndex */\n      dup8\n        /* \"platform.sol\":3338:3363  updatedTime[listingIndex] */\n      dup2\n      mstore\n      0x20\n      add\n      swap1\n      dup2\n      mstore\n      0x20\n      add\n      0x00\n      keccak256\n      sload\n        /* \"platform.sol\":3338:3390  updatedTime[listingIndex] + info.duration * minTosec */\n      tag_173\n      swap2\n      swap1\n      tag_106\n      jump\t// in\n    tag_173:\n        /* \"platform.sol\":3313:3390  uint256 expirationTime = updatedTime[listingIndex] + info.duration * minTosec */\n      swap1\n      pop\n        /* \"platform.sol\":3433:3454  uint256 remainingTime */\n      0x00\n        /* \"platform.sol\":3474:3489  block.timestamp */\n      timestamp\n        /* \"platform.sol\":3457:3471  expirationTime */\n      dup3\n        /* \"platform.sol\":3457:3489  expirationTime - block.timestamp */\n      tag_174\n      swap2\n      swap1\n      tag_102\n      jump\t// in\n    tag_174:\n        /* \"platform.sol\":3433:3489  uint256 remainingTime = expirationTime - block.timestamp */\n      swap1\n      pop\n        /* \"platform.sol\":3507:3520  remainingTime */\n      dup1\n        /* \"platform.sol\":3538:3539  0 */\n      0x00\n        /* \"platform.sol\":3522:3535  remainingTime */\n      dup3\n        /* \"platform.sol\":3522:3539  remainingTime < 0 */\n      lt\n        /* \"platform.sol\":3499:3540  return (remainingTime, remainingTime < 0) */\n      swap5\n      pop\n      swap5\n      pop\n      pop\n      pop\n      pop\n        /* \"platform.sol\":2964:3547  function isExpired(uint256 listingIndex) public view returns (uint256, bool) {... */\n      swap2\n      pop\n      swap2\n      jump\t// out\n        /* \"platform.sol\":2408:2843  function closeListing(uint256 listingIndex) public {... */\n    tag_75:\n        /* \"platform.sol\":2469:2492  ListingInfo memory info */\n      0x00\n        /* \"platform.sol\":2495:2523  getListingInfo(listingIndex) */\n      tag_176\n        /* \"platform.sol\":2510:2522  listingIndex */\n      dup3\n        /* \"platform.sol\":2495:2509  getListingInfo */\n      tag_65\n        /* \"platform.sol\":2495:2523  getListingInfo(listingIndex) */\n      jump\t// in\n    tag_176:\n        /* \"platform.sol\":2469:2523  ListingInfo memory info = getListingInfo(listingIndex) */\n      swap1\n      pop\n        /* \"platform.sol\":2556:2566  msg.sender */\n      caller\n        /* \"platform.sol\":2541:2566  info.poster == msg.sender */\n      0xffffffffffffffffffffffffffffffffffffffff\n      and\n        /* \"platform.sol\":2541:2545  info */\n      dup2\n        /* \"platform.sol\":2541:2552  info.poster */\n      0x00\n      add\n      mload\n        /* \"platform.sol\":2541:2566  info.poster == msg.sender */\n      0xffffffffffffffffffffffffffffffffffffffff\n      and\n      eq\n        /* \"platform.sol\":2533:2601  require(info.poster == msg.sender, \"You are not poster of the list\") */\n      tag_177\n      jumpi\n      mload(0x40)\n      0x08c379a000000000000000000000000000000000000000000000000000000000\n      dup2\n      mstore\n      0x04\n      add\n      tag_178\n      swap1\n      tag_179\n      jump\t// in\n    tag_178:\n      mload(0x40)\n      dup1\n      swap2\n      sub\n      swap1\n      revert\n    tag_177:\n        /* \"platform.sol\":2634:2649  bytes32(\"open\") */\n      0x6f70656e00000000000000000000000000000000000000000000000000000000\n        /* \"platform.sol\":2619:2623  info */\n      dup2\n        /* \"platform.sol\":2619:2630  info.status */\n      0xc0\n      add\n      mload\n        /* \"platform.sol\":2619:2649  info.status == bytes32(\"open\") */\n      eq\n        /* \"platform.sol\":2611:2670  require(info.status == bytes32(\"open\"), \"Not opening list\") */\n      tag_180\n      jumpi\n      mload(0x40)\n      0x08c379a000000000000000000000000000000000000000000000000000000000\n      dup2\n      mstore\n      0x04\n      add\n      tag_181\n      swap1\n      tag_182\n      jump\t// in\n    tag_181:\n      mload(0x40)\n      dup1\n      swap2\n      sub\n      swap1\n      revert\n    tag_180:\n        /* \"platform.sol\":2734:2756  info.status = \"cancel\" */\n      0x63616e63656c0000000000000000000000000000000000000000000000000000\n        /* \"platform.sol\":2734:2738  info */\n      dup2\n        /* \"platform.sol\":2734:2745  info.status */\n      0xc0\n      add\n        /* \"platform.sol\":2734:2756  info.status = \"cancel\" */\n      dup2\n      dup2\n      mstore\n      pop\n      pop\n        /* \"platform.sol\":2766:2790  updateTime(listingIndex) */\n      tag_183\n        /* \"platform.sol\":2777:2789  listingIndex */\n      dup3\n        /* \"platform.sol\":2766:2776  updateTime */\n      tag_52\n        /* \"platform.sol\":2766:2790  updateTime(listingIndex) */\n      jump\t// in\n    tag_183:\n        /* \"platform.sol\":2805:2836  CancelListing(msg.sender, info) */\n      0x7e885013ca94016b1452b4678f1c43c33cd914617b389322af7f7d97a2c4f585\n        /* \"platform.sol\":2819:2829  msg.sender */\n      caller\n        /* \"platform.sol\":2831:2835  info */\n      dup3\n        /* \"platform.sol\":2805:2836  CancelListing(msg.sender, info) */\n      mload(0x40)\n      tag_184\n      swap3\n      swap2\n      swap1\n      tag_93\n      jump\t// in\n    tag_184:\n      mload(0x40)\n      dup1\n      swap2\n      sub\n      swap1\n      log1\n        /* \"platform.sol\":2459:2843  {... */\n      pop\n        /* \"platform.sol\":2408:2843  function closeListing(uint256 listingIndex) public {... */\n      pop\n      jump\t// out\n        /* \"platform.sol\":658:704  mapping(uint256 => ListingInfo) public listNum */\n    tag_78:\n      mstore(0x20, 0x00)\n      dup1\n      0x00\n      mstore\n      keccak256(0x00, 0x40)\n      0x00\n      swap2\n      pop\n      swap1\n      pop\n      dup1\n      0x00\n      add\n      0x00\n      swap1\n      sload\n      swap1\n      0x0100\n      exp\n      swap1\n      div\n      0xffffffffffffffffffffffffffffffffffffffff\n      and\n      swap1\n      dup1\n      0x01\n      add\n      0x00\n      swap1\n      sload\n      swap1\n      0x0100\n      exp\n      swap1\n      div\n      0xffffffffffffffffffffffffffffffffffffffff\n      and\n      swap1\n      dup1\n      0x02\n      add\n      sload\n      swap1\n      dup1\n      0x03\n      add\n      sload\n      swap1\n      dup1\n      0x04\n      add\n      sload\n      swap1\n      dup1\n      0x05\n      add\n      sload\n      swap1\n      dup1\n      0x06\n      add\n      sload\n      swap1\n      pop\n      dup8\n      jump\t// out\n    tag_168:\n      mload(0x40)\n      dup1\n      0xe0\n      add\n      0x40\n      mstore\n      dup1\n      and(0xffffffffffffffffffffffffffffffffffffffff, 0x00)\n      dup2\n      mstore\n      0x20\n      add\n      and(0xffffffffffffffffffffffffffffffffffffffff, 0x00)\n      dup2\n      mstore\n      0x20\n      add\n      0x00\n      dup2\n      mstore\n      0x20\n      add\n      0x00\n      dup2\n      mstore\n      0x20\n      add\n      0x00\n      dup2\n      mstore\n      0x20\n      add\n      0x00\n      dup2\n      mstore\n      0x20\n      add\n      0x00\n      dup1\n      not\n      and\n      dup2\n      mstore\n      pop\n      swap1\n      jump\t// out\n        /* \"#utility.yul\":7:82   */\n    tag_185:\n        /* \"#utility.yul\":40:46   */\n      0x00\n        /* \"#utility.yul\":73:75   */\n      0x40\n        /* \"#utility.yul\":67:76   */\n      mload\n        /* \"#utility.yul\":57:76   */\n      swap1\n      pop\n        /* \"#utility.yul\":7:82   */\n      swap1\n      jump\t// out\n        /* \"#utility.yul\":88:205   */\n    tag_186:\n        /* \"#utility.yul\":197:198   */\n      0x00\n        /* \"#utility.yul\":194:195   */\n      dup1\n        /* \"#utility.yul\":187:199   */\n      revert\n        /* \"#utility.yul\":334:460   */\n    tag_188:\n        /* \"#utility.yul\":371:378   */\n      0x00\n        /* \"#utility.yul\":411:453   */\n      0xffffffffffffffffffffffffffffffffffffffff\n        /* \"#utility.yul\":404:409   */\n      dup3\n        /* \"#utility.yul\":400:454   */\n      and\n        /* \"#utility.yul\":389:454   */\n      swap1\n      pop\n        /* \"#utility.yul\":334:460   */\n      swap2\n      swap1\n      pop\n      jump\t// out\n        /* \"#utility.yul\":466:562   */\n    tag_189:\n        /* \"#utility.yul\":503:510   */\n      0x00\n        /* \"#utility.yul\":532:556   */\n      tag_253\n        /* \"#utility.yul\":550:555   */\n      dup3\n        /* \"#utility.yul\":532:556   */\n      tag_188\n      jump\t// in\n    tag_253:\n        /* \"#utility.yul\":521:556   */\n      swap1\n      pop\n        /* \"#utility.yul\":466:562   */\n      swap2\n      swap1\n      pop\n      jump\t// out\n        /* \"#utility.yul\":568:690   */\n    tag_190:\n        /* \"#utility.yul\":641:665   */\n      tag_255\n        /* \"#utility.yul\":659:664   */\n      dup2\n        /* \"#utility.yul\":641:665   */\n      tag_189\n      jump\t// in\n    tag_255:\n        /* \"#utility.yul\":634:639   */\n      dup2\n        /* \"#utility.yul\":631:666   */\n      eq\n        /* \"#utility.yul\":621:684   */\n      tag_256\n      jumpi\n        /* \"#utility.yul\":680:681   */\n      0x00\n        /* \"#utility.yul\":677:678   */\n      dup1\n        /* \"#utility.yul\":670:682   */\n      revert\n        /* \"#utility.yul\":621:684   */\n    tag_256:\n        /* \"#utility.yul\":568:690   */\n      pop\n      jump\t// out\n        /* \"#utility.yul\":696:835   */\n    tag_191:\n        /* \"#utility.yul\":742:747   */\n      0x00\n        /* \"#utility.yul\":780:786   */\n      dup2\n        /* \"#utility.yul\":767:787   */\n      calldataload\n        /* \"#utility.yul\":758:787   */\n      swap1\n      pop\n        /* \"#utility.yul\":796:829   */\n      tag_258\n        /* \"#utility.yul\":823:828   */\n      dup2\n        /* \"#utility.yul\":796:829   */\n      tag_190\n      jump\t// in\n    tag_258:\n        /* \"#utility.yul\":696:835   */\n      swap3\n      swap2\n      pop\n      pop\n      jump\t// out\n        /* \"#utility.yul\":841:1170   */\n    tag_22:\n        /* \"#utility.yul\":900:906   */\n      0x00\n        /* \"#utility.yul\":949:951   */\n      0x20\n        /* \"#utility.yul\":937:946   */\n      dup3\n        /* \"#utility.yul\":928:935   */\n      dup5\n        /* \"#utility.yul\":924:947   */\n      sub\n        /* \"#utility.yul\":920:952   */\n      slt\n        /* \"#utility.yul\":917:1036   */\n      iszero\n      tag_260\n      jumpi\n        /* \"#utility.yul\":955:1034   */\n      tag_261\n      tag_186\n      jump\t// in\n    tag_261:\n        /* \"#utility.yul\":917:1036   */\n    tag_260:\n        /* \"#utility.yul\":1075:1076   */\n      0x00\n        /* \"#utility.yul\":1100:1153   */\n      tag_262\n        /* \"#utility.yul\":1145:1152   */\n      dup5\n        /* \"#utility.yul\":1136:1142   */\n      dup3\n        /* \"#utility.yul\":1125:1134   */\n      dup6\n        /* \"#utility.yul\":1121:1143   */\n      add\n        /* \"#utility.yul\":1100:1153   */\n      tag_191\n      jump\t// in\n    tag_262:\n        /* \"#utility.yul\":1090:1153   */\n      swap2\n      pop\n        /* \"#utility.yul\":1046:1163   */\n      pop\n        /* \"#utility.yul\":841:1170   */\n      swap3\n      swap2\n      pop\n      pop\n      jump\t// out\n        /* \"#utility.yul\":1176:1290   */\n    tag_192:\n        /* \"#utility.yul\":1243:1249   */\n      0x00\n        /* \"#utility.yul\":1277:1282   */\n      dup2\n        /* \"#utility.yul\":1271:1283   */\n      mload\n        /* \"#utility.yul\":1261:1283   */\n      swap1\n      pop\n        /* \"#utility.yul\":1176:1290   */\n      swap2\n      swap1\n      pop\n      jump\t// out\n        /* \"#utility.yul\":1296:1480   */\n    tag_193:\n        /* \"#utility.yul\":1395:1406   */\n      0x00\n        /* \"#utility.yul\":1429:1435   */\n      dup3\n        /* \"#utility.yul\":1424:1427   */\n      dup3\n        /* \"#utility.yul\":1417:1436   */\n      mstore\n        /* \"#utility.yul\":1469:1473   */\n      0x20\n        /* \"#utility.yul\":1464:1467   */\n      dup3\n        /* \"#utility.yul\":1460:1474   */\n      add\n        /* \"#utility.yul\":1445:1474   */\n      swap1\n      pop\n        /* \"#utility.yul\":1296:1480   */\n      swap3\n      swap2\n      pop\n      pop\n      jump\t// out\n        /* \"#utility.yul\":1486:1618   */\n    tag_194:\n        /* \"#utility.yul\":1553:1557   */\n      0x00\n        /* \"#utility.yul\":1576:1579   */\n      dup2\n        /* \"#utility.yul\":1568:1579   */\n      swap1\n      pop\n        /* \"#utility.yul\":1606:1610   */\n      0x20\n        /* \"#utility.yul\":1601:1604   */\n      dup3\n        /* \"#utility.yul\":1597:1611   */\n      add\n        /* \"#utility.yul\":1589:1611   */\n      swap1\n      pop\n        /* \"#utility.yul\":1486:1618   */\n      swap2\n      swap1\n      pop\n      jump\t// out\n        /* \"#utility.yul\":1624:1701   */\n    tag_195:\n        /* \"#utility.yul\":1661:1668   */\n      0x00\n        /* \"#utility.yul\":1690:1695   */\n      dup2\n        /* \"#utility.yul\":1679:1695   */\n      swap1\n      pop\n        /* \"#utility.yul\":1624:1701   */\n      swap2\n      swap1\n      pop\n      jump\t// out\n        /* \"#utility.yul\":1707:1815   */\n    tag_196:\n        /* \"#utility.yul\":1784:1808   */\n      tag_268\n        /* \"#utility.yul\":1802:1807   */\n      dup2\n        /* \"#utility.yul\":1784:1808   */\n      tag_195\n      jump\t// in\n    tag_268:\n        /* \"#utility.yul\":1779:1782   */\n      dup3\n        /* \"#utility.yul\":1772:1809   */\n      mstore\n        /* \"#utility.yul\":1707:1815   */\n      pop\n      pop\n      jump\t// out\n        /* \"#utility.yul\":1821:2000   */\n    tag_197:\n        /* \"#utility.yul\":1890:1900   */\n      0x00\n        /* \"#utility.yul\":1911:1957   */\n      tag_270\n        /* \"#utility.yul\":1953:1956   */\n      dup4\n        /* \"#utility.yul\":1945:1951   */\n      dup4\n        /* \"#utility.yul\":1911:1957   */\n      tag_196\n      jump\t// in\n    tag_270:\n        /* \"#utility.yul\":1989:1993   */\n      0x20\n        /* \"#utility.yul\":1984:1987   */\n      dup4\n        /* \"#utility.yul\":1980:1994   */\n      add\n        /* \"#utility.yul\":1966:1994   */\n      swap1\n      pop\n        /* \"#utility.yul\":1821:2000   */\n      swap3\n      swap2\n      pop\n      pop\n      jump\t// out\n        /* \"#utility.yul\":2006:2119   */\n    tag_198:\n        /* \"#utility.yul\":2076:2080   */\n      0x00\n        /* \"#utility.yul\":2108:2112   */\n      0x20\n        /* \"#utility.yul\":2103:2106   */\n      dup3\n        /* \"#utility.yul\":2099:2113   */\n      add\n        /* \"#utility.yul\":2091:2113   */\n      swap1\n      pop\n        /* \"#utility.yul\":2006:2119   */\n      swap2\n      swap1\n      pop\n      jump\t// out\n        /* \"#utility.yul\":2155:2887   */\n    tag_199:\n        /* \"#utility.yul\":2274:2277   */\n      0x00\n        /* \"#utility.yul\":2303:2357   */\n      tag_273\n        /* \"#utility.yul\":2351:2356   */\n      dup3\n        /* \"#utility.yul\":2303:2357   */\n      tag_192\n      jump\t// in\n    tag_273:\n        /* \"#utility.yul\":2373:2459   */\n      tag_274\n        /* \"#utility.yul\":2452:2458   */\n      dup2\n        /* \"#utility.yul\":2447:2450   */\n      dup6\n        /* \"#utility.yul\":2373:2459   */\n      tag_193\n      jump\t// in\n    tag_274:\n        /* \"#utility.yul\":2366:2459   */\n      swap4\n      pop\n        /* \"#utility.yul\":2483:2539   */\n      tag_275\n        /* \"#utility.yul\":2533:2538   */\n      dup4\n        /* \"#utility.yul\":2483:2539   */\n      tag_194\n      jump\t// in\n    tag_275:\n        /* \"#utility.yul\":2562:2569   */\n      dup1\n        /* \"#utility.yul\":2593:2594   */\n      0x00\n        /* \"#utility.yul\":2578:2862   */\n    tag_276:\n        /* \"#utility.yul\":2603:2609   */\n      dup4\n        /* \"#utility.yul\":2600:2601   */\n      dup2\n        /* \"#utility.yul\":2597:2610   */\n      lt\n        /* \"#utility.yul\":2578:2862   */\n      iszero\n      tag_278\n      jumpi\n        /* \"#utility.yul\":2679:2685   */\n      dup2\n        /* \"#utility.yul\":2673:2686   */\n      mload\n        /* \"#utility.yul\":2706:2769   */\n      tag_279\n        /* \"#utility.yul\":2765:2768   */\n      dup9\n        /* \"#utility.yul\":2750:2763   */\n      dup3\n        /* \"#utility.yul\":2706:2769   */\n      tag_197\n      jump\t// in\n    tag_279:\n        /* \"#utility.yul\":2699:2769   */\n      swap8\n      pop\n        /* \"#utility.yul\":2792:2852   */\n      tag_280\n        /* \"#utility.yul\":2845:2851   */\n      dup4\n        /* \"#utility.yul\":2792:2852   */\n      tag_198\n      jump\t// in\n    tag_280:\n        /* \"#utility.yul\":2782:2852   */\n      swap3\n      pop\n        /* \"#utility.yul\":2638:2862   */\n      pop\n        /* \"#utility.yul\":2625:2626   */\n      0x01\n        /* \"#utility.yul\":2622:2623   */\n      dup2\n        /* \"#utility.yul\":2618:2627   */\n      add\n        /* \"#utility.yul\":2613:2627   */\n      swap1\n      pop\n        /* \"#utility.yul\":2578:2862   */\n      jump(tag_276)\n    tag_278:\n        /* \"#utility.yul\":2582:2596   */\n      pop\n        /* \"#utility.yul\":2878:2881   */\n      dup6\n        /* \"#utility.yul\":2871:2881   */\n      swap4\n      pop\n        /* \"#utility.yul\":2279:2887   */\n      pop\n      pop\n      pop\n        /* \"#utility.yul\":2155:2887   */\n      swap3\n      swap2\n      pop\n      pop\n      jump\t// out\n        /* \"#utility.yul\":2893:3266   */\n    tag_25:\n        /* \"#utility.yul\":3036:3040   */\n      0x00\n        /* \"#utility.yul\":3074:3076   */\n      0x20\n        /* \"#utility.yul\":3063:3072   */\n      dup3\n        /* \"#utility.yul\":3059:3077   */\n      add\n        /* \"#utility.yul\":3051:3077   */\n      swap1\n      pop\n        /* \"#utility.yul\":3123:3132   */\n      dup2\n        /* \"#utility.yul\":3117:3121   */\n      dup2\n        /* \"#utility.yul\":3113:3133   */\n      sub\n        /* \"#utility.yul\":3109:3110   */\n      0x00\n        /* \"#utility.yul\":3098:3107   */\n      dup4\n        /* \"#utility.yul\":3094:3111   */\n      add\n        /* \"#utility.yul\":3087:3134   */\n      mstore\n        /* \"#utility.yul\":3151:3259   */\n      tag_282\n        /* \"#utility.yul\":3254:3258   */\n      dup2\n        /* \"#utility.yul\":3245:3251   */\n      dup5\n        /* \"#utility.yul\":3151:3259   */\n      tag_199\n      jump\t// in\n    tag_282:\n        /* \"#utility.yul\":3143:3259   */\n      swap1\n      pop\n        /* \"#utility.yul\":2893:3266   */\n      swap3\n      swap2\n      pop\n      pop\n      jump\t// out\n        /* \"#utility.yul\":3272:3394   */\n    tag_200:\n        /* \"#utility.yul\":3345:3369   */\n      tag_284\n        /* \"#utility.yul\":3363:3368   */\n      dup2\n        /* \"#utility.yul\":3345:3369   */\n      tag_195\n      jump\t// in\n    tag_284:\n        /* \"#utility.yul\":3338:3343   */\n      dup2\n        /* \"#utility.yul\":3335:3370   */\n      eq\n        /* \"#utility.yul\":3325:3388   */\n      tag_285\n      jumpi\n        /* \"#utility.yul\":3384:3385   */\n      0x00\n        /* \"#utility.yul\":3381:3382   */\n      dup1\n        /* \"#utility.yul\":3374:3386   */\n      revert\n        /* \"#utility.yul\":3325:3388   */\n    tag_285:\n        /* \"#utility.yul\":3272:3394   */\n      pop\n      jump\t// out\n        /* \"#utility.yul\":3400:3539   */\n    tag_201:\n        /* \"#utility.yul\":3446:3451   */\n      0x00\n        /* \"#utility.yul\":3484:3490   */\n      dup2\n        /* \"#utility.yul\":3471:3491   */\n      calldataload\n        /* \"#utility.yul\":3462:3491   */\n      swap1\n      pop\n        /* \"#utility.yul\":3500:3533   */\n      tag_287\n        /* \"#utility.yul\":3527:3532   */\n      dup2\n        /* \"#utility.yul\":3500:3533   */\n      tag_200\n      jump\t// in\n    tag_287:\n        /* \"#utility.yul\":3400:3539   */\n      swap3\n      swap2\n      pop\n      pop\n      jump\t// out\n        /* \"#utility.yul\":3545:3874   */\n    tag_28:\n        /* \"#utility.yul\":3604:3610   */\n      0x00\n        /* \"#utility.yul\":3653:3655   */\n      0x20\n        /* \"#utility.yul\":3641:3650   */\n      dup3\n        /* \"#utility.yul\":3632:3639   */\n      dup5\n        /* \"#utility.yul\":3628:3651   */\n      sub\n        /* \"#utility.yul\":3624:3656   */\n      slt\n        /* \"#utility.yul\":3621:3740   */\n      iszero\n      tag_289\n      jumpi\n        /* \"#utility.yul\":3659:3738   */\n      tag_290\n      tag_186\n      jump\t// in\n    tag_290:\n        /* \"#utility.yul\":3621:3740   */\n    tag_289:\n        /* \"#utility.yul\":3779:3780   */\n      0x00\n        /* \"#utility.yul\":3804:3857   */\n      tag_291\n        /* \"#utility.yul\":3849:3856   */\n      dup5\n        /* \"#utility.yul\":3840:3846   */\n      dup3\n        /* \"#utility.yul\":3829:3838   */\n      dup6\n        /* \"#utility.yul\":3825:3847   */\n      add\n        /* \"#utility.yul\":3804:3857   */\n      tag_201\n      jump\t// in\n    tag_291:\n        /* \"#utility.yul\":3794:3857   */\n      swap2\n      pop\n        /* \"#utility.yul\":3750:3867   */\n      pop\n        /* \"#utility.yul\":3545:3874   */\n      swap3\n      swap2\n      pop\n      pop\n      jump\t// out\n        /* \"#utility.yul\":3880:3998   */\n    tag_202:\n        /* \"#utility.yul\":3967:3991   */\n      tag_293\n        /* \"#utility.yul\":3985:3990   */\n      dup2\n        /* \"#utility.yul\":3967:3991   */\n      tag_195\n      jump\t// in\n    tag_293:\n        /* \"#utility.yul\":3962:3965   */\n      dup3\n        /* \"#utility.yul\":3955:3992   */\n      mstore\n        /* \"#utility.yul\":3880:3998   */\n      pop\n      pop\n      jump\t// out\n        /* \"#utility.yul\":4004:4226   */\n    tag_34:\n        /* \"#utility.yul\":4097:4101   */\n      0x00\n        /* \"#utility.yul\":4135:4137   */\n      0x20\n        /* \"#utility.yul\":4124:4133   */\n      dup3\n        /* \"#utility.yul\":4120:4138   */\n      add\n        /* \"#utility.yul\":4112:4138   */\n      swap1\n      pop\n        /* \"#utility.yul\":4148:4219   */\n      tag_295\n        /* \"#utility.yul\":4216:4217   */\n      0x00\n        /* \"#utility.yul\":4205:4214   */\n      dup4\n        /* \"#utility.yul\":4201:4218   */\n      add\n        /* \"#utility.yul\":4192:4198   */\n      dup5\n        /* \"#utility.yul\":4148:4219   */\n      tag_202\n      jump\t// in\n    tag_295:\n        /* \"#utility.yul\":4004:4226   */\n      swap3\n      swap2\n      pop\n      pop\n      jump\t// out\n        /* \"#utility.yul\":4232:4706   */\n    tag_37:\n        /* \"#utility.yul\":4300:4306   */\n      0x00\n        /* \"#utility.yul\":4308:4314   */\n      dup1\n        /* \"#utility.yul\":4357:4359   */\n      0x40\n        /* \"#utility.yul\":4345:4354   */\n      dup4\n        /* \"#utility.yul\":4336:4343   */\n      dup6\n        /* \"#utility.yul\":4332:4355   */\n      sub\n        /* \"#utility.yul\":4328:4360   */\n      slt\n        /* \"#utility.yul\":4325:4444   */\n      iszero\n      tag_297\n      jumpi\n        /* \"#utility.yul\":4363:4442   */\n      tag_298\n      tag_186\n      jump\t// in\n    tag_298:\n        /* \"#utility.yul\":4325:4444   */\n    tag_297:\n        /* \"#utility.yul\":4483:4484   */\n      0x00\n        /* \"#utility.yul\":4508:4561   */\n      tag_299\n        /* \"#utility.yul\":4553:4560   */\n      dup6\n        /* \"#utility.yul\":4544:4550   */\n      dup3\n        /* \"#utility.yul\":4533:4542   */\n      dup7\n        /* \"#utility.yul\":4529:4551   */\n      add\n        /* \"#utility.yul\":4508:4561   */\n      tag_191\n      jump\t// in\n    tag_299:\n        /* \"#utility.yul\":4498:4561   */\n      swap3\n      pop\n        /* \"#utility.yul\":4454:4571   */\n      pop\n        /* \"#utility.yul\":4610:4612   */\n      0x20\n        /* \"#utility.yul\":4636:4689   */\n      tag_300\n        /* \"#utility.yul\":4681:4688   */\n      dup6\n        /* \"#utility.yul\":4672:4678   */\n      dup3\n        /* \"#utility.yul\":4661:4670   */\n      dup7\n        /* \"#utility.yul\":4657:4679   */\n      add\n        /* \"#utility.yul\":4636:4689   */\n      tag_201\n      jump\t// in\n    tag_300:\n        /* \"#utility.yul\":4626:4689   */\n      swap2\n      pop\n        /* \"#utility.yul\":4581:4699   */\n      pop\n        /* \"#utility.yul\":4232:4706   */\n      swap3\n      pop\n      swap3\n      swap1\n      pop\n      jump\t// out\n        /* \"#utility.yul\":4712:4830   */\n    tag_203:\n        /* \"#utility.yul\":4799:4823   */\n      tag_302\n        /* \"#utility.yul\":4817:4822   */\n      dup2\n        /* \"#utility.yul\":4799:4823   */\n      tag_189\n      jump\t// in\n    tag_302:\n        /* \"#utility.yul\":4794:4797   */\n      dup3\n        /* \"#utility.yul\":4787:4824   */\n      mstore\n        /* \"#utility.yul\":4712:4830   */\n      pop\n      pop\n      jump\t// out\n        /* \"#utility.yul\":4836:5058   */\n    tag_40:\n        /* \"#utility.yul\":4929:4933   */\n      0x00\n        /* \"#utility.yul\":4967:4969   */\n      0x20\n        /* \"#utility.yul\":4956:4965   */\n      dup3\n        /* \"#utility.yul\":4952:4970   */\n      add\n        /* \"#utility.yul\":4944:4970   */\n      swap1\n      pop\n        /* \"#utility.yul\":4980:5051   */\n      tag_304\n        /* \"#utility.yul\":5048:5049   */\n      0x00\n        /* \"#utility.yul\":5037:5046   */\n      dup4\n        /* \"#utility.yul\":5033:5050   */\n      add\n        /* \"#utility.yul\":5024:5030   */\n      dup5\n        /* \"#utility.yul\":4980:5051   */\n      tag_203\n      jump\t// in\n    tag_304:\n        /* \"#utility.yul\":4836:5058   */\n      swap3\n      swap2\n      pop\n      pop\n      jump\t// out\n        /* \"#utility.yul\":5064:5154   */\n    tag_204:\n        /* \"#utility.yul\":5098:5105   */\n      0x00\n        /* \"#utility.yul\":5141:5146   */\n      dup2\n        /* \"#utility.yul\":5134:5147   */\n      iszero\n        /* \"#utility.yul\":5127:5148   */\n      iszero\n        /* \"#utility.yul\":5116:5148   */\n      swap1\n      pop\n        /* \"#utility.yul\":5064:5154   */\n      swap2\n      swap1\n      pop\n      jump\t// out\n        /* \"#utility.yul\":5160:5269   */\n    tag_205:\n        /* \"#utility.yul\":5241:5262   */\n      tag_307\n        /* \"#utility.yul\":5256:5261   */\n      dup2\n        /* \"#utility.yul\":5241:5262   */\n      tag_204\n      jump\t// in\n    tag_307:\n        /* \"#utility.yul\":5236:5239   */\n      dup3\n        /* \"#utility.yul\":5229:5263   */\n      mstore\n        /* \"#utility.yul\":5160:5269   */\n      pop\n      pop\n      jump\t// out\n        /* \"#utility.yul\":5275:5485   */\n    tag_45:\n        /* \"#utility.yul\":5362:5366   */\n      0x00\n        /* \"#utility.yul\":5400:5402   */\n      0x20\n        /* \"#utility.yul\":5389:5398   */\n      dup3\n        /* \"#utility.yul\":5385:5403   */\n      add\n        /* \"#utility.yul\":5377:5403   */\n      swap1\n      pop\n        /* \"#utility.yul\":5413:5478   */\n      tag_309\n        /* \"#utility.yul\":5475:5476   */\n      0x00\n        /* \"#utility.yul\":5464:5473   */\n      dup4\n        /* \"#utility.yul\":5460:5477   */\n      add\n        /* \"#utility.yul\":5451:5457   */\n      dup5\n        /* \"#utility.yul\":5413:5478   */\n      tag_205\n      jump\t// in\n    tag_309:\n        /* \"#utility.yul\":5275:5485   */\n      swap3\n      swap2\n      pop\n      pop\n      jump\t// out\n        /* \"#utility.yul\":5491:5608   */\n    tag_206:\n        /* \"#utility.yul\":5600:5601   */\n      0x00\n        /* \"#utility.yul\":5597:5598   */\n      dup1\n        /* \"#utility.yul\":5590:5602   */\n      revert\n        /* \"#utility.yul\":5614:5716   */\n    tag_207:\n        /* \"#utility.yul\":5655:5661   */\n      0x00\n        /* \"#utility.yul\":5706:5708   */\n      0x1f\n        /* \"#utility.yul\":5702:5709   */\n      not\n        /* \"#utility.yul\":5697:5699   */\n      0x1f\n        /* \"#utility.yul\":5690:5695   */\n      dup4\n        /* \"#utility.yul\":5686:5700   */\n      add\n        /* \"#utility.yul\":5682:5710   */\n      and\n        /* \"#utility.yul\":5672:5710   */\n      swap1\n      pop\n        /* \"#utility.yul\":5614:5716   */\n      swap2\n      swap1\n      pop\n      jump\t// out\n        /* \"#utility.yul\":5722:5902   */\n    tag_208:\n        /* \"#utility.yul\":5770:5847   */\n      0x4e487b7100000000000000000000000000000000000000000000000000000000\n        /* \"#utility.yul\":5767:5768   */\n      0x00\n        /* \"#utility.yul\":5760:5848   */\n      mstore\n        /* \"#utility.yul\":5867:5871   */\n      0x41\n        /* \"#utility.yul\":5864:5865   */\n      0x04\n        /* \"#utility.yul\":5857:5872   */\n      mstore\n        /* \"#utility.yul\":5891:5895   */\n      0x24\n        /* \"#utility.yul\":5888:5889   */\n      0x00\n        /* \"#utility.yul\":5881:5896   */\n      revert\n        /* \"#utility.yul\":5908:6189   */\n    tag_209:\n        /* \"#utility.yul\":5991:6018   */\n      tag_314\n        /* \"#utility.yul\":6013:6017   */\n      dup3\n        /* \"#utility.yul\":5991:6018   */\n      tag_207\n      jump\t// in\n    tag_314:\n        /* \"#utility.yul\":5983:5989   */\n      dup2\n        /* \"#utility.yul\":5979:6019   */\n      add\n        /* \"#utility.yul\":6121:6127   */\n      dup2\n        /* \"#utility.yul\":6109:6119   */\n      dup2\n        /* \"#utility.yul\":6106:6128   */\n      lt\n        /* \"#utility.yul\":6085:6103   */\n      0xffffffffffffffff\n        /* \"#utility.yul\":6073:6083   */\n      dup3\n        /* \"#utility.yul\":6070:6104   */\n      gt\n        /* \"#utility.yul\":6067:6129   */\n      or\n        /* \"#utility.yul\":6064:6152   */\n      iszero\n      tag_315\n      jumpi\n        /* \"#utility.yul\":6132:6150   */\n      tag_316\n      tag_208\n      jump\t// in\n    tag_316:\n        /* \"#utility.yul\":6064:6152   */\n    tag_315:\n        /* \"#utility.yul\":6172:6182   */\n      dup1\n        /* \"#utility.yul\":6168:6170   */\n      0x40\n        /* \"#utility.yul\":6161:6183   */\n      mstore\n        /* \"#utility.yul\":5951:6189   */\n      pop\n        /* \"#utility.yul\":5908:6189   */\n      pop\n      pop\n      jump\t// out\n        /* \"#utility.yul\":6195:6324   */\n    tag_210:\n        /* \"#utility.yul\":6229:6235   */\n      0x00\n        /* \"#utility.yul\":6256:6276   */\n      tag_318\n      tag_185\n      jump\t// in\n    tag_318:\n        /* \"#utility.yul\":6246:6276   */\n      swap1\n      pop\n        /* \"#utility.yul\":6285:6318   */\n      tag_319\n        /* \"#utility.yul\":6313:6317   */\n      dup3\n        /* \"#utility.yul\":6305:6311   */\n      dup3\n        /* \"#utility.yul\":6285:6318   */\n      tag_209\n      jump\t// in\n    tag_319:\n        /* \"#utility.yul\":6195:6324   */\n      swap2\n      swap1\n      pop\n      jump\t// out\n        /* \"#utility.yul\":6453:6557   */\n    tag_212:\n        /* \"#utility.yul\":6498:6505   */\n      0x00\n        /* \"#utility.yul\":6527:6551   */\n      tag_322\n        /* \"#utility.yul\":6545:6550   */\n      dup3\n        /* \"#utility.yul\":6527:6551   */\n      tag_188\n      jump\t// in\n    tag_322:\n        /* \"#utility.yul\":6516:6551   */\n      swap1\n      pop\n        /* \"#utility.yul\":6453:6557   */\n      swap2\n      swap1\n      pop\n      jump\t// out\n        /* \"#utility.yul\":6563:6701   */\n    tag_213:\n        /* \"#utility.yul\":6644:6676   */\n      tag_324\n        /* \"#utility.yul\":6670:6675   */\n      dup2\n        /* \"#utility.yul\":6644:6676   */\n      tag_212\n      jump\t// in\n    tag_324:\n        /* \"#utility.yul\":6637:6642   */\n      dup2\n        /* \"#utility.yul\":6634:6677   */\n      eq\n        /* \"#utility.yul\":6624:6695   */\n      tag_325\n      jumpi\n        /* \"#utility.yul\":6691:6692   */\n      0x00\n        /* \"#utility.yul\":6688:6689   */\n      dup1\n        /* \"#utility.yul\":6681:6693   */\n      revert\n        /* \"#utility.yul\":6624:6695   */\n    tag_325:\n        /* \"#utility.yul\":6563:6701   */\n      pop\n      jump\t// out\n        /* \"#utility.yul\":6707:6862   */\n    tag_214:\n        /* \"#utility.yul\":6761:6766   */\n      0x00\n        /* \"#utility.yul\":6799:6805   */\n      dup2\n        /* \"#utility.yul\":6786:6806   */\n      calldataload\n        /* \"#utility.yul\":6777:6806   */\n      swap1\n      pop\n        /* \"#utility.yul\":6815:6856   */\n      tag_327\n        /* \"#utility.yul\":6850:6855   */\n      dup2\n        /* \"#utility.yul\":6815:6856   */\n      tag_213\n      jump\t// in\n    tag_327:\n        /* \"#utility.yul\":6707:6862   */\n      swap3\n      swap2\n      pop\n      pop\n      jump\t// out\n        /* \"#utility.yul\":6868:6945   */\n    tag_215:\n        /* \"#utility.yul\":6905:6912   */\n      0x00\n        /* \"#utility.yul\":6934:6939   */\n      dup2\n        /* \"#utility.yul\":6923:6939   */\n      swap1\n      pop\n        /* \"#utility.yul\":6868:6945   */\n      swap2\n      swap1\n      pop\n      jump\t// out\n        /* \"#utility.yul\":6951:7073   */\n    tag_216:\n        /* \"#utility.yul\":7024:7048   */\n      tag_330\n        /* \"#utility.yul\":7042:7047   */\n      dup2\n        /* \"#utility.yul\":7024:7048   */\n      tag_215\n      jump\t// in\n    tag_330:\n        /* \"#utility.yul\":7017:7022   */\n      dup2\n        /* \"#utility.yul\":7014:7049   */\n      eq\n        /* \"#utility.yul\":7004:7067   */\n      tag_331\n      jumpi\n        /* \"#utility.yul\":7063:7064   */\n      0x00\n        /* \"#utility.yul\":7060:7061   */\n      dup1\n        /* \"#utility.yul\":7053:7065   */\n      revert\n        /* \"#utility.yul\":7004:7067   */\n    tag_331:\n        /* \"#utility.yul\":6951:7073   */\n      pop\n      jump\t// out\n        /* \"#utility.yul\":7079:7218   */\n    tag_217:\n        /* \"#utility.yul\":7125:7130   */\n      0x00\n        /* \"#utility.yul\":7163:7169   */\n      dup2\n        /* \"#utility.yul\":7150:7170   */\n      calldataload\n        /* \"#utility.yul\":7141:7170   */\n      swap1\n      pop\n        /* \"#utility.yul\":7179:7212   */\n      tag_333\n        /* \"#utility.yul\":7206:7211   */\n      dup2\n        /* \"#utility.yul\":7179:7212   */\n      tag_216\n      jump\t// in\n    tag_333:\n        /* \"#utility.yul\":7079:7218   */\n      swap3\n      swap2\n      pop\n      pop\n      jump\t// out\n        /* \"#utility.yul\":7259:8674   */\n    tag_218:\n        /* \"#utility.yul\":7336:7341   */\n      0x00\n        /* \"#utility.yul\":7380:7384   */\n      0xe0\n        /* \"#utility.yul\":7368:7377   */\n      dup3\n        /* \"#utility.yul\":7363:7366   */\n      dup5\n        /* \"#utility.yul\":7359:7378   */\n      sub\n        /* \"#utility.yul\":7355:7385   */\n      slt\n        /* \"#utility.yul\":7352:7469   */\n      iszero\n      tag_335\n      jumpi\n        /* \"#utility.yul\":7388:7467   */\n      tag_336\n      tag_206\n      jump\t// in\n    tag_336:\n        /* \"#utility.yul\":7352:7469   */\n    tag_335:\n        /* \"#utility.yul\":7487:7508   */\n      tag_337\n        /* \"#utility.yul\":7503:7507   */\n      0xe0\n        /* \"#utility.yul\":7487:7508   */\n      tag_210\n      jump\t// in\n    tag_337:\n        /* \"#utility.yul\":7478:7508   */\n      swap1\n      pop\n        /* \"#utility.yul\":7569:7570   */\n      0x00\n        /* \"#utility.yul\":7609:7666   */\n      tag_338\n        /* \"#utility.yul\":7662:7665   */\n      dup5\n        /* \"#utility.yul\":7653:7659   */\n      dup3\n        /* \"#utility.yul\":7642:7651   */\n      dup6\n        /* \"#utility.yul\":7638:7660   */\n      add\n        /* \"#utility.yul\":7609:7666   */\n      tag_214\n      jump\t// in\n    tag_338:\n        /* \"#utility.yul\":7602:7606   */\n      0x00\n        /* \"#utility.yul\":7595:7600   */\n      dup4\n        /* \"#utility.yul\":7591:7607   */\n      add\n        /* \"#utility.yul\":7584:7667   */\n      mstore\n        /* \"#utility.yul\":7518:7678   */\n      pop\n        /* \"#utility.yul\":7747:7749   */\n      0x20\n        /* \"#utility.yul\":7788:7837   */\n      tag_339\n        /* \"#utility.yul\":7833:7836   */\n      dup5\n        /* \"#utility.yul\":7824:7830   */\n      dup3\n        /* \"#utility.yul\":7813:7822   */\n      dup6\n        /* \"#utility.yul\":7809:7831   */\n      add\n        /* \"#utility.yul\":7788:7837   */\n      tag_191\n      jump\t// in\n    tag_339:\n        /* \"#utility.yul\":7781:7785   */\n      0x20\n        /* \"#utility.yul\":7774:7779   */\n      dup4\n        /* \"#utility.yul\":7770:7786   */\n      add\n        /* \"#utility.yul\":7763:7838   */\n      mstore\n        /* \"#utility.yul\":7688:7849   */\n      pop\n        /* \"#utility.yul\":7911:7913   */\n      0x40\n        /* \"#utility.yul\":7952:8001   */\n      tag_340\n        /* \"#utility.yul\":7997:8000   */\n      dup5\n        /* \"#utility.yul\":7988:7994   */\n      dup3\n        /* \"#utility.yul\":7977:7986   */\n      dup6\n        /* \"#utility.yul\":7973:7995   */\n      add\n        /* \"#utility.yul\":7952:8001   */\n      tag_201\n      jump\t// in\n    tag_340:\n        /* \"#utility.yul\":7945:7949   */\n      0x40\n        /* \"#utility.yul\":7938:7943   */\n      dup4\n        /* \"#utility.yul\":7934:7950   */\n      add\n        /* \"#utility.yul\":7927:8002   */\n      mstore\n        /* \"#utility.yul\":7859:8013   */\n      pop\n        /* \"#utility.yul\":8074:8076   */\n      0x60\n        /* \"#utility.yul\":8115:8164   */\n      tag_341\n        /* \"#utility.yul\":8160:8163   */\n      dup5\n        /* \"#utility.yul\":8151:8157   */\n      dup3\n        /* \"#utility.yul\":8140:8149   */\n      dup6\n        /* \"#utility.yul\":8136:8158   */\n      add\n        /* \"#utility.yul\":8115:8164   */\n      tag_201\n      jump\t// in\n    tag_341:\n        /* \"#utility.yul\":8108:8112   */\n      0x60\n        /* \"#utility.yul\":8101:8106   */\n      dup4\n        /* \"#utility.yul\":8097:8113   */\n      add\n        /* \"#utility.yul\":8090:8165   */\n      mstore\n        /* \"#utility.yul\":8023:8176   */\n      pop\n        /* \"#utility.yul\":8239:8242   */\n      0x80\n        /* \"#utility.yul\":8281:8330   */\n      tag_342\n        /* \"#utility.yul\":8326:8329   */\n      dup5\n        /* \"#utility.yul\":8317:8323   */\n      dup3\n        /* \"#utility.yul\":8306:8315   */\n      dup6\n        /* \"#utility.yul\":8302:8324   */\n      add\n        /* \"#utility.yul\":8281:8330   */\n      tag_201\n      jump\t// in\n    tag_342:\n        /* \"#utility.yul\":8274:8278   */\n      0x80\n        /* \"#utility.yul\":8267:8272   */\n      dup4\n        /* \"#utility.yul\":8263:8279   */\n      add\n        /* \"#utility.yul\":8256:8331   */\n      mstore\n        /* \"#utility.yul\":8186:8342   */\n      pop\n        /* \"#utility.yul\":8400:8403   */\n      0xa0\n        /* \"#utility.yul\":8442:8491   */\n      tag_343\n        /* \"#utility.yul\":8487:8490   */\n      dup5\n        /* \"#utility.yul\":8478:8484   */\n      dup3\n        /* \"#utility.yul\":8467:8476   */\n      dup6\n        /* \"#utility.yul\":8463:8485   */\n      add\n        /* \"#utility.yul\":8442:8491   */\n      tag_201\n      jump\t// in\n    tag_343:\n        /* \"#utility.yul\":8435:8439   */\n      0xa0\n        /* \"#utility.yul\":8428:8433   */\n      dup4\n        /* \"#utility.yul\":8424:8440   */\n      add\n        /* \"#utility.yul\":8417:8492   */\n      mstore\n        /* \"#utility.yul\":8352:8503   */\n      pop\n        /* \"#utility.yul\":8564:8567   */\n      0xc0\n        /* \"#utility.yul\":8606:8655   */\n      tag_344\n        /* \"#utility.yul\":8651:8654   */\n      dup5\n        /* \"#utility.yul\":8642:8648   */\n      dup3\n        /* \"#utility.yul\":8631:8640   */\n      dup6\n        /* \"#utility.yul\":8627:8649   */\n      add\n        /* \"#utility.yul\":8606:8655   */\n      tag_217\n      jump\t// in\n    tag_344:\n        /* \"#utility.yul\":8599:8603   */\n      0xc0\n        /* \"#utility.yul\":8592:8597   */\n      dup4\n        /* \"#utility.yul\":8588:8604   */\n      add\n        /* \"#utility.yul\":8581:8656   */\n      mstore\n        /* \"#utility.yul\":8513:8667   */\n      pop\n        /* \"#utility.yul\":7259:8674   */\n      swap3\n      swap2\n      pop\n      pop\n      jump\t// out\n        /* \"#utility.yul\":8680:9066   */\n    tag_48:\n        /* \"#utility.yul\":8767:8773   */\n      0x00\n        /* \"#utility.yul\":8816:8819   */\n      0xe0\n        /* \"#utility.yul\":8804:8813   */\n      dup3\n        /* \"#utility.yul\":8795:8802   */\n      dup5\n        /* \"#utility.yul\":8791:8814   */\n      sub\n        /* \"#utility.yul\":8787:8820   */\n      slt\n        /* \"#utility.yul\":8784:8904   */\n      iszero\n      tag_346\n      jumpi\n        /* \"#utility.yul\":8823:8902   */\n      tag_347\n      tag_186\n      jump\t// in\n    tag_347:\n        /* \"#utility.yul\":8784:8904   */\n    tag_346:\n        /* \"#utility.yul\":8943:8944   */\n      0x00\n        /* \"#utility.yul\":8968:9049   */\n      tag_348\n        /* \"#utility.yul\":9041:9048   */\n      dup5\n        /* \"#utility.yul\":9032:9038   */\n      dup3\n        /* \"#utility.yul\":9021:9030   */\n      dup6\n        /* \"#utility.yul\":9017:9039   */\n      add\n        /* \"#utility.yul\":8968:9049   */\n      tag_218\n      jump\t// in\n    tag_348:\n        /* \"#utility.yul\":8958:9049   */\n      swap2\n      pop\n        /* \"#utility.yul\":8914:9059   */\n      pop\n        /* \"#utility.yul\":8680:9066   */\n      swap3\n      swap2\n      pop\n      pop\n      jump\t// out\n        /* \"#utility.yul\":9072:9983   */\n    tag_55:\n        /* \"#utility.yul\":9167:9173   */\n      0x00\n        /* \"#utility.yul\":9175:9181   */\n      dup1\n        /* \"#utility.yul\":9183:9189   */\n      0x00\n        /* \"#utility.yul\":9191:9197   */\n      dup1\n        /* \"#utility.yul\":9199:9205   */\n      0x00\n        /* \"#utility.yul\":9248:9251   */\n      0xa0\n        /* \"#utility.yul\":9236:9245   */\n      dup7\n        /* \"#utility.yul\":9227:9234   */\n      dup9\n        /* \"#utility.yul\":9223:9246   */\n      sub\n        /* \"#utility.yul\":9219:9252   */\n      slt\n        /* \"#utility.yul\":9216:9336   */\n      iszero\n      tag_350\n      jumpi\n        /* \"#utility.yul\":9255:9334   */\n      tag_351\n      tag_186\n      jump\t// in\n    tag_351:\n        /* \"#utility.yul\":9216:9336   */\n    tag_350:\n        /* \"#utility.yul\":9375:9376   */\n      0x00\n        /* \"#utility.yul\":9400:9453   */\n      tag_352\n        /* \"#utility.yul\":9445:9452   */\n      dup9\n        /* \"#utility.yul\":9436:9442   */\n      dup3\n        /* \"#utility.yul\":9425:9434   */\n      dup10\n        /* \"#utility.yul\":9421:9443   */\n      add\n        /* \"#utility.yul\":9400:9453   */\n      tag_191\n      jump\t// in\n    tag_352:\n        /* \"#utility.yul\":9390:9453   */\n      swap6\n      pop\n        /* \"#utility.yul\":9346:9463   */\n      pop\n        /* \"#utility.yul\":9502:9504   */\n      0x20\n        /* \"#utility.yul\":9528:9581   */\n      tag_353\n        /* \"#utility.yul\":9573:9580   */\n      dup9\n        /* \"#utility.yul\":9564:9570   */\n      dup3\n        /* \"#utility.yul\":9553:9562   */\n      dup10\n        /* \"#utility.yul\":9549:9571   */\n      add\n        /* \"#utility.yul\":9528:9581   */\n      tag_201\n      jump\t// in\n    tag_353:\n        /* \"#utility.yul\":9518:9581   */\n      swap5\n      pop\n        /* \"#utility.yul\":9473:9591   */\n      pop\n        /* \"#utility.yul\":9630:9632   */\n      0x40\n        /* \"#utility.yul\":9656:9709   */\n      tag_354\n        /* \"#utility.yul\":9701:9708   */\n      dup9\n        /* \"#utility.yul\":9692:9698   */\n      dup3\n        /* \"#utility.yul\":9681:9690   */\n      dup10\n        /* \"#utility.yul\":9677:9699   */\n      add\n        /* \"#utility.yul\":9656:9709   */\n      tag_201\n      jump\t// in\n    tag_354:\n        /* \"#utility.yul\":9646:9709   */\n      swap4\n      pop\n        /* \"#utility.yul\":9601:9719   */\n      pop\n        /* \"#utility.yul\":9758:9760   */\n      0x60\n        /* \"#utility.yul\":9784:9837   */\n      tag_355\n        /* \"#utility.yul\":9829:9836   */\n      dup9\n        /* \"#utility.yul\":9820:9826   */\n      dup3\n        /* \"#utility.yul\":9809:9818   */\n      dup10\n        /* \"#utility.yul\":9805:9827   */\n      add\n        /* \"#utility.yul\":9784:9837   */\n      tag_201\n      jump\t// in\n    tag_355:\n        /* \"#utility.yul\":9774:9837   */\n      swap3\n      pop\n        /* \"#utility.yul\":9729:9847   */\n      pop\n        /* \"#utility.yul\":9886:9889   */\n      0x80\n        /* \"#utility.yul\":9913:9966   */\n      tag_356\n        /* \"#utility.yul\":9958:9965   */\n      dup9\n        /* \"#utility.yul\":9949:9955   */\n      dup3\n        /* \"#utility.yul\":9938:9947   */\n      dup10\n        /* \"#utility.yul\":9934:9956   */\n      add\n        /* \"#utility.yul\":9913:9966   */\n      tag_201\n      jump\t// in\n    tag_356:\n        /* \"#utility.yul\":9903:9966   */\n      swap2\n      pop\n        /* \"#utility.yul\":9857:9976   */\n      pop\n        /* \"#utility.yul\":9072:9983   */\n      swap3\n      swap6\n      pop\n      swap3\n      swap6\n      swap1\n      swap4\n      pop\n      jump\t// out\n        /* \"#utility.yul\":9989:10121   */\n    tag_219:\n        /* \"#utility.yul\":10082:10114   */\n      tag_358\n        /* \"#utility.yul\":10108:10113   */\n      dup2\n        /* \"#utility.yul\":10082:10114   */\n      tag_212\n      jump\t// in\n    tag_358:\n        /* \"#utility.yul\":10077:10080   */\n      dup3\n        /* \"#utility.yul\":10070:10115   */\n      mstore\n        /* \"#utility.yul\":9989:10121   */\n      pop\n      pop\n      jump\t// out\n        /* \"#utility.yul\":10127:10235   */\n    tag_220:\n        /* \"#utility.yul\":10204:10228   */\n      tag_360\n        /* \"#utility.yul\":10222:10227   */\n      dup2\n        /* \"#utility.yul\":10204:10228   */\n      tag_189\n      jump\t// in\n    tag_360:\n        /* \"#utility.yul\":10199:10202   */\n      dup3\n        /* \"#utility.yul\":10192:10229   */\n      mstore\n        /* \"#utility.yul\":10127:10235   */\n      pop\n      pop\n      jump\t// out\n        /* \"#utility.yul\":10241:10349   */\n    tag_221:\n        /* \"#utility.yul\":10318:10342   */\n      tag_362\n        /* \"#utility.yul\":10336:10341   */\n      dup2\n        /* \"#utility.yul\":10318:10342   */\n      tag_215\n      jump\t// in\n    tag_362:\n        /* \"#utility.yul\":10313:10316   */\n      dup3\n        /* \"#utility.yul\":10306:10343   */\n      mstore\n        /* \"#utility.yul\":10241:10349   */\n      pop\n      pop\n      jump\t// out\n        /* \"#utility.yul\":10421:11842   */\n    tag_222:\n        /* \"#utility.yul\":10574:10578   */\n      0xe0\n        /* \"#utility.yul\":10569:10572   */\n      dup3\n        /* \"#utility.yul\":10565:10579   */\n      add\n        /* \"#utility.yul\":10663:10667   */\n      0x00\n        /* \"#utility.yul\":10656:10661   */\n      dup3\n        /* \"#utility.yul\":10652:10668   */\n      add\n        /* \"#utility.yul\":10646:10669   */\n      mload\n        /* \"#utility.yul\":10682:10761   */\n      tag_364\n        /* \"#utility.yul\":10755:10759   */\n      0x00\n        /* \"#utility.yul\":10750:10753   */\n      dup6\n        /* \"#utility.yul\":10746:10760   */\n      add\n        /* \"#utility.yul\":10732:10744   */\n      dup3\n        /* \"#utility.yul\":10682:10761   */\n      tag_219\n      jump\t// in\n    tag_364:\n        /* \"#utility.yul\":10589:10771   */\n      pop\n        /* \"#utility.yul\":10863:10867   */\n      0x20\n        /* \"#utility.yul\":10856:10861   */\n      dup3\n        /* \"#utility.yul\":10852:10868   */\n      add\n        /* \"#utility.yul\":10846:10869   */\n      mload\n        /* \"#utility.yul\":10882:10945   */\n      tag_365\n        /* \"#utility.yul\":10939:10943   */\n      0x20\n        /* \"#utility.yul\":10934:10937   */\n      dup6\n        /* \"#utility.yul\":10930:10944   */\n      add\n        /* \"#utility.yul\":10916:10928   */\n      dup3\n        /* \"#utility.yul\":10882:10945   */\n      tag_220\n      jump\t// in\n    tag_365:\n        /* \"#utility.yul\":10781:10955   */\n      pop\n        /* \"#utility.yul\":11040:11044   */\n      0x40\n        /* \"#utility.yul\":11033:11038   */\n      dup3\n        /* \"#utility.yul\":11029:11045   */\n      add\n        /* \"#utility.yul\":11023:11046   */\n      mload\n        /* \"#utility.yul\":11059:11122   */\n      tag_366\n        /* \"#utility.yul\":11116:11120   */\n      0x40\n        /* \"#utility.yul\":11111:11114   */\n      dup6\n        /* \"#utility.yul\":11107:11121   */\n      add\n        /* \"#utility.yul\":11093:11105   */\n      dup3\n        /* \"#utility.yul\":11059:11122   */\n      tag_196\n      jump\t// in\n    tag_366:\n        /* \"#utility.yul\":10965:11132   */\n      pop\n        /* \"#utility.yul\":11216:11220   */\n      0x60\n        /* \"#utility.yul\":11209:11214   */\n      dup3\n        /* \"#utility.yul\":11205:11221   */\n      add\n        /* \"#utility.yul\":11199:11222   */\n      mload\n        /* \"#utility.yul\":11235:11298   */\n      tag_367\n        /* \"#utility.yul\":11292:11296   */\n      0x60\n        /* \"#utility.yul\":11287:11290   */\n      dup6\n        /* \"#utility.yul\":11283:11297   */\n      add\n        /* \"#utility.yul\":11269:11281   */\n      dup3\n        /* \"#utility.yul\":11235:11298   */\n      tag_196\n      jump\t// in\n    tag_367:\n        /* \"#utility.yul\":11142:11308   */\n      pop\n        /* \"#utility.yul\":11394:11398   */\n      0x80\n        /* \"#utility.yul\":11387:11392   */\n      dup3\n        /* \"#utility.yul\":11383:11399   */\n      add\n        /* \"#utility.yul\":11377:11400   */\n      mload\n        /* \"#utility.yul\":11413:11476   */\n      tag_368\n        /* \"#utility.yul\":11470:11474   */\n      0x80\n        /* \"#utility.yul\":11465:11468   */\n      dup6\n        /* \"#utility.yul\":11461:11475   */\n      add\n        /* \"#utility.yul\":11447:11459   */\n      dup3\n        /* \"#utility.yul\":11413:11476   */\n      tag_196\n      jump\t// in\n    tag_368:\n        /* \"#utility.yul\":11318:11486   */\n      pop\n        /* \"#utility.yul\":11567:11571   */\n      0xa0\n        /* \"#utility.yul\":11560:11565   */\n      dup3\n        /* \"#utility.yul\":11556:11572   */\n      add\n        /* \"#utility.yul\":11550:11573   */\n      mload\n        /* \"#utility.yul\":11586:11649   */\n      tag_369\n        /* \"#utility.yul\":11643:11647   */\n      0xa0\n        /* \"#utility.yul\":11638:11641   */\n      dup6\n        /* \"#utility.yul\":11634:11648   */\n      add\n        /* \"#utility.yul\":11620:11632   */\n      dup3\n        /* \"#utility.yul\":11586:11649   */\n      tag_196\n      jump\t// in\n    tag_369:\n        /* \"#utility.yul\":11496:11659   */\n      pop\n        /* \"#utility.yul\":11743:11747   */\n      0xc0\n        /* \"#utility.yul\":11736:11741   */\n      dup3\n        /* \"#utility.yul\":11732:11748   */\n      add\n        /* \"#utility.yul\":11726:11749   */\n      mload\n        /* \"#utility.yul\":11762:11825   */\n      tag_370\n        /* \"#utility.yul\":11819:11823   */\n      0xc0\n        /* \"#utility.yul\":11814:11817   */\n      dup6\n        /* \"#utility.yul\":11810:11824   */\n      add\n        /* \"#utility.yul\":11796:11808   */\n      dup3\n        /* \"#utility.yul\":11762:11825   */\n      tag_221\n      jump\t// in\n    tag_370:\n        /* \"#utility.yul\":11669:11835   */\n      pop\n        /* \"#utility.yul\":10543:11842   */\n      pop\n        /* \"#utility.yul\":10421:11842   */\n      pop\n      pop\n      jump\t// out\n        /* \"#utility.yul\":11848:12183   */\n    tag_67:\n        /* \"#utility.yul\":11997:12001   */\n      0x00\n        /* \"#utility.yul\":12035:12038   */\n      0xe0\n        /* \"#utility.yul\":12024:12033   */\n      dup3\n        /* \"#utility.yul\":12020:12039   */\n      add\n        /* \"#utility.yul\":12012:12039   */\n      swap1\n      pop\n        /* \"#utility.yul\":12049:12176   */\n      tag_372\n        /* \"#utility.yul\":12173:12174   */\n      0x00\n        /* \"#utility.yul\":12162:12171   */\n      dup4\n        /* \"#utility.yul\":12158:12175   */\n      add\n        /* \"#utility.yul\":12149:12155   */\n      dup5\n        /* \"#utility.yul\":12049:12176   */\n      tag_222\n      jump\t// in\n    tag_372:\n        /* \"#utility.yul\":11848:12183   */\n      swap3\n      swap2\n      pop\n      pop\n      jump\t// out\n        /* \"#utility.yul\":12189:12509   */\n    tag_72:\n        /* \"#utility.yul\":12304:12308   */\n      0x00\n        /* \"#utility.yul\":12342:12344   */\n      0x40\n        /* \"#utility.yul\":12331:12340   */\n      dup3\n        /* \"#utility.yul\":12327:12345   */\n      add\n        /* \"#utility.yul\":12319:12345   */\n      swap1\n      pop\n        /* \"#utility.yul\":12355:12426   */\n      tag_374\n        /* \"#utility.yul\":12423:12424   */\n      0x00\n        /* \"#utility.yul\":12412:12421   */\n      dup4\n        /* \"#utility.yul\":12408:12425   */\n      add\n        /* \"#utility.yul\":12399:12405   */\n      dup6\n        /* \"#utility.yul\":12355:12426   */\n      tag_202\n      jump\t// in\n    tag_374:\n        /* \"#utility.yul\":12436:12502   */\n      tag_375\n        /* \"#utility.yul\":12498:12500   */\n      0x20\n        /* \"#utility.yul\":12487:12496   */\n      dup4\n        /* \"#utility.yul\":12483:12501   */\n      add\n        /* \"#utility.yul\":12474:12480   */\n      dup5\n        /* \"#utility.yul\":12436:12502   */\n      tag_205\n      jump\t// in\n    tag_375:\n        /* \"#utility.yul\":12189:12509   */\n      swap4\n      swap3\n      pop\n      pop\n      pop\n      jump\t// out\n        /* \"#utility.yul\":12515:12657   */\n    tag_223:\n        /* \"#utility.yul\":12618:12650   */\n      tag_377\n        /* \"#utility.yul\":12644:12649   */\n      dup2\n        /* \"#utility.yul\":12618:12650   */\n      tag_212\n      jump\t// in\n    tag_377:\n        /* \"#utility.yul\":12613:12616   */\n      dup3\n        /* \"#utility.yul\":12606:12651   */\n      mstore\n        /* \"#utility.yul\":12515:12657   */\n      pop\n      pop\n      jump\t// out\n        /* \"#utility.yul\":12663:12781   */\n    tag_224:\n        /* \"#utility.yul\":12750:12774   */\n      tag_379\n        /* \"#utility.yul\":12768:12773   */\n      dup2\n        /* \"#utility.yul\":12750:12774   */\n      tag_215\n      jump\t// in\n    tag_379:\n        /* \"#utility.yul\":12745:12748   */\n      dup3\n        /* \"#utility.yul\":12738:12775   */\n      mstore\n        /* \"#utility.yul\":12663:12781   */\n      pop\n      pop\n      jump\t// out\n        /* \"#utility.yul\":12787:13705   */\n    tag_80:\n        /* \"#utility.yul\":13064:13068   */\n      0x00\n        /* \"#utility.yul\":13102:13105   */\n      0xe0\n        /* \"#utility.yul\":13091:13100   */\n      dup3\n        /* \"#utility.yul\":13087:13106   */\n      add\n        /* \"#utility.yul\":13079:13106   */\n      swap1\n      pop\n        /* \"#utility.yul\":13116:13203   */\n      tag_381\n        /* \"#utility.yul\":13200:13201   */\n      0x00\n        /* \"#utility.yul\":13189:13198   */\n      dup4\n        /* \"#utility.yul\":13185:13202   */\n      add\n        /* \"#utility.yul\":13176:13182   */\n      dup11\n        /* \"#utility.yul\":13116:13203   */\n      tag_223\n      jump\t// in\n    tag_381:\n        /* \"#utility.yul\":13213:13285   */\n      tag_382\n        /* \"#utility.yul\":13281:13283   */\n      0x20\n        /* \"#utility.yul\":13270:13279   */\n      dup4\n        /* \"#utility.yul\":13266:13284   */\n      add\n        /* \"#utility.yul\":13257:13263   */\n      dup10\n        /* \"#utility.yul\":13213:13285   */\n      tag_203\n      jump\t// in\n    tag_382:\n        /* \"#utility.yul\":13295:13367   */\n      tag_383\n        /* \"#utility.yul\":13363:13365   */\n      0x40\n        /* \"#utility.yul\":13352:13361   */\n      dup4\n        /* \"#utility.yul\":13348:13366   */\n      add\n        /* \"#utility.yul\":13339:13345   */\n      dup9\n        /* \"#utility.yul\":13295:13367   */\n      tag_202\n      jump\t// in\n    tag_383:\n        /* \"#utility.yul\":13377:13449   */\n      tag_384\n        /* \"#utility.yul\":13445:13447   */\n      0x60\n        /* \"#utility.yul\":13434:13443   */\n      dup4\n        /* \"#utility.yul\":13430:13448   */\n      add\n        /* \"#utility.yul\":13421:13427   */\n      dup8\n        /* \"#utility.yul\":13377:13449   */\n      tag_202\n      jump\t// in\n    tag_384:\n        /* \"#utility.yul\":13459:13532   */\n      tag_385\n        /* \"#utility.yul\":13527:13530   */\n      0x80\n        /* \"#utility.yul\":13516:13525   */\n      dup4\n        /* \"#utility.yul\":13512:13531   */\n      add\n        /* \"#utility.yul\":13503:13509   */\n      dup7\n        /* \"#utility.yul\":13459:13532   */\n      tag_202\n      jump\t// in\n    tag_385:\n        /* \"#utility.yul\":13542:13615   */\n      tag_386\n        /* \"#utility.yul\":13610:13613   */\n      0xa0\n        /* \"#utility.yul\":13599:13608   */\n      dup4\n        /* \"#utility.yul\":13595:13614   */\n      add\n        /* \"#utility.yul\":13586:13592   */\n      dup6\n        /* \"#utility.yul\":13542:13615   */\n      tag_202\n      jump\t// in\n    tag_386:\n        /* \"#utility.yul\":13625:13698   */\n      tag_387\n        /* \"#utility.yul\":13693:13696   */\n      0xc0\n        /* \"#utility.yul\":13682:13691   */\n      dup4\n        /* \"#utility.yul\":13678:13697   */\n      add\n        /* \"#utility.yul\":13669:13675   */\n      dup5\n        /* \"#utility.yul\":13625:13698   */\n      tag_224\n      jump\t// in\n    tag_387:\n        /* \"#utility.yul\":12787:13705   */\n      swap9\n      swap8\n      pop\n      pop\n      pop\n      pop\n      pop\n      pop\n      pop\n      pop\n      jump\t// out\n        /* \"#utility.yul\":13711:13880   */\n    tag_225:\n        /* \"#utility.yul\":13795:13806   */\n      0x00\n        /* \"#utility.yul\":13829:13835   */\n      dup3\n        /* \"#utility.yul\":13824:13827   */\n      dup3\n        /* \"#utility.yul\":13817:13836   */\n      mstore\n        /* \"#utility.yul\":13869:13873   */\n      0x20\n        /* \"#utility.yul\":13864:13867   */\n      dup3\n        /* \"#utility.yul\":13860:13874   */\n      add\n        /* \"#utility.yul\":13845:13874   */\n      swap1\n      pop\n        /* \"#utility.yul\":13711:13880   */\n      swap3\n      swap2\n      pop\n      pop\n      jump\t// out\n        /* \"#utility.yul\":13886:14111   */\n    tag_226:\n        /* \"#utility.yul\":14026:14060   */\n      0x596f7520686176656e277420656e6f7567682062616c616e636520666f72206c\n        /* \"#utility.yul\":14022:14023   */\n      0x00\n        /* \"#utility.yul\":14014:14020   */\n      dup3\n        /* \"#utility.yul\":14010:14024   */\n      add\n        /* \"#utility.yul\":14003:14061   */\n      mstore\n        /* \"#utility.yul\":14095:14103   */\n      0x656e64696e670000000000000000000000000000000000000000000000000000\n        /* \"#utility.yul\":14090:14092   */\n      0x20\n        /* \"#utility.yul\":14082:14088   */\n      dup3\n        /* \"#utility.yul\":14078:14093   */\n      add\n        /* \"#utility.yul\":14071:14104   */\n      mstore\n        /* \"#utility.yul\":13886:14111   */\n      pop\n      jump\t// out\n        /* \"#utility.yul\":14117:14483   */\n    tag_227:\n        /* \"#utility.yul\":14259:14262   */\n      0x00\n        /* \"#utility.yul\":14280:14347   */\n      tag_391\n        /* \"#utility.yul\":14344:14346   */\n      0x26\n        /* \"#utility.yul\":14339:14342   */\n      dup4\n        /* \"#utility.yul\":14280:14347   */\n      tag_225\n      jump\t// in\n    tag_391:\n        /* \"#utility.yul\":14273:14347   */\n      swap2\n      pop\n        /* \"#utility.yul\":14356:14449   */\n      tag_392\n        /* \"#utility.yul\":14445:14448   */\n      dup3\n        /* \"#utility.yul\":14356:14449   */\n      tag_226\n      jump\t// in\n    tag_392:\n        /* \"#utility.yul\":14474:14476   */\n      0x40\n        /* \"#utility.yul\":14469:14472   */\n      dup3\n        /* \"#utility.yul\":14465:14477   */\n      add\n        /* \"#utility.yul\":14458:14477   */\n      swap1\n      pop\n        /* \"#utility.yul\":14117:14483   */\n      swap2\n      swap1\n      pop\n      jump\t// out\n        /* \"#utility.yul\":14489:14908   */\n    tag_88:\n        /* \"#utility.yul\":14655:14659   */\n      0x00\n        /* \"#utility.yul\":14693:14695   */\n      0x20\n        /* \"#utility.yul\":14682:14691   */\n      dup3\n        /* \"#utility.yul\":14678:14696   */\n      add\n        /* \"#utility.yul\":14670:14696   */\n      swap1\n      pop\n        /* \"#utility.yul\":14742:14751   */\n      dup2\n        /* \"#utility.yul\":14736:14740   */\n      dup2\n        /* \"#utility.yul\":14732:14752   */\n      sub\n        /* \"#utility.yul\":14728:14729   */\n      0x00\n        /* \"#utility.yul\":14717:14726   */\n      dup4\n        /* \"#utility.yul\":14713:14730   */\n      add\n        /* \"#utility.yul\":14706:14753   */\n      mstore\n        /* \"#utility.yul\":14770:14901   */\n      tag_394\n        /* \"#utility.yul\":14896:14900   */\n      dup2\n        /* \"#utility.yul\":14770:14901   */\n      tag_227\n      jump\t// in\n    tag_394:\n        /* \"#utility.yul\":14762:14901   */\n      swap1\n      pop\n        /* \"#utility.yul\":14489:14908   */\n      swap2\n      swap1\n      pop\n      jump\t// out\n        /* \"#utility.yul\":14914:15359   */\n    tag_93:\n        /* \"#utility.yul\":15091:15095   */\n      0x00\n        /* \"#utility.yul\":15129:15132   */\n      0x0100\n        /* \"#utility.yul\":15118:15127   */\n      dup3\n        /* \"#utility.yul\":15114:15133   */\n      add\n        /* \"#utility.yul\":15106:15133   */\n      swap1\n      pop\n        /* \"#utility.yul\":15143:15214   */\n      tag_396\n        /* \"#utility.yul\":15211:15212   */\n      0x00\n        /* \"#utility.yul\":15200:15209   */\n      dup4\n        /* \"#utility.yul\":15196:15213   */\n      add\n        /* \"#utility.yul\":15187:15193   */\n      dup6\n        /* \"#utility.yul\":15143:15214   */\n      tag_203\n      jump\t// in\n    tag_396:\n        /* \"#utility.yul\":15224:15352   */\n      tag_397\n        /* \"#utility.yul\":15348:15350   */\n      0x20\n        /* \"#utility.yul\":15337:15346   */\n      dup4\n        /* \"#utility.yul\":15333:15351   */\n      add\n        /* \"#utility.yul\":15324:15330   */\n      dup5\n        /* \"#utility.yul\":15224:15352   */\n      tag_222\n      jump\t// in\n    tag_397:\n        /* \"#utility.yul\":14914:15359   */\n      swap4\n      swap3\n      pop\n      pop\n      pop\n      jump\t// out\n        /* \"#utility.yul\":15365:15545   */\n    tag_228:\n        /* \"#utility.yul\":15413:15490   */\n      0x4e487b7100000000000000000000000000000000000000000000000000000000\n        /* \"#utility.yul\":15410:15411   */\n      0x00\n        /* \"#utility.yul\":15403:15491   */\n      mstore\n        /* \"#utility.yul\":15510:15514   */\n      0x12\n        /* \"#utility.yul\":15507:15508   */\n      0x04\n        /* \"#utility.yul\":15500:15515   */\n      mstore\n        /* \"#utility.yul\":15534:15538   */\n      0x24\n        /* \"#utility.yul\":15531:15532   */\n      0x00\n        /* \"#utility.yul\":15524:15539   */\n      revert\n        /* \"#utility.yul\":15551:15731   */\n    tag_229:\n        /* \"#utility.yul\":15599:15676   */\n      0x4e487b7100000000000000000000000000000000000000000000000000000000\n        /* \"#utility.yul\":15596:15597   */\n      0x00\n        /* \"#utility.yul\":15589:15677   */\n      mstore\n        /* \"#utility.yul\":15696:15700   */\n      0x11\n        /* \"#utility.yul\":15693:15694   */\n      0x04\n        /* \"#utility.yul\":15686:15701   */\n      mstore\n        /* \"#utility.yul\":15720:15724   */\n      0x24\n        /* \"#utility.yul\":15717:15718   */\n      0x00\n        /* \"#utility.yul\":15710:15725   */\n      revert\n        /* \"#utility.yul\":15737:15922   */\n    tag_97:\n        /* \"#utility.yul\":15777:15778   */\n      0x00\n        /* \"#utility.yul\":15794:15814   */\n      tag_401\n        /* \"#utility.yul\":15812:15813   */\n      dup3\n        /* \"#utility.yul\":15794:15814   */\n      tag_195\n      jump\t// in\n    tag_401:\n        /* \"#utility.yul\":15789:15814   */\n      swap2\n      pop\n        /* \"#utility.yul\":15828:15848   */\n      tag_402\n        /* \"#utility.yul\":15846:15847   */\n      dup4\n        /* \"#utility.yul\":15828:15848   */\n      tag_195\n      jump\t// in\n    tag_402:\n        /* \"#utility.yul\":15823:15848   */\n      swap3\n      pop\n        /* \"#utility.yul\":15867:15868   */\n      dup3\n        /* \"#utility.yul\":15857:15892   */\n      tag_403\n      jumpi\n        /* \"#utility.yul\":15872:15890   */\n      tag_404\n      tag_228\n      jump\t// in\n    tag_404:\n        /* \"#utility.yul\":15857:15892   */\n    tag_403:\n        /* \"#utility.yul\":15914:15915   */\n      dup3\n        /* \"#utility.yul\":15911:15912   */\n      dup3\n        /* \"#utility.yul\":15907:15916   */\n      div\n        /* \"#utility.yul\":15902:15916   */\n      swap1\n      pop\n        /* \"#utility.yul\":15737:15922   */\n      swap3\n      swap2\n      pop\n      pop\n      jump\t// out\n        /* \"#utility.yul\":15928:16338   */\n    tag_100:\n        /* \"#utility.yul\":15968:15975   */\n      0x00\n        /* \"#utility.yul\":15991:16011   */\n      tag_406\n        /* \"#utility.yul\":16009:16010   */\n      dup3\n        /* \"#utility.yul\":15991:16011   */\n      tag_195\n      jump\t// in\n    tag_406:\n        /* \"#utility.yul\":15986:16011   */\n      swap2\n      pop\n        /* \"#utility.yul\":16025:16045   */\n      tag_407\n        /* \"#utility.yul\":16043:16044   */\n      dup4\n        /* \"#utility.yul\":16025:16045   */\n      tag_195\n      jump\t// in\n    tag_407:\n        /* \"#utility.yul\":16020:16045   */\n      swap3\n      pop\n        /* \"#utility.yul\":16080:16081   */\n      dup3\n        /* \"#utility.yul\":16077:16078   */\n      dup3\n        /* \"#utility.yul\":16073:16082   */\n      mul\n        /* \"#utility.yul\":16102:16132   */\n      tag_408\n        /* \"#utility.yul\":16120:16131   */\n      dup2\n        /* \"#utility.yul\":16102:16132   */\n      tag_195\n      jump\t// in\n    tag_408:\n        /* \"#utility.yul\":16091:16132   */\n      swap2\n      pop\n        /* \"#utility.yul\":16281:16282   */\n      dup3\n        /* \"#utility.yul\":16272:16279   */\n      dup3\n        /* \"#utility.yul\":16268:16283   */\n      div\n        /* \"#utility.yul\":16265:16266   */\n      dup5\n        /* \"#utility.yul\":16262:16284   */\n      eq\n        /* \"#utility.yul\":16242:16243   */\n      dup4\n        /* \"#utility.yul\":16235:16244   */\n      iszero\n        /* \"#utility.yul\":16215:16298   */\n      or\n        /* \"#utility.yul\":16192:16331   */\n      tag_409\n      jumpi\n        /* \"#utility.yul\":16311:16329   */\n      tag_410\n      tag_229\n      jump\t// in\n    tag_410:\n        /* \"#utility.yul\":16192:16331   */\n    tag_409:\n        /* \"#utility.yul\":15976:16338   */\n      pop\n        /* \"#utility.yul\":15928:16338   */\n      swap3\n      swap2\n      pop\n      pop\n      jump\t// out\n        /* \"#utility.yul\":16344:16538   */\n    tag_102:\n        /* \"#utility.yul\":16384:16388   */\n      0x00\n        /* \"#utility.yul\":16404:16424   */\n      tag_412\n        /* \"#utility.yul\":16422:16423   */\n      dup3\n        /* \"#utility.yul\":16404:16424   */\n      tag_195\n      jump\t// in\n    tag_412:\n        /* \"#utility.yul\":16399:16424   */\n      swap2\n      pop\n        /* \"#utility.yul\":16438:16458   */\n      tag_413\n        /* \"#utility.yul\":16456:16457   */\n      dup4\n        /* \"#utility.yul\":16438:16458   */\n      tag_195\n      jump\t// in\n    tag_413:\n        /* \"#utility.yul\":16433:16458   */\n      swap3\n      pop\n        /* \"#utility.yul\":16482:16483   */\n      dup3\n        /* \"#utility.yul\":16479:16480   */\n      dup3\n        /* \"#utility.yul\":16475:16484   */\n      sub\n        /* \"#utility.yul\":16467:16484   */\n      swap1\n      pop\n        /* \"#utility.yul\":16506:16507   */\n      dup2\n        /* \"#utility.yul\":16500:16504   */\n      dup2\n        /* \"#utility.yul\":16497:16508   */\n      gt\n        /* \"#utility.yul\":16494:16531   */\n      iszero\n      tag_414\n      jumpi\n        /* \"#utility.yul\":16511:16529   */\n      tag_415\n      tag_229\n      jump\t// in\n    tag_415:\n        /* \"#utility.yul\":16494:16531   */\n    tag_414:\n        /* \"#utility.yul\":16344:16538   */\n      swap3\n      swap2\n      pop\n      pop\n      jump\t// out\n        /* \"#utility.yul\":16544:16735   */\n    tag_106:\n        /* \"#utility.yul\":16584:16587   */\n      0x00\n        /* \"#utility.yul\":16603:16623   */\n      tag_417\n        /* \"#utility.yul\":16621:16622   */\n      dup3\n        /* \"#utility.yul\":16603:16623   */\n      tag_195\n      jump\t// in\n    tag_417:\n        /* \"#utility.yul\":16598:16623   */\n      swap2\n      pop\n        /* \"#utility.yul\":16637:16657   */\n      tag_418\n        /* \"#utility.yul\":16655:16656   */\n      dup4\n        /* \"#utility.yul\":16637:16657   */\n      tag_195\n      jump\t// in\n    tag_418:\n        /* \"#utility.yul\":16632:16657   */\n      swap3\n      pop\n        /* \"#utility.yul\":16680:16681   */\n      dup3\n        /* \"#utility.yul\":16677:16678   */\n      dup3\n        /* \"#utility.yul\":16673:16682   */\n      add\n        /* \"#utility.yul\":16666:16682   */\n      swap1\n      pop\n        /* \"#utility.yul\":16701:16704   */\n      dup1\n        /* \"#utility.yul\":16698:16699   */\n      dup3\n        /* \"#utility.yul\":16695:16705   */\n      gt\n        /* \"#utility.yul\":16692:16728   */\n      iszero\n      tag_419\n      jumpi\n        /* \"#utility.yul\":16708:16726   */\n      tag_420\n      tag_229\n      jump\t// in\n    tag_420:\n        /* \"#utility.yul\":16692:16728   */\n    tag_419:\n        /* \"#utility.yul\":16544:16735   */\n      swap3\n      swap2\n      pop\n      pop\n      jump\t// out\n        /* \"#utility.yul\":16741:16884   */\n    tag_230:\n        /* \"#utility.yul\":16798:16803   */\n      0x00\n        /* \"#utility.yul\":16829:16835   */\n      dup2\n        /* \"#utility.yul\":16823:16836   */\n      mload\n        /* \"#utility.yul\":16814:16836   */\n      swap1\n      pop\n        /* \"#utility.yul\":16845:16878   */\n      tag_422\n        /* \"#utility.yul\":16872:16877   */\n      dup2\n        /* \"#utility.yul\":16845:16878   */\n      tag_190\n      jump\t// in\n    tag_422:\n        /* \"#utility.yul\":16741:16884   */\n      swap3\n      swap2\n      pop\n      pop\n      jump\t// out\n        /* \"#utility.yul\":16890:17241   */\n    tag_112:\n        /* \"#utility.yul\":16960:16966   */\n      0x00\n        /* \"#utility.yul\":17009:17011   */\n      0x20\n        /* \"#utility.yul\":16997:17006   */\n      dup3\n        /* \"#utility.yul\":16988:16995   */\n      dup5\n        /* \"#utility.yul\":16984:17007   */\n      sub\n        /* \"#utility.yul\":16980:17012   */\n      slt\n        /* \"#utility.yul\":16977:17096   */\n      iszero\n      tag_424\n      jumpi\n        /* \"#utility.yul\":17015:17094   */\n      tag_425\n      tag_186\n      jump\t// in\n    tag_425:\n        /* \"#utility.yul\":16977:17096   */\n    tag_424:\n        /* \"#utility.yul\":17135:17136   */\n      0x00\n        /* \"#utility.yul\":17160:17224   */\n      tag_426\n        /* \"#utility.yul\":17216:17223   */\n      dup5\n        /* \"#utility.yul\":17207:17213   */\n      dup3\n        /* \"#utility.yul\":17196:17205   */\n      dup6\n        /* \"#utility.yul\":17192:17214   */\n      add\n        /* \"#utility.yul\":17160:17224   */\n      tag_230\n      jump\t// in\n    tag_426:\n        /* \"#utility.yul\":17150:17224   */\n      swap2\n      pop\n        /* \"#utility.yul\":17106:17234   */\n      pop\n        /* \"#utility.yul\":16890:17241   */\n      swap3\n      swap2\n      pop\n      pop\n      jump\t// out\n        /* \"#utility.yul\":17247:17579   */\n    tag_115:\n        /* \"#utility.yul\":17368:17372   */\n      0x00\n        /* \"#utility.yul\":17406:17408   */\n      0x40\n        /* \"#utility.yul\":17395:17404   */\n      dup3\n        /* \"#utility.yul\":17391:17409   */\n      add\n        /* \"#utility.yul\":17383:17409   */\n      swap1\n      pop\n        /* \"#utility.yul\":17419:17490   */\n      tag_428\n        /* \"#utility.yul\":17487:17488   */\n      0x00\n        /* \"#utility.yul\":17476:17485   */\n      dup4\n        /* \"#utility.yul\":17472:17489   */\n      add\n        /* \"#utility.yul\":17463:17469   */\n      dup6\n        /* \"#utility.yul\":17419:17490   */\n      tag_203\n      jump\t// in\n    tag_428:\n        /* \"#utility.yul\":17500:17572   */\n      tag_429\n        /* \"#utility.yul\":17568:17570   */\n      0x20\n        /* \"#utility.yul\":17557:17566   */\n      dup4\n        /* \"#utility.yul\":17553:17571   */\n      add\n        /* \"#utility.yul\":17544:17550   */\n      dup5\n        /* \"#utility.yul\":17500:17572   */\n      tag_203\n      jump\t// in\n    tag_429:\n        /* \"#utility.yul\":17247:17579   */\n      swap4\n      swap3\n      pop\n      pop\n      pop\n      jump\t// out\n        /* \"#utility.yul\":17585:17701   */\n    tag_231:\n        /* \"#utility.yul\":17655:17676   */\n      tag_431\n        /* \"#utility.yul\":17670:17675   */\n      dup2\n        /* \"#utility.yul\":17655:17676   */\n      tag_204\n      jump\t// in\n    tag_431:\n        /* \"#utility.yul\":17648:17653   */\n      dup2\n        /* \"#utility.yul\":17645:17677   */\n      eq\n        /* \"#utility.yul\":17635:17695   */\n      tag_432\n      jumpi\n        /* \"#utility.yul\":17691:17692   */\n      0x00\n        /* \"#utility.yul\":17688:17689   */\n      dup1\n        /* \"#utility.yul\":17681:17693   */\n      revert\n        /* \"#utility.yul\":17635:17695   */\n    tag_432:\n        /* \"#utility.yul\":17585:17701   */\n      pop\n      jump\t// out\n        /* \"#utility.yul\":17707:17844   */\n    tag_232:\n        /* \"#utility.yul\":17761:17766   */\n      0x00\n        /* \"#utility.yul\":17792:17798   */\n      dup2\n        /* \"#utility.yul\":17786:17799   */\n      mload\n        /* \"#utility.yul\":17777:17799   */\n      swap1\n      pop\n        /* \"#utility.yul\":17808:17838   */\n      tag_434\n        /* \"#utility.yul\":17832:17837   */\n      dup2\n        /* \"#utility.yul\":17808:17838   */\n      tag_231\n      jump\t// in\n    tag_434:\n        /* \"#utility.yul\":17707:17844   */\n      swap3\n      swap2\n      pop\n      pop\n      jump\t// out\n        /* \"#utility.yul\":17850:18195   */\n    tag_119:\n        /* \"#utility.yul\":17917:17923   */\n      0x00\n        /* \"#utility.yul\":17966:17968   */\n      0x20\n        /* \"#utility.yul\":17954:17963   */\n      dup3\n        /* \"#utility.yul\":17945:17952   */\n      dup5\n        /* \"#utility.yul\":17941:17964   */\n      sub\n        /* \"#utility.yul\":17937:17969   */\n      slt\n        /* \"#utility.yul\":17934:18053   */\n      iszero\n      tag_436\n      jumpi\n        /* \"#utility.yul\":17972:18051   */\n      tag_437\n      tag_186\n      jump\t// in\n    tag_437:\n        /* \"#utility.yul\":17934:18053   */\n    tag_436:\n        /* \"#utility.yul\":18092:18093   */\n      0x00\n        /* \"#utility.yul\":18117:18178   */\n      tag_438\n        /* \"#utility.yul\":18170:18177   */\n      dup5\n        /* \"#utility.yul\":18161:18167   */\n      dup3\n        /* \"#utility.yul\":18150:18159   */\n      dup6\n        /* \"#utility.yul\":18146:18168   */\n      add\n        /* \"#utility.yul\":18117:18178   */\n      tag_232\n      jump\t// in\n    tag_438:\n        /* \"#utility.yul\":18107:18178   */\n      swap2\n      pop\n        /* \"#utility.yul\":18063:18188   */\n      pop\n        /* \"#utility.yul\":17850:18195   */\n      swap3\n      swap2\n      pop\n      pop\n      jump\t// out\n        /* \"#utility.yul\":18201:18369   */\n    tag_233:\n        /* \"#utility.yul\":18341:18361   */\n      0x596f7520617265206e6f7420706f737465720000000000000000000000000000\n        /* \"#utility.yul\":18337:18338   */\n      0x00\n        /* \"#utility.yul\":18329:18335   */\n      dup3\n        /* \"#utility.yul\":18325:18339   */\n      add\n        /* \"#utility.yul\":18318:18362   */\n      mstore\n        /* \"#utility.yul\":18201:18369   */\n      pop\n      jump\t// out\n        /* \"#utility.yul\":18375:18741   */\n    tag_234:\n        /* \"#utility.yul\":18517:18520   */\n      0x00\n        /* \"#utility.yul\":18538:18605   */\n      tag_441\n        /* \"#utility.yul\":18602:18604   */\n      0x12\n        /* \"#utility.yul\":18597:18600   */\n      dup4\n        /* \"#utility.yul\":18538:18605   */\n      tag_225\n      jump\t// in\n    tag_441:\n        /* \"#utility.yul\":18531:18605   */\n      swap2\n      pop\n        /* \"#utility.yul\":18614:18707   */\n      tag_442\n        /* \"#utility.yul\":18703:18706   */\n      dup3\n        /* \"#utility.yul\":18614:18707   */\n      tag_233\n      jump\t// in\n    tag_442:\n        /* \"#utility.yul\":18732:18734   */\n      0x20\n        /* \"#utility.yul\":18727:18730   */\n      dup3\n        /* \"#utility.yul\":18723:18735   */\n      add\n        /* \"#utility.yul\":18716:18735   */\n      swap1\n      pop\n        /* \"#utility.yul\":18375:18741   */\n      swap2\n      swap1\n      pop\n      jump\t// out\n        /* \"#utility.yul\":18747:19166   */\n    tag_123:\n        /* \"#utility.yul\":18913:18917   */\n      0x00\n        /* \"#utility.yul\":18951:18953   */\n      0x20\n        /* \"#utility.yul\":18940:18949   */\n      dup3\n        /* \"#utility.yul\":18936:18954   */\n      add\n        /* \"#utility.yul\":18928:18954   */\n      swap1\n      pop\n        /* \"#utility.yul\":19000:19009   */\n      dup2\n        /* \"#utility.yul\":18994:18998   */\n      dup2\n        /* \"#utility.yul\":18990:19010   */\n      sub\n        /* \"#utility.yul\":18986:18987   */\n      0x00\n        /* \"#utility.yul\":18975:18984   */\n      dup4\n        /* \"#utility.yul\":18971:18988   */\n      add\n        /* \"#utility.yul\":18964:19011   */\n      mstore\n        /* \"#utility.yul\":19028:19159   */\n      tag_444\n        /* \"#utility.yul\":19154:19158   */\n      dup2\n        /* \"#utility.yul\":19028:19159   */\n      tag_234\n      jump\t// in\n    tag_444:\n        /* \"#utility.yul\":19020:19159   */\n      swap1\n      pop\n        /* \"#utility.yul\":18747:19166   */\n      swap2\n      swap1\n      pop\n      jump\t// out\n        /* \"#utility.yul\":19172:19342   */\n    tag_235:\n        /* \"#utility.yul\":19312:19334   */\n      0x546869732069736e277420726570617920796574000000000000000000000000\n        /* \"#utility.yul\":19308:19309   */\n      0x00\n        /* \"#utility.yul\":19300:19306   */\n      dup3\n        /* \"#utility.yul\":19296:19310   */\n      add\n        /* \"#utility.yul\":19289:19335   */\n      mstore\n        /* \"#utility.yul\":19172:19342   */\n      pop\n      jump\t// out\n        /* \"#utility.yul\":19348:19714   */\n    tag_236:\n        /* \"#utility.yul\":19490:19493   */\n      0x00\n        /* \"#utility.yul\":19511:19578   */\n      tag_447\n        /* \"#utility.yul\":19575:19577   */\n      0x14\n        /* \"#utility.yul\":19570:19573   */\n      dup4\n        /* \"#utility.yul\":19511:19578   */\n      tag_225\n      jump\t// in\n    tag_447:\n        /* \"#utility.yul\":19504:19578   */\n      swap2\n      pop\n        /* \"#utility.yul\":19587:19680   */\n      tag_448\n        /* \"#utility.yul\":19676:19679   */\n      dup3\n        /* \"#utility.yul\":19587:19680   */\n      tag_235\n      jump\t// in\n    tag_448:\n        /* \"#utility.yul\":19705:19707   */\n      0x20\n        /* \"#utility.yul\":19700:19703   */\n      dup3\n        /* \"#utility.yul\":19696:19708   */\n      add\n        /* \"#utility.yul\":19689:19708   */\n      swap1\n      pop\n        /* \"#utility.yul\":19348:19714   */\n      swap2\n      swap1\n      pop\n      jump\t// out\n        /* \"#utility.yul\":19720:20139   */\n    tag_126:\n        /* \"#utility.yul\":19886:19890   */\n      0x00\n        /* \"#utility.yul\":19924:19926   */\n      0x20\n        /* \"#utility.yul\":19913:19922   */\n      dup3\n        /* \"#utility.yul\":19909:19927   */\n      add\n        /* \"#utility.yul\":19901:19927   */\n      swap1\n      pop\n        /* \"#utility.yul\":19973:19982   */\n      dup2\n        /* \"#utility.yul\":19967:19971   */\n      dup2\n        /* \"#utility.yul\":19963:19983   */\n      sub\n        /* \"#utility.yul\":19959:19960   */\n      0x00\n        /* \"#utility.yul\":19948:19957   */\n      dup4\n        /* \"#utility.yul\":19944:19961   */\n      add\n        /* \"#utility.yul\":19937:19984   */\n      mstore\n        /* \"#utility.yul\":20001:20132   */\n      tag_450\n        /* \"#utility.yul\":20127:20131   */\n      dup2\n        /* \"#utility.yul\":20001:20132   */\n      tag_236\n      jump\t// in\n    tag_450:\n        /* \"#utility.yul\":19993:20132   */\n      swap1\n      pop\n        /* \"#utility.yul\":19720:20139   */\n      swap2\n      swap1\n      pop\n      jump\t// out\n        /* \"#utility.yul\":20145:20587   */\n    tag_128:\n        /* \"#utility.yul\":20294:20298   */\n      0x00\n        /* \"#utility.yul\":20332:20334   */\n      0x60\n        /* \"#utility.yul\":20321:20330   */\n      dup3\n        /* \"#utility.yul\":20317:20335   */\n      add\n        /* \"#utility.yul\":20309:20335   */\n      swap1\n      pop\n        /* \"#utility.yul\":20345:20416   */\n      tag_452\n        /* \"#utility.yul\":20413:20414   */\n      0x00\n        /* \"#utility.yul\":20402:20411   */\n      dup4\n        /* \"#utility.yul\":20398:20415   */\n      add\n        /* \"#utility.yul\":20389:20395   */\n      dup7\n        /* \"#utility.yul\":20345:20416   */\n      tag_203\n      jump\t// in\n    tag_452:\n        /* \"#utility.yul\":20426:20498   */\n      tag_453\n        /* \"#utility.yul\":20494:20496   */\n      0x20\n        /* \"#utility.yul\":20483:20492   */\n      dup4\n        /* \"#utility.yul\":20479:20497   */\n      add\n        /* \"#utility.yul\":20470:20476   */\n      dup6\n        /* \"#utility.yul\":20426:20498   */\n      tag_203\n      jump\t// in\n    tag_453:\n        /* \"#utility.yul\":20508:20580   */\n      tag_454\n        /* \"#utility.yul\":20576:20578   */\n      0x40\n        /* \"#utility.yul\":20565:20574   */\n      dup4\n        /* \"#utility.yul\":20561:20579   */\n      add\n        /* \"#utility.yul\":20552:20558   */\n      dup5\n        /* \"#utility.yul\":20508:20580   */\n      tag_202\n      jump\t// in\n    tag_454:\n        /* \"#utility.yul\":20145:20587   */\n      swap5\n      swap4\n      pop\n      pop\n      pop\n      pop\n      jump\t// out\n        /* \"#utility.yul\":20593:20775   */\n    tag_237:\n        /* \"#utility.yul\":20733:20767   */\n      0x56616c756573206d7573742062652067726561746572207468616e207a65726f\n        /* \"#utility.yul\":20729:20730   */\n      0x00\n        /* \"#utility.yul\":20721:20727   */\n      dup3\n        /* \"#utility.yul\":20717:20731   */\n      add\n        /* \"#utility.yul\":20710:20768   */\n      mstore\n        /* \"#utility.yul\":20593:20775   */\n      pop\n      jump\t// out\n        /* \"#utility.yul\":20781:21147   */\n    tag_238:\n        /* \"#utility.yul\":20923:20926   */\n      0x00\n        /* \"#utility.yul\":20944:21011   */\n      tag_457\n        /* \"#utility.yul\":21008:21010   */\n      0x20\n        /* \"#utility.yul\":21003:21006   */\n      dup4\n        /* \"#utility.yul\":20944:21011   */\n      tag_225\n      jump\t// in\n    tag_457:\n        /* \"#utility.yul\":20937:21011   */\n      swap2\n      pop\n        /* \"#utility.yul\":21020:21113   */\n      tag_458\n        /* \"#utility.yul\":21109:21112   */\n      dup3\n        /* \"#utility.yul\":21020:21113   */\n      tag_237\n      jump\t// in\n    tag_458:\n        /* \"#utility.yul\":21138:21140   */\n      0x20\n        /* \"#utility.yul\":21133:21136   */\n      dup3\n        /* \"#utility.yul\":21129:21141   */\n      add\n        /* \"#utility.yul\":21122:21141   */\n      swap1\n      pop\n        /* \"#utility.yul\":20781:21147   */\n      swap2\n      swap1\n      pop\n      jump\t// out\n        /* \"#utility.yul\":21153:21572   */\n    tag_138:\n        /* \"#utility.yul\":21319:21323   */\n      0x00\n        /* \"#utility.yul\":21357:21359   */\n      0x20\n        /* \"#utility.yul\":21346:21355   */\n      dup3\n        /* \"#utility.yul\":21342:21360   */\n      add\n        /* \"#utility.yul\":21334:21360   */\n      swap1\n      pop\n        /* \"#utility.yul\":21406:21415   */\n      dup2\n        /* \"#utility.yul\":21400:21404   */\n      dup2\n        /* \"#utility.yul\":21396:21416   */\n      sub\n        /* \"#utility.yul\":21392:21393   */\n      0x00\n        /* \"#utility.yul\":21381:21390   */\n      dup4\n        /* \"#utility.yul\":21377:21394   */\n      add\n        /* \"#utility.yul\":21370:21417   */\n      mstore\n        /* \"#utility.yul\":21434:21565   */\n      tag_460\n        /* \"#utility.yul\":21560:21564   */\n      dup2\n        /* \"#utility.yul\":21434:21565   */\n      tag_238\n      jump\t// in\n    tag_460:\n        /* \"#utility.yul\":21426:21565   */\n      swap1\n      pop\n        /* \"#utility.yul\":21153:21572   */\n      swap2\n      swap1\n      pop\n      jump\t// out\n        /* \"#utility.yul\":21578:21760   */\n    tag_239:\n        /* \"#utility.yul\":21718:21752   */\n      0x596f7520617265206e6f7420686f6c646572206f66207468697320746f6b656e\n        /* \"#utility.yul\":21714:21715   */\n      0x00\n        /* \"#utility.yul\":21706:21712   */\n      dup3\n        /* \"#utility.yul\":21702:21716   */\n      add\n        /* \"#utility.yul\":21695:21753   */\n      mstore\n        /* \"#utility.yul\":21578:21760   */\n      pop\n      jump\t// out\n        /* \"#utility.yul\":21766:22132   */\n    tag_240:\n        /* \"#utility.yul\":21908:21911   */\n      0x00\n        /* \"#utility.yul\":21929:21996   */\n      tag_463\n        /* \"#utility.yul\":21993:21995   */\n      0x20\n        /* \"#utility.yul\":21988:21991   */\n      dup4\n        /* \"#utility.yul\":21929:21996   */\n      tag_225\n      jump\t// in\n    tag_463:\n        /* \"#utility.yul\":21922:21996   */\n      swap2\n      pop\n        /* \"#utility.yul\":22005:22098   */\n      tag_464\n        /* \"#utility.yul\":22094:22097   */\n      dup3\n        /* \"#utility.yul\":22005:22098   */\n      tag_239\n      jump\t// in\n    tag_464:\n        /* \"#utility.yul\":22123:22125   */\n      0x20\n        /* \"#utility.yul\":22118:22121   */\n      dup3\n        /* \"#utility.yul\":22114:22126   */\n      add\n        /* \"#utility.yul\":22107:22126   */\n      swap1\n      pop\n        /* \"#utility.yul\":21766:22132   */\n      swap2\n      swap1\n      pop\n      jump\t// out\n        /* \"#utility.yul\":22138:22557   */\n    tag_145:\n        /* \"#utility.yul\":22304:22308   */\n      0x00\n        /* \"#utility.yul\":22342:22344   */\n      0x20\n        /* \"#utility.yul\":22331:22340   */\n      dup3\n        /* \"#utility.yul\":22327:22345   */\n      add\n        /* \"#utility.yul\":22319:22345   */\n      swap1\n      pop\n        /* \"#utility.yul\":22391:22400   */\n      dup2\n        /* \"#utility.yul\":22385:22389   */\n      dup2\n        /* \"#utility.yul\":22381:22401   */\n      sub\n        /* \"#utility.yul\":22377:22378   */\n      0x00\n        /* \"#utility.yul\":22366:22375   */\n      dup4\n        /* \"#utility.yul\":22362:22379   */\n      add\n        /* \"#utility.yul\":22355:22402   */\n      mstore\n        /* \"#utility.yul\":22419:22550   */\n      tag_466\n        /* \"#utility.yul\":22545:22549   */\n      dup2\n        /* \"#utility.yul\":22419:22550   */\n      tag_240\n      jump\t// in\n    tag_466:\n        /* \"#utility.yul\":22411:22550   */\n      swap1\n      pop\n        /* \"#utility.yul\":22138:22557   */\n      swap2\n      swap1\n      pop\n      jump\t// out\n        /* \"#utility.yul\":22563:22796   */\n    tag_153:\n        /* \"#utility.yul\":22602:22605   */\n      0x00\n        /* \"#utility.yul\":22625:22649   */\n      tag_468\n        /* \"#utility.yul\":22643:22648   */\n      dup3\n        /* \"#utility.yul\":22625:22649   */\n      tag_195\n      jump\t// in\n    tag_468:\n        /* \"#utility.yul\":22616:22649   */\n      swap2\n      pop\n        /* \"#utility.yul\":22671:22737   */\n      0xffffffffffffffffffffffffffffffffffffffffffffffffffffffffffffffff\n        /* \"#utility.yul\":22664:22669   */\n      dup3\n        /* \"#utility.yul\":22661:22738   */\n      sub\n        /* \"#utility.yul\":22658:22761   */\n      tag_469\n      jumpi\n        /* \"#utility.yul\":22741:22759   */\n      tag_470\n      tag_229\n      jump\t// in\n    tag_470:\n        /* \"#utility.yul\":22658:22761   */\n    tag_469:\n        /* \"#utility.yul\":22788:22789   */\n      0x01\n        /* \"#utility.yul\":22781:22786   */\n      dup3\n        /* \"#utility.yul\":22777:22790   */\n      add\n        /* \"#utility.yul\":22770:22790   */\n      swap1\n      pop\n        /* \"#utility.yul\":22563:22796   */\n      swap2\n      swap1\n      pop\n      jump\t// out\n        /* \"#utility.yul\":22802:22983   */\n    tag_241:\n        /* \"#utility.yul\":22942:22975   */\n      0x4e6f7420656e6f7567682062616c616e636520666f72207265706179696e6700\n        /* \"#utility.yul\":22938:22939   */\n      0x00\n        /* \"#utility.yul\":22930:22936   */\n      dup3\n        /* \"#utility.yul\":22926:22940   */\n      add\n        /* \"#utility.yul\":22919:22976   */\n      mstore\n        /* \"#utility.yul\":22802:22983   */\n      pop\n      jump\t// out\n        /* \"#utility.yul\":22989:23355   */\n    tag_242:\n        /* \"#utility.yul\":23131:23134   */\n      0x00\n        /* \"#utility.yul\":23152:23219   */\n      tag_473\n        /* \"#utility.yul\":23216:23218   */\n      0x1f\n        /* \"#utility.yul\":23211:23214   */\n      dup4\n        /* \"#utility.yul\":23152:23219   */\n      tag_225\n      jump\t// in\n    tag_473:\n        /* \"#utility.yul\":23145:23219   */\n      swap2\n      pop\n        /* \"#utility.yul\":23228:23321   */\n      tag_474\n        /* \"#utility.yul\":23317:23320   */\n      dup3\n        /* \"#utility.yul\":23228:23321   */\n      tag_241\n      jump\t// in\n    tag_474:\n        /* \"#utility.yul\":23346:23348   */\n      0x20\n        /* \"#utility.yul\":23341:23344   */\n      dup3\n        /* \"#utility.yul\":23337:23349   */\n      add\n        /* \"#utility.yul\":23330:23349   */\n      swap1\n      pop\n        /* \"#utility.yul\":22989:23355   */\n      swap2\n      swap1\n      pop\n      jump\t// out\n        /* \"#utility.yul\":23361:23780   */\n    tag_163:\n        /* \"#utility.yul\":23527:23531   */\n      0x00\n        /* \"#utility.yul\":23565:23567   */\n      0x20\n        /* \"#utility.yul\":23554:23563   */\n      dup3\n        /* \"#utility.yul\":23550:23568   */\n      add\n        /* \"#utility.yul\":23542:23568   */\n      swap1\n      pop\n        /* \"#utility.yul\":23614:23623   */\n      dup2\n        /* \"#utility.yul\":23608:23612   */\n      dup2\n        /* \"#utility.yul\":23604:23624   */\n      sub\n        /* \"#utility.yul\":23600:23601   */\n      0x00\n        /* \"#utility.yul\":23589:23598   */\n      dup4\n        /* \"#utility.yul\":23585:23602   */\n      add\n        /* \"#utility.yul\":23578:23625   */\n      mstore\n        /* \"#utility.yul\":23642:23773   */\n      tag_476\n        /* \"#utility.yul\":23768:23772   */\n      dup2\n        /* \"#utility.yul\":23642:23773   */\n      tag_242\n      jump\t// in\n    tag_476:\n        /* \"#utility.yul\":23634:23773   */\n      swap1\n      pop\n        /* \"#utility.yul\":23361:23780   */\n      swap2\n      swap1\n      pop\n      jump\t// out\n        /* \"#utility.yul\":23786:23966   */\n    tag_243:\n        /* \"#utility.yul\":23926:23958   */\n      0x596f7520617265206e6f7420706f73746572206f6620746865206c6973740000\n        /* \"#utility.yul\":23922:23923   */\n      0x00\n        /* \"#utility.yul\":23914:23920   */\n      dup3\n        /* \"#utility.yul\":23910:23924   */\n      add\n        /* \"#utility.yul\":23903:23959   */\n      mstore\n        /* \"#utility.yul\":23786:23966   */\n      pop\n      jump\t// out\n        /* \"#utility.yul\":23972:24338   */\n    tag_244:\n        /* \"#utility.yul\":24114:24117   */\n      0x00\n        /* \"#utility.yul\":24135:24202   */\n      tag_479\n        /* \"#utility.yul\":24199:24201   */\n      0x1e\n        /* \"#utility.yul\":24194:24197   */\n      dup4\n        /* \"#utility.yul\":24135:24202   */\n      tag_225\n      jump\t// in\n    tag_479:\n        /* \"#utility.yul\":24128:24202   */\n      swap2\n      pop\n        /* \"#utility.yul\":24211:24304   */\n      tag_480\n        /* \"#utility.yul\":24300:24303   */\n      dup3\n        /* \"#utility.yul\":24211:24304   */\n      tag_243\n      jump\t// in\n    tag_480:\n        /* \"#utility.yul\":24329:24331   */\n      0x20\n        /* \"#utility.yul\":24324:24327   */\n      dup3\n        /* \"#utility.yul\":24320:24332   */\n      add\n        /* \"#utility.yul\":24313:24332   */\n      swap1\n      pop\n        /* \"#utility.yul\":23972:24338   */\n      swap2\n      swap1\n      pop\n      jump\t// out\n        /* \"#utility.yul\":24344:24763   */\n    tag_179:\n        /* \"#utility.yul\":24510:24514   */\n      0x00\n        /* \"#utility.yul\":24548:24550   */\n      0x20\n        /* \"#utility.yul\":24537:24546   */\n      dup3\n        /* \"#utility.yul\":24533:24551   */\n      add\n        /* \"#utility.yul\":24525:24551   */\n      swap1\n      pop\n        /* \"#utility.yul\":24597:24606   */\n      dup2\n        /* \"#utility.yul\":24591:24595   */\n      dup2\n        /* \"#utility.yul\":24587:24607   */\n      sub\n        /* \"#utility.yul\":24583:24584   */\n      0x00\n        /* \"#utility.yul\":24572:24581   */\n      dup4\n        /* \"#utility.yul\":24568:24585   */\n      add\n        /* \"#utility.yul\":24561:24608   */\n      mstore\n        /* \"#utility.yul\":24625:24756   */\n      tag_482\n        /* \"#utility.yul\":24751:24755   */\n      dup2\n        /* \"#utility.yul\":24625:24756   */\n      tag_244\n      jump\t// in\n    tag_482:\n        /* \"#utility.yul\":24617:24756   */\n      swap1\n      pop\n        /* \"#utility.yul\":24344:24763   */\n      swap2\n      swap1\n      pop\n      jump\t// out\n        /* \"#utility.yul\":24769:24935   */\n    tag_245:\n        /* \"#utility.yul\":24909:24927   */\n      0x4e6f74206f70656e696e67206c69737400000000000000000000000000000000\n        /* \"#utility.yul\":24905:24906   */\n      0x00\n        /* \"#utility.yul\":24897:24903   */\n      dup3\n        /* \"#utility.yul\":24893:24907   */\n      add\n        /* \"#utility.yul\":24886:24928   */\n      mstore\n        /* \"#utility.yul\":24769:24935   */\n      pop\n      jump\t// out\n        /* \"#utility.yul\":24941:25307   */\n    tag_246:\n        /* \"#utility.yul\":25083:25086   */\n      0x00\n        /* \"#utility.yul\":25104:25171   */\n      tag_485\n        /* \"#utility.yul\":25168:25170   */\n      0x10\n        /* \"#utility.yul\":25163:25166   */\n      dup4\n        /* \"#utility.yul\":25104:25171   */\n      tag_225\n      jump\t// in\n    tag_485:\n        /* \"#utility.yul\":25097:25171   */\n      swap2\n      pop\n        /* \"#utility.yul\":25180:25273   */\n      tag_486\n        /* \"#utility.yul\":25269:25272   */\n      dup3\n        /* \"#utility.yul\":25180:25273   */\n      tag_245\n      jump\t// in\n    tag_486:\n        /* \"#utility.yul\":25298:25300   */\n      0x20\n        /* \"#utility.yul\":25293:25296   */\n      dup3\n        /* \"#utility.yul\":25289:25301   */\n      add\n        /* \"#utility.yul\":25282:25301   */\n      swap1\n      pop\n        /* \"#utility.yul\":24941:25307   */\n      swap2\n      swap1\n      pop\n      jump\t// out\n        /* \"#utility.yul\":25313:25732   */\n    tag_182:\n        /* \"#utility.yul\":25479:25483   */\n      0x00\n        /* \"#utility.yul\":25517:25519   */\n      0x20\n        /* \"#utility.yul\":25506:25515   */\n      dup3\n        /* \"#utility.yul\":25502:25520   */\n      add\n        /* \"#utility.yul\":25494:25520   */\n      swap1\n      pop\n        /* \"#utility.yul\":25566:25575   */\n      dup2\n        /* \"#utility.yul\":25560:25564   */\n      dup2\n        /* \"#utility.yul\":25556:25576   */\n      sub\n        /* \"#utility.yul\":25552:25553   */\n      0x00\n        /* \"#utility.yul\":25541:25550   */\n      dup4\n        /* \"#utility.yul\":25537:25554   */\n      add\n        /* \"#utility.yul\":25530:25577   */\n      mstore\n        /* \"#utility.yul\":25594:25725   */\n      tag_488\n        /* \"#utility.yul\":25720:25724   */\n      dup2\n        /* \"#utility.yul\":25594:25725   */\n      tag_246\n      jump\t// in\n    tag_488:\n        /* \"#utility.yul\":25586:25725   */\n      swap1\n      pop\n        /* \"#utility.yul\":25313:25732   */\n      swap2\n      swap1\n      pop\n      jump\t// out\n\n    auxdata: 0xa2646970667358221220207febbbf61a3f35497d227471b2e324207fc8e0bebb6029f397d313c3bac05564736f6c63430008170033\n}\n",
				"bytecode": {
					"linkReferences": {},
					"object": "6080604052600160045561016d60055562278d0060065562015180600755603c60085534801561002d575f80fd5b50611d868061003b5f395ff3fe608060405234801561000f575f80fd5b50600436106100e8575f3560e01c8063880fe9411161008a578063b931413511610064578063b931413514610256578063d9548e5314610286578063e5a255cb146102b7578063eeabfc4a146102d3576100e8565b8063880fe941146102005780638ada066e1461021c578063ab7b1c891461023a576100e8565b80631f29d2dc116100c65780631f29d2dc146101685780634f694690146101985780635e8441e4146101c85780636c59bd0c146101e4576100e8565b8063084af0b2146100ec578063172656d11461011c5780631ac31f0d14610138575b5f80fd5b61010660048036038101906101019190611158565b610309565b6040516101139190611243565b60405180910390f35b6101366004803603810190610131919061128d565b61039c565b005b610152600480360381019061014d919061128d565b61050f565b60405161015f91906112c7565b60405180910390f35b610182600480360381019061017d91906112e0565b6105a3565b60405161018f919061132d565b60405180910390f35b6101b260048036038101906101ad9190611158565b610624565b6040516101bf9190611360565b60405180910390f35b6101e260048036038101906101dd9190611524565b6106a6565b005b6101fe60048036038101906101f9919061128d565b61081c565b005b61021a6004803603810190610215919061154f565b610835565b005b610224610bf6565b60405161023191906112c7565b60405180910390f35b610254600480360381019061024f919061128d565b610bff565b005b610270600480360381019061026b919061128d565b610d5b565b60405161027d919061167f565b60405180910390f35b6102a0600480360381019061029b919061128d565b610e60565b6040516102ae929190611698565b60405180910390f35b6102d160048036038101906102cc919061128d565b610ebe565b005b6102ed60048036038101906102e8919061128d565b611011565b60405161030097969594939291906116dd565b60405180910390f35b606060015f8373ffffffffffffffffffffffffffffffffffffffff1673ffffffffffffffffffffffffffffffffffffffff1681526020019081526020015f2080548060200260200160405190810160405280929190818152602001828054801561039057602002820191905f5260205f20905b81548152602001906001019080831161037c575b50505050509050919050565b5f6103a682610d5b565b905080606001513373ffffffffffffffffffffffffffffffffffffffff163111610405576040517f08c379a00000000000000000000000000000000000000000000000000000000081526004016103fc906117ca565b60405180910390fd5b805f015173ffffffffffffffffffffffffffffffffffffffff166108fc826060015190811502906040515f60405180830381858888f1935050505015801561044f573d5f803e3d5ffd5b507f6578637574696e670000000000000000000000000000000000000000000000008160c00181815250503360035f8481526020019081526020015f205f6101000a81548173ffffffffffffffffffffffffffffffffffffffff021916908373ffffffffffffffffffffffffffffffffffffffff1602179055506104d28261081c565b7fcbe547358b7d8ceb07ae8baae08d35680e6c6c69046525b09dc9bb8f53f708fd33826040516105039291906117e8565b60405180910390a15050565b5f8061051a83610d5b565b90505f60055460648360a00151610531919061186a565b61053b919061186a565b826060015161054a919061189a565b90505f60075460025f8781526020019081526020015f20544261056d91906118db565b610577919061186a565b90505f8183610586919061189a565b8460600151610595919061190e565b905080945050505050919050565b5f8273ffffffffffffffffffffffffffffffffffffffff16636352211e836040518263ffffffff1660e01b81526004016105dd91906112c7565b602060405180830381865afa1580156105f8573d5f803e3d5ffd5b505050506040513d601f19601f8201168201806040525081019061061c9190611955565b905092915050565b5f8173ffffffffffffffffffffffffffffffffffffffff1663e985e9c533306040518363ffffffff1660e01b8152600401610660929190611980565b602060405180830381865afa15801561067b573d5f803e3d5ffd5b505050506040513d601f19601f8201168201806040525081019061069f91906119d1565b9050919050565b3373ffffffffffffffffffffffffffffffffffffffff16815f015173ffffffffffffffffffffffffffffffffffffffff1614610717576040517f08c379a000000000000000000000000000000000000000000000000000000000815260040161070e90611a46565b60405180910390fd5b7f72657061796564000000000000000000000000000000000000000000000000008160c001511461077d576040517f08c379a000000000000000000000000000000000000000000000000000000000815260040161077490611aae565b60405180910390fd5b806020015173ffffffffffffffffffffffffffffffffffffffff166323b872dd303384604001516040518463ffffffff1660e01b81526004016107c293929190611acc565b5f604051808303815f87803b1580156107d9575f80fd5b505af11580156107eb573d5f803e3d5ffd5b505050507f636c6f73656400000000000000000000000000000000000000000000000000008160c001818152505050565b4260025f8381526020019081526020015f208190555050565b5f8311801561084357505f82115b801561084e57505f81115b61088d576040517f08c379a000000000000000000000000000000000000000000000000000000000815260040161088490611b4b565b60405180910390fd5b3373ffffffffffffffffffffffffffffffffffffffff168573ffffffffffffffffffffffffffffffffffffffff16636352211e866040518263ffffffff1660e01b81526004016108dd91906112c7565b602060405180830381865afa1580156108f8573d5f803e3d5ffd5b505050506040513d601f19601f8201168201806040525081019061091c9190611955565b73ffffffffffffffffffffffffffffffffffffffff1614610972576040517f08c379a000000000000000000000000000000000000000000000000000000000815260040161096990611bb3565b60405180910390fd5b5f6040518060e001604052803373ffffffffffffffffffffffffffffffffffffffff1681526020018773ffffffffffffffffffffffffffffffffffffffff1681526020018681526020018581526020018481526020018381526020017f6f70656e000000000000000000000000000000000000000000000000000000008152509050805f8060045481526020019081526020015f205f820151815f015f6101000a81548173ffffffffffffffffffffffffffffffffffffffff021916908373ffffffffffffffffffffffffffffffffffffffff1602179055506020820151816001015f6101000a81548173ffffffffffffffffffffffffffffffffffffffff021916908373ffffffffffffffffffffffffffffffffffffffff16021790555060408201518160020155606082015181600301556080820151816004015560a0820151816005015560c0820151816006015590505060015f3373ffffffffffffffffffffffffffffffffffffffff1673ffffffffffffffffffffffffffffffffffffffff1681526020019081526020015f20600454908060018154018082558091505060019003905f5260205f20015f90919091909150558573ffffffffffffffffffffffffffffffffffffffff166323b872dd3330886040518463ffffffff1660e01b8152600401610b6693929190611acc565b5f604051808303815f87803b158015610b7d575f80fd5b505af1158015610b8f573d5f803e3d5ffd5b50505050610b9e60045461081c565b60045f815480929190610bb090611bd1565b91905055507ff767ad1ae2d5476327f80bef89fbc70354c993e3059ed3d504d127921f60c40b3382604051610be69291906117e8565b60405180910390a1505050505050565b5f600454905090565b5f610c0982610d5b565b90503373ffffffffffffffffffffffffffffffffffffffff16815f015173ffffffffffffffffffffffffffffffffffffffff1614610c7c576040517f08c379a0000000000000000000000000000000000000000000000000000000008152600401610c7390611a46565b60405180910390fd5b5f610c868361050f565b90503373ffffffffffffffffffffffffffffffffffffffff16318110610ce1576040517f08c379a0000000000000000000000000000000000000000000000000000000008152600401610cd890611c62565b60405180910390fd5b7f72657061796564000000000000000000000000000000000000000000000000008260c0018181525050610d14826106a6565b610d1d8361081c565b7f94e7116aa05f19f109f7fa598f65ade35ab1de8cd3d002b5b2205416e8943e653383604051610d4e9291906117e8565b60405180910390a1505050565b610d6361108c565b5f808381526020019081526020015f206040518060e00160405290815f82015f9054906101000a900473ffffffffffffffffffffffffffffffffffffffff1673ffffffffffffffffffffffffffffffffffffffff1673ffffffffffffffffffffffffffffffffffffffff168152602001600182015f9054906101000a900473ffffffffffffffffffffffffffffffffffffffff1673ffffffffffffffffffffffffffffffffffffffff1673ffffffffffffffffffffffffffffffffffffffff168152602001600282015481526020016003820154815260200160048201548152602001600582015481526020016006820154815250509050919050565b5f805f610e6c84610d5b565b90505f6008548260800151610e81919061189a565b60025f8781526020019081526020015f2054610e9d919061190e565b90505f4282610eac91906118db565b9050805f821094509450505050915091565b5f610ec882610d5b565b90503373ffffffffffffffffffffffffffffffffffffffff16815f015173ffffffffffffffffffffffffffffffffffffffff1614610f3b576040517f08c379a0000000000000000000000000000000000000000000000000000000008152600401610f3290611cca565b60405180910390fd5b7f6f70656e000000000000000000000000000000000000000000000000000000008160c0015114610fa1576040517f08c379a0000000000000000000000000000000000000000000000000000000008152600401610f9890611d32565b60405180910390fd5b7f63616e63656c00000000000000000000000000000000000000000000000000008160c0018181525050610fd48261081c565b7f7e885013ca94016b1452b4678f1c43c33cd914617b389322af7f7d97a2c4f58533826040516110059291906117e8565b60405180910390a15050565b5f602052805f5260405f205f91509050805f015f9054906101000a900473ffffffffffffffffffffffffffffffffffffffff1690806001015f9054906101000a900473ffffffffffffffffffffffffffffffffffffffff16908060020154908060030154908060040154908060050154908060060154905087565b6040518060e001604052805f73ffffffffffffffffffffffffffffffffffffffff1681526020015f73ffffffffffffffffffffffffffffffffffffffff1681526020015f81526020015f81526020015f81526020015f81526020015f80191681525090565b5f604051905090565b5f80fd5b5f73ffffffffffffffffffffffffffffffffffffffff82169050919050565b5f611127826110fe565b9050919050565b6111378161111d565b8114611141575f80fd5b50565b5f813590506111528161112e565b92915050565b5f6020828403121561116d5761116c6110fa565b5b5f61117a84828501611144565b91505092915050565b5f81519050919050565b5f82825260208201905092915050565b5f819050602082019050919050565b5f819050919050565b6111be816111ac565b82525050565b5f6111cf83836111b5565b60208301905092915050565b5f602082019050919050565b5f6111f182611183565b6111fb818561118d565b93506112068361119d565b805f5b8381101561123657815161121d88826111c4565b9750611228836111db565b925050600181019050611209565b5085935050505092915050565b5f6020820190508181035f83015261125b81846111e7565b905092915050565b61126c816111ac565b8114611276575f80fd5b50565b5f8135905061128781611263565b92915050565b5f602082840312156112a2576112a16110fa565b5b5f6112af84828501611279565b91505092915050565b6112c1816111ac565b82525050565b5f6020820190506112da5f8301846112b8565b92915050565b5f80604083850312156112f6576112f56110fa565b5b5f61130385828601611144565b925050602061131485828601611279565b9150509250929050565b6113278161111d565b82525050565b5f6020820190506113405f83018461131e565b92915050565b5f8115159050919050565b61135a81611346565b82525050565b5f6020820190506113735f830184611351565b92915050565b5f80fd5b5f601f19601f8301169050919050565b7f4e487b71000000000000000000000000000000000000000000000000000000005f52604160045260245ffd5b6113c38261137d565b810181811067ffffffffffffffff821117156113e2576113e161138d565b5b80604052505050565b5f6113f46110f1565b905061140082826113ba565b919050565b5f61140f826110fe565b9050919050565b61141f81611405565b8114611429575f80fd5b50565b5f8135905061143a81611416565b92915050565b5f819050919050565b61145281611440565b811461145c575f80fd5b50565b5f8135905061146d81611449565b92915050565b5f60e0828403121561148857611487611379565b5b61149260e06113eb565b90505f6114a18482850161142c565b5f8301525060206114b484828501611144565b60208301525060406114c884828501611279565b60408301525060606114dc84828501611279565b60608301525060806114f084828501611279565b60808301525060a061150484828501611279565b60a08301525060c06115188482850161145f565b60c08301525092915050565b5f60e08284031215611539576115386110fa565b5b5f61154684828501611473565b91505092915050565b5f805f805f60a08688031215611568576115676110fa565b5b5f61157588828901611144565b955050602061158688828901611279565b945050604061159788828901611279565b93505060606115a888828901611279565b92505060806115b988828901611279565b9150509295509295909350565b6115cf81611405565b82525050565b6115de8161111d565b82525050565b6115ed81611440565b82525050565b60e082015f8201516116075f8501826115c6565b50602082015161161a60208501826115d5565b50604082015161162d60408501826111b5565b50606082015161164060608501826111b5565b50608082015161165360808501826111b5565b5060a082015161166660a08501826111b5565b5060c082015161167960c08501826115e4565b50505050565b5f60e0820190506116925f8301846115f3565b92915050565b5f6040820190506116ab5f8301856112b8565b6116b86020830184611351565b9392505050565b6116c881611405565b82525050565b6116d781611440565b82525050565b5f60e0820190506116f05f83018a6116bf565b6116fd602083018961131e565b61170a60408301886112b8565b61171760608301876112b8565b61172460808301866112b8565b61173160a08301856112b8565b61173e60c08301846116ce565b98975050505050505050565b5f82825260208201905092915050565b7f596f7520686176656e277420656e6f7567682062616c616e636520666f72206c5f8201527f656e64696e670000000000000000000000000000000000000000000000000000602082015250565b5f6117b460268361174a565b91506117bf8261175a565b604082019050919050565b5f6020820190508181035f8301526117e1816117a8565b9050919050565b5f610100820190506117fc5f83018561131e565b61180960208301846115f3565b9392505050565b7f4e487b71000000000000000000000000000000000000000000000000000000005f52601260045260245ffd5b7f4e487b71000000000000000000000000000000000000000000000000000000005f52601160045260245ffd5b5f611874826111ac565b915061187f836111ac565b92508261188f5761188e611810565b5b828204905092915050565b5f6118a4826111ac565b91506118af836111ac565b92508282026118bd816111ac565b915082820484148315176118d4576118d361183d565b5b5092915050565b5f6118e5826111ac565b91506118f0836111ac565b92508282039050818111156119085761190761183d565b5b92915050565b5f611918826111ac565b9150611923836111ac565b925082820190508082111561193b5761193a61183d565b5b92915050565b5f8151905061194f8161112e565b92915050565b5f6020828403121561196a576119696110fa565b5b5f61197784828501611941565b91505092915050565b5f6040820190506119935f83018561131e565b6119a0602083018461131e565b9392505050565b6119b081611346565b81146119ba575f80fd5b50565b5f815190506119cb816119a7565b92915050565b5f602082840312156119e6576119e56110fa565b5b5f6119f3848285016119bd565b91505092915050565b7f596f7520617265206e6f7420706f7374657200000000000000000000000000005f82015250565b5f611a3060128361174a565b9150611a3b826119fc565b602082019050919050565b5f6020820190508181035f830152611a5d81611a24565b9050919050565b7f546869732069736e2774207265706179207965740000000000000000000000005f82015250565b5f611a9860148361174a565b9150611aa382611a64565b602082019050919050565b5f6020820190508181035f830152611ac581611a8c565b9050919050565b5f606082019050611adf5f83018661131e565b611aec602083018561131e565b611af960408301846112b8565b949350505050565b7f56616c756573206d7573742062652067726561746572207468616e207a65726f5f82015250565b5f611b3560208361174a565b9150611b4082611b01565b602082019050919050565b5f6020820190508181035f830152611b6281611b29565b9050919050565b7f596f7520617265206e6f7420686f6c646572206f66207468697320746f6b656e5f82015250565b5f611b9d60208361174a565b9150611ba882611b69565b602082019050919050565b5f6020820190508181035f830152611bca81611b91565b9050919050565b5f611bdb826111ac565b91507fffffffffffffffffffffffffffffffffffffffffffffffffffffffffffffffff8203611c0d57611c0c61183d565b5b600182019050919050565b7f4e6f7420656e6f7567682062616c616e636520666f72207265706179696e67005f82015250565b5f611c4c601f8361174a565b9150611c5782611c18565b602082019050919050565b5f6020820190508181035f830152611c7981611c40565b9050919050565b7f596f7520617265206e6f7420706f73746572206f6620746865206c69737400005f82015250565b5f611cb4601e8361174a565b9150611cbf82611c80565b602082019050919050565b5f6020820190508181035f830152611ce181611ca8565b9050919050565b7f4e6f74206f70656e696e67206c697374000000000000000000000000000000005f82015250565b5f611d1c60108361174a565b9150611d2782611ce8565b602082019050919050565b5f6020820190508181035f830152611d4981611d10565b905091905056fea2646970667358221220207febbbf61a3f35497d227471b2e324207fc8e0bebb6029f397d313c3bac05564736f6c63430008170033",
					"opcodes": "PUSH1 0x80 PUSH1 0x40 MSTORE PUSH1 0x1 PUSH1 0x4 SSTORE PUSH2 0x16D PUSH1 0x5 SSTORE PUSH3 0x278D00 PUSH1 0x6 SSTORE PUSH3 0x15180 PUSH1 0x7 SSTORE PUSH1 0x3C PUSH1 0x8 SSTORE CALLVALUE DUP1 ISZERO PUSH2 0x2D JUMPI PUSH0 DUP1 REVERT JUMPDEST POP PUSH2 0x1D86 DUP1 PUSH2 0x3B PUSH0 CODECOPY PUSH0 RETURN INVALID PUSH1 0x80 PUSH1 0x40 MSTORE CALLVALUE DUP1 ISZERO PUSH2 0xF JUMPI PUSH0 DUP1 REVERT JUMPDEST POP PUSH1 0x4 CALLDATASIZE LT PUSH2 0xE8 JUMPI PUSH0 CALLDATALOAD PUSH1 0xE0 SHR DUP1 PUSH4 0x880FE941 GT PUSH2 0x8A JUMPI DUP1 PUSH4 0xB9314135 GT PUSH2 0x64 JUMPI DUP1 PUSH4 0xB9314135 EQ PUSH2 0x256 JUMPI DUP1 PUSH4 0xD9548E53 EQ PUSH2 0x286 JUMPI DUP1 PUSH4 0xE5A255CB EQ PUSH2 0x2B7 JUMPI DUP1 PUSH4 0xEEABFC4A EQ PUSH2 0x2D3 JUMPI PUSH2 0xE8 JUMP JUMPDEST DUP1 PUSH4 0x880FE941 EQ PUSH2 0x200 JUMPI DUP1 PUSH4 0x8ADA066E EQ PUSH2 0x21C JUMPI DUP1 PUSH4 0xAB7B1C89 EQ PUSH2 0x23A JUMPI PUSH2 0xE8 JUMP JUMPDEST DUP1 PUSH4 0x1F29D2DC GT PUSH2 0xC6 JUMPI DUP1 PUSH4 0x1F29D2DC EQ PUSH2 0x168 JUMPI DUP1 PUSH4 0x4F694690 EQ PUSH2 0x198 JUMPI DUP1 PUSH4 0x5E8441E4 EQ PUSH2 0x1C8 JUMPI DUP1 PUSH4 0x6C59BD0C EQ PUSH2 0x1E4 JUMPI PUSH2 0xE8 JUMP JUMPDEST DUP1 PUSH4 0x84AF0B2 EQ PUSH2 0xEC JUMPI DUP1 PUSH4 0x172656D1 EQ PUSH2 0x11C JUMPI DUP1 PUSH4 0x1AC31F0D EQ PUSH2 0x138 JUMPI JUMPDEST PUSH0 DUP1 REVERT JUMPDEST PUSH2 0x106 PUSH1 0x4 DUP1 CALLDATASIZE SUB DUP2 ADD SWAP1 PUSH2 0x101 SWAP2 SWAP1 PUSH2 0x1158 JUMP JUMPDEST PUSH2 0x309 JUMP JUMPDEST PUSH1 0x40 MLOAD PUSH2 0x113 SWAP2 SWAP1 PUSH2 0x1243 JUMP JUMPDEST PUSH1 0x40 MLOAD DUP1 SWAP2 SUB SWAP1 RETURN JUMPDEST PUSH2 0x136 PUSH1 0x4 DUP1 CALLDATASIZE SUB DUP2 ADD SWAP1 PUSH2 0x131 SWAP2 SWAP1 PUSH2 0x128D JUMP JUMPDEST PUSH2 0x39C JUMP JUMPDEST STOP JUMPDEST PUSH2 0x152 PUSH1 0x4 DUP1 CALLDATASIZE SUB DUP2 ADD SWAP1 PUSH2 0x14D SWAP2 SWAP1 PUSH2 0x128D JUMP JUMPDEST PUSH2 0x50F JUMP JUMPDEST PUSH1 0x40 MLOAD PUSH2 0x15F SWAP2 SWAP1 PUSH2 0x12C7 JUMP JUMPDEST PUSH1 0x40 MLOAD DUP1 SWAP2 SUB SWAP1 RETURN JUMPDEST PUSH2 0x182 PUSH1 0x4 DUP1 CALLDATASIZE SUB DUP2 ADD SWAP1 PUSH2 0x17D SWAP2 SWAP1 PUSH2 0x12E0 JUMP JUMPDEST PUSH2 0x5A3 JUMP JUMPDEST PUSH1 0x40 MLOAD PUSH2 0x18F SWAP2 SWAP1 PUSH2 0x132D JUMP JUMPDEST PUSH1 0x40 MLOAD DUP1 SWAP2 SUB SWAP1 RETURN JUMPDEST PUSH2 0x1B2 PUSH1 0x4 DUP1 CALLDATASIZE SUB DUP2 ADD SWAP1 PUSH2 0x1AD SWAP2 SWAP1 PUSH2 0x1158 JUMP JUMPDEST PUSH2 0x624 JUMP JUMPDEST PUSH1 0x40 MLOAD PUSH2 0x1BF SWAP2 SWAP1 PUSH2 0x1360 JUMP JUMPDEST PUSH1 0x40 MLOAD DUP1 SWAP2 SUB SWAP1 RETURN JUMPDEST PUSH2 0x1E2 PUSH1 0x4 DUP1 CALLDATASIZE SUB DUP2 ADD SWAP1 PUSH2 0x1DD SWAP2 SWAP1 PUSH2 0x1524 JUMP JUMPDEST PUSH2 0x6A6 JUMP JUMPDEST STOP JUMPDEST PUSH2 0x1FE PUSH1 0x4 DUP1 CALLDATASIZE SUB DUP2 ADD SWAP1 PUSH2 0x1F9 SWAP2 SWAP1 PUSH2 0x128D JUMP JUMPDEST PUSH2 0x81C JUMP JUMPDEST STOP JUMPDEST PUSH2 0x21A PUSH1 0x4 DUP1 CALLDATASIZE SUB DUP2 ADD SWAP1 PUSH2 0x215 SWAP2 SWAP1 PUSH2 0x154F JUMP JUMPDEST PUSH2 0x835 JUMP JUMPDEST STOP JUMPDEST PUSH2 0x224 PUSH2 0xBF6 JUMP JUMPDEST PUSH1 0x40 MLOAD PUSH2 0x231 SWAP2 SWAP1 PUSH2 0x12C7 JUMP JUMPDEST PUSH1 0x40 MLOAD DUP1 SWAP2 SUB SWAP1 RETURN JUMPDEST PUSH2 0x254 PUSH1 0x4 DUP1 CALLDATASIZE SUB DUP2 ADD SWAP1 PUSH2 0x24F SWAP2 SWAP1 PUSH2 0x128D JUMP JUMPDEST PUSH2 0xBFF JUMP JUMPDEST STOP JUMPDEST PUSH2 0x270 PUSH1 0x4 DUP1 CALLDATASIZE SUB DUP2 ADD SWAP1 PUSH2 0x26B SWAP2 SWAP1 PUSH2 0x128D JUMP JUMPDEST PUSH2 0xD5B JUMP JUMPDEST PUSH1 0x40 MLOAD PUSH2 0x27D SWAP2 SWAP1 PUSH2 0x167F JUMP JUMPDEST PUSH1 0x40 MLOAD DUP1 SWAP2 SUB SWAP1 RETURN JUMPDEST PUSH2 0x2A0 PUSH1 0x4 DUP1 CALLDATASIZE SUB DUP2 ADD SWAP1 PUSH2 0x29B SWAP2 SWAP1 PUSH2 0x128D JUMP JUMPDEST PUSH2 0xE60 JUMP JUMPDEST PUSH1 0x40 MLOAD PUSH2 0x2AE SWAP3 SWAP2 SWAP1 PUSH2 0x1698 JUMP JUMPDEST PUSH1 0x40 MLOAD DUP1 SWAP2 SUB SWAP1 RETURN JUMPDEST PUSH2 0x2D1 PUSH1 0x4 DUP1 CALLDATASIZE SUB DUP2 ADD SWAP1 PUSH2 0x2CC SWAP2 SWAP1 PUSH2 0x128D JUMP JUMPDEST PUSH2 0xEBE JUMP JUMPDEST STOP JUMPDEST PUSH2 0x2ED PUSH1 0x4 DUP1 CALLDATASIZE SUB DUP2 ADD SWAP1 PUSH2 0x2E8 SWAP2 SWAP1 PUSH2 0x128D JUMP JUMPDEST PUSH2 0x1011 JUMP JUMPDEST PUSH1 0x40 MLOAD PUSH2 0x300 SWAP8 SWAP7 SWAP6 SWAP5 SWAP4 SWAP3 SWAP2 SWAP1 PUSH2 0x16DD JUMP JUMPDEST PUSH1 0x40 MLOAD DUP1 SWAP2 SUB SWAP1 RETURN JUMPDEST PUSH1 0x60 PUSH1 0x1 PUSH0 DUP4 PUSH20 0xFFFFFFFFFFFFFFFFFFFFFFFFFFFFFFFFFFFFFFFF AND PUSH20 0xFFFFFFFFFFFFFFFFFFFFFFFFFFFFFFFFFFFFFFFF AND DUP2 MSTORE PUSH1 0x20 ADD SWAP1 DUP2 MSTORE PUSH1 0x20 ADD PUSH0 KECCAK256 DUP1 SLOAD DUP1 PUSH1 0x20 MUL PUSH1 0x20 ADD PUSH1 0x40 MLOAD SWAP1 DUP2 ADD PUSH1 0x40 MSTORE DUP1 SWAP3 SWAP2 SWAP1 DUP2 DUP2 MSTORE PUSH1 0x20 ADD DUP3 DUP1 SLOAD DUP1 ISZERO PUSH2 0x390 JUMPI PUSH1 0x20 MUL DUP3 ADD SWAP2 SWAP1 PUSH0 MSTORE PUSH1 0x20 PUSH0 KECCAK256 SWAP1 JUMPDEST DUP2 SLOAD DUP2 MSTORE PUSH1 0x20 ADD SWAP1 PUSH1 0x1 ADD SWAP1 DUP1 DUP4 GT PUSH2 0x37C JUMPI JUMPDEST POP POP POP POP POP SWAP1 POP SWAP2 SWAP1 POP JUMP JUMPDEST PUSH0 PUSH2 0x3A6 DUP3 PUSH2 0xD5B JUMP JUMPDEST SWAP1 POP DUP1 PUSH1 0x60 ADD MLOAD CALLER PUSH20 0xFFFFFFFFFFFFFFFFFFFFFFFFFFFFFFFFFFFFFFFF AND BALANCE GT PUSH2 0x405 JUMPI PUSH1 0x40 MLOAD PUSH32 0x8C379A000000000000000000000000000000000000000000000000000000000 DUP2 MSTORE PUSH1 0x4 ADD PUSH2 0x3FC SWAP1 PUSH2 0x17CA JUMP JUMPDEST PUSH1 0x40 MLOAD DUP1 SWAP2 SUB SWAP1 REVERT JUMPDEST DUP1 PUSH0 ADD MLOAD PUSH20 0xFFFFFFFFFFFFFFFFFFFFFFFFFFFFFFFFFFFFFFFF AND PUSH2 0x8FC DUP3 PUSH1 0x60 ADD MLOAD SWAP1 DUP2 ISZERO MUL SWAP1 PUSH1 0x40 MLOAD PUSH0 PUSH1 0x40 MLOAD DUP1 DUP4 SUB DUP2 DUP6 DUP9 DUP9 CALL SWAP4 POP POP POP POP ISZERO DUP1 ISZERO PUSH2 0x44F JUMPI RETURNDATASIZE PUSH0 DUP1 RETURNDATACOPY RETURNDATASIZE PUSH0 REVERT JUMPDEST POP PUSH32 0x6578637574696E67000000000000000000000000000000000000000000000000 DUP2 PUSH1 0xC0 ADD DUP2 DUP2 MSTORE POP POP CALLER PUSH1 0x3 PUSH0 DUP5 DUP2 MSTORE PUSH1 0x20 ADD SWAP1 DUP2 MSTORE PUSH1 0x20 ADD PUSH0 KECCAK256 PUSH0 PUSH2 0x100 EXP DUP2 SLOAD DUP2 PUSH20 0xFFFFFFFFFFFFFFFFFFFFFFFFFFFFFFFFFFFFFFFF MUL NOT AND SWAP1 DUP4 PUSH20 0xFFFFFFFFFFFFFFFFFFFFFFFFFFFFFFFFFFFFFFFF AND MUL OR SWAP1 SSTORE POP PUSH2 0x4D2 DUP3 PUSH2 0x81C JUMP JUMPDEST PUSH32 0xCBE547358B7D8CEB07AE8BAAE08D35680E6C6C69046525B09DC9BB8F53F708FD CALLER DUP3 PUSH1 0x40 MLOAD PUSH2 0x503 SWAP3 SWAP2 SWAP1 PUSH2 0x17E8 JUMP JUMPDEST PUSH1 0x40 MLOAD DUP1 SWAP2 SUB SWAP1 LOG1 POP POP JUMP JUMPDEST PUSH0 DUP1 PUSH2 0x51A DUP4 PUSH2 0xD5B JUMP JUMPDEST SWAP1 POP PUSH0 PUSH1 0x5 SLOAD PUSH1 0x64 DUP4 PUSH1 0xA0 ADD MLOAD PUSH2 0x531 SWAP2 SWAP1 PUSH2 0x186A JUMP JUMPDEST PUSH2 0x53B SWAP2 SWAP1 PUSH2 0x186A JUMP JUMPDEST DUP3 PUSH1 0x60 ADD MLOAD PUSH2 0x54A SWAP2 SWAP1 PUSH2 0x189A JUMP JUMPDEST SWAP1 POP PUSH0 PUSH1 0x7 SLOAD PUSH1 0x2 PUSH0 DUP8 DUP2 MSTORE PUSH1 0x20 ADD SWAP1 DUP2 MSTORE PUSH1 0x20 ADD PUSH0 KECCAK256 SLOAD TIMESTAMP PUSH2 0x56D SWAP2 SWAP1 PUSH2 0x18DB JUMP JUMPDEST PUSH2 0x577 SWAP2 SWAP1 PUSH2 0x186A JUMP JUMPDEST SWAP1 POP PUSH0 DUP2 DUP4 PUSH2 0x586 SWAP2 SWAP1 PUSH2 0x189A JUMP JUMPDEST DUP5 PUSH1 0x60 ADD MLOAD PUSH2 0x595 SWAP2 SWAP1 PUSH2 0x190E JUMP JUMPDEST SWAP1 POP DUP1 SWAP5 POP POP POP POP POP SWAP2 SWAP1 POP JUMP JUMPDEST PUSH0 DUP3 PUSH20 0xFFFFFFFFFFFFFFFFFFFFFFFFFFFFFFFFFFFFFFFF AND PUSH4 0x6352211E DUP4 PUSH1 0x40 MLOAD DUP3 PUSH4 0xFFFFFFFF AND PUSH1 0xE0 SHL DUP2 MSTORE PUSH1 0x4 ADD PUSH2 0x5DD SWAP2 SWAP1 PUSH2 0x12C7 JUMP JUMPDEST PUSH1 0x20 PUSH1 0x40 MLOAD DUP1 DUP4 SUB DUP2 DUP7 GAS STATICCALL ISZERO DUP1 ISZERO PUSH2 0x5F8 JUMPI RETURNDATASIZE PUSH0 DUP1 RETURNDATACOPY RETURNDATASIZE PUSH0 REVERT JUMPDEST POP POP POP POP PUSH1 0x40 MLOAD RETURNDATASIZE PUSH1 0x1F NOT PUSH1 0x1F DUP3 ADD AND DUP3 ADD DUP1 PUSH1 0x40 MSTORE POP DUP2 ADD SWAP1 PUSH2 0x61C SWAP2 SWAP1 PUSH2 0x1955 JUMP JUMPDEST SWAP1 POP SWAP3 SWAP2 POP POP JUMP JUMPDEST PUSH0 DUP2 PUSH20 0xFFFFFFFFFFFFFFFFFFFFFFFFFFFFFFFFFFFFFFFF AND PUSH4 0xE985E9C5 CALLER ADDRESS PUSH1 0x40 MLOAD DUP4 PUSH4 0xFFFFFFFF AND PUSH1 0xE0 SHL DUP2 MSTORE PUSH1 0x4 ADD PUSH2 0x660 SWAP3 SWAP2 SWAP1 PUSH2 0x1980 JUMP JUMPDEST PUSH1 0x20 PUSH1 0x40 MLOAD DUP1 DUP4 SUB DUP2 DUP7 GAS STATICCALL ISZERO DUP1 ISZERO PUSH2 0x67B JUMPI RETURNDATASIZE PUSH0 DUP1 RETURNDATACOPY RETURNDATASIZE PUSH0 REVERT JUMPDEST POP POP POP POP PUSH1 0x40 MLOAD RETURNDATASIZE PUSH1 0x1F NOT PUSH1 0x1F DUP3 ADD AND DUP3 ADD DUP1 PUSH1 0x40 MSTORE POP DUP2 ADD SWAP1 PUSH2 0x69F SWAP2 SWAP1 PUSH2 0x19D1 JUMP JUMPDEST SWAP1 POP SWAP2 SWAP1 POP JUMP JUMPDEST CALLER PUSH20 0xFFFFFFFFFFFFFFFFFFFFFFFFFFFFFFFFFFFFFFFF AND DUP2 PUSH0 ADD MLOAD PUSH20 0xFFFFFFFFFFFFFFFFFFFFFFFFFFFFFFFFFFFFFFFF AND EQ PUSH2 0x717 JUMPI PUSH1 0x40 MLOAD PUSH32 0x8C379A000000000000000000000000000000000000000000000000000000000 DUP2 MSTORE PUSH1 0x4 ADD PUSH2 0x70E SWAP1 PUSH2 0x1A46 JUMP JUMPDEST PUSH1 0x40 MLOAD DUP1 SWAP2 SUB SWAP1 REVERT JUMPDEST PUSH32 0x7265706179656400000000000000000000000000000000000000000000000000 DUP2 PUSH1 0xC0 ADD MLOAD EQ PUSH2 0x77D JUMPI PUSH1 0x40 MLOAD PUSH32 0x8C379A000000000000000000000000000000000000000000000000000000000 DUP2 MSTORE PUSH1 0x4 ADD PUSH2 0x774 SWAP1 PUSH2 0x1AAE JUMP JUMPDEST PUSH1 0x40 MLOAD DUP1 SWAP2 SUB SWAP1 REVERT JUMPDEST DUP1 PUSH1 0x20 ADD MLOAD PUSH20 0xFFFFFFFFFFFFFFFFFFFFFFFFFFFFFFFFFFFFFFFF AND PUSH4 0x23B872DD ADDRESS CALLER DUP5 PUSH1 0x40 ADD MLOAD PUSH1 0x40 MLOAD DUP5 PUSH4 0xFFFFFFFF AND PUSH1 0xE0 SHL DUP2 MSTORE PUSH1 0x4 ADD PUSH2 0x7C2 SWAP4 SWAP3 SWAP2 SWAP1 PUSH2 0x1ACC JUMP JUMPDEST PUSH0 PUSH1 0x40 MLOAD DUP1 DUP4 SUB DUP2 PUSH0 DUP8 DUP1 EXTCODESIZE ISZERO DUP1 ISZERO PUSH2 0x7D9 JUMPI PUSH0 DUP1 REVERT JUMPDEST POP GAS CALL ISZERO DUP1 ISZERO PUSH2 0x7EB JUMPI RETURNDATASIZE PUSH0 DUP1 RETURNDATACOPY RETURNDATASIZE PUSH0 REVERT JUMPDEST POP POP POP POP PUSH32 0x636C6F7365640000000000000000000000000000000000000000000000000000 DUP2 PUSH1 0xC0 ADD DUP2 DUP2 MSTORE POP POP POP JUMP JUMPDEST TIMESTAMP PUSH1 0x2 PUSH0 DUP4 DUP2 MSTORE PUSH1 0x20 ADD SWAP1 DUP2 MSTORE PUSH1 0x20 ADD PUSH0 KECCAK256 DUP2 SWAP1 SSTORE POP POP JUMP JUMPDEST PUSH0 DUP4 GT DUP1 ISZERO PUSH2 0x843 JUMPI POP PUSH0 DUP3 GT JUMPDEST DUP1 ISZERO PUSH2 0x84E JUMPI POP PUSH0 DUP2 GT JUMPDEST PUSH2 0x88D JUMPI PUSH1 0x40 MLOAD PUSH32 0x8C379A000000000000000000000000000000000000000000000000000000000 DUP2 MSTORE PUSH1 0x4 ADD PUSH2 0x884 SWAP1 PUSH2 0x1B4B JUMP JUMPDEST PUSH1 0x40 MLOAD DUP1 SWAP2 SUB SWAP1 REVERT JUMPDEST CALLER PUSH20 0xFFFFFFFFFFFFFFFFFFFFFFFFFFFFFFFFFFFFFFFF AND DUP6 PUSH20 0xFFFFFFFFFFFFFFFFFFFFFFFFFFFFFFFFFFFFFFFF AND PUSH4 0x6352211E DUP7 PUSH1 0x40 MLOAD DUP3 PUSH4 0xFFFFFFFF AND PUSH1 0xE0 SHL DUP2 MSTORE PUSH1 0x4 ADD PUSH2 0x8DD SWAP2 SWAP1 PUSH2 0x12C7 JUMP JUMPDEST PUSH1 0x20 PUSH1 0x40 MLOAD DUP1 DUP4 SUB DUP2 DUP7 GAS STATICCALL ISZERO DUP1 ISZERO PUSH2 0x8F8 JUMPI RETURNDATASIZE PUSH0 DUP1 RETURNDATACOPY RETURNDATASIZE PUSH0 REVERT JUMPDEST POP POP POP POP PUSH1 0x40 MLOAD RETURNDATASIZE PUSH1 0x1F NOT PUSH1 0x1F DUP3 ADD AND DUP3 ADD DUP1 PUSH1 0x40 MSTORE POP DUP2 ADD SWAP1 PUSH2 0x91C SWAP2 SWAP1 PUSH2 0x1955 JUMP JUMPDEST PUSH20 0xFFFFFFFFFFFFFFFFFFFFFFFFFFFFFFFFFFFFFFFF AND EQ PUSH2 0x972 JUMPI PUSH1 0x40 MLOAD PUSH32 0x8C379A000000000000000000000000000000000000000000000000000000000 DUP2 MSTORE PUSH1 0x4 ADD PUSH2 0x969 SWAP1 PUSH2 0x1BB3 JUMP JUMPDEST PUSH1 0x40 MLOAD DUP1 SWAP2 SUB SWAP1 REVERT JUMPDEST PUSH0 PUSH1 0x40 MLOAD DUP1 PUSH1 0xE0 ADD PUSH1 0x40 MSTORE DUP1 CALLER PUSH20 0xFFFFFFFFFFFFFFFFFFFFFFFFFFFFFFFFFFFFFFFF AND DUP2 MSTORE PUSH1 0x20 ADD DUP8 PUSH20 0xFFFFFFFFFFFFFFFFFFFFFFFFFFFFFFFFFFFFFFFF AND DUP2 MSTORE PUSH1 0x20 ADD DUP7 DUP2 MSTORE PUSH1 0x20 ADD DUP6 DUP2 MSTORE PUSH1 0x20 ADD DUP5 DUP2 MSTORE PUSH1 0x20 ADD DUP4 DUP2 MSTORE PUSH1 0x20 ADD PUSH32 0x6F70656E00000000000000000000000000000000000000000000000000000000 DUP2 MSTORE POP SWAP1 POP DUP1 PUSH0 DUP1 PUSH1 0x4 SLOAD DUP2 MSTORE PUSH1 0x20 ADD SWAP1 DUP2 MSTORE PUSH1 0x20 ADD PUSH0 KECCAK256 PUSH0 DUP3 ADD MLOAD DUP2 PUSH0 ADD PUSH0 PUSH2 0x100 EXP DUP2 SLOAD DUP2 PUSH20 0xFFFFFFFFFFFFFFFFFFFFFFFFFFFFFFFFFFFFFFFF MUL NOT AND SWAP1 DUP4 PUSH20 0xFFFFFFFFFFFFFFFFFFFFFFFFFFFFFFFFFFFFFFFF AND MUL OR SWAP1 SSTORE POP PUSH1 0x20 DUP3 ADD MLOAD DUP2 PUSH1 0x1 ADD PUSH0 PUSH2 0x100 EXP DUP2 SLOAD DUP2 PUSH20 0xFFFFFFFFFFFFFFFFFFFFFFFFFFFFFFFFFFFFFFFF MUL NOT AND SWAP1 DUP4 PUSH20 0xFFFFFFFFFFFFFFFFFFFFFFFFFFFFFFFFFFFFFFFF AND MUL OR SWAP1 SSTORE POP PUSH1 0x40 DUP3 ADD MLOAD DUP2 PUSH1 0x2 ADD SSTORE PUSH1 0x60 DUP3 ADD MLOAD DUP2 PUSH1 0x3 ADD SSTORE PUSH1 0x80 DUP3 ADD MLOAD DUP2 PUSH1 0x4 ADD SSTORE PUSH1 0xA0 DUP3 ADD MLOAD DUP2 PUSH1 0x5 ADD SSTORE PUSH1 0xC0 DUP3 ADD MLOAD DUP2 PUSH1 0x6 ADD SSTORE SWAP1 POP POP PUSH1 0x1 PUSH0 CALLER PUSH20 0xFFFFFFFFFFFFFFFFFFFFFFFFFFFFFFFFFFFFFFFF AND PUSH20 0xFFFFFFFFFFFFFFFFFFFFFFFFFFFFFFFFFFFFFFFF AND DUP2 MSTORE PUSH1 0x20 ADD SWAP1 DUP2 MSTORE PUSH1 0x20 ADD PUSH0 KECCAK256 PUSH1 0x4 SLOAD SWAP1 DUP1 PUSH1 0x1 DUP2 SLOAD ADD DUP1 DUP3 SSTORE DUP1 SWAP2 POP POP PUSH1 0x1 SWAP1 SUB SWAP1 PUSH0 MSTORE PUSH1 0x20 PUSH0 KECCAK256 ADD PUSH0 SWAP1 SWAP2 SWAP1 SWAP2 SWAP1 SWAP2 POP SSTORE DUP6 PUSH20 0xFFFFFFFFFFFFFFFFFFFFFFFFFFFFFFFFFFFFFFFF AND PUSH4 0x23B872DD CALLER ADDRESS DUP9 PUSH1 0x40 MLOAD DUP5 PUSH4 0xFFFFFFFF AND PUSH1 0xE0 SHL DUP2 MSTORE PUSH1 0x4 ADD PUSH2 0xB66 SWAP4 SWAP3 SWAP2 SWAP1 PUSH2 0x1ACC JUMP JUMPDEST PUSH0 PUSH1 0x40 MLOAD DUP1 DUP4 SUB DUP2 PUSH0 DUP8 DUP1 EXTCODESIZE ISZERO DUP1 ISZERO PUSH2 0xB7D JUMPI PUSH0 DUP1 REVERT JUMPDEST POP GAS CALL ISZERO DUP1 ISZERO PUSH2 0xB8F JUMPI RETURNDATASIZE PUSH0 DUP1 RETURNDATACOPY RETURNDATASIZE PUSH0 REVERT JUMPDEST POP POP POP POP PUSH2 0xB9E PUSH1 0x4 SLOAD PUSH2 0x81C JUMP JUMPDEST PUSH1 0x4 PUSH0 DUP2 SLOAD DUP1 SWAP3 SWAP2 SWAP1 PUSH2 0xBB0 SWAP1 PUSH2 0x1BD1 JUMP JUMPDEST SWAP2 SWAP1 POP SSTORE POP PUSH32 0xF767AD1AE2D5476327F80BEF89FBC70354C993E3059ED3D504D127921F60C40B CALLER DUP3 PUSH1 0x40 MLOAD PUSH2 0xBE6 SWAP3 SWAP2 SWAP1 PUSH2 0x17E8 JUMP JUMPDEST PUSH1 0x40 MLOAD DUP1 SWAP2 SUB SWAP1 LOG1 POP POP POP POP POP POP JUMP JUMPDEST PUSH0 PUSH1 0x4 SLOAD SWAP1 POP SWAP1 JUMP JUMPDEST PUSH0 PUSH2 0xC09 DUP3 PUSH2 0xD5B JUMP JUMPDEST SWAP1 POP CALLER PUSH20 0xFFFFFFFFFFFFFFFFFFFFFFFFFFFFFFFFFFFFFFFF AND DUP2 PUSH0 ADD MLOAD PUSH20 0xFFFFFFFFFFFFFFFFFFFFFFFFFFFFFFFFFFFFFFFF AND EQ PUSH2 0xC7C JUMPI PUSH1 0x40 MLOAD PUSH32 0x8C379A000000000000000000000000000000000000000000000000000000000 DUP2 MSTORE PUSH1 0x4 ADD PUSH2 0xC73 SWAP1 PUSH2 0x1A46 JUMP JUMPDEST PUSH1 0x40 MLOAD DUP1 SWAP2 SUB SWAP1 REVERT JUMPDEST PUSH0 PUSH2 0xC86 DUP4 PUSH2 0x50F JUMP JUMPDEST SWAP1 POP CALLER PUSH20 0xFFFFFFFFFFFFFFFFFFFFFFFFFFFFFFFFFFFFFFFF AND BALANCE DUP2 LT PUSH2 0xCE1 JUMPI PUSH1 0x40 MLOAD PUSH32 0x8C379A000000000000000000000000000000000000000000000000000000000 DUP2 MSTORE PUSH1 0x4 ADD PUSH2 0xCD8 SWAP1 PUSH2 0x1C62 JUMP JUMPDEST PUSH1 0x40 MLOAD DUP1 SWAP2 SUB SWAP1 REVERT JUMPDEST PUSH32 0x7265706179656400000000000000000000000000000000000000000000000000 DUP3 PUSH1 0xC0 ADD DUP2 DUP2 MSTORE POP POP PUSH2 0xD14 DUP3 PUSH2 0x6A6 JUMP JUMPDEST PUSH2 0xD1D DUP4 PUSH2 0x81C JUMP JUMPDEST PUSH32 0x94E7116AA05F19F109F7FA598F65ADE35AB1DE8CD3D002B5B2205416E8943E65 CALLER DUP4 PUSH1 0x40 MLOAD PUSH2 0xD4E SWAP3 SWAP2 SWAP1 PUSH2 0x17E8 JUMP JUMPDEST PUSH1 0x40 MLOAD DUP1 SWAP2 SUB SWAP1 LOG1 POP POP POP JUMP JUMPDEST PUSH2 0xD63 PUSH2 0x108C JUMP JUMPDEST PUSH0 DUP1 DUP4 DUP2 MSTORE PUSH1 0x20 ADD SWAP1 DUP2 MSTORE PUSH1 0x20 ADD PUSH0 KECCAK256 PUSH1 0x40 MLOAD DUP1 PUSH1 0xE0 ADD PUSH1 0x40 MSTORE SWAP1 DUP2 PUSH0 DUP3 ADD PUSH0 SWAP1 SLOAD SWAP1 PUSH2 0x100 EXP SWAP1 DIV PUSH20 0xFFFFFFFFFFFFFFFFFFFFFFFFFFFFFFFFFFFFFFFF AND PUSH20 0xFFFFFFFFFFFFFFFFFFFFFFFFFFFFFFFFFFFFFFFF AND PUSH20 0xFFFFFFFFFFFFFFFFFFFFFFFFFFFFFFFFFFFFFFFF AND DUP2 MSTORE PUSH1 0x20 ADD PUSH1 0x1 DUP3 ADD PUSH0 SWAP1 SLOAD SWAP1 PUSH2 0x100 EXP SWAP1 DIV PUSH20 0xFFFFFFFFFFFFFFFFFFFFFFFFFFFFFFFFFFFFFFFF AND PUSH20 0xFFFFFFFFFFFFFFFFFFFFFFFFFFFFFFFFFFFFFFFF AND PUSH20 0xFFFFFFFFFFFFFFFFFFFFFFFFFFFFFFFFFFFFFFFF AND DUP2 MSTORE PUSH1 0x20 ADD PUSH1 0x2 DUP3 ADD SLOAD DUP2 MSTORE PUSH1 0x20 ADD PUSH1 0x3 DUP3 ADD SLOAD DUP2 MSTORE PUSH1 0x20 ADD PUSH1 0x4 DUP3 ADD SLOAD DUP2 MSTORE PUSH1 0x20 ADD PUSH1 0x5 DUP3 ADD SLOAD DUP2 MSTORE PUSH1 0x20 ADD PUSH1 0x6 DUP3 ADD SLOAD DUP2 MSTORE POP POP SWAP1 POP SWAP2 SWAP1 POP JUMP JUMPDEST PUSH0 DUP1 PUSH0 PUSH2 0xE6C DUP5 PUSH2 0xD5B JUMP JUMPDEST SWAP1 POP PUSH0 PUSH1 0x8 SLOAD DUP3 PUSH1 0x80 ADD MLOAD PUSH2 0xE81 SWAP2 SWAP1 PUSH2 0x189A JUMP JUMPDEST PUSH1 0x2 PUSH0 DUP8 DUP2 MSTORE PUSH1 0x20 ADD SWAP1 DUP2 MSTORE PUSH1 0x20 ADD PUSH0 KECCAK256 SLOAD PUSH2 0xE9D SWAP2 SWAP1 PUSH2 0x190E JUMP JUMPDEST SWAP1 POP PUSH0 TIMESTAMP DUP3 PUSH2 0xEAC SWAP2 SWAP1 PUSH2 0x18DB JUMP JUMPDEST SWAP1 POP DUP1 PUSH0 DUP3 LT SWAP5 POP SWAP5 POP POP POP POP SWAP2 POP SWAP2 JUMP JUMPDEST PUSH0 PUSH2 0xEC8 DUP3 PUSH2 0xD5B JUMP JUMPDEST SWAP1 POP CALLER PUSH20 0xFFFFFFFFFFFFFFFFFFFFFFFFFFFFFFFFFFFFFFFF AND DUP2 PUSH0 ADD MLOAD PUSH20 0xFFFFFFFFFFFFFFFFFFFFFFFFFFFFFFFFFFFFFFFF AND EQ PUSH2 0xF3B JUMPI PUSH1 0x40 MLOAD PUSH32 0x8C379A000000000000000000000000000000000000000000000000000000000 DUP2 MSTORE PUSH1 0x4 ADD PUSH2 0xF32 SWAP1 PUSH2 0x1CCA JUMP JUMPDEST PUSH1 0x40 MLOAD DUP1 SWAP2 SUB SWAP1 REVERT JUMPDEST PUSH32 0x6F70656E00000000000000000000000000000000000000000000000000000000 DUP2 PUSH1 0xC0 ADD MLOAD EQ PUSH2 0xFA1 JUMPI PUSH1 0x40 MLOAD PUSH32 0x8C379A000000000000000000000000000000000000000000000000000000000 DUP2 MSTORE PUSH1 0x4 ADD PUSH2 0xF98 SWAP1 PUSH2 0x1D32 JUMP JUMPDEST PUSH1 0x40 MLOAD DUP1 SWAP2 SUB SWAP1 REVERT JUMPDEST PUSH32 0x63616E63656C0000000000000000000000000000000000000000000000000000 DUP2 PUSH1 0xC0 ADD DUP2 DUP2 MSTORE POP POP PUSH2 0xFD4 DUP3 PUSH2 0x81C JUMP JUMPDEST PUSH32 0x7E885013CA94016B1452B4678F1C43C33CD914617B389322AF7F7D97A2C4F585 CALLER DUP3 PUSH1 0x40 MLOAD PUSH2 0x1005 SWAP3 SWAP2 SWAP1 PUSH2 0x17E8 JUMP JUMPDEST PUSH1 0x40 MLOAD DUP1 SWAP2 SUB SWAP1 LOG1 POP POP JUMP JUMPDEST PUSH0 PUSH1 0x20 MSTORE DUP1 PUSH0 MSTORE PUSH1 0x40 PUSH0 KECCAK256 PUSH0 SWAP2 POP SWAP1 POP DUP1 PUSH0 ADD PUSH0 SWAP1 SLOAD SWAP1 PUSH2 0x100 EXP SWAP1 DIV PUSH20 0xFFFFFFFFFFFFFFFFFFFFFFFFFFFFFFFFFFFFFFFF AND SWAP1 DUP1 PUSH1 0x1 ADD PUSH0 SWAP1 SLOAD SWAP1 PUSH2 0x100 EXP SWAP1 DIV PUSH20 0xFFFFFFFFFFFFFFFFFFFFFFFFFFFFFFFFFFFFFFFF AND SWAP1 DUP1 PUSH1 0x2 ADD SLOAD SWAP1 DUP1 PUSH1 0x3 ADD SLOAD SWAP1 DUP1 PUSH1 0x4 ADD SLOAD SWAP1 DUP1 PUSH1 0x5 ADD SLOAD SWAP1 DUP1 PUSH1 0x6 ADD SLOAD SWAP1 POP DUP8 JUMP JUMPDEST PUSH1 0x40 MLOAD DUP1 PUSH1 0xE0 ADD PUSH1 0x40 MSTORE DUP1 PUSH0 PUSH20 0xFFFFFFFFFFFFFFFFFFFFFFFFFFFFFFFFFFFFFFFF AND DUP2 MSTORE PUSH1 0x20 ADD PUSH0 PUSH20 0xFFFFFFFFFFFFFFFFFFFFFFFFFFFFFFFFFFFFFFFF AND DUP2 MSTORE PUSH1 0x20 ADD PUSH0 DUP2 MSTORE PUSH1 0x20 ADD PUSH0 DUP2 MSTORE PUSH1 0x20 ADD PUSH0 DUP2 MSTORE PUSH1 0x20 ADD PUSH0 DUP2 MSTORE PUSH1 0x20 ADD PUSH0 DUP1 NOT AND DUP2 MSTORE POP SWAP1 JUMP JUMPDEST PUSH0 PUSH1 0x40 MLOAD SWAP1 POP SWAP1 JUMP JUMPDEST PUSH0 DUP1 REVERT JUMPDEST PUSH0 PUSH20 0xFFFFFFFFFFFFFFFFFFFFFFFFFFFFFFFFFFFFFFFF DUP3 AND SWAP1 POP SWAP2 SWAP1 POP JUMP JUMPDEST PUSH0 PUSH2 0x1127 DUP3 PUSH2 0x10FE JUMP JUMPDEST SWAP1 POP SWAP2 SWAP1 POP JUMP JUMPDEST PUSH2 0x1137 DUP2 PUSH2 0x111D JUMP JUMPDEST DUP2 EQ PUSH2 0x1141 JUMPI PUSH0 DUP1 REVERT JUMPDEST POP JUMP JUMPDEST PUSH0 DUP2 CALLDATALOAD SWAP1 POP PUSH2 0x1152 DUP2 PUSH2 0x112E JUMP JUMPDEST SWAP3 SWAP2 POP POP JUMP JUMPDEST PUSH0 PUSH1 0x20 DUP3 DUP5 SUB SLT ISZERO PUSH2 0x116D JUMPI PUSH2 0x116C PUSH2 0x10FA JUMP JUMPDEST JUMPDEST PUSH0 PUSH2 0x117A DUP5 DUP3 DUP6 ADD PUSH2 0x1144 JUMP JUMPDEST SWAP2 POP POP SWAP3 SWAP2 POP POP JUMP JUMPDEST PUSH0 DUP2 MLOAD SWAP1 POP SWAP2 SWAP1 POP JUMP JUMPDEST PUSH0 DUP3 DUP3 MSTORE PUSH1 0x20 DUP3 ADD SWAP1 POP SWAP3 SWAP2 POP POP JUMP JUMPDEST PUSH0 DUP2 SWAP1 POP PUSH1 0x20 DUP3 ADD SWAP1 POP SWAP2 SWAP1 POP JUMP JUMPDEST PUSH0 DUP2 SWAP1 POP SWAP2 SWAP1 POP JUMP JUMPDEST PUSH2 0x11BE DUP2 PUSH2 0x11AC JUMP JUMPDEST DUP3 MSTORE POP POP JUMP JUMPDEST PUSH0 PUSH2 0x11CF DUP4 DUP4 PUSH2 0x11B5 JUMP JUMPDEST PUSH1 0x20 DUP4 ADD SWAP1 POP SWAP3 SWAP2 POP POP JUMP JUMPDEST PUSH0 PUSH1 0x20 DUP3 ADD SWAP1 POP SWAP2 SWAP1 POP JUMP JUMPDEST PUSH0 PUSH2 0x11F1 DUP3 PUSH2 0x1183 JUMP JUMPDEST PUSH2 0x11FB DUP2 DUP6 PUSH2 0x118D JUMP JUMPDEST SWAP4 POP PUSH2 0x1206 DUP4 PUSH2 0x119D JUMP JUMPDEST DUP1 PUSH0 JUMPDEST DUP4 DUP2 LT ISZERO PUSH2 0x1236 JUMPI DUP2 MLOAD PUSH2 0x121D DUP9 DUP3 PUSH2 0x11C4 JUMP JUMPDEST SWAP8 POP PUSH2 0x1228 DUP4 PUSH2 0x11DB JUMP JUMPDEST SWAP3 POP POP PUSH1 0x1 DUP2 ADD SWAP1 POP PUSH2 0x1209 JUMP JUMPDEST POP DUP6 SWAP4 POP POP POP POP SWAP3 SWAP2 POP POP JUMP JUMPDEST PUSH0 PUSH1 0x20 DUP3 ADD SWAP1 POP DUP2 DUP2 SUB PUSH0 DUP4 ADD MSTORE PUSH2 0x125B DUP2 DUP5 PUSH2 0x11E7 JUMP JUMPDEST SWAP1 POP SWAP3 SWAP2 POP POP JUMP JUMPDEST PUSH2 0x126C DUP2 PUSH2 0x11AC JUMP JUMPDEST DUP2 EQ PUSH2 0x1276 JUMPI PUSH0 DUP1 REVERT JUMPDEST POP JUMP JUMPDEST PUSH0 DUP2 CALLDATALOAD SWAP1 POP PUSH2 0x1287 DUP2 PUSH2 0x1263 JUMP JUMPDEST SWAP3 SWAP2 POP POP JUMP JUMPDEST PUSH0 PUSH1 0x20 DUP3 DUP5 SUB SLT ISZERO PUSH2 0x12A2 JUMPI PUSH2 0x12A1 PUSH2 0x10FA JUMP JUMPDEST JUMPDEST PUSH0 PUSH2 0x12AF DUP5 DUP3 DUP6 ADD PUSH2 0x1279 JUMP JUMPDEST SWAP2 POP POP SWAP3 SWAP2 POP POP JUMP JUMPDEST PUSH2 0x12C1 DUP2 PUSH2 0x11AC JUMP JUMPDEST DUP3 MSTORE POP POP JUMP JUMPDEST PUSH0 PUSH1 0x20 DUP3 ADD SWAP1 POP PUSH2 0x12DA PUSH0 DUP4 ADD DUP5 PUSH2 0x12B8 JUMP JUMPDEST SWAP3 SWAP2 POP POP JUMP JUMPDEST PUSH0 DUP1 PUSH1 0x40 DUP4 DUP6 SUB SLT ISZERO PUSH2 0x12F6 JUMPI PUSH2 0x12F5 PUSH2 0x10FA JUMP JUMPDEST JUMPDEST PUSH0 PUSH2 0x1303 DUP6 DUP3 DUP7 ADD PUSH2 0x1144 JUMP JUMPDEST SWAP3 POP POP PUSH1 0x20 PUSH2 0x1314 DUP6 DUP3 DUP7 ADD PUSH2 0x1279 JUMP JUMPDEST SWAP2 POP POP SWAP3 POP SWAP3 SWAP1 POP JUMP JUMPDEST PUSH2 0x1327 DUP2 PUSH2 0x111D JUMP JUMPDEST DUP3 MSTORE POP POP JUMP JUMPDEST PUSH0 PUSH1 0x20 DUP3 ADD SWAP1 POP PUSH2 0x1340 PUSH0 DUP4 ADD DUP5 PUSH2 0x131E JUMP JUMPDEST SWAP3 SWAP2 POP POP JUMP JUMPDEST PUSH0 DUP2 ISZERO ISZERO SWAP1 POP SWAP2 SWAP1 POP JUMP JUMPDEST PUSH2 0x135A DUP2 PUSH2 0x1346 JUMP JUMPDEST DUP3 MSTORE POP POP JUMP JUMPDEST PUSH0 PUSH1 0x20 DUP3 ADD SWAP1 POP PUSH2 0x1373 PUSH0 DUP4 ADD DUP5 PUSH2 0x1351 JUMP JUMPDEST SWAP3 SWAP2 POP POP JUMP JUMPDEST PUSH0 DUP1 REVERT JUMPDEST PUSH0 PUSH1 0x1F NOT PUSH1 0x1F DUP4 ADD AND SWAP1 POP SWAP2 SWAP1 POP JUMP JUMPDEST PUSH32 0x4E487B7100000000000000000000000000000000000000000000000000000000 PUSH0 MSTORE PUSH1 0x41 PUSH1 0x4 MSTORE PUSH1 0x24 PUSH0 REVERT JUMPDEST PUSH2 0x13C3 DUP3 PUSH2 0x137D JUMP JUMPDEST DUP2 ADD DUP2 DUP2 LT PUSH8 0xFFFFFFFFFFFFFFFF DUP3 GT OR ISZERO PUSH2 0x13E2 JUMPI PUSH2 0x13E1 PUSH2 0x138D JUMP JUMPDEST JUMPDEST DUP1 PUSH1 0x40 MSTORE POP POP POP JUMP JUMPDEST PUSH0 PUSH2 0x13F4 PUSH2 0x10F1 JUMP JUMPDEST SWAP1 POP PUSH2 0x1400 DUP3 DUP3 PUSH2 0x13BA JUMP JUMPDEST SWAP2 SWAP1 POP JUMP JUMPDEST PUSH0 PUSH2 0x140F DUP3 PUSH2 0x10FE JUMP JUMPDEST SWAP1 POP SWAP2 SWAP1 POP JUMP JUMPDEST PUSH2 0x141F DUP2 PUSH2 0x1405 JUMP JUMPDEST DUP2 EQ PUSH2 0x1429 JUMPI PUSH0 DUP1 REVERT JUMPDEST POP JUMP JUMPDEST PUSH0 DUP2 CALLDATALOAD SWAP1 POP PUSH2 0x143A DUP2 PUSH2 0x1416 JUMP JUMPDEST SWAP3 SWAP2 POP POP JUMP JUMPDEST PUSH0 DUP2 SWAP1 POP SWAP2 SWAP1 POP JUMP JUMPDEST PUSH2 0x1452 DUP2 PUSH2 0x1440 JUMP JUMPDEST DUP2 EQ PUSH2 0x145C JUMPI PUSH0 DUP1 REVERT JUMPDEST POP JUMP JUMPDEST PUSH0 DUP2 CALLDATALOAD SWAP1 POP PUSH2 0x146D DUP2 PUSH2 0x1449 JUMP JUMPDEST SWAP3 SWAP2 POP POP JUMP JUMPDEST PUSH0 PUSH1 0xE0 DUP3 DUP5 SUB SLT ISZERO PUSH2 0x1488 JUMPI PUSH2 0x1487 PUSH2 0x1379 JUMP JUMPDEST JUMPDEST PUSH2 0x1492 PUSH1 0xE0 PUSH2 0x13EB JUMP JUMPDEST SWAP1 POP PUSH0 PUSH2 0x14A1 DUP5 DUP3 DUP6 ADD PUSH2 0x142C JUMP JUMPDEST PUSH0 DUP4 ADD MSTORE POP PUSH1 0x20 PUSH2 0x14B4 DUP5 DUP3 DUP6 ADD PUSH2 0x1144 JUMP JUMPDEST PUSH1 0x20 DUP4 ADD MSTORE POP PUSH1 0x40 PUSH2 0x14C8 DUP5 DUP3 DUP6 ADD PUSH2 0x1279 JUMP JUMPDEST PUSH1 0x40 DUP4 ADD MSTORE POP PUSH1 0x60 PUSH2 0x14DC DUP5 DUP3 DUP6 ADD PUSH2 0x1279 JUMP JUMPDEST PUSH1 0x60 DUP4 ADD MSTORE POP PUSH1 0x80 PUSH2 0x14F0 DUP5 DUP3 DUP6 ADD PUSH2 0x1279 JUMP JUMPDEST PUSH1 0x80 DUP4 ADD MSTORE POP PUSH1 0xA0 PUSH2 0x1504 DUP5 DUP3 DUP6 ADD PUSH2 0x1279 JUMP JUMPDEST PUSH1 0xA0 DUP4 ADD MSTORE POP PUSH1 0xC0 PUSH2 0x1518 DUP5 DUP3 DUP6 ADD PUSH2 0x145F JUMP JUMPDEST PUSH1 0xC0 DUP4 ADD MSTORE POP SWAP3 SWAP2 POP POP JUMP JUMPDEST PUSH0 PUSH1 0xE0 DUP3 DUP5 SUB SLT ISZERO PUSH2 0x1539 JUMPI PUSH2 0x1538 PUSH2 0x10FA JUMP JUMPDEST JUMPDEST PUSH0 PUSH2 0x1546 DUP5 DUP3 DUP6 ADD PUSH2 0x1473 JUMP JUMPDEST SWAP2 POP POP SWAP3 SWAP2 POP POP JUMP JUMPDEST PUSH0 DUP1 PUSH0 DUP1 PUSH0 PUSH1 0xA0 DUP7 DUP9 SUB SLT ISZERO PUSH2 0x1568 JUMPI PUSH2 0x1567 PUSH2 0x10FA JUMP JUMPDEST JUMPDEST PUSH0 PUSH2 0x1575 DUP9 DUP3 DUP10 ADD PUSH2 0x1144 JUMP JUMPDEST SWAP6 POP POP PUSH1 0x20 PUSH2 0x1586 DUP9 DUP3 DUP10 ADD PUSH2 0x1279 JUMP JUMPDEST SWAP5 POP POP PUSH1 0x40 PUSH2 0x1597 DUP9 DUP3 DUP10 ADD PUSH2 0x1279 JUMP JUMPDEST SWAP4 POP POP PUSH1 0x60 PUSH2 0x15A8 DUP9 DUP3 DUP10 ADD PUSH2 0x1279 JUMP JUMPDEST SWAP3 POP POP PUSH1 0x80 PUSH2 0x15B9 DUP9 DUP3 DUP10 ADD PUSH2 0x1279 JUMP JUMPDEST SWAP2 POP POP SWAP3 SWAP6 POP SWAP3 SWAP6 SWAP1 SWAP4 POP JUMP JUMPDEST PUSH2 0x15CF DUP2 PUSH2 0x1405 JUMP JUMPDEST DUP3 MSTORE POP POP JUMP JUMPDEST PUSH2 0x15DE DUP2 PUSH2 0x111D JUMP JUMPDEST DUP3 MSTORE POP POP JUMP JUMPDEST PUSH2 0x15ED DUP2 PUSH2 0x1440 JUMP JUMPDEST DUP3 MSTORE POP POP JUMP JUMPDEST PUSH1 0xE0 DUP3 ADD PUSH0 DUP3 ADD MLOAD PUSH2 0x1607 PUSH0 DUP6 ADD DUP3 PUSH2 0x15C6 JUMP JUMPDEST POP PUSH1 0x20 DUP3 ADD MLOAD PUSH2 0x161A PUSH1 0x20 DUP6 ADD DUP3 PUSH2 0x15D5 JUMP JUMPDEST POP PUSH1 0x40 DUP3 ADD MLOAD PUSH2 0x162D PUSH1 0x40 DUP6 ADD DUP3 PUSH2 0x11B5 JUMP JUMPDEST POP PUSH1 0x60 DUP3 ADD MLOAD PUSH2 0x1640 PUSH1 0x60 DUP6 ADD DUP3 PUSH2 0x11B5 JUMP JUMPDEST POP PUSH1 0x80 DUP3 ADD MLOAD PUSH2 0x1653 PUSH1 0x80 DUP6 ADD DUP3 PUSH2 0x11B5 JUMP JUMPDEST POP PUSH1 0xA0 DUP3 ADD MLOAD PUSH2 0x1666 PUSH1 0xA0 DUP6 ADD DUP3 PUSH2 0x11B5 JUMP JUMPDEST POP PUSH1 0xC0 DUP3 ADD MLOAD PUSH2 0x1679 PUSH1 0xC0 DUP6 ADD DUP3 PUSH2 0x15E4 JUMP JUMPDEST POP POP POP POP JUMP JUMPDEST PUSH0 PUSH1 0xE0 DUP3 ADD SWAP1 POP PUSH2 0x1692 PUSH0 DUP4 ADD DUP5 PUSH2 0x15F3 JUMP JUMPDEST SWAP3 SWAP2 POP POP JUMP JUMPDEST PUSH0 PUSH1 0x40 DUP3 ADD SWAP1 POP PUSH2 0x16AB PUSH0 DUP4 ADD DUP6 PUSH2 0x12B8 JUMP JUMPDEST PUSH2 0x16B8 PUSH1 0x20 DUP4 ADD DUP5 PUSH2 0x1351 JUMP JUMPDEST SWAP4 SWAP3 POP POP POP JUMP JUMPDEST PUSH2 0x16C8 DUP2 PUSH2 0x1405 JUMP JUMPDEST DUP3 MSTORE POP POP JUMP JUMPDEST PUSH2 0x16D7 DUP2 PUSH2 0x1440 JUMP JUMPDEST DUP3 MSTORE POP POP JUMP JUMPDEST PUSH0 PUSH1 0xE0 DUP3 ADD SWAP1 POP PUSH2 0x16F0 PUSH0 DUP4 ADD DUP11 PUSH2 0x16BF JUMP JUMPDEST PUSH2 0x16FD PUSH1 0x20 DUP4 ADD DUP10 PUSH2 0x131E JUMP JUMPDEST PUSH2 0x170A PUSH1 0x40 DUP4 ADD DUP9 PUSH2 0x12B8 JUMP JUMPDEST PUSH2 0x1717 PUSH1 0x60 DUP4 ADD DUP8 PUSH2 0x12B8 JUMP JUMPDEST PUSH2 0x1724 PUSH1 0x80 DUP4 ADD DUP7 PUSH2 0x12B8 JUMP JUMPDEST PUSH2 0x1731 PUSH1 0xA0 DUP4 ADD DUP6 PUSH2 0x12B8 JUMP JUMPDEST PUSH2 0x173E PUSH1 0xC0 DUP4 ADD DUP5 PUSH2 0x16CE JUMP JUMPDEST SWAP9 SWAP8 POP POP POP POP POP POP POP POP JUMP JUMPDEST PUSH0 DUP3 DUP3 MSTORE PUSH1 0x20 DUP3 ADD SWAP1 POP SWAP3 SWAP2 POP POP JUMP JUMPDEST PUSH32 0x596F7520686176656E277420656E6F7567682062616C616E636520666F72206C PUSH0 DUP3 ADD MSTORE PUSH32 0x656E64696E670000000000000000000000000000000000000000000000000000 PUSH1 0x20 DUP3 ADD MSTORE POP JUMP JUMPDEST PUSH0 PUSH2 0x17B4 PUSH1 0x26 DUP4 PUSH2 0x174A JUMP JUMPDEST SWAP2 POP PUSH2 0x17BF DUP3 PUSH2 0x175A JUMP JUMPDEST PUSH1 0x40 DUP3 ADD SWAP1 POP SWAP2 SWAP1 POP JUMP JUMPDEST PUSH0 PUSH1 0x20 DUP3 ADD SWAP1 POP DUP2 DUP2 SUB PUSH0 DUP4 ADD MSTORE PUSH2 0x17E1 DUP2 PUSH2 0x17A8 JUMP JUMPDEST SWAP1 POP SWAP2 SWAP1 POP JUMP JUMPDEST PUSH0 PUSH2 0x100 DUP3 ADD SWAP1 POP PUSH2 0x17FC PUSH0 DUP4 ADD DUP6 PUSH2 0x131E JUMP JUMPDEST PUSH2 0x1809 PUSH1 0x20 DUP4 ADD DUP5 PUSH2 0x15F3 JUMP JUMPDEST SWAP4 SWAP3 POP POP POP JUMP JUMPDEST PUSH32 0x4E487B7100000000000000000000000000000000000000000000000000000000 PUSH0 MSTORE PUSH1 0x12 PUSH1 0x4 MSTORE PUSH1 0x24 PUSH0 REVERT JUMPDEST PUSH32 0x4E487B7100000000000000000000000000000000000000000000000000000000 PUSH0 MSTORE PUSH1 0x11 PUSH1 0x4 MSTORE PUSH1 0x24 PUSH0 REVERT JUMPDEST PUSH0 PUSH2 0x1874 DUP3 PUSH2 0x11AC JUMP JUMPDEST SWAP2 POP PUSH2 0x187F DUP4 PUSH2 0x11AC JUMP JUMPDEST SWAP3 POP DUP3 PUSH2 0x188F JUMPI PUSH2 0x188E PUSH2 0x1810 JUMP JUMPDEST JUMPDEST DUP3 DUP3 DIV SWAP1 POP SWAP3 SWAP2 POP POP JUMP JUMPDEST PUSH0 PUSH2 0x18A4 DUP3 PUSH2 0x11AC JUMP JUMPDEST SWAP2 POP PUSH2 0x18AF DUP4 PUSH2 0x11AC JUMP JUMPDEST SWAP3 POP DUP3 DUP3 MUL PUSH2 0x18BD DUP2 PUSH2 0x11AC JUMP JUMPDEST SWAP2 POP DUP3 DUP3 DIV DUP5 EQ DUP4 ISZERO OR PUSH2 0x18D4 JUMPI PUSH2 0x18D3 PUSH2 0x183D JUMP JUMPDEST JUMPDEST POP SWAP3 SWAP2 POP POP JUMP JUMPDEST PUSH0 PUSH2 0x18E5 DUP3 PUSH2 0x11AC JUMP JUMPDEST SWAP2 POP PUSH2 0x18F0 DUP4 PUSH2 0x11AC JUMP JUMPDEST SWAP3 POP DUP3 DUP3 SUB SWAP1 POP DUP2 DUP2 GT ISZERO PUSH2 0x1908 JUMPI PUSH2 0x1907 PUSH2 0x183D JUMP JUMPDEST JUMPDEST SWAP3 SWAP2 POP POP JUMP JUMPDEST PUSH0 PUSH2 0x1918 DUP3 PUSH2 0x11AC JUMP JUMPDEST SWAP2 POP PUSH2 0x1923 DUP4 PUSH2 0x11AC JUMP JUMPDEST SWAP3 POP DUP3 DUP3 ADD SWAP1 POP DUP1 DUP3 GT ISZERO PUSH2 0x193B JUMPI PUSH2 0x193A PUSH2 0x183D JUMP JUMPDEST JUMPDEST SWAP3 SWAP2 POP POP JUMP JUMPDEST PUSH0 DUP2 MLOAD SWAP1 POP PUSH2 0x194F DUP2 PUSH2 0x112E JUMP JUMPDEST SWAP3 SWAP2 POP POP JUMP JUMPDEST PUSH0 PUSH1 0x20 DUP3 DUP5 SUB SLT ISZERO PUSH2 0x196A JUMPI PUSH2 0x1969 PUSH2 0x10FA JUMP JUMPDEST JUMPDEST PUSH0 PUSH2 0x1977 DUP5 DUP3 DUP6 ADD PUSH2 0x1941 JUMP JUMPDEST SWAP2 POP POP SWAP3 SWAP2 POP POP JUMP JUMPDEST PUSH0 PUSH1 0x40 DUP3 ADD SWAP1 POP PUSH2 0x1993 PUSH0 DUP4 ADD DUP6 PUSH2 0x131E JUMP JUMPDEST PUSH2 0x19A0 PUSH1 0x20 DUP4 ADD DUP5 PUSH2 0x131E JUMP JUMPDEST SWAP4 SWAP3 POP POP POP JUMP JUMPDEST PUSH2 0x19B0 DUP2 PUSH2 0x1346 JUMP JUMPDEST DUP2 EQ PUSH2 0x19BA JUMPI PUSH0 DUP1 REVERT JUMPDEST POP JUMP JUMPDEST PUSH0 DUP2 MLOAD SWAP1 POP PUSH2 0x19CB DUP2 PUSH2 0x19A7 JUMP JUMPDEST SWAP3 SWAP2 POP POP JUMP JUMPDEST PUSH0 PUSH1 0x20 DUP3 DUP5 SUB SLT ISZERO PUSH2 0x19E6 JUMPI PUSH2 0x19E5 PUSH2 0x10FA JUMP JUMPDEST JUMPDEST PUSH0 PUSH2 0x19F3 DUP5 DUP3 DUP6 ADD PUSH2 0x19BD JUMP JUMPDEST SWAP2 POP POP SWAP3 SWAP2 POP POP JUMP JUMPDEST PUSH32 0x596F7520617265206E6F7420706F737465720000000000000000000000000000 PUSH0 DUP3 ADD MSTORE POP JUMP JUMPDEST PUSH0 PUSH2 0x1A30 PUSH1 0x12 DUP4 PUSH2 0x174A JUMP JUMPDEST SWAP2 POP PUSH2 0x1A3B DUP3 PUSH2 0x19FC JUMP JUMPDEST PUSH1 0x20 DUP3 ADD SWAP1 POP SWAP2 SWAP1 POP JUMP JUMPDEST PUSH0 PUSH1 0x20 DUP3 ADD SWAP1 POP DUP2 DUP2 SUB PUSH0 DUP4 ADD MSTORE PUSH2 0x1A5D DUP2 PUSH2 0x1A24 JUMP JUMPDEST SWAP1 POP SWAP2 SWAP1 POP JUMP JUMPDEST PUSH32 0x546869732069736E277420726570617920796574000000000000000000000000 PUSH0 DUP3 ADD MSTORE POP JUMP JUMPDEST PUSH0 PUSH2 0x1A98 PUSH1 0x14 DUP4 PUSH2 0x174A JUMP JUMPDEST SWAP2 POP PUSH2 0x1AA3 DUP3 PUSH2 0x1A64 JUMP JUMPDEST PUSH1 0x20 DUP3 ADD SWAP1 POP SWAP2 SWAP1 POP JUMP JUMPDEST PUSH0 PUSH1 0x20 DUP3 ADD SWAP1 POP DUP2 DUP2 SUB PUSH0 DUP4 ADD MSTORE PUSH2 0x1AC5 DUP2 PUSH2 0x1A8C JUMP JUMPDEST SWAP1 POP SWAP2 SWAP1 POP JUMP JUMPDEST PUSH0 PUSH1 0x60 DUP3 ADD SWAP1 POP PUSH2 0x1ADF PUSH0 DUP4 ADD DUP7 PUSH2 0x131E JUMP JUMPDEST PUSH2 0x1AEC PUSH1 0x20 DUP4 ADD DUP6 PUSH2 0x131E JUMP JUMPDEST PUSH2 0x1AF9 PUSH1 0x40 DUP4 ADD DUP5 PUSH2 0x12B8 JUMP JUMPDEST SWAP5 SWAP4 POP POP POP POP JUMP JUMPDEST PUSH32 0x56616C756573206D7573742062652067726561746572207468616E207A65726F PUSH0 DUP3 ADD MSTORE POP JUMP JUMPDEST PUSH0 PUSH2 0x1B35 PUSH1 0x20 DUP4 PUSH2 0x174A JUMP JUMPDEST SWAP2 POP PUSH2 0x1B40 DUP3 PUSH2 0x1B01 JUMP JUMPDEST PUSH1 0x20 DUP3 ADD SWAP1 POP SWAP2 SWAP1 POP JUMP JUMPDEST PUSH0 PUSH1 0x20 DUP3 ADD SWAP1 POP DUP2 DUP2 SUB PUSH0 DUP4 ADD MSTORE PUSH2 0x1B62 DUP2 PUSH2 0x1B29 JUMP JUMPDEST SWAP1 POP SWAP2 SWAP1 POP JUMP JUMPDEST PUSH32 0x596F7520617265206E6F7420686F6C646572206F66207468697320746F6B656E PUSH0 DUP3 ADD MSTORE POP JUMP JUMPDEST PUSH0 PUSH2 0x1B9D PUSH1 0x20 DUP4 PUSH2 0x174A JUMP JUMPDEST SWAP2 POP PUSH2 0x1BA8 DUP3 PUSH2 0x1B69 JUMP JUMPDEST PUSH1 0x20 DUP3 ADD SWAP1 POP SWAP2 SWAP1 POP JUMP JUMPDEST PUSH0 PUSH1 0x20 DUP3 ADD SWAP1 POP DUP2 DUP2 SUB PUSH0 DUP4 ADD MSTORE PUSH2 0x1BCA DUP2 PUSH2 0x1B91 JUMP JUMPDEST SWAP1 POP SWAP2 SWAP1 POP JUMP JUMPDEST PUSH0 PUSH2 0x1BDB DUP3 PUSH2 0x11AC JUMP JUMPDEST SWAP2 POP PUSH32 0xFFFFFFFFFFFFFFFFFFFFFFFFFFFFFFFFFFFFFFFFFFFFFFFFFFFFFFFFFFFFFFFF DUP3 SUB PUSH2 0x1C0D JUMPI PUSH2 0x1C0C PUSH2 0x183D JUMP JUMPDEST JUMPDEST PUSH1 0x1 DUP3 ADD SWAP1 POP SWAP2 SWAP1 POP JUMP JUMPDEST PUSH32 0x4E6F7420656E6F7567682062616C616E636520666F72207265706179696E6700 PUSH0 DUP3 ADD MSTORE POP JUMP JUMPDEST PUSH0 PUSH2 0x1C4C PUSH1 0x1F DUP4 PUSH2 0x174A JUMP JUMPDEST SWAP2 POP PUSH2 0x1C57 DUP3 PUSH2 0x1C18 JUMP JUMPDEST PUSH1 0x20 DUP3 ADD SWAP1 POP SWAP2 SWAP1 POP JUMP JUMPDEST PUSH0 PUSH1 0x20 DUP3 ADD SWAP1 POP DUP2 DUP2 SUB PUSH0 DUP4 ADD MSTORE PUSH2 0x1C79 DUP2 PUSH2 0x1C40 JUMP JUMPDEST SWAP1 POP SWAP2 SWAP1 POP JUMP JUMPDEST PUSH32 0x596F7520617265206E6F7420706F73746572206F6620746865206C6973740000 PUSH0 DUP3 ADD MSTORE POP JUMP JUMPDEST PUSH0 PUSH2 0x1CB4 PUSH1 0x1E DUP4 PUSH2 0x174A JUMP JUMPDEST SWAP2 POP PUSH2 0x1CBF DUP3 PUSH2 0x1C80 JUMP JUMPDEST PUSH1 0x20 DUP3 ADD SWAP1 POP SWAP2 SWAP1 POP JUMP JUMPDEST PUSH0 PUSH1 0x20 DUP3 ADD SWAP1 POP DUP2 DUP2 SUB PUSH0 DUP4 ADD MSTORE PUSH2 0x1CE1 DUP2 PUSH2 0x1CA8 JUMP JUMPDEST SWAP1 POP SWAP2 SWAP1 POP JUMP JUMPDEST PUSH32 0x4E6F74206F70656E696E67206C69737400000000000000000000000000000000 PUSH0 DUP3 ADD MSTORE POP JUMP JUMPDEST PUSH0 PUSH2 0x1D1C PUSH1 0x10 DUP4 PUSH2 0x174A JUMP JUMPDEST SWAP2 POP PUSH2 0x1D27 DUP3 PUSH2 0x1CE8 JUMP JUMPDEST PUSH1 0x20 DUP3 ADD SWAP1 POP SWAP2 SWAP1 POP JUMP JUMPDEST PUSH0 PUSH1 0x20 DUP3 ADD SWAP1 POP DUP2 DUP2 SUB PUSH0 DUP4 ADD MSTORE PUSH2 0x1D49 DUP2 PUSH2 0x1D10 JUMP JUMPDEST SWAP1 POP SWAP2 SWAP1 POP JUMP INVALID LOG2 PUSH5 0x6970667358 0x22 SLT KECCAK256 KECCAK256 PUSH32 0xEBBBF61A3F35497D227471B2E324207FC8E0BEBB6029F397D313C3BAC0556473 PUSH16 0x6C634300081700330000000000000000 "
				},
				"gasEstimates": {
					"creation": {
						"codeDepositCost": "1511600",
						"executionCost": "112110",
						"totalCost": "1623710"
					},
					"external": {
						"calculateRepayAmount(uint256)": "infinite",
						"closeListing(uint256)": "infinite",
						"getCounter()": "2477",
						"getListing(address)": "infinite",
						"getListingInfo(uint256)": "infinite",
						"giveBackNFT((address,address,uint256,uint256,uint256,uint256,bytes32))": "infinite",
						"isApprove(address)": "infinite",
						"isExpired(uint256)": "infinite",
						"lendApproval(uint256)": "infinite",
						"listNum(uint256)": "infinite",
						"openListing(address,uint256,uint256,uint256,uint256)": "infinite",
						"ownerOf(address,uint256)": "infinite",
						"repayLoan(uint256)": "infinite",
						"updateTime(uint256)": "22679"
					}
				},
				"methodIdentifiers": {
					"calculateRepayAmount(uint256)": "1ac31f0d",
					"closeListing(uint256)": "e5a255cb",
					"getCounter()": "8ada066e",
					"getListing(address)": "084af0b2",
					"getListingInfo(uint256)": "b9314135",
					"giveBackNFT((address,address,uint256,uint256,uint256,uint256,bytes32))": "5e8441e4",
					"isApprove(address)": "4f694690",
					"isExpired(uint256)": "d9548e53",
					"lendApproval(uint256)": "172656d1",
					"listNum(uint256)": "eeabfc4a",
					"openListing(address,uint256,uint256,uint256,uint256)": "880fe941",
					"ownerOf(address,uint256)": "1f29d2dc",
					"repayLoan(uint256)": "ab7b1c89",
					"updateTime(uint256)": "6c59bd0c"
				}
			},
			"storageLayout": {
				"storage": [
					{
						"astId": 179,
						"contract": "platform.sol:Platform",
						"label": "listNum",
						"offset": 0,
						"slot": "0",
						"type": "t_mapping(t_uint256,t_struct(ListingInfo)174_storage)"
					},
					{
						"astId": 184,
						"contract": "platform.sol:Platform",
						"label": "addrList",
						"offset": 0,
						"slot": "1",
						"type": "t_mapping(t_address,t_array(t_uint256)dyn_storage)"
					},
					{
						"astId": 188,
						"contract": "platform.sol:Platform",
						"label": "updatedTime",
						"offset": 0,
						"slot": "2",
						"type": "t_mapping(t_uint256,t_uint256)"
					},
					{
						"astId": 192,
						"contract": "platform.sol:Platform",
						"label": "loaner",
						"offset": 0,
						"slot": "3",
						"type": "t_mapping(t_uint256,t_address_payable)"
					},
					{
						"astId": 195,
						"contract": "platform.sol:Platform",
						"label": "counter",
						"offset": 0,
						"slot": "4",
						"type": "t_uint256"
					},
					{
						"astId": 198,
						"contract": "platform.sol:Platform",
						"label": "yearToDay",
						"offset": 0,
						"slot": "5",
						"type": "t_uint256"
					},
					{
						"astId": 201,
						"contract": "platform.sol:Platform",
						"label": "monthToSec",
						"offset": 0,
						"slot": "6",
						"type": "t_uint256"
					},
					{
						"astId": 204,
						"contract": "platform.sol:Platform",
						"label": "dayToSec",
						"offset": 0,
						"slot": "7",
						"type": "t_uint256"
					},
					{
						"astId": 207,
						"contract": "platform.sol:Platform",
						"label": "minTosec",
						"offset": 0,
						"slot": "8",
						"type": "t_uint256"
					}
				],
				"types": {
					"t_address": {
						"encoding": "inplace",
						"label": "address",
						"numberOfBytes": "20"
					},
					"t_address_payable": {
						"encoding": "inplace",
						"label": "address payable",
						"numberOfBytes": "20"
					},
					"t_array(t_uint256)dyn_storage": {
						"base": "t_uint256",
						"encoding": "dynamic_array",
						"label": "uint256[]",
						"numberOfBytes": "32"
					},
					"t_bytes32": {
						"encoding": "inplace",
						"label": "bytes32",
						"numberOfBytes": "32"
					},
					"t_mapping(t_address,t_array(t_uint256)dyn_storage)": {
						"encoding": "mapping",
						"key": "t_address",
						"label": "mapping(address => uint256[])",
						"numberOfBytes": "32",
						"value": "t_array(t_uint256)dyn_storage"
					},
					"t_mapping(t_uint256,t_address_payable)": {
						"encoding": "mapping",
						"key": "t_uint256",
						"label": "mapping(uint256 => address payable)",
						"numberOfBytes": "32",
						"value": "t_address_payable"
					},
					"t_mapping(t_uint256,t_struct(ListingInfo)174_storage)": {
						"encoding": "mapping",
						"key": "t_uint256",
						"label": "mapping(uint256 => struct Platform.ListingInfo)",
						"numberOfBytes": "32",
						"value": "t_struct(ListingInfo)174_storage"
					},
					"t_mapping(t_uint256,t_uint256)": {
						"encoding": "mapping",
						"key": "t_uint256",
						"label": "mapping(uint256 => uint256)",
						"numberOfBytes": "32",
						"value": "t_uint256"
					},
					"t_struct(ListingInfo)174_storage": {
						"encoding": "inplace",
						"label": "struct Platform.ListingInfo",
						"members": [
							{
								"astId": 161,
								"contract": "platform.sol:Platform",
								"label": "poster",
								"offset": 0,
								"slot": "0",
								"type": "t_address_payable"
							},
							{
								"astId": 163,
								"contract": "platform.sol:Platform",
								"label": "collectionAddr",
								"offset": 0,
								"slot": "1",
								"type": "t_address"
							},
							{
								"astId": 165,
								"contract": "platform.sol:Platform",
								"label": "tokenId",
								"offset": 0,
								"slot": "2",
								"type": "t_uint256"
							},
							{
								"astId": 167,
								"contract": "platform.sol:Platform",
								"label": "amount",
								"offset": 0,
								"slot": "3",
								"type": "t_uint256"
							},
							{
								"astId": 169,
								"contract": "platform.sol:Platform",
								"label": "duration",
								"offset": 0,
								"slot": "4",
								"type": "t_uint256"
							},
							{
								"astId": 171,
								"contract": "platform.sol:Platform",
								"label": "APR",
								"offset": 0,
								"slot": "5",
								"type": "t_uint256"
							},
							{
								"astId": 173,
								"contract": "platform.sol:Platform",
								"label": "status",
								"offset": 0,
								"slot": "6",
								"type": "t_bytes32"
							}
						],
						"numberOfBytes": "224"
					},
					"t_uint256": {
						"encoding": "inplace",
						"label": "uint256",
						"numberOfBytes": "32"
					}
				}
			},
			"userdoc": {
				"kind": "user",
				"methods": {},
				"version": 1
			}
		}
	}
}