{
	"platform.sol": {
		"Platform": {
			"abi": [
				{
					"anonymous": false,
					"inputs": [
						{
							"indexed": false,
							"internalType": "address",
							"name": "loaner",
							"type": "address"
						},
						{
							"components": [
								{
									"internalType": "address payable",
									"name": "poster",
									"type": "address"
								},
								{
									"internalType": "address",
									"name": "collectionAddr",
									"type": "address"
								},
								{
									"internalType": "uint256",
									"name": "tokenId",
									"type": "uint256"
								},
								{
									"internalType": "uint256",
									"name": "amount",
									"type": "uint256"
								},
								{
									"internalType": "uint256",
									"name": "duration",
									"type": "uint256"
								},
								{
									"internalType": "uint256",
									"name": "APR",
									"type": "uint256"
								},
								{
									"internalType": "bytes32",
									"name": "status",
									"type": "bytes32"
								}
							],
							"indexed": false,
							"internalType": "struct Platform.ListingInfo",
							"name": "info",
							"type": "tuple"
						}
					],
					"name": "ApprovalListing",
					"type": "event"
				},
				{
					"anonymous": false,
					"inputs": [
						{
							"indexed": false,
							"internalType": "address",
							"name": "owner",
							"type": "address"
						},
						{
							"components": [
								{
									"internalType": "address payable",
									"name": "poster",
									"type": "address"
								},
								{
									"internalType": "address",
									"name": "collectionAddr",
									"type": "address"
								},
								{
									"internalType": "uint256",
									"name": "tokenId",
									"type": "uint256"
								},
								{
									"internalType": "uint256",
									"name": "amount",
									"type": "uint256"
								},
								{
									"internalType": "uint256",
									"name": "duration",
									"type": "uint256"
								},
								{
									"internalType": "uint256",
									"name": "APR",
									"type": "uint256"
								},
								{
									"internalType": "bytes32",
									"name": "status",
									"type": "bytes32"
								}
							],
							"indexed": false,
							"internalType": "struct Platform.ListingInfo",
							"name": "info",
							"type": "tuple"
						}
					],
					"name": "NewListing",
					"type": "event"
				},
				{
					"inputs": [
						{
							"internalType": "uint256",
							"name": "listingIndex",
							"type": "uint256"
						}
					],
					"name": "closeListing",
					"outputs": [],
					"stateMutability": "nonpayable",
					"type": "function"
				},
				{
					"inputs": [],
					"name": "getCounter",
					"outputs": [
						{
							"internalType": "uint256",
							"name": "",
							"type": "uint256"
						}
					],
					"stateMutability": "view",
					"type": "function"
				},
				{
					"inputs": [
						{
							"internalType": "address",
							"name": "addr",
							"type": "address"
						}
					],
					"name": "getListing",
					"outputs": [
						{
							"internalType": "uint256[]",
							"name": "",
							"type": "uint256[]"
						}
					],
					"stateMutability": "view",
					"type": "function"
				},
				{
					"inputs": [
						{
							"internalType": "uint256",
							"name": "num",
							"type": "uint256"
						}
					],
					"name": "getListingInfo",
					"outputs": [
						{
							"components": [
								{
									"internalType": "address payable",
									"name": "poster",
									"type": "address"
								},
								{
									"internalType": "address",
									"name": "collectionAddr",
									"type": "address"
								},
								{
									"internalType": "uint256",
									"name": "tokenId",
									"type": "uint256"
								},
								{
									"internalType": "uint256",
									"name": "amount",
									"type": "uint256"
								},
								{
									"internalType": "uint256",
									"name": "duration",
									"type": "uint256"
								},
								{
									"internalType": "uint256",
									"name": "APR",
									"type": "uint256"
								},
								{
									"internalType": "bytes32",
									"name": "status",
									"type": "bytes32"
								}
							],
							"internalType": "struct Platform.ListingInfo",
							"name": "",
							"type": "tuple"
						}
					],
					"stateMutability": "view",
					"type": "function"
				},
				{
					"inputs": [
						{
							"internalType": "address",
							"name": "collectionAddr",
							"type": "address"
						}
					],
					"name": "isApprove",
					"outputs": [
						{
							"internalType": "bool",
							"name": "",
							"type": "bool"
						}
					],
					"stateMutability": "view",
					"type": "function"
				},
				{
					"inputs": [
						{
							"internalType": "uint256",
							"name": "listingIndex",
							"type": "uint256"
						}
					],
					"name": "isExpired",
					"outputs": [
						{
							"internalType": "uint256",
							"name": "",
							"type": "uint256"
						},
						{
							"internalType": "bool",
							"name": "",
							"type": "bool"
						}
					],
					"stateMutability": "view",
					"type": "function"
				},
				{
					"inputs": [
						{
							"internalType": "uint256",
							"name": "listingIndex",
							"type": "uint256"
						}
					],
					"name": "lendApproval",
					"outputs": [],
					"stateMutability": "nonpayable",
					"type": "function"
				},
				{
					"inputs": [
						{
							"internalType": "uint256",
							"name": "",
							"type": "uint256"
						}
					],
					"name": "listNum",
					"outputs": [
						{
							"internalType": "address payable",
							"name": "poster",
							"type": "address"
						},
						{
							"internalType": "address",
							"name": "collectionAddr",
							"type": "address"
						},
						{
							"internalType": "uint256",
							"name": "tokenId",
							"type": "uint256"
						},
						{
							"internalType": "uint256",
							"name": "amount",
							"type": "uint256"
						},
						{
							"internalType": "uint256",
							"name": "duration",
							"type": "uint256"
						},
						{
							"internalType": "uint256",
							"name": "APR",
							"type": "uint256"
						},
						{
							"internalType": "bytes32",
							"name": "status",
							"type": "bytes32"
						}
					],
					"stateMutability": "view",
					"type": "function"
				},
				{
					"inputs": [
						{
							"internalType": "address",
							"name": "collectionAddr",
							"type": "address"
						},
						{
							"internalType": "uint256",
							"name": "tokenId",
							"type": "uint256"
						},
						{
							"internalType": "uint256",
							"name": "amount",
							"type": "uint256"
						},
						{
							"internalType": "uint256",
							"name": "duration",
							"type": "uint256"
						},
						{
							"internalType": "uint256",
							"name": "APR",
							"type": "uint256"
						}
					],
					"name": "openListing",
					"outputs": [],
					"stateMutability": "nonpayable",
					"type": "function"
				},
				{
					"inputs": [
						{
							"internalType": "address",
							"name": "collectionAddr",
							"type": "address"
						},
						{
							"internalType": "uint256",
							"name": "tokenId",
							"type": "uint256"
						}
					],
					"name": "ownerOf",
					"outputs": [
						{
							"internalType": "address",
							"name": "",
							"type": "address"
						}
					],
					"stateMutability": "view",
					"type": "function"
				},
				{
					"inputs": [
						{
							"internalType": "uint256",
							"name": "listingIndex",
							"type": "uint256"
						}
					],
					"name": "updateTime",
					"outputs": [],
					"stateMutability": "nonpayable",
					"type": "function"
				}
			],
			"devdoc": {
				"kind": "dev",
				"methods": {},
				"version": 1
			},
			"evm": {
				"assembly": "    /* \"platform.sol\":118:3615  contract Platform {... */\n  mstore(0x40, 0x80)\n    /* \"platform.sol\":761:768  2592000 */\n  0x278d00\n    /* \"platform.sol\":740:768  uint256 monthToSec = 2592000 */\n  0x04\n  sstore\n    /* \"platform.sol\":793:795  60 */\n  0x3c\n    /* \"platform.sol\":774:795  uint256 minTosec = 60 */\n  0x05\n  sstore\n    /* \"platform.sol\":118:3615  contract Platform {... */\n  callvalue\n  dup1\n  iszero\n  tag_1\n  jumpi\n  0x00\n  dup1\n  revert\ntag_1:\n  pop\n  dataSize(sub_0)\n  dup1\n  dataOffset(sub_0)\n  0x00\n  codecopy\n  0x00\n  return\nstop\n\nsub_0: assembly {\n        /* \"platform.sol\":118:3615  contract Platform {... */\n      mstore(0x40, 0x80)\n      callvalue\n      dup1\n      iszero\n      tag_1\n      jumpi\n      0x00\n      dup1\n      revert\n    tag_1:\n      pop\n      jumpi(tag_2, lt(calldatasize, 0x04))\n      shr(0xe0, calldataload(0x00))\n      dup1\n      0x880fe941\n      gt\n      tag_14\n      jumpi\n      dup1\n      0x880fe941\n      eq\n      tag_8\n      jumpi\n      dup1\n      0x8ada066e\n      eq\n      tag_9\n      jumpi\n      dup1\n      0xb9314135\n      eq\n      tag_10\n      jumpi\n      dup1\n      0xd9548e53\n      eq\n      tag_11\n      jumpi\n      dup1\n      0xe5a255cb\n      eq\n      tag_12\n      jumpi\n      dup1\n      0xeeabfc4a\n      eq\n      tag_13\n      jumpi\n      jump(tag_2)\n    tag_14:\n      dup1\n      0x084af0b2\n      eq\n      tag_3\n      jumpi\n      dup1\n      0x172656d1\n      eq\n      tag_4\n      jumpi\n      dup1\n      0x1f29d2dc\n      eq\n      tag_5\n      jumpi\n      dup1\n      0x4f694690\n      eq\n      tag_6\n      jumpi\n      dup1\n      0x6c59bd0c\n      eq\n      tag_7\n      jumpi\n    tag_2:\n      0x00\n      dup1\n      revert\n        /* \"platform.sol\":806:917  function getListing(address addr) public view returns (uint256[] memory) {... */\n    tag_3:\n      tag_15\n      0x04\n      dup1\n      calldatasize\n      sub\n      dup2\n      add\n      swap1\n      tag_16\n      swap2\n      swap1\n      tag_17\n      jump\t// in\n    tag_16:\n      tag_18\n      jump\t// in\n    tag_15:\n      mload(0x40)\n      tag_19\n      swap2\n      swap1\n      tag_20\n      jump\t// in\n    tag_19:\n      mload(0x40)\n      dup1\n      swap2\n      sub\n      swap1\n      return\n        /* \"platform.sol\":3176:3609  function lendApproval(uint256 listingIndex) public {... */\n    tag_4:\n      tag_21\n      0x04\n      dup1\n      calldatasize\n      sub\n      dup2\n      add\n      swap1\n      tag_22\n      swap2\n      swap1\n      tag_23\n      jump\t// in\n    tag_22:\n      tag_24\n      jump\t// in\n    tag_21:\n      stop\n        /* \"platform.sol\":1132:1284  function ownerOf(address collectionAddr, uint256 tokenId) public view returns (address) {... */\n    tag_5:\n      tag_25\n      0x04\n      dup1\n      calldatasize\n      sub\n      dup2\n      add\n      swap1\n      tag_26\n      swap2\n      swap1\n      tag_27\n      jump\t// in\n    tag_26:\n      tag_28\n      jump\t// in\n    tag_25:\n      mload(0x40)\n      tag_29\n      swap2\n      swap1\n      tag_30\n      jump\t// in\n    tag_29:\n      mload(0x40)\n      dup1\n      swap2\n      sub\n      swap1\n      return\n        /* \"platform.sol\":1290:1451  function isApprove(address collectionAddr) public view returns (bool) {... */\n    tag_6:\n      tag_31\n      0x04\n      dup1\n      calldatasize\n      sub\n      dup2\n      add\n      swap1\n      tag_32\n      swap2\n      swap1\n      tag_17\n      jump\t// in\n    tag_32:\n      tag_33\n      jump\t// in\n    tag_31:\n      mload(0x40)\n      tag_34\n      swap2\n      swap1\n      tag_35\n      jump\t// in\n    tag_34:\n      mload(0x40)\n      dup1\n      swap2\n      sub\n      swap1\n      return\n        /* \"platform.sol\":2488:2597  function updateTime(uint256 listingIndex) public {... */\n    tag_7:\n      tag_36\n      0x04\n      dup1\n      calldatasize\n      sub\n      dup2\n      add\n      swap1\n      tag_37\n      swap2\n      swap1\n      tag_23\n      jump\t// in\n    tag_37:\n      tag_38\n      jump\t// in\n    tag_36:\n      stop\n        /* \"platform.sol\":1458:2202  function openListing(... */\n    tag_8:\n      tag_39\n      0x04\n      dup1\n      calldatasize\n      sub\n      dup2\n      add\n      swap1\n      tag_40\n      swap2\n      swap1\n      tag_41\n      jump\t// in\n    tag_40:\n      tag_42\n      jump\t// in\n    tag_39:\n      stop\n        /* \"platform.sol\":1043:1126  function getCounter() public view returns (uint256) {... */\n    tag_9:\n      tag_43\n      tag_44\n      jump\t// in\n    tag_43:\n      mload(0x40)\n      tag_45\n      swap2\n      swap1\n      tag_46\n      jump\t// in\n    tag_45:\n      mload(0x40)\n      dup1\n      swap2\n      sub\n      swap1\n      return\n        /* \"platform.sol\":923:1037  function getListingInfo(uint256 num) public view returns (ListingInfo memory) {... */\n    tag_10:\n      tag_47\n      0x04\n      dup1\n      calldatasize\n      sub\n      dup2\n      add\n      swap1\n      tag_48\n      swap2\n      swap1\n      tag_23\n      jump\t// in\n    tag_48:\n      tag_49\n      jump\t// in\n    tag_47:\n      mload(0x40)\n      tag_50\n      swap2\n      swap1\n      tag_51\n      jump\t// in\n    tag_50:\n      mload(0x40)\n      dup1\n      swap2\n      sub\n      swap1\n      return\n        /* \"platform.sol\":2603:3170  function isExpired(uint256 listingIndex) public view returns (uint256, bool) {... */\n    tag_11:\n      tag_52\n      0x04\n      dup1\n      calldatasize\n      sub\n      dup2\n      add\n      swap1\n      tag_53\n      swap2\n      swap1\n      tag_23\n      jump\t// in\n    tag_53:\n      tag_54\n      jump\t// in\n    tag_52:\n      mload(0x40)\n      tag_55\n      swap3\n      swap2\n      swap1\n      tag_56\n      jump\t// in\n    tag_55:\n      mload(0x40)\n      dup1\n      swap2\n      sub\n      swap1\n      return\n        /* \"platform.sol\":2212:2482  function closeListing(uint256 listingIndex) public {... */\n    tag_12:\n      tag_57\n      0x04\n      dup1\n      calldatasize\n      sub\n      dup2\n      add\n      swap1\n      tag_58\n      swap2\n      swap1\n      tag_23\n      jump\t// in\n    tag_58:\n      tag_59\n      jump\t// in\n    tag_57:\n      stop\n        /* \"platform.sol\":577:623  mapping(uint256 => ListingInfo) public listNum */\n    tag_13:\n      tag_60\n      0x04\n      dup1\n      calldatasize\n      sub\n      dup2\n      add\n      swap1\n      tag_61\n      swap2\n      swap1\n      tag_23\n      jump\t// in\n    tag_61:\n      tag_62\n      jump\t// in\n    tag_60:\n      mload(0x40)\n      tag_63\n      swap8\n      swap7\n      swap6\n      swap5\n      swap4\n      swap3\n      swap2\n      swap1\n      tag_64\n      jump\t// in\n    tag_63:\n      mload(0x40)\n      dup1\n      swap2\n      sub\n      swap1\n      return\n        /* \"platform.sol\":806:917  function getListing(address addr) public view returns (uint256[] memory) {... */\n    tag_18:\n        /* \"platform.sol\":861:877  uint256[] memory */\n      0x60\n        /* \"platform.sol\":896:904  addrList */\n      0x01\n        /* \"platform.sol\":896:910  addrList[addr] */\n      0x00\n        /* \"platform.sol\":905:909  addr */\n      dup4\n        /* \"platform.sol\":896:910  addrList[addr] */\n      0xffffffffffffffffffffffffffffffffffffffff\n      and\n      0xffffffffffffffffffffffffffffffffffffffff\n      and\n      dup2\n      mstore\n      0x20\n      add\n      swap1\n      dup2\n      mstore\n      0x20\n      add\n      0x00\n      keccak256\n        /* \"platform.sol\":889:910  return addrList[addr] */\n      dup1\n      sload\n      dup1\n      0x20\n      mul\n      0x20\n      add\n      mload(0x40)\n      swap1\n      dup2\n      add\n      0x40\n      mstore\n      dup1\n      swap3\n      swap2\n      swap1\n      dup2\n      dup2\n      mstore\n      0x20\n      add\n      dup3\n      dup1\n      sload\n      dup1\n      iszero\n      tag_66\n      jumpi\n      0x20\n      mul\n      dup3\n      add\n      swap2\n      swap1\n      0x00\n      mstore\n      keccak256(0x00, 0x20)\n      swap1\n    tag_67:\n      dup2\n      sload\n      dup2\n      mstore\n      0x20\n      add\n      swap1\n      0x01\n      add\n      swap1\n      dup1\n      dup4\n      gt\n      tag_67\n      jumpi\n    tag_66:\n      pop\n      pop\n      pop\n      pop\n      pop\n      swap1\n      pop\n        /* \"platform.sol\":806:917  function getListing(address addr) public view returns (uint256[] memory) {... */\n      swap2\n      swap1\n      pop\n      jump\t// out\n        /* \"platform.sol\":3176:3609  function lendApproval(uint256 listingIndex) public {... */\n    tag_24:\n        /* \"platform.sol\":3237:3260  ListingInfo memory info */\n      0x00\n        /* \"platform.sol\":3263:3291  getListingInfo(listingIndex) */\n      tag_69\n        /* \"platform.sol\":3278:3290  listingIndex */\n      dup3\n        /* \"platform.sol\":3263:3277  getListingInfo */\n      tag_49\n        /* \"platform.sol\":3263:3291  getListingInfo(listingIndex) */\n      jump\t// in\n    tag_69:\n        /* \"platform.sol\":3237:3291  ListingInfo memory info = getListingInfo(listingIndex) */\n      swap1\n      pop\n        /* \"platform.sol\":3330:3334  info */\n      dup1\n        /* \"platform.sol\":3330:3341  info.amount */\n      0x60\n      add\n      mload\n        /* \"platform.sol\":3309:3319  msg.sender */\n      caller\n        /* \"platform.sol\":3309:3327  msg.sender.balance */\n      0xffffffffffffffffffffffffffffffffffffffff\n      and\n      balance\n        /* \"platform.sol\":3309:3341  msg.sender.balance > info.amount */\n      gt\n        /* \"platform.sol\":3301:3384  require(msg.sender.balance > info.amount, \"You haven't enough balance for lending\") */\n      tag_70\n      jumpi\n      mload(0x40)\n      0x08c379a000000000000000000000000000000000000000000000000000000000\n      dup2\n      mstore\n      0x04\n      add\n      tag_71\n      swap1\n      tag_72\n      jump\t// in\n    tag_71:\n      mload(0x40)\n      dup1\n      swap2\n      sub\n      swap1\n      revert\n    tag_70:\n        /* \"platform.sol\":3435:3439  info */\n      dup1\n        /* \"platform.sol\":3435:3446  info.poster */\n      0x00\n      add\n      mload\n        /* \"platform.sol\":3434:3456  (info.poster).transfer */\n      0xffffffffffffffffffffffffffffffffffffffff\n      and\n        /* \"platform.sol\":3434:3469  (info.poster).transfer(info.amount) */\n      0x08fc\n        /* \"platform.sol\":3457:3461  info */\n      dup3\n        /* \"platform.sol\":3457:3468  info.amount */\n      0x60\n      add\n      mload\n        /* \"platform.sol\":3434:3469  (info.poster).transfer(info.amount) */\n      swap1\n      dup2\n      iszero\n      mul\n      swap1\n      mload(0x40)\n      0x00\n      mload(0x40)\n      dup1\n      dup4\n      sub\n      dup2\n      dup6\n      dup9\n      dup9\n      call\n      swap4\n      pop\n      pop\n      pop\n      pop\n      iszero\n      dup1\n      iszero\n      tag_74\n      jumpi\n      returndatasize\n      0x00\n      dup1\n      returndatacopy\n      revert(0x00, returndatasize)\n    tag_74:\n      pop\n        /* \"platform.sol\":3479:3520  listNum[listingIndex].status = \"excuting\" */\n      0x6578637574696e67000000000000000000000000000000000000000000000000\n        /* \"platform.sol\":3479:3486  listNum */\n      0x00\n        /* \"platform.sol\":3479:3500  listNum[listingIndex] */\n      dup1\n        /* \"platform.sol\":3487:3499  listingIndex */\n      dup5\n        /* \"platform.sol\":3479:3500  listNum[listingIndex] */\n      dup2\n      mstore\n      0x20\n      add\n      swap1\n      dup2\n      mstore\n      0x20\n      add\n      0x00\n      keccak256\n        /* \"platform.sol\":3479:3507  listNum[listingIndex].status */\n      0x06\n      add\n        /* \"platform.sol\":3479:3520  listNum[listingIndex].status = \"excuting\" */\n      dup2\n      swap1\n      sstore\n      pop\n        /* \"platform.sol\":3530:3554  updateTime(listingIndex) */\n      tag_75\n        /* \"platform.sol\":3541:3553  listingIndex */\n      dup3\n        /* \"platform.sol\":3530:3540  updateTime */\n      tag_38\n        /* \"platform.sol\":3530:3554  updateTime(listingIndex) */\n      jump\t// in\n    tag_75:\n        /* \"platform.sol\":3569:3602  ApprovalListing(msg.sender, info) */\n      0xcbe547358b7d8ceb07ae8baae08d35680e6c6c69046525b09dc9bb8f53f708fd\n        /* \"platform.sol\":3585:3595  msg.sender */\n      caller\n        /* \"platform.sol\":3597:3601  info */\n      dup3\n        /* \"platform.sol\":3569:3602  ApprovalListing(msg.sender, info) */\n      mload(0x40)\n      tag_76\n      swap3\n      swap2\n      swap1\n      tag_77\n      jump\t// in\n    tag_76:\n      mload(0x40)\n      dup1\n      swap2\n      sub\n      swap1\n      log1\n        /* \"platform.sol\":3227:3609  {... */\n      pop\n        /* \"platform.sol\":3176:3609  function lendApproval(uint256 listingIndex) public {... */\n      pop\n      jump\t// out\n        /* \"platform.sol\":1132:1284  function ownerOf(address collectionAddr, uint256 tokenId) public view returns (address) {... */\n    tag_28:\n        /* \"platform.sol\":1211:1218  address */\n      0x00\n        /* \"platform.sol\":1245:1259  collectionAddr */\n      dup3\n        /* \"platform.sol\":1237:1268  IERC721(collectionAddr).ownerOf */\n      0xffffffffffffffffffffffffffffffffffffffff\n      and\n      0x6352211e\n        /* \"platform.sol\":1269:1276  tokenId */\n      dup4\n        /* \"platform.sol\":1237:1277  IERC721(collectionAddr).ownerOf(tokenId) */\n      mload(0x40)\n      dup3\n      0xffffffff\n      and\n      0xe0\n      shl\n      dup2\n      mstore\n      0x04\n      add\n      tag_79\n      swap2\n      swap1\n      tag_46\n      jump\t// in\n    tag_79:\n      0x20\n      mload(0x40)\n      dup1\n      dup4\n      sub\n      dup2\n      dup7\n      gas\n      staticcall\n      iszero\n      dup1\n      iszero\n      tag_81\n      jumpi\n      returndatasize\n      0x00\n      dup1\n      returndatacopy\n      revert(0x00, returndatasize)\n    tag_81:\n      pop\n      pop\n      pop\n      pop\n      mload(0x40)\n      returndatasize\n      not(0x1f)\n      0x1f\n      dup3\n      add\n      and\n      dup3\n      add\n      dup1\n      0x40\n      mstore\n      pop\n      dup2\n      add\n      swap1\n      tag_82\n      swap2\n      swap1\n      tag_83\n      jump\t// in\n    tag_82:\n        /* \"platform.sol\":1230:1277  return IERC721(collectionAddr).ownerOf(tokenId) */\n      swap1\n      pop\n        /* \"platform.sol\":1132:1284  function ownerOf(address collectionAddr, uint256 tokenId) public view returns (address) {... */\n      swap3\n      swap2\n      pop\n      pop\n      jump\t// out\n        /* \"platform.sol\":1290:1451  function isApprove(address collectionAddr) public view returns (bool) {... */\n    tag_33:\n        /* \"platform.sol\":1354:1358  bool */\n      0x00\n        /* \"platform.sol\":1385:1399  collectionAddr */\n      dup2\n        /* \"platform.sol\":1377:1417  IERC721(collectionAddr).isApprovedForAll */\n      0xffffffffffffffffffffffffffffffffffffffff\n      and\n      0xe985e9c5\n        /* \"platform.sol\":1418:1428  msg.sender */\n      caller\n        /* \"platform.sol\":1438:1442  this */\n      address\n        /* \"platform.sol\":1377:1444  IERC721(collectionAddr).isApprovedForAll(msg.sender, address(this)) */\n      mload(0x40)\n      dup4\n      0xffffffff\n      and\n      0xe0\n      shl\n      dup2\n      mstore\n      0x04\n      add\n      tag_85\n      swap3\n      swap2\n      swap1\n      tag_86\n      jump\t// in\n    tag_85:\n      0x20\n      mload(0x40)\n      dup1\n      dup4\n      sub\n      dup2\n      dup7\n      gas\n      staticcall\n      iszero\n      dup1\n      iszero\n      tag_88\n      jumpi\n      returndatasize\n      0x00\n      dup1\n      returndatacopy\n      revert(0x00, returndatasize)\n    tag_88:\n      pop\n      pop\n      pop\n      pop\n      mload(0x40)\n      returndatasize\n      not(0x1f)\n      0x1f\n      dup3\n      add\n      and\n      dup3\n      add\n      dup1\n      0x40\n      mstore\n      pop\n      dup2\n      add\n      swap1\n      tag_89\n      swap2\n      swap1\n      tag_90\n      jump\t// in\n    tag_89:\n        /* \"platform.sol\":1370:1444  return IERC721(collectionAddr).isApprovedForAll(msg.sender, address(this)) */\n      swap1\n      pop\n        /* \"platform.sol\":1290:1451  function isApprove(address collectionAddr) public view returns (bool) {... */\n      swap2\n      swap1\n      pop\n      jump\t// out\n        /* \"platform.sol\":2488:2597  function updateTime(uint256 listingIndex) public {... */\n    tag_38:\n        /* \"platform.sol\":2575:2590  block.timestamp */\n      timestamp\n        /* \"platform.sol\":2547:2558  updatedTime */\n      0x02\n        /* \"platform.sol\":2547:2572  updatedTime[listingIndex] */\n      0x00\n        /* \"platform.sol\":2559:2571  listingIndex */\n      dup4\n        /* \"platform.sol\":2547:2572  updatedTime[listingIndex] */\n      dup2\n      mstore\n      0x20\n      add\n      swap1\n      dup2\n      mstore\n      0x20\n      add\n      0x00\n      keccak256\n        /* \"platform.sol\":2547:2590  updatedTime[listingIndex] = block.timestamp */\n      dup2\n      swap1\n      sstore\n      pop\n        /* \"platform.sol\":2488:2597  function updateTime(uint256 listingIndex) public {... */\n      pop\n      jump\t// out\n        /* \"platform.sol\":1458:2202  function openListing(... */\n    tag_42:\n        /* \"platform.sol\":1647:1648  0 */\n      0x00\n        /* \"platform.sol\":1638:1644  amount */\n      dup4\n        /* \"platform.sol\":1638:1648  amount > 0 */\n      gt\n        /* \"platform.sol\":1638:1664  amount > 0 && duration > 0 */\n      dup1\n      iszero\n      tag_93\n      jumpi\n      pop\n        /* \"platform.sol\":1663:1664  0 */\n      0x00\n        /* \"platform.sol\":1652:1660  duration */\n      dup3\n        /* \"platform.sol\":1652:1664  duration > 0 */\n      gt\n        /* \"platform.sol\":1638:1664  amount > 0 && duration > 0 */\n    tag_93:\n        /* \"platform.sol\":1638:1675  amount > 0 && duration > 0 && APR > 0 */\n      dup1\n      iszero\n      tag_94\n      jumpi\n      pop\n        /* \"platform.sol\":1674:1675  0 */\n      0x00\n        /* \"platform.sol\":1668:1671  APR */\n      dup2\n        /* \"platform.sol\":1668:1675  APR > 0 */\n      gt\n        /* \"platform.sol\":1638:1675  amount > 0 && duration > 0 && APR > 0 */\n    tag_94:\n        /* \"platform.sol\":1630:1712  require(amount > 0 && duration > 0 && APR > 0, \"Values must be greater than zero\") */\n      tag_95\n      jumpi\n      mload(0x40)\n      0x08c379a000000000000000000000000000000000000000000000000000000000\n      dup2\n      mstore\n      0x04\n      add\n      tag_96\n      swap1\n      tag_97\n      jump\t// in\n    tag_96:\n      mload(0x40)\n      dup1\n      swap2\n      sub\n      swap1\n      revert\n    tag_95:\n        /* \"platform.sol\":1774:1784  msg.sender */\n      caller\n        /* \"platform.sol\":1730:1784  IERC721(collectionAddr).ownerOf(tokenId) == msg.sender */\n      0xffffffffffffffffffffffffffffffffffffffff\n      and\n        /* \"platform.sol\":1738:1752  collectionAddr */\n      dup6\n        /* \"platform.sol\":1730:1761  IERC721(collectionAddr).ownerOf */\n      0xffffffffffffffffffffffffffffffffffffffff\n      and\n      0x6352211e\n        /* \"platform.sol\":1762:1769  tokenId */\n      dup7\n        /* \"platform.sol\":1730:1770  IERC721(collectionAddr).ownerOf(tokenId) */\n      mload(0x40)\n      dup3\n      0xffffffff\n      and\n      0xe0\n      shl\n      dup2\n      mstore\n      0x04\n      add\n      tag_98\n      swap2\n      swap1\n      tag_46\n      jump\t// in\n    tag_98:\n      0x20\n      mload(0x40)\n      dup1\n      dup4\n      sub\n      dup2\n      dup7\n      gas\n      staticcall\n      iszero\n      dup1\n      iszero\n      tag_100\n      jumpi\n      returndatasize\n      0x00\n      dup1\n      returndatacopy\n      revert(0x00, returndatasize)\n    tag_100:\n      pop\n      pop\n      pop\n      pop\n      mload(0x40)\n      returndatasize\n      not(0x1f)\n      0x1f\n      dup3\n      add\n      and\n      dup3\n      add\n      dup1\n      0x40\n      mstore\n      pop\n      dup2\n      add\n      swap1\n      tag_101\n      swap2\n      swap1\n      tag_83\n      jump\t// in\n    tag_101:\n        /* \"platform.sol\":1730:1784  IERC721(collectionAddr).ownerOf(tokenId) == msg.sender */\n      0xffffffffffffffffffffffffffffffffffffffff\n      and\n      eq\n        /* \"platform.sol\":1722:1821  require(IERC721(collectionAddr).ownerOf(tokenId) == msg.sender, \"You are not holder of this token\") */\n      tag_102\n      jumpi\n      mload(0x40)\n      0x08c379a000000000000000000000000000000000000000000000000000000000\n      dup2\n      mstore\n      0x04\n      add\n      tag_103\n      swap1\n      tag_104\n      jump\t// in\n    tag_103:\n      mload(0x40)\n      dup1\n      swap2\n      sub\n      swap1\n      revert\n    tag_102:\n        /* \"platform.sol\":1831:1854  ListingInfo memory info */\n      0x00\n        /* \"platform.sol\":1857:1945  ListingInfo(payable(msg.sender), collectionAddr, tokenId, amount, duration, APR, \"open\") */\n      mload(0x40)\n      dup1\n      0xe0\n      add\n      0x40\n      mstore\n      dup1\n        /* \"platform.sol\":1877:1887  msg.sender */\n      caller\n        /* \"platform.sol\":1857:1945  ListingInfo(payable(msg.sender), collectionAddr, tokenId, amount, duration, APR, \"open\") */\n      0xffffffffffffffffffffffffffffffffffffffff\n      and\n      dup2\n      mstore\n      0x20\n      add\n        /* \"platform.sol\":1890:1904  collectionAddr */\n      dup8\n        /* \"platform.sol\":1857:1945  ListingInfo(payable(msg.sender), collectionAddr, tokenId, amount, duration, APR, \"open\") */\n      0xffffffffffffffffffffffffffffffffffffffff\n      and\n      dup2\n      mstore\n      0x20\n      add\n        /* \"platform.sol\":1906:1913  tokenId */\n      dup7\n        /* \"platform.sol\":1857:1945  ListingInfo(payable(msg.sender), collectionAddr, tokenId, amount, duration, APR, \"open\") */\n      dup2\n      mstore\n      0x20\n      add\n        /* \"platform.sol\":1915:1921  amount */\n      dup6\n        /* \"platform.sol\":1857:1945  ListingInfo(payable(msg.sender), collectionAddr, tokenId, amount, duration, APR, \"open\") */\n      dup2\n      mstore\n      0x20\n      add\n        /* \"platform.sol\":1923:1931  duration */\n      dup5\n        /* \"platform.sol\":1857:1945  ListingInfo(payable(msg.sender), collectionAddr, tokenId, amount, duration, APR, \"open\") */\n      dup2\n      mstore\n      0x20\n      add\n        /* \"platform.sol\":1933:1936  APR */\n      dup4\n        /* \"platform.sol\":1857:1945  ListingInfo(payable(msg.sender), collectionAddr, tokenId, amount, duration, APR, \"open\") */\n      dup2\n      mstore\n      0x20\n      add\n      0x6f70656e00000000000000000000000000000000000000000000000000000000\n      dup2\n      mstore\n      pop\n        /* \"platform.sol\":1831:1945  ListingInfo memory info = ListingInfo(payable(msg.sender), collectionAddr, tokenId, amount, duration, APR, \"open\") */\n      swap1\n      pop\n        /* \"platform.sol\":1974:1978  info */\n      dup1\n        /* \"platform.sol\":1955:1962  listNum */\n      0x00\n        /* \"platform.sol\":1955:1971  listNum[counter] */\n      dup1\n        /* \"platform.sol\":1963:1970  counter */\n      sload(0x03)\n        /* \"platform.sol\":1955:1971  listNum[counter] */\n      dup2\n      mstore\n      0x20\n      add\n      swap1\n      dup2\n      mstore\n      0x20\n      add\n      0x00\n      keccak256\n        /* \"platform.sol\":1955:1978  listNum[counter] = info */\n      0x00\n      dup3\n      add\n      mload\n      dup2\n      0x00\n      add\n      exp(0x0100, 0x00)\n      dup2\n      sload\n      dup2\n      0xffffffffffffffffffffffffffffffffffffffff\n      mul\n      not\n      and\n      swap1\n      dup4\n      0xffffffffffffffffffffffffffffffffffffffff\n      and\n      mul\n      or\n      swap1\n      sstore\n      pop\n      0x20\n      dup3\n      add\n      mload\n      dup2\n      0x01\n      add\n      exp(0x0100, 0x00)\n      dup2\n      sload\n      dup2\n      0xffffffffffffffffffffffffffffffffffffffff\n      mul\n      not\n      and\n      swap1\n      dup4\n      0xffffffffffffffffffffffffffffffffffffffff\n      and\n      mul\n      or\n      swap1\n      sstore\n      pop\n      0x40\n      dup3\n      add\n      mload\n      dup2\n      0x02\n      add\n      sstore\n      0x60\n      dup3\n      add\n      mload\n      dup2\n      0x03\n      add\n      sstore\n      0x80\n      dup3\n      add\n      mload\n      dup2\n      0x04\n      add\n      sstore\n      0xa0\n      dup3\n      add\n      mload\n      dup2\n      0x05\n      add\n      sstore\n      0xc0\n      dup3\n      add\n      mload\n      dup2\n      0x06\n      add\n      sstore\n      swap1\n      pop\n      pop\n        /* \"platform.sol\":1988:1996  addrList */\n      0x01\n        /* \"platform.sol\":1988:2008  addrList[msg.sender] */\n      0x00\n        /* \"platform.sol\":1997:2007  msg.sender */\n      caller\n        /* \"platform.sol\":1988:2008  addrList[msg.sender] */\n      0xffffffffffffffffffffffffffffffffffffffff\n      and\n      0xffffffffffffffffffffffffffffffffffffffff\n      and\n      dup2\n      mstore\n      0x20\n      add\n      swap1\n      dup2\n      mstore\n      0x20\n      add\n      0x00\n      keccak256\n        /* \"platform.sol\":2014:2021  counter */\n      sload(0x03)\n        /* \"platform.sol\":1988:2022  addrList[msg.sender].push(counter) */\n      swap1\n      dup1\n      0x01\n      dup2\n      sload\n      add\n      dup1\n      dup3\n      sstore\n      dup1\n      swap2\n      pop\n      pop\n      0x01\n      swap1\n      sub\n      swap1\n      0x00\n      mstore\n      keccak256(0x00, 0x20)\n      add\n      0x00\n      swap1\n      swap2\n      swap1\n      swap2\n      swap1\n      swap2\n      pop\n      sstore\n        /* \"platform.sol\":2040:2054  collectionAddr */\n      dup6\n        /* \"platform.sol\":2032:2068  IERC721(collectionAddr).transferFrom */\n      0xffffffffffffffffffffffffffffffffffffffff\n      and\n      0x23b872dd\n        /* \"platform.sol\":2069:2079  msg.sender */\n      caller\n        /* \"platform.sol\":2089:2093  this */\n      address\n        /* \"platform.sol\":2096:2103  tokenId */\n      dup9\n        /* \"platform.sol\":2032:2104  IERC721(collectionAddr).transferFrom(msg.sender, address(this), tokenId) */\n      mload(0x40)\n      dup5\n      0xffffffff\n      and\n      0xe0\n      shl\n      dup2\n      mstore\n      0x04\n      add\n      tag_106\n      swap4\n      swap3\n      swap2\n      swap1\n      tag_107\n      jump\t// in\n    tag_106:\n      0x00\n      mload(0x40)\n      dup1\n      dup4\n      sub\n      dup2\n      0x00\n      dup8\n      dup1\n      extcodesize\n      iszero\n      dup1\n      iszero\n      tag_108\n      jumpi\n      0x00\n      dup1\n      revert\n    tag_108:\n      pop\n      gas\n      call\n      iszero\n      dup1\n      iszero\n      tag_110\n      jumpi\n      returndatasize\n      0x00\n      dup1\n      returndatacopy\n      revert(0x00, returndatasize)\n    tag_110:\n      pop\n      pop\n      pop\n      pop\n        /* \"platform.sol\":2114:2133  updateTime(counter) */\n      tag_111\n        /* \"platform.sol\":2125:2132  counter */\n      sload(0x03)\n        /* \"platform.sol\":2114:2124  updateTime */\n      tag_38\n        /* \"platform.sol\":2114:2133  updateTime(counter) */\n      jump\t// in\n    tag_111:\n        /* \"platform.sol\":2143:2150  counter */\n      0x03\n      0x00\n        /* \"platform.sol\":2143:2152  counter++ */\n      dup2\n      sload\n      dup1\n      swap3\n      swap2\n      swap1\n      tag_112\n      swap1\n      tag_113\n      jump\t// in\n    tag_112:\n      swap2\n      swap1\n      pop\n      sstore\n      pop\n        /* \"platform.sol\":2167:2195  NewListing(msg.sender, info) */\n      0xf767ad1ae2d5476327f80bef89fbc70354c993e3059ed3d504d127921f60c40b\n        /* \"platform.sol\":2178:2188  msg.sender */\n      caller\n        /* \"platform.sol\":2190:2194  info */\n      dup3\n        /* \"platform.sol\":2167:2195  NewListing(msg.sender, info) */\n      mload(0x40)\n      tag_114\n      swap3\n      swap2\n      swap1\n      tag_77\n      jump\t// in\n    tag_114:\n      mload(0x40)\n      dup1\n      swap2\n      sub\n      swap1\n      log1\n        /* \"platform.sol\":1620:2202  {... */\n      pop\n        /* \"platform.sol\":1458:2202  function openListing(... */\n      pop\n      pop\n      pop\n      pop\n      pop\n      jump\t// out\n        /* \"platform.sol\":1043:1126  function getCounter() public view returns (uint256) {... */\n    tag_44:\n        /* \"platform.sol\":1086:1093  uint256 */\n      0x00\n        /* \"platform.sol\":1112:1119  counter */\n      sload(0x03)\n        /* \"platform.sol\":1105:1119  return counter */\n      swap1\n      pop\n        /* \"platform.sol\":1043:1126  function getCounter() public view returns (uint256) {... */\n      swap1\n      jump\t// out\n        /* \"platform.sol\":923:1037  function getListingInfo(uint256 num) public view returns (ListingInfo memory) {... */\n    tag_49:\n        /* \"platform.sol\":981:999  ListingInfo memory */\n      tag_116\n      tag_117\n      jump\t// in\n    tag_116:\n        /* \"platform.sol\":1018:1025  listNum */\n      0x00\n        /* \"platform.sol\":1018:1030  listNum[num] */\n      dup1\n        /* \"platform.sol\":1026:1029  num */\n      dup4\n        /* \"platform.sol\":1018:1030  listNum[num] */\n      dup2\n      mstore\n      0x20\n      add\n      swap1\n      dup2\n      mstore\n      0x20\n      add\n      0x00\n      keccak256\n        /* \"platform.sol\":1011:1030  return listNum[num] */\n      mload(0x40)\n      dup1\n      0xe0\n      add\n      0x40\n      mstore\n      swap1\n      dup2\n      0x00\n      dup3\n      add\n      0x00\n      swap1\n      sload\n      swap1\n      0x0100\n      exp\n      swap1\n      div\n      0xffffffffffffffffffffffffffffffffffffffff\n      and\n      0xffffffffffffffffffffffffffffffffffffffff\n      and\n      0xffffffffffffffffffffffffffffffffffffffff\n      and\n      dup2\n      mstore\n      0x20\n      add\n      0x01\n      dup3\n      add\n      0x00\n      swap1\n      sload\n      swap1\n      0x0100\n      exp\n      swap1\n      div\n      0xffffffffffffffffffffffffffffffffffffffff\n      and\n      0xffffffffffffffffffffffffffffffffffffffff\n      and\n      0xffffffffffffffffffffffffffffffffffffffff\n      and\n      dup2\n      mstore\n      0x20\n      add\n      0x02\n      dup3\n      add\n      sload\n      dup2\n      mstore\n      0x20\n      add\n      0x03\n      dup3\n      add\n      sload\n      dup2\n      mstore\n      0x20\n      add\n      0x04\n      dup3\n      add\n      sload\n      dup2\n      mstore\n      0x20\n      add\n      0x05\n      dup3\n      add\n      sload\n      dup2\n      mstore\n      0x20\n      add\n      0x06\n      dup3\n      add\n      sload\n      dup2\n      mstore\n      pop\n      pop\n      swap1\n      pop\n        /* \"platform.sol\":923:1037  function getListingInfo(uint256 num) public view returns (ListingInfo memory) {... */\n      swap2\n      swap1\n      pop\n      jump\t// out\n        /* \"platform.sol\":2603:3170  function isExpired(uint256 listingIndex) public view returns (uint256, bool) {... */\n    tag_54:\n        /* \"platform.sol\":2665:2672  uint256 */\n      0x00\n        /* \"platform.sol\":2674:2678  bool */\n      dup1\n        /* \"platform.sol\":2912:2934  uint256 expirationTime */\n      0x00\n        /* \"platform.sol\":3005:3013  minTosec */\n      sload(0x05)\n        /* \"platform.sol\":2965:2993  getListingInfo(listingIndex) */\n      tag_120\n        /* \"platform.sol\":2980:2992  listingIndex */\n      dup6\n        /* \"platform.sol\":2965:2979  getListingInfo */\n      tag_49\n        /* \"platform.sol\":2965:2993  getListingInfo(listingIndex) */\n      jump\t// in\n    tag_120:\n        /* \"platform.sol\":2965:3002  getListingInfo(listingIndex).duration */\n      0x80\n      add\n      mload\n        /* \"platform.sol\":2965:3013  getListingInfo(listingIndex).duration * minTosec */\n      tag_121\n      swap2\n      swap1\n      tag_122\n      jump\t// in\n    tag_121:\n        /* \"platform.sol\":2937:2948  updatedTime */\n      0x02\n        /* \"platform.sol\":2937:2962  updatedTime[listingIndex] */\n      0x00\n        /* \"platform.sol\":2949:2961  listingIndex */\n      dup7\n        /* \"platform.sol\":2937:2962  updatedTime[listingIndex] */\n      dup2\n      mstore\n      0x20\n      add\n      swap1\n      dup2\n      mstore\n      0x20\n      add\n      0x00\n      keccak256\n      sload\n        /* \"platform.sol\":2937:3013  updatedTime[listingIndex] + getListingInfo(listingIndex).duration * minTosec */\n      tag_123\n      swap2\n      swap1\n      tag_124\n      jump\t// in\n    tag_123:\n        /* \"platform.sol\":2912:3013  uint256 expirationTime = updatedTime[listingIndex] + getListingInfo(listingIndex).duration * minTosec */\n      swap1\n      pop\n        /* \"platform.sol\":3056:3077  uint256 remainingTime */\n      0x00\n        /* \"platform.sol\":3097:3112  block.timestamp */\n      timestamp\n        /* \"platform.sol\":3080:3094  expirationTime */\n      dup3\n        /* \"platform.sol\":3080:3112  expirationTime - block.timestamp */\n      tag_125\n      swap2\n      swap1\n      tag_126\n      jump\t// in\n    tag_125:\n        /* \"platform.sol\":3056:3112  uint256 remainingTime = expirationTime - block.timestamp */\n      swap1\n      pop\n        /* \"platform.sol\":3130:3143  remainingTime */\n      dup1\n        /* \"platform.sol\":3161:3162  0 */\n      0x00\n        /* \"platform.sol\":3145:3158  remainingTime */\n      dup3\n        /* \"platform.sol\":3145:3162  remainingTime < 0 */\n      lt\n        /* \"platform.sol\":3122:3163  return (remainingTime, remainingTime < 0) */\n      swap4\n      pop\n      swap4\n      pop\n      pop\n      pop\n        /* \"platform.sol\":2603:3170  function isExpired(uint256 listingIndex) public view returns (uint256, bool) {... */\n      swap2\n      pop\n      swap2\n      jump\t// out\n        /* \"platform.sol\":2212:2482  function closeListing(uint256 listingIndex) public {... */\n    tag_59:\n        /* \"platform.sol\":2313:2323  msg.sender */\n      caller\n        /* \"platform.sol\":2281:2323  listNum[listingIndex].poster == msg.sender */\n      0xffffffffffffffffffffffffffffffffffffffff\n      and\n        /* \"platform.sol\":2281:2288  listNum */\n      0x00\n        /* \"platform.sol\":2281:2302  listNum[listingIndex] */\n      dup1\n        /* \"platform.sol\":2289:2301  listingIndex */\n      dup4\n        /* \"platform.sol\":2281:2302  listNum[listingIndex] */\n      dup2\n      mstore\n      0x20\n      add\n      swap1\n      dup2\n      mstore\n      0x20\n      add\n      0x00\n      keccak256\n        /* \"platform.sol\":2281:2309  listNum[listingIndex].poster */\n      0x00\n      add\n      0x00\n      swap1\n      sload\n      swap1\n      0x0100\n      exp\n      swap1\n      div\n      0xffffffffffffffffffffffffffffffffffffffff\n      and\n        /* \"platform.sol\":2281:2323  listNum[listingIndex].poster == msg.sender */\n      0xffffffffffffffffffffffffffffffffffffffff\n      and\n      eq\n        /* \"platform.sol\":2273:2358  require(listNum[listingIndex].poster == msg.sender, \"You are not poster of the list\") */\n      tag_128\n      jumpi\n      mload(0x40)\n      0x08c379a000000000000000000000000000000000000000000000000000000000\n      dup2\n      mstore\n      0x04\n      add\n      tag_129\n      swap1\n      tag_130\n      jump\t// in\n    tag_129:\n      mload(0x40)\n      dup1\n      swap2\n      sub\n      swap1\n      revert\n    tag_128:\n        /* \"platform.sol\":2368:2407  listNum[listingIndex].status = \"cancel\" */\n      0x63616e63656c0000000000000000000000000000000000000000000000000000\n        /* \"platform.sol\":2368:2375  listNum */\n      0x00\n        /* \"platform.sol\":2368:2389  listNum[listingIndex] */\n      dup1\n        /* \"platform.sol\":2376:2388  listingIndex */\n      dup4\n        /* \"platform.sol\":2368:2389  listNum[listingIndex] */\n      dup2\n      mstore\n      0x20\n      add\n      swap1\n      dup2\n      mstore\n      0x20\n      add\n      0x00\n      keccak256\n        /* \"platform.sol\":2368:2396  listNum[listingIndex].status */\n      0x06\n      add\n        /* \"platform.sol\":2368:2407  listNum[listingIndex].status = \"cancel\" */\n      dup2\n      swap1\n      sstore\n      pop\n        /* \"platform.sol\":2417:2441  updateTime(listingIndex) */\n      tag_131\n        /* \"platform.sol\":2428:2440  listingIndex */\n      dup2\n        /* \"platform.sol\":2417:2427  updateTime */\n      tag_38\n        /* \"platform.sol\":2417:2441  updateTime(listingIndex) */\n      jump\t// in\n    tag_131:\n        /* \"platform.sol\":2212:2482  function closeListing(uint256 listingIndex) public {... */\n      pop\n      jump\t// out\n        /* \"platform.sol\":577:623  mapping(uint256 => ListingInfo) public listNum */\n    tag_62:\n      mstore(0x20, 0x00)\n      dup1\n      0x00\n      mstore\n      keccak256(0x00, 0x40)\n      0x00\n      swap2\n      pop\n      swap1\n      pop\n      dup1\n      0x00\n      add\n      0x00\n      swap1\n      sload\n      swap1\n      0x0100\n      exp\n      swap1\n      div\n      0xffffffffffffffffffffffffffffffffffffffff\n      and\n      swap1\n      dup1\n      0x01\n      add\n      0x00\n      swap1\n      sload\n      swap1\n      0x0100\n      exp\n      swap1\n      div\n      0xffffffffffffffffffffffffffffffffffffffff\n      and\n      swap1\n      dup1\n      0x02\n      add\n      sload\n      swap1\n      dup1\n      0x03\n      add\n      sload\n      swap1\n      dup1\n      0x04\n      add\n      sload\n      swap1\n      dup1\n      0x05\n      add\n      sload\n      swap1\n      dup1\n      0x06\n      add\n      sload\n      swap1\n      pop\n      dup8\n      jump\t// out\n    tag_117:\n      mload(0x40)\n      dup1\n      0xe0\n      add\n      0x40\n      mstore\n      dup1\n      and(0xffffffffffffffffffffffffffffffffffffffff, 0x00)\n      dup2\n      mstore\n      0x20\n      add\n      and(0xffffffffffffffffffffffffffffffffffffffff, 0x00)\n      dup2\n      mstore\n      0x20\n      add\n      0x00\n      dup2\n      mstore\n      0x20\n      add\n      0x00\n      dup2\n      mstore\n      0x20\n      add\n      0x00\n      dup2\n      mstore\n      0x20\n      add\n      0x00\n      dup2\n      mstore\n      0x20\n      add\n      0x00\n      dup1\n      not\n      and\n      dup2\n      mstore\n      pop\n      swap1\n      jump\t// out\n        /* \"#utility.yul\":88:205   */\n    tag_133:\n        /* \"#utility.yul\":197:198   */\n      0x00\n        /* \"#utility.yul\":194:195   */\n      dup1\n        /* \"#utility.yul\":187:199   */\n      revert\n        /* \"#utility.yul\":334:460   */\n    tag_135:\n        /* \"#utility.yul\":371:378   */\n      0x00\n        /* \"#utility.yul\":411:453   */\n      0xffffffffffffffffffffffffffffffffffffffff\n        /* \"#utility.yul\":404:409   */\n      dup3\n        /* \"#utility.yul\":400:454   */\n      and\n        /* \"#utility.yul\":389:454   */\n      swap1\n      pop\n        /* \"#utility.yul\":334:460   */\n      swap2\n      swap1\n      pop\n      jump\t// out\n        /* \"#utility.yul\":466:562   */\n    tag_136:\n        /* \"#utility.yul\":503:510   */\n      0x00\n        /* \"#utility.yul\":532:556   */\n      tag_180\n        /* \"#utility.yul\":550:555   */\n      dup3\n        /* \"#utility.yul\":532:556   */\n      tag_135\n      jump\t// in\n    tag_180:\n        /* \"#utility.yul\":521:556   */\n      swap1\n      pop\n        /* \"#utility.yul\":466:562   */\n      swap2\n      swap1\n      pop\n      jump\t// out\n        /* \"#utility.yul\":568:690   */\n    tag_137:\n        /* \"#utility.yul\":641:665   */\n      tag_182\n        /* \"#utility.yul\":659:664   */\n      dup2\n        /* \"#utility.yul\":641:665   */\n      tag_136\n      jump\t// in\n    tag_182:\n        /* \"#utility.yul\":634:639   */\n      dup2\n        /* \"#utility.yul\":631:666   */\n      eq\n        /* \"#utility.yul\":621:684   */\n      tag_183\n      jumpi\n        /* \"#utility.yul\":680:681   */\n      0x00\n        /* \"#utility.yul\":677:678   */\n      dup1\n        /* \"#utility.yul\":670:682   */\n      revert\n        /* \"#utility.yul\":621:684   */\n    tag_183:\n        /* \"#utility.yul\":568:690   */\n      pop\n      jump\t// out\n        /* \"#utility.yul\":696:835   */\n    tag_138:\n        /* \"#utility.yul\":742:747   */\n      0x00\n        /* \"#utility.yul\":780:786   */\n      dup2\n        /* \"#utility.yul\":767:787   */\n      calldataload\n        /* \"#utility.yul\":758:787   */\n      swap1\n      pop\n        /* \"#utility.yul\":796:829   */\n      tag_185\n        /* \"#utility.yul\":823:828   */\n      dup2\n        /* \"#utility.yul\":796:829   */\n      tag_137\n      jump\t// in\n    tag_185:\n        /* \"#utility.yul\":696:835   */\n      swap3\n      swap2\n      pop\n      pop\n      jump\t// out\n        /* \"#utility.yul\":841:1170   */\n    tag_17:\n        /* \"#utility.yul\":900:906   */\n      0x00\n        /* \"#utility.yul\":949:951   */\n      0x20\n        /* \"#utility.yul\":937:946   */\n      dup3\n        /* \"#utility.yul\":928:935   */\n      dup5\n        /* \"#utility.yul\":924:947   */\n      sub\n        /* \"#utility.yul\":920:952   */\n      slt\n        /* \"#utility.yul\":917:1036   */\n      iszero\n      tag_187\n      jumpi\n        /* \"#utility.yul\":955:1034   */\n      tag_188\n      tag_133\n      jump\t// in\n    tag_188:\n        /* \"#utility.yul\":917:1036   */\n    tag_187:\n        /* \"#utility.yul\":1075:1076   */\n      0x00\n        /* \"#utility.yul\":1100:1153   */\n      tag_189\n        /* \"#utility.yul\":1145:1152   */\n      dup5\n        /* \"#utility.yul\":1136:1142   */\n      dup3\n        /* \"#utility.yul\":1125:1134   */\n      dup6\n        /* \"#utility.yul\":1121:1143   */\n      add\n        /* \"#utility.yul\":1100:1153   */\n      tag_138\n      jump\t// in\n    tag_189:\n        /* \"#utility.yul\":1090:1153   */\n      swap2\n      pop\n        /* \"#utility.yul\":1046:1163   */\n      pop\n        /* \"#utility.yul\":841:1170   */\n      swap3\n      swap2\n      pop\n      pop\n      jump\t// out\n        /* \"#utility.yul\":1176:1290   */\n    tag_139:\n        /* \"#utility.yul\":1243:1249   */\n      0x00\n        /* \"#utility.yul\":1277:1282   */\n      dup2\n        /* \"#utility.yul\":1271:1283   */\n      mload\n        /* \"#utility.yul\":1261:1283   */\n      swap1\n      pop\n        /* \"#utility.yul\":1176:1290   */\n      swap2\n      swap1\n      pop\n      jump\t// out\n        /* \"#utility.yul\":1296:1480   */\n    tag_140:\n        /* \"#utility.yul\":1395:1406   */\n      0x00\n        /* \"#utility.yul\":1429:1435   */\n      dup3\n        /* \"#utility.yul\":1424:1427   */\n      dup3\n        /* \"#utility.yul\":1417:1436   */\n      mstore\n        /* \"#utility.yul\":1469:1473   */\n      0x20\n        /* \"#utility.yul\":1464:1467   */\n      dup3\n        /* \"#utility.yul\":1460:1474   */\n      add\n        /* \"#utility.yul\":1445:1474   */\n      swap1\n      pop\n        /* \"#utility.yul\":1296:1480   */\n      swap3\n      swap2\n      pop\n      pop\n      jump\t// out\n        /* \"#utility.yul\":1486:1618   */\n    tag_141:\n        /* \"#utility.yul\":1553:1557   */\n      0x00\n        /* \"#utility.yul\":1576:1579   */\n      dup2\n        /* \"#utility.yul\":1568:1579   */\n      swap1\n      pop\n        /* \"#utility.yul\":1606:1610   */\n      0x20\n        /* \"#utility.yul\":1601:1604   */\n      dup3\n        /* \"#utility.yul\":1597:1611   */\n      add\n        /* \"#utility.yul\":1589:1611   */\n      swap1\n      pop\n        /* \"#utility.yul\":1486:1618   */\n      swap2\n      swap1\n      pop\n      jump\t// out\n        /* \"#utility.yul\":1624:1701   */\n    tag_142:\n        /* \"#utility.yul\":1661:1668   */\n      0x00\n        /* \"#utility.yul\":1690:1695   */\n      dup2\n        /* \"#utility.yul\":1679:1695   */\n      swap1\n      pop\n        /* \"#utility.yul\":1624:1701   */\n      swap2\n      swap1\n      pop\n      jump\t// out\n        /* \"#utility.yul\":1707:1815   */\n    tag_143:\n        /* \"#utility.yul\":1784:1808   */\n      tag_195\n        /* \"#utility.yul\":1802:1807   */\n      dup2\n        /* \"#utility.yul\":1784:1808   */\n      tag_142\n      jump\t// in\n    tag_195:\n        /* \"#utility.yul\":1779:1782   */\n      dup3\n        /* \"#utility.yul\":1772:1809   */\n      mstore\n        /* \"#utility.yul\":1707:1815   */\n      pop\n      pop\n      jump\t// out\n        /* \"#utility.yul\":1821:2000   */\n    tag_144:\n        /* \"#utility.yul\":1890:1900   */\n      0x00\n        /* \"#utility.yul\":1911:1957   */\n      tag_197\n        /* \"#utility.yul\":1953:1956   */\n      dup4\n        /* \"#utility.yul\":1945:1951   */\n      dup4\n        /* \"#utility.yul\":1911:1957   */\n      tag_143\n      jump\t// in\n    tag_197:\n        /* \"#utility.yul\":1989:1993   */\n      0x20\n        /* \"#utility.yul\":1984:1987   */\n      dup4\n        /* \"#utility.yul\":1980:1994   */\n      add\n        /* \"#utility.yul\":1966:1994   */\n      swap1\n      pop\n        /* \"#utility.yul\":1821:2000   */\n      swap3\n      swap2\n      pop\n      pop\n      jump\t// out\n        /* \"#utility.yul\":2006:2119   */\n    tag_145:\n        /* \"#utility.yul\":2076:2080   */\n      0x00\n        /* \"#utility.yul\":2108:2112   */\n      0x20\n        /* \"#utility.yul\":2103:2106   */\n      dup3\n        /* \"#utility.yul\":2099:2113   */\n      add\n        /* \"#utility.yul\":2091:2113   */\n      swap1\n      pop\n        /* \"#utility.yul\":2006:2119   */\n      swap2\n      swap1\n      pop\n      jump\t// out\n        /* \"#utility.yul\":2155:2887   */\n    tag_146:\n        /* \"#utility.yul\":2274:2277   */\n      0x00\n        /* \"#utility.yul\":2303:2357   */\n      tag_200\n        /* \"#utility.yul\":2351:2356   */\n      dup3\n        /* \"#utility.yul\":2303:2357   */\n      tag_139\n      jump\t// in\n    tag_200:\n        /* \"#utility.yul\":2373:2459   */\n      tag_201\n        /* \"#utility.yul\":2452:2458   */\n      dup2\n        /* \"#utility.yul\":2447:2450   */\n      dup6\n        /* \"#utility.yul\":2373:2459   */\n      tag_140\n      jump\t// in\n    tag_201:\n        /* \"#utility.yul\":2366:2459   */\n      swap4\n      pop\n        /* \"#utility.yul\":2483:2539   */\n      tag_202\n        /* \"#utility.yul\":2533:2538   */\n      dup4\n        /* \"#utility.yul\":2483:2539   */\n      tag_141\n      jump\t// in\n    tag_202:\n        /* \"#utility.yul\":2562:2569   */\n      dup1\n        /* \"#utility.yul\":2593:2594   */\n      0x00\n        /* \"#utility.yul\":2578:2862   */\n    tag_203:\n        /* \"#utility.yul\":2603:2609   */\n      dup4\n        /* \"#utility.yul\":2600:2601   */\n      dup2\n        /* \"#utility.yul\":2597:2610   */\n      lt\n        /* \"#utility.yul\":2578:2862   */\n      iszero\n      tag_205\n      jumpi\n        /* \"#utility.yul\":2679:2685   */\n      dup2\n        /* \"#utility.yul\":2673:2686   */\n      mload\n        /* \"#utility.yul\":2706:2769   */\n      tag_206\n        /* \"#utility.yul\":2765:2768   */\n      dup9\n        /* \"#utility.yul\":2750:2763   */\n      dup3\n        /* \"#utility.yul\":2706:2769   */\n      tag_144\n      jump\t// in\n    tag_206:\n        /* \"#utility.yul\":2699:2769   */\n      swap8\n      pop\n        /* \"#utility.yul\":2792:2852   */\n      tag_207\n        /* \"#utility.yul\":2845:2851   */\n      dup4\n        /* \"#utility.yul\":2792:2852   */\n      tag_145\n      jump\t// in\n    tag_207:\n        /* \"#utility.yul\":2782:2852   */\n      swap3\n      pop\n        /* \"#utility.yul\":2638:2862   */\n      pop\n        /* \"#utility.yul\":2625:2626   */\n      0x01\n        /* \"#utility.yul\":2622:2623   */\n      dup2\n        /* \"#utility.yul\":2618:2627   */\n      add\n        /* \"#utility.yul\":2613:2627   */\n      swap1\n      pop\n        /* \"#utility.yul\":2578:2862   */\n      jump(tag_203)\n    tag_205:\n        /* \"#utility.yul\":2582:2596   */\n      pop\n        /* \"#utility.yul\":2878:2881   */\n      dup6\n        /* \"#utility.yul\":2871:2881   */\n      swap4\n      pop\n        /* \"#utility.yul\":2279:2887   */\n      pop\n      pop\n      pop\n        /* \"#utility.yul\":2155:2887   */\n      swap3\n      swap2\n      pop\n      pop\n      jump\t// out\n        /* \"#utility.yul\":2893:3266   */\n    tag_20:\n        /* \"#utility.yul\":3036:3040   */\n      0x00\n        /* \"#utility.yul\":3074:3076   */\n      0x20\n        /* \"#utility.yul\":3063:3072   */\n      dup3\n        /* \"#utility.yul\":3059:3077   */\n      add\n        /* \"#utility.yul\":3051:3077   */\n      swap1\n      pop\n        /* \"#utility.yul\":3123:3132   */\n      dup2\n        /* \"#utility.yul\":3117:3121   */\n      dup2\n        /* \"#utility.yul\":3113:3133   */\n      sub\n        /* \"#utility.yul\":3109:3110   */\n      0x00\n        /* \"#utility.yul\":3098:3107   */\n      dup4\n        /* \"#utility.yul\":3094:3111   */\n      add\n        /* \"#utility.yul\":3087:3134   */\n      mstore\n        /* \"#utility.yul\":3151:3259   */\n      tag_209\n        /* \"#utility.yul\":3254:3258   */\n      dup2\n        /* \"#utility.yul\":3245:3251   */\n      dup5\n        /* \"#utility.yul\":3151:3259   */\n      tag_146\n      jump\t// in\n    tag_209:\n        /* \"#utility.yul\":3143:3259   */\n      swap1\n      pop\n        /* \"#utility.yul\":2893:3266   */\n      swap3\n      swap2\n      pop\n      pop\n      jump\t// out\n        /* \"#utility.yul\":3272:3394   */\n    tag_147:\n        /* \"#utility.yul\":3345:3369   */\n      tag_211\n        /* \"#utility.yul\":3363:3368   */\n      dup2\n        /* \"#utility.yul\":3345:3369   */\n      tag_142\n      jump\t// in\n    tag_211:\n        /* \"#utility.yul\":3338:3343   */\n      dup2\n        /* \"#utility.yul\":3335:3370   */\n      eq\n        /* \"#utility.yul\":3325:3388   */\n      tag_212\n      jumpi\n        /* \"#utility.yul\":3384:3385   */\n      0x00\n        /* \"#utility.yul\":3381:3382   */\n      dup1\n        /* \"#utility.yul\":3374:3386   */\n      revert\n        /* \"#utility.yul\":3325:3388   */\n    tag_212:\n        /* \"#utility.yul\":3272:3394   */\n      pop\n      jump\t// out\n        /* \"#utility.yul\":3400:3539   */\n    tag_148:\n        /* \"#utility.yul\":3446:3451   */\n      0x00\n        /* \"#utility.yul\":3484:3490   */\n      dup2\n        /* \"#utility.yul\":3471:3491   */\n      calldataload\n        /* \"#utility.yul\":3462:3491   */\n      swap1\n      pop\n        /* \"#utility.yul\":3500:3533   */\n      tag_214\n        /* \"#utility.yul\":3527:3532   */\n      dup2\n        /* \"#utility.yul\":3500:3533   */\n      tag_147\n      jump\t// in\n    tag_214:\n        /* \"#utility.yul\":3400:3539   */\n      swap3\n      swap2\n      pop\n      pop\n      jump\t// out\n        /* \"#utility.yul\":3545:3874   */\n    tag_23:\n        /* \"#utility.yul\":3604:3610   */\n      0x00\n        /* \"#utility.yul\":3653:3655   */\n      0x20\n        /* \"#utility.yul\":3641:3650   */\n      dup3\n        /* \"#utility.yul\":3632:3639   */\n      dup5\n        /* \"#utility.yul\":3628:3651   */\n      sub\n        /* \"#utility.yul\":3624:3656   */\n      slt\n        /* \"#utility.yul\":3621:3740   */\n      iszero\n      tag_216\n      jumpi\n        /* \"#utility.yul\":3659:3738   */\n      tag_217\n      tag_133\n      jump\t// in\n    tag_217:\n        /* \"#utility.yul\":3621:3740   */\n    tag_216:\n        /* \"#utility.yul\":3779:3780   */\n      0x00\n        /* \"#utility.yul\":3804:3857   */\n      tag_218\n        /* \"#utility.yul\":3849:3856   */\n      dup5\n        /* \"#utility.yul\":3840:3846   */\n      dup3\n        /* \"#utility.yul\":3829:3838   */\n      dup6\n        /* \"#utility.yul\":3825:3847   */\n      add\n        /* \"#utility.yul\":3804:3857   */\n      tag_148\n      jump\t// in\n    tag_218:\n        /* \"#utility.yul\":3794:3857   */\n      swap2\n      pop\n        /* \"#utility.yul\":3750:3867   */\n      pop\n        /* \"#utility.yul\":3545:3874   */\n      swap3\n      swap2\n      pop\n      pop\n      jump\t// out\n        /* \"#utility.yul\":3880:4354   */\n    tag_27:\n        /* \"#utility.yul\":3948:3954   */\n      0x00\n        /* \"#utility.yul\":3956:3962   */\n      dup1\n        /* \"#utility.yul\":4005:4007   */\n      0x40\n        /* \"#utility.yul\":3993:4002   */\n      dup4\n        /* \"#utility.yul\":3984:3991   */\n      dup6\n        /* \"#utility.yul\":3980:4003   */\n      sub\n        /* \"#utility.yul\":3976:4008   */\n      slt\n        /* \"#utility.yul\":3973:4092   */\n      iszero\n      tag_220\n      jumpi\n        /* \"#utility.yul\":4011:4090   */\n      tag_221\n      tag_133\n      jump\t// in\n    tag_221:\n        /* \"#utility.yul\":3973:4092   */\n    tag_220:\n        /* \"#utility.yul\":4131:4132   */\n      0x00\n        /* \"#utility.yul\":4156:4209   */\n      tag_222\n        /* \"#utility.yul\":4201:4208   */\n      dup6\n        /* \"#utility.yul\":4192:4198   */\n      dup3\n        /* \"#utility.yul\":4181:4190   */\n      dup7\n        /* \"#utility.yul\":4177:4199   */\n      add\n        /* \"#utility.yul\":4156:4209   */\n      tag_138\n      jump\t// in\n    tag_222:\n        /* \"#utility.yul\":4146:4209   */\n      swap3\n      pop\n        /* \"#utility.yul\":4102:4219   */\n      pop\n        /* \"#utility.yul\":4258:4260   */\n      0x20\n        /* \"#utility.yul\":4284:4337   */\n      tag_223\n        /* \"#utility.yul\":4329:4336   */\n      dup6\n        /* \"#utility.yul\":4320:4326   */\n      dup3\n        /* \"#utility.yul\":4309:4318   */\n      dup7\n        /* \"#utility.yul\":4305:4327   */\n      add\n        /* \"#utility.yul\":4284:4337   */\n      tag_148\n      jump\t// in\n    tag_223:\n        /* \"#utility.yul\":4274:4337   */\n      swap2\n      pop\n        /* \"#utility.yul\":4229:4347   */\n      pop\n        /* \"#utility.yul\":3880:4354   */\n      swap3\n      pop\n      swap3\n      swap1\n      pop\n      jump\t// out\n        /* \"#utility.yul\":4360:4478   */\n    tag_149:\n        /* \"#utility.yul\":4447:4471   */\n      tag_225\n        /* \"#utility.yul\":4465:4470   */\n      dup2\n        /* \"#utility.yul\":4447:4471   */\n      tag_136\n      jump\t// in\n    tag_225:\n        /* \"#utility.yul\":4442:4445   */\n      dup3\n        /* \"#utility.yul\":4435:4472   */\n      mstore\n        /* \"#utility.yul\":4360:4478   */\n      pop\n      pop\n      jump\t// out\n        /* \"#utility.yul\":4484:4706   */\n    tag_30:\n        /* \"#utility.yul\":4577:4581   */\n      0x00\n        /* \"#utility.yul\":4615:4617   */\n      0x20\n        /* \"#utility.yul\":4604:4613   */\n      dup3\n        /* \"#utility.yul\":4600:4618   */\n      add\n        /* \"#utility.yul\":4592:4618   */\n      swap1\n      pop\n        /* \"#utility.yul\":4628:4699   */\n      tag_227\n        /* \"#utility.yul\":4696:4697   */\n      0x00\n        /* \"#utility.yul\":4685:4694   */\n      dup4\n        /* \"#utility.yul\":4681:4698   */\n      add\n        /* \"#utility.yul\":4672:4678   */\n      dup5\n        /* \"#utility.yul\":4628:4699   */\n      tag_149\n      jump\t// in\n    tag_227:\n        /* \"#utility.yul\":4484:4706   */\n      swap3\n      swap2\n      pop\n      pop\n      jump\t// out\n        /* \"#utility.yul\":4712:4802   */\n    tag_150:\n        /* \"#utility.yul\":4746:4753   */\n      0x00\n        /* \"#utility.yul\":4789:4794   */\n      dup2\n        /* \"#utility.yul\":4782:4795   */\n      iszero\n        /* \"#utility.yul\":4775:4796   */\n      iszero\n        /* \"#utility.yul\":4764:4796   */\n      swap1\n      pop\n        /* \"#utility.yul\":4712:4802   */\n      swap2\n      swap1\n      pop\n      jump\t// out\n        /* \"#utility.yul\":4808:4917   */\n    tag_151:\n        /* \"#utility.yul\":4889:4910   */\n      tag_230\n        /* \"#utility.yul\":4904:4909   */\n      dup2\n        /* \"#utility.yul\":4889:4910   */\n      tag_150\n      jump\t// in\n    tag_230:\n        /* \"#utility.yul\":4884:4887   */\n      dup3\n        /* \"#utility.yul\":4877:4911   */\n      mstore\n        /* \"#utility.yul\":4808:4917   */\n      pop\n      pop\n      jump\t// out\n        /* \"#utility.yul\":4923:5133   */\n    tag_35:\n        /* \"#utility.yul\":5010:5014   */\n      0x00\n        /* \"#utility.yul\":5048:5050   */\n      0x20\n        /* \"#utility.yul\":5037:5046   */\n      dup3\n        /* \"#utility.yul\":5033:5051   */\n      add\n        /* \"#utility.yul\":5025:5051   */\n      swap1\n      pop\n        /* \"#utility.yul\":5061:5126   */\n      tag_232\n        /* \"#utility.yul\":5123:5124   */\n      0x00\n        /* \"#utility.yul\":5112:5121   */\n      dup4\n        /* \"#utility.yul\":5108:5125   */\n      add\n        /* \"#utility.yul\":5099:5105   */\n      dup5\n        /* \"#utility.yul\":5061:5126   */\n      tag_151\n      jump\t// in\n    tag_232:\n        /* \"#utility.yul\":4923:5133   */\n      swap3\n      swap2\n      pop\n      pop\n      jump\t// out\n        /* \"#utility.yul\":5139:6050   */\n    tag_41:\n        /* \"#utility.yul\":5234:5240   */\n      0x00\n        /* \"#utility.yul\":5242:5248   */\n      dup1\n        /* \"#utility.yul\":5250:5256   */\n      0x00\n        /* \"#utility.yul\":5258:5264   */\n      dup1\n        /* \"#utility.yul\":5266:5272   */\n      0x00\n        /* \"#utility.yul\":5315:5318   */\n      0xa0\n        /* \"#utility.yul\":5303:5312   */\n      dup7\n        /* \"#utility.yul\":5294:5301   */\n      dup9\n        /* \"#utility.yul\":5290:5313   */\n      sub\n        /* \"#utility.yul\":5286:5319   */\n      slt\n        /* \"#utility.yul\":5283:5403   */\n      iszero\n      tag_234\n      jumpi\n        /* \"#utility.yul\":5322:5401   */\n      tag_235\n      tag_133\n      jump\t// in\n    tag_235:\n        /* \"#utility.yul\":5283:5403   */\n    tag_234:\n        /* \"#utility.yul\":5442:5443   */\n      0x00\n        /* \"#utility.yul\":5467:5520   */\n      tag_236\n        /* \"#utility.yul\":5512:5519   */\n      dup9\n        /* \"#utility.yul\":5503:5509   */\n      dup3\n        /* \"#utility.yul\":5492:5501   */\n      dup10\n        /* \"#utility.yul\":5488:5510   */\n      add\n        /* \"#utility.yul\":5467:5520   */\n      tag_138\n      jump\t// in\n    tag_236:\n        /* \"#utility.yul\":5457:5520   */\n      swap6\n      pop\n        /* \"#utility.yul\":5413:5530   */\n      pop\n        /* \"#utility.yul\":5569:5571   */\n      0x20\n        /* \"#utility.yul\":5595:5648   */\n      tag_237\n        /* \"#utility.yul\":5640:5647   */\n      dup9\n        /* \"#utility.yul\":5631:5637   */\n      dup3\n        /* \"#utility.yul\":5620:5629   */\n      dup10\n        /* \"#utility.yul\":5616:5638   */\n      add\n        /* \"#utility.yul\":5595:5648   */\n      tag_148\n      jump\t// in\n    tag_237:\n        /* \"#utility.yul\":5585:5648   */\n      swap5\n      pop\n        /* \"#utility.yul\":5540:5658   */\n      pop\n        /* \"#utility.yul\":5697:5699   */\n      0x40\n        /* \"#utility.yul\":5723:5776   */\n      tag_238\n        /* \"#utility.yul\":5768:5775   */\n      dup9\n        /* \"#utility.yul\":5759:5765   */\n      dup3\n        /* \"#utility.yul\":5748:5757   */\n      dup10\n        /* \"#utility.yul\":5744:5766   */\n      add\n        /* \"#utility.yul\":5723:5776   */\n      tag_148\n      jump\t// in\n    tag_238:\n        /* \"#utility.yul\":5713:5776   */\n      swap4\n      pop\n        /* \"#utility.yul\":5668:5786   */\n      pop\n        /* \"#utility.yul\":5825:5827   */\n      0x60\n        /* \"#utility.yul\":5851:5904   */\n      tag_239\n        /* \"#utility.yul\":5896:5903   */\n      dup9\n        /* \"#utility.yul\":5887:5893   */\n      dup3\n        /* \"#utility.yul\":5876:5885   */\n      dup10\n        /* \"#utility.yul\":5872:5894   */\n      add\n        /* \"#utility.yul\":5851:5904   */\n      tag_148\n      jump\t// in\n    tag_239:\n        /* \"#utility.yul\":5841:5904   */\n      swap3\n      pop\n        /* \"#utility.yul\":5796:5914   */\n      pop\n        /* \"#utility.yul\":5953:5956   */\n      0x80\n        /* \"#utility.yul\":5980:6033   */\n      tag_240\n        /* \"#utility.yul\":6025:6032   */\n      dup9\n        /* \"#utility.yul\":6016:6022   */\n      dup3\n        /* \"#utility.yul\":6005:6014   */\n      dup10\n        /* \"#utility.yul\":6001:6023   */\n      add\n        /* \"#utility.yul\":5980:6033   */\n      tag_148\n      jump\t// in\n    tag_240:\n        /* \"#utility.yul\":5970:6033   */\n      swap2\n      pop\n        /* \"#utility.yul\":5924:6043   */\n      pop\n        /* \"#utility.yul\":5139:6050   */\n      swap3\n      swap6\n      pop\n      swap3\n      swap6\n      swap1\n      swap4\n      pop\n      jump\t// out\n        /* \"#utility.yul\":6056:6174   */\n    tag_152:\n        /* \"#utility.yul\":6143:6167   */\n      tag_242\n        /* \"#utility.yul\":6161:6166   */\n      dup2\n        /* \"#utility.yul\":6143:6167   */\n      tag_142\n      jump\t// in\n    tag_242:\n        /* \"#utility.yul\":6138:6141   */\n      dup3\n        /* \"#utility.yul\":6131:6168   */\n      mstore\n        /* \"#utility.yul\":6056:6174   */\n      pop\n      pop\n      jump\t// out\n        /* \"#utility.yul\":6180:6402   */\n    tag_46:\n        /* \"#utility.yul\":6273:6277   */\n      0x00\n        /* \"#utility.yul\":6311:6313   */\n      0x20\n        /* \"#utility.yul\":6300:6309   */\n      dup3\n        /* \"#utility.yul\":6296:6314   */\n      add\n        /* \"#utility.yul\":6288:6314   */\n      swap1\n      pop\n        /* \"#utility.yul\":6324:6395   */\n      tag_244\n        /* \"#utility.yul\":6392:6393   */\n      0x00\n        /* \"#utility.yul\":6381:6390   */\n      dup4\n        /* \"#utility.yul\":6377:6394   */\n      add\n        /* \"#utility.yul\":6368:6374   */\n      dup5\n        /* \"#utility.yul\":6324:6395   */\n      tag_152\n      jump\t// in\n    tag_244:\n        /* \"#utility.yul\":6180:6402   */\n      swap3\n      swap2\n      pop\n      pop\n      jump\t// out\n        /* \"#utility.yul\":6408:6512   */\n    tag_153:\n        /* \"#utility.yul\":6453:6460   */\n      0x00\n        /* \"#utility.yul\":6482:6506   */\n      tag_246\n        /* \"#utility.yul\":6500:6505   */\n      dup3\n        /* \"#utility.yul\":6482:6506   */\n      tag_135\n      jump\t// in\n    tag_246:\n        /* \"#utility.yul\":6471:6506   */\n      swap1\n      pop\n        /* \"#utility.yul\":6408:6512   */\n      swap2\n      swap1\n      pop\n      jump\t// out\n        /* \"#utility.yul\":6518:6650   */\n    tag_154:\n        /* \"#utility.yul\":6611:6643   */\n      tag_248\n        /* \"#utility.yul\":6637:6642   */\n      dup2\n        /* \"#utility.yul\":6611:6643   */\n      tag_153\n      jump\t// in\n    tag_248:\n        /* \"#utility.yul\":6606:6609   */\n      dup3\n        /* \"#utility.yul\":6599:6644   */\n      mstore\n        /* \"#utility.yul\":6518:6650   */\n      pop\n      pop\n      jump\t// out\n        /* \"#utility.yul\":6656:6764   */\n    tag_155:\n        /* \"#utility.yul\":6733:6757   */\n      tag_250\n        /* \"#utility.yul\":6751:6756   */\n      dup2\n        /* \"#utility.yul\":6733:6757   */\n      tag_136\n      jump\t// in\n    tag_250:\n        /* \"#utility.yul\":6728:6731   */\n      dup3\n        /* \"#utility.yul\":6721:6758   */\n      mstore\n        /* \"#utility.yul\":6656:6764   */\n      pop\n      pop\n      jump\t// out\n        /* \"#utility.yul\":6770:6847   */\n    tag_156:\n        /* \"#utility.yul\":6807:6814   */\n      0x00\n        /* \"#utility.yul\":6836:6841   */\n      dup2\n        /* \"#utility.yul\":6825:6841   */\n      swap1\n      pop\n        /* \"#utility.yul\":6770:6847   */\n      swap2\n      swap1\n      pop\n      jump\t// out\n        /* \"#utility.yul\":6853:6961   */\n    tag_157:\n        /* \"#utility.yul\":6930:6954   */\n      tag_253\n        /* \"#utility.yul\":6948:6953   */\n      dup2\n        /* \"#utility.yul\":6930:6954   */\n      tag_156\n      jump\t// in\n    tag_253:\n        /* \"#utility.yul\":6925:6928   */\n      dup3\n        /* \"#utility.yul\":6918:6955   */\n      mstore\n        /* \"#utility.yul\":6853:6961   */\n      pop\n      pop\n      jump\t// out\n        /* \"#utility.yul\":7033:8454   */\n    tag_158:\n        /* \"#utility.yul\":7186:7190   */\n      0xe0\n        /* \"#utility.yul\":7181:7184   */\n      dup3\n        /* \"#utility.yul\":7177:7191   */\n      add\n        /* \"#utility.yul\":7275:7279   */\n      0x00\n        /* \"#utility.yul\":7268:7273   */\n      dup3\n        /* \"#utility.yul\":7264:7280   */\n      add\n        /* \"#utility.yul\":7258:7281   */\n      mload\n        /* \"#utility.yul\":7294:7373   */\n      tag_255\n        /* \"#utility.yul\":7367:7371   */\n      0x00\n        /* \"#utility.yul\":7362:7365   */\n      dup6\n        /* \"#utility.yul\":7358:7372   */\n      add\n        /* \"#utility.yul\":7344:7356   */\n      dup3\n        /* \"#utility.yul\":7294:7373   */\n      tag_154\n      jump\t// in\n    tag_255:\n        /* \"#utility.yul\":7201:7383   */\n      pop\n        /* \"#utility.yul\":7475:7479   */\n      0x20\n        /* \"#utility.yul\":7468:7473   */\n      dup3\n        /* \"#utility.yul\":7464:7480   */\n      add\n        /* \"#utility.yul\":7458:7481   */\n      mload\n        /* \"#utility.yul\":7494:7557   */\n      tag_256\n        /* \"#utility.yul\":7551:7555   */\n      0x20\n        /* \"#utility.yul\":7546:7549   */\n      dup6\n        /* \"#utility.yul\":7542:7556   */\n      add\n        /* \"#utility.yul\":7528:7540   */\n      dup3\n        /* \"#utility.yul\":7494:7557   */\n      tag_155\n      jump\t// in\n    tag_256:\n        /* \"#utility.yul\":7393:7567   */\n      pop\n        /* \"#utility.yul\":7652:7656   */\n      0x40\n        /* \"#utility.yul\":7645:7650   */\n      dup3\n        /* \"#utility.yul\":7641:7657   */\n      add\n        /* \"#utility.yul\":7635:7658   */\n      mload\n        /* \"#utility.yul\":7671:7734   */\n      tag_257\n        /* \"#utility.yul\":7728:7732   */\n      0x40\n        /* \"#utility.yul\":7723:7726   */\n      dup6\n        /* \"#utility.yul\":7719:7733   */\n      add\n        /* \"#utility.yul\":7705:7717   */\n      dup3\n        /* \"#utility.yul\":7671:7734   */\n      tag_143\n      jump\t// in\n    tag_257:\n        /* \"#utility.yul\":7577:7744   */\n      pop\n        /* \"#utility.yul\":7828:7832   */\n      0x60\n        /* \"#utility.yul\":7821:7826   */\n      dup3\n        /* \"#utility.yul\":7817:7833   */\n      add\n        /* \"#utility.yul\":7811:7834   */\n      mload\n        /* \"#utility.yul\":7847:7910   */\n      tag_258\n        /* \"#utility.yul\":7904:7908   */\n      0x60\n        /* \"#utility.yul\":7899:7902   */\n      dup6\n        /* \"#utility.yul\":7895:7909   */\n      add\n        /* \"#utility.yul\":7881:7893   */\n      dup3\n        /* \"#utility.yul\":7847:7910   */\n      tag_143\n      jump\t// in\n    tag_258:\n        /* \"#utility.yul\":7754:7920   */\n      pop\n        /* \"#utility.yul\":8006:8010   */\n      0x80\n        /* \"#utility.yul\":7999:8004   */\n      dup3\n        /* \"#utility.yul\":7995:8011   */\n      add\n        /* \"#utility.yul\":7989:8012   */\n      mload\n        /* \"#utility.yul\":8025:8088   */\n      tag_259\n        /* \"#utility.yul\":8082:8086   */\n      0x80\n        /* \"#utility.yul\":8077:8080   */\n      dup6\n        /* \"#utility.yul\":8073:8087   */\n      add\n        /* \"#utility.yul\":8059:8071   */\n      dup3\n        /* \"#utility.yul\":8025:8088   */\n      tag_143\n      jump\t// in\n    tag_259:\n        /* \"#utility.yul\":7930:8098   */\n      pop\n        /* \"#utility.yul\":8179:8183   */\n      0xa0\n        /* \"#utility.yul\":8172:8177   */\n      dup3\n        /* \"#utility.yul\":8168:8184   */\n      add\n        /* \"#utility.yul\":8162:8185   */\n      mload\n        /* \"#utility.yul\":8198:8261   */\n      tag_260\n        /* \"#utility.yul\":8255:8259   */\n      0xa0\n        /* \"#utility.yul\":8250:8253   */\n      dup6\n        /* \"#utility.yul\":8246:8260   */\n      add\n        /* \"#utility.yul\":8232:8244   */\n      dup3\n        /* \"#utility.yul\":8198:8261   */\n      tag_143\n      jump\t// in\n    tag_260:\n        /* \"#utility.yul\":8108:8271   */\n      pop\n        /* \"#utility.yul\":8355:8359   */\n      0xc0\n        /* \"#utility.yul\":8348:8353   */\n      dup3\n        /* \"#utility.yul\":8344:8360   */\n      add\n        /* \"#utility.yul\":8338:8361   */\n      mload\n        /* \"#utility.yul\":8374:8437   */\n      tag_261\n        /* \"#utility.yul\":8431:8435   */\n      0xc0\n        /* \"#utility.yul\":8426:8429   */\n      dup6\n        /* \"#utility.yul\":8422:8436   */\n      add\n        /* \"#utility.yul\":8408:8420   */\n      dup3\n        /* \"#utility.yul\":8374:8437   */\n      tag_157\n      jump\t// in\n    tag_261:\n        /* \"#utility.yul\":8281:8447   */\n      pop\n        /* \"#utility.yul\":7155:8454   */\n      pop\n        /* \"#utility.yul\":7033:8454   */\n      pop\n      pop\n      jump\t// out\n        /* \"#utility.yul\":8460:8795   */\n    tag_51:\n        /* \"#utility.yul\":8609:8613   */\n      0x00\n        /* \"#utility.yul\":8647:8650   */\n      0xe0\n        /* \"#utility.yul\":8636:8645   */\n      dup3\n        /* \"#utility.yul\":8632:8651   */\n      add\n        /* \"#utility.yul\":8624:8651   */\n      swap1\n      pop\n        /* \"#utility.yul\":8661:8788   */\n      tag_263\n        /* \"#utility.yul\":8785:8786   */\n      0x00\n        /* \"#utility.yul\":8774:8783   */\n      dup4\n        /* \"#utility.yul\":8770:8787   */\n      add\n        /* \"#utility.yul\":8761:8767   */\n      dup5\n        /* \"#utility.yul\":8661:8788   */\n      tag_158\n      jump\t// in\n    tag_263:\n        /* \"#utility.yul\":8460:8795   */\n      swap3\n      swap2\n      pop\n      pop\n      jump\t// out\n        /* \"#utility.yul\":8801:9121   */\n    tag_56:\n        /* \"#utility.yul\":8916:8920   */\n      0x00\n        /* \"#utility.yul\":8954:8956   */\n      0x40\n        /* \"#utility.yul\":8943:8952   */\n      dup3\n        /* \"#utility.yul\":8939:8957   */\n      add\n        /* \"#utility.yul\":8931:8957   */\n      swap1\n      pop\n        /* \"#utility.yul\":8967:9038   */\n      tag_265\n        /* \"#utility.yul\":9035:9036   */\n      0x00\n        /* \"#utility.yul\":9024:9033   */\n      dup4\n        /* \"#utility.yul\":9020:9037   */\n      add\n        /* \"#utility.yul\":9011:9017   */\n      dup6\n        /* \"#utility.yul\":8967:9038   */\n      tag_152\n      jump\t// in\n    tag_265:\n        /* \"#utility.yul\":9048:9114   */\n      tag_266\n        /* \"#utility.yul\":9110:9112   */\n      0x20\n        /* \"#utility.yul\":9099:9108   */\n      dup4\n        /* \"#utility.yul\":9095:9113   */\n      add\n        /* \"#utility.yul\":9086:9092   */\n      dup5\n        /* \"#utility.yul\":9048:9114   */\n      tag_151\n      jump\t// in\n    tag_266:\n        /* \"#utility.yul\":8801:9121   */\n      swap4\n      swap3\n      pop\n      pop\n      pop\n      jump\t// out\n        /* \"#utility.yul\":9127:9269   */\n    tag_159:\n        /* \"#utility.yul\":9230:9262   */\n      tag_268\n        /* \"#utility.yul\":9256:9261   */\n      dup2\n        /* \"#utility.yul\":9230:9262   */\n      tag_153\n      jump\t// in\n    tag_268:\n        /* \"#utility.yul\":9225:9228   */\n      dup3\n        /* \"#utility.yul\":9218:9263   */\n      mstore\n        /* \"#utility.yul\":9127:9269   */\n      pop\n      pop\n      jump\t// out\n        /* \"#utility.yul\":9275:9393   */\n    tag_160:\n        /* \"#utility.yul\":9362:9386   */\n      tag_270\n        /* \"#utility.yul\":9380:9385   */\n      dup2\n        /* \"#utility.yul\":9362:9386   */\n      tag_156\n      jump\t// in\n    tag_270:\n        /* \"#utility.yul\":9357:9360   */\n      dup3\n        /* \"#utility.yul\":9350:9387   */\n      mstore\n        /* \"#utility.yul\":9275:9393   */\n      pop\n      pop\n      jump\t// out\n        /* \"#utility.yul\":9399:10317   */\n    tag_64:\n        /* \"#utility.yul\":9676:9680   */\n      0x00\n        /* \"#utility.yul\":9714:9717   */\n      0xe0\n        /* \"#utility.yul\":9703:9712   */\n      dup3\n        /* \"#utility.yul\":9699:9718   */\n      add\n        /* \"#utility.yul\":9691:9718   */\n      swap1\n      pop\n        /* \"#utility.yul\":9728:9815   */\n      tag_272\n        /* \"#utility.yul\":9812:9813   */\n      0x00\n        /* \"#utility.yul\":9801:9810   */\n      dup4\n        /* \"#utility.yul\":9797:9814   */\n      add\n        /* \"#utility.yul\":9788:9794   */\n      dup11\n        /* \"#utility.yul\":9728:9815   */\n      tag_159\n      jump\t// in\n    tag_272:\n        /* \"#utility.yul\":9825:9897   */\n      tag_273\n        /* \"#utility.yul\":9893:9895   */\n      0x20\n        /* \"#utility.yul\":9882:9891   */\n      dup4\n        /* \"#utility.yul\":9878:9896   */\n      add\n        /* \"#utility.yul\":9869:9875   */\n      dup10\n        /* \"#utility.yul\":9825:9897   */\n      tag_149\n      jump\t// in\n    tag_273:\n        /* \"#utility.yul\":9907:9979   */\n      tag_274\n        /* \"#utility.yul\":9975:9977   */\n      0x40\n        /* \"#utility.yul\":9964:9973   */\n      dup4\n        /* \"#utility.yul\":9960:9978   */\n      add\n        /* \"#utility.yul\":9951:9957   */\n      dup9\n        /* \"#utility.yul\":9907:9979   */\n      tag_152\n      jump\t// in\n    tag_274:\n        /* \"#utility.yul\":9989:10061   */\n      tag_275\n        /* \"#utility.yul\":10057:10059   */\n      0x60\n        /* \"#utility.yul\":10046:10055   */\n      dup4\n        /* \"#utility.yul\":10042:10060   */\n      add\n        /* \"#utility.yul\":10033:10039   */\n      dup8\n        /* \"#utility.yul\":9989:10061   */\n      tag_152\n      jump\t// in\n    tag_275:\n        /* \"#utility.yul\":10071:10144   */\n      tag_276\n        /* \"#utility.yul\":10139:10142   */\n      0x80\n        /* \"#utility.yul\":10128:10137   */\n      dup4\n        /* \"#utility.yul\":10124:10143   */\n      add\n        /* \"#utility.yul\":10115:10121   */\n      dup7\n        /* \"#utility.yul\":10071:10144   */\n      tag_152\n      jump\t// in\n    tag_276:\n        /* \"#utility.yul\":10154:10227   */\n      tag_277\n        /* \"#utility.yul\":10222:10225   */\n      0xa0\n        /* \"#utility.yul\":10211:10220   */\n      dup4\n        /* \"#utility.yul\":10207:10226   */\n      add\n        /* \"#utility.yul\":10198:10204   */\n      dup6\n        /* \"#utility.yul\":10154:10227   */\n      tag_152\n      jump\t// in\n    tag_277:\n        /* \"#utility.yul\":10237:10310   */\n      tag_278\n        /* \"#utility.yul\":10305:10308   */\n      0xc0\n        /* \"#utility.yul\":10294:10303   */\n      dup4\n        /* \"#utility.yul\":10290:10309   */\n      add\n        /* \"#utility.yul\":10281:10287   */\n      dup5\n        /* \"#utility.yul\":10237:10310   */\n      tag_160\n      jump\t// in\n    tag_278:\n        /* \"#utility.yul\":9399:10317   */\n      swap9\n      swap8\n      pop\n      pop\n      pop\n      pop\n      pop\n      pop\n      pop\n      pop\n      jump\t// out\n        /* \"#utility.yul\":10323:10492   */\n    tag_161:\n        /* \"#utility.yul\":10407:10418   */\n      0x00\n        /* \"#utility.yul\":10441:10447   */\n      dup3\n        /* \"#utility.yul\":10436:10439   */\n      dup3\n        /* \"#utility.yul\":10429:10448   */\n      mstore\n        /* \"#utility.yul\":10481:10485   */\n      0x20\n        /* \"#utility.yul\":10476:10479   */\n      dup3\n        /* \"#utility.yul\":10472:10486   */\n      add\n        /* \"#utility.yul\":10457:10486   */\n      swap1\n      pop\n        /* \"#utility.yul\":10323:10492   */\n      swap3\n      swap2\n      pop\n      pop\n      jump\t// out\n        /* \"#utility.yul\":10498:10723   */\n    tag_162:\n        /* \"#utility.yul\":10638:10672   */\n      0x596f7520686176656e277420656e6f7567682062616c616e636520666f72206c\n        /* \"#utility.yul\":10634:10635   */\n      0x00\n        /* \"#utility.yul\":10626:10632   */\n      dup3\n        /* \"#utility.yul\":10622:10636   */\n      add\n        /* \"#utility.yul\":10615:10673   */\n      mstore\n        /* \"#utility.yul\":10707:10715   */\n      0x656e64696e670000000000000000000000000000000000000000000000000000\n        /* \"#utility.yul\":10702:10704   */\n      0x20\n        /* \"#utility.yul\":10694:10700   */\n      dup3\n        /* \"#utility.yul\":10690:10705   */\n      add\n        /* \"#utility.yul\":10683:10716   */\n      mstore\n        /* \"#utility.yul\":10498:10723   */\n      pop\n      jump\t// out\n        /* \"#utility.yul\":10729:11095   */\n    tag_163:\n        /* \"#utility.yul\":10871:10874   */\n      0x00\n        /* \"#utility.yul\":10892:10959   */\n      tag_282\n        /* \"#utility.yul\":10956:10958   */\n      0x26\n        /* \"#utility.yul\":10951:10954   */\n      dup4\n        /* \"#utility.yul\":10892:10959   */\n      tag_161\n      jump\t// in\n    tag_282:\n        /* \"#utility.yul\":10885:10959   */\n      swap2\n      pop\n        /* \"#utility.yul\":10968:11061   */\n      tag_283\n        /* \"#utility.yul\":11057:11060   */\n      dup3\n        /* \"#utility.yul\":10968:11061   */\n      tag_162\n      jump\t// in\n    tag_283:\n        /* \"#utility.yul\":11086:11088   */\n      0x40\n        /* \"#utility.yul\":11081:11084   */\n      dup3\n        /* \"#utility.yul\":11077:11089   */\n      add\n        /* \"#utility.yul\":11070:11089   */\n      swap1\n      pop\n        /* \"#utility.yul\":10729:11095   */\n      swap2\n      swap1\n      pop\n      jump\t// out\n        /* \"#utility.yul\":11101:11520   */\n    tag_72:\n        /* \"#utility.yul\":11267:11271   */\n      0x00\n        /* \"#utility.yul\":11305:11307   */\n      0x20\n        /* \"#utility.yul\":11294:11303   */\n      dup3\n        /* \"#utility.yul\":11290:11308   */\n      add\n        /* \"#utility.yul\":11282:11308   */\n      swap1\n      pop\n        /* \"#utility.yul\":11354:11363   */\n      dup2\n        /* \"#utility.yul\":11348:11352   */\n      dup2\n        /* \"#utility.yul\":11344:11364   */\n      sub\n        /* \"#utility.yul\":11340:11341   */\n      0x00\n        /* \"#utility.yul\":11329:11338   */\n      dup4\n        /* \"#utility.yul\":11325:11342   */\n      add\n        /* \"#utility.yul\":11318:11365   */\n      mstore\n        /* \"#utility.yul\":11382:11513   */\n      tag_285\n        /* \"#utility.yul\":11508:11512   */\n      dup2\n        /* \"#utility.yul\":11382:11513   */\n      tag_163\n      jump\t// in\n    tag_285:\n        /* \"#utility.yul\":11374:11513   */\n      swap1\n      pop\n        /* \"#utility.yul\":11101:11520   */\n      swap2\n      swap1\n      pop\n      jump\t// out\n        /* \"#utility.yul\":11526:11971   */\n    tag_77:\n        /* \"#utility.yul\":11703:11707   */\n      0x00\n        /* \"#utility.yul\":11741:11744   */\n      0x0100\n        /* \"#utility.yul\":11730:11739   */\n      dup3\n        /* \"#utility.yul\":11726:11745   */\n      add\n        /* \"#utility.yul\":11718:11745   */\n      swap1\n      pop\n        /* \"#utility.yul\":11755:11826   */\n      tag_287\n        /* \"#utility.yul\":11823:11824   */\n      0x00\n        /* \"#utility.yul\":11812:11821   */\n      dup4\n        /* \"#utility.yul\":11808:11825   */\n      add\n        /* \"#utility.yul\":11799:11805   */\n      dup6\n        /* \"#utility.yul\":11755:11826   */\n      tag_149\n      jump\t// in\n    tag_287:\n        /* \"#utility.yul\":11836:11964   */\n      tag_288\n        /* \"#utility.yul\":11960:11962   */\n      0x20\n        /* \"#utility.yul\":11949:11958   */\n      dup4\n        /* \"#utility.yul\":11945:11963   */\n      add\n        /* \"#utility.yul\":11936:11942   */\n      dup5\n        /* \"#utility.yul\":11836:11964   */\n      tag_158\n      jump\t// in\n    tag_288:\n        /* \"#utility.yul\":11526:11971   */\n      swap4\n      swap3\n      pop\n      pop\n      pop\n      jump\t// out\n        /* \"#utility.yul\":11977:12120   */\n    tag_164:\n        /* \"#utility.yul\":12034:12039   */\n      0x00\n        /* \"#utility.yul\":12065:12071   */\n      dup2\n        /* \"#utility.yul\":12059:12072   */\n      mload\n        /* \"#utility.yul\":12050:12072   */\n      swap1\n      pop\n        /* \"#utility.yul\":12081:12114   */\n      tag_290\n        /* \"#utility.yul\":12108:12113   */\n      dup2\n        /* \"#utility.yul\":12081:12114   */\n      tag_137\n      jump\t// in\n    tag_290:\n        /* \"#utility.yul\":11977:12120   */\n      swap3\n      swap2\n      pop\n      pop\n      jump\t// out\n        /* \"#utility.yul\":12126:12477   */\n    tag_83:\n        /* \"#utility.yul\":12196:12202   */\n      0x00\n        /* \"#utility.yul\":12245:12247   */\n      0x20\n        /* \"#utility.yul\":12233:12242   */\n      dup3\n        /* \"#utility.yul\":12224:12231   */\n      dup5\n        /* \"#utility.yul\":12220:12243   */\n      sub\n        /* \"#utility.yul\":12216:12248   */\n      slt\n        /* \"#utility.yul\":12213:12332   */\n      iszero\n      tag_292\n      jumpi\n        /* \"#utility.yul\":12251:12330   */\n      tag_293\n      tag_133\n      jump\t// in\n    tag_293:\n        /* \"#utility.yul\":12213:12332   */\n    tag_292:\n        /* \"#utility.yul\":12371:12372   */\n      0x00\n        /* \"#utility.yul\":12396:12460   */\n      tag_294\n        /* \"#utility.yul\":12452:12459   */\n      dup5\n        /* \"#utility.yul\":12443:12449   */\n      dup3\n        /* \"#utility.yul\":12432:12441   */\n      dup6\n        /* \"#utility.yul\":12428:12450   */\n      add\n        /* \"#utility.yul\":12396:12460   */\n      tag_164\n      jump\t// in\n    tag_294:\n        /* \"#utility.yul\":12386:12460   */\n      swap2\n      pop\n        /* \"#utility.yul\":12342:12470   */\n      pop\n        /* \"#utility.yul\":12126:12477   */\n      swap3\n      swap2\n      pop\n      pop\n      jump\t// out\n        /* \"#utility.yul\":12483:12815   */\n    tag_86:\n        /* \"#utility.yul\":12604:12608   */\n      0x00\n        /* \"#utility.yul\":12642:12644   */\n      0x40\n        /* \"#utility.yul\":12631:12640   */\n      dup3\n        /* \"#utility.yul\":12627:12645   */\n      add\n        /* \"#utility.yul\":12619:12645   */\n      swap1\n      pop\n        /* \"#utility.yul\":12655:12726   */\n      tag_296\n        /* \"#utility.yul\":12723:12724   */\n      0x00\n        /* \"#utility.yul\":12712:12721   */\n      dup4\n        /* \"#utility.yul\":12708:12725   */\n      add\n        /* \"#utility.yul\":12699:12705   */\n      dup6\n        /* \"#utility.yul\":12655:12726   */\n      tag_149\n      jump\t// in\n    tag_296:\n        /* \"#utility.yul\":12736:12808   */\n      tag_297\n        /* \"#utility.yul\":12804:12806   */\n      0x20\n        /* \"#utility.yul\":12793:12802   */\n      dup4\n        /* \"#utility.yul\":12789:12807   */\n      add\n        /* \"#utility.yul\":12780:12786   */\n      dup5\n        /* \"#utility.yul\":12736:12808   */\n      tag_149\n      jump\t// in\n    tag_297:\n        /* \"#utility.yul\":12483:12815   */\n      swap4\n      swap3\n      pop\n      pop\n      pop\n      jump\t// out\n        /* \"#utility.yul\":12821:12937   */\n    tag_165:\n        /* \"#utility.yul\":12891:12912   */\n      tag_299\n        /* \"#utility.yul\":12906:12911   */\n      dup2\n        /* \"#utility.yul\":12891:12912   */\n      tag_150\n      jump\t// in\n    tag_299:\n        /* \"#utility.yul\":12884:12889   */\n      dup2\n        /* \"#utility.yul\":12881:12913   */\n      eq\n        /* \"#utility.yul\":12871:12931   */\n      tag_300\n      jumpi\n        /* \"#utility.yul\":12927:12928   */\n      0x00\n        /* \"#utility.yul\":12924:12925   */\n      dup1\n        /* \"#utility.yul\":12917:12929   */\n      revert\n        /* \"#utility.yul\":12871:12931   */\n    tag_300:\n        /* \"#utility.yul\":12821:12937   */\n      pop\n      jump\t// out\n        /* \"#utility.yul\":12943:13080   */\n    tag_166:\n        /* \"#utility.yul\":12997:13002   */\n      0x00\n        /* \"#utility.yul\":13028:13034   */\n      dup2\n        /* \"#utility.yul\":13022:13035   */\n      mload\n        /* \"#utility.yul\":13013:13035   */\n      swap1\n      pop\n        /* \"#utility.yul\":13044:13074   */\n      tag_302\n        /* \"#utility.yul\":13068:13073   */\n      dup2\n        /* \"#utility.yul\":13044:13074   */\n      tag_165\n      jump\t// in\n    tag_302:\n        /* \"#utility.yul\":12943:13080   */\n      swap3\n      swap2\n      pop\n      pop\n      jump\t// out\n        /* \"#utility.yul\":13086:13431   */\n    tag_90:\n        /* \"#utility.yul\":13153:13159   */\n      0x00\n        /* \"#utility.yul\":13202:13204   */\n      0x20\n        /* \"#utility.yul\":13190:13199   */\n      dup3\n        /* \"#utility.yul\":13181:13188   */\n      dup5\n        /* \"#utility.yul\":13177:13200   */\n      sub\n        /* \"#utility.yul\":13173:13205   */\n      slt\n        /* \"#utility.yul\":13170:13289   */\n      iszero\n      tag_304\n      jumpi\n        /* \"#utility.yul\":13208:13287   */\n      tag_305\n      tag_133\n      jump\t// in\n    tag_305:\n        /* \"#utility.yul\":13170:13289   */\n    tag_304:\n        /* \"#utility.yul\":13328:13329   */\n      0x00\n        /* \"#utility.yul\":13353:13414   */\n      tag_306\n        /* \"#utility.yul\":13406:13413   */\n      dup5\n        /* \"#utility.yul\":13397:13403   */\n      dup3\n        /* \"#utility.yul\":13386:13395   */\n      dup6\n        /* \"#utility.yul\":13382:13404   */\n      add\n        /* \"#utility.yul\":13353:13414   */\n      tag_166\n      jump\t// in\n    tag_306:\n        /* \"#utility.yul\":13343:13414   */\n      swap2\n      pop\n        /* \"#utility.yul\":13299:13424   */\n      pop\n        /* \"#utility.yul\":13086:13431   */\n      swap3\n      swap2\n      pop\n      pop\n      jump\t// out\n        /* \"#utility.yul\":13437:13619   */\n    tag_167:\n        /* \"#utility.yul\":13577:13611   */\n      0x56616c756573206d7573742062652067726561746572207468616e207a65726f\n        /* \"#utility.yul\":13573:13574   */\n      0x00\n        /* \"#utility.yul\":13565:13571   */\n      dup3\n        /* \"#utility.yul\":13561:13575   */\n      add\n        /* \"#utility.yul\":13554:13612   */\n      mstore\n        /* \"#utility.yul\":13437:13619   */\n      pop\n      jump\t// out\n        /* \"#utility.yul\":13625:13991   */\n    tag_168:\n        /* \"#utility.yul\":13767:13770   */\n      0x00\n        /* \"#utility.yul\":13788:13855   */\n      tag_309\n        /* \"#utility.yul\":13852:13854   */\n      0x20\n        /* \"#utility.yul\":13847:13850   */\n      dup4\n        /* \"#utility.yul\":13788:13855   */\n      tag_161\n      jump\t// in\n    tag_309:\n        /* \"#utility.yul\":13781:13855   */\n      swap2\n      pop\n        /* \"#utility.yul\":13864:13957   */\n      tag_310\n        /* \"#utility.yul\":13953:13956   */\n      dup3\n        /* \"#utility.yul\":13864:13957   */\n      tag_167\n      jump\t// in\n    tag_310:\n        /* \"#utility.yul\":13982:13984   */\n      0x20\n        /* \"#utility.yul\":13977:13980   */\n      dup3\n        /* \"#utility.yul\":13973:13985   */\n      add\n        /* \"#utility.yul\":13966:13985   */\n      swap1\n      pop\n        /* \"#utility.yul\":13625:13991   */\n      swap2\n      swap1\n      pop\n      jump\t// out\n        /* \"#utility.yul\":13997:14416   */\n    tag_97:\n        /* \"#utility.yul\":14163:14167   */\n      0x00\n        /* \"#utility.yul\":14201:14203   */\n      0x20\n        /* \"#utility.yul\":14190:14199   */\n      dup3\n        /* \"#utility.yul\":14186:14204   */\n      add\n        /* \"#utility.yul\":14178:14204   */\n      swap1\n      pop\n        /* \"#utility.yul\":14250:14259   */\n      dup2\n        /* \"#utility.yul\":14244:14248   */\n      dup2\n        /* \"#utility.yul\":14240:14260   */\n      sub\n        /* \"#utility.yul\":14236:14237   */\n      0x00\n        /* \"#utility.yul\":14225:14234   */\n      dup4\n        /* \"#utility.yul\":14221:14238   */\n      add\n        /* \"#utility.yul\":14214:14261   */\n      mstore\n        /* \"#utility.yul\":14278:14409   */\n      tag_312\n        /* \"#utility.yul\":14404:14408   */\n      dup2\n        /* \"#utility.yul\":14278:14409   */\n      tag_168\n      jump\t// in\n    tag_312:\n        /* \"#utility.yul\":14270:14409   */\n      swap1\n      pop\n        /* \"#utility.yul\":13997:14416   */\n      swap2\n      swap1\n      pop\n      jump\t// out\n        /* \"#utility.yul\":14422:14604   */\n    tag_169:\n        /* \"#utility.yul\":14562:14596   */\n      0x596f7520617265206e6f7420686f6c646572206f66207468697320746f6b656e\n        /* \"#utility.yul\":14558:14559   */\n      0x00\n        /* \"#utility.yul\":14550:14556   */\n      dup3\n        /* \"#utility.yul\":14546:14560   */\n      add\n        /* \"#utility.yul\":14539:14597   */\n      mstore\n        /* \"#utility.yul\":14422:14604   */\n      pop\n      jump\t// out\n        /* \"#utility.yul\":14610:14976   */\n    tag_170:\n        /* \"#utility.yul\":14752:14755   */\n      0x00\n        /* \"#utility.yul\":14773:14840   */\n      tag_315\n        /* \"#utility.yul\":14837:14839   */\n      0x20\n        /* \"#utility.yul\":14832:14835   */\n      dup4\n        /* \"#utility.yul\":14773:14840   */\n      tag_161\n      jump\t// in\n    tag_315:\n        /* \"#utility.yul\":14766:14840   */\n      swap2\n      pop\n        /* \"#utility.yul\":14849:14942   */\n      tag_316\n        /* \"#utility.yul\":14938:14941   */\n      dup3\n        /* \"#utility.yul\":14849:14942   */\n      tag_169\n      jump\t// in\n    tag_316:\n        /* \"#utility.yul\":14967:14969   */\n      0x20\n        /* \"#utility.yul\":14962:14965   */\n      dup3\n        /* \"#utility.yul\":14958:14970   */\n      add\n        /* \"#utility.yul\":14951:14970   */\n      swap1\n      pop\n        /* \"#utility.yul\":14610:14976   */\n      swap2\n      swap1\n      pop\n      jump\t// out\n        /* \"#utility.yul\":14982:15401   */\n    tag_104:\n        /* \"#utility.yul\":15148:15152   */\n      0x00\n        /* \"#utility.yul\":15186:15188   */\n      0x20\n        /* \"#utility.yul\":15175:15184   */\n      dup3\n        /* \"#utility.yul\":15171:15189   */\n      add\n        /* \"#utility.yul\":15163:15189   */\n      swap1\n      pop\n        /* \"#utility.yul\":15235:15244   */\n      dup2\n        /* \"#utility.yul\":15229:15233   */\n      dup2\n        /* \"#utility.yul\":15225:15245   */\n      sub\n        /* \"#utility.yul\":15221:15222   */\n      0x00\n        /* \"#utility.yul\":15210:15219   */\n      dup4\n        /* \"#utility.yul\":15206:15223   */\n      add\n        /* \"#utility.yul\":15199:15246   */\n      mstore\n        /* \"#utility.yul\":15263:15394   */\n      tag_318\n        /* \"#utility.yul\":15389:15393   */\n      dup2\n        /* \"#utility.yul\":15263:15394   */\n      tag_170\n      jump\t// in\n    tag_318:\n        /* \"#utility.yul\":15255:15394   */\n      swap1\n      pop\n        /* \"#utility.yul\":14982:15401   */\n      swap2\n      swap1\n      pop\n      jump\t// out\n        /* \"#utility.yul\":15407:15849   */\n    tag_107:\n        /* \"#utility.yul\":15556:15560   */\n      0x00\n        /* \"#utility.yul\":15594:15596   */\n      0x60\n        /* \"#utility.yul\":15583:15592   */\n      dup3\n        /* \"#utility.yul\":15579:15597   */\n      add\n        /* \"#utility.yul\":15571:15597   */\n      swap1\n      pop\n        /* \"#utility.yul\":15607:15678   */\n      tag_320\n        /* \"#utility.yul\":15675:15676   */\n      0x00\n        /* \"#utility.yul\":15664:15673   */\n      dup4\n        /* \"#utility.yul\":15660:15677   */\n      add\n        /* \"#utility.yul\":15651:15657   */\n      dup7\n        /* \"#utility.yul\":15607:15678   */\n      tag_149\n      jump\t// in\n    tag_320:\n        /* \"#utility.yul\":15688:15760   */\n      tag_321\n        /* \"#utility.yul\":15756:15758   */\n      0x20\n        /* \"#utility.yul\":15745:15754   */\n      dup4\n        /* \"#utility.yul\":15741:15759   */\n      add\n        /* \"#utility.yul\":15732:15738   */\n      dup6\n        /* \"#utility.yul\":15688:15760   */\n      tag_149\n      jump\t// in\n    tag_321:\n        /* \"#utility.yul\":15770:15842   */\n      tag_322\n        /* \"#utility.yul\":15838:15840   */\n      0x40\n        /* \"#utility.yul\":15827:15836   */\n      dup4\n        /* \"#utility.yul\":15823:15841   */\n      add\n        /* \"#utility.yul\":15814:15820   */\n      dup5\n        /* \"#utility.yul\":15770:15842   */\n      tag_152\n      jump\t// in\n    tag_322:\n        /* \"#utility.yul\":15407:15849   */\n      swap5\n      swap4\n      pop\n      pop\n      pop\n      pop\n      jump\t// out\n        /* \"#utility.yul\":15855:16035   */\n    tag_171:\n        /* \"#utility.yul\":15903:15980   */\n      0x4e487b7100000000000000000000000000000000000000000000000000000000\n        /* \"#utility.yul\":15900:15901   */\n      0x00\n        /* \"#utility.yul\":15893:15981   */\n      mstore\n        /* \"#utility.yul\":16000:16004   */\n      0x11\n        /* \"#utility.yul\":15997:15998   */\n      0x04\n        /* \"#utility.yul\":15990:16005   */\n      mstore\n        /* \"#utility.yul\":16024:16028   */\n      0x24\n        /* \"#utility.yul\":16021:16022   */\n      0x00\n        /* \"#utility.yul\":16014:16029   */\n      revert\n        /* \"#utility.yul\":16041:16274   */\n    tag_113:\n        /* \"#utility.yul\":16080:16083   */\n      0x00\n        /* \"#utility.yul\":16103:16127   */\n      tag_325\n        /* \"#utility.yul\":16121:16126   */\n      dup3\n        /* \"#utility.yul\":16103:16127   */\n      tag_142\n      jump\t// in\n    tag_325:\n        /* \"#utility.yul\":16094:16127   */\n      swap2\n      pop\n        /* \"#utility.yul\":16149:16215   */\n      0xffffffffffffffffffffffffffffffffffffffffffffffffffffffffffffffff\n        /* \"#utility.yul\":16142:16147   */\n      dup3\n        /* \"#utility.yul\":16139:16216   */\n      sub\n        /* \"#utility.yul\":16136:16239   */\n      tag_326\n      jumpi\n        /* \"#utility.yul\":16219:16237   */\n      tag_327\n      tag_171\n      jump\t// in\n    tag_327:\n        /* \"#utility.yul\":16136:16239   */\n    tag_326:\n        /* \"#utility.yul\":16266:16267   */\n      0x01\n        /* \"#utility.yul\":16259:16264   */\n      dup3\n        /* \"#utility.yul\":16255:16268   */\n      add\n        /* \"#utility.yul\":16248:16268   */\n      swap1\n      pop\n        /* \"#utility.yul\":16041:16274   */\n      swap2\n      swap1\n      pop\n      jump\t// out\n        /* \"#utility.yul\":16280:16690   */\n    tag_122:\n        /* \"#utility.yul\":16320:16327   */\n      0x00\n        /* \"#utility.yul\":16343:16363   */\n      tag_329\n        /* \"#utility.yul\":16361:16362   */\n      dup3\n        /* \"#utility.yul\":16343:16363   */\n      tag_142\n      jump\t// in\n    tag_329:\n        /* \"#utility.yul\":16338:16363   */\n      swap2\n      pop\n        /* \"#utility.yul\":16377:16397   */\n      tag_330\n        /* \"#utility.yul\":16395:16396   */\n      dup4\n        /* \"#utility.yul\":16377:16397   */\n      tag_142\n      jump\t// in\n    tag_330:\n        /* \"#utility.yul\":16372:16397   */\n      swap3\n      pop\n        /* \"#utility.yul\":16432:16433   */\n      dup3\n        /* \"#utility.yul\":16429:16430   */\n      dup3\n        /* \"#utility.yul\":16425:16434   */\n      mul\n        /* \"#utility.yul\":16454:16484   */\n      tag_331\n        /* \"#utility.yul\":16472:16483   */\n      dup2\n        /* \"#utility.yul\":16454:16484   */\n      tag_142\n      jump\t// in\n    tag_331:\n        /* \"#utility.yul\":16443:16484   */\n      swap2\n      pop\n        /* \"#utility.yul\":16633:16634   */\n      dup3\n        /* \"#utility.yul\":16624:16631   */\n      dup3\n        /* \"#utility.yul\":16620:16635   */\n      div\n        /* \"#utility.yul\":16617:16618   */\n      dup5\n        /* \"#utility.yul\":16614:16636   */\n      eq\n        /* \"#utility.yul\":16594:16595   */\n      dup4\n        /* \"#utility.yul\":16587:16596   */\n      iszero\n        /* \"#utility.yul\":16567:16650   */\n      or\n        /* \"#utility.yul\":16544:16683   */\n      tag_332\n      jumpi\n        /* \"#utility.yul\":16663:16681   */\n      tag_333\n      tag_171\n      jump\t// in\n    tag_333:\n        /* \"#utility.yul\":16544:16683   */\n    tag_332:\n        /* \"#utility.yul\":16328:16690   */\n      pop\n        /* \"#utility.yul\":16280:16690   */\n      swap3\n      swap2\n      pop\n      pop\n      jump\t// out\n        /* \"#utility.yul\":16696:16887   */\n    tag_124:\n        /* \"#utility.yul\":16736:16739   */\n      0x00\n        /* \"#utility.yul\":16755:16775   */\n      tag_335\n        /* \"#utility.yul\":16773:16774   */\n      dup3\n        /* \"#utility.yul\":16755:16775   */\n      tag_142\n      jump\t// in\n    tag_335:\n        /* \"#utility.yul\":16750:16775   */\n      swap2\n      pop\n        /* \"#utility.yul\":16789:16809   */\n      tag_336\n        /* \"#utility.yul\":16807:16808   */\n      dup4\n        /* \"#utility.yul\":16789:16809   */\n      tag_142\n      jump\t// in\n    tag_336:\n        /* \"#utility.yul\":16784:16809   */\n      swap3\n      pop\n        /* \"#utility.yul\":16832:16833   */\n      dup3\n        /* \"#utility.yul\":16829:16830   */\n      dup3\n        /* \"#utility.yul\":16825:16834   */\n      add\n        /* \"#utility.yul\":16818:16834   */\n      swap1\n      pop\n        /* \"#utility.yul\":16853:16856   */\n      dup1\n        /* \"#utility.yul\":16850:16851   */\n      dup3\n        /* \"#utility.yul\":16847:16857   */\n      gt\n        /* \"#utility.yul\":16844:16880   */\n      iszero\n      tag_337\n      jumpi\n        /* \"#utility.yul\":16860:16878   */\n      tag_338\n      tag_171\n      jump\t// in\n    tag_338:\n        /* \"#utility.yul\":16844:16880   */\n    tag_337:\n        /* \"#utility.yul\":16696:16887   */\n      swap3\n      swap2\n      pop\n      pop\n      jump\t// out\n        /* \"#utility.yul\":16893:17087   */\n    tag_126:\n        /* \"#utility.yul\":16933:16937   */\n      0x00\n        /* \"#utility.yul\":16953:16973   */\n      tag_340\n        /* \"#utility.yul\":16971:16972   */\n      dup3\n        /* \"#utility.yul\":16953:16973   */\n      tag_142\n      jump\t// in\n    tag_340:\n        /* \"#utility.yul\":16948:16973   */\n      swap2\n      pop\n        /* \"#utility.yul\":16987:17007   */\n      tag_341\n        /* \"#utility.yul\":17005:17006   */\n      dup4\n        /* \"#utility.yul\":16987:17007   */\n      tag_142\n      jump\t// in\n    tag_341:\n        /* \"#utility.yul\":16982:17007   */\n      swap3\n      pop\n        /* \"#utility.yul\":17031:17032   */\n      dup3\n        /* \"#utility.yul\":17028:17029   */\n      dup3\n        /* \"#utility.yul\":17024:17033   */\n      sub\n        /* \"#utility.yul\":17016:17033   */\n      swap1\n      pop\n        /* \"#utility.yul\":17055:17056   */\n      dup2\n        /* \"#utility.yul\":17049:17053   */\n      dup2\n        /* \"#utility.yul\":17046:17057   */\n      gt\n        /* \"#utility.yul\":17043:17080   */\n      iszero\n      tag_342\n      jumpi\n        /* \"#utility.yul\":17060:17078   */\n      tag_343\n      tag_171\n      jump\t// in\n    tag_343:\n        /* \"#utility.yul\":17043:17080   */\n    tag_342:\n        /* \"#utility.yul\":16893:17087   */\n      swap3\n      swap2\n      pop\n      pop\n      jump\t// out\n        /* \"#utility.yul\":17093:17273   */\n    tag_172:\n        /* \"#utility.yul\":17233:17265   */\n      0x596f7520617265206e6f7420706f73746572206f6620746865206c6973740000\n        /* \"#utility.yul\":17229:17230   */\n      0x00\n        /* \"#utility.yul\":17221:17227   */\n      dup3\n        /* \"#utility.yul\":17217:17231   */\n      add\n        /* \"#utility.yul\":17210:17266   */\n      mstore\n        /* \"#utility.yul\":17093:17273   */\n      pop\n      jump\t// out\n        /* \"#utility.yul\":17279:17645   */\n    tag_173:\n        /* \"#utility.yul\":17421:17424   */\n      0x00\n        /* \"#utility.yul\":17442:17509   */\n      tag_346\n        /* \"#utility.yul\":17506:17508   */\n      0x1e\n        /* \"#utility.yul\":17501:17504   */\n      dup4\n        /* \"#utility.yul\":17442:17509   */\n      tag_161\n      jump\t// in\n    tag_346:\n        /* \"#utility.yul\":17435:17509   */\n      swap2\n      pop\n        /* \"#utility.yul\":17518:17611   */\n      tag_347\n        /* \"#utility.yul\":17607:17610   */\n      dup3\n        /* \"#utility.yul\":17518:17611   */\n      tag_172\n      jump\t// in\n    tag_347:\n        /* \"#utility.yul\":17636:17638   */\n      0x20\n        /* \"#utility.yul\":17631:17634   */\n      dup3\n        /* \"#utility.yul\":17627:17639   */\n      add\n        /* \"#utility.yul\":17620:17639   */\n      swap1\n      pop\n        /* \"#utility.yul\":17279:17645   */\n      swap2\n      swap1\n      pop\n      jump\t// out\n        /* \"#utility.yul\":17651:18070   */\n    tag_130:\n        /* \"#utility.yul\":17817:17821   */\n      0x00\n        /* \"#utility.yul\":17855:17857   */\n      0x20\n        /* \"#utility.yul\":17844:17853   */\n      dup3\n        /* \"#utility.yul\":17840:17858   */\n      add\n        /* \"#utility.yul\":17832:17858   */\n      swap1\n      pop\n        /* \"#utility.yul\":17904:17913   */\n      dup2\n        /* \"#utility.yul\":17898:17902   */\n      dup2\n        /* \"#utility.yul\":17894:17914   */\n      sub\n        /* \"#utility.yul\":17890:17891   */\n      0x00\n        /* \"#utility.yul\":17879:17888   */\n      dup4\n        /* \"#utility.yul\":17875:17892   */\n      add\n        /* \"#utility.yul\":17868:17915   */\n      mstore\n        /* \"#utility.yul\":17932:18063   */\n      tag_349\n        /* \"#utility.yul\":18058:18062   */\n      dup2\n        /* \"#utility.yul\":17932:18063   */\n      tag_173\n      jump\t// in\n    tag_349:\n        /* \"#utility.yul\":17924:18063   */\n      swap1\n      pop\n        /* \"#utility.yul\":17651:18070   */\n      swap2\n      swap1\n      pop\n      jump\t// out\n\n    auxdata: 0xa26469706673582212207a36f4405d9936e63ab13f791b6f0a6cd1407014b768ac368b93f1cfaa74dd6064736f6c63430008170033\n}\n",
				"bytecode": {
					"linkReferences": {},
					"object": "608060405262278d00600455603c60055534801561001b575f80fd5b506114ff806100295f395ff3fe608060405234801561000f575f80fd5b50600436106100a7575f3560e01c8063880fe9411161006f578063880fe941146101735780638ada066e1461018f578063b9314135146101ad578063d9548e53146101dd578063e5a255cb1461020e578063eeabfc4a1461022a576100a7565b8063084af0b2146100ab578063172656d1146100db5780631f29d2dc146100f75780634f694690146101275780636c59bd0c14610157575b5f80fd5b6100c560048036038101906100c09190610c8a565b610260565b6040516100d29190610d75565b60405180910390f35b6100f560048036038101906100f09190610dbf565b6102f3565b005b610111600480360381019061010c9190610dea565b610425565b60405161011e9190610e37565b60405180910390f35b610141600480360381019061013c9190610c8a565b6104a6565b60405161014e9190610e6a565b60405180910390f35b610171600480360381019061016c9190610dbf565b610528565b005b61018d60048036038101906101889190610e83565b610541565b005b610197610902565b6040516101a49190610f09565b60405180910390f35b6101c760048036038101906101c29190610dbf565b61090b565b6040516101d49190610ff5565b60405180910390f35b6101f760048036038101906101f29190610dbf565b610a10565b60405161020592919061100e565b60405180910390f35b61022860048036038101906102239190610dbf565b610a69565b005b610244600480360381019061023f9190610dbf565b610b4c565b6040516102579796959493929190611053565b60405180910390f35b606060015f8373ffffffffffffffffffffffffffffffffffffffff1673ffffffffffffffffffffffffffffffffffffffff1681526020019081526020015f208054806020026020016040519081016040528092919081815260200182805480156102e757602002820191905f5260205f20905b8154815260200190600101908083116102d3575b50505050509050919050565b5f6102fd8261090b565b905080606001513373ffffffffffffffffffffffffffffffffffffffff16311161035c576040517f08c379a000000000000000000000000000000000000000000000000000000000815260040161035390611140565b60405180910390fd5b805f015173ffffffffffffffffffffffffffffffffffffffff166108fc826060015190811502906040515f60405180830381858888f193505050501580156103a6573d5f803e3d5ffd5b507f6578637574696e670000000000000000000000000000000000000000000000005f808481526020019081526020015f20600601819055506103e882610528565b7fcbe547358b7d8ceb07ae8baae08d35680e6c6c69046525b09dc9bb8f53f708fd338260405161041992919061115e565b60405180910390a15050565b5f8273ffffffffffffffffffffffffffffffffffffffff16636352211e836040518263ffffffff1660e01b815260040161045f9190610f09565b602060405180830381865afa15801561047a573d5f803e3d5ffd5b505050506040513d601f19601f8201168201806040525081019061049e919061119a565b905092915050565b5f8173ffffffffffffffffffffffffffffffffffffffff1663e985e9c533306040518363ffffffff1660e01b81526004016104e29291906111c5565b602060405180830381865afa1580156104fd573d5f803e3d5ffd5b505050506040513d601f19601f820116820180604052508101906105219190611216565b9050919050565b4260025f8381526020019081526020015f208190555050565b5f8311801561054f57505f82115b801561055a57505f81115b610599576040517f08c379a00000000000000000000000000000000000000000000000000000000081526004016105909061128b565b60405180910390fd5b3373ffffffffffffffffffffffffffffffffffffffff168573ffffffffffffffffffffffffffffffffffffffff16636352211e866040518263ffffffff1660e01b81526004016105e99190610f09565b602060405180830381865afa158015610604573d5f803e3d5ffd5b505050506040513d601f19601f82011682018060405250810190610628919061119a565b73ffffffffffffffffffffffffffffffffffffffff161461067e576040517f08c379a0000000000000000000000000000000000000000000000000000000008152600401610675906112f3565b60405180910390fd5b5f6040518060e001604052803373ffffffffffffffffffffffffffffffffffffffff1681526020018773ffffffffffffffffffffffffffffffffffffffff1681526020018681526020018581526020018481526020018381526020017f6f70656e000000000000000000000000000000000000000000000000000000008152509050805f8060035481526020019081526020015f205f820151815f015f6101000a81548173ffffffffffffffffffffffffffffffffffffffff021916908373ffffffffffffffffffffffffffffffffffffffff1602179055506020820151816001015f6101000a81548173ffffffffffffffffffffffffffffffffffffffff021916908373ffffffffffffffffffffffffffffffffffffffff16021790555060408201518160020155606082015181600301556080820151816004015560a0820151816005015560c0820151816006015590505060015f3373ffffffffffffffffffffffffffffffffffffffff1673ffffffffffffffffffffffffffffffffffffffff1681526020019081526020015f20600354908060018154018082558091505060019003905f5260205f20015f90919091909150558573ffffffffffffffffffffffffffffffffffffffff166323b872dd3330886040518463ffffffff1660e01b815260040161087293929190611311565b5f604051808303815f87803b158015610889575f80fd5b505af115801561089b573d5f803e3d5ffd5b505050506108aa600354610528565b60035f8154809291906108bc90611373565b91905055507ff767ad1ae2d5476327f80bef89fbc70354c993e3059ed3d504d127921f60c40b33826040516108f292919061115e565b60405180910390a1505050505050565b5f600354905090565b610913610bc7565b5f808381526020019081526020015f206040518060e00160405290815f82015f9054906101000a900473ffffffffffffffffffffffffffffffffffffffff1673ffffffffffffffffffffffffffffffffffffffff1673ffffffffffffffffffffffffffffffffffffffff168152602001600182015f9054906101000a900473ffffffffffffffffffffffffffffffffffffffff1673ffffffffffffffffffffffffffffffffffffffff1673ffffffffffffffffffffffffffffffffffffffff168152602001600282015481526020016003820154815260200160048201548152602001600582015481526020016006820154815250509050919050565b5f805f600554610a1f8561090b565b60800151610a2d91906113ba565b60025f8681526020019081526020015f2054610a4991906113fb565b90505f4282610a58919061142e565b9050805f8210935093505050915091565b3373ffffffffffffffffffffffffffffffffffffffff165f808381526020019081526020015f205f015f9054906101000a900473ffffffffffffffffffffffffffffffffffffffff1673ffffffffffffffffffffffffffffffffffffffff1614610b08576040517f08c379a0000000000000000000000000000000000000000000000000000000008152600401610aff906114ab565b60405180910390fd5b7f63616e63656c00000000000000000000000000000000000000000000000000005f808381526020019081526020015f2060060181905550610b4981610528565b50565b5f602052805f5260405f205f91509050805f015f9054906101000a900473ffffffffffffffffffffffffffffffffffffffff1690806001015f9054906101000a900473ffffffffffffffffffffffffffffffffffffffff16908060020154908060030154908060040154908060050154908060060154905087565b6040518060e001604052805f73ffffffffffffffffffffffffffffffffffffffff1681526020015f73ffffffffffffffffffffffffffffffffffffffff1681526020015f81526020015f81526020015f81526020015f81526020015f80191681525090565b5f80fd5b5f73ffffffffffffffffffffffffffffffffffffffff82169050919050565b5f610c5982610c30565b9050919050565b610c6981610c4f565b8114610c73575f80fd5b50565b5f81359050610c8481610c60565b92915050565b5f60208284031215610c9f57610c9e610c2c565b5b5f610cac84828501610c76565b91505092915050565b5f81519050919050565b5f82825260208201905092915050565b5f819050602082019050919050565b5f819050919050565b610cf081610cde565b82525050565b5f610d018383610ce7565b60208301905092915050565b5f602082019050919050565b5f610d2382610cb5565b610d2d8185610cbf565b9350610d3883610ccf565b805f5b83811015610d68578151610d4f8882610cf6565b9750610d5a83610d0d565b925050600181019050610d3b565b5085935050505092915050565b5f6020820190508181035f830152610d8d8184610d19565b905092915050565b610d9e81610cde565b8114610da8575f80fd5b50565b5f81359050610db981610d95565b92915050565b5f60208284031215610dd457610dd3610c2c565b5b5f610de184828501610dab565b91505092915050565b5f8060408385031215610e0057610dff610c2c565b5b5f610e0d85828601610c76565b9250506020610e1e85828601610dab565b9150509250929050565b610e3181610c4f565b82525050565b5f602082019050610e4a5f830184610e28565b92915050565b5f8115159050919050565b610e6481610e50565b82525050565b5f602082019050610e7d5f830184610e5b565b92915050565b5f805f805f60a08688031215610e9c57610e9b610c2c565b5b5f610ea988828901610c76565b9550506020610eba88828901610dab565b9450506040610ecb88828901610dab565b9350506060610edc88828901610dab565b9250506080610eed88828901610dab565b9150509295509295909350565b610f0381610cde565b82525050565b5f602082019050610f1c5f830184610efa565b92915050565b5f610f2c82610c30565b9050919050565b610f3c81610f22565b82525050565b610f4b81610c4f565b82525050565b5f819050919050565b610f6381610f51565b82525050565b60e082015f820151610f7d5f850182610f33565b506020820151610f906020850182610f42565b506040820151610fa36040850182610ce7565b506060820151610fb66060850182610ce7565b506080820151610fc96080850182610ce7565b5060a0820151610fdc60a0850182610ce7565b5060c0820151610fef60c0850182610f5a565b50505050565b5f60e0820190506110085f830184610f69565b92915050565b5f6040820190506110215f830185610efa565b61102e6020830184610e5b565b9392505050565b61103e81610f22565b82525050565b61104d81610f51565b82525050565b5f60e0820190506110665f83018a611035565b6110736020830189610e28565b6110806040830188610efa565b61108d6060830187610efa565b61109a6080830186610efa565b6110a760a0830185610efa565b6110b460c0830184611044565b98975050505050505050565b5f82825260208201905092915050565b7f596f7520686176656e277420656e6f7567682062616c616e636520666f72206c5f8201527f656e64696e670000000000000000000000000000000000000000000000000000602082015250565b5f61112a6026836110c0565b9150611135826110d0565b604082019050919050565b5f6020820190508181035f8301526111578161111e565b9050919050565b5f610100820190506111725f830185610e28565b61117f6020830184610f69565b9392505050565b5f8151905061119481610c60565b92915050565b5f602082840312156111af576111ae610c2c565b5b5f6111bc84828501611186565b91505092915050565b5f6040820190506111d85f830185610e28565b6111e56020830184610e28565b9392505050565b6111f581610e50565b81146111ff575f80fd5b50565b5f81519050611210816111ec565b92915050565b5f6020828403121561122b5761122a610c2c565b5b5f61123884828501611202565b91505092915050565b7f56616c756573206d7573742062652067726561746572207468616e207a65726f5f82015250565b5f6112756020836110c0565b915061128082611241565b602082019050919050565b5f6020820190508181035f8301526112a281611269565b9050919050565b7f596f7520617265206e6f7420686f6c646572206f66207468697320746f6b656e5f82015250565b5f6112dd6020836110c0565b91506112e8826112a9565b602082019050919050565b5f6020820190508181035f83015261130a816112d1565b9050919050565b5f6060820190506113245f830186610e28565b6113316020830185610e28565b61133e6040830184610efa565b949350505050565b7f4e487b71000000000000000000000000000000000000000000000000000000005f52601160045260245ffd5b5f61137d82610cde565b91507fffffffffffffffffffffffffffffffffffffffffffffffffffffffffffffffff82036113af576113ae611346565b5b600182019050919050565b5f6113c482610cde565b91506113cf83610cde565b92508282026113dd81610cde565b915082820484148315176113f4576113f3611346565b5b5092915050565b5f61140582610cde565b915061141083610cde565b925082820190508082111561142857611427611346565b5b92915050565b5f61143882610cde565b915061144383610cde565b925082820390508181111561145b5761145a611346565b5b92915050565b7f596f7520617265206e6f7420706f73746572206f6620746865206c69737400005f82015250565b5f611495601e836110c0565b91506114a082611461565b602082019050919050565b5f6020820190508181035f8301526114c281611489565b905091905056fea26469706673582212207a36f4405d9936e63ab13f791b6f0a6cd1407014b768ac368b93f1cfaa74dd6064736f6c63430008170033",
					"opcodes": "PUSH1 0x80 PUSH1 0x40 MSTORE PUSH3 0x278D00 PUSH1 0x4 SSTORE PUSH1 0x3C PUSH1 0x5 SSTORE CALLVALUE DUP1 ISZERO PUSH2 0x1B JUMPI PUSH0 DUP1 REVERT JUMPDEST POP PUSH2 0x14FF DUP1 PUSH2 0x29 PUSH0 CODECOPY PUSH0 RETURN INVALID PUSH1 0x80 PUSH1 0x40 MSTORE CALLVALUE DUP1 ISZERO PUSH2 0xF JUMPI PUSH0 DUP1 REVERT JUMPDEST POP PUSH1 0x4 CALLDATASIZE LT PUSH2 0xA7 JUMPI PUSH0 CALLDATALOAD PUSH1 0xE0 SHR DUP1 PUSH4 0x880FE941 GT PUSH2 0x6F JUMPI DUP1 PUSH4 0x880FE941 EQ PUSH2 0x173 JUMPI DUP1 PUSH4 0x8ADA066E EQ PUSH2 0x18F JUMPI DUP1 PUSH4 0xB9314135 EQ PUSH2 0x1AD JUMPI DUP1 PUSH4 0xD9548E53 EQ PUSH2 0x1DD JUMPI DUP1 PUSH4 0xE5A255CB EQ PUSH2 0x20E JUMPI DUP1 PUSH4 0xEEABFC4A EQ PUSH2 0x22A JUMPI PUSH2 0xA7 JUMP JUMPDEST DUP1 PUSH4 0x84AF0B2 EQ PUSH2 0xAB JUMPI DUP1 PUSH4 0x172656D1 EQ PUSH2 0xDB JUMPI DUP1 PUSH4 0x1F29D2DC EQ PUSH2 0xF7 JUMPI DUP1 PUSH4 0x4F694690 EQ PUSH2 0x127 JUMPI DUP1 PUSH4 0x6C59BD0C EQ PUSH2 0x157 JUMPI JUMPDEST PUSH0 DUP1 REVERT JUMPDEST PUSH2 0xC5 PUSH1 0x4 DUP1 CALLDATASIZE SUB DUP2 ADD SWAP1 PUSH2 0xC0 SWAP2 SWAP1 PUSH2 0xC8A JUMP JUMPDEST PUSH2 0x260 JUMP JUMPDEST PUSH1 0x40 MLOAD PUSH2 0xD2 SWAP2 SWAP1 PUSH2 0xD75 JUMP JUMPDEST PUSH1 0x40 MLOAD DUP1 SWAP2 SUB SWAP1 RETURN JUMPDEST PUSH2 0xF5 PUSH1 0x4 DUP1 CALLDATASIZE SUB DUP2 ADD SWAP1 PUSH2 0xF0 SWAP2 SWAP1 PUSH2 0xDBF JUMP JUMPDEST PUSH2 0x2F3 JUMP JUMPDEST STOP JUMPDEST PUSH2 0x111 PUSH1 0x4 DUP1 CALLDATASIZE SUB DUP2 ADD SWAP1 PUSH2 0x10C SWAP2 SWAP1 PUSH2 0xDEA JUMP JUMPDEST PUSH2 0x425 JUMP JUMPDEST PUSH1 0x40 MLOAD PUSH2 0x11E SWAP2 SWAP1 PUSH2 0xE37 JUMP JUMPDEST PUSH1 0x40 MLOAD DUP1 SWAP2 SUB SWAP1 RETURN JUMPDEST PUSH2 0x141 PUSH1 0x4 DUP1 CALLDATASIZE SUB DUP2 ADD SWAP1 PUSH2 0x13C SWAP2 SWAP1 PUSH2 0xC8A JUMP JUMPDEST PUSH2 0x4A6 JUMP JUMPDEST PUSH1 0x40 MLOAD PUSH2 0x14E SWAP2 SWAP1 PUSH2 0xE6A JUMP JUMPDEST PUSH1 0x40 MLOAD DUP1 SWAP2 SUB SWAP1 RETURN JUMPDEST PUSH2 0x171 PUSH1 0x4 DUP1 CALLDATASIZE SUB DUP2 ADD SWAP1 PUSH2 0x16C SWAP2 SWAP1 PUSH2 0xDBF JUMP JUMPDEST PUSH2 0x528 JUMP JUMPDEST STOP JUMPDEST PUSH2 0x18D PUSH1 0x4 DUP1 CALLDATASIZE SUB DUP2 ADD SWAP1 PUSH2 0x188 SWAP2 SWAP1 PUSH2 0xE83 JUMP JUMPDEST PUSH2 0x541 JUMP JUMPDEST STOP JUMPDEST PUSH2 0x197 PUSH2 0x902 JUMP JUMPDEST PUSH1 0x40 MLOAD PUSH2 0x1A4 SWAP2 SWAP1 PUSH2 0xF09 JUMP JUMPDEST PUSH1 0x40 MLOAD DUP1 SWAP2 SUB SWAP1 RETURN JUMPDEST PUSH2 0x1C7 PUSH1 0x4 DUP1 CALLDATASIZE SUB DUP2 ADD SWAP1 PUSH2 0x1C2 SWAP2 SWAP1 PUSH2 0xDBF JUMP JUMPDEST PUSH2 0x90B JUMP JUMPDEST PUSH1 0x40 MLOAD PUSH2 0x1D4 SWAP2 SWAP1 PUSH2 0xFF5 JUMP JUMPDEST PUSH1 0x40 MLOAD DUP1 SWAP2 SUB SWAP1 RETURN JUMPDEST PUSH2 0x1F7 PUSH1 0x4 DUP1 CALLDATASIZE SUB DUP2 ADD SWAP1 PUSH2 0x1F2 SWAP2 SWAP1 PUSH2 0xDBF JUMP JUMPDEST PUSH2 0xA10 JUMP JUMPDEST PUSH1 0x40 MLOAD PUSH2 0x205 SWAP3 SWAP2 SWAP1 PUSH2 0x100E JUMP JUMPDEST PUSH1 0x40 MLOAD DUP1 SWAP2 SUB SWAP1 RETURN JUMPDEST PUSH2 0x228 PUSH1 0x4 DUP1 CALLDATASIZE SUB DUP2 ADD SWAP1 PUSH2 0x223 SWAP2 SWAP1 PUSH2 0xDBF JUMP JUMPDEST PUSH2 0xA69 JUMP JUMPDEST STOP JUMPDEST PUSH2 0x244 PUSH1 0x4 DUP1 CALLDATASIZE SUB DUP2 ADD SWAP1 PUSH2 0x23F SWAP2 SWAP1 PUSH2 0xDBF JUMP JUMPDEST PUSH2 0xB4C JUMP JUMPDEST PUSH1 0x40 MLOAD PUSH2 0x257 SWAP8 SWAP7 SWAP6 SWAP5 SWAP4 SWAP3 SWAP2 SWAP1 PUSH2 0x1053 JUMP JUMPDEST PUSH1 0x40 MLOAD DUP1 SWAP2 SUB SWAP1 RETURN JUMPDEST PUSH1 0x60 PUSH1 0x1 PUSH0 DUP4 PUSH20 0xFFFFFFFFFFFFFFFFFFFFFFFFFFFFFFFFFFFFFFFF AND PUSH20 0xFFFFFFFFFFFFFFFFFFFFFFFFFFFFFFFFFFFFFFFF AND DUP2 MSTORE PUSH1 0x20 ADD SWAP1 DUP2 MSTORE PUSH1 0x20 ADD PUSH0 KECCAK256 DUP1 SLOAD DUP1 PUSH1 0x20 MUL PUSH1 0x20 ADD PUSH1 0x40 MLOAD SWAP1 DUP2 ADD PUSH1 0x40 MSTORE DUP1 SWAP3 SWAP2 SWAP1 DUP2 DUP2 MSTORE PUSH1 0x20 ADD DUP3 DUP1 SLOAD DUP1 ISZERO PUSH2 0x2E7 JUMPI PUSH1 0x20 MUL DUP3 ADD SWAP2 SWAP1 PUSH0 MSTORE PUSH1 0x20 PUSH0 KECCAK256 SWAP1 JUMPDEST DUP2 SLOAD DUP2 MSTORE PUSH1 0x20 ADD SWAP1 PUSH1 0x1 ADD SWAP1 DUP1 DUP4 GT PUSH2 0x2D3 JUMPI JUMPDEST POP POP POP POP POP SWAP1 POP SWAP2 SWAP1 POP JUMP JUMPDEST PUSH0 PUSH2 0x2FD DUP3 PUSH2 0x90B JUMP JUMPDEST SWAP1 POP DUP1 PUSH1 0x60 ADD MLOAD CALLER PUSH20 0xFFFFFFFFFFFFFFFFFFFFFFFFFFFFFFFFFFFFFFFF AND BALANCE GT PUSH2 0x35C JUMPI PUSH1 0x40 MLOAD PUSH32 0x8C379A000000000000000000000000000000000000000000000000000000000 DUP2 MSTORE PUSH1 0x4 ADD PUSH2 0x353 SWAP1 PUSH2 0x1140 JUMP JUMPDEST PUSH1 0x40 MLOAD DUP1 SWAP2 SUB SWAP1 REVERT JUMPDEST DUP1 PUSH0 ADD MLOAD PUSH20 0xFFFFFFFFFFFFFFFFFFFFFFFFFFFFFFFFFFFFFFFF AND PUSH2 0x8FC DUP3 PUSH1 0x60 ADD MLOAD SWAP1 DUP2 ISZERO MUL SWAP1 PUSH1 0x40 MLOAD PUSH0 PUSH1 0x40 MLOAD DUP1 DUP4 SUB DUP2 DUP6 DUP9 DUP9 CALL SWAP4 POP POP POP POP ISZERO DUP1 ISZERO PUSH2 0x3A6 JUMPI RETURNDATASIZE PUSH0 DUP1 RETURNDATACOPY RETURNDATASIZE PUSH0 REVERT JUMPDEST POP PUSH32 0x6578637574696E67000000000000000000000000000000000000000000000000 PUSH0 DUP1 DUP5 DUP2 MSTORE PUSH1 0x20 ADD SWAP1 DUP2 MSTORE PUSH1 0x20 ADD PUSH0 KECCAK256 PUSH1 0x6 ADD DUP2 SWAP1 SSTORE POP PUSH2 0x3E8 DUP3 PUSH2 0x528 JUMP JUMPDEST PUSH32 0xCBE547358B7D8CEB07AE8BAAE08D35680E6C6C69046525B09DC9BB8F53F708FD CALLER DUP3 PUSH1 0x40 MLOAD PUSH2 0x419 SWAP3 SWAP2 SWAP1 PUSH2 0x115E JUMP JUMPDEST PUSH1 0x40 MLOAD DUP1 SWAP2 SUB SWAP1 LOG1 POP POP JUMP JUMPDEST PUSH0 DUP3 PUSH20 0xFFFFFFFFFFFFFFFFFFFFFFFFFFFFFFFFFFFFFFFF AND PUSH4 0x6352211E DUP4 PUSH1 0x40 MLOAD DUP3 PUSH4 0xFFFFFFFF AND PUSH1 0xE0 SHL DUP2 MSTORE PUSH1 0x4 ADD PUSH2 0x45F SWAP2 SWAP1 PUSH2 0xF09 JUMP JUMPDEST PUSH1 0x20 PUSH1 0x40 MLOAD DUP1 DUP4 SUB DUP2 DUP7 GAS STATICCALL ISZERO DUP1 ISZERO PUSH2 0x47A JUMPI RETURNDATASIZE PUSH0 DUP1 RETURNDATACOPY RETURNDATASIZE PUSH0 REVERT JUMPDEST POP POP POP POP PUSH1 0x40 MLOAD RETURNDATASIZE PUSH1 0x1F NOT PUSH1 0x1F DUP3 ADD AND DUP3 ADD DUP1 PUSH1 0x40 MSTORE POP DUP2 ADD SWAP1 PUSH2 0x49E SWAP2 SWAP1 PUSH2 0x119A JUMP JUMPDEST SWAP1 POP SWAP3 SWAP2 POP POP JUMP JUMPDEST PUSH0 DUP2 PUSH20 0xFFFFFFFFFFFFFFFFFFFFFFFFFFFFFFFFFFFFFFFF AND PUSH4 0xE985E9C5 CALLER ADDRESS PUSH1 0x40 MLOAD DUP4 PUSH4 0xFFFFFFFF AND PUSH1 0xE0 SHL DUP2 MSTORE PUSH1 0x4 ADD PUSH2 0x4E2 SWAP3 SWAP2 SWAP1 PUSH2 0x11C5 JUMP JUMPDEST PUSH1 0x20 PUSH1 0x40 MLOAD DUP1 DUP4 SUB DUP2 DUP7 GAS STATICCALL ISZERO DUP1 ISZERO PUSH2 0x4FD JUMPI RETURNDATASIZE PUSH0 DUP1 RETURNDATACOPY RETURNDATASIZE PUSH0 REVERT JUMPDEST POP POP POP POP PUSH1 0x40 MLOAD RETURNDATASIZE PUSH1 0x1F NOT PUSH1 0x1F DUP3 ADD AND DUP3 ADD DUP1 PUSH1 0x40 MSTORE POP DUP2 ADD SWAP1 PUSH2 0x521 SWAP2 SWAP1 PUSH2 0x1216 JUMP JUMPDEST SWAP1 POP SWAP2 SWAP1 POP JUMP JUMPDEST TIMESTAMP PUSH1 0x2 PUSH0 DUP4 DUP2 MSTORE PUSH1 0x20 ADD SWAP1 DUP2 MSTORE PUSH1 0x20 ADD PUSH0 KECCAK256 DUP2 SWAP1 SSTORE POP POP JUMP JUMPDEST PUSH0 DUP4 GT DUP1 ISZERO PUSH2 0x54F JUMPI POP PUSH0 DUP3 GT JUMPDEST DUP1 ISZERO PUSH2 0x55A JUMPI POP PUSH0 DUP2 GT JUMPDEST PUSH2 0x599 JUMPI PUSH1 0x40 MLOAD PUSH32 0x8C379A000000000000000000000000000000000000000000000000000000000 DUP2 MSTORE PUSH1 0x4 ADD PUSH2 0x590 SWAP1 PUSH2 0x128B JUMP JUMPDEST PUSH1 0x40 MLOAD DUP1 SWAP2 SUB SWAP1 REVERT JUMPDEST CALLER PUSH20 0xFFFFFFFFFFFFFFFFFFFFFFFFFFFFFFFFFFFFFFFF AND DUP6 PUSH20 0xFFFFFFFFFFFFFFFFFFFFFFFFFFFFFFFFFFFFFFFF AND PUSH4 0x6352211E DUP7 PUSH1 0x40 MLOAD DUP3 PUSH4 0xFFFFFFFF AND PUSH1 0xE0 SHL DUP2 MSTORE PUSH1 0x4 ADD PUSH2 0x5E9 SWAP2 SWAP1 PUSH2 0xF09 JUMP JUMPDEST PUSH1 0x20 PUSH1 0x40 MLOAD DUP1 DUP4 SUB DUP2 DUP7 GAS STATICCALL ISZERO DUP1 ISZERO PUSH2 0x604 JUMPI RETURNDATASIZE PUSH0 DUP1 RETURNDATACOPY RETURNDATASIZE PUSH0 REVERT JUMPDEST POP POP POP POP PUSH1 0x40 MLOAD RETURNDATASIZE PUSH1 0x1F NOT PUSH1 0x1F DUP3 ADD AND DUP3 ADD DUP1 PUSH1 0x40 MSTORE POP DUP2 ADD SWAP1 PUSH2 0x628 SWAP2 SWAP1 PUSH2 0x119A JUMP JUMPDEST PUSH20 0xFFFFFFFFFFFFFFFFFFFFFFFFFFFFFFFFFFFFFFFF AND EQ PUSH2 0x67E JUMPI PUSH1 0x40 MLOAD PUSH32 0x8C379A000000000000000000000000000000000000000000000000000000000 DUP2 MSTORE PUSH1 0x4 ADD PUSH2 0x675 SWAP1 PUSH2 0x12F3 JUMP JUMPDEST PUSH1 0x40 MLOAD DUP1 SWAP2 SUB SWAP1 REVERT JUMPDEST PUSH0 PUSH1 0x40 MLOAD DUP1 PUSH1 0xE0 ADD PUSH1 0x40 MSTORE DUP1 CALLER PUSH20 0xFFFFFFFFFFFFFFFFFFFFFFFFFFFFFFFFFFFFFFFF AND DUP2 MSTORE PUSH1 0x20 ADD DUP8 PUSH20 0xFFFFFFFFFFFFFFFFFFFFFFFFFFFFFFFFFFFFFFFF AND DUP2 MSTORE PUSH1 0x20 ADD DUP7 DUP2 MSTORE PUSH1 0x20 ADD DUP6 DUP2 MSTORE PUSH1 0x20 ADD DUP5 DUP2 MSTORE PUSH1 0x20 ADD DUP4 DUP2 MSTORE PUSH1 0x20 ADD PUSH32 0x6F70656E00000000000000000000000000000000000000000000000000000000 DUP2 MSTORE POP SWAP1 POP DUP1 PUSH0 DUP1 PUSH1 0x3 SLOAD DUP2 MSTORE PUSH1 0x20 ADD SWAP1 DUP2 MSTORE PUSH1 0x20 ADD PUSH0 KECCAK256 PUSH0 DUP3 ADD MLOAD DUP2 PUSH0 ADD PUSH0 PUSH2 0x100 EXP DUP2 SLOAD DUP2 PUSH20 0xFFFFFFFFFFFFFFFFFFFFFFFFFFFFFFFFFFFFFFFF MUL NOT AND SWAP1 DUP4 PUSH20 0xFFFFFFFFFFFFFFFFFFFFFFFFFFFFFFFFFFFFFFFF AND MUL OR SWAP1 SSTORE POP PUSH1 0x20 DUP3 ADD MLOAD DUP2 PUSH1 0x1 ADD PUSH0 PUSH2 0x100 EXP DUP2 SLOAD DUP2 PUSH20 0xFFFFFFFFFFFFFFFFFFFFFFFFFFFFFFFFFFFFFFFF MUL NOT AND SWAP1 DUP4 PUSH20 0xFFFFFFFFFFFFFFFFFFFFFFFFFFFFFFFFFFFFFFFF AND MUL OR SWAP1 SSTORE POP PUSH1 0x40 DUP3 ADD MLOAD DUP2 PUSH1 0x2 ADD SSTORE PUSH1 0x60 DUP3 ADD MLOAD DUP2 PUSH1 0x3 ADD SSTORE PUSH1 0x80 DUP3 ADD MLOAD DUP2 PUSH1 0x4 ADD SSTORE PUSH1 0xA0 DUP3 ADD MLOAD DUP2 PUSH1 0x5 ADD SSTORE PUSH1 0xC0 DUP3 ADD MLOAD DUP2 PUSH1 0x6 ADD SSTORE SWAP1 POP POP PUSH1 0x1 PUSH0 CALLER PUSH20 0xFFFFFFFFFFFFFFFFFFFFFFFFFFFFFFFFFFFFFFFF AND PUSH20 0xFFFFFFFFFFFFFFFFFFFFFFFFFFFFFFFFFFFFFFFF AND DUP2 MSTORE PUSH1 0x20 ADD SWAP1 DUP2 MSTORE PUSH1 0x20 ADD PUSH0 KECCAK256 PUSH1 0x3 SLOAD SWAP1 DUP1 PUSH1 0x1 DUP2 SLOAD ADD DUP1 DUP3 SSTORE DUP1 SWAP2 POP POP PUSH1 0x1 SWAP1 SUB SWAP1 PUSH0 MSTORE PUSH1 0x20 PUSH0 KECCAK256 ADD PUSH0 SWAP1 SWAP2 SWAP1 SWAP2 SWAP1 SWAP2 POP SSTORE DUP6 PUSH20 0xFFFFFFFFFFFFFFFFFFFFFFFFFFFFFFFFFFFFFFFF AND PUSH4 0x23B872DD CALLER ADDRESS DUP9 PUSH1 0x40 MLOAD DUP5 PUSH4 0xFFFFFFFF AND PUSH1 0xE0 SHL DUP2 MSTORE PUSH1 0x4 ADD PUSH2 0x872 SWAP4 SWAP3 SWAP2 SWAP1 PUSH2 0x1311 JUMP JUMPDEST PUSH0 PUSH1 0x40 MLOAD DUP1 DUP4 SUB DUP2 PUSH0 DUP8 DUP1 EXTCODESIZE ISZERO DUP1 ISZERO PUSH2 0x889 JUMPI PUSH0 DUP1 REVERT JUMPDEST POP GAS CALL ISZERO DUP1 ISZERO PUSH2 0x89B JUMPI RETURNDATASIZE PUSH0 DUP1 RETURNDATACOPY RETURNDATASIZE PUSH0 REVERT JUMPDEST POP POP POP POP PUSH2 0x8AA PUSH1 0x3 SLOAD PUSH2 0x528 JUMP JUMPDEST PUSH1 0x3 PUSH0 DUP2 SLOAD DUP1 SWAP3 SWAP2 SWAP1 PUSH2 0x8BC SWAP1 PUSH2 0x1373 JUMP JUMPDEST SWAP2 SWAP1 POP SSTORE POP PUSH32 0xF767AD1AE2D5476327F80BEF89FBC70354C993E3059ED3D504D127921F60C40B CALLER DUP3 PUSH1 0x40 MLOAD PUSH2 0x8F2 SWAP3 SWAP2 SWAP1 PUSH2 0x115E JUMP JUMPDEST PUSH1 0x40 MLOAD DUP1 SWAP2 SUB SWAP1 LOG1 POP POP POP POP POP POP JUMP JUMPDEST PUSH0 PUSH1 0x3 SLOAD SWAP1 POP SWAP1 JUMP JUMPDEST PUSH2 0x913 PUSH2 0xBC7 JUMP JUMPDEST PUSH0 DUP1 DUP4 DUP2 MSTORE PUSH1 0x20 ADD SWAP1 DUP2 MSTORE PUSH1 0x20 ADD PUSH0 KECCAK256 PUSH1 0x40 MLOAD DUP1 PUSH1 0xE0 ADD PUSH1 0x40 MSTORE SWAP1 DUP2 PUSH0 DUP3 ADD PUSH0 SWAP1 SLOAD SWAP1 PUSH2 0x100 EXP SWAP1 DIV PUSH20 0xFFFFFFFFFFFFFFFFFFFFFFFFFFFFFFFFFFFFFFFF AND PUSH20 0xFFFFFFFFFFFFFFFFFFFFFFFFFFFFFFFFFFFFFFFF AND PUSH20 0xFFFFFFFFFFFFFFFFFFFFFFFFFFFFFFFFFFFFFFFF AND DUP2 MSTORE PUSH1 0x20 ADD PUSH1 0x1 DUP3 ADD PUSH0 SWAP1 SLOAD SWAP1 PUSH2 0x100 EXP SWAP1 DIV PUSH20 0xFFFFFFFFFFFFFFFFFFFFFFFFFFFFFFFFFFFFFFFF AND PUSH20 0xFFFFFFFFFFFFFFFFFFFFFFFFFFFFFFFFFFFFFFFF AND PUSH20 0xFFFFFFFFFFFFFFFFFFFFFFFFFFFFFFFFFFFFFFFF AND DUP2 MSTORE PUSH1 0x20 ADD PUSH1 0x2 DUP3 ADD SLOAD DUP2 MSTORE PUSH1 0x20 ADD PUSH1 0x3 DUP3 ADD SLOAD DUP2 MSTORE PUSH1 0x20 ADD PUSH1 0x4 DUP3 ADD SLOAD DUP2 MSTORE PUSH1 0x20 ADD PUSH1 0x5 DUP3 ADD SLOAD DUP2 MSTORE PUSH1 0x20 ADD PUSH1 0x6 DUP3 ADD SLOAD DUP2 MSTORE POP POP SWAP1 POP SWAP2 SWAP1 POP JUMP JUMPDEST PUSH0 DUP1 PUSH0 PUSH1 0x5 SLOAD PUSH2 0xA1F DUP6 PUSH2 0x90B JUMP JUMPDEST PUSH1 0x80 ADD MLOAD PUSH2 0xA2D SWAP2 SWAP1 PUSH2 0x13BA JUMP JUMPDEST PUSH1 0x2 PUSH0 DUP7 DUP2 MSTORE PUSH1 0x20 ADD SWAP1 DUP2 MSTORE PUSH1 0x20 ADD PUSH0 KECCAK256 SLOAD PUSH2 0xA49 SWAP2 SWAP1 PUSH2 0x13FB JUMP JUMPDEST SWAP1 POP PUSH0 TIMESTAMP DUP3 PUSH2 0xA58 SWAP2 SWAP1 PUSH2 0x142E JUMP JUMPDEST SWAP1 POP DUP1 PUSH0 DUP3 LT SWAP4 POP SWAP4 POP POP POP SWAP2 POP SWAP2 JUMP JUMPDEST CALLER PUSH20 0xFFFFFFFFFFFFFFFFFFFFFFFFFFFFFFFFFFFFFFFF AND PUSH0 DUP1 DUP4 DUP2 MSTORE PUSH1 0x20 ADD SWAP1 DUP2 MSTORE PUSH1 0x20 ADD PUSH0 KECCAK256 PUSH0 ADD PUSH0 SWAP1 SLOAD SWAP1 PUSH2 0x100 EXP SWAP1 DIV PUSH20 0xFFFFFFFFFFFFFFFFFFFFFFFFFFFFFFFFFFFFFFFF AND PUSH20 0xFFFFFFFFFFFFFFFFFFFFFFFFFFFFFFFFFFFFFFFF AND EQ PUSH2 0xB08 JUMPI PUSH1 0x40 MLOAD PUSH32 0x8C379A000000000000000000000000000000000000000000000000000000000 DUP2 MSTORE PUSH1 0x4 ADD PUSH2 0xAFF SWAP1 PUSH2 0x14AB JUMP JUMPDEST PUSH1 0x40 MLOAD DUP1 SWAP2 SUB SWAP1 REVERT JUMPDEST PUSH32 0x63616E63656C0000000000000000000000000000000000000000000000000000 PUSH0 DUP1 DUP4 DUP2 MSTORE PUSH1 0x20 ADD SWAP1 DUP2 MSTORE PUSH1 0x20 ADD PUSH0 KECCAK256 PUSH1 0x6 ADD DUP2 SWAP1 SSTORE POP PUSH2 0xB49 DUP2 PUSH2 0x528 JUMP JUMPDEST POP JUMP JUMPDEST PUSH0 PUSH1 0x20 MSTORE DUP1 PUSH0 MSTORE PUSH1 0x40 PUSH0 KECCAK256 PUSH0 SWAP2 POP SWAP1 POP DUP1 PUSH0 ADD PUSH0 SWAP1 SLOAD SWAP1 PUSH2 0x100 EXP SWAP1 DIV PUSH20 0xFFFFFFFFFFFFFFFFFFFFFFFFFFFFFFFFFFFFFFFF AND SWAP1 DUP1 PUSH1 0x1 ADD PUSH0 SWAP1 SLOAD SWAP1 PUSH2 0x100 EXP SWAP1 DIV PUSH20 0xFFFFFFFFFFFFFFFFFFFFFFFFFFFFFFFFFFFFFFFF AND SWAP1 DUP1 PUSH1 0x2 ADD SLOAD SWAP1 DUP1 PUSH1 0x3 ADD SLOAD SWAP1 DUP1 PUSH1 0x4 ADD SLOAD SWAP1 DUP1 PUSH1 0x5 ADD SLOAD SWAP1 DUP1 PUSH1 0x6 ADD SLOAD SWAP1 POP DUP8 JUMP JUMPDEST PUSH1 0x40 MLOAD DUP1 PUSH1 0xE0 ADD PUSH1 0x40 MSTORE DUP1 PUSH0 PUSH20 0xFFFFFFFFFFFFFFFFFFFFFFFFFFFFFFFFFFFFFFFF AND DUP2 MSTORE PUSH1 0x20 ADD PUSH0 PUSH20 0xFFFFFFFFFFFFFFFFFFFFFFFFFFFFFFFFFFFFFFFF AND DUP2 MSTORE PUSH1 0x20 ADD PUSH0 DUP2 MSTORE PUSH1 0x20 ADD PUSH0 DUP2 MSTORE PUSH1 0x20 ADD PUSH0 DUP2 MSTORE PUSH1 0x20 ADD PUSH0 DUP2 MSTORE PUSH1 0x20 ADD PUSH0 DUP1 NOT AND DUP2 MSTORE POP SWAP1 JUMP JUMPDEST PUSH0 DUP1 REVERT JUMPDEST PUSH0 PUSH20 0xFFFFFFFFFFFFFFFFFFFFFFFFFFFFFFFFFFFFFFFF DUP3 AND SWAP1 POP SWAP2 SWAP1 POP JUMP JUMPDEST PUSH0 PUSH2 0xC59 DUP3 PUSH2 0xC30 JUMP JUMPDEST SWAP1 POP SWAP2 SWAP1 POP JUMP JUMPDEST PUSH2 0xC69 DUP2 PUSH2 0xC4F JUMP JUMPDEST DUP2 EQ PUSH2 0xC73 JUMPI PUSH0 DUP1 REVERT JUMPDEST POP JUMP JUMPDEST PUSH0 DUP2 CALLDATALOAD SWAP1 POP PUSH2 0xC84 DUP2 PUSH2 0xC60 JUMP JUMPDEST SWAP3 SWAP2 POP POP JUMP JUMPDEST PUSH0 PUSH1 0x20 DUP3 DUP5 SUB SLT ISZERO PUSH2 0xC9F JUMPI PUSH2 0xC9E PUSH2 0xC2C JUMP JUMPDEST JUMPDEST PUSH0 PUSH2 0xCAC DUP5 DUP3 DUP6 ADD PUSH2 0xC76 JUMP JUMPDEST SWAP2 POP POP SWAP3 SWAP2 POP POP JUMP JUMPDEST PUSH0 DUP2 MLOAD SWAP1 POP SWAP2 SWAP1 POP JUMP JUMPDEST PUSH0 DUP3 DUP3 MSTORE PUSH1 0x20 DUP3 ADD SWAP1 POP SWAP3 SWAP2 POP POP JUMP JUMPDEST PUSH0 DUP2 SWAP1 POP PUSH1 0x20 DUP3 ADD SWAP1 POP SWAP2 SWAP1 POP JUMP JUMPDEST PUSH0 DUP2 SWAP1 POP SWAP2 SWAP1 POP JUMP JUMPDEST PUSH2 0xCF0 DUP2 PUSH2 0xCDE JUMP JUMPDEST DUP3 MSTORE POP POP JUMP JUMPDEST PUSH0 PUSH2 0xD01 DUP4 DUP4 PUSH2 0xCE7 JUMP JUMPDEST PUSH1 0x20 DUP4 ADD SWAP1 POP SWAP3 SWAP2 POP POP JUMP JUMPDEST PUSH0 PUSH1 0x20 DUP3 ADD SWAP1 POP SWAP2 SWAP1 POP JUMP JUMPDEST PUSH0 PUSH2 0xD23 DUP3 PUSH2 0xCB5 JUMP JUMPDEST PUSH2 0xD2D DUP2 DUP6 PUSH2 0xCBF JUMP JUMPDEST SWAP4 POP PUSH2 0xD38 DUP4 PUSH2 0xCCF JUMP JUMPDEST DUP1 PUSH0 JUMPDEST DUP4 DUP2 LT ISZERO PUSH2 0xD68 JUMPI DUP2 MLOAD PUSH2 0xD4F DUP9 DUP3 PUSH2 0xCF6 JUMP JUMPDEST SWAP8 POP PUSH2 0xD5A DUP4 PUSH2 0xD0D JUMP JUMPDEST SWAP3 POP POP PUSH1 0x1 DUP2 ADD SWAP1 POP PUSH2 0xD3B JUMP JUMPDEST POP DUP6 SWAP4 POP POP POP POP SWAP3 SWAP2 POP POP JUMP JUMPDEST PUSH0 PUSH1 0x20 DUP3 ADD SWAP1 POP DUP2 DUP2 SUB PUSH0 DUP4 ADD MSTORE PUSH2 0xD8D DUP2 DUP5 PUSH2 0xD19 JUMP JUMPDEST SWAP1 POP SWAP3 SWAP2 POP POP JUMP JUMPDEST PUSH2 0xD9E DUP2 PUSH2 0xCDE JUMP JUMPDEST DUP2 EQ PUSH2 0xDA8 JUMPI PUSH0 DUP1 REVERT JUMPDEST POP JUMP JUMPDEST PUSH0 DUP2 CALLDATALOAD SWAP1 POP PUSH2 0xDB9 DUP2 PUSH2 0xD95 JUMP JUMPDEST SWAP3 SWAP2 POP POP JUMP JUMPDEST PUSH0 PUSH1 0x20 DUP3 DUP5 SUB SLT ISZERO PUSH2 0xDD4 JUMPI PUSH2 0xDD3 PUSH2 0xC2C JUMP JUMPDEST JUMPDEST PUSH0 PUSH2 0xDE1 DUP5 DUP3 DUP6 ADD PUSH2 0xDAB JUMP JUMPDEST SWAP2 POP POP SWAP3 SWAP2 POP POP JUMP JUMPDEST PUSH0 DUP1 PUSH1 0x40 DUP4 DUP6 SUB SLT ISZERO PUSH2 0xE00 JUMPI PUSH2 0xDFF PUSH2 0xC2C JUMP JUMPDEST JUMPDEST PUSH0 PUSH2 0xE0D DUP6 DUP3 DUP7 ADD PUSH2 0xC76 JUMP JUMPDEST SWAP3 POP POP PUSH1 0x20 PUSH2 0xE1E DUP6 DUP3 DUP7 ADD PUSH2 0xDAB JUMP JUMPDEST SWAP2 POP POP SWAP3 POP SWAP3 SWAP1 POP JUMP JUMPDEST PUSH2 0xE31 DUP2 PUSH2 0xC4F JUMP JUMPDEST DUP3 MSTORE POP POP JUMP JUMPDEST PUSH0 PUSH1 0x20 DUP3 ADD SWAP1 POP PUSH2 0xE4A PUSH0 DUP4 ADD DUP5 PUSH2 0xE28 JUMP JUMPDEST SWAP3 SWAP2 POP POP JUMP JUMPDEST PUSH0 DUP2 ISZERO ISZERO SWAP1 POP SWAP2 SWAP1 POP JUMP JUMPDEST PUSH2 0xE64 DUP2 PUSH2 0xE50 JUMP JUMPDEST DUP3 MSTORE POP POP JUMP JUMPDEST PUSH0 PUSH1 0x20 DUP3 ADD SWAP1 POP PUSH2 0xE7D PUSH0 DUP4 ADD DUP5 PUSH2 0xE5B JUMP JUMPDEST SWAP3 SWAP2 POP POP JUMP JUMPDEST PUSH0 DUP1 PUSH0 DUP1 PUSH0 PUSH1 0xA0 DUP7 DUP9 SUB SLT ISZERO PUSH2 0xE9C JUMPI PUSH2 0xE9B PUSH2 0xC2C JUMP JUMPDEST JUMPDEST PUSH0 PUSH2 0xEA9 DUP9 DUP3 DUP10 ADD PUSH2 0xC76 JUMP JUMPDEST SWAP6 POP POP PUSH1 0x20 PUSH2 0xEBA DUP9 DUP3 DUP10 ADD PUSH2 0xDAB JUMP JUMPDEST SWAP5 POP POP PUSH1 0x40 PUSH2 0xECB DUP9 DUP3 DUP10 ADD PUSH2 0xDAB JUMP JUMPDEST SWAP4 POP POP PUSH1 0x60 PUSH2 0xEDC DUP9 DUP3 DUP10 ADD PUSH2 0xDAB JUMP JUMPDEST SWAP3 POP POP PUSH1 0x80 PUSH2 0xEED DUP9 DUP3 DUP10 ADD PUSH2 0xDAB JUMP JUMPDEST SWAP2 POP POP SWAP3 SWAP6 POP SWAP3 SWAP6 SWAP1 SWAP4 POP JUMP JUMPDEST PUSH2 0xF03 DUP2 PUSH2 0xCDE JUMP JUMPDEST DUP3 MSTORE POP POP JUMP JUMPDEST PUSH0 PUSH1 0x20 DUP3 ADD SWAP1 POP PUSH2 0xF1C PUSH0 DUP4 ADD DUP5 PUSH2 0xEFA JUMP JUMPDEST SWAP3 SWAP2 POP POP JUMP JUMPDEST PUSH0 PUSH2 0xF2C DUP3 PUSH2 0xC30 JUMP JUMPDEST SWAP1 POP SWAP2 SWAP1 POP JUMP JUMPDEST PUSH2 0xF3C DUP2 PUSH2 0xF22 JUMP JUMPDEST DUP3 MSTORE POP POP JUMP JUMPDEST PUSH2 0xF4B DUP2 PUSH2 0xC4F JUMP JUMPDEST DUP3 MSTORE POP POP JUMP JUMPDEST PUSH0 DUP2 SWAP1 POP SWAP2 SWAP1 POP JUMP JUMPDEST PUSH2 0xF63 DUP2 PUSH2 0xF51 JUMP JUMPDEST DUP3 MSTORE POP POP JUMP JUMPDEST PUSH1 0xE0 DUP3 ADD PUSH0 DUP3 ADD MLOAD PUSH2 0xF7D PUSH0 DUP6 ADD DUP3 PUSH2 0xF33 JUMP JUMPDEST POP PUSH1 0x20 DUP3 ADD MLOAD PUSH2 0xF90 PUSH1 0x20 DUP6 ADD DUP3 PUSH2 0xF42 JUMP JUMPDEST POP PUSH1 0x40 DUP3 ADD MLOAD PUSH2 0xFA3 PUSH1 0x40 DUP6 ADD DUP3 PUSH2 0xCE7 JUMP JUMPDEST POP PUSH1 0x60 DUP3 ADD MLOAD PUSH2 0xFB6 PUSH1 0x60 DUP6 ADD DUP3 PUSH2 0xCE7 JUMP JUMPDEST POP PUSH1 0x80 DUP3 ADD MLOAD PUSH2 0xFC9 PUSH1 0x80 DUP6 ADD DUP3 PUSH2 0xCE7 JUMP JUMPDEST POP PUSH1 0xA0 DUP3 ADD MLOAD PUSH2 0xFDC PUSH1 0xA0 DUP6 ADD DUP3 PUSH2 0xCE7 JUMP JUMPDEST POP PUSH1 0xC0 DUP3 ADD MLOAD PUSH2 0xFEF PUSH1 0xC0 DUP6 ADD DUP3 PUSH2 0xF5A JUMP JUMPDEST POP POP POP POP JUMP JUMPDEST PUSH0 PUSH1 0xE0 DUP3 ADD SWAP1 POP PUSH2 0x1008 PUSH0 DUP4 ADD DUP5 PUSH2 0xF69 JUMP JUMPDEST SWAP3 SWAP2 POP POP JUMP JUMPDEST PUSH0 PUSH1 0x40 DUP3 ADD SWAP1 POP PUSH2 0x1021 PUSH0 DUP4 ADD DUP6 PUSH2 0xEFA JUMP JUMPDEST PUSH2 0x102E PUSH1 0x20 DUP4 ADD DUP5 PUSH2 0xE5B JUMP JUMPDEST SWAP4 SWAP3 POP POP POP JUMP JUMPDEST PUSH2 0x103E DUP2 PUSH2 0xF22 JUMP JUMPDEST DUP3 MSTORE POP POP JUMP JUMPDEST PUSH2 0x104D DUP2 PUSH2 0xF51 JUMP JUMPDEST DUP3 MSTORE POP POP JUMP JUMPDEST PUSH0 PUSH1 0xE0 DUP3 ADD SWAP1 POP PUSH2 0x1066 PUSH0 DUP4 ADD DUP11 PUSH2 0x1035 JUMP JUMPDEST PUSH2 0x1073 PUSH1 0x20 DUP4 ADD DUP10 PUSH2 0xE28 JUMP JUMPDEST PUSH2 0x1080 PUSH1 0x40 DUP4 ADD DUP9 PUSH2 0xEFA JUMP JUMPDEST PUSH2 0x108D PUSH1 0x60 DUP4 ADD DUP8 PUSH2 0xEFA JUMP JUMPDEST PUSH2 0x109A PUSH1 0x80 DUP4 ADD DUP7 PUSH2 0xEFA JUMP JUMPDEST PUSH2 0x10A7 PUSH1 0xA0 DUP4 ADD DUP6 PUSH2 0xEFA JUMP JUMPDEST PUSH2 0x10B4 PUSH1 0xC0 DUP4 ADD DUP5 PUSH2 0x1044 JUMP JUMPDEST SWAP9 SWAP8 POP POP POP POP POP POP POP POP JUMP JUMPDEST PUSH0 DUP3 DUP3 MSTORE PUSH1 0x20 DUP3 ADD SWAP1 POP SWAP3 SWAP2 POP POP JUMP JUMPDEST PUSH32 0x596F7520686176656E277420656E6F7567682062616C616E636520666F72206C PUSH0 DUP3 ADD MSTORE PUSH32 0x656E64696E670000000000000000000000000000000000000000000000000000 PUSH1 0x20 DUP3 ADD MSTORE POP JUMP JUMPDEST PUSH0 PUSH2 0x112A PUSH1 0x26 DUP4 PUSH2 0x10C0 JUMP JUMPDEST SWAP2 POP PUSH2 0x1135 DUP3 PUSH2 0x10D0 JUMP JUMPDEST PUSH1 0x40 DUP3 ADD SWAP1 POP SWAP2 SWAP1 POP JUMP JUMPDEST PUSH0 PUSH1 0x20 DUP3 ADD SWAP1 POP DUP2 DUP2 SUB PUSH0 DUP4 ADD MSTORE PUSH2 0x1157 DUP2 PUSH2 0x111E JUMP JUMPDEST SWAP1 POP SWAP2 SWAP1 POP JUMP JUMPDEST PUSH0 PUSH2 0x100 DUP3 ADD SWAP1 POP PUSH2 0x1172 PUSH0 DUP4 ADD DUP6 PUSH2 0xE28 JUMP JUMPDEST PUSH2 0x117F PUSH1 0x20 DUP4 ADD DUP5 PUSH2 0xF69 JUMP JUMPDEST SWAP4 SWAP3 POP POP POP JUMP JUMPDEST PUSH0 DUP2 MLOAD SWAP1 POP PUSH2 0x1194 DUP2 PUSH2 0xC60 JUMP JUMPDEST SWAP3 SWAP2 POP POP JUMP JUMPDEST PUSH0 PUSH1 0x20 DUP3 DUP5 SUB SLT ISZERO PUSH2 0x11AF JUMPI PUSH2 0x11AE PUSH2 0xC2C JUMP JUMPDEST JUMPDEST PUSH0 PUSH2 0x11BC DUP5 DUP3 DUP6 ADD PUSH2 0x1186 JUMP JUMPDEST SWAP2 POP POP SWAP3 SWAP2 POP POP JUMP JUMPDEST PUSH0 PUSH1 0x40 DUP3 ADD SWAP1 POP PUSH2 0x11D8 PUSH0 DUP4 ADD DUP6 PUSH2 0xE28 JUMP JUMPDEST PUSH2 0x11E5 PUSH1 0x20 DUP4 ADD DUP5 PUSH2 0xE28 JUMP JUMPDEST SWAP4 SWAP3 POP POP POP JUMP JUMPDEST PUSH2 0x11F5 DUP2 PUSH2 0xE50 JUMP JUMPDEST DUP2 EQ PUSH2 0x11FF JUMPI PUSH0 DUP1 REVERT JUMPDEST POP JUMP JUMPDEST PUSH0 DUP2 MLOAD SWAP1 POP PUSH2 0x1210 DUP2 PUSH2 0x11EC JUMP JUMPDEST SWAP3 SWAP2 POP POP JUMP JUMPDEST PUSH0 PUSH1 0x20 DUP3 DUP5 SUB SLT ISZERO PUSH2 0x122B JUMPI PUSH2 0x122A PUSH2 0xC2C JUMP JUMPDEST JUMPDEST PUSH0 PUSH2 0x1238 DUP5 DUP3 DUP6 ADD PUSH2 0x1202 JUMP JUMPDEST SWAP2 POP POP SWAP3 SWAP2 POP POP JUMP JUMPDEST PUSH32 0x56616C756573206D7573742062652067726561746572207468616E207A65726F PUSH0 DUP3 ADD MSTORE POP JUMP JUMPDEST PUSH0 PUSH2 0x1275 PUSH1 0x20 DUP4 PUSH2 0x10C0 JUMP JUMPDEST SWAP2 POP PUSH2 0x1280 DUP3 PUSH2 0x1241 JUMP JUMPDEST PUSH1 0x20 DUP3 ADD SWAP1 POP SWAP2 SWAP1 POP JUMP JUMPDEST PUSH0 PUSH1 0x20 DUP3 ADD SWAP1 POP DUP2 DUP2 SUB PUSH0 DUP4 ADD MSTORE PUSH2 0x12A2 DUP2 PUSH2 0x1269 JUMP JUMPDEST SWAP1 POP SWAP2 SWAP1 POP JUMP JUMPDEST PUSH32 0x596F7520617265206E6F7420686F6C646572206F66207468697320746F6B656E PUSH0 DUP3 ADD MSTORE POP JUMP JUMPDEST PUSH0 PUSH2 0x12DD PUSH1 0x20 DUP4 PUSH2 0x10C0 JUMP JUMPDEST SWAP2 POP PUSH2 0x12E8 DUP3 PUSH2 0x12A9 JUMP JUMPDEST PUSH1 0x20 DUP3 ADD SWAP1 POP SWAP2 SWAP1 POP JUMP JUMPDEST PUSH0 PUSH1 0x20 DUP3 ADD SWAP1 POP DUP2 DUP2 SUB PUSH0 DUP4 ADD MSTORE PUSH2 0x130A DUP2 PUSH2 0x12D1 JUMP JUMPDEST SWAP1 POP SWAP2 SWAP1 POP JUMP JUMPDEST PUSH0 PUSH1 0x60 DUP3 ADD SWAP1 POP PUSH2 0x1324 PUSH0 DUP4 ADD DUP7 PUSH2 0xE28 JUMP JUMPDEST PUSH2 0x1331 PUSH1 0x20 DUP4 ADD DUP6 PUSH2 0xE28 JUMP JUMPDEST PUSH2 0x133E PUSH1 0x40 DUP4 ADD DUP5 PUSH2 0xEFA JUMP JUMPDEST SWAP5 SWAP4 POP POP POP POP JUMP JUMPDEST PUSH32 0x4E487B7100000000000000000000000000000000000000000000000000000000 PUSH0 MSTORE PUSH1 0x11 PUSH1 0x4 MSTORE PUSH1 0x24 PUSH0 REVERT JUMPDEST PUSH0 PUSH2 0x137D DUP3 PUSH2 0xCDE JUMP JUMPDEST SWAP2 POP PUSH32 0xFFFFFFFFFFFFFFFFFFFFFFFFFFFFFFFFFFFFFFFFFFFFFFFFFFFFFFFFFFFFFFFF DUP3 SUB PUSH2 0x13AF JUMPI PUSH2 0x13AE PUSH2 0x1346 JUMP JUMPDEST JUMPDEST PUSH1 0x1 DUP3 ADD SWAP1 POP SWAP2 SWAP1 POP JUMP JUMPDEST PUSH0 PUSH2 0x13C4 DUP3 PUSH2 0xCDE JUMP JUMPDEST SWAP2 POP PUSH2 0x13CF DUP4 PUSH2 0xCDE JUMP JUMPDEST SWAP3 POP DUP3 DUP3 MUL PUSH2 0x13DD DUP2 PUSH2 0xCDE JUMP JUMPDEST SWAP2 POP DUP3 DUP3 DIV DUP5 EQ DUP4 ISZERO OR PUSH2 0x13F4 JUMPI PUSH2 0x13F3 PUSH2 0x1346 JUMP JUMPDEST JUMPDEST POP SWAP3 SWAP2 POP POP JUMP JUMPDEST PUSH0 PUSH2 0x1405 DUP3 PUSH2 0xCDE JUMP JUMPDEST SWAP2 POP PUSH2 0x1410 DUP4 PUSH2 0xCDE JUMP JUMPDEST SWAP3 POP DUP3 DUP3 ADD SWAP1 POP DUP1 DUP3 GT ISZERO PUSH2 0x1428 JUMPI PUSH2 0x1427 PUSH2 0x1346 JUMP JUMPDEST JUMPDEST SWAP3 SWAP2 POP POP JUMP JUMPDEST PUSH0 PUSH2 0x1438 DUP3 PUSH2 0xCDE JUMP JUMPDEST SWAP2 POP PUSH2 0x1443 DUP4 PUSH2 0xCDE JUMP JUMPDEST SWAP3 POP DUP3 DUP3 SUB SWAP1 POP DUP2 DUP2 GT ISZERO PUSH2 0x145B JUMPI PUSH2 0x145A PUSH2 0x1346 JUMP JUMPDEST JUMPDEST SWAP3 SWAP2 POP POP JUMP JUMPDEST PUSH32 0x596F7520617265206E6F7420706F73746572206F6620746865206C6973740000 PUSH0 DUP3 ADD MSTORE POP JUMP JUMPDEST PUSH0 PUSH2 0x1495 PUSH1 0x1E DUP4 PUSH2 0x10C0 JUMP JUMPDEST SWAP2 POP PUSH2 0x14A0 DUP3 PUSH2 0x1461 JUMP JUMPDEST PUSH1 0x20 DUP3 ADD SWAP1 POP SWAP2 SWAP1 POP JUMP JUMPDEST PUSH0 PUSH1 0x20 DUP3 ADD SWAP1 POP DUP2 DUP2 SUB PUSH0 DUP4 ADD MSTORE PUSH2 0x14C2 DUP2 PUSH2 0x1489 JUMP JUMPDEST SWAP1 POP SWAP2 SWAP1 POP JUMP INVALID LOG2 PUSH5 0x6970667358 0x22 SLT KECCAK256 PUSH27 0x36F4405D9936E63AB13F791B6F0A6CD1407014B768AC368B93F1CF 0xAA PUSH21 0xDD6064736F6C634300081700330000000000000000 "
				},
				"gasEstimates": {
					"creation": {
						"codeDepositCost": "1075000",
						"executionCost": "45324",
						"totalCost": "1120324"
					},
					"external": {
						"closeListing(uint256)": "47153",
						"getCounter()": "2454",
						"getListing(address)": "infinite",
						"getListingInfo(uint256)": "infinite",
						"isApprove(address)": "infinite",
						"isExpired(uint256)": "infinite",
						"lendApproval(uint256)": "infinite",
						"listNum(uint256)": "infinite",
						"openListing(address,uint256,uint256,uint256,uint256)": "infinite",
						"ownerOf(address,uint256)": "infinite",
						"updateTime(uint256)": "22679"
					}
				},
				"methodIdentifiers": {
					"closeListing(uint256)": "e5a255cb",
					"getCounter()": "8ada066e",
					"getListing(address)": "084af0b2",
					"getListingInfo(uint256)": "b9314135",
					"isApprove(address)": "4f694690",
					"isExpired(uint256)": "d9548e53",
					"lendApproval(uint256)": "172656d1",
					"listNum(uint256)": "eeabfc4a",
					"openListing(address,uint256,uint256,uint256,uint256)": "880fe941",
					"ownerOf(address,uint256)": "1f29d2dc",
					"updateTime(uint256)": "6c59bd0c"
				}
			},
			"storageLayout": {
				"storage": [
					{
						"astId": 165,
						"contract": "platform.sol:Platform",
						"label": "listNum",
						"offset": 0,
						"slot": "0",
						"type": "t_mapping(t_uint256,t_struct(ListingInfo)160_storage)"
					},
					{
						"astId": 170,
						"contract": "platform.sol:Platform",
						"label": "addrList",
						"offset": 0,
						"slot": "1",
						"type": "t_mapping(t_address,t_array(t_uint256)dyn_storage)"
					},
					{
						"astId": 174,
						"contract": "platform.sol:Platform",
						"label": "updatedTime",
						"offset": 0,
						"slot": "2",
						"type": "t_mapping(t_uint256,t_uint256)"
					},
					{
						"astId": 176,
						"contract": "platform.sol:Platform",
						"label": "counter",
						"offset": 0,
						"slot": "3",
						"type": "t_uint256"
					},
					{
						"astId": 179,
						"contract": "platform.sol:Platform",
						"label": "monthToSec",
						"offset": 0,
						"slot": "4",
						"type": "t_uint256"
					},
					{
						"astId": 182,
						"contract": "platform.sol:Platform",
						"label": "minTosec",
						"offset": 0,
						"slot": "5",
						"type": "t_uint256"
					}
				],
				"types": {
					"t_address": {
						"encoding": "inplace",
						"label": "address",
						"numberOfBytes": "20"
					},
					"t_address_payable": {
						"encoding": "inplace",
						"label": "address payable",
						"numberOfBytes": "20"
					},
					"t_array(t_uint256)dyn_storage": {
						"base": "t_uint256",
						"encoding": "dynamic_array",
						"label": "uint256[]",
						"numberOfBytes": "32"
					},
					"t_bytes32": {
						"encoding": "inplace",
						"label": "bytes32",
						"numberOfBytes": "32"
					},
					"t_mapping(t_address,t_array(t_uint256)dyn_storage)": {
						"encoding": "mapping",
						"key": "t_address",
						"label": "mapping(address => uint256[])",
						"numberOfBytes": "32",
						"value": "t_array(t_uint256)dyn_storage"
					},
					"t_mapping(t_uint256,t_struct(ListingInfo)160_storage)": {
						"encoding": "mapping",
						"key": "t_uint256",
						"label": "mapping(uint256 => struct Platform.ListingInfo)",
						"numberOfBytes": "32",
						"value": "t_struct(ListingInfo)160_storage"
					},
					"t_mapping(t_uint256,t_uint256)": {
						"encoding": "mapping",
						"key": "t_uint256",
						"label": "mapping(uint256 => uint256)",
						"numberOfBytes": "32",
						"value": "t_uint256"
					},
					"t_struct(ListingInfo)160_storage": {
						"encoding": "inplace",
						"label": "struct Platform.ListingInfo",
						"members": [
							{
								"astId": 147,
								"contract": "platform.sol:Platform",
								"label": "poster",
								"offset": 0,
								"slot": "0",
								"type": "t_address_payable"
							},
							{
								"astId": 149,
								"contract": "platform.sol:Platform",
								"label": "collectionAddr",
								"offset": 0,
								"slot": "1",
								"type": "t_address"
							},
							{
								"astId": 151,
								"contract": "platform.sol:Platform",
								"label": "tokenId",
								"offset": 0,
								"slot": "2",
								"type": "t_uint256"
							},
							{
								"astId": 153,
								"contract": "platform.sol:Platform",
								"label": "amount",
								"offset": 0,
								"slot": "3",
								"type": "t_uint256"
							},
							{
								"astId": 155,
								"contract": "platform.sol:Platform",
								"label": "duration",
								"offset": 0,
								"slot": "4",
								"type": "t_uint256"
							},
							{
								"astId": 157,
								"contract": "platform.sol:Platform",
								"label": "APR",
								"offset": 0,
								"slot": "5",
								"type": "t_uint256"
							},
							{
								"astId": 159,
								"contract": "platform.sol:Platform",
								"label": "status",
								"offset": 0,
								"slot": "6",
								"type": "t_bytes32"
							}
						],
						"numberOfBytes": "224"
					},
					"t_uint256": {
						"encoding": "inplace",
						"label": "uint256",
						"numberOfBytes": "32"
					}
				}
			},
			"userdoc": {
				"kind": "user",
				"methods": {},
				"version": 1
			}
		}
	}
}