{
	"platform.sol": {
		"Platform": {
			"abi": [
				{
					"anonymous": false,
					"inputs": [
						{
							"indexed": false,
							"internalType": "address",
							"name": "loaner",
							"type": "address"
						},
						{
							"components": [
								{
									"internalType": "address payable",
									"name": "poster",
									"type": "address"
								},
								{
									"internalType": "address",
									"name": "collectionAddr",
									"type": "address"
								},
								{
									"internalType": "uint256",
									"name": "tokenId",
									"type": "uint256"
								},
								{
									"internalType": "uint256",
									"name": "amount",
									"type": "uint256"
								},
								{
									"internalType": "uint256",
									"name": "duration",
									"type": "uint256"
								},
								{
									"internalType": "uint256",
									"name": "APR",
									"type": "uint256"
								},
								{
									"internalType": "bytes32",
									"name": "status",
									"type": "bytes32"
								}
							],
							"indexed": false,
							"internalType": "struct Platform.ListingInfo",
							"name": "info",
							"type": "tuple"
						}
					],
					"name": "ApprovalListing",
					"type": "event"
				},
				{
					"anonymous": false,
					"inputs": [
						{
							"indexed": false,
							"internalType": "address",
							"name": "owner",
							"type": "address"
						},
						{
							"components": [
								{
									"internalType": "address payable",
									"name": "poster",
									"type": "address"
								},
								{
									"internalType": "address",
									"name": "collectionAddr",
									"type": "address"
								},
								{
									"internalType": "uint256",
									"name": "tokenId",
									"type": "uint256"
								},
								{
									"internalType": "uint256",
									"name": "amount",
									"type": "uint256"
								},
								{
									"internalType": "uint256",
									"name": "duration",
									"type": "uint256"
								},
								{
									"internalType": "uint256",
									"name": "APR",
									"type": "uint256"
								},
								{
									"internalType": "bytes32",
									"name": "status",
									"type": "bytes32"
								}
							],
							"indexed": false,
							"internalType": "struct Platform.ListingInfo",
							"name": "info",
							"type": "tuple"
						}
					],
					"name": "CancelListing",
					"type": "event"
				},
				{
					"anonymous": false,
					"inputs": [
						{
							"indexed": false,
							"internalType": "address",
							"name": "owner",
							"type": "address"
						},
						{
							"components": [
								{
									"internalType": "address payable",
									"name": "poster",
									"type": "address"
								},
								{
									"internalType": "address",
									"name": "collectionAddr",
									"type": "address"
								},
								{
									"internalType": "uint256",
									"name": "tokenId",
									"type": "uint256"
								},
								{
									"internalType": "uint256",
									"name": "amount",
									"type": "uint256"
								},
								{
									"internalType": "uint256",
									"name": "duration",
									"type": "uint256"
								},
								{
									"internalType": "uint256",
									"name": "APR",
									"type": "uint256"
								},
								{
									"internalType": "bytes32",
									"name": "status",
									"type": "bytes32"
								}
							],
							"indexed": false,
							"internalType": "struct Platform.ListingInfo",
							"name": "info",
							"type": "tuple"
						}
					],
					"name": "NewListing",
					"type": "event"
				},
				{
					"anonymous": false,
					"inputs": [
						{
							"indexed": false,
							"internalType": "uint256",
							"name": "num",
							"type": "uint256"
						}
					],
					"name": "check",
					"type": "event"
				},
				{
					"anonymous": false,
					"inputs": [
						{
							"indexed": false,
							"internalType": "address",
							"name": "owner",
							"type": "address"
						},
						{
							"components": [
								{
									"internalType": "address payable",
									"name": "poster",
									"type": "address"
								},
								{
									"internalType": "address",
									"name": "collectionAddr",
									"type": "address"
								},
								{
									"internalType": "uint256",
									"name": "tokenId",
									"type": "uint256"
								},
								{
									"internalType": "uint256",
									"name": "amount",
									"type": "uint256"
								},
								{
									"internalType": "uint256",
									"name": "duration",
									"type": "uint256"
								},
								{
									"internalType": "uint256",
									"name": "APR",
									"type": "uint256"
								},
								{
									"internalType": "bytes32",
									"name": "status",
									"type": "bytes32"
								}
							],
							"indexed": false,
							"internalType": "struct Platform.ListingInfo",
							"name": "info",
							"type": "tuple"
						}
					],
					"name": "repaying",
					"type": "event"
				},
				{
					"inputs": [
						{
							"internalType": "uint256",
							"name": "listingIndex",
							"type": "uint256"
						}
					],
					"name": "approveLoan",
					"outputs": [],
					"stateMutability": "nonpayable",
					"type": "function"
				},
				{
					"inputs": [
						{
							"internalType": "uint256",
							"name": "listingIndex",
							"type": "uint256"
						}
					],
					"name": "calculateRepayAmount",
					"outputs": [
						{
							"internalType": "uint256",
							"name": "",
							"type": "uint256"
						}
					],
					"stateMutability": "view",
					"type": "function"
				},
				{
					"inputs": [
						{
							"internalType": "uint256",
							"name": "listingIndex",
							"type": "uint256"
						}
					],
					"name": "closeListing",
					"outputs": [],
					"stateMutability": "nonpayable",
					"type": "function"
				},
				{
					"inputs": [],
					"name": "getCounter",
					"outputs": [
						{
							"internalType": "uint256",
							"name": "",
							"type": "uint256"
						}
					],
					"stateMutability": "view",
					"type": "function"
				},
				{
					"inputs": [
						{
							"internalType": "address",
							"name": "addr",
							"type": "address"
						}
					],
					"name": "getListing",
					"outputs": [
						{
							"internalType": "uint256[]",
							"name": "",
							"type": "uint256[]"
						}
					],
					"stateMutability": "view",
					"type": "function"
				},
				{
					"inputs": [
						{
							"internalType": "uint256",
							"name": "num",
							"type": "uint256"
						}
					],
					"name": "getListingInfo",
					"outputs": [
						{
							"components": [
								{
									"internalType": "address payable",
									"name": "poster",
									"type": "address"
								},
								{
									"internalType": "address",
									"name": "collectionAddr",
									"type": "address"
								},
								{
									"internalType": "uint256",
									"name": "tokenId",
									"type": "uint256"
								},
								{
									"internalType": "uint256",
									"name": "amount",
									"type": "uint256"
								},
								{
									"internalType": "uint256",
									"name": "duration",
									"type": "uint256"
								},
								{
									"internalType": "uint256",
									"name": "APR",
									"type": "uint256"
								},
								{
									"internalType": "bytes32",
									"name": "status",
									"type": "bytes32"
								}
							],
							"internalType": "struct Platform.ListingInfo",
							"name": "",
							"type": "tuple"
						}
					],
					"stateMutability": "view",
					"type": "function"
				},
				{
					"inputs": [
						{
							"internalType": "uint256",
							"name": "num",
							"type": "uint256"
						}
					],
					"name": "getUpdateTime",
					"outputs": [
						{
							"internalType": "uint256",
							"name": "",
							"type": "uint256"
						}
					],
					"stateMutability": "view",
					"type": "function"
				},
				{
					"inputs": [
						{
							"internalType": "uint256",
							"name": "listingIndex",
							"type": "uint256"
						}
					],
					"name": "giveBackNFT",
					"outputs": [],
					"stateMutability": "nonpayable",
					"type": "function"
				},
				{
					"inputs": [
						{
							"internalType": "address",
							"name": "collectionAddr",
							"type": "address"
						}
					],
					"name": "isApprove",
					"outputs": [
						{
							"internalType": "bool",
							"name": "",
							"type": "bool"
						}
					],
					"stateMutability": "view",
					"type": "function"
				},
				{
					"inputs": [
						{
							"internalType": "uint256",
							"name": "listingIndex",
							"type": "uint256"
						}
					],
					"name": "isExpired",
					"outputs": [
						{
							"internalType": "uint256",
							"name": "",
							"type": "uint256"
						},
						{
							"internalType": "bool",
							"name": "",
							"type": "bool"
						}
					],
					"stateMutability": "view",
					"type": "function"
				},
				{
					"inputs": [
						{
							"internalType": "uint256",
							"name": "",
							"type": "uint256"
						}
					],
					"name": "listNum",
					"outputs": [
						{
							"internalType": "address payable",
							"name": "poster",
							"type": "address"
						},
						{
							"internalType": "address",
							"name": "collectionAddr",
							"type": "address"
						},
						{
							"internalType": "uint256",
							"name": "tokenId",
							"type": "uint256"
						},
						{
							"internalType": "uint256",
							"name": "amount",
							"type": "uint256"
						},
						{
							"internalType": "uint256",
							"name": "duration",
							"type": "uint256"
						},
						{
							"internalType": "uint256",
							"name": "APR",
							"type": "uint256"
						},
						{
							"internalType": "bytes32",
							"name": "status",
							"type": "bytes32"
						}
					],
					"stateMutability": "view",
					"type": "function"
				},
				{
					"inputs": [
						{
							"internalType": "uint256",
							"name": "num",
							"type": "uint256"
						}
					],
					"name": "loanerOf",
					"outputs": [
						{
							"internalType": "address",
							"name": "",
							"type": "address"
						}
					],
					"stateMutability": "view",
					"type": "function"
				},
				{
					"inputs": [
						{
							"internalType": "address",
							"name": "collectionAddr",
							"type": "address"
						},
						{
							"internalType": "uint256",
							"name": "tokenId",
							"type": "uint256"
						},
						{
							"internalType": "uint256",
							"name": "amount",
							"type": "uint256"
						},
						{
							"internalType": "uint256",
							"name": "duration",
							"type": "uint256"
						},
						{
							"internalType": "uint256",
							"name": "APR",
							"type": "uint256"
						}
					],
					"name": "openListing",
					"outputs": [],
					"stateMutability": "nonpayable",
					"type": "function"
				},
				{
					"inputs": [
						{
							"internalType": "address",
							"name": "collectionAddr",
							"type": "address"
						},
						{
							"internalType": "uint256",
							"name": "tokenId",
							"type": "uint256"
						}
					],
					"name": "ownerOf",
					"outputs": [
						{
							"internalType": "address",
							"name": "",
							"type": "address"
						}
					],
					"stateMutability": "view",
					"type": "function"
				},
				{
					"inputs": [
						{
							"internalType": "uint256",
							"name": "listingIndex",
							"type": "uint256"
						}
					],
					"name": "repayLoan",
					"outputs": [],
					"stateMutability": "nonpayable",
					"type": "function"
				},
				{
					"inputs": [
						{
							"internalType": "uint256",
							"name": "listingIndex",
							"type": "uint256"
						}
					],
					"name": "updateTime",
					"outputs": [],
					"stateMutability": "nonpayable",
					"type": "function"
				}
			],
			"devdoc": {
				"kind": "dev",
				"methods": {},
				"version": 1
			},
			"evm": {
				"assembly": "    /* \"platform.sol\":118:5867  contract Platform {... */\n  mstore(0x40, 0x80)\n    /* \"platform.sol\":896:897  1 */\n  0x01\n    /* \"platform.sol\":878:897  uint256 counter = 1 */\n  0x04\n  sstore\n    /* \"platform.sol\":923:926  365 */\n  0x016d\n    /* \"platform.sol\":903:926  uint256 yearToDay = 365 */\n  0x05\n  sstore\n    /* \"platform.sol\":953:960  2592000 */\n  0x278d00\n    /* \"platform.sol\":932:960  uint256 monthToSec = 2592000 */\n  0x06\n  sstore\n    /* \"platform.sol\":985:990  86400 */\n  0x015180\n    /* \"platform.sol\":966:990  uint256 dayToSec = 86400 */\n  0x07\n  sstore\n    /* \"platform.sol\":1015:1017  60 */\n  0x3c\n    /* \"platform.sol\":996:1017  uint256 minTosec = 60 */\n  0x08\n  sstore\n    /* \"platform.sol\":118:5867  contract Platform {... */\n  callvalue\n  dup1\n  iszero\n  tag_1\n  jumpi\n  0x00\n  dup1\n  revert\ntag_1:\n  pop\n  dataSize(sub_0)\n  dup1\n  dataOffset(sub_0)\n  0x00\n  codecopy\n  0x00\n  return\nstop\n\nsub_0: assembly {\n        /* \"platform.sol\":118:5867  contract Platform {... */\n      mstore(0x40, 0x80)\n      callvalue\n      dup1\n      iszero\n      tag_1\n      jumpi\n      0x00\n      dup1\n      revert\n    tag_1:\n      pop\n      jumpi(tag_2, lt(calldatasize, 0x04))\n      shr(0xe0, calldataload(0x00))\n      dup1\n      0xaadc1ac1\n      gt\n      tag_19\n      jumpi\n      dup1\n      0xce5b8d35\n      gt\n      tag_20\n      jumpi\n      dup1\n      0xce5b8d35\n      eq\n      tag_15\n      jumpi\n      dup1\n      0xd9548e53\n      eq\n      tag_16\n      jumpi\n      dup1\n      0xe5a255cb\n      eq\n      tag_17\n      jumpi\n      dup1\n      0xeeabfc4a\n      eq\n      tag_18\n      jumpi\n      jump(tag_2)\n    tag_20:\n      dup1\n      0xaadc1ac1\n      eq\n      tag_11\n      jumpi\n      dup1\n      0xab7b1c89\n      eq\n      tag_12\n      jumpi\n      dup1\n      0xb1209d4a\n      eq\n      tag_13\n      jumpi\n      dup1\n      0xb9314135\n      eq\n      tag_14\n      jumpi\n      jump(tag_2)\n    tag_19:\n      dup1\n      0x6c59bd0c\n      gt\n      tag_21\n      jumpi\n      dup1\n      0x6c59bd0c\n      eq\n      tag_7\n      jumpi\n      dup1\n      0x880fe941\n      eq\n      tag_8\n      jumpi\n      dup1\n      0x8ada066e\n      eq\n      tag_9\n      jumpi\n      dup1\n      0x907c64f5\n      eq\n      tag_10\n      jumpi\n      jump(tag_2)\n    tag_21:\n      dup1\n      0x084af0b2\n      eq\n      tag_3\n      jumpi\n      dup1\n      0x1ac31f0d\n      eq\n      tag_4\n      jumpi\n      dup1\n      0x1f29d2dc\n      eq\n      tag_5\n      jumpi\n      dup1\n      0x4f694690\n      eq\n      tag_6\n      jumpi\n    tag_2:\n      0x00\n      dup1\n      revert\n        /* \"platform.sol\":1028:1139  function getListing(address addr) public view returns (uint256[] memory) {... */\n    tag_3:\n      tag_22\n      0x04\n      dup1\n      calldatasize\n      sub\n      dup2\n      add\n      swap1\n      tag_23\n      swap2\n      swap1\n      tag_24\n      jump\t// in\n    tag_23:\n      tag_25\n      jump\t// in\n    tag_22:\n      mload(0x40)\n      tag_26\n      swap2\n      swap1\n      tag_27\n      jump\t// in\n    tag_26:\n      mload(0x40)\n      dup1\n      swap2\n      sub\n      swap1\n      return\n        /* \"platform.sol\":5017:5434  function calculateRepayAmount(uint256 listingIndex) public view returns (uint256) {... */\n    tag_4:\n      tag_28\n      0x04\n      dup1\n      calldatasize\n      sub\n      dup2\n      add\n      swap1\n      tag_29\n      swap2\n      swap1\n      tag_30\n      jump\t// in\n    tag_29:\n      tag_31\n      jump\t// in\n    tag_28:\n      mload(0x40)\n      tag_32\n      swap2\n      swap1\n      tag_33\n      jump\t// in\n    tag_32:\n      mload(0x40)\n      dup1\n      swap2\n      sub\n      swap1\n      return\n        /* \"platform.sol\":1354:1506  function ownerOf(address collectionAddr, uint256 tokenId) public view returns (address) {... */\n    tag_5:\n      tag_34\n      0x04\n      dup1\n      calldatasize\n      sub\n      dup2\n      add\n      swap1\n      tag_35\n      swap2\n      swap1\n      tag_36\n      jump\t// in\n    tag_35:\n      tag_37\n      jump\t// in\n    tag_34:\n      mload(0x40)\n      tag_38\n      swap2\n      swap1\n      tag_39\n      jump\t// in\n    tag_38:\n      mload(0x40)\n      dup1\n      swap2\n      sub\n      swap1\n      return\n        /* \"platform.sol\":1512:1673  function isApprove(address collectionAddr) public view returns (bool) {... */\n    tag_6:\n      tag_40\n      0x04\n      dup1\n      calldatasize\n      sub\n      dup2\n      add\n      swap1\n      tag_41\n      swap2\n      swap1\n      tag_24\n      jump\t// in\n    tag_41:\n      tag_42\n      jump\t// in\n    tag_40:\n      mload(0x40)\n      tag_43\n      swap2\n      swap1\n      tag_44\n      jump\t// in\n    tag_43:\n      mload(0x40)\n      dup1\n      swap2\n      sub\n      swap1\n      return\n        /* \"platform.sol\":3082:3191  function updateTime(uint256 listingIndex) public {... */\n    tag_7:\n      tag_45\n      0x04\n      dup1\n      calldatasize\n      sub\n      dup2\n      add\n      swap1\n      tag_46\n      swap2\n      swap1\n      tag_30\n      jump\t// in\n    tag_46:\n      tag_47\n      jump\t// in\n    tag_45:\n      stop\n        /* \"platform.sol\":1893:2637  function openListing(... */\n    tag_8:\n      tag_48\n      0x04\n      dup1\n      calldatasize\n      sub\n      dup2\n      add\n      swap1\n      tag_49\n      swap2\n      swap1\n      tag_50\n      jump\t// in\n    tag_49:\n      tag_51\n      jump\t// in\n    tag_48:\n      stop\n        /* \"platform.sol\":1265:1348  function getCounter() public view returns (uint256) {... */\n    tag_9:\n      tag_52\n      tag_53\n      jump\t// in\n    tag_52:\n      mload(0x40)\n      tag_54\n      swap2\n      swap1\n      tag_33\n      jump\t// in\n    tag_54:\n      mload(0x40)\n      dup1\n      swap2\n      sub\n      swap1\n      return\n        /* \"platform.sol\":1679:1775  function loanerOf(uint256 num) public view returns (address) {... */\n    tag_10:\n      tag_55\n      0x04\n      dup1\n      calldatasize\n      sub\n      dup2\n      add\n      swap1\n      tag_56\n      swap2\n      swap1\n      tag_30\n      jump\t// in\n    tag_56:\n      tag_57\n      jump\t// in\n    tag_55:\n      mload(0x40)\n      tag_58\n      swap2\n      swap1\n      tag_39\n      jump\t// in\n    tag_58:\n      mload(0x40)\n      dup1\n      swap2\n      sub\n      swap1\n      return\n        /* \"platform.sol\":3786:4456  function approveLoan(uint256 listingIndex) public {... */\n    tag_11:\n      tag_59\n      0x04\n      dup1\n      calldatasize\n      sub\n      dup2\n      add\n      swap1\n      tag_60\n      swap2\n      swap1\n      tag_30\n      jump\t// in\n    tag_60:\n      tag_61\n      jump\t// in\n    tag_59:\n      stop\n        /* \"platform.sol\":4463:5011  function repayLoan(uint256 listingIndex) public {... */\n    tag_12:\n      tag_62\n      0x04\n      dup1\n      calldatasize\n      sub\n      dup2\n      add\n      swap1\n      tag_63\n      swap2\n      swap1\n      tag_30\n      jump\t// in\n    tag_63:\n      tag_64\n      jump\t// in\n    tag_62:\n      stop\n        /* \"platform.sol\":1781:1887  function getUpdateTime(uint256 num) public view returns (uint256) {... */\n    tag_13:\n      tag_65\n      0x04\n      dup1\n      calldatasize\n      sub\n      dup2\n      add\n      swap1\n      tag_66\n      swap2\n      swap1\n      tag_30\n      jump\t// in\n    tag_66:\n      tag_67\n      jump\t// in\n    tag_65:\n      mload(0x40)\n      tag_68\n      swap2\n      swap1\n      tag_33\n      jump\t// in\n    tag_68:\n      mload(0x40)\n      dup1\n      swap2\n      sub\n      swap1\n      return\n        /* \"platform.sol\":1145:1259  function getListingInfo(uint256 num) public view returns (ListingInfo memory) {... */\n    tag_14:\n      tag_69\n      0x04\n      dup1\n      calldatasize\n      sub\n      dup2\n      add\n      swap1\n      tag_70\n      swap2\n      swap1\n      tag_30\n      jump\t// in\n    tag_70:\n      tag_71\n      jump\t// in\n    tag_69:\n      mload(0x40)\n      tag_72\n      swap2\n      swap1\n      tag_73\n      jump\t// in\n    tag_72:\n      mload(0x40)\n      dup1\n      swap2\n      sub\n      swap1\n      return\n        /* \"platform.sol\":5444:5865  function giveBackNFT(uint256 listingIndex) public {... */\n    tag_15:\n      tag_74\n      0x04\n      dup1\n      calldatasize\n      sub\n      dup2\n      add\n      swap1\n      tag_75\n      swap2\n      swap1\n      tag_30\n      jump\t// in\n    tag_75:\n      tag_76\n      jump\t// in\n    tag_74:\n      stop\n        /* \"platform.sol\":3197:3780  function isExpired(uint256 listingIndex) public view returns (uint256, bool) {... */\n    tag_16:\n      tag_77\n      0x04\n      dup1\n      calldatasize\n      sub\n      dup2\n      add\n      swap1\n      tag_78\n      swap2\n      swap1\n      tag_30\n      jump\t// in\n    tag_78:\n      tag_79\n      jump\t// in\n    tag_77:\n      mload(0x40)\n      tag_80\n      swap3\n      swap2\n      swap1\n      tag_81\n      jump\t// in\n    tag_80:\n      mload(0x40)\n      dup1\n      swap2\n      sub\n      swap1\n      return\n        /* \"platform.sol\":2647:3076  function closeListing(uint256 listingIndex) public {... */\n    tag_17:\n      tag_82\n      0x04\n      dup1\n      calldatasize\n      sub\n      dup2\n      add\n      swap1\n      tag_83\n      swap2\n      swap1\n      tag_30\n      jump\t// in\n    tag_83:\n      tag_84\n      jump\t// in\n    tag_82:\n      stop\n        /* \"platform.sol\":688:734  mapping(uint256 => ListingInfo) public listNum */\n    tag_18:\n      tag_85\n      0x04\n      dup1\n      calldatasize\n      sub\n      dup2\n      add\n      swap1\n      tag_86\n      swap2\n      swap1\n      tag_30\n      jump\t// in\n    tag_86:\n      tag_87\n      jump\t// in\n    tag_85:\n      mload(0x40)\n      tag_88\n      swap8\n      swap7\n      swap6\n      swap5\n      swap4\n      swap3\n      swap2\n      swap1\n      tag_89\n      jump\t// in\n    tag_88:\n      mload(0x40)\n      dup1\n      swap2\n      sub\n      swap1\n      return\n        /* \"platform.sol\":1028:1139  function getListing(address addr) public view returns (uint256[] memory) {... */\n    tag_25:\n        /* \"platform.sol\":1083:1099  uint256[] memory */\n      0x60\n        /* \"platform.sol\":1118:1126  addrList */\n      0x01\n        /* \"platform.sol\":1118:1132  addrList[addr] */\n      0x00\n        /* \"platform.sol\":1127:1131  addr */\n      dup4\n        /* \"platform.sol\":1118:1132  addrList[addr] */\n      0xffffffffffffffffffffffffffffffffffffffff\n      and\n      0xffffffffffffffffffffffffffffffffffffffff\n      and\n      dup2\n      mstore\n      0x20\n      add\n      swap1\n      dup2\n      mstore\n      0x20\n      add\n      0x00\n      keccak256\n        /* \"platform.sol\":1111:1132  return addrList[addr] */\n      dup1\n      sload\n      dup1\n      0x20\n      mul\n      0x20\n      add\n      mload(0x40)\n      swap1\n      dup2\n      add\n      0x40\n      mstore\n      dup1\n      swap3\n      swap2\n      swap1\n      dup2\n      dup2\n      mstore\n      0x20\n      add\n      dup3\n      dup1\n      sload\n      dup1\n      iszero\n      tag_91\n      jumpi\n      0x20\n      mul\n      dup3\n      add\n      swap2\n      swap1\n      0x00\n      mstore\n      keccak256(0x00, 0x20)\n      swap1\n    tag_92:\n      dup2\n      sload\n      dup2\n      mstore\n      0x20\n      add\n      swap1\n      0x01\n      add\n      swap1\n      dup1\n      dup4\n      gt\n      tag_92\n      jumpi\n    tag_91:\n      pop\n      pop\n      pop\n      pop\n      pop\n      swap1\n      pop\n        /* \"platform.sol\":1028:1139  function getListing(address addr) public view returns (uint256[] memory) {... */\n      swap2\n      swap1\n      pop\n      jump\t// out\n        /* \"platform.sol\":5017:5434  function calculateRepayAmount(uint256 listingIndex) public view returns (uint256) {... */\n    tag_31:\n        /* \"platform.sol\":5090:5097  uint256 */\n      0x00\n        /* \"platform.sol\":5109:5132  ListingInfo memory info */\n      dup1\n        /* \"platform.sol\":5135:5163  getListingInfo(listingIndex) */\n      tag_94\n        /* \"platform.sol\":5150:5162  listingIndex */\n      dup4\n        /* \"platform.sol\":5135:5149  getListingInfo */\n      tag_71\n        /* \"platform.sol\":5135:5163  getListingInfo(listingIndex) */\n      jump\t// in\n    tag_94:\n        /* \"platform.sol\":5109:5163  ListingInfo memory info = getListingInfo(listingIndex) */\n      swap1\n      pop\n        /* \"platform.sol\":5173:5195  uint256 interestPerDay */\n      0x00\n        /* \"platform.sol\":5230:5239  yearToDay */\n      sload(0x05)\n        /* \"platform.sol\":5224:5227  100 */\n      0x64\n        /* \"platform.sol\":5213:5217  info */\n      dup4\n        /* \"platform.sol\":5213:5221  info.APR */\n      0xa0\n      add\n      mload\n        /* \"platform.sol\":5213:5227  info.APR / 100 */\n      tag_95\n      swap2\n      swap1\n      tag_96\n      jump\t// in\n    tag_95:\n        /* \"platform.sol\":5213:5239  info.APR / 100 / yearToDay */\n      tag_97\n      swap2\n      swap1\n      tag_96\n      jump\t// in\n    tag_97:\n        /* \"platform.sol\":5198:5202  info */\n      dup3\n        /* \"platform.sol\":5198:5209  info.amount */\n      0x60\n      add\n      mload\n        /* \"platform.sol\":5198:5240  info.amount * (info.APR / 100 / yearToDay) */\n      tag_98\n      swap2\n      swap1\n      tag_99\n      jump\t// in\n    tag_98:\n        /* \"platform.sol\":5173:5240  uint256 interestPerDay = info.amount * (info.APR / 100 / yearToDay) */\n      swap1\n      pop\n        /* \"platform.sol\":5250:5269  uint256 elapsedDays */\n      0x00\n        /* \"platform.sol\":5321:5329  dayToSec */\n      sload(0x07)\n        /* \"platform.sol\":5291:5302  updatedTime */\n      0x02\n        /* \"platform.sol\":5291:5316  updatedTime[listingIndex] */\n      0x00\n        /* \"platform.sol\":5303:5315  listingIndex */\n      dup8\n        /* \"platform.sol\":5291:5316  updatedTime[listingIndex] */\n      dup2\n      mstore\n      0x20\n      add\n      swap1\n      dup2\n      mstore\n      0x20\n      add\n      0x00\n      keccak256\n      sload\n        /* \"platform.sol\":5273:5288  block.timestamp */\n      timestamp\n        /* \"platform.sol\":5273:5316  block.timestamp - updatedTime[listingIndex] */\n      tag_100\n      swap2\n      swap1\n      tag_101\n      jump\t// in\n    tag_100:\n        /* \"platform.sol\":5272:5329  (block.timestamp - updatedTime[listingIndex]) /  dayToSec */\n      tag_102\n      swap2\n      swap1\n      tag_96\n      jump\t// in\n    tag_102:\n        /* \"platform.sol\":5250:5329  uint256 elapsedDays = (block.timestamp - updatedTime[listingIndex]) /  dayToSec */\n      swap1\n      pop\n        /* \"platform.sol\":5339:5356  uint256 sumResult */\n      0x00\n        /* \"platform.sol\":5390:5401  elapsedDays */\n      dup2\n        /* \"platform.sol\":5373:5387  interestPerDay */\n      dup4\n        /* \"platform.sol\":5373:5401  interestPerDay * elapsedDays */\n      tag_103\n      swap2\n      swap1\n      tag_99\n      jump\t// in\n    tag_103:\n        /* \"platform.sol\":5359:5363  info */\n      dup5\n        /* \"platform.sol\":5359:5370  info.amount */\n      0x60\n      add\n      mload\n        /* \"platform.sol\":5359:5401  info.amount + interestPerDay * elapsedDays */\n      tag_104\n      swap2\n      swap1\n      tag_105\n      jump\t// in\n    tag_104:\n        /* \"platform.sol\":5339:5401  uint256 sumResult = info.amount + interestPerDay * elapsedDays */\n      swap1\n      pop\n        /* \"platform.sol\":5418:5427  sumResult */\n      dup1\n        /* \"platform.sol\":5411:5427  return sumResult */\n      swap5\n      pop\n      pop\n      pop\n      pop\n      pop\n        /* \"platform.sol\":5017:5434  function calculateRepayAmount(uint256 listingIndex) public view returns (uint256) {... */\n      swap2\n      swap1\n      pop\n      jump\t// out\n        /* \"platform.sol\":1354:1506  function ownerOf(address collectionAddr, uint256 tokenId) public view returns (address) {... */\n    tag_37:\n        /* \"platform.sol\":1433:1440  address */\n      0x00\n        /* \"platform.sol\":1467:1481  collectionAddr */\n      dup3\n        /* \"platform.sol\":1459:1490  IERC721(collectionAddr).ownerOf */\n      0xffffffffffffffffffffffffffffffffffffffff\n      and\n      0x6352211e\n        /* \"platform.sol\":1491:1498  tokenId */\n      dup4\n        /* \"platform.sol\":1459:1499  IERC721(collectionAddr).ownerOf(tokenId) */\n      mload(0x40)\n      dup3\n      0xffffffff\n      and\n      0xe0\n      shl\n      dup2\n      mstore\n      0x04\n      add\n      tag_107\n      swap2\n      swap1\n      tag_33\n      jump\t// in\n    tag_107:\n      0x20\n      mload(0x40)\n      dup1\n      dup4\n      sub\n      dup2\n      dup7\n      gas\n      staticcall\n      iszero\n      dup1\n      iszero\n      tag_109\n      jumpi\n      returndatasize\n      0x00\n      dup1\n      returndatacopy\n      revert(0x00, returndatasize)\n    tag_109:\n      pop\n      pop\n      pop\n      pop\n      mload(0x40)\n      returndatasize\n      not(0x1f)\n      0x1f\n      dup3\n      add\n      and\n      dup3\n      add\n      dup1\n      0x40\n      mstore\n      pop\n      dup2\n      add\n      swap1\n      tag_110\n      swap2\n      swap1\n      tag_111\n      jump\t// in\n    tag_110:\n        /* \"platform.sol\":1452:1499  return IERC721(collectionAddr).ownerOf(tokenId) */\n      swap1\n      pop\n        /* \"platform.sol\":1354:1506  function ownerOf(address collectionAddr, uint256 tokenId) public view returns (address) {... */\n      swap3\n      swap2\n      pop\n      pop\n      jump\t// out\n        /* \"platform.sol\":1512:1673  function isApprove(address collectionAddr) public view returns (bool) {... */\n    tag_42:\n        /* \"platform.sol\":1576:1580  bool */\n      0x00\n        /* \"platform.sol\":1607:1621  collectionAddr */\n      dup2\n        /* \"platform.sol\":1599:1639  IERC721(collectionAddr).isApprovedForAll */\n      0xffffffffffffffffffffffffffffffffffffffff\n      and\n      0xe985e9c5\n        /* \"platform.sol\":1640:1650  msg.sender */\n      caller\n        /* \"platform.sol\":1660:1664  this */\n      address\n        /* \"platform.sol\":1599:1666  IERC721(collectionAddr).isApprovedForAll(msg.sender, address(this)) */\n      mload(0x40)\n      dup4\n      0xffffffff\n      and\n      0xe0\n      shl\n      dup2\n      mstore\n      0x04\n      add\n      tag_113\n      swap3\n      swap2\n      swap1\n      tag_114\n      jump\t// in\n    tag_113:\n      0x20\n      mload(0x40)\n      dup1\n      dup4\n      sub\n      dup2\n      dup7\n      gas\n      staticcall\n      iszero\n      dup1\n      iszero\n      tag_116\n      jumpi\n      returndatasize\n      0x00\n      dup1\n      returndatacopy\n      revert(0x00, returndatasize)\n    tag_116:\n      pop\n      pop\n      pop\n      pop\n      mload(0x40)\n      returndatasize\n      not(0x1f)\n      0x1f\n      dup3\n      add\n      and\n      dup3\n      add\n      dup1\n      0x40\n      mstore\n      pop\n      dup2\n      add\n      swap1\n      tag_117\n      swap2\n      swap1\n      tag_118\n      jump\t// in\n    tag_117:\n        /* \"platform.sol\":1592:1666  return IERC721(collectionAddr).isApprovedForAll(msg.sender, address(this)) */\n      swap1\n      pop\n        /* \"platform.sol\":1512:1673  function isApprove(address collectionAddr) public view returns (bool) {... */\n      swap2\n      swap1\n      pop\n      jump\t// out\n        /* \"platform.sol\":3082:3191  function updateTime(uint256 listingIndex) public {... */\n    tag_47:\n        /* \"platform.sol\":3169:3184  block.timestamp */\n      timestamp\n        /* \"platform.sol\":3141:3152  updatedTime */\n      0x02\n        /* \"platform.sol\":3141:3166  updatedTime[listingIndex] */\n      0x00\n        /* \"platform.sol\":3153:3165  listingIndex */\n      dup4\n        /* \"platform.sol\":3141:3166  updatedTime[listingIndex] */\n      dup2\n      mstore\n      0x20\n      add\n      swap1\n      dup2\n      mstore\n      0x20\n      add\n      0x00\n      keccak256\n        /* \"platform.sol\":3141:3184  updatedTime[listingIndex] = block.timestamp */\n      dup2\n      swap1\n      sstore\n      pop\n        /* \"platform.sol\":3082:3191  function updateTime(uint256 listingIndex) public {... */\n      pop\n      jump\t// out\n        /* \"platform.sol\":1893:2637  function openListing(... */\n    tag_51:\n        /* \"platform.sol\":2082:2083  0 */\n      0x00\n        /* \"platform.sol\":2073:2079  amount */\n      dup4\n        /* \"platform.sol\":2073:2083  amount > 0 */\n      gt\n        /* \"platform.sol\":2073:2099  amount > 0 && duration > 0 */\n      dup1\n      iszero\n      tag_121\n      jumpi\n      pop\n        /* \"platform.sol\":2098:2099  0 */\n      0x00\n        /* \"platform.sol\":2087:2095  duration */\n      dup3\n        /* \"platform.sol\":2087:2099  duration > 0 */\n      gt\n        /* \"platform.sol\":2073:2099  amount > 0 && duration > 0 */\n    tag_121:\n        /* \"platform.sol\":2073:2110  amount > 0 && duration > 0 && APR > 0 */\n      dup1\n      iszero\n      tag_122\n      jumpi\n      pop\n        /* \"platform.sol\":2109:2110  0 */\n      0x00\n        /* \"platform.sol\":2103:2106  APR */\n      dup2\n        /* \"platform.sol\":2103:2110  APR > 0 */\n      gt\n        /* \"platform.sol\":2073:2110  amount > 0 && duration > 0 && APR > 0 */\n    tag_122:\n        /* \"platform.sol\":2065:2147  require(amount > 0 && duration > 0 && APR > 0, \"Values must be greater than zero\") */\n      tag_123\n      jumpi\n      mload(0x40)\n      0x08c379a000000000000000000000000000000000000000000000000000000000\n      dup2\n      mstore\n      0x04\n      add\n      tag_124\n      swap1\n      tag_125\n      jump\t// in\n    tag_124:\n      mload(0x40)\n      dup1\n      swap2\n      sub\n      swap1\n      revert\n    tag_123:\n        /* \"platform.sol\":2209:2219  msg.sender */\n      caller\n        /* \"platform.sol\":2165:2219  IERC721(collectionAddr).ownerOf(tokenId) == msg.sender */\n      0xffffffffffffffffffffffffffffffffffffffff\n      and\n        /* \"platform.sol\":2173:2187  collectionAddr */\n      dup6\n        /* \"platform.sol\":2165:2196  IERC721(collectionAddr).ownerOf */\n      0xffffffffffffffffffffffffffffffffffffffff\n      and\n      0x6352211e\n        /* \"platform.sol\":2197:2204  tokenId */\n      dup7\n        /* \"platform.sol\":2165:2205  IERC721(collectionAddr).ownerOf(tokenId) */\n      mload(0x40)\n      dup3\n      0xffffffff\n      and\n      0xe0\n      shl\n      dup2\n      mstore\n      0x04\n      add\n      tag_126\n      swap2\n      swap1\n      tag_33\n      jump\t// in\n    tag_126:\n      0x20\n      mload(0x40)\n      dup1\n      dup4\n      sub\n      dup2\n      dup7\n      gas\n      staticcall\n      iszero\n      dup1\n      iszero\n      tag_128\n      jumpi\n      returndatasize\n      0x00\n      dup1\n      returndatacopy\n      revert(0x00, returndatasize)\n    tag_128:\n      pop\n      pop\n      pop\n      pop\n      mload(0x40)\n      returndatasize\n      not(0x1f)\n      0x1f\n      dup3\n      add\n      and\n      dup3\n      add\n      dup1\n      0x40\n      mstore\n      pop\n      dup2\n      add\n      swap1\n      tag_129\n      swap2\n      swap1\n      tag_111\n      jump\t// in\n    tag_129:\n        /* \"platform.sol\":2165:2219  IERC721(collectionAddr).ownerOf(tokenId) == msg.sender */\n      0xffffffffffffffffffffffffffffffffffffffff\n      and\n      eq\n        /* \"platform.sol\":2157:2256  require(IERC721(collectionAddr).ownerOf(tokenId) == msg.sender, \"You are not holder of this token\") */\n      tag_130\n      jumpi\n      mload(0x40)\n      0x08c379a000000000000000000000000000000000000000000000000000000000\n      dup2\n      mstore\n      0x04\n      add\n      tag_131\n      swap1\n      tag_132\n      jump\t// in\n    tag_131:\n      mload(0x40)\n      dup1\n      swap2\n      sub\n      swap1\n      revert\n    tag_130:\n        /* \"platform.sol\":2266:2289  ListingInfo memory info */\n      0x00\n        /* \"platform.sol\":2292:2380  ListingInfo(payable(msg.sender), collectionAddr, tokenId, amount, duration, APR, \"open\") */\n      mload(0x40)\n      dup1\n      0xe0\n      add\n      0x40\n      mstore\n      dup1\n        /* \"platform.sol\":2312:2322  msg.sender */\n      caller\n        /* \"platform.sol\":2292:2380  ListingInfo(payable(msg.sender), collectionAddr, tokenId, amount, duration, APR, \"open\") */\n      0xffffffffffffffffffffffffffffffffffffffff\n      and\n      dup2\n      mstore\n      0x20\n      add\n        /* \"platform.sol\":2325:2339  collectionAddr */\n      dup8\n        /* \"platform.sol\":2292:2380  ListingInfo(payable(msg.sender), collectionAddr, tokenId, amount, duration, APR, \"open\") */\n      0xffffffffffffffffffffffffffffffffffffffff\n      and\n      dup2\n      mstore\n      0x20\n      add\n        /* \"platform.sol\":2341:2348  tokenId */\n      dup7\n        /* \"platform.sol\":2292:2380  ListingInfo(payable(msg.sender), collectionAddr, tokenId, amount, duration, APR, \"open\") */\n      dup2\n      mstore\n      0x20\n      add\n        /* \"platform.sol\":2350:2356  amount */\n      dup6\n        /* \"platform.sol\":2292:2380  ListingInfo(payable(msg.sender), collectionAddr, tokenId, amount, duration, APR, \"open\") */\n      dup2\n      mstore\n      0x20\n      add\n        /* \"platform.sol\":2358:2366  duration */\n      dup5\n        /* \"platform.sol\":2292:2380  ListingInfo(payable(msg.sender), collectionAddr, tokenId, amount, duration, APR, \"open\") */\n      dup2\n      mstore\n      0x20\n      add\n        /* \"platform.sol\":2368:2371  APR */\n      dup4\n        /* \"platform.sol\":2292:2380  ListingInfo(payable(msg.sender), collectionAddr, tokenId, amount, duration, APR, \"open\") */\n      dup2\n      mstore\n      0x20\n      add\n      0x6f70656e00000000000000000000000000000000000000000000000000000000\n      dup2\n      mstore\n      pop\n        /* \"platform.sol\":2266:2380  ListingInfo memory info = ListingInfo(payable(msg.sender), collectionAddr, tokenId, amount, duration, APR, \"open\") */\n      swap1\n      pop\n        /* \"platform.sol\":2409:2413  info */\n      dup1\n        /* \"platform.sol\":2390:2397  listNum */\n      0x00\n        /* \"platform.sol\":2390:2406  listNum[counter] */\n      dup1\n        /* \"platform.sol\":2398:2405  counter */\n      sload(0x04)\n        /* \"platform.sol\":2390:2406  listNum[counter] */\n      dup2\n      mstore\n      0x20\n      add\n      swap1\n      dup2\n      mstore\n      0x20\n      add\n      0x00\n      keccak256\n        /* \"platform.sol\":2390:2413  listNum[counter] = info */\n      0x00\n      dup3\n      add\n      mload\n      dup2\n      0x00\n      add\n      exp(0x0100, 0x00)\n      dup2\n      sload\n      dup2\n      0xffffffffffffffffffffffffffffffffffffffff\n      mul\n      not\n      and\n      swap1\n      dup4\n      0xffffffffffffffffffffffffffffffffffffffff\n      and\n      mul\n      or\n      swap1\n      sstore\n      pop\n      0x20\n      dup3\n      add\n      mload\n      dup2\n      0x01\n      add\n      exp(0x0100, 0x00)\n      dup2\n      sload\n      dup2\n      0xffffffffffffffffffffffffffffffffffffffff\n      mul\n      not\n      and\n      swap1\n      dup4\n      0xffffffffffffffffffffffffffffffffffffffff\n      and\n      mul\n      or\n      swap1\n      sstore\n      pop\n      0x40\n      dup3\n      add\n      mload\n      dup2\n      0x02\n      add\n      sstore\n      0x60\n      dup3\n      add\n      mload\n      dup2\n      0x03\n      add\n      sstore\n      0x80\n      dup3\n      add\n      mload\n      dup2\n      0x04\n      add\n      sstore\n      0xa0\n      dup3\n      add\n      mload\n      dup2\n      0x05\n      add\n      sstore\n      0xc0\n      dup3\n      add\n      mload\n      dup2\n      0x06\n      add\n      sstore\n      swap1\n      pop\n      pop\n        /* \"platform.sol\":2423:2431  addrList */\n      0x01\n        /* \"platform.sol\":2423:2443  addrList[msg.sender] */\n      0x00\n        /* \"platform.sol\":2432:2442  msg.sender */\n      caller\n        /* \"platform.sol\":2423:2443  addrList[msg.sender] */\n      0xffffffffffffffffffffffffffffffffffffffff\n      and\n      0xffffffffffffffffffffffffffffffffffffffff\n      and\n      dup2\n      mstore\n      0x20\n      add\n      swap1\n      dup2\n      mstore\n      0x20\n      add\n      0x00\n      keccak256\n        /* \"platform.sol\":2449:2456  counter */\n      sload(0x04)\n        /* \"platform.sol\":2423:2457  addrList[msg.sender].push(counter) */\n      swap1\n      dup1\n      0x01\n      dup2\n      sload\n      add\n      dup1\n      dup3\n      sstore\n      dup1\n      swap2\n      pop\n      pop\n      0x01\n      swap1\n      sub\n      swap1\n      0x00\n      mstore\n      keccak256(0x00, 0x20)\n      add\n      0x00\n      swap1\n      swap2\n      swap1\n      swap2\n      swap1\n      swap2\n      pop\n      sstore\n        /* \"platform.sol\":2475:2489  collectionAddr */\n      dup6\n        /* \"platform.sol\":2467:2503  IERC721(collectionAddr).transferFrom */\n      0xffffffffffffffffffffffffffffffffffffffff\n      and\n      0x23b872dd\n        /* \"platform.sol\":2504:2514  msg.sender */\n      caller\n        /* \"platform.sol\":2524:2528  this */\n      address\n        /* \"platform.sol\":2531:2538  tokenId */\n      dup9\n        /* \"platform.sol\":2467:2539  IERC721(collectionAddr).transferFrom(msg.sender, address(this), tokenId) */\n      mload(0x40)\n      dup5\n      0xffffffff\n      and\n      0xe0\n      shl\n      dup2\n      mstore\n      0x04\n      add\n      tag_134\n      swap4\n      swap3\n      swap2\n      swap1\n      tag_135\n      jump\t// in\n    tag_134:\n      0x00\n      mload(0x40)\n      dup1\n      dup4\n      sub\n      dup2\n      0x00\n      dup8\n      dup1\n      extcodesize\n      iszero\n      dup1\n      iszero\n      tag_136\n      jumpi\n      0x00\n      dup1\n      revert\n    tag_136:\n      pop\n      gas\n      call\n      iszero\n      dup1\n      iszero\n      tag_138\n      jumpi\n      returndatasize\n      0x00\n      dup1\n      returndatacopy\n      revert(0x00, returndatasize)\n    tag_138:\n      pop\n      pop\n      pop\n      pop\n        /* \"platform.sol\":2549:2568  updateTime(counter) */\n      tag_139\n        /* \"platform.sol\":2560:2567  counter */\n      sload(0x04)\n        /* \"platform.sol\":2549:2559  updateTime */\n      tag_47\n        /* \"platform.sol\":2549:2568  updateTime(counter) */\n      jump\t// in\n    tag_139:\n        /* \"platform.sol\":2578:2585  counter */\n      0x04\n      0x00\n        /* \"platform.sol\":2578:2587  counter++ */\n      dup2\n      sload\n      dup1\n      swap3\n      swap2\n      swap1\n      tag_140\n      swap1\n      tag_141\n      jump\t// in\n    tag_140:\n      swap2\n      swap1\n      pop\n      sstore\n      pop\n        /* \"platform.sol\":2602:2630  NewListing(msg.sender, info) */\n      0xf767ad1ae2d5476327f80bef89fbc70354c993e3059ed3d504d127921f60c40b\n        /* \"platform.sol\":2613:2623  msg.sender */\n      caller\n        /* \"platform.sol\":2625:2629  info */\n      dup3\n        /* \"platform.sol\":2602:2630  NewListing(msg.sender, info) */\n      mload(0x40)\n      tag_142\n      swap3\n      swap2\n      swap1\n      tag_143\n      jump\t// in\n    tag_142:\n      mload(0x40)\n      dup1\n      swap2\n      sub\n      swap1\n      log1\n        /* \"platform.sol\":2055:2637  {... */\n      pop\n        /* \"platform.sol\":1893:2637  function openListing(... */\n      pop\n      pop\n      pop\n      pop\n      pop\n      jump\t// out\n        /* \"platform.sol\":1265:1348  function getCounter() public view returns (uint256) {... */\n    tag_53:\n        /* \"platform.sol\":1308:1315  uint256 */\n      0x00\n        /* \"platform.sol\":1334:1341  counter */\n      sload(0x04)\n        /* \"platform.sol\":1327:1341  return counter */\n      swap1\n      pop\n        /* \"platform.sol\":1265:1348  function getCounter() public view returns (uint256) {... */\n      swap1\n      jump\t// out\n        /* \"platform.sol\":1679:1775  function loanerOf(uint256 num) public view returns (address) {... */\n    tag_57:\n        /* \"platform.sol\":1731:1738  address */\n      0x00\n        /* \"platform.sol\":1757:1763  loaner */\n      0x03\n        /* \"platform.sol\":1757:1768  loaner[num] */\n      0x00\n        /* \"platform.sol\":1764:1767  num */\n      dup4\n        /* \"platform.sol\":1757:1768  loaner[num] */\n      dup2\n      mstore\n      0x20\n      add\n      swap1\n      dup2\n      mstore\n      0x20\n      add\n      0x00\n      keccak256\n      0x00\n      swap1\n      sload\n      swap1\n      0x0100\n      exp\n      swap1\n      div\n      0xffffffffffffffffffffffffffffffffffffffff\n      and\n        /* \"platform.sol\":1750:1768  return loaner[num] */\n      swap1\n      pop\n        /* \"platform.sol\":1679:1775  function loanerOf(uint256 num) public view returns (address) {... */\n      swap2\n      swap1\n      pop\n      jump\t// out\n        /* \"platform.sol\":3786:4456  function approveLoan(uint256 listingIndex) public {... */\n    tag_61:\n        /* \"platform.sol\":3846:3870  ListingInfo storage info */\n      0x00\n        /* \"platform.sol\":3873:3880  listNum */\n      dup1\n        /* \"platform.sol\":3873:3894  listNum[listingIndex] */\n      0x00\n        /* \"platform.sol\":3881:3893  listingIndex */\n      dup4\n        /* \"platform.sol\":3873:3894  listNum[listingIndex] */\n      dup2\n      mstore\n      0x20\n      add\n      swap1\n      dup2\n      mstore\n      0x20\n      add\n      0x00\n      keccak256\n        /* \"platform.sol\":3846:3894  ListingInfo storage info = listNum[listingIndex] */\n      swap1\n      pop\n        /* \"platform.sol\":3927:3931  info */\n      dup1\n        /* \"platform.sol\":3927:3938  info.poster */\n      0x00\n      add\n      0x00\n      swap1\n      sload\n      swap1\n      0x0100\n      exp\n      swap1\n      div\n      0xffffffffffffffffffffffffffffffffffffffff\n      and\n        /* \"platform.sol\":3913:3938  msg.sender != info.poster */\n      0xffffffffffffffffffffffffffffffffffffffff\n      and\n        /* \"platform.sol\":3913:3923  msg.sender */\n      caller\n        /* \"platform.sol\":3913:3938  msg.sender != info.poster */\n      0xffffffffffffffffffffffffffffffffffffffff\n      and\n      sub\n        /* \"platform.sol\":3905:3974  require(msg.sender != info.poster, \"It's your own loan application.\") */\n      tag_147\n      jumpi\n      mload(0x40)\n      0x08c379a000000000000000000000000000000000000000000000000000000000\n      dup2\n      mstore\n      0x04\n      add\n      tag_148\n      swap1\n      tag_149\n      jump\t// in\n    tag_148:\n      mload(0x40)\n      dup1\n      swap2\n      sub\n      swap1\n      revert\n    tag_147:\n        /* \"platform.sol\":3984:4003  uint256 amountInWei */\n      0x00\n        /* \"platform.sol\":4020:4027  1 ether */\n      0x0de0b6b3a7640000\n        /* \"platform.sol\":4006:4010  info */\n      dup3\n        /* \"platform.sol\":4006:4017  info.amount */\n      0x03\n      add\n      sload\n        /* \"platform.sol\":4006:4027  info.amount * 1 ether */\n      tag_150\n      swap2\n      swap1\n      tag_99\n      jump\t// in\n    tag_150:\n        /* \"platform.sol\":3984:4027  uint256 amountInWei = info.amount * 1 ether */\n      swap1\n      pop\n        /* \"platform.sol\":4111:4122  amountInWei */\n      dup1\n        /* \"platform.sol\":4089:4099  msg.sender */\n      caller\n        /* \"platform.sol\":4089:4107  msg.sender.balance */\n      0xffffffffffffffffffffffffffffffffffffffff\n      and\n      balance\n        /* \"platform.sol\":4089:4122  msg.sender.balance >= amountInWei */\n      lt\n      iszero\n        /* \"platform.sol\":4081:4165  require(msg.sender.balance >= amountInWei, \"You haven't enough balance for lending\") */\n      tag_151\n      jumpi\n      mload(0x40)\n      0x08c379a000000000000000000000000000000000000000000000000000000000\n      dup2\n      mstore\n      0x04\n      add\n      tag_152\n      swap1\n      tag_153\n      jump\t// in\n    tag_152:\n      mload(0x40)\n      dup1\n      swap2\n      sub\n      swap1\n      revert\n    tag_151:\n        /* \"platform.sol\":4175:4200  info.status = \"executing\" */\n      0x657865637574696e670000000000000000000000000000000000000000000000\n        /* \"platform.sol\":4175:4179  info */\n      dup3\n        /* \"platform.sol\":4175:4186  info.status */\n      0x06\n      add\n        /* \"platform.sol\":4175:4200  info.status = \"executing\" */\n      dup2\n      swap1\n      sstore\n      pop\n        /* \"platform.sol\":4241:4251  msg.sender */\n      caller\n        /* \"platform.sol\":4210:4216  loaner */\n      0x03\n        /* \"platform.sol\":4210:4230  loaner[listingIndex] */\n      0x00\n        /* \"platform.sol\":4217:4229  listingIndex */\n      dup6\n        /* \"platform.sol\":4210:4230  loaner[listingIndex] */\n      dup2\n      mstore\n      0x20\n      add\n      swap1\n      dup2\n      mstore\n      0x20\n      add\n      0x00\n      keccak256\n      0x00\n        /* \"platform.sol\":4210:4252  loaner[listingIndex] = payable(msg.sender) */\n      0x0100\n      exp\n      dup2\n      sload\n      dup2\n      0xffffffffffffffffffffffffffffffffffffffff\n      mul\n      not\n      and\n      swap1\n      dup4\n      0xffffffffffffffffffffffffffffffffffffffff\n      and\n      mul\n      or\n      swap1\n      sstore\n      pop\n        /* \"platform.sol\":4262:4286  updateTime(listingIndex) */\n      tag_154\n        /* \"platform.sol\":4273:4285  listingIndex */\n      dup4\n        /* \"platform.sol\":4262:4272  updateTime */\n      tag_47\n        /* \"platform.sol\":4262:4286  updateTime(listingIndex) */\n      jump\t// in\n    tag_154:\n        /* \"platform.sol\":4297:4309  bool success */\n      0x00\n        /* \"platform.sol\":4315:4319  info */\n      dup3\n        /* \"platform.sol\":4315:4326  info.poster */\n      0x00\n      add\n      0x00\n      swap1\n      sload\n      swap1\n      0x0100\n      exp\n      swap1\n      div\n      0xffffffffffffffffffffffffffffffffffffffff\n      and\n        /* \"platform.sol\":4315:4331  info.poster.call */\n      0xffffffffffffffffffffffffffffffffffffffff\n      and\n        /* \"platform.sol\":4339:4350  amountInWei */\n      dup3\n        /* \"platform.sol\":4315:4355  info.poster.call{value: amountInWei}(\"\") */\n      mload(0x40)\n      tag_155\n      swap1\n      tag_156\n      jump\t// in\n    tag_155:\n      0x00\n      mload(0x40)\n      dup1\n      dup4\n      sub\n      dup2\n      dup6\n      dup8\n      gas\n      call\n      swap3\n      pop\n      pop\n      pop\n      returndatasize\n      dup1\n      0x00\n      dup2\n      eq\n      tag_159\n      jumpi\n      mload(0x40)\n      swap2\n      pop\n      and(add(returndatasize, 0x3f), not(0x1f))\n      dup3\n      add\n      0x40\n      mstore\n      returndatasize\n      dup3\n      mstore\n      returndatasize\n      0x00\n      0x20\n      dup5\n      add\n      returndatacopy\n      jump(tag_158)\n    tag_159:\n      0x60\n      swap2\n      pop\n    tag_158:\n      pop\n        /* \"platform.sol\":4296:4355  (bool success, ) = info.poster.call{value: amountInWei}(\"\") */\n      pop\n      swap1\n      pop\n        /* \"platform.sol\":4373:4380  success */\n      dup1\n        /* \"platform.sol\":4365:4401  require(success, \"Transfer failed.\") */\n      tag_160\n      jumpi\n      mload(0x40)\n      0x08c379a000000000000000000000000000000000000000000000000000000000\n      dup2\n      mstore\n      0x04\n      add\n      tag_161\n      swap1\n      tag_162\n      jump\t// in\n    tag_161:\n      mload(0x40)\n      dup1\n      swap2\n      sub\n      swap1\n      revert\n    tag_160:\n        /* \"platform.sol\":4416:4449  ApprovalListing(msg.sender, info) */\n      0xcbe547358b7d8ceb07ae8baae08d35680e6c6c69046525b09dc9bb8f53f708fd\n        /* \"platform.sol\":4432:4442  msg.sender */\n      caller\n        /* \"platform.sol\":4444:4448  info */\n      dup5\n        /* \"platform.sol\":4416:4449  ApprovalListing(msg.sender, info) */\n      mload(0x40)\n      tag_163\n      swap3\n      swap2\n      swap1\n      tag_164\n      jump\t// in\n    tag_163:\n      mload(0x40)\n      dup1\n      swap2\n      sub\n      swap1\n      log1\n        /* \"platform.sol\":3836:4456  {... */\n      pop\n      pop\n      pop\n        /* \"platform.sol\":3786:4456  function approveLoan(uint256 listingIndex) public {... */\n      pop\n      jump\t// out\n        /* \"platform.sol\":4463:5011  function repayLoan(uint256 listingIndex) public {... */\n    tag_64:\n        /* \"platform.sol\":4521:4545  ListingInfo storage info */\n      0x00\n        /* \"platform.sol\":4548:4555  listNum */\n      dup1\n        /* \"platform.sol\":4548:4569  listNum[listingIndex] */\n      0x00\n        /* \"platform.sol\":4556:4568  listingIndex */\n      dup4\n        /* \"platform.sol\":4548:4569  listNum[listingIndex] */\n      dup2\n      mstore\n      0x20\n      add\n      swap1\n      dup2\n      mstore\n      0x20\n      add\n      0x00\n      keccak256\n        /* \"platform.sol\":4521:4569  ListingInfo storage info = listNum[listingIndex] */\n      swap1\n      pop\n        /* \"platform.sol\":4602:4612  msg.sender */\n      caller\n        /* \"platform.sol\":4587:4612  info.poster == msg.sender */\n      0xffffffffffffffffffffffffffffffffffffffff\n      and\n        /* \"platform.sol\":4587:4591  info */\n      dup2\n        /* \"platform.sol\":4587:4598  info.poster */\n      0x00\n      add\n      0x00\n      swap1\n      sload\n      swap1\n      0x0100\n      exp\n      swap1\n      div\n      0xffffffffffffffffffffffffffffffffffffffff\n      and\n        /* \"platform.sol\":4587:4612  info.poster == msg.sender */\n      0xffffffffffffffffffffffffffffffffffffffff\n      and\n      eq\n        /* \"platform.sol\":4579:4635  require(info.poster == msg.sender, \"You are not poster\") */\n      tag_166\n      jumpi\n      mload(0x40)\n      0x08c379a000000000000000000000000000000000000000000000000000000000\n      dup2\n      mstore\n      0x04\n      add\n      tag_167\n      swap1\n      tag_168\n      jump\t// in\n    tag_167:\n      mload(0x40)\n      dup1\n      swap2\n      sub\n      swap1\n      revert\n    tag_166:\n        /* \"platform.sol\":4668:4687  bytes32(\"excuting\") */\n      0x6578637574696e67000000000000000000000000000000000000000000000000\n        /* \"platform.sol\":4653:4657  info */\n      dup2\n        /* \"platform.sol\":4653:4664  info.status */\n      0x06\n      add\n      sload\n        /* \"platform.sol\":4653:4687  info.status == bytes32(\"excuting\") */\n      eq\n        /* \"platform.sol\":4645:4726  require(info.status == bytes32(\"excuting\"), \"This is expired or not excuted yet\") */\n      tag_169\n      jumpi\n      mload(0x40)\n      0x08c379a000000000000000000000000000000000000000000000000000000000\n      dup2\n      mstore\n      0x04\n      add\n      tag_170\n      swap1\n      tag_171\n      jump\t// in\n    tag_170:\n      mload(0x40)\n      dup1\n      swap2\n      sub\n      swap1\n      revert\n    tag_169:\n        /* \"platform.sol\":4736:4755  uint256 repayAmount */\n      0x00\n        /* \"platform.sol\":4758:4792  calculateRepayAmount(listingIndex) */\n      tag_172\n        /* \"platform.sol\":4779:4791  listingIndex */\n      dup4\n        /* \"platform.sol\":4758:4778  calculateRepayAmount */\n      tag_31\n        /* \"platform.sol\":4758:4792  calculateRepayAmount(listingIndex) */\n      jump\t// in\n    tag_172:\n        /* \"platform.sol\":4736:4792  uint256 repayAmount = calculateRepayAmount(listingIndex) */\n      swap1\n      pop\n        /* \"platform.sol\":4824:4834  msg.sender */\n      caller\n        /* \"platform.sol\":4824:4842  msg.sender.balance */\n      0xffffffffffffffffffffffffffffffffffffffff\n      and\n      balance\n        /* \"platform.sol\":4810:4821  repayAmount */\n      dup2\n        /* \"platform.sol\":4810:4842  repayAmount < msg.sender.balance */\n      lt\n        /* \"platform.sol\":4802:4878  require(repayAmount < msg.sender.balance, \"Not enough balance for repaying\") */\n      tag_173\n      jumpi\n      mload(0x40)\n      0x08c379a000000000000000000000000000000000000000000000000000000000\n      dup2\n      mstore\n      0x04\n      add\n      tag_174\n      swap1\n      tag_175\n      jump\t// in\n    tag_174:\n      mload(0x40)\n      dup1\n      swap2\n      sub\n      swap1\n      revert\n    tag_173:\n        /* \"platform.sol\":4888:4894  loaner */\n      0x03\n        /* \"platform.sol\":4888:4908  loaner[listingIndex] */\n      0x00\n        /* \"platform.sol\":4895:4907  listingIndex */\n      dup5\n        /* \"platform.sol\":4888:4908  loaner[listingIndex] */\n      dup2\n      mstore\n      0x20\n      add\n      swap1\n      dup2\n      mstore\n      0x20\n      add\n      0x00\n      keccak256\n      0x00\n      swap1\n      sload\n      swap1\n      0x0100\n      exp\n      swap1\n      div\n      0xffffffffffffffffffffffffffffffffffffffff\n      and\n        /* \"platform.sol\":4888:4917  loaner[listingIndex].transfer */\n      0xffffffffffffffffffffffffffffffffffffffff\n      and\n        /* \"platform.sol\":4888:4930  loaner[listingIndex].transfer(repayAmount) */\n      0x08fc\n        /* \"platform.sol\":4918:4929  repayAmount */\n      dup3\n        /* \"platform.sol\":4888:4930  loaner[listingIndex].transfer(repayAmount) */\n      swap1\n      dup2\n      iszero\n      mul\n      swap1\n      mload(0x40)\n      0x00\n      mload(0x40)\n      dup1\n      dup4\n      sub\n      dup2\n      dup6\n      dup9\n      dup9\n      call\n      swap4\n      pop\n      pop\n      pop\n      pop\n      iszero\n      dup1\n      iszero\n      tag_177\n      jumpi\n      returndatasize\n      0x00\n      dup1\n      returndatacopy\n      revert(0x00, returndatasize)\n    tag_177:\n      pop\n        /* \"platform.sol\":4940:4963  info.status = \"repayed\" */\n      0x7265706179656400000000000000000000000000000000000000000000000000\n        /* \"platform.sol\":4940:4944  info */\n      dup3\n        /* \"platform.sol\":4940:4951  info.status */\n      0x06\n      add\n        /* \"platform.sol\":4940:4963  info.status = \"repayed\" */\n      dup2\n      swap1\n      sstore\n      pop\n        /* \"platform.sol\":4978:5004  repaying(msg.sender, info) */\n      0x94e7116aa05f19f109f7fa598f65ade35ab1de8cd3d002b5b2205416e8943e65\n        /* \"platform.sol\":4987:4997  msg.sender */\n      caller\n        /* \"platform.sol\":4999:5003  info */\n      dup4\n        /* \"platform.sol\":4978:5004  repaying(msg.sender, info) */\n      mload(0x40)\n      tag_178\n      swap3\n      swap2\n      swap1\n      tag_164\n      jump\t// in\n    tag_178:\n      mload(0x40)\n      dup1\n      swap2\n      sub\n      swap1\n      log1\n        /* \"platform.sol\":4511:5011  {... */\n      pop\n      pop\n        /* \"platform.sol\":4463:5011  function repayLoan(uint256 listingIndex) public {... */\n      pop\n      jump\t// out\n        /* \"platform.sol\":1781:1887  function getUpdateTime(uint256 num) public view returns (uint256) {... */\n    tag_67:\n        /* \"platform.sol\":1838:1845  uint256 */\n      0x00\n        /* \"platform.sol\":1864:1875  updatedTime */\n      0x02\n        /* \"platform.sol\":1864:1880  updatedTime[num] */\n      0x00\n        /* \"platform.sol\":1876:1879  num */\n      dup4\n        /* \"platform.sol\":1864:1880  updatedTime[num] */\n      dup2\n      mstore\n      0x20\n      add\n      swap1\n      dup2\n      mstore\n      0x20\n      add\n      0x00\n      keccak256\n      sload\n        /* \"platform.sol\":1857:1880  return updatedTime[num] */\n      swap1\n      pop\n        /* \"platform.sol\":1781:1887  function getUpdateTime(uint256 num) public view returns (uint256) {... */\n      swap2\n      swap1\n      pop\n      jump\t// out\n        /* \"platform.sol\":1145:1259  function getListingInfo(uint256 num) public view returns (ListingInfo memory) {... */\n    tag_71:\n        /* \"platform.sol\":1203:1221  ListingInfo memory */\n      tag_180\n      tag_181\n      jump\t// in\n    tag_180:\n        /* \"platform.sol\":1240:1247  listNum */\n      0x00\n        /* \"platform.sol\":1240:1252  listNum[num] */\n      dup1\n        /* \"platform.sol\":1248:1251  num */\n      dup4\n        /* \"platform.sol\":1240:1252  listNum[num] */\n      dup2\n      mstore\n      0x20\n      add\n      swap1\n      dup2\n      mstore\n      0x20\n      add\n      0x00\n      keccak256\n        /* \"platform.sol\":1233:1252  return listNum[num] */\n      mload(0x40)\n      dup1\n      0xe0\n      add\n      0x40\n      mstore\n      swap1\n      dup2\n      0x00\n      dup3\n      add\n      0x00\n      swap1\n      sload\n      swap1\n      0x0100\n      exp\n      swap1\n      div\n      0xffffffffffffffffffffffffffffffffffffffff\n      and\n      0xffffffffffffffffffffffffffffffffffffffff\n      and\n      0xffffffffffffffffffffffffffffffffffffffff\n      and\n      dup2\n      mstore\n      0x20\n      add\n      0x01\n      dup3\n      add\n      0x00\n      swap1\n      sload\n      swap1\n      0x0100\n      exp\n      swap1\n      div\n      0xffffffffffffffffffffffffffffffffffffffff\n      and\n      0xffffffffffffffffffffffffffffffffffffffff\n      and\n      0xffffffffffffffffffffffffffffffffffffffff\n      and\n      dup2\n      mstore\n      0x20\n      add\n      0x02\n      dup3\n      add\n      sload\n      dup2\n      mstore\n      0x20\n      add\n      0x03\n      dup3\n      add\n      sload\n      dup2\n      mstore\n      0x20\n      add\n      0x04\n      dup3\n      add\n      sload\n      dup2\n      mstore\n      0x20\n      add\n      0x05\n      dup3\n      add\n      sload\n      dup2\n      mstore\n      0x20\n      add\n      0x06\n      dup3\n      add\n      sload\n      dup2\n      mstore\n      pop\n      pop\n      swap1\n      pop\n        /* \"platform.sol\":1145:1259  function getListingInfo(uint256 num) public view returns (ListingInfo memory) {... */\n      swap2\n      swap1\n      pop\n      jump\t// out\n        /* \"platform.sol\":5444:5865  function giveBackNFT(uint256 listingIndex) public {... */\n    tag_76:\n        /* \"platform.sol\":5504:5527  ListingInfo memory info */\n      0x00\n        /* \"platform.sol\":5530:5558  getListingInfo(listingIndex) */\n      tag_184\n        /* \"platform.sol\":5545:5557  listingIndex */\n      dup3\n        /* \"platform.sol\":5530:5544  getListingInfo */\n      tag_71\n        /* \"platform.sol\":5530:5558  getListingInfo(listingIndex) */\n      jump\t// in\n    tag_184:\n        /* \"platform.sol\":5504:5558  ListingInfo memory info = getListingInfo(listingIndex) */\n      swap1\n      pop\n        /* \"platform.sol\":5591:5601  msg.sender */\n      caller\n        /* \"platform.sol\":5576:5601  info.poster == msg.sender */\n      0xffffffffffffffffffffffffffffffffffffffff\n      and\n        /* \"platform.sol\":5576:5580  info */\n      dup2\n        /* \"platform.sol\":5576:5587  info.poster */\n      0x00\n      add\n      mload\n        /* \"platform.sol\":5576:5601  info.poster == msg.sender */\n      0xffffffffffffffffffffffffffffffffffffffff\n      and\n      eq\n        /* \"platform.sol\":5568:5624  require(info.poster == msg.sender, \"You are not poster\") */\n      tag_185\n      jumpi\n      mload(0x40)\n      0x08c379a000000000000000000000000000000000000000000000000000000000\n      dup2\n      mstore\n      0x04\n      add\n      tag_186\n      swap1\n      tag_168\n      jump\t// in\n    tag_186:\n      mload(0x40)\n      dup1\n      swap2\n      sub\n      swap1\n      revert\n    tag_185:\n        /* \"platform.sol\":5657:5675  bytes32(\"repayed\") */\n      0x7265706179656400000000000000000000000000000000000000000000000000\n        /* \"platform.sol\":5642:5646  info */\n      dup2\n        /* \"platform.sol\":5642:5653  info.status */\n      0xc0\n      add\n      mload\n        /* \"platform.sol\":5642:5675  info.status == bytes32(\"repayed\") */\n      eq\n        /* \"platform.sol\":5634:5700  require(info.status == bytes32(\"repayed\"), \"This isn't repay yet\") */\n      tag_187\n      jumpi\n      mload(0x40)\n      0x08c379a000000000000000000000000000000000000000000000000000000000\n      dup2\n      mstore\n      0x04\n      add\n      tag_188\n      swap1\n      tag_189\n      jump\t// in\n    tag_188:\n      mload(0x40)\n      dup1\n      swap2\n      sub\n      swap1\n      revert\n    tag_187:\n        /* \"platform.sol\":5718:5722  info */\n      dup1\n        /* \"platform.sol\":5718:5737  info.collectionAddr */\n      0x20\n      add\n      mload\n        /* \"platform.sol\":5710:5751  IERC721(info.collectionAddr).transferFrom */\n      0xffffffffffffffffffffffffffffffffffffffff\n      and\n      0x23b872dd\n        /* \"platform.sol\":5760:5764  this */\n      address\n        /* \"platform.sol\":5767:5777  msg.sender */\n      caller\n        /* \"platform.sol\":5779:5783  info */\n      dup5\n        /* \"platform.sol\":5779:5791  info.tokenId */\n      0x40\n      add\n      mload\n        /* \"platform.sol\":5710:5792  IERC721(info.collectionAddr).transferFrom(address(this), msg.sender, info.tokenId) */\n      mload(0x40)\n      dup5\n      0xffffffff\n      and\n      0xe0\n      shl\n      dup2\n      mstore\n      0x04\n      add\n      tag_190\n      swap4\n      swap3\n      swap2\n      swap1\n      tag_135\n      jump\t// in\n    tag_190:\n      0x00\n      mload(0x40)\n      dup1\n      dup4\n      sub\n      dup2\n      0x00\n      dup8\n      dup1\n      extcodesize\n      iszero\n      dup1\n      iszero\n      tag_191\n      jumpi\n      0x00\n      dup1\n      revert\n    tag_191:\n      pop\n      gas\n      call\n      iszero\n      dup1\n      iszero\n      tag_193\n      jumpi\n      returndatasize\n      0x00\n      dup1\n      returndatacopy\n      revert(0x00, returndatasize)\n    tag_193:\n      pop\n      pop\n      pop\n      pop\n        /* \"platform.sol\":5802:5824  info.status = \"closed\" */\n      0x636c6f7365640000000000000000000000000000000000000000000000000000\n        /* \"platform.sol\":5802:5806  info */\n      dup2\n        /* \"platform.sol\":5802:5813  info.status */\n      0xc0\n      add\n        /* \"platform.sol\":5802:5824  info.status = \"closed\" */\n      dup2\n      dup2\n      mstore\n      pop\n      pop\n        /* \"platform.sol\":5834:5858  updateTime(listingIndex) */\n      tag_194\n        /* \"platform.sol\":5845:5857  listingIndex */\n      dup3\n        /* \"platform.sol\":5834:5844  updateTime */\n      tag_47\n        /* \"platform.sol\":5834:5858  updateTime(listingIndex) */\n      jump\t// in\n    tag_194:\n        /* \"platform.sol\":5494:5865  {... */\n      pop\n        /* \"platform.sol\":5444:5865  function giveBackNFT(uint256 listingIndex) public {... */\n      pop\n      jump\t// out\n        /* \"platform.sol\":3197:3780  function isExpired(uint256 listingIndex) public view returns (uint256, bool) {... */\n    tag_79:\n        /* \"platform.sol\":3259:3266  uint256 */\n      0x00\n        /* \"platform.sol\":3268:3272  bool */\n      dup1\n        /* \"platform.sol\":3284:3307  ListingInfo memory info */\n      0x00\n        /* \"platform.sol\":3310:3338  getListingInfo(listingIndex) */\n      tag_196\n        /* \"platform.sol\":3325:3337  listingIndex */\n      dup5\n        /* \"platform.sol\":3310:3324  getListingInfo */\n      tag_71\n        /* \"platform.sol\":3310:3338  getListingInfo(listingIndex) */\n      jump\t// in\n    tag_196:\n        /* \"platform.sol\":3284:3338  ListingInfo memory info = getListingInfo(listingIndex) */\n      swap1\n      pop\n        /* \"platform.sol\":3546:3568  uint256 expirationTime */\n      0x00\n        /* \"platform.sol\":3615:3623  minTosec */\n      sload(0x08)\n        /* \"platform.sol\":3599:3603  info */\n      dup3\n        /* \"platform.sol\":3599:3612  info.duration */\n      0x80\n      add\n      mload\n        /* \"platform.sol\":3599:3623  info.duration * minTosec */\n      tag_197\n      swap2\n      swap1\n      tag_99\n      jump\t// in\n    tag_197:\n        /* \"platform.sol\":3571:3582  updatedTime */\n      0x02\n        /* \"platform.sol\":3571:3596  updatedTime[listingIndex] */\n      0x00\n        /* \"platform.sol\":3583:3595  listingIndex */\n      dup8\n        /* \"platform.sol\":3571:3596  updatedTime[listingIndex] */\n      dup2\n      mstore\n      0x20\n      add\n      swap1\n      dup2\n      mstore\n      0x20\n      add\n      0x00\n      keccak256\n      sload\n        /* \"platform.sol\":3571:3623  updatedTime[listingIndex] + info.duration * minTosec */\n      tag_198\n      swap2\n      swap1\n      tag_105\n      jump\t// in\n    tag_198:\n        /* \"platform.sol\":3546:3623  uint256 expirationTime = updatedTime[listingIndex] + info.duration * minTosec */\n      swap1\n      pop\n        /* \"platform.sol\":3666:3687  uint256 remainingTime */\n      0x00\n        /* \"platform.sol\":3707:3722  block.timestamp */\n      timestamp\n        /* \"platform.sol\":3690:3704  expirationTime */\n      dup3\n        /* \"platform.sol\":3690:3722  expirationTime - block.timestamp */\n      tag_199\n      swap2\n      swap1\n      tag_101\n      jump\t// in\n    tag_199:\n        /* \"platform.sol\":3666:3722  uint256 remainingTime = expirationTime - block.timestamp */\n      swap1\n      pop\n        /* \"platform.sol\":3740:3753  remainingTime */\n      dup1\n        /* \"platform.sol\":3771:3772  0 */\n      0x00\n        /* \"platform.sol\":3755:3768  remainingTime */\n      dup3\n        /* \"platform.sol\":3755:3772  remainingTime < 0 */\n      lt\n        /* \"platform.sol\":3732:3773  return (remainingTime, remainingTime < 0) */\n      swap5\n      pop\n      swap5\n      pop\n      pop\n      pop\n      pop\n        /* \"platform.sol\":3197:3780  function isExpired(uint256 listingIndex) public view returns (uint256, bool) {... */\n      swap2\n      pop\n      swap2\n      jump\t// out\n        /* \"platform.sol\":2647:3076  function closeListing(uint256 listingIndex) public {... */\n    tag_84:\n        /* \"platform.sol\":2708:2732  ListingInfo storage info */\n      0x00\n        /* \"platform.sol\":2735:2742  listNum */\n      dup1\n        /* \"platform.sol\":2735:2756  listNum[listingIndex] */\n      0x00\n        /* \"platform.sol\":2743:2755  listingIndex */\n      dup4\n        /* \"platform.sol\":2735:2756  listNum[listingIndex] */\n      dup2\n      mstore\n      0x20\n      add\n      swap1\n      dup2\n      mstore\n      0x20\n      add\n      0x00\n      keccak256\n        /* \"platform.sol\":2708:2756  ListingInfo storage info = listNum[listingIndex] */\n      swap1\n      pop\n        /* \"platform.sol\":2789:2799  msg.sender */\n      caller\n        /* \"platform.sol\":2774:2799  info.poster == msg.sender */\n      0xffffffffffffffffffffffffffffffffffffffff\n      and\n        /* \"platform.sol\":2774:2778  info */\n      dup2\n        /* \"platform.sol\":2774:2785  info.poster */\n      0x00\n      add\n      0x00\n      swap1\n      sload\n      swap1\n      0x0100\n      exp\n      swap1\n      div\n      0xffffffffffffffffffffffffffffffffffffffff\n      and\n        /* \"platform.sol\":2774:2799  info.poster == msg.sender */\n      0xffffffffffffffffffffffffffffffffffffffff\n      and\n      eq\n        /* \"platform.sol\":2766:2834  require(info.poster == msg.sender, \"You are not poster of the list\") */\n      tag_201\n      jumpi\n      mload(0x40)\n      0x08c379a000000000000000000000000000000000000000000000000000000000\n      dup2\n      mstore\n      0x04\n      add\n      tag_202\n      swap1\n      tag_203\n      jump\t// in\n    tag_202:\n      mload(0x40)\n      dup1\n      swap2\n      sub\n      swap1\n      revert\n    tag_201:\n        /* \"platform.sol\":2867:2882  bytes32(\"open\") */\n      0x6f70656e00000000000000000000000000000000000000000000000000000000\n        /* \"platform.sol\":2852:2856  info */\n      dup2\n        /* \"platform.sol\":2852:2863  info.status */\n      0x06\n      add\n      sload\n        /* \"platform.sol\":2852:2882  info.status == bytes32(\"open\") */\n      eq\n        /* \"platform.sol\":2844:2903  require(info.status == bytes32(\"open\"), \"Not opening list\") */\n      tag_204\n      jumpi\n      mload(0x40)\n      0x08c379a000000000000000000000000000000000000000000000000000000000\n      dup2\n      mstore\n      0x04\n      add\n      tag_205\n      swap1\n      tag_206\n      jump\t// in\n    tag_205:\n      mload(0x40)\n      dup1\n      swap2\n      sub\n      swap1\n      revert\n    tag_204:\n        /* \"platform.sol\":2967:2989  info.status = \"cancel\" */\n      0x63616e63656c0000000000000000000000000000000000000000000000000000\n        /* \"platform.sol\":2967:2971  info */\n      dup2\n        /* \"platform.sol\":2967:2978  info.status */\n      0x06\n      add\n        /* \"platform.sol\":2967:2989  info.status = \"cancel\" */\n      dup2\n      swap1\n      sstore\n      pop\n        /* \"platform.sol\":2999:3023  updateTime(listingIndex) */\n      tag_207\n        /* \"platform.sol\":3010:3022  listingIndex */\n      dup3\n        /* \"platform.sol\":2999:3009  updateTime */\n      tag_47\n        /* \"platform.sol\":2999:3023  updateTime(listingIndex) */\n      jump\t// in\n    tag_207:\n        /* \"platform.sol\":3038:3069  CancelListing(msg.sender, info) */\n      0x7e885013ca94016b1452b4678f1c43c33cd914617b389322af7f7d97a2c4f585\n        /* \"platform.sol\":3052:3062  msg.sender */\n      caller\n        /* \"platform.sol\":3064:3068  info */\n      dup3\n        /* \"platform.sol\":3038:3069  CancelListing(msg.sender, info) */\n      mload(0x40)\n      tag_208\n      swap3\n      swap2\n      swap1\n      tag_164\n      jump\t// in\n    tag_208:\n      mload(0x40)\n      dup1\n      swap2\n      sub\n      swap1\n      log1\n        /* \"platform.sol\":2698:3076  {... */\n      pop\n        /* \"platform.sol\":2647:3076  function closeListing(uint256 listingIndex) public {... */\n      pop\n      jump\t// out\n        /* \"platform.sol\":688:734  mapping(uint256 => ListingInfo) public listNum */\n    tag_87:\n      mstore(0x20, 0x00)\n      dup1\n      0x00\n      mstore\n      keccak256(0x00, 0x40)\n      0x00\n      swap2\n      pop\n      swap1\n      pop\n      dup1\n      0x00\n      add\n      0x00\n      swap1\n      sload\n      swap1\n      0x0100\n      exp\n      swap1\n      div\n      0xffffffffffffffffffffffffffffffffffffffff\n      and\n      swap1\n      dup1\n      0x01\n      add\n      0x00\n      swap1\n      sload\n      swap1\n      0x0100\n      exp\n      swap1\n      div\n      0xffffffffffffffffffffffffffffffffffffffff\n      and\n      swap1\n      dup1\n      0x02\n      add\n      sload\n      swap1\n      dup1\n      0x03\n      add\n      sload\n      swap1\n      dup1\n      0x04\n      add\n      sload\n      swap1\n      dup1\n      0x05\n      add\n      sload\n      swap1\n      dup1\n      0x06\n      add\n      sload\n      swap1\n      pop\n      dup8\n      jump\t// out\n    tag_181:\n      mload(0x40)\n      dup1\n      0xe0\n      add\n      0x40\n      mstore\n      dup1\n      and(0xffffffffffffffffffffffffffffffffffffffff, 0x00)\n      dup2\n      mstore\n      0x20\n      add\n      and(0xffffffffffffffffffffffffffffffffffffffff, 0x00)\n      dup2\n      mstore\n      0x20\n      add\n      0x00\n      dup2\n      mstore\n      0x20\n      add\n      0x00\n      dup2\n      mstore\n      0x20\n      add\n      0x00\n      dup2\n      mstore\n      0x20\n      add\n      0x00\n      dup2\n      mstore\n      0x20\n      add\n      0x00\n      dup1\n      not\n      and\n      dup2\n      mstore\n      pop\n      swap1\n      jump\t// out\n        /* \"#utility.yul\":88:205   */\n    tag_210:\n        /* \"#utility.yul\":197:198   */\n      0x00\n        /* \"#utility.yul\":194:195   */\n      dup1\n        /* \"#utility.yul\":187:199   */\n      revert\n        /* \"#utility.yul\":334:460   */\n    tag_212:\n        /* \"#utility.yul\":371:378   */\n      0x00\n        /* \"#utility.yul\":411:453   */\n      0xffffffffffffffffffffffffffffffffffffffff\n        /* \"#utility.yul\":404:409   */\n      dup3\n        /* \"#utility.yul\":400:454   */\n      and\n        /* \"#utility.yul\":389:454   */\n      swap1\n      pop\n        /* \"#utility.yul\":334:460   */\n      swap2\n      swap1\n      pop\n      jump\t// out\n        /* \"#utility.yul\":466:562   */\n    tag_213:\n        /* \"#utility.yul\":503:510   */\n      0x00\n        /* \"#utility.yul\":532:556   */\n      tag_285\n        /* \"#utility.yul\":550:555   */\n      dup3\n        /* \"#utility.yul\":532:556   */\n      tag_212\n      jump\t// in\n    tag_285:\n        /* \"#utility.yul\":521:556   */\n      swap1\n      pop\n        /* \"#utility.yul\":466:562   */\n      swap2\n      swap1\n      pop\n      jump\t// out\n        /* \"#utility.yul\":568:690   */\n    tag_214:\n        /* \"#utility.yul\":641:665   */\n      tag_287\n        /* \"#utility.yul\":659:664   */\n      dup2\n        /* \"#utility.yul\":641:665   */\n      tag_213\n      jump\t// in\n    tag_287:\n        /* \"#utility.yul\":634:639   */\n      dup2\n        /* \"#utility.yul\":631:666   */\n      eq\n        /* \"#utility.yul\":621:684   */\n      tag_288\n      jumpi\n        /* \"#utility.yul\":680:681   */\n      0x00\n        /* \"#utility.yul\":677:678   */\n      dup1\n        /* \"#utility.yul\":670:682   */\n      revert\n        /* \"#utility.yul\":621:684   */\n    tag_288:\n        /* \"#utility.yul\":568:690   */\n      pop\n      jump\t// out\n        /* \"#utility.yul\":696:835   */\n    tag_215:\n        /* \"#utility.yul\":742:747   */\n      0x00\n        /* \"#utility.yul\":780:786   */\n      dup2\n        /* \"#utility.yul\":767:787   */\n      calldataload\n        /* \"#utility.yul\":758:787   */\n      swap1\n      pop\n        /* \"#utility.yul\":796:829   */\n      tag_290\n        /* \"#utility.yul\":823:828   */\n      dup2\n        /* \"#utility.yul\":796:829   */\n      tag_214\n      jump\t// in\n    tag_290:\n        /* \"#utility.yul\":696:835   */\n      swap3\n      swap2\n      pop\n      pop\n      jump\t// out\n        /* \"#utility.yul\":841:1170   */\n    tag_24:\n        /* \"#utility.yul\":900:906   */\n      0x00\n        /* \"#utility.yul\":949:951   */\n      0x20\n        /* \"#utility.yul\":937:946   */\n      dup3\n        /* \"#utility.yul\":928:935   */\n      dup5\n        /* \"#utility.yul\":924:947   */\n      sub\n        /* \"#utility.yul\":920:952   */\n      slt\n        /* \"#utility.yul\":917:1036   */\n      iszero\n      tag_292\n      jumpi\n        /* \"#utility.yul\":955:1034   */\n      tag_293\n      tag_210\n      jump\t// in\n    tag_293:\n        /* \"#utility.yul\":917:1036   */\n    tag_292:\n        /* \"#utility.yul\":1075:1076   */\n      0x00\n        /* \"#utility.yul\":1100:1153   */\n      tag_294\n        /* \"#utility.yul\":1145:1152   */\n      dup5\n        /* \"#utility.yul\":1136:1142   */\n      dup3\n        /* \"#utility.yul\":1125:1134   */\n      dup6\n        /* \"#utility.yul\":1121:1143   */\n      add\n        /* \"#utility.yul\":1100:1153   */\n      tag_215\n      jump\t// in\n    tag_294:\n        /* \"#utility.yul\":1090:1153   */\n      swap2\n      pop\n        /* \"#utility.yul\":1046:1163   */\n      pop\n        /* \"#utility.yul\":841:1170   */\n      swap3\n      swap2\n      pop\n      pop\n      jump\t// out\n        /* \"#utility.yul\":1176:1290   */\n    tag_216:\n        /* \"#utility.yul\":1243:1249   */\n      0x00\n        /* \"#utility.yul\":1277:1282   */\n      dup2\n        /* \"#utility.yul\":1271:1283   */\n      mload\n        /* \"#utility.yul\":1261:1283   */\n      swap1\n      pop\n        /* \"#utility.yul\":1176:1290   */\n      swap2\n      swap1\n      pop\n      jump\t// out\n        /* \"#utility.yul\":1296:1480   */\n    tag_217:\n        /* \"#utility.yul\":1395:1406   */\n      0x00\n        /* \"#utility.yul\":1429:1435   */\n      dup3\n        /* \"#utility.yul\":1424:1427   */\n      dup3\n        /* \"#utility.yul\":1417:1436   */\n      mstore\n        /* \"#utility.yul\":1469:1473   */\n      0x20\n        /* \"#utility.yul\":1464:1467   */\n      dup3\n        /* \"#utility.yul\":1460:1474   */\n      add\n        /* \"#utility.yul\":1445:1474   */\n      swap1\n      pop\n        /* \"#utility.yul\":1296:1480   */\n      swap3\n      swap2\n      pop\n      pop\n      jump\t// out\n        /* \"#utility.yul\":1486:1618   */\n    tag_218:\n        /* \"#utility.yul\":1553:1557   */\n      0x00\n        /* \"#utility.yul\":1576:1579   */\n      dup2\n        /* \"#utility.yul\":1568:1579   */\n      swap1\n      pop\n        /* \"#utility.yul\":1606:1610   */\n      0x20\n        /* \"#utility.yul\":1601:1604   */\n      dup3\n        /* \"#utility.yul\":1597:1611   */\n      add\n        /* \"#utility.yul\":1589:1611   */\n      swap1\n      pop\n        /* \"#utility.yul\":1486:1618   */\n      swap2\n      swap1\n      pop\n      jump\t// out\n        /* \"#utility.yul\":1624:1701   */\n    tag_219:\n        /* \"#utility.yul\":1661:1668   */\n      0x00\n        /* \"#utility.yul\":1690:1695   */\n      dup2\n        /* \"#utility.yul\":1679:1695   */\n      swap1\n      pop\n        /* \"#utility.yul\":1624:1701   */\n      swap2\n      swap1\n      pop\n      jump\t// out\n        /* \"#utility.yul\":1707:1815   */\n    tag_220:\n        /* \"#utility.yul\":1784:1808   */\n      tag_300\n        /* \"#utility.yul\":1802:1807   */\n      dup2\n        /* \"#utility.yul\":1784:1808   */\n      tag_219\n      jump\t// in\n    tag_300:\n        /* \"#utility.yul\":1779:1782   */\n      dup3\n        /* \"#utility.yul\":1772:1809   */\n      mstore\n        /* \"#utility.yul\":1707:1815   */\n      pop\n      pop\n      jump\t// out\n        /* \"#utility.yul\":1821:2000   */\n    tag_221:\n        /* \"#utility.yul\":1890:1900   */\n      0x00\n        /* \"#utility.yul\":1911:1957   */\n      tag_302\n        /* \"#utility.yul\":1953:1956   */\n      dup4\n        /* \"#utility.yul\":1945:1951   */\n      dup4\n        /* \"#utility.yul\":1911:1957   */\n      tag_220\n      jump\t// in\n    tag_302:\n        /* \"#utility.yul\":1989:1993   */\n      0x20\n        /* \"#utility.yul\":1984:1987   */\n      dup4\n        /* \"#utility.yul\":1980:1994   */\n      add\n        /* \"#utility.yul\":1966:1994   */\n      swap1\n      pop\n        /* \"#utility.yul\":1821:2000   */\n      swap3\n      swap2\n      pop\n      pop\n      jump\t// out\n        /* \"#utility.yul\":2006:2119   */\n    tag_222:\n        /* \"#utility.yul\":2076:2080   */\n      0x00\n        /* \"#utility.yul\":2108:2112   */\n      0x20\n        /* \"#utility.yul\":2103:2106   */\n      dup3\n        /* \"#utility.yul\":2099:2113   */\n      add\n        /* \"#utility.yul\":2091:2113   */\n      swap1\n      pop\n        /* \"#utility.yul\":2006:2119   */\n      swap2\n      swap1\n      pop\n      jump\t// out\n        /* \"#utility.yul\":2155:2887   */\n    tag_223:\n        /* \"#utility.yul\":2274:2277   */\n      0x00\n        /* \"#utility.yul\":2303:2357   */\n      tag_305\n        /* \"#utility.yul\":2351:2356   */\n      dup3\n        /* \"#utility.yul\":2303:2357   */\n      tag_216\n      jump\t// in\n    tag_305:\n        /* \"#utility.yul\":2373:2459   */\n      tag_306\n        /* \"#utility.yul\":2452:2458   */\n      dup2\n        /* \"#utility.yul\":2447:2450   */\n      dup6\n        /* \"#utility.yul\":2373:2459   */\n      tag_217\n      jump\t// in\n    tag_306:\n        /* \"#utility.yul\":2366:2459   */\n      swap4\n      pop\n        /* \"#utility.yul\":2483:2539   */\n      tag_307\n        /* \"#utility.yul\":2533:2538   */\n      dup4\n        /* \"#utility.yul\":2483:2539   */\n      tag_218\n      jump\t// in\n    tag_307:\n        /* \"#utility.yul\":2562:2569   */\n      dup1\n        /* \"#utility.yul\":2593:2594   */\n      0x00\n        /* \"#utility.yul\":2578:2862   */\n    tag_308:\n        /* \"#utility.yul\":2603:2609   */\n      dup4\n        /* \"#utility.yul\":2600:2601   */\n      dup2\n        /* \"#utility.yul\":2597:2610   */\n      lt\n        /* \"#utility.yul\":2578:2862   */\n      iszero\n      tag_310\n      jumpi\n        /* \"#utility.yul\":2679:2685   */\n      dup2\n        /* \"#utility.yul\":2673:2686   */\n      mload\n        /* \"#utility.yul\":2706:2769   */\n      tag_311\n        /* \"#utility.yul\":2765:2768   */\n      dup9\n        /* \"#utility.yul\":2750:2763   */\n      dup3\n        /* \"#utility.yul\":2706:2769   */\n      tag_221\n      jump\t// in\n    tag_311:\n        /* \"#utility.yul\":2699:2769   */\n      swap8\n      pop\n        /* \"#utility.yul\":2792:2852   */\n      tag_312\n        /* \"#utility.yul\":2845:2851   */\n      dup4\n        /* \"#utility.yul\":2792:2852   */\n      tag_222\n      jump\t// in\n    tag_312:\n        /* \"#utility.yul\":2782:2852   */\n      swap3\n      pop\n        /* \"#utility.yul\":2638:2862   */\n      pop\n        /* \"#utility.yul\":2625:2626   */\n      0x01\n        /* \"#utility.yul\":2622:2623   */\n      dup2\n        /* \"#utility.yul\":2618:2627   */\n      add\n        /* \"#utility.yul\":2613:2627   */\n      swap1\n      pop\n        /* \"#utility.yul\":2578:2862   */\n      jump(tag_308)\n    tag_310:\n        /* \"#utility.yul\":2582:2596   */\n      pop\n        /* \"#utility.yul\":2878:2881   */\n      dup6\n        /* \"#utility.yul\":2871:2881   */\n      swap4\n      pop\n        /* \"#utility.yul\":2279:2887   */\n      pop\n      pop\n      pop\n        /* \"#utility.yul\":2155:2887   */\n      swap3\n      swap2\n      pop\n      pop\n      jump\t// out\n        /* \"#utility.yul\":2893:3266   */\n    tag_27:\n        /* \"#utility.yul\":3036:3040   */\n      0x00\n        /* \"#utility.yul\":3074:3076   */\n      0x20\n        /* \"#utility.yul\":3063:3072   */\n      dup3\n        /* \"#utility.yul\":3059:3077   */\n      add\n        /* \"#utility.yul\":3051:3077   */\n      swap1\n      pop\n        /* \"#utility.yul\":3123:3132   */\n      dup2\n        /* \"#utility.yul\":3117:3121   */\n      dup2\n        /* \"#utility.yul\":3113:3133   */\n      sub\n        /* \"#utility.yul\":3109:3110   */\n      0x00\n        /* \"#utility.yul\":3098:3107   */\n      dup4\n        /* \"#utility.yul\":3094:3111   */\n      add\n        /* \"#utility.yul\":3087:3134   */\n      mstore\n        /* \"#utility.yul\":3151:3259   */\n      tag_314\n        /* \"#utility.yul\":3254:3258   */\n      dup2\n        /* \"#utility.yul\":3245:3251   */\n      dup5\n        /* \"#utility.yul\":3151:3259   */\n      tag_223\n      jump\t// in\n    tag_314:\n        /* \"#utility.yul\":3143:3259   */\n      swap1\n      pop\n        /* \"#utility.yul\":2893:3266   */\n      swap3\n      swap2\n      pop\n      pop\n      jump\t// out\n        /* \"#utility.yul\":3272:3394   */\n    tag_224:\n        /* \"#utility.yul\":3345:3369   */\n      tag_316\n        /* \"#utility.yul\":3363:3368   */\n      dup2\n        /* \"#utility.yul\":3345:3369   */\n      tag_219\n      jump\t// in\n    tag_316:\n        /* \"#utility.yul\":3338:3343   */\n      dup2\n        /* \"#utility.yul\":3335:3370   */\n      eq\n        /* \"#utility.yul\":3325:3388   */\n      tag_317\n      jumpi\n        /* \"#utility.yul\":3384:3385   */\n      0x00\n        /* \"#utility.yul\":3381:3382   */\n      dup1\n        /* \"#utility.yul\":3374:3386   */\n      revert\n        /* \"#utility.yul\":3325:3388   */\n    tag_317:\n        /* \"#utility.yul\":3272:3394   */\n      pop\n      jump\t// out\n        /* \"#utility.yul\":3400:3539   */\n    tag_225:\n        /* \"#utility.yul\":3446:3451   */\n      0x00\n        /* \"#utility.yul\":3484:3490   */\n      dup2\n        /* \"#utility.yul\":3471:3491   */\n      calldataload\n        /* \"#utility.yul\":3462:3491   */\n      swap1\n      pop\n        /* \"#utility.yul\":3500:3533   */\n      tag_319\n        /* \"#utility.yul\":3527:3532   */\n      dup2\n        /* \"#utility.yul\":3500:3533   */\n      tag_224\n      jump\t// in\n    tag_319:\n        /* \"#utility.yul\":3400:3539   */\n      swap3\n      swap2\n      pop\n      pop\n      jump\t// out\n        /* \"#utility.yul\":3545:3874   */\n    tag_30:\n        /* \"#utility.yul\":3604:3610   */\n      0x00\n        /* \"#utility.yul\":3653:3655   */\n      0x20\n        /* \"#utility.yul\":3641:3650   */\n      dup3\n        /* \"#utility.yul\":3632:3639   */\n      dup5\n        /* \"#utility.yul\":3628:3651   */\n      sub\n        /* \"#utility.yul\":3624:3656   */\n      slt\n        /* \"#utility.yul\":3621:3740   */\n      iszero\n      tag_321\n      jumpi\n        /* \"#utility.yul\":3659:3738   */\n      tag_322\n      tag_210\n      jump\t// in\n    tag_322:\n        /* \"#utility.yul\":3621:3740   */\n    tag_321:\n        /* \"#utility.yul\":3779:3780   */\n      0x00\n        /* \"#utility.yul\":3804:3857   */\n      tag_323\n        /* \"#utility.yul\":3849:3856   */\n      dup5\n        /* \"#utility.yul\":3840:3846   */\n      dup3\n        /* \"#utility.yul\":3829:3838   */\n      dup6\n        /* \"#utility.yul\":3825:3847   */\n      add\n        /* \"#utility.yul\":3804:3857   */\n      tag_225\n      jump\t// in\n    tag_323:\n        /* \"#utility.yul\":3794:3857   */\n      swap2\n      pop\n        /* \"#utility.yul\":3750:3867   */\n      pop\n        /* \"#utility.yul\":3545:3874   */\n      swap3\n      swap2\n      pop\n      pop\n      jump\t// out\n        /* \"#utility.yul\":3880:3998   */\n    tag_226:\n        /* \"#utility.yul\":3967:3991   */\n      tag_325\n        /* \"#utility.yul\":3985:3990   */\n      dup2\n        /* \"#utility.yul\":3967:3991   */\n      tag_219\n      jump\t// in\n    tag_325:\n        /* \"#utility.yul\":3962:3965   */\n      dup3\n        /* \"#utility.yul\":3955:3992   */\n      mstore\n        /* \"#utility.yul\":3880:3998   */\n      pop\n      pop\n      jump\t// out\n        /* \"#utility.yul\":4004:4226   */\n    tag_33:\n        /* \"#utility.yul\":4097:4101   */\n      0x00\n        /* \"#utility.yul\":4135:4137   */\n      0x20\n        /* \"#utility.yul\":4124:4133   */\n      dup3\n        /* \"#utility.yul\":4120:4138   */\n      add\n        /* \"#utility.yul\":4112:4138   */\n      swap1\n      pop\n        /* \"#utility.yul\":4148:4219   */\n      tag_327\n        /* \"#utility.yul\":4216:4217   */\n      0x00\n        /* \"#utility.yul\":4205:4214   */\n      dup4\n        /* \"#utility.yul\":4201:4218   */\n      add\n        /* \"#utility.yul\":4192:4198   */\n      dup5\n        /* \"#utility.yul\":4148:4219   */\n      tag_226\n      jump\t// in\n    tag_327:\n        /* \"#utility.yul\":4004:4226   */\n      swap3\n      swap2\n      pop\n      pop\n      jump\t// out\n        /* \"#utility.yul\":4232:4706   */\n    tag_36:\n        /* \"#utility.yul\":4300:4306   */\n      0x00\n        /* \"#utility.yul\":4308:4314   */\n      dup1\n        /* \"#utility.yul\":4357:4359   */\n      0x40\n        /* \"#utility.yul\":4345:4354   */\n      dup4\n        /* \"#utility.yul\":4336:4343   */\n      dup6\n        /* \"#utility.yul\":4332:4355   */\n      sub\n        /* \"#utility.yul\":4328:4360   */\n      slt\n        /* \"#utility.yul\":4325:4444   */\n      iszero\n      tag_329\n      jumpi\n        /* \"#utility.yul\":4363:4442   */\n      tag_330\n      tag_210\n      jump\t// in\n    tag_330:\n        /* \"#utility.yul\":4325:4444   */\n    tag_329:\n        /* \"#utility.yul\":4483:4484   */\n      0x00\n        /* \"#utility.yul\":4508:4561   */\n      tag_331\n        /* \"#utility.yul\":4553:4560   */\n      dup6\n        /* \"#utility.yul\":4544:4550   */\n      dup3\n        /* \"#utility.yul\":4533:4542   */\n      dup7\n        /* \"#utility.yul\":4529:4551   */\n      add\n        /* \"#utility.yul\":4508:4561   */\n      tag_215\n      jump\t// in\n    tag_331:\n        /* \"#utility.yul\":4498:4561   */\n      swap3\n      pop\n        /* \"#utility.yul\":4454:4571   */\n      pop\n        /* \"#utility.yul\":4610:4612   */\n      0x20\n        /* \"#utility.yul\":4636:4689   */\n      tag_332\n        /* \"#utility.yul\":4681:4688   */\n      dup6\n        /* \"#utility.yul\":4672:4678   */\n      dup3\n        /* \"#utility.yul\":4661:4670   */\n      dup7\n        /* \"#utility.yul\":4657:4679   */\n      add\n        /* \"#utility.yul\":4636:4689   */\n      tag_225\n      jump\t// in\n    tag_332:\n        /* \"#utility.yul\":4626:4689   */\n      swap2\n      pop\n        /* \"#utility.yul\":4581:4699   */\n      pop\n        /* \"#utility.yul\":4232:4706   */\n      swap3\n      pop\n      swap3\n      swap1\n      pop\n      jump\t// out\n        /* \"#utility.yul\":4712:4830   */\n    tag_227:\n        /* \"#utility.yul\":4799:4823   */\n      tag_334\n        /* \"#utility.yul\":4817:4822   */\n      dup2\n        /* \"#utility.yul\":4799:4823   */\n      tag_213\n      jump\t// in\n    tag_334:\n        /* \"#utility.yul\":4794:4797   */\n      dup3\n        /* \"#utility.yul\":4787:4824   */\n      mstore\n        /* \"#utility.yul\":4712:4830   */\n      pop\n      pop\n      jump\t// out\n        /* \"#utility.yul\":4836:5058   */\n    tag_39:\n        /* \"#utility.yul\":4929:4933   */\n      0x00\n        /* \"#utility.yul\":4967:4969   */\n      0x20\n        /* \"#utility.yul\":4956:4965   */\n      dup3\n        /* \"#utility.yul\":4952:4970   */\n      add\n        /* \"#utility.yul\":4944:4970   */\n      swap1\n      pop\n        /* \"#utility.yul\":4980:5051   */\n      tag_336\n        /* \"#utility.yul\":5048:5049   */\n      0x00\n        /* \"#utility.yul\":5037:5046   */\n      dup4\n        /* \"#utility.yul\":5033:5050   */\n      add\n        /* \"#utility.yul\":5024:5030   */\n      dup5\n        /* \"#utility.yul\":4980:5051   */\n      tag_227\n      jump\t// in\n    tag_336:\n        /* \"#utility.yul\":4836:5058   */\n      swap3\n      swap2\n      pop\n      pop\n      jump\t// out\n        /* \"#utility.yul\":5064:5154   */\n    tag_228:\n        /* \"#utility.yul\":5098:5105   */\n      0x00\n        /* \"#utility.yul\":5141:5146   */\n      dup2\n        /* \"#utility.yul\":5134:5147   */\n      iszero\n        /* \"#utility.yul\":5127:5148   */\n      iszero\n        /* \"#utility.yul\":5116:5148   */\n      swap1\n      pop\n        /* \"#utility.yul\":5064:5154   */\n      swap2\n      swap1\n      pop\n      jump\t// out\n        /* \"#utility.yul\":5160:5269   */\n    tag_229:\n        /* \"#utility.yul\":5241:5262   */\n      tag_339\n        /* \"#utility.yul\":5256:5261   */\n      dup2\n        /* \"#utility.yul\":5241:5262   */\n      tag_228\n      jump\t// in\n    tag_339:\n        /* \"#utility.yul\":5236:5239   */\n      dup3\n        /* \"#utility.yul\":5229:5263   */\n      mstore\n        /* \"#utility.yul\":5160:5269   */\n      pop\n      pop\n      jump\t// out\n        /* \"#utility.yul\":5275:5485   */\n    tag_44:\n        /* \"#utility.yul\":5362:5366   */\n      0x00\n        /* \"#utility.yul\":5400:5402   */\n      0x20\n        /* \"#utility.yul\":5389:5398   */\n      dup3\n        /* \"#utility.yul\":5385:5403   */\n      add\n        /* \"#utility.yul\":5377:5403   */\n      swap1\n      pop\n        /* \"#utility.yul\":5413:5478   */\n      tag_341\n        /* \"#utility.yul\":5475:5476   */\n      0x00\n        /* \"#utility.yul\":5464:5473   */\n      dup4\n        /* \"#utility.yul\":5460:5477   */\n      add\n        /* \"#utility.yul\":5451:5457   */\n      dup5\n        /* \"#utility.yul\":5413:5478   */\n      tag_229\n      jump\t// in\n    tag_341:\n        /* \"#utility.yul\":5275:5485   */\n      swap3\n      swap2\n      pop\n      pop\n      jump\t// out\n        /* \"#utility.yul\":5491:6402   */\n    tag_50:\n        /* \"#utility.yul\":5586:5592   */\n      0x00\n        /* \"#utility.yul\":5594:5600   */\n      dup1\n        /* \"#utility.yul\":5602:5608   */\n      0x00\n        /* \"#utility.yul\":5610:5616   */\n      dup1\n        /* \"#utility.yul\":5618:5624   */\n      0x00\n        /* \"#utility.yul\":5667:5670   */\n      0xa0\n        /* \"#utility.yul\":5655:5664   */\n      dup7\n        /* \"#utility.yul\":5646:5653   */\n      dup9\n        /* \"#utility.yul\":5642:5665   */\n      sub\n        /* \"#utility.yul\":5638:5671   */\n      slt\n        /* \"#utility.yul\":5635:5755   */\n      iszero\n      tag_343\n      jumpi\n        /* \"#utility.yul\":5674:5753   */\n      tag_344\n      tag_210\n      jump\t// in\n    tag_344:\n        /* \"#utility.yul\":5635:5755   */\n    tag_343:\n        /* \"#utility.yul\":5794:5795   */\n      0x00\n        /* \"#utility.yul\":5819:5872   */\n      tag_345\n        /* \"#utility.yul\":5864:5871   */\n      dup9\n        /* \"#utility.yul\":5855:5861   */\n      dup3\n        /* \"#utility.yul\":5844:5853   */\n      dup10\n        /* \"#utility.yul\":5840:5862   */\n      add\n        /* \"#utility.yul\":5819:5872   */\n      tag_215\n      jump\t// in\n    tag_345:\n        /* \"#utility.yul\":5809:5872   */\n      swap6\n      pop\n        /* \"#utility.yul\":5765:5882   */\n      pop\n        /* \"#utility.yul\":5921:5923   */\n      0x20\n        /* \"#utility.yul\":5947:6000   */\n      tag_346\n        /* \"#utility.yul\":5992:5999   */\n      dup9\n        /* \"#utility.yul\":5983:5989   */\n      dup3\n        /* \"#utility.yul\":5972:5981   */\n      dup10\n        /* \"#utility.yul\":5968:5990   */\n      add\n        /* \"#utility.yul\":5947:6000   */\n      tag_225\n      jump\t// in\n    tag_346:\n        /* \"#utility.yul\":5937:6000   */\n      swap5\n      pop\n        /* \"#utility.yul\":5892:6010   */\n      pop\n        /* \"#utility.yul\":6049:6051   */\n      0x40\n        /* \"#utility.yul\":6075:6128   */\n      tag_347\n        /* \"#utility.yul\":6120:6127   */\n      dup9\n        /* \"#utility.yul\":6111:6117   */\n      dup3\n        /* \"#utility.yul\":6100:6109   */\n      dup10\n        /* \"#utility.yul\":6096:6118   */\n      add\n        /* \"#utility.yul\":6075:6128   */\n      tag_225\n      jump\t// in\n    tag_347:\n        /* \"#utility.yul\":6065:6128   */\n      swap4\n      pop\n        /* \"#utility.yul\":6020:6138   */\n      pop\n        /* \"#utility.yul\":6177:6179   */\n      0x60\n        /* \"#utility.yul\":6203:6256   */\n      tag_348\n        /* \"#utility.yul\":6248:6255   */\n      dup9\n        /* \"#utility.yul\":6239:6245   */\n      dup3\n        /* \"#utility.yul\":6228:6237   */\n      dup10\n        /* \"#utility.yul\":6224:6246   */\n      add\n        /* \"#utility.yul\":6203:6256   */\n      tag_225\n      jump\t// in\n    tag_348:\n        /* \"#utility.yul\":6193:6256   */\n      swap3\n      pop\n        /* \"#utility.yul\":6148:6266   */\n      pop\n        /* \"#utility.yul\":6305:6308   */\n      0x80\n        /* \"#utility.yul\":6332:6385   */\n      tag_349\n        /* \"#utility.yul\":6377:6384   */\n      dup9\n        /* \"#utility.yul\":6368:6374   */\n      dup3\n        /* \"#utility.yul\":6357:6366   */\n      dup10\n        /* \"#utility.yul\":6353:6375   */\n      add\n        /* \"#utility.yul\":6332:6385   */\n      tag_225\n      jump\t// in\n    tag_349:\n        /* \"#utility.yul\":6322:6385   */\n      swap2\n      pop\n        /* \"#utility.yul\":6276:6395   */\n      pop\n        /* \"#utility.yul\":5491:6402   */\n      swap3\n      swap6\n      pop\n      swap3\n      swap6\n      swap1\n      swap4\n      pop\n      jump\t// out\n        /* \"#utility.yul\":6408:6512   */\n    tag_230:\n        /* \"#utility.yul\":6453:6460   */\n      0x00\n        /* \"#utility.yul\":6482:6506   */\n      tag_351\n        /* \"#utility.yul\":6500:6505   */\n      dup3\n        /* \"#utility.yul\":6482:6506   */\n      tag_212\n      jump\t// in\n    tag_351:\n        /* \"#utility.yul\":6471:6506   */\n      swap1\n      pop\n        /* \"#utility.yul\":6408:6512   */\n      swap2\n      swap1\n      pop\n      jump\t// out\n        /* \"#utility.yul\":6518:6650   */\n    tag_231:\n        /* \"#utility.yul\":6611:6643   */\n      tag_353\n        /* \"#utility.yul\":6637:6642   */\n      dup2\n        /* \"#utility.yul\":6611:6643   */\n      tag_230\n      jump\t// in\n    tag_353:\n        /* \"#utility.yul\":6606:6609   */\n      dup3\n        /* \"#utility.yul\":6599:6644   */\n      mstore\n        /* \"#utility.yul\":6518:6650   */\n      pop\n      pop\n      jump\t// out\n        /* \"#utility.yul\":6656:6764   */\n    tag_232:\n        /* \"#utility.yul\":6733:6757   */\n      tag_355\n        /* \"#utility.yul\":6751:6756   */\n      dup2\n        /* \"#utility.yul\":6733:6757   */\n      tag_213\n      jump\t// in\n    tag_355:\n        /* \"#utility.yul\":6728:6731   */\n      dup3\n        /* \"#utility.yul\":6721:6758   */\n      mstore\n        /* \"#utility.yul\":6656:6764   */\n      pop\n      pop\n      jump\t// out\n        /* \"#utility.yul\":6770:6847   */\n    tag_233:\n        /* \"#utility.yul\":6807:6814   */\n      0x00\n        /* \"#utility.yul\":6836:6841   */\n      dup2\n        /* \"#utility.yul\":6825:6841   */\n      swap1\n      pop\n        /* \"#utility.yul\":6770:6847   */\n      swap2\n      swap1\n      pop\n      jump\t// out\n        /* \"#utility.yul\":6853:6961   */\n    tag_234:\n        /* \"#utility.yul\":6930:6954   */\n      tag_358\n        /* \"#utility.yul\":6948:6953   */\n      dup2\n        /* \"#utility.yul\":6930:6954   */\n      tag_233\n      jump\t// in\n    tag_358:\n        /* \"#utility.yul\":6925:6928   */\n      dup3\n        /* \"#utility.yul\":6918:6955   */\n      mstore\n        /* \"#utility.yul\":6853:6961   */\n      pop\n      pop\n      jump\t// out\n        /* \"#utility.yul\":7033:8454   */\n    tag_235:\n        /* \"#utility.yul\":7186:7190   */\n      0xe0\n        /* \"#utility.yul\":7181:7184   */\n      dup3\n        /* \"#utility.yul\":7177:7191   */\n      add\n        /* \"#utility.yul\":7275:7279   */\n      0x00\n        /* \"#utility.yul\":7268:7273   */\n      dup3\n        /* \"#utility.yul\":7264:7280   */\n      add\n        /* \"#utility.yul\":7258:7281   */\n      mload\n        /* \"#utility.yul\":7294:7373   */\n      tag_360\n        /* \"#utility.yul\":7367:7371   */\n      0x00\n        /* \"#utility.yul\":7362:7365   */\n      dup6\n        /* \"#utility.yul\":7358:7372   */\n      add\n        /* \"#utility.yul\":7344:7356   */\n      dup3\n        /* \"#utility.yul\":7294:7373   */\n      tag_231\n      jump\t// in\n    tag_360:\n        /* \"#utility.yul\":7201:7383   */\n      pop\n        /* \"#utility.yul\":7475:7479   */\n      0x20\n        /* \"#utility.yul\":7468:7473   */\n      dup3\n        /* \"#utility.yul\":7464:7480   */\n      add\n        /* \"#utility.yul\":7458:7481   */\n      mload\n        /* \"#utility.yul\":7494:7557   */\n      tag_361\n        /* \"#utility.yul\":7551:7555   */\n      0x20\n        /* \"#utility.yul\":7546:7549   */\n      dup6\n        /* \"#utility.yul\":7542:7556   */\n      add\n        /* \"#utility.yul\":7528:7540   */\n      dup3\n        /* \"#utility.yul\":7494:7557   */\n      tag_232\n      jump\t// in\n    tag_361:\n        /* \"#utility.yul\":7393:7567   */\n      pop\n        /* \"#utility.yul\":7652:7656   */\n      0x40\n        /* \"#utility.yul\":7645:7650   */\n      dup3\n        /* \"#utility.yul\":7641:7657   */\n      add\n        /* \"#utility.yul\":7635:7658   */\n      mload\n        /* \"#utility.yul\":7671:7734   */\n      tag_362\n        /* \"#utility.yul\":7728:7732   */\n      0x40\n        /* \"#utility.yul\":7723:7726   */\n      dup6\n        /* \"#utility.yul\":7719:7733   */\n      add\n        /* \"#utility.yul\":7705:7717   */\n      dup3\n        /* \"#utility.yul\":7671:7734   */\n      tag_220\n      jump\t// in\n    tag_362:\n        /* \"#utility.yul\":7577:7744   */\n      pop\n        /* \"#utility.yul\":7828:7832   */\n      0x60\n        /* \"#utility.yul\":7821:7826   */\n      dup3\n        /* \"#utility.yul\":7817:7833   */\n      add\n        /* \"#utility.yul\":7811:7834   */\n      mload\n        /* \"#utility.yul\":7847:7910   */\n      tag_363\n        /* \"#utility.yul\":7904:7908   */\n      0x60\n        /* \"#utility.yul\":7899:7902   */\n      dup6\n        /* \"#utility.yul\":7895:7909   */\n      add\n        /* \"#utility.yul\":7881:7893   */\n      dup3\n        /* \"#utility.yul\":7847:7910   */\n      tag_220\n      jump\t// in\n    tag_363:\n        /* \"#utility.yul\":7754:7920   */\n      pop\n        /* \"#utility.yul\":8006:8010   */\n      0x80\n        /* \"#utility.yul\":7999:8004   */\n      dup3\n        /* \"#utility.yul\":7995:8011   */\n      add\n        /* \"#utility.yul\":7989:8012   */\n      mload\n        /* \"#utility.yul\":8025:8088   */\n      tag_364\n        /* \"#utility.yul\":8082:8086   */\n      0x80\n        /* \"#utility.yul\":8077:8080   */\n      dup6\n        /* \"#utility.yul\":8073:8087   */\n      add\n        /* \"#utility.yul\":8059:8071   */\n      dup3\n        /* \"#utility.yul\":8025:8088   */\n      tag_220\n      jump\t// in\n    tag_364:\n        /* \"#utility.yul\":7930:8098   */\n      pop\n        /* \"#utility.yul\":8179:8183   */\n      0xa0\n        /* \"#utility.yul\":8172:8177   */\n      dup3\n        /* \"#utility.yul\":8168:8184   */\n      add\n        /* \"#utility.yul\":8162:8185   */\n      mload\n        /* \"#utility.yul\":8198:8261   */\n      tag_365\n        /* \"#utility.yul\":8255:8259   */\n      0xa0\n        /* \"#utility.yul\":8250:8253   */\n      dup6\n        /* \"#utility.yul\":8246:8260   */\n      add\n        /* \"#utility.yul\":8232:8244   */\n      dup3\n        /* \"#utility.yul\":8198:8261   */\n      tag_220\n      jump\t// in\n    tag_365:\n        /* \"#utility.yul\":8108:8271   */\n      pop\n        /* \"#utility.yul\":8355:8359   */\n      0xc0\n        /* \"#utility.yul\":8348:8353   */\n      dup3\n        /* \"#utility.yul\":8344:8360   */\n      add\n        /* \"#utility.yul\":8338:8361   */\n      mload\n        /* \"#utility.yul\":8374:8437   */\n      tag_366\n        /* \"#utility.yul\":8431:8435   */\n      0xc0\n        /* \"#utility.yul\":8426:8429   */\n      dup6\n        /* \"#utility.yul\":8422:8436   */\n      add\n        /* \"#utility.yul\":8408:8420   */\n      dup3\n        /* \"#utility.yul\":8374:8437   */\n      tag_234\n      jump\t// in\n    tag_366:\n        /* \"#utility.yul\":8281:8447   */\n      pop\n        /* \"#utility.yul\":7155:8454   */\n      pop\n        /* \"#utility.yul\":7033:8454   */\n      pop\n      pop\n      jump\t// out\n        /* \"#utility.yul\":8460:8795   */\n    tag_73:\n        /* \"#utility.yul\":8609:8613   */\n      0x00\n        /* \"#utility.yul\":8647:8650   */\n      0xe0\n        /* \"#utility.yul\":8636:8645   */\n      dup3\n        /* \"#utility.yul\":8632:8651   */\n      add\n        /* \"#utility.yul\":8624:8651   */\n      swap1\n      pop\n        /* \"#utility.yul\":8661:8788   */\n      tag_368\n        /* \"#utility.yul\":8785:8786   */\n      0x00\n        /* \"#utility.yul\":8774:8783   */\n      dup4\n        /* \"#utility.yul\":8770:8787   */\n      add\n        /* \"#utility.yul\":8761:8767   */\n      dup5\n        /* \"#utility.yul\":8661:8788   */\n      tag_235\n      jump\t// in\n    tag_368:\n        /* \"#utility.yul\":8460:8795   */\n      swap3\n      swap2\n      pop\n      pop\n      jump\t// out\n        /* \"#utility.yul\":8801:9121   */\n    tag_81:\n        /* \"#utility.yul\":8916:8920   */\n      0x00\n        /* \"#utility.yul\":8954:8956   */\n      0x40\n        /* \"#utility.yul\":8943:8952   */\n      dup3\n        /* \"#utility.yul\":8939:8957   */\n      add\n        /* \"#utility.yul\":8931:8957   */\n      swap1\n      pop\n        /* \"#utility.yul\":8967:9038   */\n      tag_370\n        /* \"#utility.yul\":9035:9036   */\n      0x00\n        /* \"#utility.yul\":9024:9033   */\n      dup4\n        /* \"#utility.yul\":9020:9037   */\n      add\n        /* \"#utility.yul\":9011:9017   */\n      dup6\n        /* \"#utility.yul\":8967:9038   */\n      tag_226\n      jump\t// in\n    tag_370:\n        /* \"#utility.yul\":9048:9114   */\n      tag_371\n        /* \"#utility.yul\":9110:9112   */\n      0x20\n        /* \"#utility.yul\":9099:9108   */\n      dup4\n        /* \"#utility.yul\":9095:9113   */\n      add\n        /* \"#utility.yul\":9086:9092   */\n      dup5\n        /* \"#utility.yul\":9048:9114   */\n      tag_229\n      jump\t// in\n    tag_371:\n        /* \"#utility.yul\":8801:9121   */\n      swap4\n      swap3\n      pop\n      pop\n      pop\n      jump\t// out\n        /* \"#utility.yul\":9127:9269   */\n    tag_236:\n        /* \"#utility.yul\":9230:9262   */\n      tag_373\n        /* \"#utility.yul\":9256:9261   */\n      dup2\n        /* \"#utility.yul\":9230:9262   */\n      tag_230\n      jump\t// in\n    tag_373:\n        /* \"#utility.yul\":9225:9228   */\n      dup3\n        /* \"#utility.yul\":9218:9263   */\n      mstore\n        /* \"#utility.yul\":9127:9269   */\n      pop\n      pop\n      jump\t// out\n        /* \"#utility.yul\":9275:9393   */\n    tag_237:\n        /* \"#utility.yul\":9362:9386   */\n      tag_375\n        /* \"#utility.yul\":9380:9385   */\n      dup2\n        /* \"#utility.yul\":9362:9386   */\n      tag_233\n      jump\t// in\n    tag_375:\n        /* \"#utility.yul\":9357:9360   */\n      dup3\n        /* \"#utility.yul\":9350:9387   */\n      mstore\n        /* \"#utility.yul\":9275:9393   */\n      pop\n      pop\n      jump\t// out\n        /* \"#utility.yul\":9399:10317   */\n    tag_89:\n        /* \"#utility.yul\":9676:9680   */\n      0x00\n        /* \"#utility.yul\":9714:9717   */\n      0xe0\n        /* \"#utility.yul\":9703:9712   */\n      dup3\n        /* \"#utility.yul\":9699:9718   */\n      add\n        /* \"#utility.yul\":9691:9718   */\n      swap1\n      pop\n        /* \"#utility.yul\":9728:9815   */\n      tag_377\n        /* \"#utility.yul\":9812:9813   */\n      0x00\n        /* \"#utility.yul\":9801:9810   */\n      dup4\n        /* \"#utility.yul\":9797:9814   */\n      add\n        /* \"#utility.yul\":9788:9794   */\n      dup11\n        /* \"#utility.yul\":9728:9815   */\n      tag_236\n      jump\t// in\n    tag_377:\n        /* \"#utility.yul\":9825:9897   */\n      tag_378\n        /* \"#utility.yul\":9893:9895   */\n      0x20\n        /* \"#utility.yul\":9882:9891   */\n      dup4\n        /* \"#utility.yul\":9878:9896   */\n      add\n        /* \"#utility.yul\":9869:9875   */\n      dup10\n        /* \"#utility.yul\":9825:9897   */\n      tag_227\n      jump\t// in\n    tag_378:\n        /* \"#utility.yul\":9907:9979   */\n      tag_379\n        /* \"#utility.yul\":9975:9977   */\n      0x40\n        /* \"#utility.yul\":9964:9973   */\n      dup4\n        /* \"#utility.yul\":9960:9978   */\n      add\n        /* \"#utility.yul\":9951:9957   */\n      dup9\n        /* \"#utility.yul\":9907:9979   */\n      tag_226\n      jump\t// in\n    tag_379:\n        /* \"#utility.yul\":9989:10061   */\n      tag_380\n        /* \"#utility.yul\":10057:10059   */\n      0x60\n        /* \"#utility.yul\":10046:10055   */\n      dup4\n        /* \"#utility.yul\":10042:10060   */\n      add\n        /* \"#utility.yul\":10033:10039   */\n      dup8\n        /* \"#utility.yul\":9989:10061   */\n      tag_226\n      jump\t// in\n    tag_380:\n        /* \"#utility.yul\":10071:10144   */\n      tag_381\n        /* \"#utility.yul\":10139:10142   */\n      0x80\n        /* \"#utility.yul\":10128:10137   */\n      dup4\n        /* \"#utility.yul\":10124:10143   */\n      add\n        /* \"#utility.yul\":10115:10121   */\n      dup7\n        /* \"#utility.yul\":10071:10144   */\n      tag_226\n      jump\t// in\n    tag_381:\n        /* \"#utility.yul\":10154:10227   */\n      tag_382\n        /* \"#utility.yul\":10222:10225   */\n      0xa0\n        /* \"#utility.yul\":10211:10220   */\n      dup4\n        /* \"#utility.yul\":10207:10226   */\n      add\n        /* \"#utility.yul\":10198:10204   */\n      dup6\n        /* \"#utility.yul\":10154:10227   */\n      tag_226\n      jump\t// in\n    tag_382:\n        /* \"#utility.yul\":10237:10310   */\n      tag_383\n        /* \"#utility.yul\":10305:10308   */\n      0xc0\n        /* \"#utility.yul\":10294:10303   */\n      dup4\n        /* \"#utility.yul\":10290:10309   */\n      add\n        /* \"#utility.yul\":10281:10287   */\n      dup5\n        /* \"#utility.yul\":10237:10310   */\n      tag_237\n      jump\t// in\n    tag_383:\n        /* \"#utility.yul\":9399:10317   */\n      swap9\n      swap8\n      pop\n      pop\n      pop\n      pop\n      pop\n      pop\n      pop\n      pop\n      jump\t// out\n        /* \"#utility.yul\":10323:10503   */\n    tag_238:\n        /* \"#utility.yul\":10371:10448   */\n      0x4e487b7100000000000000000000000000000000000000000000000000000000\n        /* \"#utility.yul\":10368:10369   */\n      0x00\n        /* \"#utility.yul\":10361:10449   */\n      mstore\n        /* \"#utility.yul\":10468:10472   */\n      0x12\n        /* \"#utility.yul\":10465:10466   */\n      0x04\n        /* \"#utility.yul\":10458:10473   */\n      mstore\n        /* \"#utility.yul\":10492:10496   */\n      0x24\n        /* \"#utility.yul\":10489:10490   */\n      0x00\n        /* \"#utility.yul\":10482:10497   */\n      revert\n        /* \"#utility.yul\":10509:10689   */\n    tag_239:\n        /* \"#utility.yul\":10557:10634   */\n      0x4e487b7100000000000000000000000000000000000000000000000000000000\n        /* \"#utility.yul\":10554:10555   */\n      0x00\n        /* \"#utility.yul\":10547:10635   */\n      mstore\n        /* \"#utility.yul\":10654:10658   */\n      0x11\n        /* \"#utility.yul\":10651:10652   */\n      0x04\n        /* \"#utility.yul\":10644:10659   */\n      mstore\n        /* \"#utility.yul\":10678:10682   */\n      0x24\n        /* \"#utility.yul\":10675:10676   */\n      0x00\n        /* \"#utility.yul\":10668:10683   */\n      revert\n        /* \"#utility.yul\":10695:10880   */\n    tag_96:\n        /* \"#utility.yul\":10735:10736   */\n      0x00\n        /* \"#utility.yul\":10752:10772   */\n      tag_387\n        /* \"#utility.yul\":10770:10771   */\n      dup3\n        /* \"#utility.yul\":10752:10772   */\n      tag_219\n      jump\t// in\n    tag_387:\n        /* \"#utility.yul\":10747:10772   */\n      swap2\n      pop\n        /* \"#utility.yul\":10786:10806   */\n      tag_388\n        /* \"#utility.yul\":10804:10805   */\n      dup4\n        /* \"#utility.yul\":10786:10806   */\n      tag_219\n      jump\t// in\n    tag_388:\n        /* \"#utility.yul\":10781:10806   */\n      swap3\n      pop\n        /* \"#utility.yul\":10825:10826   */\n      dup3\n        /* \"#utility.yul\":10815:10850   */\n      tag_389\n      jumpi\n        /* \"#utility.yul\":10830:10848   */\n      tag_390\n      tag_238\n      jump\t// in\n    tag_390:\n        /* \"#utility.yul\":10815:10850   */\n    tag_389:\n        /* \"#utility.yul\":10872:10873   */\n      dup3\n        /* \"#utility.yul\":10869:10870   */\n      dup3\n        /* \"#utility.yul\":10865:10874   */\n      div\n        /* \"#utility.yul\":10860:10874   */\n      swap1\n      pop\n        /* \"#utility.yul\":10695:10880   */\n      swap3\n      swap2\n      pop\n      pop\n      jump\t// out\n        /* \"#utility.yul\":10886:11296   */\n    tag_99:\n        /* \"#utility.yul\":10926:10933   */\n      0x00\n        /* \"#utility.yul\":10949:10969   */\n      tag_392\n        /* \"#utility.yul\":10967:10968   */\n      dup3\n        /* \"#utility.yul\":10949:10969   */\n      tag_219\n      jump\t// in\n    tag_392:\n        /* \"#utility.yul\":10944:10969   */\n      swap2\n      pop\n        /* \"#utility.yul\":10983:11003   */\n      tag_393\n        /* \"#utility.yul\":11001:11002   */\n      dup4\n        /* \"#utility.yul\":10983:11003   */\n      tag_219\n      jump\t// in\n    tag_393:\n        /* \"#utility.yul\":10978:11003   */\n      swap3\n      pop\n        /* \"#utility.yul\":11038:11039   */\n      dup3\n        /* \"#utility.yul\":11035:11036   */\n      dup3\n        /* \"#utility.yul\":11031:11040   */\n      mul\n        /* \"#utility.yul\":11060:11090   */\n      tag_394\n        /* \"#utility.yul\":11078:11089   */\n      dup2\n        /* \"#utility.yul\":11060:11090   */\n      tag_219\n      jump\t// in\n    tag_394:\n        /* \"#utility.yul\":11049:11090   */\n      swap2\n      pop\n        /* \"#utility.yul\":11239:11240   */\n      dup3\n        /* \"#utility.yul\":11230:11237   */\n      dup3\n        /* \"#utility.yul\":11226:11241   */\n      div\n        /* \"#utility.yul\":11223:11224   */\n      dup5\n        /* \"#utility.yul\":11220:11242   */\n      eq\n        /* \"#utility.yul\":11200:11201   */\n      dup4\n        /* \"#utility.yul\":11193:11202   */\n      iszero\n        /* \"#utility.yul\":11173:11256   */\n      or\n        /* \"#utility.yul\":11150:11289   */\n      tag_395\n      jumpi\n        /* \"#utility.yul\":11269:11287   */\n      tag_396\n      tag_239\n      jump\t// in\n    tag_396:\n        /* \"#utility.yul\":11150:11289   */\n    tag_395:\n        /* \"#utility.yul\":10934:11296   */\n      pop\n        /* \"#utility.yul\":10886:11296   */\n      swap3\n      swap2\n      pop\n      pop\n      jump\t// out\n        /* \"#utility.yul\":11302:11496   */\n    tag_101:\n        /* \"#utility.yul\":11342:11346   */\n      0x00\n        /* \"#utility.yul\":11362:11382   */\n      tag_398\n        /* \"#utility.yul\":11380:11381   */\n      dup3\n        /* \"#utility.yul\":11362:11382   */\n      tag_219\n      jump\t// in\n    tag_398:\n        /* \"#utility.yul\":11357:11382   */\n      swap2\n      pop\n        /* \"#utility.yul\":11396:11416   */\n      tag_399\n        /* \"#utility.yul\":11414:11415   */\n      dup4\n        /* \"#utility.yul\":11396:11416   */\n      tag_219\n      jump\t// in\n    tag_399:\n        /* \"#utility.yul\":11391:11416   */\n      swap3\n      pop\n        /* \"#utility.yul\":11440:11441   */\n      dup3\n        /* \"#utility.yul\":11437:11438   */\n      dup3\n        /* \"#utility.yul\":11433:11442   */\n      sub\n        /* \"#utility.yul\":11425:11442   */\n      swap1\n      pop\n        /* \"#utility.yul\":11464:11465   */\n      dup2\n        /* \"#utility.yul\":11458:11462   */\n      dup2\n        /* \"#utility.yul\":11455:11466   */\n      gt\n        /* \"#utility.yul\":11452:11489   */\n      iszero\n      tag_400\n      jumpi\n        /* \"#utility.yul\":11469:11487   */\n      tag_401\n      tag_239\n      jump\t// in\n    tag_401:\n        /* \"#utility.yul\":11452:11489   */\n    tag_400:\n        /* \"#utility.yul\":11302:11496   */\n      swap3\n      swap2\n      pop\n      pop\n      jump\t// out\n        /* \"#utility.yul\":11502:11693   */\n    tag_105:\n        /* \"#utility.yul\":11542:11545   */\n      0x00\n        /* \"#utility.yul\":11561:11581   */\n      tag_403\n        /* \"#utility.yul\":11579:11580   */\n      dup3\n        /* \"#utility.yul\":11561:11581   */\n      tag_219\n      jump\t// in\n    tag_403:\n        /* \"#utility.yul\":11556:11581   */\n      swap2\n      pop\n        /* \"#utility.yul\":11595:11615   */\n      tag_404\n        /* \"#utility.yul\":11613:11614   */\n      dup4\n        /* \"#utility.yul\":11595:11615   */\n      tag_219\n      jump\t// in\n    tag_404:\n        /* \"#utility.yul\":11590:11615   */\n      swap3\n      pop\n        /* \"#utility.yul\":11638:11639   */\n      dup3\n        /* \"#utility.yul\":11635:11636   */\n      dup3\n        /* \"#utility.yul\":11631:11640   */\n      add\n        /* \"#utility.yul\":11624:11640   */\n      swap1\n      pop\n        /* \"#utility.yul\":11659:11662   */\n      dup1\n        /* \"#utility.yul\":11656:11657   */\n      dup3\n        /* \"#utility.yul\":11653:11663   */\n      gt\n        /* \"#utility.yul\":11650:11686   */\n      iszero\n      tag_405\n      jumpi\n        /* \"#utility.yul\":11666:11684   */\n      tag_406\n      tag_239\n      jump\t// in\n    tag_406:\n        /* \"#utility.yul\":11650:11686   */\n    tag_405:\n        /* \"#utility.yul\":11502:11693   */\n      swap3\n      swap2\n      pop\n      pop\n      jump\t// out\n        /* \"#utility.yul\":11699:11842   */\n    tag_240:\n        /* \"#utility.yul\":11756:11761   */\n      0x00\n        /* \"#utility.yul\":11787:11793   */\n      dup2\n        /* \"#utility.yul\":11781:11794   */\n      mload\n        /* \"#utility.yul\":11772:11794   */\n      swap1\n      pop\n        /* \"#utility.yul\":11803:11836   */\n      tag_408\n        /* \"#utility.yul\":11830:11835   */\n      dup2\n        /* \"#utility.yul\":11803:11836   */\n      tag_214\n      jump\t// in\n    tag_408:\n        /* \"#utility.yul\":11699:11842   */\n      swap3\n      swap2\n      pop\n      pop\n      jump\t// out\n        /* \"#utility.yul\":11848:12199   */\n    tag_111:\n        /* \"#utility.yul\":11918:11924   */\n      0x00\n        /* \"#utility.yul\":11967:11969   */\n      0x20\n        /* \"#utility.yul\":11955:11964   */\n      dup3\n        /* \"#utility.yul\":11946:11953   */\n      dup5\n        /* \"#utility.yul\":11942:11965   */\n      sub\n        /* \"#utility.yul\":11938:11970   */\n      slt\n        /* \"#utility.yul\":11935:12054   */\n      iszero\n      tag_410\n      jumpi\n        /* \"#utility.yul\":11973:12052   */\n      tag_411\n      tag_210\n      jump\t// in\n    tag_411:\n        /* \"#utility.yul\":11935:12054   */\n    tag_410:\n        /* \"#utility.yul\":12093:12094   */\n      0x00\n        /* \"#utility.yul\":12118:12182   */\n      tag_412\n        /* \"#utility.yul\":12174:12181   */\n      dup5\n        /* \"#utility.yul\":12165:12171   */\n      dup3\n        /* \"#utility.yul\":12154:12163   */\n      dup6\n        /* \"#utility.yul\":12150:12172   */\n      add\n        /* \"#utility.yul\":12118:12182   */\n      tag_240\n      jump\t// in\n    tag_412:\n        /* \"#utility.yul\":12108:12182   */\n      swap2\n      pop\n        /* \"#utility.yul\":12064:12192   */\n      pop\n        /* \"#utility.yul\":11848:12199   */\n      swap3\n      swap2\n      pop\n      pop\n      jump\t// out\n        /* \"#utility.yul\":12205:12537   */\n    tag_114:\n        /* \"#utility.yul\":12326:12330   */\n      0x00\n        /* \"#utility.yul\":12364:12366   */\n      0x40\n        /* \"#utility.yul\":12353:12362   */\n      dup3\n        /* \"#utility.yul\":12349:12367   */\n      add\n        /* \"#utility.yul\":12341:12367   */\n      swap1\n      pop\n        /* \"#utility.yul\":12377:12448   */\n      tag_414\n        /* \"#utility.yul\":12445:12446   */\n      0x00\n        /* \"#utility.yul\":12434:12443   */\n      dup4\n        /* \"#utility.yul\":12430:12447   */\n      add\n        /* \"#utility.yul\":12421:12427   */\n      dup6\n        /* \"#utility.yul\":12377:12448   */\n      tag_227\n      jump\t// in\n    tag_414:\n        /* \"#utility.yul\":12458:12530   */\n      tag_415\n        /* \"#utility.yul\":12526:12528   */\n      0x20\n        /* \"#utility.yul\":12515:12524   */\n      dup4\n        /* \"#utility.yul\":12511:12529   */\n      add\n        /* \"#utility.yul\":12502:12508   */\n      dup5\n        /* \"#utility.yul\":12458:12530   */\n      tag_227\n      jump\t// in\n    tag_415:\n        /* \"#utility.yul\":12205:12537   */\n      swap4\n      swap3\n      pop\n      pop\n      pop\n      jump\t// out\n        /* \"#utility.yul\":12543:12659   */\n    tag_241:\n        /* \"#utility.yul\":12613:12634   */\n      tag_417\n        /* \"#utility.yul\":12628:12633   */\n      dup2\n        /* \"#utility.yul\":12613:12634   */\n      tag_228\n      jump\t// in\n    tag_417:\n        /* \"#utility.yul\":12606:12611   */\n      dup2\n        /* \"#utility.yul\":12603:12635   */\n      eq\n        /* \"#utility.yul\":12593:12653   */\n      tag_418\n      jumpi\n        /* \"#utility.yul\":12649:12650   */\n      0x00\n        /* \"#utility.yul\":12646:12647   */\n      dup1\n        /* \"#utility.yul\":12639:12651   */\n      revert\n        /* \"#utility.yul\":12593:12653   */\n    tag_418:\n        /* \"#utility.yul\":12543:12659   */\n      pop\n      jump\t// out\n        /* \"#utility.yul\":12665:12802   */\n    tag_242:\n        /* \"#utility.yul\":12719:12724   */\n      0x00\n        /* \"#utility.yul\":12750:12756   */\n      dup2\n        /* \"#utility.yul\":12744:12757   */\n      mload\n        /* \"#utility.yul\":12735:12757   */\n      swap1\n      pop\n        /* \"#utility.yul\":12766:12796   */\n      tag_420\n        /* \"#utility.yul\":12790:12795   */\n      dup2\n        /* \"#utility.yul\":12766:12796   */\n      tag_241\n      jump\t// in\n    tag_420:\n        /* \"#utility.yul\":12665:12802   */\n      swap3\n      swap2\n      pop\n      pop\n      jump\t// out\n        /* \"#utility.yul\":12808:13153   */\n    tag_118:\n        /* \"#utility.yul\":12875:12881   */\n      0x00\n        /* \"#utility.yul\":12924:12926   */\n      0x20\n        /* \"#utility.yul\":12912:12921   */\n      dup3\n        /* \"#utility.yul\":12903:12910   */\n      dup5\n        /* \"#utility.yul\":12899:12922   */\n      sub\n        /* \"#utility.yul\":12895:12927   */\n      slt\n        /* \"#utility.yul\":12892:13011   */\n      iszero\n      tag_422\n      jumpi\n        /* \"#utility.yul\":12930:13009   */\n      tag_423\n      tag_210\n      jump\t// in\n    tag_423:\n        /* \"#utility.yul\":12892:13011   */\n    tag_422:\n        /* \"#utility.yul\":13050:13051   */\n      0x00\n        /* \"#utility.yul\":13075:13136   */\n      tag_424\n        /* \"#utility.yul\":13128:13135   */\n      dup5\n        /* \"#utility.yul\":13119:13125   */\n      dup3\n        /* \"#utility.yul\":13108:13117   */\n      dup6\n        /* \"#utility.yul\":13104:13126   */\n      add\n        /* \"#utility.yul\":13075:13136   */\n      tag_242\n      jump\t// in\n    tag_424:\n        /* \"#utility.yul\":13065:13136   */\n      swap2\n      pop\n        /* \"#utility.yul\":13021:13146   */\n      pop\n        /* \"#utility.yul\":12808:13153   */\n      swap3\n      swap2\n      pop\n      pop\n      jump\t// out\n        /* \"#utility.yul\":13159:13328   */\n    tag_243:\n        /* \"#utility.yul\":13243:13254   */\n      0x00\n        /* \"#utility.yul\":13277:13283   */\n      dup3\n        /* \"#utility.yul\":13272:13275   */\n      dup3\n        /* \"#utility.yul\":13265:13284   */\n      mstore\n        /* \"#utility.yul\":13317:13321   */\n      0x20\n        /* \"#utility.yul\":13312:13315   */\n      dup3\n        /* \"#utility.yul\":13308:13322   */\n      add\n        /* \"#utility.yul\":13293:13322   */\n      swap1\n      pop\n        /* \"#utility.yul\":13159:13328   */\n      swap3\n      swap2\n      pop\n      pop\n      jump\t// out\n        /* \"#utility.yul\":13334:13516   */\n    tag_244:\n        /* \"#utility.yul\":13474:13508   */\n      0x56616c756573206d7573742062652067726561746572207468616e207a65726f\n        /* \"#utility.yul\":13470:13471   */\n      0x00\n        /* \"#utility.yul\":13462:13468   */\n      dup3\n        /* \"#utility.yul\":13458:13472   */\n      add\n        /* \"#utility.yul\":13451:13509   */\n      mstore\n        /* \"#utility.yul\":13334:13516   */\n      pop\n      jump\t// out\n        /* \"#utility.yul\":13522:13888   */\n    tag_245:\n        /* \"#utility.yul\":13664:13667   */\n      0x00\n        /* \"#utility.yul\":13685:13752   */\n      tag_428\n        /* \"#utility.yul\":13749:13751   */\n      0x20\n        /* \"#utility.yul\":13744:13747   */\n      dup4\n        /* \"#utility.yul\":13685:13752   */\n      tag_243\n      jump\t// in\n    tag_428:\n        /* \"#utility.yul\":13678:13752   */\n      swap2\n      pop\n        /* \"#utility.yul\":13761:13854   */\n      tag_429\n        /* \"#utility.yul\":13850:13853   */\n      dup3\n        /* \"#utility.yul\":13761:13854   */\n      tag_244\n      jump\t// in\n    tag_429:\n        /* \"#utility.yul\":13879:13881   */\n      0x20\n        /* \"#utility.yul\":13874:13877   */\n      dup3\n        /* \"#utility.yul\":13870:13882   */\n      add\n        /* \"#utility.yul\":13863:13882   */\n      swap1\n      pop\n        /* \"#utility.yul\":13522:13888   */\n      swap2\n      swap1\n      pop\n      jump\t// out\n        /* \"#utility.yul\":13894:14313   */\n    tag_125:\n        /* \"#utility.yul\":14060:14064   */\n      0x00\n        /* \"#utility.yul\":14098:14100   */\n      0x20\n        /* \"#utility.yul\":14087:14096   */\n      dup3\n        /* \"#utility.yul\":14083:14101   */\n      add\n        /* \"#utility.yul\":14075:14101   */\n      swap1\n      pop\n        /* \"#utility.yul\":14147:14156   */\n      dup2\n        /* \"#utility.yul\":14141:14145   */\n      dup2\n        /* \"#utility.yul\":14137:14157   */\n      sub\n        /* \"#utility.yul\":14133:14134   */\n      0x00\n        /* \"#utility.yul\":14122:14131   */\n      dup4\n        /* \"#utility.yul\":14118:14135   */\n      add\n        /* \"#utility.yul\":14111:14158   */\n      mstore\n        /* \"#utility.yul\":14175:14306   */\n      tag_431\n        /* \"#utility.yul\":14301:14305   */\n      dup2\n        /* \"#utility.yul\":14175:14306   */\n      tag_245\n      jump\t// in\n    tag_431:\n        /* \"#utility.yul\":14167:14306   */\n      swap1\n      pop\n        /* \"#utility.yul\":13894:14313   */\n      swap2\n      swap1\n      pop\n      jump\t// out\n        /* \"#utility.yul\":14319:14501   */\n    tag_246:\n        /* \"#utility.yul\":14459:14493   */\n      0x596f7520617265206e6f7420686f6c646572206f66207468697320746f6b656e\n        /* \"#utility.yul\":14455:14456   */\n      0x00\n        /* \"#utility.yul\":14447:14453   */\n      dup3\n        /* \"#utility.yul\":14443:14457   */\n      add\n        /* \"#utility.yul\":14436:14494   */\n      mstore\n        /* \"#utility.yul\":14319:14501   */\n      pop\n      jump\t// out\n        /* \"#utility.yul\":14507:14873   */\n    tag_247:\n        /* \"#utility.yul\":14649:14652   */\n      0x00\n        /* \"#utility.yul\":14670:14737   */\n      tag_434\n        /* \"#utility.yul\":14734:14736   */\n      0x20\n        /* \"#utility.yul\":14729:14732   */\n      dup4\n        /* \"#utility.yul\":14670:14737   */\n      tag_243\n      jump\t// in\n    tag_434:\n        /* \"#utility.yul\":14663:14737   */\n      swap2\n      pop\n        /* \"#utility.yul\":14746:14839   */\n      tag_435\n        /* \"#utility.yul\":14835:14838   */\n      dup3\n        /* \"#utility.yul\":14746:14839   */\n      tag_246\n      jump\t// in\n    tag_435:\n        /* \"#utility.yul\":14864:14866   */\n      0x20\n        /* \"#utility.yul\":14859:14862   */\n      dup3\n        /* \"#utility.yul\":14855:14867   */\n      add\n        /* \"#utility.yul\":14848:14867   */\n      swap1\n      pop\n        /* \"#utility.yul\":14507:14873   */\n      swap2\n      swap1\n      pop\n      jump\t// out\n        /* \"#utility.yul\":14879:15298   */\n    tag_132:\n        /* \"#utility.yul\":15045:15049   */\n      0x00\n        /* \"#utility.yul\":15083:15085   */\n      0x20\n        /* \"#utility.yul\":15072:15081   */\n      dup3\n        /* \"#utility.yul\":15068:15086   */\n      add\n        /* \"#utility.yul\":15060:15086   */\n      swap1\n      pop\n        /* \"#utility.yul\":15132:15141   */\n      dup2\n        /* \"#utility.yul\":15126:15130   */\n      dup2\n        /* \"#utility.yul\":15122:15142   */\n      sub\n        /* \"#utility.yul\":15118:15119   */\n      0x00\n        /* \"#utility.yul\":15107:15116   */\n      dup4\n        /* \"#utility.yul\":15103:15120   */\n      add\n        /* \"#utility.yul\":15096:15143   */\n      mstore\n        /* \"#utility.yul\":15160:15291   */\n      tag_437\n        /* \"#utility.yul\":15286:15290   */\n      dup2\n        /* \"#utility.yul\":15160:15291   */\n      tag_247\n      jump\t// in\n    tag_437:\n        /* \"#utility.yul\":15152:15291   */\n      swap1\n      pop\n        /* \"#utility.yul\":14879:15298   */\n      swap2\n      swap1\n      pop\n      jump\t// out\n        /* \"#utility.yul\":15304:15746   */\n    tag_135:\n        /* \"#utility.yul\":15453:15457   */\n      0x00\n        /* \"#utility.yul\":15491:15493   */\n      0x60\n        /* \"#utility.yul\":15480:15489   */\n      dup3\n        /* \"#utility.yul\":15476:15494   */\n      add\n        /* \"#utility.yul\":15468:15494   */\n      swap1\n      pop\n        /* \"#utility.yul\":15504:15575   */\n      tag_439\n        /* \"#utility.yul\":15572:15573   */\n      0x00\n        /* \"#utility.yul\":15561:15570   */\n      dup4\n        /* \"#utility.yul\":15557:15574   */\n      add\n        /* \"#utility.yul\":15548:15554   */\n      dup7\n        /* \"#utility.yul\":15504:15575   */\n      tag_227\n      jump\t// in\n    tag_439:\n        /* \"#utility.yul\":15585:15657   */\n      tag_440\n        /* \"#utility.yul\":15653:15655   */\n      0x20\n        /* \"#utility.yul\":15642:15651   */\n      dup4\n        /* \"#utility.yul\":15638:15656   */\n      add\n        /* \"#utility.yul\":15629:15635   */\n      dup6\n        /* \"#utility.yul\":15585:15657   */\n      tag_227\n      jump\t// in\n    tag_440:\n        /* \"#utility.yul\":15667:15739   */\n      tag_441\n        /* \"#utility.yul\":15735:15737   */\n      0x40\n        /* \"#utility.yul\":15724:15733   */\n      dup4\n        /* \"#utility.yul\":15720:15738   */\n      add\n        /* \"#utility.yul\":15711:15717   */\n      dup5\n        /* \"#utility.yul\":15667:15739   */\n      tag_226\n      jump\t// in\n    tag_441:\n        /* \"#utility.yul\":15304:15746   */\n      swap5\n      swap4\n      pop\n      pop\n      pop\n      pop\n      jump\t// out\n        /* \"#utility.yul\":15752:15985   */\n    tag_141:\n        /* \"#utility.yul\":15791:15794   */\n      0x00\n        /* \"#utility.yul\":15814:15838   */\n      tag_443\n        /* \"#utility.yul\":15832:15837   */\n      dup3\n        /* \"#utility.yul\":15814:15838   */\n      tag_219\n      jump\t// in\n    tag_443:\n        /* \"#utility.yul\":15805:15838   */\n      swap2\n      pop\n        /* \"#utility.yul\":15860:15926   */\n      0xffffffffffffffffffffffffffffffffffffffffffffffffffffffffffffffff\n        /* \"#utility.yul\":15853:15858   */\n      dup3\n        /* \"#utility.yul\":15850:15927   */\n      sub\n        /* \"#utility.yul\":15847:15950   */\n      tag_444\n      jumpi\n        /* \"#utility.yul\":15930:15948   */\n      tag_445\n      tag_239\n      jump\t// in\n    tag_445:\n        /* \"#utility.yul\":15847:15950   */\n    tag_444:\n        /* \"#utility.yul\":15977:15978   */\n      0x01\n        /* \"#utility.yul\":15970:15975   */\n      dup3\n        /* \"#utility.yul\":15966:15979   */\n      add\n        /* \"#utility.yul\":15959:15979   */\n      swap1\n      pop\n        /* \"#utility.yul\":15752:15985   */\n      swap2\n      swap1\n      pop\n      jump\t// out\n        /* \"#utility.yul\":15991:16436   */\n    tag_143:\n        /* \"#utility.yul\":16168:16172   */\n      0x00\n        /* \"#utility.yul\":16206:16209   */\n      0x0100\n        /* \"#utility.yul\":16195:16204   */\n      dup3\n        /* \"#utility.yul\":16191:16210   */\n      add\n        /* \"#utility.yul\":16183:16210   */\n      swap1\n      pop\n        /* \"#utility.yul\":16220:16291   */\n      tag_447\n        /* \"#utility.yul\":16288:16289   */\n      0x00\n        /* \"#utility.yul\":16277:16286   */\n      dup4\n        /* \"#utility.yul\":16273:16290   */\n      add\n        /* \"#utility.yul\":16264:16270   */\n      dup6\n        /* \"#utility.yul\":16220:16291   */\n      tag_227\n      jump\t// in\n    tag_447:\n        /* \"#utility.yul\":16301:16429   */\n      tag_448\n        /* \"#utility.yul\":16425:16427   */\n      0x20\n        /* \"#utility.yul\":16414:16423   */\n      dup4\n        /* \"#utility.yul\":16410:16428   */\n      add\n        /* \"#utility.yul\":16401:16407   */\n      dup5\n        /* \"#utility.yul\":16301:16429   */\n      tag_235\n      jump\t// in\n    tag_448:\n        /* \"#utility.yul\":15991:16436   */\n      swap4\n      swap3\n      pop\n      pop\n      pop\n      jump\t// out\n        /* \"#utility.yul\":16442:16623   */\n    tag_248:\n        /* \"#utility.yul\":16582:16615   */\n      0x4974277320796f7572206f776e206c6f616e206170706c69636174696f6e2e00\n        /* \"#utility.yul\":16578:16579   */\n      0x00\n        /* \"#utility.yul\":16570:16576   */\n      dup3\n        /* \"#utility.yul\":16566:16580   */\n      add\n        /* \"#utility.yul\":16559:16616   */\n      mstore\n        /* \"#utility.yul\":16442:16623   */\n      pop\n      jump\t// out\n        /* \"#utility.yul\":16629:16995   */\n    tag_249:\n        /* \"#utility.yul\":16771:16774   */\n      0x00\n        /* \"#utility.yul\":16792:16859   */\n      tag_451\n        /* \"#utility.yul\":16856:16858   */\n      0x1f\n        /* \"#utility.yul\":16851:16854   */\n      dup4\n        /* \"#utility.yul\":16792:16859   */\n      tag_243\n      jump\t// in\n    tag_451:\n        /* \"#utility.yul\":16785:16859   */\n      swap2\n      pop\n        /* \"#utility.yul\":16868:16961   */\n      tag_452\n        /* \"#utility.yul\":16957:16960   */\n      dup3\n        /* \"#utility.yul\":16868:16961   */\n      tag_248\n      jump\t// in\n    tag_452:\n        /* \"#utility.yul\":16986:16988   */\n      0x20\n        /* \"#utility.yul\":16981:16984   */\n      dup3\n        /* \"#utility.yul\":16977:16989   */\n      add\n        /* \"#utility.yul\":16970:16989   */\n      swap1\n      pop\n        /* \"#utility.yul\":16629:16995   */\n      swap2\n      swap1\n      pop\n      jump\t// out\n        /* \"#utility.yul\":17001:17420   */\n    tag_149:\n        /* \"#utility.yul\":17167:17171   */\n      0x00\n        /* \"#utility.yul\":17205:17207   */\n      0x20\n        /* \"#utility.yul\":17194:17203   */\n      dup3\n        /* \"#utility.yul\":17190:17208   */\n      add\n        /* \"#utility.yul\":17182:17208   */\n      swap1\n      pop\n        /* \"#utility.yul\":17254:17263   */\n      dup2\n        /* \"#utility.yul\":17248:17252   */\n      dup2\n        /* \"#utility.yul\":17244:17264   */\n      sub\n        /* \"#utility.yul\":17240:17241   */\n      0x00\n        /* \"#utility.yul\":17229:17238   */\n      dup4\n        /* \"#utility.yul\":17225:17242   */\n      add\n        /* \"#utility.yul\":17218:17265   */\n      mstore\n        /* \"#utility.yul\":17282:17413   */\n      tag_454\n        /* \"#utility.yul\":17408:17412   */\n      dup2\n        /* \"#utility.yul\":17282:17413   */\n      tag_249\n      jump\t// in\n    tag_454:\n        /* \"#utility.yul\":17274:17413   */\n      swap1\n      pop\n        /* \"#utility.yul\":17001:17420   */\n      swap2\n      swap1\n      pop\n      jump\t// out\n        /* \"#utility.yul\":17426:17651   */\n    tag_250:\n        /* \"#utility.yul\":17566:17600   */\n      0x596f7520686176656e277420656e6f7567682062616c616e636520666f72206c\n        /* \"#utility.yul\":17562:17563   */\n      0x00\n        /* \"#utility.yul\":17554:17560   */\n      dup3\n        /* \"#utility.yul\":17550:17564   */\n      add\n        /* \"#utility.yul\":17543:17601   */\n      mstore\n        /* \"#utility.yul\":17635:17643   */\n      0x656e64696e670000000000000000000000000000000000000000000000000000\n        /* \"#utility.yul\":17630:17632   */\n      0x20\n        /* \"#utility.yul\":17622:17628   */\n      dup3\n        /* \"#utility.yul\":17618:17633   */\n      add\n        /* \"#utility.yul\":17611:17644   */\n      mstore\n        /* \"#utility.yul\":17426:17651   */\n      pop\n      jump\t// out\n        /* \"#utility.yul\":17657:18023   */\n    tag_251:\n        /* \"#utility.yul\":17799:17802   */\n      0x00\n        /* \"#utility.yul\":17820:17887   */\n      tag_457\n        /* \"#utility.yul\":17884:17886   */\n      0x26\n        /* \"#utility.yul\":17879:17882   */\n      dup4\n        /* \"#utility.yul\":17820:17887   */\n      tag_243\n      jump\t// in\n    tag_457:\n        /* \"#utility.yul\":17813:17887   */\n      swap2\n      pop\n        /* \"#utility.yul\":17896:17989   */\n      tag_458\n        /* \"#utility.yul\":17985:17988   */\n      dup3\n        /* \"#utility.yul\":17896:17989   */\n      tag_250\n      jump\t// in\n    tag_458:\n        /* \"#utility.yul\":18014:18016   */\n      0x40\n        /* \"#utility.yul\":18009:18012   */\n      dup3\n        /* \"#utility.yul\":18005:18017   */\n      add\n        /* \"#utility.yul\":17998:18017   */\n      swap1\n      pop\n        /* \"#utility.yul\":17657:18023   */\n      swap2\n      swap1\n      pop\n      jump\t// out\n        /* \"#utility.yul\":18029:18448   */\n    tag_153:\n        /* \"#utility.yul\":18195:18199   */\n      0x00\n        /* \"#utility.yul\":18233:18235   */\n      0x20\n        /* \"#utility.yul\":18222:18231   */\n      dup3\n        /* \"#utility.yul\":18218:18236   */\n      add\n        /* \"#utility.yul\":18210:18236   */\n      swap1\n      pop\n        /* \"#utility.yul\":18282:18291   */\n      dup2\n        /* \"#utility.yul\":18276:18280   */\n      dup2\n        /* \"#utility.yul\":18272:18292   */\n      sub\n        /* \"#utility.yul\":18268:18269   */\n      0x00\n        /* \"#utility.yul\":18257:18266   */\n      dup4\n        /* \"#utility.yul\":18253:18270   */\n      add\n        /* \"#utility.yul\":18246:18293   */\n      mstore\n        /* \"#utility.yul\":18310:18441   */\n      tag_460\n        /* \"#utility.yul\":18436:18440   */\n      dup2\n        /* \"#utility.yul\":18310:18441   */\n      tag_251\n      jump\t// in\n    tag_460:\n        /* \"#utility.yul\":18302:18441   */\n      swap1\n      pop\n        /* \"#utility.yul\":18029:18448   */\n      swap2\n      swap1\n      pop\n      jump\t// out\n        /* \"#utility.yul\":18454:18601   */\n    tag_252:\n        /* \"#utility.yul\":18555:18566   */\n      0x00\n        /* \"#utility.yul\":18592:18595   */\n      dup2\n        /* \"#utility.yul\":18577:18595   */\n      swap1\n      pop\n        /* \"#utility.yul\":18454:18601   */\n      swap3\n      swap2\n      pop\n      pop\n      jump\t// out\n        /* \"#utility.yul\":18607:18721   */\n    tag_253:\n      pop\n      jump\t// out\n        /* \"#utility.yul\":18727:19125   */\n    tag_254:\n        /* \"#utility.yul\":18886:18889   */\n      0x00\n        /* \"#utility.yul\":18907:18990   */\n      tag_464\n        /* \"#utility.yul\":18988:18989   */\n      0x00\n        /* \"#utility.yul\":18983:18986   */\n      dup4\n        /* \"#utility.yul\":18907:18990   */\n      tag_252\n      jump\t// in\n    tag_464:\n        /* \"#utility.yul\":18900:18990   */\n      swap2\n      pop\n        /* \"#utility.yul\":18999:19092   */\n      tag_465\n        /* \"#utility.yul\":19088:19091   */\n      dup3\n        /* \"#utility.yul\":18999:19092   */\n      tag_253\n      jump\t// in\n    tag_465:\n        /* \"#utility.yul\":19117:19118   */\n      0x00\n        /* \"#utility.yul\":19112:19115   */\n      dup3\n        /* \"#utility.yul\":19108:19119   */\n      add\n        /* \"#utility.yul\":19101:19119   */\n      swap1\n      pop\n        /* \"#utility.yul\":18727:19125   */\n      swap2\n      swap1\n      pop\n      jump\t// out\n        /* \"#utility.yul\":19131:19510   */\n    tag_156:\n        /* \"#utility.yul\":19315:19318   */\n      0x00\n        /* \"#utility.yul\":19337:19484   */\n      tag_467\n        /* \"#utility.yul\":19480:19483   */\n      dup3\n        /* \"#utility.yul\":19337:19484   */\n      tag_254\n      jump\t// in\n    tag_467:\n        /* \"#utility.yul\":19330:19484   */\n      swap2\n      pop\n        /* \"#utility.yul\":19501:19504   */\n      dup2\n        /* \"#utility.yul\":19494:19504   */\n      swap1\n      pop\n        /* \"#utility.yul\":19131:19510   */\n      swap2\n      swap1\n      pop\n      jump\t// out\n        /* \"#utility.yul\":19516:19682   */\n    tag_255:\n        /* \"#utility.yul\":19656:19674   */\n      0x5472616e73666572206661696c65642e00000000000000000000000000000000\n        /* \"#utility.yul\":19652:19653   */\n      0x00\n        /* \"#utility.yul\":19644:19650   */\n      dup3\n        /* \"#utility.yul\":19640:19654   */\n      add\n        /* \"#utility.yul\":19633:19675   */\n      mstore\n        /* \"#utility.yul\":19516:19682   */\n      pop\n      jump\t// out\n        /* \"#utility.yul\":19688:20054   */\n    tag_256:\n        /* \"#utility.yul\":19830:19833   */\n      0x00\n        /* \"#utility.yul\":19851:19918   */\n      tag_470\n        /* \"#utility.yul\":19915:19917   */\n      0x10\n        /* \"#utility.yul\":19910:19913   */\n      dup4\n        /* \"#utility.yul\":19851:19918   */\n      tag_243\n      jump\t// in\n    tag_470:\n        /* \"#utility.yul\":19844:19918   */\n      swap2\n      pop\n        /* \"#utility.yul\":19927:20020   */\n      tag_471\n        /* \"#utility.yul\":20016:20019   */\n      dup3\n        /* \"#utility.yul\":19927:20020   */\n      tag_255\n      jump\t// in\n    tag_471:\n        /* \"#utility.yul\":20045:20047   */\n      0x20\n        /* \"#utility.yul\":20040:20043   */\n      dup3\n        /* \"#utility.yul\":20036:20048   */\n      add\n        /* \"#utility.yul\":20029:20048   */\n      swap1\n      pop\n        /* \"#utility.yul\":19688:20054   */\n      swap2\n      swap1\n      pop\n      jump\t// out\n        /* \"#utility.yul\":20060:20479   */\n    tag_162:\n        /* \"#utility.yul\":20226:20230   */\n      0x00\n        /* \"#utility.yul\":20264:20266   */\n      0x20\n        /* \"#utility.yul\":20253:20262   */\n      dup3\n        /* \"#utility.yul\":20249:20267   */\n      add\n        /* \"#utility.yul\":20241:20267   */\n      swap1\n      pop\n        /* \"#utility.yul\":20313:20322   */\n      dup2\n        /* \"#utility.yul\":20307:20311   */\n      dup2\n        /* \"#utility.yul\":20303:20323   */\n      sub\n        /* \"#utility.yul\":20299:20300   */\n      0x00\n        /* \"#utility.yul\":20288:20297   */\n      dup4\n        /* \"#utility.yul\":20284:20301   */\n      add\n        /* \"#utility.yul\":20277:20324   */\n      mstore\n        /* \"#utility.yul\":20341:20472   */\n      tag_473\n        /* \"#utility.yul\":20467:20471   */\n      dup2\n        /* \"#utility.yul\":20341:20472   */\n      tag_256\n      jump\t// in\n    tag_473:\n        /* \"#utility.yul\":20333:20472   */\n      swap1\n      pop\n        /* \"#utility.yul\":20060:20479   */\n      swap2\n      swap1\n      pop\n      jump\t// out\n        /* \"#utility.yul\":20485:20587   */\n    tag_257:\n        /* \"#utility.yul\":20527:20535   */\n      0x00\n        /* \"#utility.yul\":20574:20579   */\n      dup2\n        /* \"#utility.yul\":20571:20572   */\n      0x00\n        /* \"#utility.yul\":20567:20580   */\n      shr\n        /* \"#utility.yul\":20546:20580   */\n      swap1\n      pop\n        /* \"#utility.yul\":20485:20587   */\n      swap2\n      swap1\n      pop\n      jump\t// out\n        /* \"#utility.yul\":20593:20740   */\n    tag_258:\n        /* \"#utility.yul\":20651:20658   */\n      0x00\n        /* \"#utility.yul\":20691:20733   */\n      0xffffffffffffffffffffffffffffffffffffffff\n        /* \"#utility.yul\":20684:20689   */\n      dup3\n        /* \"#utility.yul\":20680:20734   */\n      and\n        /* \"#utility.yul\":20669:20734   */\n      swap1\n      pop\n        /* \"#utility.yul\":20593:20740   */\n      swap2\n      swap1\n      pop\n      jump\t// out\n        /* \"#utility.yul\":20746:20928   */\n    tag_259:\n        /* \"#utility.yul\":20823:20828   */\n      0x00\n        /* \"#utility.yul\":20848:20922   */\n      tag_477\n        /* \"#utility.yul\":20887:20921   */\n      tag_478\n        /* \"#utility.yul\":20910:20920   */\n      dup4\n        /* \"#utility.yul\":20887:20921   */\n      tag_257\n      jump\t// in\n    tag_478:\n        /* \"#utility.yul\":20848:20922   */\n      tag_258\n      jump\t// in\n    tag_477:\n        /* \"#utility.yul\":20839:20922   */\n      swap1\n      pop\n        /* \"#utility.yul\":20746:20928   */\n      swap2\n      swap1\n      pop\n      jump\t// out\n        /* \"#utility.yul\":20934:21073   */\n    tag_260:\n        /* \"#utility.yul\":20984:20991   */\n      0x00\n        /* \"#utility.yul\":21024:21066   */\n      0xffffffffffffffffffffffffffffffffffffffff\n        /* \"#utility.yul\":21017:21022   */\n      dup3\n        /* \"#utility.yul\":21013:21067   */\n      and\n        /* \"#utility.yul\":21002:21067   */\n      swap1\n      pop\n        /* \"#utility.yul\":20934:21073   */\n      swap2\n      swap1\n      pop\n      jump\t// out\n        /* \"#utility.yul\":21079:21245   */\n    tag_261:\n        /* \"#utility.yul\":21148:21153   */\n      0x00\n        /* \"#utility.yul\":21173:21239   */\n      tag_481\n        /* \"#utility.yul\":21204:21238   */\n      tag_482\n        /* \"#utility.yul\":21227:21237   */\n      dup4\n        /* \"#utility.yul\":21204:21238   */\n      tag_257\n      jump\t// in\n    tag_482:\n        /* \"#utility.yul\":21173:21239   */\n      tag_260\n      jump\t// in\n    tag_481:\n        /* \"#utility.yul\":21164:21239   */\n      swap1\n      pop\n        /* \"#utility.yul\":21079:21245   */\n      swap2\n      swap1\n      pop\n      jump\t// out\n        /* \"#utility.yul\":21251:21341   */\n    tag_262:\n        /* \"#utility.yul\":21301:21308   */\n      0x00\n        /* \"#utility.yul\":21330:21335   */\n      dup2\n        /* \"#utility.yul\":21319:21335   */\n      swap1\n      pop\n        /* \"#utility.yul\":21251:21341   */\n      swap2\n      swap1\n      pop\n      jump\t// out\n        /* \"#utility.yul\":21347:21513   */\n    tag_263:\n        /* \"#utility.yul\":21416:21421   */\n      0x00\n        /* \"#utility.yul\":21441:21507   */\n      tag_485\n        /* \"#utility.yul\":21472:21506   */\n      tag_486\n        /* \"#utility.yul\":21495:21505   */\n      dup4\n        /* \"#utility.yul\":21472:21506   */\n      tag_257\n      jump\t// in\n    tag_486:\n        /* \"#utility.yul\":21441:21507   */\n      tag_262\n      jump\t// in\n    tag_485:\n        /* \"#utility.yul\":21432:21507   */\n      swap1\n      pop\n        /* \"#utility.yul\":21347:21513   */\n      swap2\n      swap1\n      pop\n      jump\t// out\n        /* \"#utility.yul\":21519:21609   */\n    tag_264:\n        /* \"#utility.yul\":21569:21576   */\n      0x00\n        /* \"#utility.yul\":21598:21603   */\n      dup2\n        /* \"#utility.yul\":21587:21603   */\n      swap1\n      pop\n        /* \"#utility.yul\":21519:21609   */\n      swap2\n      swap1\n      pop\n      jump\t// out\n        /* \"#utility.yul\":21615:21781   */\n    tag_265:\n        /* \"#utility.yul\":21684:21689   */\n      0x00\n        /* \"#utility.yul\":21709:21775   */\n      tag_489\n        /* \"#utility.yul\":21740:21774   */\n      tag_490\n        /* \"#utility.yul\":21763:21773   */\n      dup4\n        /* \"#utility.yul\":21740:21774   */\n      tag_257\n      jump\t// in\n    tag_490:\n        /* \"#utility.yul\":21709:21775   */\n      tag_264\n      jump\t// in\n    tag_489:\n        /* \"#utility.yul\":21700:21775   */\n      swap1\n      pop\n        /* \"#utility.yul\":21615:21781   */\n      swap2\n      swap1\n      pop\n      jump\t// out\n        /* \"#utility.yul\":21853:23870   */\n    tag_266:\n        /* \"#utility.yul\":22007:22011   */\n      0xe0\n        /* \"#utility.yul\":22002:22005   */\n      dup3\n        /* \"#utility.yul\":21998:22012   */\n      add\n        /* \"#utility.yul\":22038:22039   */\n      0x00\n        /* \"#utility.yul\":22115:22119   */\n      dup1\n        /* \"#utility.yul\":22108:22113   */\n      dup4\n        /* \"#utility.yul\":22104:22120   */\n      add\n        /* \"#utility.yul\":22098:22121   */\n      sload\n        /* \"#utility.yul\":22085:22121   */\n      swap1\n      pop\n        /* \"#utility.yul\":22154:22217   */\n      tag_492\n        /* \"#utility.yul\":22207:22216   */\n      dup2\n        /* \"#utility.yul\":22154:22217   */\n      tag_259\n      jump\t// in\n    tag_492:\n        /* \"#utility.yul\":22230:22309   */\n      tag_493\n        /* \"#utility.yul\":22303:22307   */\n      0x00\n        /* \"#utility.yul\":22298:22301   */\n      dup7\n        /* \"#utility.yul\":22294:22308   */\n      add\n        /* \"#utility.yul\":22280:22292   */\n      dup3\n        /* \"#utility.yul\":22230:22309   */\n      tag_231\n      jump\t// in\n    tag_493:\n        /* \"#utility.yul\":22049:22319   */\n      pop\n        /* \"#utility.yul\":22403:22407   */\n      0x01\n        /* \"#utility.yul\":22396:22401   */\n      dup4\n        /* \"#utility.yul\":22392:22408   */\n      add\n        /* \"#utility.yul\":22386:22409   */\n      sload\n        /* \"#utility.yul\":22373:22409   */\n      swap1\n      pop\n        /* \"#utility.yul\":22442:22497   */\n      tag_494\n        /* \"#utility.yul\":22487:22496   */\n      dup2\n        /* \"#utility.yul\":22442:22497   */\n      tag_261\n      jump\t// in\n    tag_494:\n        /* \"#utility.yul\":22510:22573   */\n      tag_495\n        /* \"#utility.yul\":22567:22571   */\n      0x20\n        /* \"#utility.yul\":22562:22565   */\n      dup7\n        /* \"#utility.yul\":22558:22572   */\n      add\n        /* \"#utility.yul\":22544:22556   */\n      dup3\n        /* \"#utility.yul\":22510:22573   */\n      tag_232\n      jump\t// in\n    tag_495:\n        /* \"#utility.yul\":22329:22583   */\n      pop\n        /* \"#utility.yul\":22660:22664   */\n      0x02\n        /* \"#utility.yul\":22653:22658   */\n      dup4\n        /* \"#utility.yul\":22649:22665   */\n      add\n        /* \"#utility.yul\":22643:22666   */\n      sload\n        /* \"#utility.yul\":22630:22666   */\n      swap1\n      pop\n        /* \"#utility.yul\":22699:22754   */\n      tag_496\n        /* \"#utility.yul\":22744:22753   */\n      dup2\n        /* \"#utility.yul\":22699:22754   */\n      tag_263\n      jump\t// in\n    tag_496:\n        /* \"#utility.yul\":22767:22830   */\n      tag_497\n        /* \"#utility.yul\":22824:22828   */\n      0x40\n        /* \"#utility.yul\":22819:22822   */\n      dup7\n        /* \"#utility.yul\":22815:22829   */\n      add\n        /* \"#utility.yul\":22801:22813   */\n      dup3\n        /* \"#utility.yul\":22767:22830   */\n      tag_220\n      jump\t// in\n    tag_497:\n        /* \"#utility.yul\":22593:22840   */\n      pop\n        /* \"#utility.yul\":22916:22920   */\n      0x03\n        /* \"#utility.yul\":22909:22914   */\n      dup4\n        /* \"#utility.yul\":22905:22921   */\n      add\n        /* \"#utility.yul\":22899:22922   */\n      sload\n        /* \"#utility.yul\":22886:22922   */\n      swap1\n      pop\n        /* \"#utility.yul\":22955:23010   */\n      tag_498\n        /* \"#utility.yul\":23000:23009   */\n      dup2\n        /* \"#utility.yul\":22955:23010   */\n      tag_263\n      jump\t// in\n    tag_498:\n        /* \"#utility.yul\":23023:23086   */\n      tag_499\n        /* \"#utility.yul\":23080:23084   */\n      0x60\n        /* \"#utility.yul\":23075:23078   */\n      dup7\n        /* \"#utility.yul\":23071:23085   */\n      add\n        /* \"#utility.yul\":23057:23069   */\n      dup3\n        /* \"#utility.yul\":23023:23086   */\n      tag_220\n      jump\t// in\n    tag_499:\n        /* \"#utility.yul\":22850:23096   */\n      pop\n        /* \"#utility.yul\":23174:23178   */\n      0x04\n        /* \"#utility.yul\":23167:23172   */\n      dup4\n        /* \"#utility.yul\":23163:23179   */\n      add\n        /* \"#utility.yul\":23157:23180   */\n      sload\n        /* \"#utility.yul\":23144:23180   */\n      swap1\n      pop\n        /* \"#utility.yul\":23213:23268   */\n      tag_500\n        /* \"#utility.yul\":23258:23267   */\n      dup2\n        /* \"#utility.yul\":23213:23268   */\n      tag_263\n      jump\t// in\n    tag_500:\n        /* \"#utility.yul\":23281:23344   */\n      tag_501\n        /* \"#utility.yul\":23338:23342   */\n      0x80\n        /* \"#utility.yul\":23333:23336   */\n      dup7\n        /* \"#utility.yul\":23329:23343   */\n      add\n        /* \"#utility.yul\":23315:23327   */\n      dup3\n        /* \"#utility.yul\":23281:23344   */\n      tag_220\n      jump\t// in\n    tag_501:\n        /* \"#utility.yul\":23106:23354   */\n      pop\n        /* \"#utility.yul\":23427:23431   */\n      0x05\n        /* \"#utility.yul\":23420:23425   */\n      dup4\n        /* \"#utility.yul\":23416:23432   */\n      add\n        /* \"#utility.yul\":23410:23433   */\n      sload\n        /* \"#utility.yul\":23397:23433   */\n      swap1\n      pop\n        /* \"#utility.yul\":23466:23521   */\n      tag_502\n        /* \"#utility.yul\":23511:23520   */\n      dup2\n        /* \"#utility.yul\":23466:23521   */\n      tag_263\n      jump\t// in\n    tag_502:\n        /* \"#utility.yul\":23534:23597   */\n      tag_503\n        /* \"#utility.yul\":23591:23595   */\n      0xa0\n        /* \"#utility.yul\":23586:23589   */\n      dup7\n        /* \"#utility.yul\":23582:23596   */\n      add\n        /* \"#utility.yul\":23568:23580   */\n      dup3\n        /* \"#utility.yul\":23534:23597   */\n      tag_220\n      jump\t// in\n    tag_503:\n        /* \"#utility.yul\":23364:23607   */\n      pop\n        /* \"#utility.yul\":23683:23687   */\n      0x06\n        /* \"#utility.yul\":23676:23681   */\n      dup4\n        /* \"#utility.yul\":23672:23688   */\n      add\n        /* \"#utility.yul\":23666:23689   */\n      sload\n        /* \"#utility.yul\":23653:23689   */\n      swap1\n      pop\n        /* \"#utility.yul\":23722:23777   */\n      tag_504\n        /* \"#utility.yul\":23767:23776   */\n      dup2\n        /* \"#utility.yul\":23722:23777   */\n      tag_265\n      jump\t// in\n    tag_504:\n        /* \"#utility.yul\":23790:23853   */\n      tag_505\n        /* \"#utility.yul\":23847:23851   */\n      0xc0\n        /* \"#utility.yul\":23842:23845   */\n      dup7\n        /* \"#utility.yul\":23838:23852   */\n      add\n        /* \"#utility.yul\":23824:23836   */\n      dup3\n        /* \"#utility.yul\":23790:23853   */\n      tag_234\n      jump\t// in\n    tag_505:\n        /* \"#utility.yul\":23617:23863   */\n      pop\n        /* \"#utility.yul\":21976:23870   */\n      pop\n      pop\n        /* \"#utility.yul\":21853:23870   */\n      pop\n      pop\n      jump\t// out\n        /* \"#utility.yul\":23876:24323   */\n    tag_164:\n        /* \"#utility.yul\":24054:24058   */\n      0x00\n        /* \"#utility.yul\":24092:24095   */\n      0x0100\n        /* \"#utility.yul\":24081:24090   */\n      dup3\n        /* \"#utility.yul\":24077:24096   */\n      add\n        /* \"#utility.yul\":24069:24096   */\n      swap1\n      pop\n        /* \"#utility.yul\":24106:24177   */\n      tag_507\n        /* \"#utility.yul\":24174:24175   */\n      0x00\n        /* \"#utility.yul\":24163:24172   */\n      dup4\n        /* \"#utility.yul\":24159:24176   */\n      add\n        /* \"#utility.yul\":24150:24156   */\n      dup6\n        /* \"#utility.yul\":24106:24177   */\n      tag_227\n      jump\t// in\n    tag_507:\n        /* \"#utility.yul\":24187:24316   */\n      tag_508\n        /* \"#utility.yul\":24312:24314   */\n      0x20\n        /* \"#utility.yul\":24301:24310   */\n      dup4\n        /* \"#utility.yul\":24297:24315   */\n      add\n        /* \"#utility.yul\":24288:24294   */\n      dup5\n        /* \"#utility.yul\":24187:24316   */\n      tag_266\n      jump\t// in\n    tag_508:\n        /* \"#utility.yul\":23876:24323   */\n      swap4\n      swap3\n      pop\n      pop\n      pop\n      jump\t// out\n        /* \"#utility.yul\":24329:24497   */\n    tag_267:\n        /* \"#utility.yul\":24469:24489   */\n      0x596f7520617265206e6f7420706f737465720000000000000000000000000000\n        /* \"#utility.yul\":24465:24466   */\n      0x00\n        /* \"#utility.yul\":24457:24463   */\n      dup3\n        /* \"#utility.yul\":24453:24467   */\n      add\n        /* \"#utility.yul\":24446:24490   */\n      mstore\n        /* \"#utility.yul\":24329:24497   */\n      pop\n      jump\t// out\n        /* \"#utility.yul\":24503:24869   */\n    tag_268:\n        /* \"#utility.yul\":24645:24648   */\n      0x00\n        /* \"#utility.yul\":24666:24733   */\n      tag_511\n        /* \"#utility.yul\":24730:24732   */\n      0x12\n        /* \"#utility.yul\":24725:24728   */\n      dup4\n        /* \"#utility.yul\":24666:24733   */\n      tag_243\n      jump\t// in\n    tag_511:\n        /* \"#utility.yul\":24659:24733   */\n      swap2\n      pop\n        /* \"#utility.yul\":24742:24835   */\n      tag_512\n        /* \"#utility.yul\":24831:24834   */\n      dup3\n        /* \"#utility.yul\":24742:24835   */\n      tag_267\n      jump\t// in\n    tag_512:\n        /* \"#utility.yul\":24860:24862   */\n      0x20\n        /* \"#utility.yul\":24855:24858   */\n      dup3\n        /* \"#utility.yul\":24851:24863   */\n      add\n        /* \"#utility.yul\":24844:24863   */\n      swap1\n      pop\n        /* \"#utility.yul\":24503:24869   */\n      swap2\n      swap1\n      pop\n      jump\t// out\n        /* \"#utility.yul\":24875:25294   */\n    tag_168:\n        /* \"#utility.yul\":25041:25045   */\n      0x00\n        /* \"#utility.yul\":25079:25081   */\n      0x20\n        /* \"#utility.yul\":25068:25077   */\n      dup3\n        /* \"#utility.yul\":25064:25082   */\n      add\n        /* \"#utility.yul\":25056:25082   */\n      swap1\n      pop\n        /* \"#utility.yul\":25128:25137   */\n      dup2\n        /* \"#utility.yul\":25122:25126   */\n      dup2\n        /* \"#utility.yul\":25118:25138   */\n      sub\n        /* \"#utility.yul\":25114:25115   */\n      0x00\n        /* \"#utility.yul\":25103:25112   */\n      dup4\n        /* \"#utility.yul\":25099:25116   */\n      add\n        /* \"#utility.yul\":25092:25139   */\n      mstore\n        /* \"#utility.yul\":25156:25287   */\n      tag_514\n        /* \"#utility.yul\":25282:25286   */\n      dup2\n        /* \"#utility.yul\":25156:25287   */\n      tag_268\n      jump\t// in\n    tag_514:\n        /* \"#utility.yul\":25148:25287   */\n      swap1\n      pop\n        /* \"#utility.yul\":24875:25294   */\n      swap2\n      swap1\n      pop\n      jump\t// out\n        /* \"#utility.yul\":25300:25521   */\n    tag_269:\n        /* \"#utility.yul\":25440:25474   */\n      0x546869732069732065787069726564206f72206e6f7420657863757465642079\n        /* \"#utility.yul\":25436:25437   */\n      0x00\n        /* \"#utility.yul\":25428:25434   */\n      dup3\n        /* \"#utility.yul\":25424:25438   */\n      add\n        /* \"#utility.yul\":25417:25475   */\n      mstore\n        /* \"#utility.yul\":25509:25513   */\n      0x6574000000000000000000000000000000000000000000000000000000000000\n        /* \"#utility.yul\":25504:25506   */\n      0x20\n        /* \"#utility.yul\":25496:25502   */\n      dup3\n        /* \"#utility.yul\":25492:25507   */\n      add\n        /* \"#utility.yul\":25485:25514   */\n      mstore\n        /* \"#utility.yul\":25300:25521   */\n      pop\n      jump\t// out\n        /* \"#utility.yul\":25527:25893   */\n    tag_270:\n        /* \"#utility.yul\":25669:25672   */\n      0x00\n        /* \"#utility.yul\":25690:25757   */\n      tag_517\n        /* \"#utility.yul\":25754:25756   */\n      0x22\n        /* \"#utility.yul\":25749:25752   */\n      dup4\n        /* \"#utility.yul\":25690:25757   */\n      tag_243\n      jump\t// in\n    tag_517:\n        /* \"#utility.yul\":25683:25757   */\n      swap2\n      pop\n        /* \"#utility.yul\":25766:25859   */\n      tag_518\n        /* \"#utility.yul\":25855:25858   */\n      dup3\n        /* \"#utility.yul\":25766:25859   */\n      tag_269\n      jump\t// in\n    tag_518:\n        /* \"#utility.yul\":25884:25886   */\n      0x40\n        /* \"#utility.yul\":25879:25882   */\n      dup3\n        /* \"#utility.yul\":25875:25887   */\n      add\n        /* \"#utility.yul\":25868:25887   */\n      swap1\n      pop\n        /* \"#utility.yul\":25527:25893   */\n      swap2\n      swap1\n      pop\n      jump\t// out\n        /* \"#utility.yul\":25899:26318   */\n    tag_171:\n        /* \"#utility.yul\":26065:26069   */\n      0x00\n        /* \"#utility.yul\":26103:26105   */\n      0x20\n        /* \"#utility.yul\":26092:26101   */\n      dup3\n        /* \"#utility.yul\":26088:26106   */\n      add\n        /* \"#utility.yul\":26080:26106   */\n      swap1\n      pop\n        /* \"#utility.yul\":26152:26161   */\n      dup2\n        /* \"#utility.yul\":26146:26150   */\n      dup2\n        /* \"#utility.yul\":26142:26162   */\n      sub\n        /* \"#utility.yul\":26138:26139   */\n      0x00\n        /* \"#utility.yul\":26127:26136   */\n      dup4\n        /* \"#utility.yul\":26123:26140   */\n      add\n        /* \"#utility.yul\":26116:26163   */\n      mstore\n        /* \"#utility.yul\":26180:26311   */\n      tag_520\n        /* \"#utility.yul\":26306:26310   */\n      dup2\n        /* \"#utility.yul\":26180:26311   */\n      tag_270\n      jump\t// in\n    tag_520:\n        /* \"#utility.yul\":26172:26311   */\n      swap1\n      pop\n        /* \"#utility.yul\":25899:26318   */\n      swap2\n      swap1\n      pop\n      jump\t// out\n        /* \"#utility.yul\":26324:26505   */\n    tag_271:\n        /* \"#utility.yul\":26464:26497   */\n      0x4e6f7420656e6f7567682062616c616e636520666f72207265706179696e6700\n        /* \"#utility.yul\":26460:26461   */\n      0x00\n        /* \"#utility.yul\":26452:26458   */\n      dup3\n        /* \"#utility.yul\":26448:26462   */\n      add\n        /* \"#utility.yul\":26441:26498   */\n      mstore\n        /* \"#utility.yul\":26324:26505   */\n      pop\n      jump\t// out\n        /* \"#utility.yul\":26511:26877   */\n    tag_272:\n        /* \"#utility.yul\":26653:26656   */\n      0x00\n        /* \"#utility.yul\":26674:26741   */\n      tag_523\n        /* \"#utility.yul\":26738:26740   */\n      0x1f\n        /* \"#utility.yul\":26733:26736   */\n      dup4\n        /* \"#utility.yul\":26674:26741   */\n      tag_243\n      jump\t// in\n    tag_523:\n        /* \"#utility.yul\":26667:26741   */\n      swap2\n      pop\n        /* \"#utility.yul\":26750:26843   */\n      tag_524\n        /* \"#utility.yul\":26839:26842   */\n      dup3\n        /* \"#utility.yul\":26750:26843   */\n      tag_271\n      jump\t// in\n    tag_524:\n        /* \"#utility.yul\":26868:26870   */\n      0x20\n        /* \"#utility.yul\":26863:26866   */\n      dup3\n        /* \"#utility.yul\":26859:26871   */\n      add\n        /* \"#utility.yul\":26852:26871   */\n      swap1\n      pop\n        /* \"#utility.yul\":26511:26877   */\n      swap2\n      swap1\n      pop\n      jump\t// out\n        /* \"#utility.yul\":26883:27302   */\n    tag_175:\n        /* \"#utility.yul\":27049:27053   */\n      0x00\n        /* \"#utility.yul\":27087:27089   */\n      0x20\n        /* \"#utility.yul\":27076:27085   */\n      dup3\n        /* \"#utility.yul\":27072:27090   */\n      add\n        /* \"#utility.yul\":27064:27090   */\n      swap1\n      pop\n        /* \"#utility.yul\":27136:27145   */\n      dup2\n        /* \"#utility.yul\":27130:27134   */\n      dup2\n        /* \"#utility.yul\":27126:27146   */\n      sub\n        /* \"#utility.yul\":27122:27123   */\n      0x00\n        /* \"#utility.yul\":27111:27120   */\n      dup4\n        /* \"#utility.yul\":27107:27124   */\n      add\n        /* \"#utility.yul\":27100:27147   */\n      mstore\n        /* \"#utility.yul\":27164:27295   */\n      tag_526\n        /* \"#utility.yul\":27290:27294   */\n      dup2\n        /* \"#utility.yul\":27164:27295   */\n      tag_272\n      jump\t// in\n    tag_526:\n        /* \"#utility.yul\":27156:27295   */\n      swap1\n      pop\n        /* \"#utility.yul\":26883:27302   */\n      swap2\n      swap1\n      pop\n      jump\t// out\n        /* \"#utility.yul\":27308:27478   */\n    tag_273:\n        /* \"#utility.yul\":27448:27470   */\n      0x546869732069736e277420726570617920796574000000000000000000000000\n        /* \"#utility.yul\":27444:27445   */\n      0x00\n        /* \"#utility.yul\":27436:27442   */\n      dup3\n        /* \"#utility.yul\":27432:27446   */\n      add\n        /* \"#utility.yul\":27425:27471   */\n      mstore\n        /* \"#utility.yul\":27308:27478   */\n      pop\n      jump\t// out\n        /* \"#utility.yul\":27484:27850   */\n    tag_274:\n        /* \"#utility.yul\":27626:27629   */\n      0x00\n        /* \"#utility.yul\":27647:27714   */\n      tag_529\n        /* \"#utility.yul\":27711:27713   */\n      0x14\n        /* \"#utility.yul\":27706:27709   */\n      dup4\n        /* \"#utility.yul\":27647:27714   */\n      tag_243\n      jump\t// in\n    tag_529:\n        /* \"#utility.yul\":27640:27714   */\n      swap2\n      pop\n        /* \"#utility.yul\":27723:27816   */\n      tag_530\n        /* \"#utility.yul\":27812:27815   */\n      dup3\n        /* \"#utility.yul\":27723:27816   */\n      tag_273\n      jump\t// in\n    tag_530:\n        /* \"#utility.yul\":27841:27843   */\n      0x20\n        /* \"#utility.yul\":27836:27839   */\n      dup3\n        /* \"#utility.yul\":27832:27844   */\n      add\n        /* \"#utility.yul\":27825:27844   */\n      swap1\n      pop\n        /* \"#utility.yul\":27484:27850   */\n      swap2\n      swap1\n      pop\n      jump\t// out\n        /* \"#utility.yul\":27856:28275   */\n    tag_189:\n        /* \"#utility.yul\":28022:28026   */\n      0x00\n        /* \"#utility.yul\":28060:28062   */\n      0x20\n        /* \"#utility.yul\":28049:28058   */\n      dup3\n        /* \"#utility.yul\":28045:28063   */\n      add\n        /* \"#utility.yul\":28037:28063   */\n      swap1\n      pop\n        /* \"#utility.yul\":28109:28118   */\n      dup2\n        /* \"#utility.yul\":28103:28107   */\n      dup2\n        /* \"#utility.yul\":28099:28119   */\n      sub\n        /* \"#utility.yul\":28095:28096   */\n      0x00\n        /* \"#utility.yul\":28084:28093   */\n      dup4\n        /* \"#utility.yul\":28080:28097   */\n      add\n        /* \"#utility.yul\":28073:28120   */\n      mstore\n        /* \"#utility.yul\":28137:28268   */\n      tag_532\n        /* \"#utility.yul\":28263:28267   */\n      dup2\n        /* \"#utility.yul\":28137:28268   */\n      tag_274\n      jump\t// in\n    tag_532:\n        /* \"#utility.yul\":28129:28268   */\n      swap1\n      pop\n        /* \"#utility.yul\":27856:28275   */\n      swap2\n      swap1\n      pop\n      jump\t// out\n        /* \"#utility.yul\":28281:28461   */\n    tag_275:\n        /* \"#utility.yul\":28421:28453   */\n      0x596f7520617265206e6f7420706f73746572206f6620746865206c6973740000\n        /* \"#utility.yul\":28417:28418   */\n      0x00\n        /* \"#utility.yul\":28409:28415   */\n      dup3\n        /* \"#utility.yul\":28405:28419   */\n      add\n        /* \"#utility.yul\":28398:28454   */\n      mstore\n        /* \"#utility.yul\":28281:28461   */\n      pop\n      jump\t// out\n        /* \"#utility.yul\":28467:28833   */\n    tag_276:\n        /* \"#utility.yul\":28609:28612   */\n      0x00\n        /* \"#utility.yul\":28630:28697   */\n      tag_535\n        /* \"#utility.yul\":28694:28696   */\n      0x1e\n        /* \"#utility.yul\":28689:28692   */\n      dup4\n        /* \"#utility.yul\":28630:28697   */\n      tag_243\n      jump\t// in\n    tag_535:\n        /* \"#utility.yul\":28623:28697   */\n      swap2\n      pop\n        /* \"#utility.yul\":28706:28799   */\n      tag_536\n        /* \"#utility.yul\":28795:28798   */\n      dup3\n        /* \"#utility.yul\":28706:28799   */\n      tag_275\n      jump\t// in\n    tag_536:\n        /* \"#utility.yul\":28824:28826   */\n      0x20\n        /* \"#utility.yul\":28819:28822   */\n      dup3\n        /* \"#utility.yul\":28815:28827   */\n      add\n        /* \"#utility.yul\":28808:28827   */\n      swap1\n      pop\n        /* \"#utility.yul\":28467:28833   */\n      swap2\n      swap1\n      pop\n      jump\t// out\n        /* \"#utility.yul\":28839:29258   */\n    tag_203:\n        /* \"#utility.yul\":29005:29009   */\n      0x00\n        /* \"#utility.yul\":29043:29045   */\n      0x20\n        /* \"#utility.yul\":29032:29041   */\n      dup3\n        /* \"#utility.yul\":29028:29046   */\n      add\n        /* \"#utility.yul\":29020:29046   */\n      swap1\n      pop\n        /* \"#utility.yul\":29092:29101   */\n      dup2\n        /* \"#utility.yul\":29086:29090   */\n      dup2\n        /* \"#utility.yul\":29082:29102   */\n      sub\n        /* \"#utility.yul\":29078:29079   */\n      0x00\n        /* \"#utility.yul\":29067:29076   */\n      dup4\n        /* \"#utility.yul\":29063:29080   */\n      add\n        /* \"#utility.yul\":29056:29103   */\n      mstore\n        /* \"#utility.yul\":29120:29251   */\n      tag_538\n        /* \"#utility.yul\":29246:29250   */\n      dup2\n        /* \"#utility.yul\":29120:29251   */\n      tag_276\n      jump\t// in\n    tag_538:\n        /* \"#utility.yul\":29112:29251   */\n      swap1\n      pop\n        /* \"#utility.yul\":28839:29258   */\n      swap2\n      swap1\n      pop\n      jump\t// out\n        /* \"#utility.yul\":29264:29430   */\n    tag_277:\n        /* \"#utility.yul\":29404:29422   */\n      0x4e6f74206f70656e696e67206c69737400000000000000000000000000000000\n        /* \"#utility.yul\":29400:29401   */\n      0x00\n        /* \"#utility.yul\":29392:29398   */\n      dup3\n        /* \"#utility.yul\":29388:29402   */\n      add\n        /* \"#utility.yul\":29381:29423   */\n      mstore\n        /* \"#utility.yul\":29264:29430   */\n      pop\n      jump\t// out\n        /* \"#utility.yul\":29436:29802   */\n    tag_278:\n        /* \"#utility.yul\":29578:29581   */\n      0x00\n        /* \"#utility.yul\":29599:29666   */\n      tag_541\n        /* \"#utility.yul\":29663:29665   */\n      0x10\n        /* \"#utility.yul\":29658:29661   */\n      dup4\n        /* \"#utility.yul\":29599:29666   */\n      tag_243\n      jump\t// in\n    tag_541:\n        /* \"#utility.yul\":29592:29666   */\n      swap2\n      pop\n        /* \"#utility.yul\":29675:29768   */\n      tag_542\n        /* \"#utility.yul\":29764:29767   */\n      dup3\n        /* \"#utility.yul\":29675:29768   */\n      tag_277\n      jump\t// in\n    tag_542:\n        /* \"#utility.yul\":29793:29795   */\n      0x20\n        /* \"#utility.yul\":29788:29791   */\n      dup3\n        /* \"#utility.yul\":29784:29796   */\n      add\n        /* \"#utility.yul\":29777:29796   */\n      swap1\n      pop\n        /* \"#utility.yul\":29436:29802   */\n      swap2\n      swap1\n      pop\n      jump\t// out\n        /* \"#utility.yul\":29808:30227   */\n    tag_206:\n        /* \"#utility.yul\":29974:29978   */\n      0x00\n        /* \"#utility.yul\":30012:30014   */\n      0x20\n        /* \"#utility.yul\":30001:30010   */\n      dup3\n        /* \"#utility.yul\":29997:30015   */\n      add\n        /* \"#utility.yul\":29989:30015   */\n      swap1\n      pop\n        /* \"#utility.yul\":30061:30070   */\n      dup2\n        /* \"#utility.yul\":30055:30059   */\n      dup2\n        /* \"#utility.yul\":30051:30071   */\n      sub\n        /* \"#utility.yul\":30047:30048   */\n      0x00\n        /* \"#utility.yul\":30036:30045   */\n      dup4\n        /* \"#utility.yul\":30032:30049   */\n      add\n        /* \"#utility.yul\":30025:30072   */\n      mstore\n        /* \"#utility.yul\":30089:30220   */\n      tag_544\n        /* \"#utility.yul\":30215:30219   */\n      dup2\n        /* \"#utility.yul\":30089:30220   */\n      tag_278\n      jump\t// in\n    tag_544:\n        /* \"#utility.yul\":30081:30220   */\n      swap1\n      pop\n        /* \"#utility.yul\":29808:30227   */\n      swap2\n      swap1\n      pop\n      jump\t// out\n\n    auxdata: 0xa264697066735822122082975ae23cd9e4918553cab1fdd76bd8aa8facd101d574b55dfdcac4f184d98764736f6c63430008170033\n}\n",
				"bytecode": {
					"linkReferences": {},
					"object": "6080604052600160045561016d60055562278d0060065562015180600755603c60085534801561002d575f80fd5b506122428061003b5f395ff3fe608060405234801561000f575f80fd5b50600436106100fe575f3560e01c8063aadc1ac111610095578063ce5b8d3511610064578063ce5b8d35146102e0578063d9548e53146102fc578063e5a255cb1461032d578063eeabfc4a14610349576100fe565b8063aadc1ac114610248578063ab7b1c8914610264578063b1209d4a14610280578063b9314135146102b0576100fe565b80636c59bd0c116100d15780636c59bd0c146101c2578063880fe941146101de5780638ada066e146101fa578063907c64f514610218576100fe565b8063084af0b2146101025780631ac31f0d146101325780631f29d2dc146101625780634f69469014610192575b5f80fd5b61011c6004803603810190610117919061146f565b61037f565b604051610129919061155a565b60405180910390f35b61014c600480360381019061014791906115a4565b610412565b60405161015991906115de565b60405180910390f35b61017c600480360381019061017791906115f7565b6104a6565b6040516101899190611644565b60405180910390f35b6101ac60048036038101906101a7919061146f565b610527565b6040516101b99190611677565b60405180910390f35b6101dc60048036038101906101d791906115a4565b6105a9565b005b6101f860048036038101906101f39190611690565b6105c2565b005b610202610983565b60405161020f91906115de565b60405180910390f35b610232600480360381019061022d91906115a4565b61098c565b60405161023f9190611644565b60405180910390f35b610262600480360381019061025d91906115a4565b6109c5565b005b61027e600480360381019061027991906115a4565b610c67565b005b61029a600480360381019061029591906115a4565b610eb0565b6040516102a791906115de565b60405180910390f35b6102ca60048036038101906102c591906115a4565b610eca565b6040516102d791906117da565b60405180910390f35b6102fa60048036038101906102f591906115a4565b610fcf565b005b610316600480360381019061031191906115a4565b61115b565b6040516103249291906117f3565b60405180910390f35b610347600480360381019061034291906115a4565b6111b9565b005b610363600480360381019061035e91906115a4565b611331565b6040516103769796959493929190611838565b60405180910390f35b606060015f8373ffffffffffffffffffffffffffffffffffffffff1673ffffffffffffffffffffffffffffffffffffffff1681526020019081526020015f2080548060200260200160405190810160405280929190818152602001828054801561040657602002820191905f5260205f20905b8154815260200190600101908083116103f2575b50505050509050919050565b5f8061041d83610eca565b90505f60055460648360a0015161043491906118ff565b61043e91906118ff565b826060015161044d919061192f565b90505f60075460025f8781526020019081526020015f2054426104709190611970565b61047a91906118ff565b90505f8183610489919061192f565b846060015161049891906119a3565b905080945050505050919050565b5f8273ffffffffffffffffffffffffffffffffffffffff16636352211e836040518263ffffffff1660e01b81526004016104e091906115de565b602060405180830381865afa1580156104fb573d5f803e3d5ffd5b505050506040513d601f19601f8201168201806040525081019061051f91906119ea565b905092915050565b5f8173ffffffffffffffffffffffffffffffffffffffff1663e985e9c533306040518363ffffffff1660e01b8152600401610563929190611a15565b602060405180830381865afa15801561057e573d5f803e3d5ffd5b505050506040513d601f19601f820116820180604052508101906105a29190611a66565b9050919050565b4260025f8381526020019081526020015f208190555050565b5f831180156105d057505f82115b80156105db57505f81115b61061a576040517f08c379a000000000000000000000000000000000000000000000000000000000815260040161061190611aeb565b60405180910390fd5b3373ffffffffffffffffffffffffffffffffffffffff168573ffffffffffffffffffffffffffffffffffffffff16636352211e866040518263ffffffff1660e01b815260040161066a91906115de565b602060405180830381865afa158015610685573d5f803e3d5ffd5b505050506040513d601f19601f820116820180604052508101906106a991906119ea565b73ffffffffffffffffffffffffffffffffffffffff16146106ff576040517f08c379a00000000000000000000000000000000000000000000000000000000081526004016106f690611b53565b60405180910390fd5b5f6040518060e001604052803373ffffffffffffffffffffffffffffffffffffffff1681526020018773ffffffffffffffffffffffffffffffffffffffff1681526020018681526020018581526020018481526020018381526020017f6f70656e000000000000000000000000000000000000000000000000000000008152509050805f8060045481526020019081526020015f205f820151815f015f6101000a81548173ffffffffffffffffffffffffffffffffffffffff021916908373ffffffffffffffffffffffffffffffffffffffff1602179055506020820151816001015f6101000a81548173ffffffffffffffffffffffffffffffffffffffff021916908373ffffffffffffffffffffffffffffffffffffffff16021790555060408201518160020155606082015181600301556080820151816004015560a0820151816005015560c0820151816006015590505060015f3373ffffffffffffffffffffffffffffffffffffffff1673ffffffffffffffffffffffffffffffffffffffff1681526020019081526020015f20600454908060018154018082558091505060019003905f5260205f20015f90919091909150558573ffffffffffffffffffffffffffffffffffffffff166323b872dd3330886040518463ffffffff1660e01b81526004016108f393929190611b71565b5f604051808303815f87803b15801561090a575f80fd5b505af115801561091c573d5f803e3d5ffd5b5050505061092b6004546105a9565b60045f81548092919061093d90611ba6565b91905055507ff767ad1ae2d5476327f80bef89fbc70354c993e3059ed3d504d127921f60c40b3382604051610973929190611bed565b60405180910390a1505050505050565b5f600454905090565b5f60035f8381526020019081526020015f205f9054906101000a900473ffffffffffffffffffffffffffffffffffffffff169050919050565b5f805f8381526020019081526020015f209050805f015f9054906101000a900473ffffffffffffffffffffffffffffffffffffffff1673ffffffffffffffffffffffffffffffffffffffff163373ffffffffffffffffffffffffffffffffffffffff1603610a68576040517f08c379a0000000000000000000000000000000000000000000000000000000008152600401610a5f90611c5f565b60405180910390fd5b5f670de0b6b3a76400008260030154610a81919061192f565b9050803373ffffffffffffffffffffffffffffffffffffffff16311015610add576040517f08c379a0000000000000000000000000000000000000000000000000000000008152600401610ad490611ced565b60405180910390fd5b7f657865637574696e67000000000000000000000000000000000000000000000082600601819055503360035f8581526020019081526020015f205f6101000a81548173ffffffffffffffffffffffffffffffffffffffff021916908373ffffffffffffffffffffffffffffffffffffffff160217905550610b5e836105a9565b5f825f015f9054906101000a900473ffffffffffffffffffffffffffffffffffffffff1673ffffffffffffffffffffffffffffffffffffffff1682604051610ba590611d38565b5f6040518083038185875af1925050503d805f8114610bdf576040519150601f19603f3d011682016040523d82523d5f602084013e610be4565b606091505b5050905080610c28576040517f08c379a0000000000000000000000000000000000000000000000000000000008152600401610c1f90611d96565b60405180910390fd5b7fcbe547358b7d8ceb07ae8baae08d35680e6c6c69046525b09dc9bb8f53f708fd3384604051610c59929190611f4e565b60405180910390a150505050565b5f805f8381526020019081526020015f2090503373ffffffffffffffffffffffffffffffffffffffff16815f015f9054906101000a900473ffffffffffffffffffffffffffffffffffffffff1673ffffffffffffffffffffffffffffffffffffffff1614610d0a576040517f08c379a0000000000000000000000000000000000000000000000000000000008152600401610d0190611fc0565b60405180910390fd5b7f6578637574696e67000000000000000000000000000000000000000000000000816006015414610d70576040517f08c379a0000000000000000000000000000000000000000000000000000000008152600401610d679061204e565b60405180910390fd5b5f610d7a83610412565b90503373ffffffffffffffffffffffffffffffffffffffff16318110610dd5576040517f08c379a0000000000000000000000000000000000000000000000000000000008152600401610dcc906120b6565b60405180910390fd5b60035f8481526020019081526020015f205f9054906101000a900473ffffffffffffffffffffffffffffffffffffffff1673ffffffffffffffffffffffffffffffffffffffff166108fc8290811502906040515f60405180830381858888f19350505050158015610e48573d5f803e3d5ffd5b507f726570617965640000000000000000000000000000000000000000000000000082600601819055507f94e7116aa05f19f109f7fa598f65ade35ab1de8cd3d002b5b2205416e8943e653383604051610ea3929190611f4e565b60405180910390a1505050565b5f60025f8381526020019081526020015f20549050919050565b610ed26113ac565b5f808381526020019081526020015f206040518060e00160405290815f82015f9054906101000a900473ffffffffffffffffffffffffffffffffffffffff1673ffffffffffffffffffffffffffffffffffffffff1673ffffffffffffffffffffffffffffffffffffffff168152602001600182015f9054906101000a900473ffffffffffffffffffffffffffffffffffffffff1673ffffffffffffffffffffffffffffffffffffffff1673ffffffffffffffffffffffffffffffffffffffff168152602001600282015481526020016003820154815260200160048201548152602001600582015481526020016006820154815250509050919050565b5f610fd982610eca565b90503373ffffffffffffffffffffffffffffffffffffffff16815f015173ffffffffffffffffffffffffffffffffffffffff161461104c576040517f08c379a000000000000000000000000000000000000000000000000000000000815260040161104390611fc0565b60405180910390fd5b7f72657061796564000000000000000000000000000000000000000000000000008160c00151146110b2576040517f08c379a00000000000000000000000000000000000000000000000000000000081526004016110a99061211e565b60405180910390fd5b806020015173ffffffffffffffffffffffffffffffffffffffff166323b872dd303384604001516040518463ffffffff1660e01b81526004016110f793929190611b71565b5f604051808303815f87803b15801561110e575f80fd5b505af1158015611120573d5f803e3d5ffd5b505050507f636c6f73656400000000000000000000000000000000000000000000000000008160c0018181525050611157826105a9565b5050565b5f805f61116784610eca565b90505f600854826080015161117c919061192f565b60025f8781526020019081526020015f205461119891906119a3565b90505f42826111a79190611970565b9050805f821094509450505050915091565b5f805f8381526020019081526020015f2090503373ffffffffffffffffffffffffffffffffffffffff16815f015f9054906101000a900473ffffffffffffffffffffffffffffffffffffffff1673ffffffffffffffffffffffffffffffffffffffff161461125c576040517f08c379a000000000000000000000000000000000000000000000000000000000815260040161125390612186565b60405180910390fd5b7f6f70656e000000000000000000000000000000000000000000000000000000008160060154146112c2576040517f08c379a00000000000000000000000000000000000000000000000000000000081526004016112b9906121ee565b60405180910390fd5b7f63616e63656c000000000000000000000000000000000000000000000000000081600601819055506112f4826105a9565b7f7e885013ca94016b1452b4678f1c43c33cd914617b389322af7f7d97a2c4f5853382604051611325929190611f4e565b60405180910390a15050565b5f602052805f5260405f205f91509050805f015f9054906101000a900473ffffffffffffffffffffffffffffffffffffffff1690806001015f9054906101000a900473ffffffffffffffffffffffffffffffffffffffff16908060020154908060030154908060040154908060050154908060060154905087565b6040518060e001604052805f73ffffffffffffffffffffffffffffffffffffffff1681526020015f73ffffffffffffffffffffffffffffffffffffffff1681526020015f81526020015f81526020015f81526020015f81526020015f80191681525090565b5f80fd5b5f73ffffffffffffffffffffffffffffffffffffffff82169050919050565b5f61143e82611415565b9050919050565b61144e81611434565b8114611458575f80fd5b50565b5f8135905061146981611445565b92915050565b5f6020828403121561148457611483611411565b5b5f6114918482850161145b565b91505092915050565b5f81519050919050565b5f82825260208201905092915050565b5f819050602082019050919050565b5f819050919050565b6114d5816114c3565b82525050565b5f6114e683836114cc565b60208301905092915050565b5f602082019050919050565b5f6115088261149a565b61151281856114a4565b935061151d836114b4565b805f5b8381101561154d57815161153488826114db565b975061153f836114f2565b925050600181019050611520565b5085935050505092915050565b5f6020820190508181035f83015261157281846114fe565b905092915050565b611583816114c3565b811461158d575f80fd5b50565b5f8135905061159e8161157a565b92915050565b5f602082840312156115b9576115b8611411565b5b5f6115c684828501611590565b91505092915050565b6115d8816114c3565b82525050565b5f6020820190506115f15f8301846115cf565b92915050565b5f806040838503121561160d5761160c611411565b5b5f61161a8582860161145b565b925050602061162b85828601611590565b9150509250929050565b61163e81611434565b82525050565b5f6020820190506116575f830184611635565b92915050565b5f8115159050919050565b6116718161165d565b82525050565b5f60208201905061168a5f830184611668565b92915050565b5f805f805f60a086880312156116a9576116a8611411565b5b5f6116b68882890161145b565b95505060206116c788828901611590565b94505060406116d888828901611590565b93505060606116e988828901611590565b92505060806116fa88828901611590565b9150509295509295909350565b5f61171182611415565b9050919050565b61172181611707565b82525050565b61173081611434565b82525050565b5f819050919050565b61174881611736565b82525050565b60e082015f8201516117625f850182611718565b5060208201516117756020850182611727565b50604082015161178860408501826114cc565b50606082015161179b60608501826114cc565b5060808201516117ae60808501826114cc565b5060a08201516117c160a08501826114cc565b5060c08201516117d460c085018261173f565b50505050565b5f60e0820190506117ed5f83018461174e565b92915050565b5f6040820190506118065f8301856115cf565b6118136020830184611668565b9392505050565b61182381611707565b82525050565b61183281611736565b82525050565b5f60e08201905061184b5f83018a61181a565b6118586020830189611635565b61186560408301886115cf565b61187260608301876115cf565b61187f60808301866115cf565b61188c60a08301856115cf565b61189960c0830184611829565b98975050505050505050565b7f4e487b71000000000000000000000000000000000000000000000000000000005f52601260045260245ffd5b7f4e487b71000000000000000000000000000000000000000000000000000000005f52601160045260245ffd5b5f611909826114c3565b9150611914836114c3565b925082611924576119236118a5565b5b828204905092915050565b5f611939826114c3565b9150611944836114c3565b9250828202611952816114c3565b91508282048414831517611969576119686118d2565b5b5092915050565b5f61197a826114c3565b9150611985836114c3565b925082820390508181111561199d5761199c6118d2565b5b92915050565b5f6119ad826114c3565b91506119b8836114c3565b92508282019050808211156119d0576119cf6118d2565b5b92915050565b5f815190506119e481611445565b92915050565b5f602082840312156119ff576119fe611411565b5b5f611a0c848285016119d6565b91505092915050565b5f604082019050611a285f830185611635565b611a356020830184611635565b9392505050565b611a458161165d565b8114611a4f575f80fd5b50565b5f81519050611a6081611a3c565b92915050565b5f60208284031215611a7b57611a7a611411565b5b5f611a8884828501611a52565b91505092915050565b5f82825260208201905092915050565b7f56616c756573206d7573742062652067726561746572207468616e207a65726f5f82015250565b5f611ad5602083611a91565b9150611ae082611aa1565b602082019050919050565b5f6020820190508181035f830152611b0281611ac9565b9050919050565b7f596f7520617265206e6f7420686f6c646572206f66207468697320746f6b656e5f82015250565b5f611b3d602083611a91565b9150611b4882611b09565b602082019050919050565b5f6020820190508181035f830152611b6a81611b31565b9050919050565b5f606082019050611b845f830186611635565b611b916020830185611635565b611b9e60408301846115cf565b949350505050565b5f611bb0826114c3565b91507fffffffffffffffffffffffffffffffffffffffffffffffffffffffffffffffff8203611be257611be16118d2565b5b600182019050919050565b5f61010082019050611c015f830185611635565b611c0e602083018461174e565b9392505050565b7f4974277320796f7572206f776e206c6f616e206170706c69636174696f6e2e005f82015250565b5f611c49601f83611a91565b9150611c5482611c15565b602082019050919050565b5f6020820190508181035f830152611c7681611c3d565b9050919050565b7f596f7520686176656e277420656e6f7567682062616c616e636520666f72206c5f8201527f656e64696e670000000000000000000000000000000000000000000000000000602082015250565b5f611cd7602683611a91565b9150611ce282611c7d565b604082019050919050565b5f6020820190508181035f830152611d0481611ccb565b9050919050565b5f81905092915050565b50565b5f611d235f83611d0b565b9150611d2e82611d15565b5f82019050919050565b5f611d4282611d18565b9150819050919050565b7f5472616e73666572206661696c65642e000000000000000000000000000000005f82015250565b5f611d80601083611a91565b9150611d8b82611d4c565b602082019050919050565b5f6020820190508181035f830152611dad81611d74565b9050919050565b5f815f1c9050919050565b5f73ffffffffffffffffffffffffffffffffffffffff82169050919050565b5f611df0611deb83611db4565b611dbf565b9050919050565b5f73ffffffffffffffffffffffffffffffffffffffff82169050919050565b5f611e28611e2383611db4565b611df7565b9050919050565b5f819050919050565b5f611e4a611e4583611db4565b611e2f565b9050919050565b5f819050919050565b5f611e6c611e6783611db4565b611e51565b9050919050565b60e082015f808301549050611e8781611dde565b611e935f860182611718565b5060018301549050611ea481611e16565b611eb16020860182611727565b5060028301549050611ec281611e38565b611ecf60408601826114cc565b5060038301549050611ee081611e38565b611eed60608601826114cc565b5060048301549050611efe81611e38565b611f0b60808601826114cc565b5060058301549050611f1c81611e38565b611f2960a08601826114cc565b5060068301549050611f3a81611e5a565b611f4760c086018261173f565b5050505050565b5f61010082019050611f625f830185611635565b611f6f6020830184611e73565b9392505050565b7f596f7520617265206e6f7420706f7374657200000000000000000000000000005f82015250565b5f611faa601283611a91565b9150611fb582611f76565b602082019050919050565b5f6020820190508181035f830152611fd781611f9e565b9050919050565b7f546869732069732065787069726564206f72206e6f74206578637574656420795f8201527f6574000000000000000000000000000000000000000000000000000000000000602082015250565b5f612038602283611a91565b915061204382611fde565b604082019050919050565b5f6020820190508181035f8301526120658161202c565b9050919050565b7f4e6f7420656e6f7567682062616c616e636520666f72207265706179696e67005f82015250565b5f6120a0601f83611a91565b91506120ab8261206c565b602082019050919050565b5f6020820190508181035f8301526120cd81612094565b9050919050565b7f546869732069736e2774207265706179207965740000000000000000000000005f82015250565b5f612108601483611a91565b9150612113826120d4565b602082019050919050565b5f6020820190508181035f830152612135816120fc565b9050919050565b7f596f7520617265206e6f7420706f73746572206f6620746865206c69737400005f82015250565b5f612170601e83611a91565b915061217b8261213c565b602082019050919050565b5f6020820190508181035f83015261219d81612164565b9050919050565b7f4e6f74206f70656e696e67206c697374000000000000000000000000000000005f82015250565b5f6121d8601083611a91565b91506121e3826121a4565b602082019050919050565b5f6020820190508181035f830152612205816121cc565b905091905056fea264697066735822122082975ae23cd9e4918553cab1fdd76bd8aa8facd101d574b55dfdcac4f184d98764736f6c63430008170033",
					"opcodes": "PUSH1 0x80 PUSH1 0x40 MSTORE PUSH1 0x1 PUSH1 0x4 SSTORE PUSH2 0x16D PUSH1 0x5 SSTORE PUSH3 0x278D00 PUSH1 0x6 SSTORE PUSH3 0x15180 PUSH1 0x7 SSTORE PUSH1 0x3C PUSH1 0x8 SSTORE CALLVALUE DUP1 ISZERO PUSH2 0x2D JUMPI PUSH0 DUP1 REVERT JUMPDEST POP PUSH2 0x2242 DUP1 PUSH2 0x3B PUSH0 CODECOPY PUSH0 RETURN INVALID PUSH1 0x80 PUSH1 0x40 MSTORE CALLVALUE DUP1 ISZERO PUSH2 0xF JUMPI PUSH0 DUP1 REVERT JUMPDEST POP PUSH1 0x4 CALLDATASIZE LT PUSH2 0xFE JUMPI PUSH0 CALLDATALOAD PUSH1 0xE0 SHR DUP1 PUSH4 0xAADC1AC1 GT PUSH2 0x95 JUMPI DUP1 PUSH4 0xCE5B8D35 GT PUSH2 0x64 JUMPI DUP1 PUSH4 0xCE5B8D35 EQ PUSH2 0x2E0 JUMPI DUP1 PUSH4 0xD9548E53 EQ PUSH2 0x2FC JUMPI DUP1 PUSH4 0xE5A255CB EQ PUSH2 0x32D JUMPI DUP1 PUSH4 0xEEABFC4A EQ PUSH2 0x349 JUMPI PUSH2 0xFE JUMP JUMPDEST DUP1 PUSH4 0xAADC1AC1 EQ PUSH2 0x248 JUMPI DUP1 PUSH4 0xAB7B1C89 EQ PUSH2 0x264 JUMPI DUP1 PUSH4 0xB1209D4A EQ PUSH2 0x280 JUMPI DUP1 PUSH4 0xB9314135 EQ PUSH2 0x2B0 JUMPI PUSH2 0xFE JUMP JUMPDEST DUP1 PUSH4 0x6C59BD0C GT PUSH2 0xD1 JUMPI DUP1 PUSH4 0x6C59BD0C EQ PUSH2 0x1C2 JUMPI DUP1 PUSH4 0x880FE941 EQ PUSH2 0x1DE JUMPI DUP1 PUSH4 0x8ADA066E EQ PUSH2 0x1FA JUMPI DUP1 PUSH4 0x907C64F5 EQ PUSH2 0x218 JUMPI PUSH2 0xFE JUMP JUMPDEST DUP1 PUSH4 0x84AF0B2 EQ PUSH2 0x102 JUMPI DUP1 PUSH4 0x1AC31F0D EQ PUSH2 0x132 JUMPI DUP1 PUSH4 0x1F29D2DC EQ PUSH2 0x162 JUMPI DUP1 PUSH4 0x4F694690 EQ PUSH2 0x192 JUMPI JUMPDEST PUSH0 DUP1 REVERT JUMPDEST PUSH2 0x11C PUSH1 0x4 DUP1 CALLDATASIZE SUB DUP2 ADD SWAP1 PUSH2 0x117 SWAP2 SWAP1 PUSH2 0x146F JUMP JUMPDEST PUSH2 0x37F JUMP JUMPDEST PUSH1 0x40 MLOAD PUSH2 0x129 SWAP2 SWAP1 PUSH2 0x155A JUMP JUMPDEST PUSH1 0x40 MLOAD DUP1 SWAP2 SUB SWAP1 RETURN JUMPDEST PUSH2 0x14C PUSH1 0x4 DUP1 CALLDATASIZE SUB DUP2 ADD SWAP1 PUSH2 0x147 SWAP2 SWAP1 PUSH2 0x15A4 JUMP JUMPDEST PUSH2 0x412 JUMP JUMPDEST PUSH1 0x40 MLOAD PUSH2 0x159 SWAP2 SWAP1 PUSH2 0x15DE JUMP JUMPDEST PUSH1 0x40 MLOAD DUP1 SWAP2 SUB SWAP1 RETURN JUMPDEST PUSH2 0x17C PUSH1 0x4 DUP1 CALLDATASIZE SUB DUP2 ADD SWAP1 PUSH2 0x177 SWAP2 SWAP1 PUSH2 0x15F7 JUMP JUMPDEST PUSH2 0x4A6 JUMP JUMPDEST PUSH1 0x40 MLOAD PUSH2 0x189 SWAP2 SWAP1 PUSH2 0x1644 JUMP JUMPDEST PUSH1 0x40 MLOAD DUP1 SWAP2 SUB SWAP1 RETURN JUMPDEST PUSH2 0x1AC PUSH1 0x4 DUP1 CALLDATASIZE SUB DUP2 ADD SWAP1 PUSH2 0x1A7 SWAP2 SWAP1 PUSH2 0x146F JUMP JUMPDEST PUSH2 0x527 JUMP JUMPDEST PUSH1 0x40 MLOAD PUSH2 0x1B9 SWAP2 SWAP1 PUSH2 0x1677 JUMP JUMPDEST PUSH1 0x40 MLOAD DUP1 SWAP2 SUB SWAP1 RETURN JUMPDEST PUSH2 0x1DC PUSH1 0x4 DUP1 CALLDATASIZE SUB DUP2 ADD SWAP1 PUSH2 0x1D7 SWAP2 SWAP1 PUSH2 0x15A4 JUMP JUMPDEST PUSH2 0x5A9 JUMP JUMPDEST STOP JUMPDEST PUSH2 0x1F8 PUSH1 0x4 DUP1 CALLDATASIZE SUB DUP2 ADD SWAP1 PUSH2 0x1F3 SWAP2 SWAP1 PUSH2 0x1690 JUMP JUMPDEST PUSH2 0x5C2 JUMP JUMPDEST STOP JUMPDEST PUSH2 0x202 PUSH2 0x983 JUMP JUMPDEST PUSH1 0x40 MLOAD PUSH2 0x20F SWAP2 SWAP1 PUSH2 0x15DE JUMP JUMPDEST PUSH1 0x40 MLOAD DUP1 SWAP2 SUB SWAP1 RETURN JUMPDEST PUSH2 0x232 PUSH1 0x4 DUP1 CALLDATASIZE SUB DUP2 ADD SWAP1 PUSH2 0x22D SWAP2 SWAP1 PUSH2 0x15A4 JUMP JUMPDEST PUSH2 0x98C JUMP JUMPDEST PUSH1 0x40 MLOAD PUSH2 0x23F SWAP2 SWAP1 PUSH2 0x1644 JUMP JUMPDEST PUSH1 0x40 MLOAD DUP1 SWAP2 SUB SWAP1 RETURN JUMPDEST PUSH2 0x262 PUSH1 0x4 DUP1 CALLDATASIZE SUB DUP2 ADD SWAP1 PUSH2 0x25D SWAP2 SWAP1 PUSH2 0x15A4 JUMP JUMPDEST PUSH2 0x9C5 JUMP JUMPDEST STOP JUMPDEST PUSH2 0x27E PUSH1 0x4 DUP1 CALLDATASIZE SUB DUP2 ADD SWAP1 PUSH2 0x279 SWAP2 SWAP1 PUSH2 0x15A4 JUMP JUMPDEST PUSH2 0xC67 JUMP JUMPDEST STOP JUMPDEST PUSH2 0x29A PUSH1 0x4 DUP1 CALLDATASIZE SUB DUP2 ADD SWAP1 PUSH2 0x295 SWAP2 SWAP1 PUSH2 0x15A4 JUMP JUMPDEST PUSH2 0xEB0 JUMP JUMPDEST PUSH1 0x40 MLOAD PUSH2 0x2A7 SWAP2 SWAP1 PUSH2 0x15DE JUMP JUMPDEST PUSH1 0x40 MLOAD DUP1 SWAP2 SUB SWAP1 RETURN JUMPDEST PUSH2 0x2CA PUSH1 0x4 DUP1 CALLDATASIZE SUB DUP2 ADD SWAP1 PUSH2 0x2C5 SWAP2 SWAP1 PUSH2 0x15A4 JUMP JUMPDEST PUSH2 0xECA JUMP JUMPDEST PUSH1 0x40 MLOAD PUSH2 0x2D7 SWAP2 SWAP1 PUSH2 0x17DA JUMP JUMPDEST PUSH1 0x40 MLOAD DUP1 SWAP2 SUB SWAP1 RETURN JUMPDEST PUSH2 0x2FA PUSH1 0x4 DUP1 CALLDATASIZE SUB DUP2 ADD SWAP1 PUSH2 0x2F5 SWAP2 SWAP1 PUSH2 0x15A4 JUMP JUMPDEST PUSH2 0xFCF JUMP JUMPDEST STOP JUMPDEST PUSH2 0x316 PUSH1 0x4 DUP1 CALLDATASIZE SUB DUP2 ADD SWAP1 PUSH2 0x311 SWAP2 SWAP1 PUSH2 0x15A4 JUMP JUMPDEST PUSH2 0x115B JUMP JUMPDEST PUSH1 0x40 MLOAD PUSH2 0x324 SWAP3 SWAP2 SWAP1 PUSH2 0x17F3 JUMP JUMPDEST PUSH1 0x40 MLOAD DUP1 SWAP2 SUB SWAP1 RETURN JUMPDEST PUSH2 0x347 PUSH1 0x4 DUP1 CALLDATASIZE SUB DUP2 ADD SWAP1 PUSH2 0x342 SWAP2 SWAP1 PUSH2 0x15A4 JUMP JUMPDEST PUSH2 0x11B9 JUMP JUMPDEST STOP JUMPDEST PUSH2 0x363 PUSH1 0x4 DUP1 CALLDATASIZE SUB DUP2 ADD SWAP1 PUSH2 0x35E SWAP2 SWAP1 PUSH2 0x15A4 JUMP JUMPDEST PUSH2 0x1331 JUMP JUMPDEST PUSH1 0x40 MLOAD PUSH2 0x376 SWAP8 SWAP7 SWAP6 SWAP5 SWAP4 SWAP3 SWAP2 SWAP1 PUSH2 0x1838 JUMP JUMPDEST PUSH1 0x40 MLOAD DUP1 SWAP2 SUB SWAP1 RETURN JUMPDEST PUSH1 0x60 PUSH1 0x1 PUSH0 DUP4 PUSH20 0xFFFFFFFFFFFFFFFFFFFFFFFFFFFFFFFFFFFFFFFF AND PUSH20 0xFFFFFFFFFFFFFFFFFFFFFFFFFFFFFFFFFFFFFFFF AND DUP2 MSTORE PUSH1 0x20 ADD SWAP1 DUP2 MSTORE PUSH1 0x20 ADD PUSH0 KECCAK256 DUP1 SLOAD DUP1 PUSH1 0x20 MUL PUSH1 0x20 ADD PUSH1 0x40 MLOAD SWAP1 DUP2 ADD PUSH1 0x40 MSTORE DUP1 SWAP3 SWAP2 SWAP1 DUP2 DUP2 MSTORE PUSH1 0x20 ADD DUP3 DUP1 SLOAD DUP1 ISZERO PUSH2 0x406 JUMPI PUSH1 0x20 MUL DUP3 ADD SWAP2 SWAP1 PUSH0 MSTORE PUSH1 0x20 PUSH0 KECCAK256 SWAP1 JUMPDEST DUP2 SLOAD DUP2 MSTORE PUSH1 0x20 ADD SWAP1 PUSH1 0x1 ADD SWAP1 DUP1 DUP4 GT PUSH2 0x3F2 JUMPI JUMPDEST POP POP POP POP POP SWAP1 POP SWAP2 SWAP1 POP JUMP JUMPDEST PUSH0 DUP1 PUSH2 0x41D DUP4 PUSH2 0xECA JUMP JUMPDEST SWAP1 POP PUSH0 PUSH1 0x5 SLOAD PUSH1 0x64 DUP4 PUSH1 0xA0 ADD MLOAD PUSH2 0x434 SWAP2 SWAP1 PUSH2 0x18FF JUMP JUMPDEST PUSH2 0x43E SWAP2 SWAP1 PUSH2 0x18FF JUMP JUMPDEST DUP3 PUSH1 0x60 ADD MLOAD PUSH2 0x44D SWAP2 SWAP1 PUSH2 0x192F JUMP JUMPDEST SWAP1 POP PUSH0 PUSH1 0x7 SLOAD PUSH1 0x2 PUSH0 DUP8 DUP2 MSTORE PUSH1 0x20 ADD SWAP1 DUP2 MSTORE PUSH1 0x20 ADD PUSH0 KECCAK256 SLOAD TIMESTAMP PUSH2 0x470 SWAP2 SWAP1 PUSH2 0x1970 JUMP JUMPDEST PUSH2 0x47A SWAP2 SWAP1 PUSH2 0x18FF JUMP JUMPDEST SWAP1 POP PUSH0 DUP2 DUP4 PUSH2 0x489 SWAP2 SWAP1 PUSH2 0x192F JUMP JUMPDEST DUP5 PUSH1 0x60 ADD MLOAD PUSH2 0x498 SWAP2 SWAP1 PUSH2 0x19A3 JUMP JUMPDEST SWAP1 POP DUP1 SWAP5 POP POP POP POP POP SWAP2 SWAP1 POP JUMP JUMPDEST PUSH0 DUP3 PUSH20 0xFFFFFFFFFFFFFFFFFFFFFFFFFFFFFFFFFFFFFFFF AND PUSH4 0x6352211E DUP4 PUSH1 0x40 MLOAD DUP3 PUSH4 0xFFFFFFFF AND PUSH1 0xE0 SHL DUP2 MSTORE PUSH1 0x4 ADD PUSH2 0x4E0 SWAP2 SWAP1 PUSH2 0x15DE JUMP JUMPDEST PUSH1 0x20 PUSH1 0x40 MLOAD DUP1 DUP4 SUB DUP2 DUP7 GAS STATICCALL ISZERO DUP1 ISZERO PUSH2 0x4FB JUMPI RETURNDATASIZE PUSH0 DUP1 RETURNDATACOPY RETURNDATASIZE PUSH0 REVERT JUMPDEST POP POP POP POP PUSH1 0x40 MLOAD RETURNDATASIZE PUSH1 0x1F NOT PUSH1 0x1F DUP3 ADD AND DUP3 ADD DUP1 PUSH1 0x40 MSTORE POP DUP2 ADD SWAP1 PUSH2 0x51F SWAP2 SWAP1 PUSH2 0x19EA JUMP JUMPDEST SWAP1 POP SWAP3 SWAP2 POP POP JUMP JUMPDEST PUSH0 DUP2 PUSH20 0xFFFFFFFFFFFFFFFFFFFFFFFFFFFFFFFFFFFFFFFF AND PUSH4 0xE985E9C5 CALLER ADDRESS PUSH1 0x40 MLOAD DUP4 PUSH4 0xFFFFFFFF AND PUSH1 0xE0 SHL DUP2 MSTORE PUSH1 0x4 ADD PUSH2 0x563 SWAP3 SWAP2 SWAP1 PUSH2 0x1A15 JUMP JUMPDEST PUSH1 0x20 PUSH1 0x40 MLOAD DUP1 DUP4 SUB DUP2 DUP7 GAS STATICCALL ISZERO DUP1 ISZERO PUSH2 0x57E JUMPI RETURNDATASIZE PUSH0 DUP1 RETURNDATACOPY RETURNDATASIZE PUSH0 REVERT JUMPDEST POP POP POP POP PUSH1 0x40 MLOAD RETURNDATASIZE PUSH1 0x1F NOT PUSH1 0x1F DUP3 ADD AND DUP3 ADD DUP1 PUSH1 0x40 MSTORE POP DUP2 ADD SWAP1 PUSH2 0x5A2 SWAP2 SWAP1 PUSH2 0x1A66 JUMP JUMPDEST SWAP1 POP SWAP2 SWAP1 POP JUMP JUMPDEST TIMESTAMP PUSH1 0x2 PUSH0 DUP4 DUP2 MSTORE PUSH1 0x20 ADD SWAP1 DUP2 MSTORE PUSH1 0x20 ADD PUSH0 KECCAK256 DUP2 SWAP1 SSTORE POP POP JUMP JUMPDEST PUSH0 DUP4 GT DUP1 ISZERO PUSH2 0x5D0 JUMPI POP PUSH0 DUP3 GT JUMPDEST DUP1 ISZERO PUSH2 0x5DB JUMPI POP PUSH0 DUP2 GT JUMPDEST PUSH2 0x61A JUMPI PUSH1 0x40 MLOAD PUSH32 0x8C379A000000000000000000000000000000000000000000000000000000000 DUP2 MSTORE PUSH1 0x4 ADD PUSH2 0x611 SWAP1 PUSH2 0x1AEB JUMP JUMPDEST PUSH1 0x40 MLOAD DUP1 SWAP2 SUB SWAP1 REVERT JUMPDEST CALLER PUSH20 0xFFFFFFFFFFFFFFFFFFFFFFFFFFFFFFFFFFFFFFFF AND DUP6 PUSH20 0xFFFFFFFFFFFFFFFFFFFFFFFFFFFFFFFFFFFFFFFF AND PUSH4 0x6352211E DUP7 PUSH1 0x40 MLOAD DUP3 PUSH4 0xFFFFFFFF AND PUSH1 0xE0 SHL DUP2 MSTORE PUSH1 0x4 ADD PUSH2 0x66A SWAP2 SWAP1 PUSH2 0x15DE JUMP JUMPDEST PUSH1 0x20 PUSH1 0x40 MLOAD DUP1 DUP4 SUB DUP2 DUP7 GAS STATICCALL ISZERO DUP1 ISZERO PUSH2 0x685 JUMPI RETURNDATASIZE PUSH0 DUP1 RETURNDATACOPY RETURNDATASIZE PUSH0 REVERT JUMPDEST POP POP POP POP PUSH1 0x40 MLOAD RETURNDATASIZE PUSH1 0x1F NOT PUSH1 0x1F DUP3 ADD AND DUP3 ADD DUP1 PUSH1 0x40 MSTORE POP DUP2 ADD SWAP1 PUSH2 0x6A9 SWAP2 SWAP1 PUSH2 0x19EA JUMP JUMPDEST PUSH20 0xFFFFFFFFFFFFFFFFFFFFFFFFFFFFFFFFFFFFFFFF AND EQ PUSH2 0x6FF JUMPI PUSH1 0x40 MLOAD PUSH32 0x8C379A000000000000000000000000000000000000000000000000000000000 DUP2 MSTORE PUSH1 0x4 ADD PUSH2 0x6F6 SWAP1 PUSH2 0x1B53 JUMP JUMPDEST PUSH1 0x40 MLOAD DUP1 SWAP2 SUB SWAP1 REVERT JUMPDEST PUSH0 PUSH1 0x40 MLOAD DUP1 PUSH1 0xE0 ADD PUSH1 0x40 MSTORE DUP1 CALLER PUSH20 0xFFFFFFFFFFFFFFFFFFFFFFFFFFFFFFFFFFFFFFFF AND DUP2 MSTORE PUSH1 0x20 ADD DUP8 PUSH20 0xFFFFFFFFFFFFFFFFFFFFFFFFFFFFFFFFFFFFFFFF AND DUP2 MSTORE PUSH1 0x20 ADD DUP7 DUP2 MSTORE PUSH1 0x20 ADD DUP6 DUP2 MSTORE PUSH1 0x20 ADD DUP5 DUP2 MSTORE PUSH1 0x20 ADD DUP4 DUP2 MSTORE PUSH1 0x20 ADD PUSH32 0x6F70656E00000000000000000000000000000000000000000000000000000000 DUP2 MSTORE POP SWAP1 POP DUP1 PUSH0 DUP1 PUSH1 0x4 SLOAD DUP2 MSTORE PUSH1 0x20 ADD SWAP1 DUP2 MSTORE PUSH1 0x20 ADD PUSH0 KECCAK256 PUSH0 DUP3 ADD MLOAD DUP2 PUSH0 ADD PUSH0 PUSH2 0x100 EXP DUP2 SLOAD DUP2 PUSH20 0xFFFFFFFFFFFFFFFFFFFFFFFFFFFFFFFFFFFFFFFF MUL NOT AND SWAP1 DUP4 PUSH20 0xFFFFFFFFFFFFFFFFFFFFFFFFFFFFFFFFFFFFFFFF AND MUL OR SWAP1 SSTORE POP PUSH1 0x20 DUP3 ADD MLOAD DUP2 PUSH1 0x1 ADD PUSH0 PUSH2 0x100 EXP DUP2 SLOAD DUP2 PUSH20 0xFFFFFFFFFFFFFFFFFFFFFFFFFFFFFFFFFFFFFFFF MUL NOT AND SWAP1 DUP4 PUSH20 0xFFFFFFFFFFFFFFFFFFFFFFFFFFFFFFFFFFFFFFFF AND MUL OR SWAP1 SSTORE POP PUSH1 0x40 DUP3 ADD MLOAD DUP2 PUSH1 0x2 ADD SSTORE PUSH1 0x60 DUP3 ADD MLOAD DUP2 PUSH1 0x3 ADD SSTORE PUSH1 0x80 DUP3 ADD MLOAD DUP2 PUSH1 0x4 ADD SSTORE PUSH1 0xA0 DUP3 ADD MLOAD DUP2 PUSH1 0x5 ADD SSTORE PUSH1 0xC0 DUP3 ADD MLOAD DUP2 PUSH1 0x6 ADD SSTORE SWAP1 POP POP PUSH1 0x1 PUSH0 CALLER PUSH20 0xFFFFFFFFFFFFFFFFFFFFFFFFFFFFFFFFFFFFFFFF AND PUSH20 0xFFFFFFFFFFFFFFFFFFFFFFFFFFFFFFFFFFFFFFFF AND DUP2 MSTORE PUSH1 0x20 ADD SWAP1 DUP2 MSTORE PUSH1 0x20 ADD PUSH0 KECCAK256 PUSH1 0x4 SLOAD SWAP1 DUP1 PUSH1 0x1 DUP2 SLOAD ADD DUP1 DUP3 SSTORE DUP1 SWAP2 POP POP PUSH1 0x1 SWAP1 SUB SWAP1 PUSH0 MSTORE PUSH1 0x20 PUSH0 KECCAK256 ADD PUSH0 SWAP1 SWAP2 SWAP1 SWAP2 SWAP1 SWAP2 POP SSTORE DUP6 PUSH20 0xFFFFFFFFFFFFFFFFFFFFFFFFFFFFFFFFFFFFFFFF AND PUSH4 0x23B872DD CALLER ADDRESS DUP9 PUSH1 0x40 MLOAD DUP5 PUSH4 0xFFFFFFFF AND PUSH1 0xE0 SHL DUP2 MSTORE PUSH1 0x4 ADD PUSH2 0x8F3 SWAP4 SWAP3 SWAP2 SWAP1 PUSH2 0x1B71 JUMP JUMPDEST PUSH0 PUSH1 0x40 MLOAD DUP1 DUP4 SUB DUP2 PUSH0 DUP8 DUP1 EXTCODESIZE ISZERO DUP1 ISZERO PUSH2 0x90A JUMPI PUSH0 DUP1 REVERT JUMPDEST POP GAS CALL ISZERO DUP1 ISZERO PUSH2 0x91C JUMPI RETURNDATASIZE PUSH0 DUP1 RETURNDATACOPY RETURNDATASIZE PUSH0 REVERT JUMPDEST POP POP POP POP PUSH2 0x92B PUSH1 0x4 SLOAD PUSH2 0x5A9 JUMP JUMPDEST PUSH1 0x4 PUSH0 DUP2 SLOAD DUP1 SWAP3 SWAP2 SWAP1 PUSH2 0x93D SWAP1 PUSH2 0x1BA6 JUMP JUMPDEST SWAP2 SWAP1 POP SSTORE POP PUSH32 0xF767AD1AE2D5476327F80BEF89FBC70354C993E3059ED3D504D127921F60C40B CALLER DUP3 PUSH1 0x40 MLOAD PUSH2 0x973 SWAP3 SWAP2 SWAP1 PUSH2 0x1BED JUMP JUMPDEST PUSH1 0x40 MLOAD DUP1 SWAP2 SUB SWAP1 LOG1 POP POP POP POP POP POP JUMP JUMPDEST PUSH0 PUSH1 0x4 SLOAD SWAP1 POP SWAP1 JUMP JUMPDEST PUSH0 PUSH1 0x3 PUSH0 DUP4 DUP2 MSTORE PUSH1 0x20 ADD SWAP1 DUP2 MSTORE PUSH1 0x20 ADD PUSH0 KECCAK256 PUSH0 SWAP1 SLOAD SWAP1 PUSH2 0x100 EXP SWAP1 DIV PUSH20 0xFFFFFFFFFFFFFFFFFFFFFFFFFFFFFFFFFFFFFFFF AND SWAP1 POP SWAP2 SWAP1 POP JUMP JUMPDEST PUSH0 DUP1 PUSH0 DUP4 DUP2 MSTORE PUSH1 0x20 ADD SWAP1 DUP2 MSTORE PUSH1 0x20 ADD PUSH0 KECCAK256 SWAP1 POP DUP1 PUSH0 ADD PUSH0 SWAP1 SLOAD SWAP1 PUSH2 0x100 EXP SWAP1 DIV PUSH20 0xFFFFFFFFFFFFFFFFFFFFFFFFFFFFFFFFFFFFFFFF AND PUSH20 0xFFFFFFFFFFFFFFFFFFFFFFFFFFFFFFFFFFFFFFFF AND CALLER PUSH20 0xFFFFFFFFFFFFFFFFFFFFFFFFFFFFFFFFFFFFFFFF AND SUB PUSH2 0xA68 JUMPI PUSH1 0x40 MLOAD PUSH32 0x8C379A000000000000000000000000000000000000000000000000000000000 DUP2 MSTORE PUSH1 0x4 ADD PUSH2 0xA5F SWAP1 PUSH2 0x1C5F JUMP JUMPDEST PUSH1 0x40 MLOAD DUP1 SWAP2 SUB SWAP1 REVERT JUMPDEST PUSH0 PUSH8 0xDE0B6B3A7640000 DUP3 PUSH1 0x3 ADD SLOAD PUSH2 0xA81 SWAP2 SWAP1 PUSH2 0x192F JUMP JUMPDEST SWAP1 POP DUP1 CALLER PUSH20 0xFFFFFFFFFFFFFFFFFFFFFFFFFFFFFFFFFFFFFFFF AND BALANCE LT ISZERO PUSH2 0xADD JUMPI PUSH1 0x40 MLOAD PUSH32 0x8C379A000000000000000000000000000000000000000000000000000000000 DUP2 MSTORE PUSH1 0x4 ADD PUSH2 0xAD4 SWAP1 PUSH2 0x1CED JUMP JUMPDEST PUSH1 0x40 MLOAD DUP1 SWAP2 SUB SWAP1 REVERT JUMPDEST PUSH32 0x657865637574696E670000000000000000000000000000000000000000000000 DUP3 PUSH1 0x6 ADD DUP2 SWAP1 SSTORE POP CALLER PUSH1 0x3 PUSH0 DUP6 DUP2 MSTORE PUSH1 0x20 ADD SWAP1 DUP2 MSTORE PUSH1 0x20 ADD PUSH0 KECCAK256 PUSH0 PUSH2 0x100 EXP DUP2 SLOAD DUP2 PUSH20 0xFFFFFFFFFFFFFFFFFFFFFFFFFFFFFFFFFFFFFFFF MUL NOT AND SWAP1 DUP4 PUSH20 0xFFFFFFFFFFFFFFFFFFFFFFFFFFFFFFFFFFFFFFFF AND MUL OR SWAP1 SSTORE POP PUSH2 0xB5E DUP4 PUSH2 0x5A9 JUMP JUMPDEST PUSH0 DUP3 PUSH0 ADD PUSH0 SWAP1 SLOAD SWAP1 PUSH2 0x100 EXP SWAP1 DIV PUSH20 0xFFFFFFFFFFFFFFFFFFFFFFFFFFFFFFFFFFFFFFFF AND PUSH20 0xFFFFFFFFFFFFFFFFFFFFFFFFFFFFFFFFFFFFFFFF AND DUP3 PUSH1 0x40 MLOAD PUSH2 0xBA5 SWAP1 PUSH2 0x1D38 JUMP JUMPDEST PUSH0 PUSH1 0x40 MLOAD DUP1 DUP4 SUB DUP2 DUP6 DUP8 GAS CALL SWAP3 POP POP POP RETURNDATASIZE DUP1 PUSH0 DUP2 EQ PUSH2 0xBDF JUMPI PUSH1 0x40 MLOAD SWAP2 POP PUSH1 0x1F NOT PUSH1 0x3F RETURNDATASIZE ADD AND DUP3 ADD PUSH1 0x40 MSTORE RETURNDATASIZE DUP3 MSTORE RETURNDATASIZE PUSH0 PUSH1 0x20 DUP5 ADD RETURNDATACOPY PUSH2 0xBE4 JUMP JUMPDEST PUSH1 0x60 SWAP2 POP JUMPDEST POP POP SWAP1 POP DUP1 PUSH2 0xC28 JUMPI PUSH1 0x40 MLOAD PUSH32 0x8C379A000000000000000000000000000000000000000000000000000000000 DUP2 MSTORE PUSH1 0x4 ADD PUSH2 0xC1F SWAP1 PUSH2 0x1D96 JUMP JUMPDEST PUSH1 0x40 MLOAD DUP1 SWAP2 SUB SWAP1 REVERT JUMPDEST PUSH32 0xCBE547358B7D8CEB07AE8BAAE08D35680E6C6C69046525B09DC9BB8F53F708FD CALLER DUP5 PUSH1 0x40 MLOAD PUSH2 0xC59 SWAP3 SWAP2 SWAP1 PUSH2 0x1F4E JUMP JUMPDEST PUSH1 0x40 MLOAD DUP1 SWAP2 SUB SWAP1 LOG1 POP POP POP POP JUMP JUMPDEST PUSH0 DUP1 PUSH0 DUP4 DUP2 MSTORE PUSH1 0x20 ADD SWAP1 DUP2 MSTORE PUSH1 0x20 ADD PUSH0 KECCAK256 SWAP1 POP CALLER PUSH20 0xFFFFFFFFFFFFFFFFFFFFFFFFFFFFFFFFFFFFFFFF AND DUP2 PUSH0 ADD PUSH0 SWAP1 SLOAD SWAP1 PUSH2 0x100 EXP SWAP1 DIV PUSH20 0xFFFFFFFFFFFFFFFFFFFFFFFFFFFFFFFFFFFFFFFF AND PUSH20 0xFFFFFFFFFFFFFFFFFFFFFFFFFFFFFFFFFFFFFFFF AND EQ PUSH2 0xD0A JUMPI PUSH1 0x40 MLOAD PUSH32 0x8C379A000000000000000000000000000000000000000000000000000000000 DUP2 MSTORE PUSH1 0x4 ADD PUSH2 0xD01 SWAP1 PUSH2 0x1FC0 JUMP JUMPDEST PUSH1 0x40 MLOAD DUP1 SWAP2 SUB SWAP1 REVERT JUMPDEST PUSH32 0x6578637574696E67000000000000000000000000000000000000000000000000 DUP2 PUSH1 0x6 ADD SLOAD EQ PUSH2 0xD70 JUMPI PUSH1 0x40 MLOAD PUSH32 0x8C379A000000000000000000000000000000000000000000000000000000000 DUP2 MSTORE PUSH1 0x4 ADD PUSH2 0xD67 SWAP1 PUSH2 0x204E JUMP JUMPDEST PUSH1 0x40 MLOAD DUP1 SWAP2 SUB SWAP1 REVERT JUMPDEST PUSH0 PUSH2 0xD7A DUP4 PUSH2 0x412 JUMP JUMPDEST SWAP1 POP CALLER PUSH20 0xFFFFFFFFFFFFFFFFFFFFFFFFFFFFFFFFFFFFFFFF AND BALANCE DUP2 LT PUSH2 0xDD5 JUMPI PUSH1 0x40 MLOAD PUSH32 0x8C379A000000000000000000000000000000000000000000000000000000000 DUP2 MSTORE PUSH1 0x4 ADD PUSH2 0xDCC SWAP1 PUSH2 0x20B6 JUMP JUMPDEST PUSH1 0x40 MLOAD DUP1 SWAP2 SUB SWAP1 REVERT JUMPDEST PUSH1 0x3 PUSH0 DUP5 DUP2 MSTORE PUSH1 0x20 ADD SWAP1 DUP2 MSTORE PUSH1 0x20 ADD PUSH0 KECCAK256 PUSH0 SWAP1 SLOAD SWAP1 PUSH2 0x100 EXP SWAP1 DIV PUSH20 0xFFFFFFFFFFFFFFFFFFFFFFFFFFFFFFFFFFFFFFFF AND PUSH20 0xFFFFFFFFFFFFFFFFFFFFFFFFFFFFFFFFFFFFFFFF AND PUSH2 0x8FC DUP3 SWAP1 DUP2 ISZERO MUL SWAP1 PUSH1 0x40 MLOAD PUSH0 PUSH1 0x40 MLOAD DUP1 DUP4 SUB DUP2 DUP6 DUP9 DUP9 CALL SWAP4 POP POP POP POP ISZERO DUP1 ISZERO PUSH2 0xE48 JUMPI RETURNDATASIZE PUSH0 DUP1 RETURNDATACOPY RETURNDATASIZE PUSH0 REVERT JUMPDEST POP PUSH32 0x7265706179656400000000000000000000000000000000000000000000000000 DUP3 PUSH1 0x6 ADD DUP2 SWAP1 SSTORE POP PUSH32 0x94E7116AA05F19F109F7FA598F65ADE35AB1DE8CD3D002B5B2205416E8943E65 CALLER DUP4 PUSH1 0x40 MLOAD PUSH2 0xEA3 SWAP3 SWAP2 SWAP1 PUSH2 0x1F4E JUMP JUMPDEST PUSH1 0x40 MLOAD DUP1 SWAP2 SUB SWAP1 LOG1 POP POP POP JUMP JUMPDEST PUSH0 PUSH1 0x2 PUSH0 DUP4 DUP2 MSTORE PUSH1 0x20 ADD SWAP1 DUP2 MSTORE PUSH1 0x20 ADD PUSH0 KECCAK256 SLOAD SWAP1 POP SWAP2 SWAP1 POP JUMP JUMPDEST PUSH2 0xED2 PUSH2 0x13AC JUMP JUMPDEST PUSH0 DUP1 DUP4 DUP2 MSTORE PUSH1 0x20 ADD SWAP1 DUP2 MSTORE PUSH1 0x20 ADD PUSH0 KECCAK256 PUSH1 0x40 MLOAD DUP1 PUSH1 0xE0 ADD PUSH1 0x40 MSTORE SWAP1 DUP2 PUSH0 DUP3 ADD PUSH0 SWAP1 SLOAD SWAP1 PUSH2 0x100 EXP SWAP1 DIV PUSH20 0xFFFFFFFFFFFFFFFFFFFFFFFFFFFFFFFFFFFFFFFF AND PUSH20 0xFFFFFFFFFFFFFFFFFFFFFFFFFFFFFFFFFFFFFFFF AND PUSH20 0xFFFFFFFFFFFFFFFFFFFFFFFFFFFFFFFFFFFFFFFF AND DUP2 MSTORE PUSH1 0x20 ADD PUSH1 0x1 DUP3 ADD PUSH0 SWAP1 SLOAD SWAP1 PUSH2 0x100 EXP SWAP1 DIV PUSH20 0xFFFFFFFFFFFFFFFFFFFFFFFFFFFFFFFFFFFFFFFF AND PUSH20 0xFFFFFFFFFFFFFFFFFFFFFFFFFFFFFFFFFFFFFFFF AND PUSH20 0xFFFFFFFFFFFFFFFFFFFFFFFFFFFFFFFFFFFFFFFF AND DUP2 MSTORE PUSH1 0x20 ADD PUSH1 0x2 DUP3 ADD SLOAD DUP2 MSTORE PUSH1 0x20 ADD PUSH1 0x3 DUP3 ADD SLOAD DUP2 MSTORE PUSH1 0x20 ADD PUSH1 0x4 DUP3 ADD SLOAD DUP2 MSTORE PUSH1 0x20 ADD PUSH1 0x5 DUP3 ADD SLOAD DUP2 MSTORE PUSH1 0x20 ADD PUSH1 0x6 DUP3 ADD SLOAD DUP2 MSTORE POP POP SWAP1 POP SWAP2 SWAP1 POP JUMP JUMPDEST PUSH0 PUSH2 0xFD9 DUP3 PUSH2 0xECA JUMP JUMPDEST SWAP1 POP CALLER PUSH20 0xFFFFFFFFFFFFFFFFFFFFFFFFFFFFFFFFFFFFFFFF AND DUP2 PUSH0 ADD MLOAD PUSH20 0xFFFFFFFFFFFFFFFFFFFFFFFFFFFFFFFFFFFFFFFF AND EQ PUSH2 0x104C JUMPI PUSH1 0x40 MLOAD PUSH32 0x8C379A000000000000000000000000000000000000000000000000000000000 DUP2 MSTORE PUSH1 0x4 ADD PUSH2 0x1043 SWAP1 PUSH2 0x1FC0 JUMP JUMPDEST PUSH1 0x40 MLOAD DUP1 SWAP2 SUB SWAP1 REVERT JUMPDEST PUSH32 0x7265706179656400000000000000000000000000000000000000000000000000 DUP2 PUSH1 0xC0 ADD MLOAD EQ PUSH2 0x10B2 JUMPI PUSH1 0x40 MLOAD PUSH32 0x8C379A000000000000000000000000000000000000000000000000000000000 DUP2 MSTORE PUSH1 0x4 ADD PUSH2 0x10A9 SWAP1 PUSH2 0x211E JUMP JUMPDEST PUSH1 0x40 MLOAD DUP1 SWAP2 SUB SWAP1 REVERT JUMPDEST DUP1 PUSH1 0x20 ADD MLOAD PUSH20 0xFFFFFFFFFFFFFFFFFFFFFFFFFFFFFFFFFFFFFFFF AND PUSH4 0x23B872DD ADDRESS CALLER DUP5 PUSH1 0x40 ADD MLOAD PUSH1 0x40 MLOAD DUP5 PUSH4 0xFFFFFFFF AND PUSH1 0xE0 SHL DUP2 MSTORE PUSH1 0x4 ADD PUSH2 0x10F7 SWAP4 SWAP3 SWAP2 SWAP1 PUSH2 0x1B71 JUMP JUMPDEST PUSH0 PUSH1 0x40 MLOAD DUP1 DUP4 SUB DUP2 PUSH0 DUP8 DUP1 EXTCODESIZE ISZERO DUP1 ISZERO PUSH2 0x110E JUMPI PUSH0 DUP1 REVERT JUMPDEST POP GAS CALL ISZERO DUP1 ISZERO PUSH2 0x1120 JUMPI RETURNDATASIZE PUSH0 DUP1 RETURNDATACOPY RETURNDATASIZE PUSH0 REVERT JUMPDEST POP POP POP POP PUSH32 0x636C6F7365640000000000000000000000000000000000000000000000000000 DUP2 PUSH1 0xC0 ADD DUP2 DUP2 MSTORE POP POP PUSH2 0x1157 DUP3 PUSH2 0x5A9 JUMP JUMPDEST POP POP JUMP JUMPDEST PUSH0 DUP1 PUSH0 PUSH2 0x1167 DUP5 PUSH2 0xECA JUMP JUMPDEST SWAP1 POP PUSH0 PUSH1 0x8 SLOAD DUP3 PUSH1 0x80 ADD MLOAD PUSH2 0x117C SWAP2 SWAP1 PUSH2 0x192F JUMP JUMPDEST PUSH1 0x2 PUSH0 DUP8 DUP2 MSTORE PUSH1 0x20 ADD SWAP1 DUP2 MSTORE PUSH1 0x20 ADD PUSH0 KECCAK256 SLOAD PUSH2 0x1198 SWAP2 SWAP1 PUSH2 0x19A3 JUMP JUMPDEST SWAP1 POP PUSH0 TIMESTAMP DUP3 PUSH2 0x11A7 SWAP2 SWAP1 PUSH2 0x1970 JUMP JUMPDEST SWAP1 POP DUP1 PUSH0 DUP3 LT SWAP5 POP SWAP5 POP POP POP POP SWAP2 POP SWAP2 JUMP JUMPDEST PUSH0 DUP1 PUSH0 DUP4 DUP2 MSTORE PUSH1 0x20 ADD SWAP1 DUP2 MSTORE PUSH1 0x20 ADD PUSH0 KECCAK256 SWAP1 POP CALLER PUSH20 0xFFFFFFFFFFFFFFFFFFFFFFFFFFFFFFFFFFFFFFFF AND DUP2 PUSH0 ADD PUSH0 SWAP1 SLOAD SWAP1 PUSH2 0x100 EXP SWAP1 DIV PUSH20 0xFFFFFFFFFFFFFFFFFFFFFFFFFFFFFFFFFFFFFFFF AND PUSH20 0xFFFFFFFFFFFFFFFFFFFFFFFFFFFFFFFFFFFFFFFF AND EQ PUSH2 0x125C JUMPI PUSH1 0x40 MLOAD PUSH32 0x8C379A000000000000000000000000000000000000000000000000000000000 DUP2 MSTORE PUSH1 0x4 ADD PUSH2 0x1253 SWAP1 PUSH2 0x2186 JUMP JUMPDEST PUSH1 0x40 MLOAD DUP1 SWAP2 SUB SWAP1 REVERT JUMPDEST PUSH32 0x6F70656E00000000000000000000000000000000000000000000000000000000 DUP2 PUSH1 0x6 ADD SLOAD EQ PUSH2 0x12C2 JUMPI PUSH1 0x40 MLOAD PUSH32 0x8C379A000000000000000000000000000000000000000000000000000000000 DUP2 MSTORE PUSH1 0x4 ADD PUSH2 0x12B9 SWAP1 PUSH2 0x21EE JUMP JUMPDEST PUSH1 0x40 MLOAD DUP1 SWAP2 SUB SWAP1 REVERT JUMPDEST PUSH32 0x63616E63656C0000000000000000000000000000000000000000000000000000 DUP2 PUSH1 0x6 ADD DUP2 SWAP1 SSTORE POP PUSH2 0x12F4 DUP3 PUSH2 0x5A9 JUMP JUMPDEST PUSH32 0x7E885013CA94016B1452B4678F1C43C33CD914617B389322AF7F7D97A2C4F585 CALLER DUP3 PUSH1 0x40 MLOAD PUSH2 0x1325 SWAP3 SWAP2 SWAP1 PUSH2 0x1F4E JUMP JUMPDEST PUSH1 0x40 MLOAD DUP1 SWAP2 SUB SWAP1 LOG1 POP POP JUMP JUMPDEST PUSH0 PUSH1 0x20 MSTORE DUP1 PUSH0 MSTORE PUSH1 0x40 PUSH0 KECCAK256 PUSH0 SWAP2 POP SWAP1 POP DUP1 PUSH0 ADD PUSH0 SWAP1 SLOAD SWAP1 PUSH2 0x100 EXP SWAP1 DIV PUSH20 0xFFFFFFFFFFFFFFFFFFFFFFFFFFFFFFFFFFFFFFFF AND SWAP1 DUP1 PUSH1 0x1 ADD PUSH0 SWAP1 SLOAD SWAP1 PUSH2 0x100 EXP SWAP1 DIV PUSH20 0xFFFFFFFFFFFFFFFFFFFFFFFFFFFFFFFFFFFFFFFF AND SWAP1 DUP1 PUSH1 0x2 ADD SLOAD SWAP1 DUP1 PUSH1 0x3 ADD SLOAD SWAP1 DUP1 PUSH1 0x4 ADD SLOAD SWAP1 DUP1 PUSH1 0x5 ADD SLOAD SWAP1 DUP1 PUSH1 0x6 ADD SLOAD SWAP1 POP DUP8 JUMP JUMPDEST PUSH1 0x40 MLOAD DUP1 PUSH1 0xE0 ADD PUSH1 0x40 MSTORE DUP1 PUSH0 PUSH20 0xFFFFFFFFFFFFFFFFFFFFFFFFFFFFFFFFFFFFFFFF AND DUP2 MSTORE PUSH1 0x20 ADD PUSH0 PUSH20 0xFFFFFFFFFFFFFFFFFFFFFFFFFFFFFFFFFFFFFFFF AND DUP2 MSTORE PUSH1 0x20 ADD PUSH0 DUP2 MSTORE PUSH1 0x20 ADD PUSH0 DUP2 MSTORE PUSH1 0x20 ADD PUSH0 DUP2 MSTORE PUSH1 0x20 ADD PUSH0 DUP2 MSTORE PUSH1 0x20 ADD PUSH0 DUP1 NOT AND DUP2 MSTORE POP SWAP1 JUMP JUMPDEST PUSH0 DUP1 REVERT JUMPDEST PUSH0 PUSH20 0xFFFFFFFFFFFFFFFFFFFFFFFFFFFFFFFFFFFFFFFF DUP3 AND SWAP1 POP SWAP2 SWAP1 POP JUMP JUMPDEST PUSH0 PUSH2 0x143E DUP3 PUSH2 0x1415 JUMP JUMPDEST SWAP1 POP SWAP2 SWAP1 POP JUMP JUMPDEST PUSH2 0x144E DUP2 PUSH2 0x1434 JUMP JUMPDEST DUP2 EQ PUSH2 0x1458 JUMPI PUSH0 DUP1 REVERT JUMPDEST POP JUMP JUMPDEST PUSH0 DUP2 CALLDATALOAD SWAP1 POP PUSH2 0x1469 DUP2 PUSH2 0x1445 JUMP JUMPDEST SWAP3 SWAP2 POP POP JUMP JUMPDEST PUSH0 PUSH1 0x20 DUP3 DUP5 SUB SLT ISZERO PUSH2 0x1484 JUMPI PUSH2 0x1483 PUSH2 0x1411 JUMP JUMPDEST JUMPDEST PUSH0 PUSH2 0x1491 DUP5 DUP3 DUP6 ADD PUSH2 0x145B JUMP JUMPDEST SWAP2 POP POP SWAP3 SWAP2 POP POP JUMP JUMPDEST PUSH0 DUP2 MLOAD SWAP1 POP SWAP2 SWAP1 POP JUMP JUMPDEST PUSH0 DUP3 DUP3 MSTORE PUSH1 0x20 DUP3 ADD SWAP1 POP SWAP3 SWAP2 POP POP JUMP JUMPDEST PUSH0 DUP2 SWAP1 POP PUSH1 0x20 DUP3 ADD SWAP1 POP SWAP2 SWAP1 POP JUMP JUMPDEST PUSH0 DUP2 SWAP1 POP SWAP2 SWAP1 POP JUMP JUMPDEST PUSH2 0x14D5 DUP2 PUSH2 0x14C3 JUMP JUMPDEST DUP3 MSTORE POP POP JUMP JUMPDEST PUSH0 PUSH2 0x14E6 DUP4 DUP4 PUSH2 0x14CC JUMP JUMPDEST PUSH1 0x20 DUP4 ADD SWAP1 POP SWAP3 SWAP2 POP POP JUMP JUMPDEST PUSH0 PUSH1 0x20 DUP3 ADD SWAP1 POP SWAP2 SWAP1 POP JUMP JUMPDEST PUSH0 PUSH2 0x1508 DUP3 PUSH2 0x149A JUMP JUMPDEST PUSH2 0x1512 DUP2 DUP6 PUSH2 0x14A4 JUMP JUMPDEST SWAP4 POP PUSH2 0x151D DUP4 PUSH2 0x14B4 JUMP JUMPDEST DUP1 PUSH0 JUMPDEST DUP4 DUP2 LT ISZERO PUSH2 0x154D JUMPI DUP2 MLOAD PUSH2 0x1534 DUP9 DUP3 PUSH2 0x14DB JUMP JUMPDEST SWAP8 POP PUSH2 0x153F DUP4 PUSH2 0x14F2 JUMP JUMPDEST SWAP3 POP POP PUSH1 0x1 DUP2 ADD SWAP1 POP PUSH2 0x1520 JUMP JUMPDEST POP DUP6 SWAP4 POP POP POP POP SWAP3 SWAP2 POP POP JUMP JUMPDEST PUSH0 PUSH1 0x20 DUP3 ADD SWAP1 POP DUP2 DUP2 SUB PUSH0 DUP4 ADD MSTORE PUSH2 0x1572 DUP2 DUP5 PUSH2 0x14FE JUMP JUMPDEST SWAP1 POP SWAP3 SWAP2 POP POP JUMP JUMPDEST PUSH2 0x1583 DUP2 PUSH2 0x14C3 JUMP JUMPDEST DUP2 EQ PUSH2 0x158D JUMPI PUSH0 DUP1 REVERT JUMPDEST POP JUMP JUMPDEST PUSH0 DUP2 CALLDATALOAD SWAP1 POP PUSH2 0x159E DUP2 PUSH2 0x157A JUMP JUMPDEST SWAP3 SWAP2 POP POP JUMP JUMPDEST PUSH0 PUSH1 0x20 DUP3 DUP5 SUB SLT ISZERO PUSH2 0x15B9 JUMPI PUSH2 0x15B8 PUSH2 0x1411 JUMP JUMPDEST JUMPDEST PUSH0 PUSH2 0x15C6 DUP5 DUP3 DUP6 ADD PUSH2 0x1590 JUMP JUMPDEST SWAP2 POP POP SWAP3 SWAP2 POP POP JUMP JUMPDEST PUSH2 0x15D8 DUP2 PUSH2 0x14C3 JUMP JUMPDEST DUP3 MSTORE POP POP JUMP JUMPDEST PUSH0 PUSH1 0x20 DUP3 ADD SWAP1 POP PUSH2 0x15F1 PUSH0 DUP4 ADD DUP5 PUSH2 0x15CF JUMP JUMPDEST SWAP3 SWAP2 POP POP JUMP JUMPDEST PUSH0 DUP1 PUSH1 0x40 DUP4 DUP6 SUB SLT ISZERO PUSH2 0x160D JUMPI PUSH2 0x160C PUSH2 0x1411 JUMP JUMPDEST JUMPDEST PUSH0 PUSH2 0x161A DUP6 DUP3 DUP7 ADD PUSH2 0x145B JUMP JUMPDEST SWAP3 POP POP PUSH1 0x20 PUSH2 0x162B DUP6 DUP3 DUP7 ADD PUSH2 0x1590 JUMP JUMPDEST SWAP2 POP POP SWAP3 POP SWAP3 SWAP1 POP JUMP JUMPDEST PUSH2 0x163E DUP2 PUSH2 0x1434 JUMP JUMPDEST DUP3 MSTORE POP POP JUMP JUMPDEST PUSH0 PUSH1 0x20 DUP3 ADD SWAP1 POP PUSH2 0x1657 PUSH0 DUP4 ADD DUP5 PUSH2 0x1635 JUMP JUMPDEST SWAP3 SWAP2 POP POP JUMP JUMPDEST PUSH0 DUP2 ISZERO ISZERO SWAP1 POP SWAP2 SWAP1 POP JUMP JUMPDEST PUSH2 0x1671 DUP2 PUSH2 0x165D JUMP JUMPDEST DUP3 MSTORE POP POP JUMP JUMPDEST PUSH0 PUSH1 0x20 DUP3 ADD SWAP1 POP PUSH2 0x168A PUSH0 DUP4 ADD DUP5 PUSH2 0x1668 JUMP JUMPDEST SWAP3 SWAP2 POP POP JUMP JUMPDEST PUSH0 DUP1 PUSH0 DUP1 PUSH0 PUSH1 0xA0 DUP7 DUP9 SUB SLT ISZERO PUSH2 0x16A9 JUMPI PUSH2 0x16A8 PUSH2 0x1411 JUMP JUMPDEST JUMPDEST PUSH0 PUSH2 0x16B6 DUP9 DUP3 DUP10 ADD PUSH2 0x145B JUMP JUMPDEST SWAP6 POP POP PUSH1 0x20 PUSH2 0x16C7 DUP9 DUP3 DUP10 ADD PUSH2 0x1590 JUMP JUMPDEST SWAP5 POP POP PUSH1 0x40 PUSH2 0x16D8 DUP9 DUP3 DUP10 ADD PUSH2 0x1590 JUMP JUMPDEST SWAP4 POP POP PUSH1 0x60 PUSH2 0x16E9 DUP9 DUP3 DUP10 ADD PUSH2 0x1590 JUMP JUMPDEST SWAP3 POP POP PUSH1 0x80 PUSH2 0x16FA DUP9 DUP3 DUP10 ADD PUSH2 0x1590 JUMP JUMPDEST SWAP2 POP POP SWAP3 SWAP6 POP SWAP3 SWAP6 SWAP1 SWAP4 POP JUMP JUMPDEST PUSH0 PUSH2 0x1711 DUP3 PUSH2 0x1415 JUMP JUMPDEST SWAP1 POP SWAP2 SWAP1 POP JUMP JUMPDEST PUSH2 0x1721 DUP2 PUSH2 0x1707 JUMP JUMPDEST DUP3 MSTORE POP POP JUMP JUMPDEST PUSH2 0x1730 DUP2 PUSH2 0x1434 JUMP JUMPDEST DUP3 MSTORE POP POP JUMP JUMPDEST PUSH0 DUP2 SWAP1 POP SWAP2 SWAP1 POP JUMP JUMPDEST PUSH2 0x1748 DUP2 PUSH2 0x1736 JUMP JUMPDEST DUP3 MSTORE POP POP JUMP JUMPDEST PUSH1 0xE0 DUP3 ADD PUSH0 DUP3 ADD MLOAD PUSH2 0x1762 PUSH0 DUP6 ADD DUP3 PUSH2 0x1718 JUMP JUMPDEST POP PUSH1 0x20 DUP3 ADD MLOAD PUSH2 0x1775 PUSH1 0x20 DUP6 ADD DUP3 PUSH2 0x1727 JUMP JUMPDEST POP PUSH1 0x40 DUP3 ADD MLOAD PUSH2 0x1788 PUSH1 0x40 DUP6 ADD DUP3 PUSH2 0x14CC JUMP JUMPDEST POP PUSH1 0x60 DUP3 ADD MLOAD PUSH2 0x179B PUSH1 0x60 DUP6 ADD DUP3 PUSH2 0x14CC JUMP JUMPDEST POP PUSH1 0x80 DUP3 ADD MLOAD PUSH2 0x17AE PUSH1 0x80 DUP6 ADD DUP3 PUSH2 0x14CC JUMP JUMPDEST POP PUSH1 0xA0 DUP3 ADD MLOAD PUSH2 0x17C1 PUSH1 0xA0 DUP6 ADD DUP3 PUSH2 0x14CC JUMP JUMPDEST POP PUSH1 0xC0 DUP3 ADD MLOAD PUSH2 0x17D4 PUSH1 0xC0 DUP6 ADD DUP3 PUSH2 0x173F JUMP JUMPDEST POP POP POP POP JUMP JUMPDEST PUSH0 PUSH1 0xE0 DUP3 ADD SWAP1 POP PUSH2 0x17ED PUSH0 DUP4 ADD DUP5 PUSH2 0x174E JUMP JUMPDEST SWAP3 SWAP2 POP POP JUMP JUMPDEST PUSH0 PUSH1 0x40 DUP3 ADD SWAP1 POP PUSH2 0x1806 PUSH0 DUP4 ADD DUP6 PUSH2 0x15CF JUMP JUMPDEST PUSH2 0x1813 PUSH1 0x20 DUP4 ADD DUP5 PUSH2 0x1668 JUMP JUMPDEST SWAP4 SWAP3 POP POP POP JUMP JUMPDEST PUSH2 0x1823 DUP2 PUSH2 0x1707 JUMP JUMPDEST DUP3 MSTORE POP POP JUMP JUMPDEST PUSH2 0x1832 DUP2 PUSH2 0x1736 JUMP JUMPDEST DUP3 MSTORE POP POP JUMP JUMPDEST PUSH0 PUSH1 0xE0 DUP3 ADD SWAP1 POP PUSH2 0x184B PUSH0 DUP4 ADD DUP11 PUSH2 0x181A JUMP JUMPDEST PUSH2 0x1858 PUSH1 0x20 DUP4 ADD DUP10 PUSH2 0x1635 JUMP JUMPDEST PUSH2 0x1865 PUSH1 0x40 DUP4 ADD DUP9 PUSH2 0x15CF JUMP JUMPDEST PUSH2 0x1872 PUSH1 0x60 DUP4 ADD DUP8 PUSH2 0x15CF JUMP JUMPDEST PUSH2 0x187F PUSH1 0x80 DUP4 ADD DUP7 PUSH2 0x15CF JUMP JUMPDEST PUSH2 0x188C PUSH1 0xA0 DUP4 ADD DUP6 PUSH2 0x15CF JUMP JUMPDEST PUSH2 0x1899 PUSH1 0xC0 DUP4 ADD DUP5 PUSH2 0x1829 JUMP JUMPDEST SWAP9 SWAP8 POP POP POP POP POP POP POP POP JUMP JUMPDEST PUSH32 0x4E487B7100000000000000000000000000000000000000000000000000000000 PUSH0 MSTORE PUSH1 0x12 PUSH1 0x4 MSTORE PUSH1 0x24 PUSH0 REVERT JUMPDEST PUSH32 0x4E487B7100000000000000000000000000000000000000000000000000000000 PUSH0 MSTORE PUSH1 0x11 PUSH1 0x4 MSTORE PUSH1 0x24 PUSH0 REVERT JUMPDEST PUSH0 PUSH2 0x1909 DUP3 PUSH2 0x14C3 JUMP JUMPDEST SWAP2 POP PUSH2 0x1914 DUP4 PUSH2 0x14C3 JUMP JUMPDEST SWAP3 POP DUP3 PUSH2 0x1924 JUMPI PUSH2 0x1923 PUSH2 0x18A5 JUMP JUMPDEST JUMPDEST DUP3 DUP3 DIV SWAP1 POP SWAP3 SWAP2 POP POP JUMP JUMPDEST PUSH0 PUSH2 0x1939 DUP3 PUSH2 0x14C3 JUMP JUMPDEST SWAP2 POP PUSH2 0x1944 DUP4 PUSH2 0x14C3 JUMP JUMPDEST SWAP3 POP DUP3 DUP3 MUL PUSH2 0x1952 DUP2 PUSH2 0x14C3 JUMP JUMPDEST SWAP2 POP DUP3 DUP3 DIV DUP5 EQ DUP4 ISZERO OR PUSH2 0x1969 JUMPI PUSH2 0x1968 PUSH2 0x18D2 JUMP JUMPDEST JUMPDEST POP SWAP3 SWAP2 POP POP JUMP JUMPDEST PUSH0 PUSH2 0x197A DUP3 PUSH2 0x14C3 JUMP JUMPDEST SWAP2 POP PUSH2 0x1985 DUP4 PUSH2 0x14C3 JUMP JUMPDEST SWAP3 POP DUP3 DUP3 SUB SWAP1 POP DUP2 DUP2 GT ISZERO PUSH2 0x199D JUMPI PUSH2 0x199C PUSH2 0x18D2 JUMP JUMPDEST JUMPDEST SWAP3 SWAP2 POP POP JUMP JUMPDEST PUSH0 PUSH2 0x19AD DUP3 PUSH2 0x14C3 JUMP JUMPDEST SWAP2 POP PUSH2 0x19B8 DUP4 PUSH2 0x14C3 JUMP JUMPDEST SWAP3 POP DUP3 DUP3 ADD SWAP1 POP DUP1 DUP3 GT ISZERO PUSH2 0x19D0 JUMPI PUSH2 0x19CF PUSH2 0x18D2 JUMP JUMPDEST JUMPDEST SWAP3 SWAP2 POP POP JUMP JUMPDEST PUSH0 DUP2 MLOAD SWAP1 POP PUSH2 0x19E4 DUP2 PUSH2 0x1445 JUMP JUMPDEST SWAP3 SWAP2 POP POP JUMP JUMPDEST PUSH0 PUSH1 0x20 DUP3 DUP5 SUB SLT ISZERO PUSH2 0x19FF JUMPI PUSH2 0x19FE PUSH2 0x1411 JUMP JUMPDEST JUMPDEST PUSH0 PUSH2 0x1A0C DUP5 DUP3 DUP6 ADD PUSH2 0x19D6 JUMP JUMPDEST SWAP2 POP POP SWAP3 SWAP2 POP POP JUMP JUMPDEST PUSH0 PUSH1 0x40 DUP3 ADD SWAP1 POP PUSH2 0x1A28 PUSH0 DUP4 ADD DUP6 PUSH2 0x1635 JUMP JUMPDEST PUSH2 0x1A35 PUSH1 0x20 DUP4 ADD DUP5 PUSH2 0x1635 JUMP JUMPDEST SWAP4 SWAP3 POP POP POP JUMP JUMPDEST PUSH2 0x1A45 DUP2 PUSH2 0x165D JUMP JUMPDEST DUP2 EQ PUSH2 0x1A4F JUMPI PUSH0 DUP1 REVERT JUMPDEST POP JUMP JUMPDEST PUSH0 DUP2 MLOAD SWAP1 POP PUSH2 0x1A60 DUP2 PUSH2 0x1A3C JUMP JUMPDEST SWAP3 SWAP2 POP POP JUMP JUMPDEST PUSH0 PUSH1 0x20 DUP3 DUP5 SUB SLT ISZERO PUSH2 0x1A7B JUMPI PUSH2 0x1A7A PUSH2 0x1411 JUMP JUMPDEST JUMPDEST PUSH0 PUSH2 0x1A88 DUP5 DUP3 DUP6 ADD PUSH2 0x1A52 JUMP JUMPDEST SWAP2 POP POP SWAP3 SWAP2 POP POP JUMP JUMPDEST PUSH0 DUP3 DUP3 MSTORE PUSH1 0x20 DUP3 ADD SWAP1 POP SWAP3 SWAP2 POP POP JUMP JUMPDEST PUSH32 0x56616C756573206D7573742062652067726561746572207468616E207A65726F PUSH0 DUP3 ADD MSTORE POP JUMP JUMPDEST PUSH0 PUSH2 0x1AD5 PUSH1 0x20 DUP4 PUSH2 0x1A91 JUMP JUMPDEST SWAP2 POP PUSH2 0x1AE0 DUP3 PUSH2 0x1AA1 JUMP JUMPDEST PUSH1 0x20 DUP3 ADD SWAP1 POP SWAP2 SWAP1 POP JUMP JUMPDEST PUSH0 PUSH1 0x20 DUP3 ADD SWAP1 POP DUP2 DUP2 SUB PUSH0 DUP4 ADD MSTORE PUSH2 0x1B02 DUP2 PUSH2 0x1AC9 JUMP JUMPDEST SWAP1 POP SWAP2 SWAP1 POP JUMP JUMPDEST PUSH32 0x596F7520617265206E6F7420686F6C646572206F66207468697320746F6B656E PUSH0 DUP3 ADD MSTORE POP JUMP JUMPDEST PUSH0 PUSH2 0x1B3D PUSH1 0x20 DUP4 PUSH2 0x1A91 JUMP JUMPDEST SWAP2 POP PUSH2 0x1B48 DUP3 PUSH2 0x1B09 JUMP JUMPDEST PUSH1 0x20 DUP3 ADD SWAP1 POP SWAP2 SWAP1 POP JUMP JUMPDEST PUSH0 PUSH1 0x20 DUP3 ADD SWAP1 POP DUP2 DUP2 SUB PUSH0 DUP4 ADD MSTORE PUSH2 0x1B6A DUP2 PUSH2 0x1B31 JUMP JUMPDEST SWAP1 POP SWAP2 SWAP1 POP JUMP JUMPDEST PUSH0 PUSH1 0x60 DUP3 ADD SWAP1 POP PUSH2 0x1B84 PUSH0 DUP4 ADD DUP7 PUSH2 0x1635 JUMP JUMPDEST PUSH2 0x1B91 PUSH1 0x20 DUP4 ADD DUP6 PUSH2 0x1635 JUMP JUMPDEST PUSH2 0x1B9E PUSH1 0x40 DUP4 ADD DUP5 PUSH2 0x15CF JUMP JUMPDEST SWAP5 SWAP4 POP POP POP POP JUMP JUMPDEST PUSH0 PUSH2 0x1BB0 DUP3 PUSH2 0x14C3 JUMP JUMPDEST SWAP2 POP PUSH32 0xFFFFFFFFFFFFFFFFFFFFFFFFFFFFFFFFFFFFFFFFFFFFFFFFFFFFFFFFFFFFFFFF DUP3 SUB PUSH2 0x1BE2 JUMPI PUSH2 0x1BE1 PUSH2 0x18D2 JUMP JUMPDEST JUMPDEST PUSH1 0x1 DUP3 ADD SWAP1 POP SWAP2 SWAP1 POP JUMP JUMPDEST PUSH0 PUSH2 0x100 DUP3 ADD SWAP1 POP PUSH2 0x1C01 PUSH0 DUP4 ADD DUP6 PUSH2 0x1635 JUMP JUMPDEST PUSH2 0x1C0E PUSH1 0x20 DUP4 ADD DUP5 PUSH2 0x174E JUMP JUMPDEST SWAP4 SWAP3 POP POP POP JUMP JUMPDEST PUSH32 0x4974277320796F7572206F776E206C6F616E206170706C69636174696F6E2E00 PUSH0 DUP3 ADD MSTORE POP JUMP JUMPDEST PUSH0 PUSH2 0x1C49 PUSH1 0x1F DUP4 PUSH2 0x1A91 JUMP JUMPDEST SWAP2 POP PUSH2 0x1C54 DUP3 PUSH2 0x1C15 JUMP JUMPDEST PUSH1 0x20 DUP3 ADD SWAP1 POP SWAP2 SWAP1 POP JUMP JUMPDEST PUSH0 PUSH1 0x20 DUP3 ADD SWAP1 POP DUP2 DUP2 SUB PUSH0 DUP4 ADD MSTORE PUSH2 0x1C76 DUP2 PUSH2 0x1C3D JUMP JUMPDEST SWAP1 POP SWAP2 SWAP1 POP JUMP JUMPDEST PUSH32 0x596F7520686176656E277420656E6F7567682062616C616E636520666F72206C PUSH0 DUP3 ADD MSTORE PUSH32 0x656E64696E670000000000000000000000000000000000000000000000000000 PUSH1 0x20 DUP3 ADD MSTORE POP JUMP JUMPDEST PUSH0 PUSH2 0x1CD7 PUSH1 0x26 DUP4 PUSH2 0x1A91 JUMP JUMPDEST SWAP2 POP PUSH2 0x1CE2 DUP3 PUSH2 0x1C7D JUMP JUMPDEST PUSH1 0x40 DUP3 ADD SWAP1 POP SWAP2 SWAP1 POP JUMP JUMPDEST PUSH0 PUSH1 0x20 DUP3 ADD SWAP1 POP DUP2 DUP2 SUB PUSH0 DUP4 ADD MSTORE PUSH2 0x1D04 DUP2 PUSH2 0x1CCB JUMP JUMPDEST SWAP1 POP SWAP2 SWAP1 POP JUMP JUMPDEST PUSH0 DUP2 SWAP1 POP SWAP3 SWAP2 POP POP JUMP JUMPDEST POP JUMP JUMPDEST PUSH0 PUSH2 0x1D23 PUSH0 DUP4 PUSH2 0x1D0B JUMP JUMPDEST SWAP2 POP PUSH2 0x1D2E DUP3 PUSH2 0x1D15 JUMP JUMPDEST PUSH0 DUP3 ADD SWAP1 POP SWAP2 SWAP1 POP JUMP JUMPDEST PUSH0 PUSH2 0x1D42 DUP3 PUSH2 0x1D18 JUMP JUMPDEST SWAP2 POP DUP2 SWAP1 POP SWAP2 SWAP1 POP JUMP JUMPDEST PUSH32 0x5472616E73666572206661696C65642E00000000000000000000000000000000 PUSH0 DUP3 ADD MSTORE POP JUMP JUMPDEST PUSH0 PUSH2 0x1D80 PUSH1 0x10 DUP4 PUSH2 0x1A91 JUMP JUMPDEST SWAP2 POP PUSH2 0x1D8B DUP3 PUSH2 0x1D4C JUMP JUMPDEST PUSH1 0x20 DUP3 ADD SWAP1 POP SWAP2 SWAP1 POP JUMP JUMPDEST PUSH0 PUSH1 0x20 DUP3 ADD SWAP1 POP DUP2 DUP2 SUB PUSH0 DUP4 ADD MSTORE PUSH2 0x1DAD DUP2 PUSH2 0x1D74 JUMP JUMPDEST SWAP1 POP SWAP2 SWAP1 POP JUMP JUMPDEST PUSH0 DUP2 PUSH0 SHR SWAP1 POP SWAP2 SWAP1 POP JUMP JUMPDEST PUSH0 PUSH20 0xFFFFFFFFFFFFFFFFFFFFFFFFFFFFFFFFFFFFFFFF DUP3 AND SWAP1 POP SWAP2 SWAP1 POP JUMP JUMPDEST PUSH0 PUSH2 0x1DF0 PUSH2 0x1DEB DUP4 PUSH2 0x1DB4 JUMP JUMPDEST PUSH2 0x1DBF JUMP JUMPDEST SWAP1 POP SWAP2 SWAP1 POP JUMP JUMPDEST PUSH0 PUSH20 0xFFFFFFFFFFFFFFFFFFFFFFFFFFFFFFFFFFFFFFFF DUP3 AND SWAP1 POP SWAP2 SWAP1 POP JUMP JUMPDEST PUSH0 PUSH2 0x1E28 PUSH2 0x1E23 DUP4 PUSH2 0x1DB4 JUMP JUMPDEST PUSH2 0x1DF7 JUMP JUMPDEST SWAP1 POP SWAP2 SWAP1 POP JUMP JUMPDEST PUSH0 DUP2 SWAP1 POP SWAP2 SWAP1 POP JUMP JUMPDEST PUSH0 PUSH2 0x1E4A PUSH2 0x1E45 DUP4 PUSH2 0x1DB4 JUMP JUMPDEST PUSH2 0x1E2F JUMP JUMPDEST SWAP1 POP SWAP2 SWAP1 POP JUMP JUMPDEST PUSH0 DUP2 SWAP1 POP SWAP2 SWAP1 POP JUMP JUMPDEST PUSH0 PUSH2 0x1E6C PUSH2 0x1E67 DUP4 PUSH2 0x1DB4 JUMP JUMPDEST PUSH2 0x1E51 JUMP JUMPDEST SWAP1 POP SWAP2 SWAP1 POP JUMP JUMPDEST PUSH1 0xE0 DUP3 ADD PUSH0 DUP1 DUP4 ADD SLOAD SWAP1 POP PUSH2 0x1E87 DUP2 PUSH2 0x1DDE JUMP JUMPDEST PUSH2 0x1E93 PUSH0 DUP7 ADD DUP3 PUSH2 0x1718 JUMP JUMPDEST POP PUSH1 0x1 DUP4 ADD SLOAD SWAP1 POP PUSH2 0x1EA4 DUP2 PUSH2 0x1E16 JUMP JUMPDEST PUSH2 0x1EB1 PUSH1 0x20 DUP7 ADD DUP3 PUSH2 0x1727 JUMP JUMPDEST POP PUSH1 0x2 DUP4 ADD SLOAD SWAP1 POP PUSH2 0x1EC2 DUP2 PUSH2 0x1E38 JUMP JUMPDEST PUSH2 0x1ECF PUSH1 0x40 DUP7 ADD DUP3 PUSH2 0x14CC JUMP JUMPDEST POP PUSH1 0x3 DUP4 ADD SLOAD SWAP1 POP PUSH2 0x1EE0 DUP2 PUSH2 0x1E38 JUMP JUMPDEST PUSH2 0x1EED PUSH1 0x60 DUP7 ADD DUP3 PUSH2 0x14CC JUMP JUMPDEST POP PUSH1 0x4 DUP4 ADD SLOAD SWAP1 POP PUSH2 0x1EFE DUP2 PUSH2 0x1E38 JUMP JUMPDEST PUSH2 0x1F0B PUSH1 0x80 DUP7 ADD DUP3 PUSH2 0x14CC JUMP JUMPDEST POP PUSH1 0x5 DUP4 ADD SLOAD SWAP1 POP PUSH2 0x1F1C DUP2 PUSH2 0x1E38 JUMP JUMPDEST PUSH2 0x1F29 PUSH1 0xA0 DUP7 ADD DUP3 PUSH2 0x14CC JUMP JUMPDEST POP PUSH1 0x6 DUP4 ADD SLOAD SWAP1 POP PUSH2 0x1F3A DUP2 PUSH2 0x1E5A JUMP JUMPDEST PUSH2 0x1F47 PUSH1 0xC0 DUP7 ADD DUP3 PUSH2 0x173F JUMP JUMPDEST POP POP POP POP POP JUMP JUMPDEST PUSH0 PUSH2 0x100 DUP3 ADD SWAP1 POP PUSH2 0x1F62 PUSH0 DUP4 ADD DUP6 PUSH2 0x1635 JUMP JUMPDEST PUSH2 0x1F6F PUSH1 0x20 DUP4 ADD DUP5 PUSH2 0x1E73 JUMP JUMPDEST SWAP4 SWAP3 POP POP POP JUMP JUMPDEST PUSH32 0x596F7520617265206E6F7420706F737465720000000000000000000000000000 PUSH0 DUP3 ADD MSTORE POP JUMP JUMPDEST PUSH0 PUSH2 0x1FAA PUSH1 0x12 DUP4 PUSH2 0x1A91 JUMP JUMPDEST SWAP2 POP PUSH2 0x1FB5 DUP3 PUSH2 0x1F76 JUMP JUMPDEST PUSH1 0x20 DUP3 ADD SWAP1 POP SWAP2 SWAP1 POP JUMP JUMPDEST PUSH0 PUSH1 0x20 DUP3 ADD SWAP1 POP DUP2 DUP2 SUB PUSH0 DUP4 ADD MSTORE PUSH2 0x1FD7 DUP2 PUSH2 0x1F9E JUMP JUMPDEST SWAP1 POP SWAP2 SWAP1 POP JUMP JUMPDEST PUSH32 0x546869732069732065787069726564206F72206E6F7420657863757465642079 PUSH0 DUP3 ADD MSTORE PUSH32 0x6574000000000000000000000000000000000000000000000000000000000000 PUSH1 0x20 DUP3 ADD MSTORE POP JUMP JUMPDEST PUSH0 PUSH2 0x2038 PUSH1 0x22 DUP4 PUSH2 0x1A91 JUMP JUMPDEST SWAP2 POP PUSH2 0x2043 DUP3 PUSH2 0x1FDE JUMP JUMPDEST PUSH1 0x40 DUP3 ADD SWAP1 POP SWAP2 SWAP1 POP JUMP JUMPDEST PUSH0 PUSH1 0x20 DUP3 ADD SWAP1 POP DUP2 DUP2 SUB PUSH0 DUP4 ADD MSTORE PUSH2 0x2065 DUP2 PUSH2 0x202C JUMP JUMPDEST SWAP1 POP SWAP2 SWAP1 POP JUMP JUMPDEST PUSH32 0x4E6F7420656E6F7567682062616C616E636520666F72207265706179696E6700 PUSH0 DUP3 ADD MSTORE POP JUMP JUMPDEST PUSH0 PUSH2 0x20A0 PUSH1 0x1F DUP4 PUSH2 0x1A91 JUMP JUMPDEST SWAP2 POP PUSH2 0x20AB DUP3 PUSH2 0x206C JUMP JUMPDEST PUSH1 0x20 DUP3 ADD SWAP1 POP SWAP2 SWAP1 POP JUMP JUMPDEST PUSH0 PUSH1 0x20 DUP3 ADD SWAP1 POP DUP2 DUP2 SUB PUSH0 DUP4 ADD MSTORE PUSH2 0x20CD DUP2 PUSH2 0x2094 JUMP JUMPDEST SWAP1 POP SWAP2 SWAP1 POP JUMP JUMPDEST PUSH32 0x546869732069736E277420726570617920796574000000000000000000000000 PUSH0 DUP3 ADD MSTORE POP JUMP JUMPDEST PUSH0 PUSH2 0x2108 PUSH1 0x14 DUP4 PUSH2 0x1A91 JUMP JUMPDEST SWAP2 POP PUSH2 0x2113 DUP3 PUSH2 0x20D4 JUMP JUMPDEST PUSH1 0x20 DUP3 ADD SWAP1 POP SWAP2 SWAP1 POP JUMP JUMPDEST PUSH0 PUSH1 0x20 DUP3 ADD SWAP1 POP DUP2 DUP2 SUB PUSH0 DUP4 ADD MSTORE PUSH2 0x2135 DUP2 PUSH2 0x20FC JUMP JUMPDEST SWAP1 POP SWAP2 SWAP1 POP JUMP JUMPDEST PUSH32 0x596F7520617265206E6F7420706F73746572206F6620746865206C6973740000 PUSH0 DUP3 ADD MSTORE POP JUMP JUMPDEST PUSH0 PUSH2 0x2170 PUSH1 0x1E DUP4 PUSH2 0x1A91 JUMP JUMPDEST SWAP2 POP PUSH2 0x217B DUP3 PUSH2 0x213C JUMP JUMPDEST PUSH1 0x20 DUP3 ADD SWAP1 POP SWAP2 SWAP1 POP JUMP JUMPDEST PUSH0 PUSH1 0x20 DUP3 ADD SWAP1 POP DUP2 DUP2 SUB PUSH0 DUP4 ADD MSTORE PUSH2 0x219D DUP2 PUSH2 0x2164 JUMP JUMPDEST SWAP1 POP SWAP2 SWAP1 POP JUMP JUMPDEST PUSH32 0x4E6F74206F70656E696E67206C69737400000000000000000000000000000000 PUSH0 DUP3 ADD MSTORE POP JUMP JUMPDEST PUSH0 PUSH2 0x21D8 PUSH1 0x10 DUP4 PUSH2 0x1A91 JUMP JUMPDEST SWAP2 POP PUSH2 0x21E3 DUP3 PUSH2 0x21A4 JUMP JUMPDEST PUSH1 0x20 DUP3 ADD SWAP1 POP SWAP2 SWAP1 POP JUMP JUMPDEST PUSH0 PUSH1 0x20 DUP3 ADD SWAP1 POP DUP2 DUP2 SUB PUSH0 DUP4 ADD MSTORE PUSH2 0x2205 DUP2 PUSH2 0x21CC JUMP JUMPDEST SWAP1 POP SWAP2 SWAP1 POP JUMP INVALID LOG2 PUSH5 0x6970667358 0x22 SLT KECCAK256 DUP3 SWAP8 GAS 0xE2 EXTCODECOPY 0xD9 0xE4 SWAP2 DUP6 MSTORE8 0xCA 0xB1 REVERT 0xD7 PUSH12 0xD8AA8FACD101D574B55DFDCA 0xC4 CALL DUP5 0xD9 DUP8 PUSH5 0x736F6C6343 STOP ADDMOD OR STOP CALLER "
				},
				"gasEstimates": {
					"creation": {
						"codeDepositCost": "1754000",
						"executionCost": "112376",
						"totalCost": "1866376"
					},
					"external": {
						"approveLoan(uint256)": "infinite",
						"calculateRepayAmount(uint256)": "infinite",
						"closeListing(uint256)": "infinite",
						"getCounter()": "2499",
						"getListing(address)": "infinite",
						"getListingInfo(uint256)": "infinite",
						"getUpdateTime(uint256)": "infinite",
						"giveBackNFT(uint256)": "infinite",
						"isApprove(address)": "infinite",
						"isExpired(uint256)": "infinite",
						"listNum(uint256)": "infinite",
						"loanerOf(uint256)": "2941",
						"openListing(address,uint256,uint256,uint256,uint256)": "infinite",
						"ownerOf(address,uint256)": "infinite",
						"repayLoan(uint256)": "infinite",
						"updateTime(uint256)": "22613"
					}
				},
				"methodIdentifiers": {
					"approveLoan(uint256)": "aadc1ac1",
					"calculateRepayAmount(uint256)": "1ac31f0d",
					"closeListing(uint256)": "e5a255cb",
					"getCounter()": "8ada066e",
					"getListing(address)": "084af0b2",
					"getListingInfo(uint256)": "b9314135",
					"getUpdateTime(uint256)": "b1209d4a",
					"giveBackNFT(uint256)": "ce5b8d35",
					"isApprove(address)": "4f694690",
					"isExpired(uint256)": "d9548e53",
					"listNum(uint256)": "eeabfc4a",
					"loanerOf(uint256)": "907c64f5",
					"openListing(address,uint256,uint256,uint256,uint256)": "880fe941",
					"ownerOf(address,uint256)": "1f29d2dc",
					"repayLoan(uint256)": "ab7b1c89",
					"updateTime(uint256)": "6c59bd0c"
				}
			},
			"storageLayout": {
				"storage": [
					{
						"astId": 183,
						"contract": "platform.sol:Platform",
						"label": "listNum",
						"offset": 0,
						"slot": "0",
						"type": "t_mapping(t_uint256,t_struct(ListingInfo)178_storage)"
					},
					{
						"astId": 188,
						"contract": "platform.sol:Platform",
						"label": "addrList",
						"offset": 0,
						"slot": "1",
						"type": "t_mapping(t_address,t_array(t_uint256)dyn_storage)"
					},
					{
						"astId": 192,
						"contract": "platform.sol:Platform",
						"label": "updatedTime",
						"offset": 0,
						"slot": "2",
						"type": "t_mapping(t_uint256,t_uint256)"
					},
					{
						"astId": 196,
						"contract": "platform.sol:Platform",
						"label": "loaner",
						"offset": 0,
						"slot": "3",
						"type": "t_mapping(t_uint256,t_address_payable)"
					},
					{
						"astId": 199,
						"contract": "platform.sol:Platform",
						"label": "counter",
						"offset": 0,
						"slot": "4",
						"type": "t_uint256"
					},
					{
						"astId": 202,
						"contract": "platform.sol:Platform",
						"label": "yearToDay",
						"offset": 0,
						"slot": "5",
						"type": "t_uint256"
					},
					{
						"astId": 205,
						"contract": "platform.sol:Platform",
						"label": "monthToSec",
						"offset": 0,
						"slot": "6",
						"type": "t_uint256"
					},
					{
						"astId": 208,
						"contract": "platform.sol:Platform",
						"label": "dayToSec",
						"offset": 0,
						"slot": "7",
						"type": "t_uint256"
					},
					{
						"astId": 211,
						"contract": "platform.sol:Platform",
						"label": "minTosec",
						"offset": 0,
						"slot": "8",
						"type": "t_uint256"
					}
				],
				"types": {
					"t_address": {
						"encoding": "inplace",
						"label": "address",
						"numberOfBytes": "20"
					},
					"t_address_payable": {
						"encoding": "inplace",
						"label": "address payable",
						"numberOfBytes": "20"
					},
					"t_array(t_uint256)dyn_storage": {
						"base": "t_uint256",
						"encoding": "dynamic_array",
						"label": "uint256[]",
						"numberOfBytes": "32"
					},
					"t_bytes32": {
						"encoding": "inplace",
						"label": "bytes32",
						"numberOfBytes": "32"
					},
					"t_mapping(t_address,t_array(t_uint256)dyn_storage)": {
						"encoding": "mapping",
						"key": "t_address",
						"label": "mapping(address => uint256[])",
						"numberOfBytes": "32",
						"value": "t_array(t_uint256)dyn_storage"
					},
					"t_mapping(t_uint256,t_address_payable)": {
						"encoding": "mapping",
						"key": "t_uint256",
						"label": "mapping(uint256 => address payable)",
						"numberOfBytes": "32",
						"value": "t_address_payable"
					},
					"t_mapping(t_uint256,t_struct(ListingInfo)178_storage)": {
						"encoding": "mapping",
						"key": "t_uint256",
						"label": "mapping(uint256 => struct Platform.ListingInfo)",
						"numberOfBytes": "32",
						"value": "t_struct(ListingInfo)178_storage"
					},
					"t_mapping(t_uint256,t_uint256)": {
						"encoding": "mapping",
						"key": "t_uint256",
						"label": "mapping(uint256 => uint256)",
						"numberOfBytes": "32",
						"value": "t_uint256"
					},
					"t_struct(ListingInfo)178_storage": {
						"encoding": "inplace",
						"label": "struct Platform.ListingInfo",
						"members": [
							{
								"astId": 165,
								"contract": "platform.sol:Platform",
								"label": "poster",
								"offset": 0,
								"slot": "0",
								"type": "t_address_payable"
							},
							{
								"astId": 167,
								"contract": "platform.sol:Platform",
								"label": "collectionAddr",
								"offset": 0,
								"slot": "1",
								"type": "t_address"
							},
							{
								"astId": 169,
								"contract": "platform.sol:Platform",
								"label": "tokenId",
								"offset": 0,
								"slot": "2",
								"type": "t_uint256"
							},
							{
								"astId": 171,
								"contract": "platform.sol:Platform",
								"label": "amount",
								"offset": 0,
								"slot": "3",
								"type": "t_uint256"
							},
							{
								"astId": 173,
								"contract": "platform.sol:Platform",
								"label": "duration",
								"offset": 0,
								"slot": "4",
								"type": "t_uint256"
							},
							{
								"astId": 175,
								"contract": "platform.sol:Platform",
								"label": "APR",
								"offset": 0,
								"slot": "5",
								"type": "t_uint256"
							},
							{
								"astId": 177,
								"contract": "platform.sol:Platform",
								"label": "status",
								"offset": 0,
								"slot": "6",
								"type": "t_bytes32"
							}
						],
						"numberOfBytes": "224"
					},
					"t_uint256": {
						"encoding": "inplace",
						"label": "uint256",
						"numberOfBytes": "32"
					}
				}
			},
			"userdoc": {
				"kind": "user",
				"methods": {},
				"version": 1
			}
		}
	}
}